{
  "_format": "hh-sol-artifact-1",
  "contractName": "ZuriElection",
  "sourceName": "contracts/ZuriElection.sol",
  "abi": [
    {
      "inputs": [
        {
          "internalType": "bytes32",
          "name": "merkleRoot",
          "type": "bytes32"
        }
      ],
      "stateMutability": "nonpayable",
      "type": "constructor"
    },
    {
      "inputs": [],
      "name": "ElectionHasEnded",
      "type": "error"
    },
    {
      "inputs": [],
      "name": "ElectionNotStarted",
      "type": "error"
    },
    {
      "anonymous": false,
      "inputs": [
        {
          "indexed": false,
          "internalType": "uint256",
          "name": "_candidateId",
          "type": "uint256"
        },
        {
          "indexed": false,
          "internalType": "string",
          "name": "_candidateName",
          "type": "string"
        }
      ],
      "name": "CandidateCreated",
      "type": "event"
    },
    {
      "anonymous": false,
      "inputs": [
        {
          "indexed": false,
          "internalType": "uint256",
          "name": "_winnerId",
          "type": "uint256"
        },
        {
          "indexed": false,
          "internalType": "uint256",
          "name": "_winnerVoteCount",
          "type": "uint256"
        }
      ],
      "name": "ElectionEnded",
      "type": "event"
    },
    {
      "anonymous": false,
      "inputs": [
        {
          "indexed": false,
          "internalType": "address",
          "name": "account",
          "type": "address"
        }
      ],
      "name": "Paused",
      "type": "event"
    },
    {
      "anonymous": false,
      "inputs": [
        {
          "indexed": false,
          "internalType": "address",
          "name": "account",
          "type": "address"
        }
      ],
      "name": "Unpaused",
      "type": "event"
    },
    {
      "anonymous": false,
      "inputs": [
        {
          "indexed": false,
          "internalType": "uint256",
          "name": "_candidateId",
          "type": "uint256"
        },
        {
          "indexed": false,
          "internalType": "uint256",
          "name": "_candidateVoteCount",
          "type": "uint256"
        }
      ],
      "name": "VoteForCandidate",
      "type": "event"
    },
    {
      "inputs": [],
      "name": "Active",
      "outputs": [
        {
          "internalType": "bool",
          "name": "",
          "type": "bool"
        }
      ],
      "stateMutability": "view",
      "type": "function"
    },
    {
      "inputs": [],
      "name": "Created",
      "outputs": [
        {
          "internalType": "bool",
          "name": "",
          "type": "bool"
        }
      ],
      "stateMutability": "view",
      "type": "function"
    },
    {
      "inputs": [],
      "name": "Ended",
      "outputs": [
        {
          "internalType": "bool",
          "name": "",
          "type": "bool"
        }
      ],
      "stateMutability": "view",
      "type": "function"
    },
    {
      "inputs": [
        {
          "internalType": "string",
          "name": "_name",
          "type": "string"
        },
        {
          "internalType": "string",
          "name": "_candidateHash",
          "type": "string"
        },
        {
          "internalType": "string",
          "name": "_candidateManifesto",
          "type": "string"
        }
      ],
      "name": "addCandidate",
      "outputs": [],
      "stateMutability": "nonpayable",
      "type": "function"
    },
    {
      "inputs": [
        {
          "internalType": "address",
          "name": "_newTeacher",
          "type": "address"
        }
      ],
      "name": "addTeacher",
      "outputs": [],
      "stateMutability": "nonpayable",
      "type": "function"
    },
    {
      "inputs": [
        {
          "internalType": "uint256",
          "name": "",
          "type": "uint256"
        }
      ],
      "name": "candidates",
      "outputs": [
        {
          "internalType": "uint256",
          "name": "id",
          "type": "uint256"
        },
        {
          "internalType": "string",
          "name": "name",
          "type": "string"
        },
        {
          "internalType": "string",
          "name": "candidateHash",
          "type": "string"
        },
        {
          "internalType": "string",
          "name": "candidateManifesto",
          "type": "string"
        },
        {
          "internalType": "uint256",
          "name": "voteCount",
          "type": "uint256"
        }
      ],
      "stateMutability": "view",
      "type": "function"
    },
    {
      "inputs": [],
      "name": "candidatesCount",
      "outputs": [
        {
          "internalType": "uint256",
          "name": "",
          "type": "uint256"
        }
      ],
      "stateMutability": "view",
      "type": "function"
    },
    {
      "inputs": [],
      "name": "chairman",
      "outputs": [
        {
          "internalType": "address",
          "name": "",
          "type": "address"
        }
      ],
      "stateMutability": "view",
      "type": "function"
    },
    {
      "inputs": [
        {
          "internalType": "address",
          "name": "_newChairman",
          "type": "address"
        }
      ],
      "name": "changeChairman",
      "outputs": [],
      "stateMutability": "nonpayable",
      "type": "function"
    },
    {
      "inputs": [],
      "name": "closeElection",
      "outputs": [],
      "stateMutability": "nonpayable",
      "type": "function"
    },
    {
      "inputs": [],
      "name": "description",
      "outputs": [
        {
          "internalType": "string",
          "name": "",
          "type": "string"
        }
      ],
      "stateMutability": "view",
      "type": "function"
    },
    {
      "inputs": [],
      "name": "endElection",
      "outputs": [],
      "stateMutability": "nonpayable",
      "type": "function"
    },
    {
      "inputs": [],
      "name": "getCandidates",
      "outputs": [
        {
          "components": [
            {
              "internalType": "uint256",
              "name": "id",
              "type": "uint256"
            },
            {
              "internalType": "string",
              "name": "name",
              "type": "string"
            },
            {
              "internalType": "string",
              "name": "candidateHash",
              "type": "string"
            },
            {
              "internalType": "string",
              "name": "candidateManifesto",
              "type": "string"
            },
            {
              "internalType": "uint256",
              "name": "voteCount",
              "type": "uint256"
            }
          ],
          "internalType": "struct ZuriElection.Candidate[]",
          "name": "",
          "type": "tuple[]"
        }
      ],
      "stateMutability": "view",
      "type": "function"
    },
    {
      "inputs": [],
      "name": "getWinner",
      "outputs": [
        {
          "internalType": "uint256",
          "name": "",
          "type": "uint256"
        },
        {
          "internalType": "uint256",
          "name": "",
          "type": "uint256"
        }
      ],
      "stateMutability": "view",
      "type": "function"
    },
    {
      "inputs": [],
      "name": "getWinners",
      "outputs": [
        {
          "components": [
            {
              "internalType": "string",
              "name": "position",
              "type": "string"
            },
            {
              "internalType": "string",
              "name": "description",
              "type": "string"
            },
            {
              "components": [
                {
                  "internalType": "uint256",
                  "name": "id",
                  "type": "uint256"
                },
                {
                  "internalType": "string",
                  "name": "name",
                  "type": "string"
                },
                {
                  "internalType": "string",
                  "name": "candidateHash",
                  "type": "string"
                },
                {
                  "internalType": "string",
                  "name": "candidateManifesto",
                  "type": "string"
                },
                {
                  "internalType": "uint256",
                  "name": "voteCount",
                  "type": "uint256"
                }
              ],
              "internalType": "struct ZuriElection.Candidate",
              "name": "winner",
              "type": "tuple"
            }
          ],
          "internalType": "struct ZuriElection.Election[]",
          "name": "",
          "type": "tuple[]"
        }
      ],
      "stateMutability": "view",
      "type": "function"
    },
    {
      "inputs": [],
      "name": "isChairman",
      "outputs": [
        {
          "internalType": "bool",
          "name": "",
          "type": "bool"
        }
      ],
      "stateMutability": "view",
      "type": "function"
    },
    {
      "inputs": [],
      "name": "isCreated",
      "outputs": [
        {
          "internalType": "bool",
          "name": "",
          "type": "bool"
        }
      ],
      "stateMutability": "view",
      "type": "function"
    },
    {
      "inputs": [],
      "name": "isEnded",
      "outputs": [
        {
          "internalType": "bool",
          "name": "",
          "type": "bool"
        }
      ],
      "stateMutability": "view",
      "type": "function"
    },
    {
      "inputs": [],
      "name": "isStarted",
      "outputs": [
        {
          "internalType": "bool",
          "name": "",
          "type": "bool"
        }
      ],
      "stateMutability": "view",
      "type": "function"
    },
    {
      "inputs": [],
      "name": "isTeacher",
      "outputs": [
        {
          "internalType": "bool",
          "name": "",
          "type": "bool"
        }
      ],
      "stateMutability": "view",
      "type": "function"
    },
    {
      "inputs": [
        {
          "internalType": "bytes32[]",
          "name": "proof",
          "type": "bytes32[]"
        },
        {
          "internalType": "bytes32",
          "name": "leaf",
          "type": "bytes32"
        }
      ],
      "name": "isValid",
      "outputs": [
        {
          "internalType": "bool",
          "name": "",
          "type": "bool"
        }
      ],
      "stateMutability": "view",
      "type": "function"
    },
    {
      "inputs": [],
      "name": "makeResultPublic",
      "outputs": [],
      "stateMutability": "nonpayable",
      "type": "function"
    },
    {
      "inputs": [],
      "name": "pause",
      "outputs": [],
      "stateMutability": "nonpayable",
      "type": "function"
    },
    {
      "inputs": [],
      "name": "paused",
      "outputs": [
        {
          "internalType": "bool",
          "name": "",
          "type": "bool"
        }
      ],
      "stateMutability": "view",
      "type": "function"
    },
    {
      "inputs": [],
      "name": "position",
      "outputs": [
        {
          "internalType": "string",
          "name": "",
          "type": "string"
        }
      ],
      "stateMutability": "view",
      "type": "function"
    },
    {
      "inputs": [
        {
          "internalType": "address",
          "name": "_teacher",
          "type": "address"
        }
      ],
      "name": "removeTeacher",
      "outputs": [],
      "stateMutability": "nonpayable",
      "type": "function"
    },
    {
      "inputs": [],
      "name": "root",
      "outputs": [
        {
          "internalType": "bytes32",
          "name": "",
          "type": "bytes32"
        }
      ],
      "stateMutability": "view",
      "type": "function"
    },
    {
      "inputs": [
        {
          "internalType": "string[]",
          "name": "_prop",
          "type": "string[]"
        }
      ],
      "name": "setUpElection",
      "outputs": [],
      "stateMutability": "nonpayable",
      "type": "function"
    },
    {
      "inputs": [],
      "name": "startElection",
      "outputs": [],
      "stateMutability": "nonpayable",
      "type": "function"
    },
    {
      "inputs": [],
      "name": "startTimer",
      "outputs": [
        {
          "internalType": "uint256",
          "name": "",
          "type": "uint256"
        }
      ],
      "stateMutability": "view",
      "type": "function"
    },
    {
      "inputs": [
        {
          "internalType": "address",
          "name": "",
          "type": "address"
        }
      ],
      "name": "teachers",
      "outputs": [
        {
          "internalType": "bool",
          "name": "",
          "type": "bool"
        }
      ],
      "stateMutability": "view",
      "type": "function"
    },
    {
      "inputs": [],
      "name": "unpause",
      "outputs": [],
      "stateMutability": "nonpayable",
      "type": "function"
    },
    {
      "inputs": [
        {
          "internalType": "uint256",
          "name": "_candidateId",
          "type": "uint256"
        },
        {
          "internalType": "bytes32[]",
          "name": "hexProof",
          "type": "bytes32[]"
        }
      ],
      "name": "vote",
      "outputs": [],
      "stateMutability": "nonpayable",
      "type": "function"
    },
    {
      "inputs": [
        {
          "internalType": "address",
          "name": "",
          "type": "address"
        }
      ],
      "name": "voted",
      "outputs": [
        {
          "internalType": "bool",
          "name": "",
          "type": "bool"
        }
      ],
      "stateMutability": "view",
      "type": "function"
    },
    {
      "inputs": [],
      "name": "winnerId",
      "outputs": [
        {
          "internalType": "uint256",
          "name": "",
          "type": "uint256"
        }
      ],
      "stateMutability": "view",
      "type": "function"
    },
    {
      "inputs": [],
      "name": "winnerVoteCount",
      "outputs": [
        {
          "internalType": "uint256",
          "name": "",
          "type": "uint256"
        }
      ],
      "stateMutability": "view",
      "type": "function"
    },
    {
      "inputs": [
        {
          "internalType": "uint256",
          "name": "",
          "type": "uint256"
        }
      ],
      "name": "winners",
      "outputs": [
        {
          "internalType": "string",
          "name": "position",
          "type": "string"
        },
        {
          "internalType": "string",
          "name": "description",
          "type": "string"
        },
        {
          "components": [
            {
              "internalType": "uint256",
              "name": "id",
              "type": "uint256"
            },
            {
              "internalType": "string",
              "name": "name",
              "type": "string"
            },
            {
              "internalType": "string",
              "name": "candidateHash",
              "type": "string"
            },
            {
              "internalType": "string",
              "name": "candidateManifesto",
              "type": "string"
            },
            {
              "internalType": "uint256",
              "name": "voteCount",
              "type": "uint256"
            }
          ],
          "internalType": "struct ZuriElection.Candidate",
          "name": "winner",
          "type": "tuple"
        }
      ],
      "stateMutability": "view",
      "type": "function"
    }
  ],
  "bytecode": "0x60806040523480156200001157600080fd5b50604051620043d0380380620043d0833981810160405281019062000037919062000165565b60008060006101000a81548160ff02191690831515021790555033600160006101000a81548173ffffffffffffffffffffffffffffffffffffffff021916908373ffffffffffffffffffffffffffffffffffffffff1602179055506000600e60006101000a81548160ff0219169083151502179055506000600e60016101000a81548160ff0219169083151502179055506000600e60026101000a81548160ff02191690831515021790555060006005819055506000600e60036101000a81548160ff02191690831515021790555080600060016101000a81548173ffffffffffffffffffffffffffffffffffffffff021916908373ffffffffffffffffffffffffffffffffffffffff16021790555050620001df565b6000815190506200015f81620001c5565b92915050565b6000602082840312156200017857600080fd5b600062000188848285016200014e565b91505092915050565b60006200019e82620001a5565b9050919050565b600073ffffffffffffffffffffffffffffffffffffffff82169050919050565b620001d08162000191565b8114620001dc57600080fd5b50565b6141e180620001ef6000396000f3fe608060405234801561001057600080fd5b506004361061021c5760003560e01c806387f7b97511610125578063aec2ccae116100ad578063df15c37e1161007c578063df15c37e1461057e578063e81018691461059c578063ebf0c717146105b8578063f0a47f78146105d6578063f51b41d2146106065761021c565b8063aec2ccae146104f6578063c64a4bad14610526578063c9b0a2a714610544578063d1e53b8a146105625761021c565b80639adeddf8116100f45780639adeddf81461044e578063a2fb11751461046c578063a39f74491461049e578063a4fd6f56146104bc578063ad71f8dc146104da5761021c565b806387f7b975146103e95780638e7ea5b21461040757806391e0d5931461042657806395adfc5e146104445761021c565b806352ff6846116101a857806362d73eb81161017757806362d73eb81461038f5780636c6c32d0146103995780637284e416146103a35780638456cb59146103c157806386174396146103cb5761021c565b806352ff68461461032d578063544736e61461034957806359f78468146103675780635c975abb146103715761021c565b80632f22850d116101ef5780632f22850d146102975780633477ee2e146102b55780633bc6e309146102e95780633f4ba83a14610305578063477383f31461030f5761021c565b80630121b93f1461022157806306a49fce1461023d57806309218e911461025b5780632d35a8a214610279575b600080fd5b61023b60048036038101906102369190613226565b610624565b005b6102456107bc565b60405161025291906137b2565b60405180910390f35b610263610a98565b604051610270919061382c565b60405180910390f35b610281610b26565b60405161028e9190613a5a565b60405180910390f35b61029f610b2c565b6040516102ac9190613a5a565b60405180910390f35b6102cf60048036038101906102ca9190613226565b610b32565b6040516102e0959493929190613aa5565b60405180910390f35b61030360048036038101906102fe9190613125565b610d00565b005b61030d610e8e565b005b610317610f66565b60405161032491906137f6565b60405180910390f35b61034760048036038101906103429190613125565b610f79565b005b610351611107565b60405161035e91906137f6565b60405180910390f35b61036f61111e565b005b61037961125a565b60405161038691906137f6565b60405180910390f35b610397611270565b005b6103a1611365565b005b6103ab6114cf565b6040516103b8919061382c565b60405180910390f35b6103c961155d565b005b6103d3611635565b6040516103e091906137f6565b60405180910390f35b6103f161164c565b6040516103fe9190613797565b60405180910390f35b61040f611672565b60405161041d929190613b0d565b60405180910390f35b61042e6116d2565b60405161043b9190613a5a565b60405180910390f35b61044c6116d8565b005b61045661182f565b60405161046391906137f6565b60405180910390f35b61048660048036038101906104819190613226565b611842565b6040516104959392919061384e565b60405180910390f35b6104a6611b50565b6040516104b39190613a5a565b60405180910390f35b6104c4611b56565b6040516104d191906137f6565b60405180910390f35b6104f460048036038101906104ef919061318f565b611b6d565b005b610510600480360381019061050b9190613125565b611df5565b60405161051d91906137f6565b60405180910390f35b61052e611e15565b60405161053b91906137f6565b60405180910390f35b61054c611e69565b60405161055991906137f6565b60405180910390f35b61057c6004803603810190610577919061314e565b611e7c565b005b610586612129565b60405161059391906137d4565b60405180910390f35b6105b660048036038101906105b19190613125565b61253d565b005b6105c0612659565b6040516105cd9190613811565b60405180910390f35b6105f060048036038101906105eb9190613125565b61265f565b6040516105fd91906137f6565b60405180910390f35b61060e61267f565b60405161061b91906137f6565b60405180910390f35b600e60019054906101000a900460ff1615610674576040517f08c379a000000000000000000000000000000000000000000000000000000000815260040161066b9061399a565b60405180910390fd5b600e60009054906101000a900460ff166106c3576040517f08c379a00000000000000000000000000000000000000000000000000000000081526004016106ba9061395a565b60405180910390fd5b60008060019054906101000a900473ffffffffffffffffffffffffffffffffffffffff1673ffffffffffffffffffffffffffffffffffffffff166370a08231336040518263ffffffff1660e01b815260040161071f9190613797565b60206040518083038186803b15801561073757600080fd5b505afa15801561074b573d6000803e3d6000fd5b505050506040513d601f19601f8201168201806040525081019061076f919061324f565b116107af576040517f08c379a00000000000000000000000000000000000000000000000000000000081526004016107a690613a3a565b60405180910390fd5b6107b981336126d7565b50565b6060600060055467ffffffffffffffff811115610802577f4e487b7100000000000000000000000000000000000000000000000000000000600052604160045260246000fd5b60405190808252806020026020018201604052801561083b57816020015b610828612ed5565b8152602001906001900390816108205790505b50905060005b600554811015610a90576000600a60008381526020019081526020016000209050806040518060a00160405290816000820154815260200160018201805461088890613ceb565b80601f01602080910402602001604051908101604052809291908181526020018280546108b490613ceb565b80156109015780601f106108d657610100808354040283529160200191610901565b820191906000526020600020905b8154815290600101906020018083116108e457829003601f168201915b5050505050815260200160028201805461091a90613ceb565b80601f016020809104026020016040519081016040528092919081815260200182805461094690613ceb565b80156109935780601f1061096857610100808354040283529160200191610993565b820191906000526020600020905b81548152906001019060200180831161097657829003601f168201915b505050505081526020016003820180546109ac90613ceb565b80601f01602080910402602001604051908101604052809291908181526020018280546109d890613ceb565b8015610a255780601f106109fa57610100808354040283529160200191610a25565b820191906000526020600020905b815481529060010190602001808311610a0857829003601f168201915b50505050508152602001600482015481525050838381518110610a71577f4e487b7100000000000000000000000000000000000000000000000000000000600052603260045260246000fd5b6020026020010181905250508080610a8890613d4e565b915050610841565b508091505090565b60028054610aa590613ceb565b80601f0160208091040260200160405190810160405280929190818152602001828054610ad190613ceb565b8015610b1e5780601f10610af357610100808354040283529160200191610b1e565b820191906000526020600020905b815481529060010190602001808311610b0157829003601f168201915b505050505081565b60055481565b600d5481565b600a602052806000526040600020600091509050806000015490806001018054610b5b90613ceb565b80601f0160208091040260200160405190810160405280929190818152602001828054610b8790613ceb565b8015610bd45780601f10610ba957610100808354040283529160200191610bd4565b820191906000526020600020905b815481529060010190602001808311610bb757829003601f168201915b505050505090806002018054610be990613ceb565b80601f0160208091040260200160405190810160405280929190818152602001828054610c1590613ceb565b8015610c625780601f10610c3757610100808354040283529160200191610c62565b820191906000526020600020905b815481529060010190602001808311610c4557829003601f168201915b505050505090806003018054610c7790613ceb565b80601f0160208091040260200160405190810160405280929190818152602001828054610ca390613ceb565b8015610cf05780601f10610cc557610100808354040283529160200191610cf0565b820191906000526020600020905b815481529060010190602001808311610cd357829003601f168201915b5050505050908060040154905085565b610d0861125a565b15610d48576040517f08c379a0000000000000000000000000000000000000000000000000000000008152600401610d3f9061393a565b60405180910390fd5b3373ffffffffffffffffffffffffffffffffffffffff16600160009054906101000a900473ffffffffffffffffffffffffffffffffffffffff1673ffffffffffffffffffffffffffffffffffffffff161480610df4575060011515600860003373ffffffffffffffffffffffffffffffffffffffff1673ffffffffffffffffffffffffffffffffffffffff16815260200190815260200160002060009054906101000a900460ff161515145b610e33576040517f08c379a0000000000000000000000000000000000000000000000000000000008152600401610e2a9061391a565b60405180910390fd5b6001600860008373ffffffffffffffffffffffffffffffffffffffff1673ffffffffffffffffffffffffffffffffffffffff16815260200190815260200160002060006101000a81548160ff02191690831515021790555050565b600160009054906101000a900473ffffffffffffffffffffffffffffffffffffffff1673ffffffffffffffffffffffffffffffffffffffff163373ffffffffffffffffffffffffffffffffffffffff1614610f1e576040517f08c379a0000000000000000000000000000000000000000000000000000000008152600401610f15906139da565b60405180910390fd5b610f266128d6565b7f5db9ee0a495bf2e6ff9c91a7834c1ba4fdd244a5e8aa4e537bd38aeae4b073aa610f4f612977565b604051610f5c9190613797565b60405180910390a1565b600e60019054906101000a900460ff1681565b610f8161125a565b15610fc1576040517f08c379a0000000000000000000000000000000000000000000000000000000008152600401610fb89061393a565b60405180910390fd5b3373ffffffffffffffffffffffffffffffffffffffff16600160009054906101000a900473ffffffffffffffffffffffffffffffffffffffff1673ffffffffffffffffffffffffffffffffffffffff16148061106d575060011515600860003373ffffffffffffffffffffffffffffffffffffffff1673ffffffffffffffffffffffffffffffffffffffff16815260200190815260200160002060009054906101000a900460ff161515145b6110ac576040517f08c379a00000000000000000000000000000000000000000000000000000000081526004016110a39061391a565b60405180910390fd5b6000600860008373ffffffffffffffffffffffffffffffffffffffff1673ffffffffffffffffffffffffffffffffffffffff16815260200190815260200160002060006101000a81548160ff02191690831515021790555050565b6000600e60009054906101000a900460ff16905090565b61112661125a565b15611166576040517f08c379a000000000000000000000000000000000000000000000000000000000815260040161115d9061393a565b60405180910390fd5b600160009054906101000a900473ffffffffffffffffffffffffffffffffffffffff1673ffffffffffffffffffffffffffffffffffffffff163373ffffffffffffffffffffffffffffffffffffffff16146111f6576040517f08c379a00000000000000000000000000000000000000000000000000000000081526004016111ed906139da565b60405180910390fd5b6001600e60016101000a81548160ff02191690831515021790555061121961297f565b50507f32e2c12037f9600b91a766ce53eab6909f3bdb865851cd9a8c7fafbdf249a9ce600b54600d54604051611250929190613b0d565b60405180910390a1565b60008060009054906101000a900460ff16905090565b61127861125a565b156112b8576040517f08c379a00000000000000000000000000000000000000000000000000000000081526004016112af9061393a565b60405180910390fd5b600160009054906101000a900473ffffffffffffffffffffffffffffffffffffffff1673ffffffffffffffffffffffffffffffffffffffff163373ffffffffffffffffffffffffffffffffffffffff1614611348576040517f08c379a000000000000000000000000000000000000000000000000000000000815260040161133f906139da565b60405180910390fd5b6001600e60006101000a81548160ff021916908315150217905550565b600160009054906101000a900473ffffffffffffffffffffffffffffffffffffffff1673ffffffffffffffffffffffffffffffffffffffff163373ffffffffffffffffffffffffffffffffffffffff16146113f5576040517f08c379a00000000000000000000000000000000000000000000000000000000081526004016113ec906139da565b60405180910390fd5b6000600e60026101000a81548160ff02191690831515021790555033600160006101000a81548173ffffffffffffffffffffffffffffffffffffffff021916908373ffffffffffffffffffffffffffffffffffffffff1602179055506000600e60006101000a81548160ff0219169083151502179055506000600e60016101000a81548160ff0219169083151502179055506000600e60026101000a81548160ff02191690831515021790555060006005819055506000600e60036101000a81548160ff0219169083151502179055506000600d81905550565b600380546114dc90613ceb565b80601f016020809104026020016040519081016040528092919081815260200182805461150890613ceb565b80156115555780601f1061152a57610100808354040283529160200191611555565b820191906000526020600020905b81548152906001019060200180831161153857829003601f168201915b505050505081565b600160009054906101000a900473ffffffffffffffffffffffffffffffffffffffff1673ffffffffffffffffffffffffffffffffffffffff163373ffffffffffffffffffffffffffffffffffffffff16146115ed576040517f08c379a00000000000000000000000000000000000000000000000000000000081526004016115e4906139da565b60405180910390fd5b6115f5612e33565b7f62e78cea01bee320cd4e420270b5ea74000d11b0c9f74754ebdbfc544b05a25861161e612977565b60405161162b9190613797565b60405180910390a1565b6000600e60029054906101000a900460ff16905090565b600160009054906101000a900473ffffffffffffffffffffffffffffffffffffffff1681565b600080600e60039054906101000a900460ff166116c4576040517f08c379a00000000000000000000000000000000000000000000000000000000081526004016116bb90613a1a565b60405180910390fd5b600d54600b54915091509091565b600b5481565b600e60019054906101000a900460ff16611727576040517f08c379a000000000000000000000000000000000000000000000000000000000815260040161171e906138ba565b60405180910390fd5b3373ffffffffffffffffffffffffffffffffffffffff16600160009054906101000a900473ffffffffffffffffffffffffffffffffffffffff1673ffffffffffffffffffffffffffffffffffffffff1614806117d3575060011515600860003373ffffffffffffffffffffffffffffffffffffffff1673ffffffffffffffffffffffffffffffffffffffff16815260200190815260200160002060009054906101000a900460ff161515145b611812576040517f08c379a0000000000000000000000000000000000000000000000000000000008152600401611809906138fa565b60405180910390fd5b6001600e60036101000a81548160ff021916908315150217905550565b600e60029054906101000a900460ff1681565b600c60205280600052604060002060009150905080600001805461186590613ceb565b80601f016020809104026020016040519081016040528092919081815260200182805461189190613ceb565b80156118de5780601f106118b3576101008083540402835291602001916118de565b820191906000526020600020905b8154815290600101906020018083116118c157829003601f168201915b5050505050908060010180546118f390613ceb565b80601f016020809104026020016040519081016040528092919081815260200182805461191f90613ceb565b801561196c5780601f106119415761010080835404028352916020019161196c565b820191906000526020600020905b81548152906001019060200180831161194f57829003601f168201915b505050505090806002016040518060a00160405290816000820154815260200160018201805461199b90613ceb565b80601f01602080910402602001604051908101604052809291908181526020018280546119c790613ceb565b8015611a145780601f106119e957610100808354040283529160200191611a14565b820191906000526020600020905b8154815290600101906020018083116119f757829003601f168201915b50505050508152602001600282018054611a2d90613ceb565b80601f0160208091040260200160405190810160405280929190818152602001828054611a5990613ceb565b8015611aa65780601f10611a7b57610100808354040283529160200191611aa6565b820191906000526020600020905b815481529060010190602001808311611a8957829003601f168201915b50505050508152602001600382018054611abf90613ceb565b80601f0160208091040260200160405190810160405280929190818152602001828054611aeb90613ceb565b8015611b385780601f10611b0d57610100808354040283529160200191611b38565b820191906000526020600020905b815481529060010190602001808311611b1b57829003601f168201915b50505050508152602001600482015481525050905083565b60075481565b6000600e60019054906101000a900460ff16905090565b611b7561125a565b15611bb5576040517f08c379a0000000000000000000000000000000000000000000000000000000008152600401611bac9061393a565b60405180910390fd5b600e60009054906101000a900460ff1615611c05576040517f08c379a0000000000000000000000000000000000000000000000000000000008152600401611bfc906138da565b60405180910390fd5b3373ffffffffffffffffffffffffffffffffffffffff16600160009054906101000a900473ffffffffffffffffffffffffffffffffffffffff1673ffffffffffffffffffffffffffffffffffffffff161480611cb1575060011515600860003373ffffffffffffffffffffffffffffffffffffffff1673ffffffffffffffffffffffffffffffffffffffff16815260200190815260200160002060009054906101000a900460ff161515145b611cf0576040517f08c379a0000000000000000000000000000000000000000000000000000000008152600401611ce79061391a565b60405180910390fd5b6040518060a0016040528060055481526020018481526020018381526020018281526020016000815250600a60006005548152602001908152602001600020600082015181600001556020820151816001019080519060200190611d55929190612f04565b506040820151816002019080519060200190611d72929190612f04565b506060820151816003019080519060200190611d8f929190612f04565b50608082015181600401559050507f78d27a3c512303f604b46bc28acc0ca45abe6420172a017c5a6dc585821eb63960055484604051611dd0929190613a75565b60405180910390a160056000815480929190611deb90613d4e565b9190505550505050565b60096020528060005260406000206000915054906101000a900460ff1681565b6000600860003373ffffffffffffffffffffffffffffffffffffffff1673ffffffffffffffffffffffffffffffffffffffff16815260200190815260200160002060009054906101000a900460ff16905090565b600e60009054906101000a900460ff1681565b611e8461125a565b15611ec4576040517f08c379a0000000000000000000000000000000000000000000000000000000008152600401611ebb9061393a565b60405180910390fd5b600e60009054906101000a900460ff1615611f14576040517f08c379a0000000000000000000000000000000000000000000000000000000008152600401611f0b906138da565b60405180910390fd5b6000815111611f58576040517f08c379a0000000000000000000000000000000000000000000000000000000008152600401611f4f9061397a565b60405180910390fd5b3373ffffffffffffffffffffffffffffffffffffffff16600160009054906101000a900473ffffffffffffffffffffffffffffffffffffffff1673ffffffffffffffffffffffffffffffffffffffff161480612004575060011515600860003373ffffffffffffffffffffffffffffffffffffffff1673ffffffffffffffffffffffffffffffffffffffff16815260200190815260200160002060009054906101000a900460ff161515145b612043576040517f08c379a000000000000000000000000000000000000000000000000000000000815260040161203a9061391a565b60405180910390fd5b8060008151811061207d577f4e487b7100000000000000000000000000000000000000000000000000000000600052603260045260246000fd5b60200260200101516002908051906020019061209a929190612f04565b50806001815181106120d5577f4e487b7100000000000000000000000000000000000000000000000000000000600052603260045260246000fd5b6020026020010151600390805190602001906120f2929190612f04565b506001600e60026101000a81548160ff0219169083151502179055506006600081548092919061212190613d4e565b919050555050565b6060600060065467ffffffffffffffff81111561216f577f4e487b7100000000000000000000000000000000000000000000000000000000600052604160045260246000fd5b6040519080825280602002602001820160405280156121a857816020015b612195612f8a565b81526020019060019003908161218d5790505b50905060005b600654811015612535576000600c60008381526020019081526020016000209050806040518060600160405290816000820180546121eb90613ceb565b80601f016020809104026020016040519081016040528092919081815260200182805461221790613ceb565b80156122645780601f1061223957610100808354040283529160200191612264565b820191906000526020600020905b81548152906001019060200180831161224757829003601f168201915b5050505050815260200160018201805461227d90613ceb565b80601f01602080910402602001604051908101604052809291908181526020018280546122a990613ceb565b80156122f65780601f106122cb576101008083540402835291602001916122f6565b820191906000526020600020905b8154815290600101906020018083116122d957829003601f168201915b50505050508152602001600282016040518060a00160405290816000820154815260200160018201805461232990613ceb565b80601f016020809104026020016040519081016040528092919081815260200182805461235590613ceb565b80156123a25780601f10612377576101008083540402835291602001916123a2565b820191906000526020600020905b81548152906001019060200180831161238557829003601f168201915b505050505081526020016002820180546123bb90613ceb565b80601f01602080910402602001604051908101604052809291908181526020018280546123e790613ceb565b80156124345780601f1061240957610100808354040283529160200191612434565b820191906000526020600020905b81548152906001019060200180831161241757829003601f168201915b5050505050815260200160038201805461244d90613ceb565b80601f016020809104026020016040519081016040528092919081815260200182805461247990613ceb565b80156124c65780601f1061249b576101008083540402835291602001916124c6565b820191906000526020600020905b8154815290600101906020018083116124a957829003601f168201915b5050505050815260200160048201548152505081525050838381518110612516577f4e487b7100000000000000000000000000000000000000000000000000000000600052603260045260246000fd5b602002602001018190525050808061252d90613d4e565b9150506121ae565b508091505090565b61254561125a565b15612585576040517f08c379a000000000000000000000000000000000000000000000000000000000815260040161257c9061393a565b60405180910390fd5b600160009054906101000a900473ffffffffffffffffffffffffffffffffffffffff1673ffffffffffffffffffffffffffffffffffffffff163373ffffffffffffffffffffffffffffffffffffffff1614612615576040517f08c379a000000000000000000000000000000000000000000000000000000000815260040161260c906139da565b60405180910390fd5b80600160006101000a81548173ffffffffffffffffffffffffffffffffffffffff021916908373ffffffffffffffffffffffffffffffffffffffff16021790555050565b60045481565b60086020528060005260406000206000915054906101000a900460ff1681565b60003373ffffffffffffffffffffffffffffffffffffffff16600160009054906101000a900473ffffffffffffffffffffffffffffffffffffffff1673ffffffffffffffffffffffffffffffffffffffff1614905090565b6126df61125a565b1561271f576040517f08c379a00000000000000000000000000000000000000000000000000000000081526004016127169061393a565b60405180910390fd5b8160055481108015612732575060008110155b612771576040517f08c379a0000000000000000000000000000000000000000000000000000000008152600401612768906139ba565b60405180910390fd5b600960008373ffffffffffffffffffffffffffffffffffffffff1673ffffffffffffffffffffffffffffffffffffffff16815260200190815260200160002060009054906101000a900460ff16156127fe576040517f08c379a00000000000000000000000000000000000000000000000000000000081526004016127f5906139fa565b60405180910390fd5b6001600960008473ffffffffffffffffffffffffffffffffffffffff1673ffffffffffffffffffffffffffffffffffffffff16815260200190815260200160002060006101000a81548160ff021916908315150217905550600a6000848152602001908152602001600020600401600081548092919061287d90613d4e565b91905055507fd3ebd88818d034d26c5d98bcef9c7c45207130238e76e8cf0b3ba00e906851bf83600a6000868152602001908152602001600020600401546040516128c9929190613b0d565b60405180910390a1505050565b6128de61125a565b61291d576040517f08c379a00000000000000000000000000000000000000000000000000000000081526004016129149061389a565b60405180910390fd5b60008060006101000a81548160ff0219169083151502179055507f5db9ee0a495bf2e6ff9c91a7834c1ba4fdd244a5e8aa4e537bd38aeae4b073aa612960612977565b60405161296d9190613797565b60405180910390a1565b600033905090565b60008061298a61125a565b156129ca576040517f08c379a00000000000000000000000000000000000000000000000000000000081526004016129c19061393a565b60405180910390fd5b60005b600554811015612a4457600d54600a60008381526020019081526020016000206004015410612a3157600a600082815260200190815260200160002060040154600d81905550600a600082815260200190815260200160002060000154600b819055505b8080612a3c90613d4e565b9150506129cd565b50604051806060016040528060028054612a5d90613ceb565b80601f0160208091040260200160405190810160405280929190818152602001828054612a8990613ceb565b8015612ad65780601f10612aab57610100808354040283529160200191612ad6565b820191906000526020600020905b815481529060010190602001808311612ab957829003601f168201915b5050505050815260200160038054612aed90613ceb565b80601f0160208091040260200160405190810160405280929190818152602001828054612b1990613ceb565b8015612b665780601f10612b3b57610100808354040283529160200191612b66565b820191906000526020600020905b815481529060010190602001808311612b4957829003601f168201915b50505050508152602001600a6000600b5481526020019081526020016000206040518060a001604052908160008201548152602001600182018054612baa90613ceb565b80601f0160208091040260200160405190810160405280929190818152602001828054612bd690613ceb565b8015612c235780601f10612bf857610100808354040283529160200191612c23565b820191906000526020600020905b815481529060010190602001808311612c0657829003601f168201915b50505050508152602001600282018054612c3c90613ceb565b80601f0160208091040260200160405190810160405280929190818152602001828054612c6890613ceb565b8015612cb55780601f10612c8a57610100808354040283529160200191612cb5565b820191906000526020600020905b815481529060010190602001808311612c9857829003601f168201915b50505050508152602001600382018054612cce90613ceb565b80601f0160208091040260200160405190810160405280929190818152602001828054612cfa90613ceb565b8015612d475780601f10612d1c57610100808354040283529160200191612d47565b820191906000526020600020905b815481529060010190602001808311612d2a57829003601f168201915b50505050508152602001600482015481525050815250600c600060065481526020019081526020016000206000820151816000019080519060200190612d8e929190612f04565b506020820151816001019080519060200190612dab929190612f04565b50604082015181600201600082015181600001556020820151816001019080519060200190612ddb929190612f04565b506040820151816002019080519060200190612df8929190612f04565b506060820151816003019080519060200190612e15929190612f04565b50608082015181600401555050905050600d54600b54915091509091565b612e3b61125a565b15612e7b576040517f08c379a0000000000000000000000000000000000000000000000000000000008152600401612e729061393a565b60405180910390fd5b60016000806101000a81548160ff0219169083151502179055507f62e78cea01bee320cd4e420270b5ea74000d11b0c9f74754ebdbfc544b05a258612ebe612977565b604051612ecb9190613797565b60405180910390a1565b6040518060a0016040528060008152602001606081526020016060815260200160608152602001600081525090565b828054612f1090613ceb565b90600052602060002090601f016020900481019282612f325760008555612f79565b82601f10612f4b57805160ff1916838001178555612f79565b82800160010185558215612f79579182015b82811115612f78578251825591602001919060010190612f5d565b5b509050612f869190612fb1565b5090565b60405180606001604052806060815260200160608152602001612fab612ed5565b81525090565b5b80821115612fca576000816000905550600101612fb2565b5090565b6000612fe1612fdc84613b5b565b613b36565b9050808382526020820190508285602086028201111561300057600080fd5b60005b8581101561304a57813567ffffffffffffffff81111561302257600080fd5b80860161302f89826130d1565b85526020850194506020840193505050600181019050613003565b5050509392505050565b600061306761306284613b87565b613b36565b90508281526020810184848401111561307f57600080fd5b61308a848285613ca9565b509392505050565b6000813590506130a18161417d565b92915050565b600082601f8301126130b857600080fd5b81356130c8848260208601612fce565b91505092915050565b600082601f8301126130e257600080fd5b81356130f2848260208601613054565b91505092915050565b60008135905061310a81614194565b92915050565b60008151905061311f81614194565b92915050565b60006020828403121561313757600080fd5b600061314584828501613092565b91505092915050565b60006020828403121561316057600080fd5b600082013567ffffffffffffffff81111561317a57600080fd5b613186848285016130a7565b91505092915050565b6000806000606084860312156131a457600080fd5b600084013567ffffffffffffffff8111156131be57600080fd5b6131ca868287016130d1565b935050602084013567ffffffffffffffff8111156131e757600080fd5b6131f3868287016130d1565b925050604084013567ffffffffffffffff81111561321057600080fd5b61321c868287016130d1565b9150509250925092565b60006020828403121561323857600080fd5b6000613246848285016130fb565b91505092915050565b60006020828403121561326157600080fd5b600061326f84828501613110565b91505092915050565b60006132848383613613565b905092915050565b6000613298838361371b565b905092915050565b6132a981613c57565b82525050565b60006132ba82613bd8565b6132c48185613c13565b9350836020820285016132d685613bb8565b8060005b8581101561331257848403895281516132f38582613278565b94506132fe83613bf9565b925060208a019950506001810190506132da565b50829750879550505050505092915050565b600061332f82613be3565b6133398185613c24565b93508360208202850161334b85613bc8565b8060005b858110156133875784840389528151613368858261328c565b945061337383613c06565b925060208a0199505060018101905061334f565b50829750879550505050505092915050565b6133a281613c69565b82525050565b6133b181613c75565b82525050565b60006133c282613bee565b6133cc8185613c35565b93506133dc818560208601613cb8565b6133e581613e24565b840191505092915050565b60006133fb82613bee565b6134058185613c46565b9350613415818560208601613cb8565b61341e81613e24565b840191505092915050565b6000613436601483613c46565b915061344182613e35565b602082019050919050565b6000613459602183613c46565b915061346482613e5e565b604082019050919050565b600061347c601383613c46565b915061348782613ead565b602082019050919050565b600061349f602e83613c46565b91506134aa82613ed6565b604082019050919050565b60006134c2602d83613c46565b91506134cd82613f25565b604082019050919050565b60006134e5601083613c46565b91506134f082613f74565b602082019050919050565b6000613508603083613c46565b915061351382613f9d565b604082019050919050565b600061352b602183613c46565b915061353682613fec565b604082019050919050565b600061354e601e83613c46565b91506135598261403b565b602082019050919050565b6000613571601a83613c46565b915061357c82614064565b602082019050919050565b6000613594602483613c46565b915061359f8261408d565b604082019050919050565b60006135b7601883613c46565b91506135c2826140dc565b602082019050919050565b60006135da601f83613c46565b91506135e582614105565b602082019050919050565b60006135fd602d83613c46565b91506136088261412e565b604082019050919050565b600060a08301600083015161362b6000860182613779565b506020830151848203602086015261364382826133b7565b9150506040830151848203604086015261365d82826133b7565b9150506060830151848203606086015261367782826133b7565b915050608083015161368c6080860182613779565b508091505092915050565b600060a0830160008301516136af6000860182613779565b50602083015184820360208601526136c782826133b7565b915050604083015184820360408601526136e182826133b7565b915050606083015184820360608601526136fb82826133b7565b91505060808301516137106080860182613779565b508091505092915050565b6000606083016000830151848203600086015261373882826133b7565b9150506020830151848203602086015261375282826133b7565b9150506040830151848203604086015261376c8282613613565b9150508091505092915050565b61378281613c9f565b82525050565b61379181613c9f565b82525050565b60006020820190506137ac60008301846132a0565b92915050565b600060208201905081810360008301526137cc81846132af565b905092915050565b600060208201905081810360008301526137ee8184613324565b905092915050565b600060208201905061380b6000830184613399565b92915050565b600060208201905061382660008301846133a8565b92915050565b6000602082019050818103600083015261384681846133f0565b905092915050565b6000606082019050818103600083015261386881866133f0565b9050818103602083015261387c81856133f0565b905081810360408301526138908184613697565b9050949350505050565b600060208201905081810360008301526138b381613429565b9050919050565b600060208201905081810360008301526138d38161344c565b9050919050565b600060208201905081810360008301526138f38161346f565b9050919050565b6000602082019050818103600083015261391381613492565b9050919050565b60006020820190508181036000830152613933816134b5565b9050919050565b60006020820190508181036000830152613953816134d8565b9050919050565b60006020820190508181036000830152613973816134fb565b9050919050565b600060208201905081810360008301526139938161351e565b9050919050565b600060208201905081810360008301526139b381613541565b9050919050565b600060208201905081810360008301526139d381613564565b9050919050565b600060208201905081810360008301526139f381613587565b9050919050565b60006020820190508181036000830152613a13816135aa565b9050919050565b60006020820190508181036000830152613a33816135cd565b9050919050565b60006020820190508181036000830152613a53816135f0565b9050919050565b6000602082019050613a6f6000830184613788565b92915050565b6000604082019050613a8a6000830185613788565b8181036020830152613a9c81846133f0565b90509392505050565b600060a082019050613aba6000830188613788565b8181036020830152613acc81876133f0565b90508181036040830152613ae081866133f0565b90508181036060830152613af481856133f0565b9050613b036080830184613788565b9695505050505050565b6000604082019050613b226000830185613788565b613b2f6020830184613788565b9392505050565b6000613b40613b51565b9050613b4c8282613d1d565b919050565b6000604051905090565b600067ffffffffffffffff821115613b7657613b75613df5565b5b602082029050602081019050919050565b600067ffffffffffffffff821115613ba257613ba1613df5565b5b613bab82613e24565b9050602081019050919050565b6000819050602082019050919050565b6000819050602082019050919050565b600081519050919050565b600081519050919050565b600081519050919050565b6000602082019050919050565b6000602082019050919050565b600082825260208201905092915050565b600082825260208201905092915050565b600082825260208201905092915050565b600082825260208201905092915050565b6000613c6282613c7f565b9050919050565b60008115159050919050565b6000819050919050565b600073ffffffffffffffffffffffffffffffffffffffff82169050919050565b6000819050919050565b82818337600083830152505050565b60005b83811015613cd6578082015181840152602081019050613cbb565b83811115613ce5576000848401525b50505050565b60006002820490506001821680613d0357607f821691505b60208210811415613d1757613d16613dc6565b5b50919050565b613d2682613e24565b810181811067ffffffffffffffff82111715613d4557613d44613df5565b5b80604052505050565b6000613d5982613c9f565b91507fffffffffffffffffffffffffffffffffffffffffffffffffffffffffffffffff821415613d8c57613d8b613d97565b5b600182019050919050565b7f4e487b7100000000000000000000000000000000000000000000000000000000600052601160045260246000fd5b7f4e487b7100000000000000000000000000000000000000000000000000000000600052602260045260246000fd5b7f4e487b7100000000000000000000000000000000000000000000000000000000600052604160045260246000fd5b6000601f19601f8301169050919050565b7f5061757361626c653a206e6f7420706175736564000000000000000000000000600082015250565b7f536f7272792c2074686520456c656374696f6e20686173206e6f7420656e646560008201527f6400000000000000000000000000000000000000000000000000000000000000602082015250565b7f456c656374696f6e206973204f6e676f696e6700000000000000000000000000600082015250565b7f6f6e6c792074656163686572732f63686169726d616e2063616e206d616b652060008201527f726573756c7473207075626c6963000000000000000000000000000000000000602082015250565b7f6f6e6c792074656163686572732f63686169726d616e2063616e2063616c6c2060008201527f746869732066756e6374696f6e00000000000000000000000000000000000000602082015250565b7f5061757361626c653a2070617573656400000000000000000000000000000000600082015250565b7f506c6561736520636865636b206261636b2c2074686520656c656374696f6e2060008201527f686173206e6f7420737461727465642100000000000000000000000000000000602082015250565b7f61746c65617374206f6e6520706572736f6e2073686f756c6420636f6e74657360008201527f7400000000000000000000000000000000000000000000000000000000000000602082015250565b7f536f7272792c2074686520456c656374696f6e2068617320656e646564210000600082015250565b7f496e76616c69642063616e64696461746520746f20566f746521000000000000600082015250565b7f6f6e6c792063686169726d616e2063616e2063616c6c20746869732066756e6360008201527f74696f6e00000000000000000000000000000000000000000000000000000000602082015250565b7f566f7465722068617320616c726561647920566f746564210000000000000000600082015250565b7f54686520526573756c7473206d757374206265206d616465207075626c696300600082015250565b7f736f7272792c206f6e6c79207374616b65686f6c646572732061726520656c6960008201527f6769626c6520746f20766f746500000000000000000000000000000000000000602082015250565b61418681613c57565b811461419157600080fd5b50565b61419d81613c9f565b81146141a857600080fd5b5056fea26469706673582212202dc3fbb11e1c09b469f7a6a4bced5309f81ecfb16abaef6105817e2657fba2a464736f6c63430008040033",
  "linkReferences": {},
  "deployedLinkReferences": {}
}