{
  "_format": "hh-sol-artifact-1",
  "contractName": "zdao",
  "sourceName": "contracts/zdao.sol",
  "abi": [
    {
      "inputs": [
        {
          "internalType": "address",
          "name": "_cryptoDevsNFT",
          "type": "address"
        }
      ],
      "stateMutability": "nonpayable",
      "type": "constructor"
    },
    {
      "inputs": [],
      "name": "ElectionHasEnded",
      "type": "error"
    },
    {
      "inputs": [],
      "name": "ElectionNotStarted",
      "type": "error"
    },
    {
      "anonymous": false,
      "inputs": [
        {
          "indexed": false,
          "internalType": "uint256",
          "name": "_candidateId",
          "type": "uint256"
        },
        {
          "indexed": false,
          "internalType": "string",
          "name": "_candidateName",
          "type": "string"
        }
      ],
      "name": "CandidateCreated",
      "type": "event"
    },
    {
      "anonymous": false,
      "inputs": [
        {
          "indexed": false,
          "internalType": "uint256[]",
          "name": "_winnerIds",
          "type": "uint256[]"
        },
        {
          "indexed": false,
          "internalType": "uint256",
          "name": "_winnerVoteCount",
          "type": "uint256"
        }
      ],
      "name": "ElectionEnded",
      "type": "event"
    },
    {
      "anonymous": false,
      "inputs": [
        {
          "indexed": false,
          "internalType": "address",
          "name": "account",
          "type": "address"
        }
      ],
      "name": "Paused",
      "type": "event"
    },
    {
      "anonymous": false,
      "inputs": [
        {
          "indexed": false,
          "internalType": "address",
          "name": "account",
          "type": "address"
        }
      ],
      "name": "Unpaused",
      "type": "event"
    },
    {
      "anonymous": false,
      "inputs": [
        {
          "indexed": false,
          "internalType": "uint256",
          "name": "_candidateId",
          "type": "uint256"
        },
        {
          "indexed": false,
          "internalType": "uint256",
          "name": "_candidateVoteCount",
          "type": "uint256"
        }
      ],
      "name": "VoteForCandidate",
      "type": "event"
    },
    {
      "inputs": [],
      "name": "Active",
      "outputs": [
        {
          "internalType": "bool",
          "name": "",
          "type": "bool"
        }
      ],
      "stateMutability": "view",
      "type": "function"
    },
    {
      "inputs": [],
      "name": "Created",
      "outputs": [
        {
          "internalType": "bool",
          "name": "",
          "type": "bool"
        }
      ],
      "stateMutability": "view",
      "type": "function"
    },
    {
      "inputs": [],
      "name": "Ended",
      "outputs": [
        {
          "internalType": "bool",
          "name": "",
          "type": "bool"
        }
      ],
      "stateMutability": "view",
      "type": "function"
    },
    {
      "inputs": [
        {
          "internalType": "string",
          "name": "_name",
          "type": "string"
        },
        {
          "internalType": "string",
          "name": "_candidateHash",
          "type": "string"
        },
        {
          "internalType": "string",
          "name": "_candidateManifesto",
          "type": "string"
        }
      ],
      "name": "addCandidate",
      "outputs": [],
      "stateMutability": "nonpayable",
      "type": "function"
    },
    {
      "inputs": [
        {
          "internalType": "address",
          "name": "_newTeacher",
          "type": "address"
        }
      ],
      "name": "addTeacher",
      "outputs": [],
      "stateMutability": "nonpayable",
      "type": "function"
    },
    {
      "inputs": [
        {
          "internalType": "uint256",
          "name": "",
          "type": "uint256"
        }
      ],
      "name": "candidates",
      "outputs": [
        {
          "internalType": "uint256",
          "name": "id",
          "type": "uint256"
        },
        {
          "internalType": "string",
          "name": "name",
          "type": "string"
        },
        {
          "internalType": "string",
          "name": "candidateHash",
          "type": "string"
        },
        {
          "internalType": "string",
          "name": "candidateManifesto",
          "type": "string"
        },
        {
          "internalType": "uint256",
          "name": "voteCount",
          "type": "uint256"
        }
      ],
      "stateMutability": "view",
      "type": "function"
    },
    {
      "inputs": [],
      "name": "candidatesCount",
      "outputs": [
        {
          "internalType": "uint256",
          "name": "",
          "type": "uint256"
        }
      ],
      "stateMutability": "view",
      "type": "function"
    },
    {
      "inputs": [],
      "name": "chairman",
      "outputs": [
        {
          "internalType": "address",
          "name": "",
          "type": "address"
        }
      ],
      "stateMutability": "view",
      "type": "function"
    },
    {
      "inputs": [
        {
          "internalType": "address",
          "name": "_newChairman",
          "type": "address"
        }
      ],
      "name": "changeChairman",
      "outputs": [],
      "stateMutability": "nonpayable",
      "type": "function"
    },
    {
      "inputs": [],
      "name": "closeElection",
      "outputs": [],
      "stateMutability": "nonpayable",
      "type": "function"
    },
    {
      "inputs": [],
      "name": "description",
      "outputs": [
        {
          "internalType": "string",
          "name": "",
          "type": "string"
        }
      ],
      "stateMutability": "view",
      "type": "function"
    },
    {
      "inputs": [],
      "name": "endElection",
      "outputs": [],
      "stateMutability": "nonpayable",
      "type": "function"
    },
    {
      "inputs": [],
      "name": "getCandidates",
      "outputs": [
        {
          "components": [
            {
              "internalType": "uint256",
              "name": "id",
              "type": "uint256"
            },
            {
              "internalType": "string",
              "name": "name",
              "type": "string"
            },
            {
              "internalType": "string",
              "name": "candidateHash",
              "type": "string"
            },
            {
              "internalType": "string",
              "name": "candidateManifesto",
              "type": "string"
            },
            {
              "internalType": "uint256",
              "name": "voteCount",
              "type": "uint256"
            }
          ],
          "internalType": "struct zdao.Candidate[]",
          "name": "",
          "type": "tuple[]"
        }
      ],
      "stateMutability": "view",
      "type": "function"
    },
    {
      "inputs": [],
      "name": "getWinner",
      "outputs": [
        {
          "internalType": "uint256",
          "name": "",
          "type": "uint256"
        },
        {
          "internalType": "uint256[]",
          "name": "",
          "type": "uint256[]"
        }
      ],
      "stateMutability": "view",
      "type": "function"
    },
    {
      "inputs": [],
      "name": "getWinners",
      "outputs": [
        {
          "components": [
            {
              "internalType": "string",
              "name": "position",
              "type": "string"
            },
            {
              "internalType": "string",
              "name": "description",
              "type": "string"
            },
            {
              "components": [
                {
                  "internalType": "uint256",
                  "name": "id",
                  "type": "uint256"
                },
                {
                  "internalType": "string",
                  "name": "name",
                  "type": "string"
                },
                {
                  "internalType": "string",
                  "name": "candidateHash",
                  "type": "string"
                },
                {
                  "internalType": "string",
                  "name": "candidateManifesto",
                  "type": "string"
                },
                {
                  "internalType": "uint256",
                  "name": "voteCount",
                  "type": "uint256"
                }
              ],
              "internalType": "struct zdao.Candidate",
              "name": "winner",
              "type": "tuple"
            }
          ],
          "internalType": "struct zdao.Election[]",
          "name": "",
          "type": "tuple[]"
        }
      ],
      "stateMutability": "view",
      "type": "function"
    },
    {
      "inputs": [],
      "name": "isChairman",
      "outputs": [
        {
          "internalType": "bool",
          "name": "",
          "type": "bool"
        }
      ],
      "stateMutability": "view",
      "type": "function"
    },
    {
      "inputs": [],
      "name": "isCreated",
      "outputs": [
        {
          "internalType": "bool",
          "name": "",
          "type": "bool"
        }
      ],
      "stateMutability": "view",
      "type": "function"
    },
    {
      "inputs": [],
      "name": "isEnded",
      "outputs": [
        {
          "internalType": "bool",
          "name": "",
          "type": "bool"
        }
      ],
      "stateMutability": "view",
      "type": "function"
    },
    {
      "inputs": [],
      "name": "isStarted",
      "outputs": [
        {
          "internalType": "bool",
          "name": "",
          "type": "bool"
        }
      ],
      "stateMutability": "view",
      "type": "function"
    },
    {
      "inputs": [],
      "name": "isTeacher",
      "outputs": [
        {
          "internalType": "bool",
          "name": "",
          "type": "bool"
        }
      ],
      "stateMutability": "view",
      "type": "function"
    },
    {
      "inputs": [],
      "name": "makeResultPublic",
      "outputs": [],
      "stateMutability": "nonpayable",
      "type": "function"
    },
    {
      "inputs": [],
      "name": "pause",
      "outputs": [],
      "stateMutability": "nonpayable",
      "type": "function"
    },
    {
      "inputs": [],
      "name": "paused",
      "outputs": [
        {
          "internalType": "bool",
          "name": "",
          "type": "bool"
        }
      ],
      "stateMutability": "view",
      "type": "function"
    },
    {
      "inputs": [],
      "name": "position",
      "outputs": [
        {
          "internalType": "string",
          "name": "",
          "type": "string"
        }
      ],
      "stateMutability": "view",
      "type": "function"
    },
    {
      "inputs": [
        {
          "internalType": "address",
          "name": "_teacher",
          "type": "address"
        }
      ],
      "name": "removeTeacher",
      "outputs": [],
      "stateMutability": "nonpayable",
      "type": "function"
    },
    {
      "inputs": [],
      "name": "root",
      "outputs": [
        {
          "internalType": "bytes32",
          "name": "",
          "type": "bytes32"
        }
      ],
      "stateMutability": "view",
      "type": "function"
    },
    {
      "inputs": [
        {
          "internalType": "string[]",
          "name": "_prop",
          "type": "string[]"
        }
      ],
      "name": "setUpElection",
      "outputs": [],
      "stateMutability": "nonpayable",
      "type": "function"
    },
    {
      "inputs": [],
      "name": "startElection",
      "outputs": [],
      "stateMutability": "nonpayable",
      "type": "function"
    },
    {
      "inputs": [],
      "name": "startTimer",
      "outputs": [
        {
          "internalType": "uint256",
          "name": "",
          "type": "uint256"
        }
      ],
      "stateMutability": "view",
      "type": "function"
    },
    {
      "inputs": [
        {
          "internalType": "address",
          "name": "",
          "type": "address"
        }
      ],
      "name": "teachers",
      "outputs": [
        {
          "internalType": "bool",
          "name": "",
          "type": "bool"
        }
      ],
      "stateMutability": "view",
      "type": "function"
    },
    {
      "inputs": [],
      "name": "unpause",
      "outputs": [],
      "stateMutability": "nonpayable",
      "type": "function"
    },
    {
      "inputs": [
        {
          "internalType": "uint256",
          "name": "_candidateId",
          "type": "uint256"
        }
      ],
      "name": "vote",
      "outputs": [],
      "stateMutability": "nonpayable",
      "type": "function"
    },
    {
      "inputs": [
        {
          "internalType": "address",
          "name": "",
          "type": "address"
        }
      ],
      "name": "voted",
      "outputs": [
        {
          "internalType": "bool",
          "name": "",
          "type": "bool"
        }
      ],
      "stateMutability": "view",
      "type": "function"
    },
    {
      "inputs": [
        {
          "internalType": "uint256",
          "name": "",
          "type": "uint256"
        }
      ],
      "name": "winnerIds",
      "outputs": [
        {
          "internalType": "uint256",
          "name": "",
          "type": "uint256"
        }
      ],
      "stateMutability": "view",
      "type": "function"
    },
    {
      "inputs": [],
      "name": "winnerVoteCount",
      "outputs": [
        {
          "internalType": "uint256",
          "name": "",
          "type": "uint256"
        }
      ],
      "stateMutability": "view",
      "type": "function"
    },
    {
      "inputs": [
        {
          "internalType": "uint256",
          "name": "",
          "type": "uint256"
        }
      ],
      "name": "winners",
      "outputs": [
        {
          "internalType": "string",
          "name": "position",
          "type": "string"
        },
        {
          "internalType": "string",
          "name": "description",
          "type": "string"
        },
        {
          "components": [
            {
              "internalType": "uint256",
              "name": "id",
              "type": "uint256"
            },
            {
              "internalType": "string",
              "name": "name",
              "type": "string"
            },
            {
              "internalType": "string",
              "name": "candidateHash",
              "type": "string"
            },
            {
              "internalType": "string",
              "name": "candidateManifesto",
              "type": "string"
            },
            {
              "internalType": "uint256",
              "name": "voteCount",
              "type": "uint256"
            }
          ],
          "internalType": "struct zdao.Candidate",
          "name": "winner",
          "type": "tuple"
        }
      ],
      "stateMutability": "view",
      "type": "function"
    }
  ],
  "bytecode": "0x60806040523480156200001157600080fd5b506040516200479138038062004791833981810160405281019062000037919062000165565b60008060006101000a81548160ff02191690831515021790555033600060016101000a81548173ffffffffffffffffffffffffffffffffffffffff021916908373ffffffffffffffffffffffffffffffffffffffff1602179055506000600e60006101000a81548160ff0219169083151502179055506000600e60016101000a81548160ff0219169083151502179055506000600e60026101000a81548160ff02191690831515021790555060006005819055506000600e60036101000a81548160ff02191690831515021790555080600360006101000a81548173ffffffffffffffffffffffffffffffffffffffff021916908373ffffffffffffffffffffffffffffffffffffffff16021790555050620001df565b6000815190506200015f81620001c5565b92915050565b6000602082840312156200017857600080fd5b600062000188848285016200014e565b91505092915050565b60006200019e82620001a5565b9050919050565b600073ffffffffffffffffffffffffffffffffffffffff82169050919050565b620001d08162000191565b8114620001dc57600080fd5b50565b6145a280620001ef6000396000f3fe608060405234801561001057600080fd5b506004361061021c5760003560e01c80638617439611610125578063aec2ccae116100ad578063df15c37e1161007c578063df15c37e14610590578063e8101869146105ae578063ebf0c717146105ca578063f0a47f78146105e8578063f51b41d2146106185761021c565b8063aec2ccae14610508578063c64a4bad14610538578063c9b0a2a714610556578063d1e53b8a146105745761021c565b80639adeddf8116100f45780639adeddf814610460578063a2fb11751461047e578063a39f7449146104b0578063a4fd6f56146104ce578063ad71f8dc146104ec5761021c565b806386174396146103fb57806387f7b975146104195780638e7ea5b21461043757806395adfc5e146104565761021c565b8063477383f3116101a85780635c975abb116101775780635c975abb146103a157806362d73eb8146103bf5780636c6c32d0146103c95780637284e416146103d35780638456cb59146103f15761021c565b8063477383f31461033f57806352ff68461461035d578063544736e61461037957806359f78468146103975761021c565b80632f22850d116101ef5780632f22850d146102975780633477ee2e146102b55780633bc6e309146102e95780633f4ba83a14610305578063403d13121461030f5761021c565b80630121b93f1461022157806306a49fce1461023d57806309218e911461025b5780632d35a8a214610279575b600080fd5b61023b60048036038101906102369190613402565b610636565b005b6102456107cf565b6040516102529190613a69565b60405180910390f35b610263610aab565b6040516102709190613b13565b60405180910390f35b610281610b39565b60405161028e9190613d41565b60405180910390f35b61029f610b3f565b6040516102ac9190613d41565b60405180910390f35b6102cf60048036038101906102ca9190613402565b610b45565b6040516102e0959493929190613dbc565b60405180910390f35b61030360048036038101906102fe9190613301565b610d13565b005b61030d610ea1565b005b61032960048036038101906103249190613402565b610f79565b6040516103369190613d41565b60405180910390f35b610347610f9d565b6040516103549190613add565b60405180910390f35b61037760048036038101906103729190613301565b610fb0565b005b61038161113e565b60405161038e9190613add565b60405180910390f35b61039f611155565b005b6103a9611290565b6040516103b69190613add565b60405180910390f35b6103c76112a6565b005b6103d161139b565b005b6103db611513565b6040516103e89190613b13565b60405180910390f35b6103f96115a1565b005b610403611679565b6040516104109190613add565b60405180910390f35b610421611690565b60405161042e9190613a4e565b60405180910390f35b61043f6116b6565b60405161044d929190613d5c565b60405180910390f35b61045e611768565b005b6104686118bf565b6040516104759190613add565b60405180910390f35b61049860048036038101906104939190613402565b6118d2565b6040516104a793929190613b35565b60405180910390f35b6104b8611be0565b6040516104c59190613d41565b60405180910390f35b6104d6611be6565b6040516104e39190613add565b60405180910390f35b6105066004803603810190610501919061336b565b611bfd565b005b610522600480360381019061051d9190613301565b611e85565b60405161052f9190613add565b60405180910390f35b610540611ea5565b60405161054d9190613add565b60405180910390f35b61055e611ef9565b60405161056b9190613add565b60405180910390f35b61058e6004803603810190610589919061332a565b611f0c565b005b6105986121b9565b6040516105a59190613a8b565b60405180910390f35b6105c860048036038101906105c39190613301565b6125cd565b005b6105d26126e9565b6040516105df9190613af8565b60405180910390f35b61060260048036038101906105fd9190613301565b6126ef565b60405161060f9190613add565b60405180910390f35b61062061270f565b60405161062d9190613add565b60405180910390f35b600e60019054906101000a900460ff1615610686576040517f08c379a000000000000000000000000000000000000000000000000000000000815260040161067d90613c81565b60405180910390fd5b600e60009054906101000a900460ff166106d5576040517f08c379a00000000000000000000000000000000000000000000000000000000081526004016106cc90613c41565b60405180910390fd5b6000600360009054906101000a900473ffffffffffffffffffffffffffffffffffffffff1673ffffffffffffffffffffffffffffffffffffffff166370a08231336040518263ffffffff1660e01b81526004016107329190613a4e565b60206040518083038186803b15801561074a57600080fd5b505afa15801561075e573d6000803e3d6000fd5b505050506040513d601f19601f82011682018060405250810190610782919061342b565b116107c2576040517f08c379a00000000000000000000000000000000000000000000000000000000081526004016107b990613d21565b60405180910390fd5b6107cc8133612767565b50565b6060600060055467ffffffffffffffff811115610815577f4e487b7100000000000000000000000000000000000000000000000000000000600052604160045260246000fd5b60405190808252806020026020018201604052801561084e57816020015b61083b613090565b8152602001906001900390816108335790505b50905060005b600554811015610aa3576000600a60008381526020019081526020016000209050806040518060a00160405290816000820154815260200160018201805461089b90614072565b80601f01602080910402602001604051908101604052809291908181526020018280546108c790614072565b80156109145780601f106108e957610100808354040283529160200191610914565b820191906000526020600020905b8154815290600101906020018083116108f757829003601f168201915b5050505050815260200160028201805461092d90614072565b80601f016020809104026020016040519081016040528092919081815260200182805461095990614072565b80156109a65780601f1061097b576101008083540402835291602001916109a6565b820191906000526020600020905b81548152906001019060200180831161098957829003601f168201915b505050505081526020016003820180546109bf90614072565b80601f01602080910402602001604051908101604052809291908181526020018280546109eb90614072565b8015610a385780601f10610a0d57610100808354040283529160200191610a38565b820191906000526020600020905b815481529060010190602001808311610a1b57829003601f168201915b50505050508152602001600482015481525050838381518110610a84577f4e487b7100000000000000000000000000000000000000000000000000000000600052603260045260246000fd5b6020026020010181905250508080610a9b906140ef565b915050610854565b508091505090565b60018054610ab890614072565b80601f0160208091040260200160405190810160405280929190818152602001828054610ae490614072565b8015610b315780601f10610b0657610100808354040283529160200191610b31565b820191906000526020600020905b815481529060010190602001808311610b1457829003601f168201915b505050505081565b60055481565b600d5481565b600a602052806000526040600020600091509050806000015490806001018054610b6e90614072565b80601f0160208091040260200160405190810160405280929190818152602001828054610b9a90614072565b8015610be75780601f10610bbc57610100808354040283529160200191610be7565b820191906000526020600020905b815481529060010190602001808311610bca57829003601f168201915b505050505090806002018054610bfc90614072565b80601f0160208091040260200160405190810160405280929190818152602001828054610c2890614072565b8015610c755780601f10610c4a57610100808354040283529160200191610c75565b820191906000526020600020905b815481529060010190602001808311610c5857829003601f168201915b505050505090806003018054610c8a90614072565b80601f0160208091040260200160405190810160405280929190818152602001828054610cb690614072565b8015610d035780601f10610cd857610100808354040283529160200191610d03565b820191906000526020600020905b815481529060010190602001808311610ce657829003601f168201915b5050505050908060040154905085565b610d1b611290565b15610d5b576040517f08c379a0000000000000000000000000000000000000000000000000000000008152600401610d5290613c21565b60405180910390fd5b3373ffffffffffffffffffffffffffffffffffffffff16600060019054906101000a900473ffffffffffffffffffffffffffffffffffffffff1673ffffffffffffffffffffffffffffffffffffffff161480610e07575060011515600860003373ffffffffffffffffffffffffffffffffffffffff1673ffffffffffffffffffffffffffffffffffffffff16815260200190815260200160002060009054906101000a900460ff161515145b610e46576040517f08c379a0000000000000000000000000000000000000000000000000000000008152600401610e3d90613c01565b60405180910390fd5b6001600860008373ffffffffffffffffffffffffffffffffffffffff1673ffffffffffffffffffffffffffffffffffffffff16815260200190815260200160002060006101000a81548160ff02191690831515021790555050565b600060019054906101000a900473ffffffffffffffffffffffffffffffffffffffff1673ffffffffffffffffffffffffffffffffffffffff163373ffffffffffffffffffffffffffffffffffffffff1614610f31576040517f08c379a0000000000000000000000000000000000000000000000000000000008152600401610f2890613cc1565b60405180910390fd5b610f39612966565b7f5db9ee0a495bf2e6ff9c91a7834c1ba4fdd244a5e8aa4e537bd38aeae4b073aa610f62612a07565b604051610f6f9190613a4e565b60405180910390a1565b600b8181548110610f8957600080fd5b906000526020600020016000915090505481565b600e60019054906101000a900460ff1681565b610fb8611290565b15610ff8576040517f08c379a0000000000000000000000000000000000000000000000000000000008152600401610fef90613c21565b60405180910390fd5b3373ffffffffffffffffffffffffffffffffffffffff16600060019054906101000a900473ffffffffffffffffffffffffffffffffffffffff1673ffffffffffffffffffffffffffffffffffffffff1614806110a4575060011515600860003373ffffffffffffffffffffffffffffffffffffffff1673ffffffffffffffffffffffffffffffffffffffff16815260200190815260200160002060009054906101000a900460ff161515145b6110e3576040517f08c379a00000000000000000000000000000000000000000000000000000000081526004016110da90613c01565b60405180910390fd5b6000600860008373ffffffffffffffffffffffffffffffffffffffff1673ffffffffffffffffffffffffffffffffffffffff16815260200190815260200160002060006101000a81548160ff02191690831515021790555050565b6000600e60009054906101000a900460ff16905090565b61115d611290565b1561119d576040517f08c379a000000000000000000000000000000000000000000000000000000000815260040161119490613c21565b60405180910390fd5b600060019054906101000a900473ffffffffffffffffffffffffffffffffffffffff1673ffffffffffffffffffffffffffffffffffffffff163373ffffffffffffffffffffffffffffffffffffffff161461122d576040517f08c379a000000000000000000000000000000000000000000000000000000000815260040161122490613cc1565b60405180910390fd5b6001600e60016101000a81548160ff021916908315150217905550611250612a0f565b50507f38d8ebbbb4803f034f19b4cf2f19bfb84cc5dea177696c1f80a19357d5602e04600b600d54604051611286929190613aad565b60405180910390a1565b60008060009054906101000a900460ff16905090565b6112ae611290565b156112ee576040517f08c379a00000000000000000000000000000000000000000000000000000000081526004016112e590613c21565b60405180910390fd5b600060019054906101000a900473ffffffffffffffffffffffffffffffffffffffff1673ffffffffffffffffffffffffffffffffffffffff163373ffffffffffffffffffffffffffffffffffffffff161461137e576040517f08c379a000000000000000000000000000000000000000000000000000000000815260040161137590613cc1565b60405180910390fd5b6001600e60006101000a81548160ff021916908315150217905550565b600060019054906101000a900473ffffffffffffffffffffffffffffffffffffffff1673ffffffffffffffffffffffffffffffffffffffff163373ffffffffffffffffffffffffffffffffffffffff161461142b576040517f08c379a000000000000000000000000000000000000000000000000000000000815260040161142290613cc1565b60405180910390fd5b6000600e60026101000a81548160ff02191690831515021790555033600060016101000a81548173ffffffffffffffffffffffffffffffffffffffff021916908373ffffffffffffffffffffffffffffffffffffffff1602179055506000600e60006101000a81548160ff0219169083151502179055506000600e60016101000a81548160ff0219169083151502179055506000600e60026101000a81548160ff02191690831515021790555060006005819055506000600e60036101000a81548160ff021916908315150217905550600b600061150991906130bf565b6000600d81905550565b6002805461152090614072565b80601f016020809104026020016040519081016040528092919081815260200182805461154c90614072565b80156115995780601f1061156e57610100808354040283529160200191611599565b820191906000526020600020905b81548152906001019060200180831161157c57829003601f168201915b505050505081565b600060019054906101000a900473ffffffffffffffffffffffffffffffffffffffff1673ffffffffffffffffffffffffffffffffffffffff163373ffffffffffffffffffffffffffffffffffffffff1614611631576040517f08c379a000000000000000000000000000000000000000000000000000000000815260040161162890613cc1565b60405180910390fd5b611639612fee565b7f62e78cea01bee320cd4e420270b5ea74000d11b0c9f74754ebdbfc544b05a258611662612a07565b60405161166f9190613a4e565b60405180910390a1565b6000600e60029054906101000a900460ff16905090565b600060019054906101000a900473ffffffffffffffffffffffffffffffffffffffff1681565b60006060600e60039054906101000a900460ff16611709576040517f08c379a000000000000000000000000000000000000000000000000000000000815260040161170090613d01565b60405180910390fd5b600d54600b8080548060200260200160405190810160405280929190818152602001828054801561175957602002820191906000526020600020905b815481526020019060010190808311611745575b50505050509050915091509091565b600e60019054906101000a900460ff166117b7576040517f08c379a00000000000000000000000000000000000000000000000000000000081526004016117ae90613ba1565b60405180910390fd5b3373ffffffffffffffffffffffffffffffffffffffff16600060019054906101000a900473ffffffffffffffffffffffffffffffffffffffff1673ffffffffffffffffffffffffffffffffffffffff161480611863575060011515600860003373ffffffffffffffffffffffffffffffffffffffff1673ffffffffffffffffffffffffffffffffffffffff16815260200190815260200160002060009054906101000a900460ff161515145b6118a2576040517f08c379a000000000000000000000000000000000000000000000000000000000815260040161189990613be1565b60405180910390fd5b6001600e60036101000a81548160ff021916908315150217905550565b600e60029054906101000a900460ff1681565b600c6020528060005260406000206000915090508060000180546118f590614072565b80601f016020809104026020016040519081016040528092919081815260200182805461192190614072565b801561196e5780601f106119435761010080835404028352916020019161196e565b820191906000526020600020905b81548152906001019060200180831161195157829003601f168201915b50505050509080600101805461198390614072565b80601f01602080910402602001604051908101604052809291908181526020018280546119af90614072565b80156119fc5780601f106119d1576101008083540402835291602001916119fc565b820191906000526020600020905b8154815290600101906020018083116119df57829003601f168201915b505050505090806002016040518060a001604052908160008201548152602001600182018054611a2b90614072565b80601f0160208091040260200160405190810160405280929190818152602001828054611a5790614072565b8015611aa45780601f10611a7957610100808354040283529160200191611aa4565b820191906000526020600020905b815481529060010190602001808311611a8757829003601f168201915b50505050508152602001600282018054611abd90614072565b80601f0160208091040260200160405190810160405280929190818152602001828054611ae990614072565b8015611b365780601f10611b0b57610100808354040283529160200191611b36565b820191906000526020600020905b815481529060010190602001808311611b1957829003601f168201915b50505050508152602001600382018054611b4f90614072565b80601f0160208091040260200160405190810160405280929190818152602001828054611b7b90614072565b8015611bc85780601f10611b9d57610100808354040283529160200191611bc8565b820191906000526020600020905b815481529060010190602001808311611bab57829003601f168201915b50505050508152602001600482015481525050905083565b60075481565b6000600e60019054906101000a900460ff16905090565b611c05611290565b15611c45576040517f08c379a0000000000000000000000000000000000000000000000000000000008152600401611c3c90613c21565b60405180910390fd5b600e60009054906101000a900460ff1615611c95576040517f08c379a0000000000000000000000000000000000000000000000000000000008152600401611c8c90613bc1565b60405180910390fd5b3373ffffffffffffffffffffffffffffffffffffffff16600060019054906101000a900473ffffffffffffffffffffffffffffffffffffffff1673ffffffffffffffffffffffffffffffffffffffff161480611d41575060011515600860003373ffffffffffffffffffffffffffffffffffffffff1673ffffffffffffffffffffffffffffffffffffffff16815260200190815260200160002060009054906101000a900460ff161515145b611d80576040517f08c379a0000000000000000000000000000000000000000000000000000000008152600401611d7790613c01565b60405180910390fd5b6040518060a0016040528060055481526020018481526020018381526020018281526020016000815250600a60006005548152602001908152602001600020600082015181600001556020820151816001019080519060200190611de59291906130e0565b506040820151816002019080519060200190611e029291906130e0565b506060820151816003019080519060200190611e1f9291906130e0565b50608082015181600401559050507f78d27a3c512303f604b46bc28acc0ca45abe6420172a017c5a6dc585821eb63960055484604051611e60929190613d8c565b60405180910390a160056000815480929190611e7b906140ef565b9190505550505050565b60096020528060005260406000206000915054906101000a900460ff1681565b6000600860003373ffffffffffffffffffffffffffffffffffffffff1673ffffffffffffffffffffffffffffffffffffffff16815260200190815260200160002060009054906101000a900460ff16905090565b600e60009054906101000a900460ff1681565b611f14611290565b15611f54576040517f08c379a0000000000000000000000000000000000000000000000000000000008152600401611f4b90613c21565b60405180910390fd5b600e60009054906101000a900460ff1615611fa4576040517f08c379a0000000000000000000000000000000000000000000000000000000008152600401611f9b90613bc1565b60405180910390fd5b6000815111611fe8576040517f08c379a0000000000000000000000000000000000000000000000000000000008152600401611fdf90613c61565b60405180910390fd5b3373ffffffffffffffffffffffffffffffffffffffff16600060019054906101000a900473ffffffffffffffffffffffffffffffffffffffff1673ffffffffffffffffffffffffffffffffffffffff161480612094575060011515600860003373ffffffffffffffffffffffffffffffffffffffff1673ffffffffffffffffffffffffffffffffffffffff16815260200190815260200160002060009054906101000a900460ff161515145b6120d3576040517f08c379a00000000000000000000000000000000000000000000000000000000081526004016120ca90613c01565b60405180910390fd5b8060008151811061210d577f4e487b7100000000000000000000000000000000000000000000000000000000600052603260045260246000fd5b60200260200101516001908051906020019061212a9291906130e0565b5080600181518110612165577f4e487b7100000000000000000000000000000000000000000000000000000000600052603260045260246000fd5b6020026020010151600290805190602001906121829291906130e0565b506001600e60026101000a81548160ff021916908315150217905550600660008154809291906121b1906140ef565b919050555050565b6060600060065467ffffffffffffffff8111156121ff577f4e487b7100000000000000000000000000000000000000000000000000000000600052604160045260246000fd5b60405190808252806020026020018201604052801561223857816020015b612225613166565b81526020019060019003908161221d5790505b50905060005b6006548110156125c5576000600c600083815260200190815260200160002090508060405180606001604052908160008201805461227b90614072565b80601f01602080910402602001604051908101604052809291908181526020018280546122a790614072565b80156122f45780601f106122c9576101008083540402835291602001916122f4565b820191906000526020600020905b8154815290600101906020018083116122d757829003601f168201915b5050505050815260200160018201805461230d90614072565b80601f016020809104026020016040519081016040528092919081815260200182805461233990614072565b80156123865780601f1061235b57610100808354040283529160200191612386565b820191906000526020600020905b81548152906001019060200180831161236957829003601f168201915b50505050508152602001600282016040518060a0016040529081600082015481526020016001820180546123b990614072565b80601f01602080910402602001604051908101604052809291908181526020018280546123e590614072565b80156124325780601f1061240757610100808354040283529160200191612432565b820191906000526020600020905b81548152906001019060200180831161241557829003601f168201915b5050505050815260200160028201805461244b90614072565b80601f016020809104026020016040519081016040528092919081815260200182805461247790614072565b80156124c45780601f10612499576101008083540402835291602001916124c4565b820191906000526020600020905b8154815290600101906020018083116124a757829003601f168201915b505050505081526020016003820180546124dd90614072565b80601f016020809104026020016040519081016040528092919081815260200182805461250990614072565b80156125565780601f1061252b57610100808354040283529160200191612556565b820191906000526020600020905b81548152906001019060200180831161253957829003601f168201915b50505050508152602001600482015481525050815250508383815181106125a6577f4e487b7100000000000000000000000000000000000000000000000000000000600052603260045260246000fd5b60200260200101819052505080806125bd906140ef565b91505061223e565b508091505090565b6125d5611290565b15612615576040517f08c379a000000000000000000000000000000000000000000000000000000000815260040161260c90613c21565b60405180910390fd5b600060019054906101000a900473ffffffffffffffffffffffffffffffffffffffff1673ffffffffffffffffffffffffffffffffffffffff163373ffffffffffffffffffffffffffffffffffffffff16146126a5576040517f08c379a000000000000000000000000000000000000000000000000000000000815260040161269c90613cc1565b60405180910390fd5b80600060016101000a81548173ffffffffffffffffffffffffffffffffffffffff021916908373ffffffffffffffffffffffffffffffffffffffff16021790555050565b60045481565b60086020528060005260406000206000915054906101000a900460ff1681565b60003373ffffffffffffffffffffffffffffffffffffffff16600060019054906101000a900473ffffffffffffffffffffffffffffffffffffffff1673ffffffffffffffffffffffffffffffffffffffff1614905090565b61276f611290565b156127af576040517f08c379a00000000000000000000000000000000000000000000000000000000081526004016127a690613c21565b60405180910390fd5b81600554811080156127c2575060008110155b612801576040517f08c379a00000000000000000000000000000000000000000000000000000000081526004016127f890613ca1565b60405180910390fd5b600960008373ffffffffffffffffffffffffffffffffffffffff1673ffffffffffffffffffffffffffffffffffffffff16815260200190815260200160002060009054906101000a900460ff161561288e576040517f08c379a000000000000000000000000000000000000000000000000000000000815260040161288590613ce1565b60405180910390fd5b6001600960008473ffffffffffffffffffffffffffffffffffffffff1673ffffffffffffffffffffffffffffffffffffffff16815260200190815260200160002060006101000a81548160ff021916908315150217905550600a6000848152602001908152602001600020600401600081548092919061290d906140ef565b91905055507fd3ebd88818d034d26c5d98bcef9c7c45207130238e76e8cf0b3ba00e906851bf83600a600086815260200190815260200160002060040154604051612959929190613e24565b60405180910390a1505050565b61296e611290565b6129ad576040517f08c379a00000000000000000000000000000000000000000000000000000000081526004016129a490613b81565b60405180910390fd5b60008060006101000a81548160ff0219169083151502179055507f5db9ee0a495bf2e6ff9c91a7834c1ba4fdd244a5e8aa4e537bd38aeae4b073aa6129f0612a07565b6040516129fd9190613a4e565b60405180910390a1565b600033905090565b60006060612a1b611290565b15612a5b576040517f08c379a0000000000000000000000000000000000000000000000000000000008152600401612a5290613c21565b60405180910390fd5b60005b600554811015612b6b57600d54600a6000838152602001908152602001600020600401541115612af757600a600082815260200190815260200160002060040154600d81905550600b6000612ab391906130bf565b600b600a6000838152602001908152602001600020600001549080600181540180825580915050600190039060005260206000200160009091909190915055612b58565b600d54600a6000838152602001908152602001600020600401541415612b5757600b600a60008381526020019081526020016000206000015490806001815401808255809150506001900390600052602060002001600090919091909150555b5b8080612b63906140ef565b915050612a5e565b50604051806060016040528060018054612b8490614072565b80601f0160208091040260200160405190810160405280929190818152602001828054612bb090614072565b8015612bfd5780601f10612bd257610100808354040283529160200191612bfd565b820191906000526020600020905b815481529060010190602001808311612be057829003601f168201915b5050505050815260200160028054612c1490614072565b80601f0160208091040260200160405190810160405280929190818152602001828054612c4090614072565b8015612c8d5780601f10612c6257610100808354040283529160200191612c8d565b820191906000526020600020905b815481529060010190602001808311612c7057829003601f168201915b50505050508152602001600a6000600b600081548110612cd6577f4e487b7100000000000000000000000000000000000000000000000000000000600052603260045260246000fd5b906000526020600020015481526020019081526020016000206040518060a001604052908160008201548152602001600182018054612d1490614072565b80601f0160208091040260200160405190810160405280929190818152602001828054612d4090614072565b8015612d8d5780601f10612d6257610100808354040283529160200191612d8d565b820191906000526020600020905b815481529060010190602001808311612d7057829003601f168201915b50505050508152602001600282018054612da690614072565b80601f0160208091040260200160405190810160405280929190818152602001828054612dd290614072565b8015612e1f5780601f10612df457610100808354040283529160200191612e1f565b820191906000526020600020905b815481529060010190602001808311612e0257829003601f168201915b50505050508152602001600382018054612e3890614072565b80601f0160208091040260200160405190810160405280929190818152602001828054612e6490614072565b8015612eb15780601f10612e8657610100808354040283529160200191612eb1565b820191906000526020600020905b815481529060010190602001808311612e9457829003601f168201915b50505050508152602001600482015481525050815250600c600060065481526020019081526020016000206000820151816000019080519060200190612ef89291906130e0565b506020820151816001019080519060200190612f159291906130e0565b50604082015181600201600082015181600001556020820151816001019080519060200190612f459291906130e0565b506040820151816002019080519060200190612f629291906130e0565b506060820151816003019080519060200190612f7f9291906130e0565b50608082015181600401555050905050600d54600b80805480602002602001604051908101604052809291908181526020018280548015612fdf57602002820191906000526020600020905b815481526020019060010190808311612fcb575b50505050509050915091509091565b612ff6611290565b15613036576040517f08c379a000000000000000000000000000000000000000000000000000000000815260040161302d90613c21565b60405180910390fd5b60016000806101000a81548160ff0219169083151502179055507f62e78cea01bee320cd4e420270b5ea74000d11b0c9f74754ebdbfc544b05a258613079612a07565b6040516130869190613a4e565b60405180910390a1565b6040518060a0016040528060008152602001606081526020016060815260200160608152602001600081525090565b50805460008255906000526020600020908101906130dd919061318d565b50565b8280546130ec90614072565b90600052602060002090601f01602090048101928261310e5760008555613155565b82601f1061312757805160ff1916838001178555613155565b82800160010185558215613155579182015b82811115613154578251825591602001919060010190613139565b5b509050613162919061318d565b5090565b60405180606001604052806060815260200160608152602001613187613090565b81525090565b5b808211156131a657600081600090555060010161318e565b5090565b60006131bd6131b884613e72565b613e4d565b905080838252602082019050828560208602820111156131dc57600080fd5b60005b8581101561322657813567ffffffffffffffff8111156131fe57600080fd5b80860161320b89826132ad565b855260208501945060208401935050506001810190506131df565b5050509392505050565b600061324361323e84613e9e565b613e4d565b90508281526020810184848401111561325b57600080fd5b613266848285614030565b509392505050565b60008135905061327d8161453e565b92915050565b600082601f83011261329457600080fd5b81356132a48482602086016131aa565b91505092915050565b600082601f8301126132be57600080fd5b81356132ce848260208601613230565b91505092915050565b6000813590506132e681614555565b92915050565b6000815190506132fb81614555565b92915050565b60006020828403121561331357600080fd5b60006133218482850161326e565b91505092915050565b60006020828403121561333c57600080fd5b600082013567ffffffffffffffff81111561335657600080fd5b61336284828501613283565b91505092915050565b60008060006060848603121561338057600080fd5b600084013567ffffffffffffffff81111561339a57600080fd5b6133a6868287016132ad565b935050602084013567ffffffffffffffff8111156133c357600080fd5b6133cf868287016132ad565b925050604084013567ffffffffffffffff8111156133ec57600080fd5b6133f8868287016132ad565b9150509250925092565b60006020828403121561341457600080fd5b6000613422848285016132d7565b91505092915050565b60006020828403121561343d57600080fd5b600061344b848285016132ec565b91505092915050565b600061346083836138ca565b905092915050565b600061347483836139d2565b905092915050565b60006134888383613a30565b60208301905092915050565b61349d81613fde565b82525050565b60006134ae82613f14565b6134b88185613f7f565b9350836020820285016134ca85613ecf565b8060005b8581101561350657848403895281516134e78582613454565b94506134f283613f4b565b925060208a019950506001810190506134ce565b50829750879550505050505092915050565b600061352382613f1f565b61352d8185613f90565b93508360208202850161353f85613edf565b8060005b8581101561357b578484038952815161355c8582613468565b945061356783613f58565b925060208a01995050600181019050613543565b50829750879550505050505092915050565b600061359882613f2a565b6135a28185613fa1565b93506135ad83613eef565b8060005b838110156135de5781516135c5888261347c565b97506135d083613f65565b9250506001810190506135b1565b5085935050505092915050565b60006135f682613f35565b6136008185613fa1565b935061360b83613eff565b8060005b8381101561364357613620826141c5565b61362a888261347c565b975061363583613f72565b92505060018101905061360f565b5085935050505092915050565b61365981613ff0565b82525050565b61366881613ffc565b82525050565b600061367982613f40565b6136838185613fb2565b935061369381856020860161403f565b61369c816141d8565b840191505092915050565b60006136b282613f40565b6136bc8185613fc3565b93506136cc81856020860161403f565b6136d5816141d8565b840191505092915050565b60006136ed601483613fc3565b91506136f8826141f6565b602082019050919050565b6000613710602183613fc3565b915061371b8261421f565b604082019050919050565b6000613733601383613fc3565b915061373e8261426e565b602082019050919050565b6000613756602e83613fc3565b915061376182614297565b604082019050919050565b6000613779602d83613fc3565b9150613784826142e6565b604082019050919050565b600061379c601083613fc3565b91506137a782614335565b602082019050919050565b60006137bf603083613fc3565b91506137ca8261435e565b604082019050919050565b60006137e2602183613fc3565b91506137ed826143ad565b604082019050919050565b6000613805601e83613fc3565b9150613810826143fc565b602082019050919050565b6000613828601a83613fc3565b915061383382614425565b602082019050919050565b600061384b602483613fc3565b91506138568261444e565b604082019050919050565b600061386e601883613fc3565b91506138798261449d565b602082019050919050565b6000613891601f83613fc3565b915061389c826144c6565b602082019050919050565b60006138b4602d83613fc3565b91506138bf826144ef565b604082019050919050565b600060a0830160008301516138e26000860182613a30565b50602083015184820360208601526138fa828261366e565b91505060408301518482036040860152613914828261366e565b9150506060830151848203606086015261392e828261366e565b91505060808301516139436080860182613a30565b508091505092915050565b600060a0830160008301516139666000860182613a30565b506020830151848203602086015261397e828261366e565b91505060408301518482036040860152613998828261366e565b915050606083015184820360608601526139b2828261366e565b91505060808301516139c76080860182613a30565b508091505092915050565b600060608301600083015184820360008601526139ef828261366e565b91505060208301518482036020860152613a09828261366e565b91505060408301518482036040860152613a2382826138ca565b9150508091505092915050565b613a3981614026565b82525050565b613a4881614026565b82525050565b6000602082019050613a636000830184613494565b92915050565b60006020820190508181036000830152613a8381846134a3565b905092915050565b60006020820190508181036000830152613aa58184613518565b905092915050565b60006040820190508181036000830152613ac781856135eb565b9050613ad66020830184613a3f565b9392505050565b6000602082019050613af26000830184613650565b92915050565b6000602082019050613b0d600083018461365f565b92915050565b60006020820190508181036000830152613b2d81846136a7565b905092915050565b60006060820190508181036000830152613b4f81866136a7565b90508181036020830152613b6381856136a7565b90508181036040830152613b77818461394e565b9050949350505050565b60006020820190508181036000830152613b9a816136e0565b9050919050565b60006020820190508181036000830152613bba81613703565b9050919050565b60006020820190508181036000830152613bda81613726565b9050919050565b60006020820190508181036000830152613bfa81613749565b9050919050565b60006020820190508181036000830152613c1a8161376c565b9050919050565b60006020820190508181036000830152613c3a8161378f565b9050919050565b60006020820190508181036000830152613c5a816137b2565b9050919050565b60006020820190508181036000830152613c7a816137d5565b9050919050565b60006020820190508181036000830152613c9a816137f8565b9050919050565b60006020820190508181036000830152613cba8161381b565b9050919050565b60006020820190508181036000830152613cda8161383e565b9050919050565b60006020820190508181036000830152613cfa81613861565b9050919050565b60006020820190508181036000830152613d1a81613884565b9050919050565b60006020820190508181036000830152613d3a816138a7565b9050919050565b6000602082019050613d566000830184613a3f565b92915050565b6000604082019050613d716000830185613a3f565b8181036020830152613d83818461358d565b90509392505050565b6000604082019050613da16000830185613a3f565b8181036020830152613db381846136a7565b90509392505050565b600060a082019050613dd16000830188613a3f565b8181036020830152613de381876136a7565b90508181036040830152613df781866136a7565b90508181036060830152613e0b81856136a7565b9050613e1a6080830184613a3f565b9695505050505050565b6000604082019050613e396000830185613a3f565b613e466020830184613a3f565b9392505050565b6000613e57613e68565b9050613e6382826140be565b919050565b6000604051905090565b600067ffffffffffffffff821115613e8d57613e8c614196565b5b602082029050602081019050919050565b600067ffffffffffffffff821115613eb957613eb8614196565b5b613ec2826141d8565b9050602081019050919050565b6000819050602082019050919050565b6000819050602082019050919050565b6000819050602082019050919050565b60008190508160005260206000209050919050565b600081519050919050565b600081519050919050565b600081519050919050565b600081549050919050565b600081519050919050565b6000602082019050919050565b6000602082019050919050565b6000602082019050919050565b6000600182019050919050565b600082825260208201905092915050565b600082825260208201905092915050565b600082825260208201905092915050565b600082825260208201905092915050565b600082825260208201905092915050565b6000819050919050565b6000613fe982614006565b9050919050565b60008115159050919050565b6000819050919050565b600073ffffffffffffffffffffffffffffffffffffffff82169050919050565b6000819050919050565b82818337600083830152505050565b60005b8381101561405d578082015181840152602081019050614042565b8381111561406c576000848401525b50505050565b6000600282049050600182168061408a57607f821691505b6020821081141561409e5761409d614167565b5b50919050565b60006140b76140b2836141e9565b613fd4565b9050919050565b6140c7826141d8565b810181811067ffffffffffffffff821117156140e6576140e5614196565b5b80604052505050565b60006140fa82614026565b91507fffffffffffffffffffffffffffffffffffffffffffffffffffffffffffffffff82141561412d5761412c614138565b5b600182019050919050565b7f4e487b7100000000000000000000000000000000000000000000000000000000600052601160045260246000fd5b7f4e487b7100000000000000000000000000000000000000000000000000000000600052602260045260246000fd5b7f4e487b7100000000000000000000000000000000000000000000000000000000600052604160045260246000fd5b60006141d182546140a4565b9050919050565b6000601f19601f8301169050919050565b60008160001c9050919050565b7f5061757361626c653a206e6f7420706175736564000000000000000000000000600082015250565b7f536f7272792c2074686520456c656374696f6e20686173206e6f7420656e646560008201527f6400000000000000000000000000000000000000000000000000000000000000602082015250565b7f456c656374696f6e206973204f6e676f696e6700000000000000000000000000600082015250565b7f6f6e6c792074656163686572732f63686169726d616e2063616e206d616b652060008201527f726573756c7473207075626c6963000000000000000000000000000000000000602082015250565b7f6f6e6c792074656163686572732f63686169726d616e2063616e2063616c6c2060008201527f746869732066756e6374696f6e00000000000000000000000000000000000000602082015250565b7f5061757361626c653a2070617573656400000000000000000000000000000000600082015250565b7f506c6561736520636865636b206261636b2c2074686520656c656374696f6e2060008201527f686173206e6f7420737461727465642100000000000000000000000000000000602082015250565b7f61746c65617374206f6e6520706572736f6e2073686f756c6420636f6e74657360008201527f7400000000000000000000000000000000000000000000000000000000000000602082015250565b7f536f7272792c2074686520456c656374696f6e2068617320656e646564210000600082015250565b7f496e76616c69642063616e64696461746520746f20566f746521000000000000600082015250565b7f6f6e6c792063686169726d616e2063616e2063616c6c20746869732066756e6360008201527f74696f6e00000000000000000000000000000000000000000000000000000000602082015250565b7f566f7465722068617320616c726561647920566f746564210000000000000000600082015250565b7f54686520526573756c7473206d757374206265206d616465207075626c696300600082015250565b7f736f7272792c206f6e6c79207374616b65686f6c646572732061726520656c6960008201527f6769626c6520746f20766f746500000000000000000000000000000000000000602082015250565b61454781613fde565b811461455257600080fd5b50565b61455e81614026565b811461456957600080fd5b5056fea2646970667358221220ffd7859c8bd4f2bb626379ab0cb4039c821c62583db39ebe333fc59abae953da64736f6c63430008040033",
  "linkReferences": {},
  "deployedLinkReferences": {}
}