{
  "_format": "hh-sol-artifact-1",
  "contractName": "ZuriElection",
  "sourceName": "contracts/ZuriElection.sol",
  "abi": [
    {
      "inputs": [
        {
          "internalType": "bytes32",
          "name": "merkleRoot",
          "type": "bytes32"
        }
      ],
      "stateMutability": "nonpayable",
      "type": "constructor"
    },
    {
      "inputs": [],
      "name": "ElectionHasEnded",
      "type": "error"
    },
    {
      "inputs": [],
      "name": "ElectionNotStarted",
      "type": "error"
    },
    {
      "anonymous": false,
      "inputs": [
        {
          "indexed": false,
          "internalType": "uint256",
          "name": "_candidateId",
          "type": "uint256"
        },
        {
          "indexed": false,
          "internalType": "string",
          "name": "_candidateName",
          "type": "string"
        }
      ],
      "name": "CandidateCreated",
      "type": "event"
    },
    {
      "anonymous": false,
      "inputs": [
        {
          "indexed": false,
          "internalType": "uint256[]",
          "name": "_winnerIds",
          "type": "uint256[]"
        },
        {
          "indexed": false,
          "internalType": "uint256",
          "name": "_winnerVoteCount",
          "type": "uint256"
        }
      ],
      "name": "ElectionEnded",
      "type": "event"
    },
    {
      "anonymous": false,
      "inputs": [
        {
          "indexed": false,
          "internalType": "address",
          "name": "account",
          "type": "address"
        }
      ],
      "name": "Paused",
      "type": "event"
    },
    {
      "anonymous": false,
      "inputs": [
        {
          "indexed": false,
          "internalType": "address",
          "name": "account",
          "type": "address"
        }
      ],
      "name": "Unpaused",
      "type": "event"
    },
    {
      "anonymous": false,
      "inputs": [
        {
          "indexed": false,
          "internalType": "uint256",
          "name": "_candidateId",
          "type": "uint256"
        },
        {
          "indexed": false,
          "internalType": "uint256",
          "name": "_candidateVoteCount",
          "type": "uint256"
        }
      ],
      "name": "VoteForCandidate",
      "type": "event"
    },
    {
      "inputs": [],
      "name": "Active",
      "outputs": [
        {
          "internalType": "bool",
          "name": "",
          "type": "bool"
        }
      ],
      "stateMutability": "view",
      "type": "function"
    },
    {
      "inputs": [],
      "name": "Ended",
      "outputs": [
        {
          "internalType": "bool",
          "name": "",
          "type": "bool"
        }
      ],
      "stateMutability": "view",
      "type": "function"
    },
    {
      "inputs": [
        {
          "internalType": "address",
          "name": "_newTeacher",
          "type": "address"
        }
      ],
      "name": "addTeacher",
      "outputs": [],
      "stateMutability": "nonpayable",
      "type": "function"
    },
    {
      "inputs": [
        {
          "internalType": "uint256",
          "name": "",
          "type": "uint256"
        }
      ],
      "name": "candidates",
      "outputs": [
        {
          "internalType": "uint256",
          "name": "id",
          "type": "uint256"
        },
        {
          "internalType": "string",
          "name": "name",
          "type": "string"
        },
        {
          "internalType": "uint256",
          "name": "voteCount",
          "type": "uint256"
        }
      ],
      "stateMutability": "view",
      "type": "function"
    },
    {
      "inputs": [],
      "name": "candidatesCount",
      "outputs": [
        {
          "internalType": "uint256",
          "name": "",
          "type": "uint256"
        }
      ],
      "stateMutability": "view",
      "type": "function"
    },
    {
      "inputs": [],
      "name": "chairman",
      "outputs": [
        {
          "internalType": "address",
          "name": "",
          "type": "address"
        }
      ],
      "stateMutability": "view",
      "type": "function"
    },
    {
      "inputs": [
        {
          "internalType": "address",
          "name": "_newChairman",
          "type": "address"
        }
      ],
      "name": "changeChairman",
      "outputs": [],
      "stateMutability": "nonpayable",
      "type": "function"
    },
    {
      "inputs": [],
      "name": "description",
      "outputs": [
        {
          "internalType": "string",
          "name": "",
          "type": "string"
        }
      ],
      "stateMutability": "view",
      "type": "function"
    },
    {
      "inputs": [],
      "name": "endElection",
      "outputs": [],
      "stateMutability": "nonpayable",
      "type": "function"
    },
    {
      "inputs": [],
      "name": "getCandidates",
      "outputs": [
        {
          "components": [
            {
              "internalType": "uint256",
              "name": "id",
              "type": "uint256"
            },
            {
              "internalType": "string",
              "name": "name",
              "type": "string"
            },
            {
              "internalType": "uint256",
              "name": "voteCount",
              "type": "uint256"
            }
          ],
          "internalType": "struct ZuriElection.Candidate[]",
          "name": "",
          "type": "tuple[]"
        }
      ],
      "stateMutability": "view",
      "type": "function"
    },
    {
      "inputs": [
        {
          "internalType": "bytes32[]",
          "name": "proof",
          "type": "bytes32[]"
        },
        {
          "internalType": "bytes32",
          "name": "leaf",
          "type": "bytes32"
        }
      ],
      "name": "isValid",
      "outputs": [
        {
          "internalType": "bool",
          "name": "",
          "type": "bool"
        }
      ],
      "stateMutability": "view",
      "type": "function"
    },
    {
      "inputs": [],
      "name": "makeResultPublic",
      "outputs": [
        {
          "internalType": "uint256",
          "name": "",
          "type": "uint256"
        },
        {
          "internalType": "uint256[]",
          "name": "",
          "type": "uint256[]"
        }
      ],
      "stateMutability": "view",
      "type": "function"
    },
    {
      "inputs": [],
      "name": "pause",
      "outputs": [],
      "stateMutability": "nonpayable",
      "type": "function"
    },
    {
      "inputs": [],
      "name": "paused",
      "outputs": [
        {
          "internalType": "bool",
          "name": "",
          "type": "bool"
        }
      ],
      "stateMutability": "view",
      "type": "function"
    },
    {
      "inputs": [],
      "name": "position",
      "outputs": [
        {
          "internalType": "string",
          "name": "",
          "type": "string"
        }
      ],
      "stateMutability": "view",
      "type": "function"
    },
    {
      "inputs": [
        {
          "internalType": "address",
          "name": "_teacher",
          "type": "address"
        }
      ],
      "name": "removeTeacher",
      "outputs": [],
      "stateMutability": "nonpayable",
      "type": "function"
    },
    {
      "inputs": [],
      "name": "root",
      "outputs": [
        {
          "internalType": "bytes32",
          "name": "",
          "type": "bytes32"
        }
      ],
      "stateMutability": "view",
      "type": "function"
    },
    {
      "inputs": [
        {
          "internalType": "string[]",
          "name": "_prop",
          "type": "string[]"
        },
        {
          "internalType": "string[]",
          "name": "_candidates",
          "type": "string[]"
        }
      ],
      "name": "setUpElection",
      "outputs": [],
      "stateMutability": "nonpayable",
      "type": "function"
    },
    {
      "inputs": [],
      "name": "startElection",
      "outputs": [],
      "stateMutability": "nonpayable",
      "type": "function"
    },
    {
      "inputs": [
        {
          "internalType": "address",
          "name": "",
          "type": "address"
        }
      ],
      "name": "teachers",
      "outputs": [
        {
          "internalType": "bool",
          "name": "",
          "type": "bool"
        }
      ],
      "stateMutability": "view",
      "type": "function"
    },
    {
      "inputs": [],
      "name": "unpause",
      "outputs": [],
      "stateMutability": "nonpayable",
      "type": "function"
    },
    {
      "inputs": [
        {
          "internalType": "uint256",
          "name": "_candidateId",
          "type": "uint256"
        },
        {
          "internalType": "bytes32[]",
          "name": "hexProof",
          "type": "bytes32[]"
        }
      ],
      "name": "vote",
      "outputs": [],
      "stateMutability": "nonpayable",
      "type": "function"
    },
    {
      "inputs": [
        {
          "internalType": "address",
          "name": "",
          "type": "address"
        }
      ],
      "name": "voted",
      "outputs": [
        {
          "internalType": "bool",
          "name": "",
          "type": "bool"
        }
      ],
      "stateMutability": "view",
      "type": "function"
    },
    {
      "inputs": [
        {
          "internalType": "uint256",
          "name": "",
          "type": "uint256"
        }
      ],
      "name": "winnerIds",
      "outputs": [
        {
          "internalType": "uint256",
          "name": "",
          "type": "uint256"
        }
      ],
      "stateMutability": "view",
      "type": "function"
    },
    {
      "inputs": [],
      "name": "winnerVoteCount",
      "outputs": [
        {
          "internalType": "uint256",
          "name": "",
          "type": "uint256"
        }
      ],
      "stateMutability": "view",
      "type": "function"
    }
  ],
  "bytecode": "0x60806040523480156200001157600080fd5b50604051620030ff380380620030ff8339818101604052810190620000379190620000f5565b60008060006101000a81548160ff02191690831515021790555033600060016101000a81548173ffffffffffffffffffffffffffffffffffffffff021916908373ffffffffffffffffffffffffffffffffffffffff1602179055506000600a60006101000a81548160ff0219169083151502179055506000600a60016101000a81548160ff0219169083151502179055506000600481905550806003819055505062000145565b600081519050620000ef816200012b565b92915050565b6000602082840312156200010857600080fd5b60006200011884828501620000de565b91505092915050565b6000819050919050565b620001368162000121565b81146200014257600080fd5b50565b612faa80620001556000396000f3fe608060405234801561001057600080fd5b50600436106101735760003560e01c806362d73eb8116100de578063aec2ccae11610097578063e810186911610071578063e8101869146103e3578063ebf0c717146103ff578063f0a47f781461041d578063fd27419b1461044d57610173565b8063aec2ccae14610365578063b8a20ed014610395578063c9b0a2a7146103c557610173565b806362d73eb8146102da5780637284e416146102e457806379bf09ab146103025780638456cb591461031e57806387f7b9751461032857806395adfc5e1461034657610173565b80633f4ba83a116101305780633f4ba83a1461023e578063403d131214610248578063477383f31461027857806352ff68461461029657806359f78468146102b25780635c975abb146102bc57610173565b806306a49fce1461017857806309218e91146101965780632d35a8a2146101b45780632f22850d146101d25780633477ee2e146101f05780633bc6e30914610222575b600080fd5b610180610469565b60405161018d91906125cf565b60405180910390f35b61019e610621565b6040516101ab9190612657565b60405180910390f35b6101bc6106af565b6040516101c991906127d9565b60405180910390f35b6101da6106b5565b6040516101e791906127d9565b60405180910390f35b61020a6004803603810190610205919061210f565b6106bb565b60405161021993929190612854565b60405180910390f35b61023c60048036038101906102379190612026565b61076d565b005b6102466108fb565b005b610262600480360381019061025d919061210f565b6109d3565b60405161026f91906127d9565b60405180910390f35b6102806109f7565b60405161028d9190612621565b60405180910390f35b6102b060048036038101906102ab9190612026565b610a0a565b005b6102ba610b98565b005b6102c4610cd3565b6040516102d19190612621565b60405180910390f35b6102e2610ce9565b005b6102ec610dde565b6040516102f99190612657565b60405180910390f35b61031c600480360381019061031791906120a3565b610e6c565b005b610326611100565b005b6103306111d8565b60405161033d91906125b4565b60405180910390f35b61034e6111fe565b60405161035c9291906127f4565b60405180910390f35b61037f600480360381019061037a9190612026565b61134c565b60405161038c9190612621565b60405180910390f35b6103af60048036038101906103aa919061204f565b61136c565b6040516103bc9190612621565b60405180910390f35b6103cd611383565b6040516103da9190612621565b60405180910390f35b6103fd60048036038101906103f89190612026565b611396565b005b6104076114b2565b604051610414919061263c565b60405180910390f35b61043760048036038101906104329190612026565b6114b8565b6040516104449190612621565b60405180910390f35b61046760048036038101906104629190612138565b6114d8565b005b6060600060045467ffffffffffffffff8111156104af577f4e487b7100000000000000000000000000000000000000000000000000000000600052604160045260246000fd5b6040519080825280602002602001820160405280156104e857816020015b6104d5611d0a565b8152602001906001900390816104cd5790505b50905060005b600454811015610619576000600760008381526020019081526020016000209050806040518060600160405290816000820154815260200160018201805461053590612ad3565b80601f016020809104026020016040519081016040528092919081815260200182805461056190612ad3565b80156105ae5780601f10610583576101008083540402835291602001916105ae565b820191906000526020600020905b81548152906001019060200180831161059157829003601f168201915b505050505081526020016002820154815250508383815181106105fa577f4e487b7100000000000000000000000000000000000000000000000000000000600052603260045260246000fd5b602002602001018190525050808061061190612b50565b9150506104ee565b508091505090565b6001805461062e90612ad3565b80601f016020809104026020016040519081016040528092919081815260200182805461065a90612ad3565b80156106a75780601f1061067c576101008083540402835291602001916106a7565b820191906000526020600020905b81548152906001019060200180831161068a57829003601f168201915b505050505081565b60045481565b60095481565b60076020528060005260406000206000915090508060000154908060010180546106e490612ad3565b80601f016020809104026020016040519081016040528092919081815260200182805461071090612ad3565b801561075d5780601f106107325761010080835404028352916020019161075d565b820191906000526020600020905b81548152906001019060200180831161074057829003601f168201915b5050505050908060020154905083565b610775610cd3565b156107b5576040517f08c379a00000000000000000000000000000000000000000000000000000000081526004016107ac906126d9565b60405180910390fd5b3373ffffffffffffffffffffffffffffffffffffffff16600060019054906101000a900473ffffffffffffffffffffffffffffffffffffffff1673ffffffffffffffffffffffffffffffffffffffff161480610861575060011515600560003373ffffffffffffffffffffffffffffffffffffffff1673ffffffffffffffffffffffffffffffffffffffff16815260200190815260200160002060009054906101000a900460ff161515145b6108a0576040517f08c379a0000000000000000000000000000000000000000000000000000000008152600401610897906126b9565b60405180910390fd5b6001600560008373ffffffffffffffffffffffffffffffffffffffff1673ffffffffffffffffffffffffffffffffffffffff16815260200190815260200160002060006101000a81548160ff02191690831515021790555050565b600060019054906101000a900473ffffffffffffffffffffffffffffffffffffffff1673ffffffffffffffffffffffffffffffffffffffff163373ffffffffffffffffffffffffffffffffffffffff161461098b576040517f08c379a000000000000000000000000000000000000000000000000000000000815260040161098290612779565b60405180910390fd5b610993611636565b7f5db9ee0a495bf2e6ff9c91a7834c1ba4fdd244a5e8aa4e537bd38aeae4b073aa6109bc6116d7565b6040516109c991906125b4565b60405180910390a1565b600881815481106109e357600080fd5b906000526020600020016000915090505481565b600a60019054906101000a900460ff1681565b610a12610cd3565b15610a52576040517f08c379a0000000000000000000000000000000000000000000000000000000008152600401610a49906126d9565b60405180910390fd5b3373ffffffffffffffffffffffffffffffffffffffff16600060019054906101000a900473ffffffffffffffffffffffffffffffffffffffff1673ffffffffffffffffffffffffffffffffffffffff161480610afe575060011515600560003373ffffffffffffffffffffffffffffffffffffffff1673ffffffffffffffffffffffffffffffffffffffff16815260200190815260200160002060009054906101000a900460ff161515145b610b3d576040517f08c379a0000000000000000000000000000000000000000000000000000000008152600401610b34906126b9565b60405180910390fd5b6000600560008373ffffffffffffffffffffffffffffffffffffffff1673ffffffffffffffffffffffffffffffffffffffff16815260200190815260200160002060006101000a81548160ff02191690831515021790555050565b610ba0610cd3565b15610be0576040517f08c379a0000000000000000000000000000000000000000000000000000000008152600401610bd7906126d9565b60405180910390fd5b600060019054906101000a900473ffffffffffffffffffffffffffffffffffffffff1673ffffffffffffffffffffffffffffffffffffffff163373ffffffffffffffffffffffffffffffffffffffff1614610c70576040517f08c379a0000000000000000000000000000000000000000000000000000000008152600401610c6790612779565b60405180910390fd5b6001600a60016101000a81548160ff021916908315150217905550610c936116df565b50507f38d8ebbbb4803f034f19b4cf2f19bfb84cc5dea177696c1f80a19357d5602e046008600954604051610cc99291906125f1565b60405180910390a1565b60008060009054906101000a900460ff16905090565b610cf1610cd3565b15610d31576040517f08c379a0000000000000000000000000000000000000000000000000000000008152600401610d28906126d9565b60405180910390fd5b600060019054906101000a900473ffffffffffffffffffffffffffffffffffffffff1673ffffffffffffffffffffffffffffffffffffffff163373ffffffffffffffffffffffffffffffffffffffff1614610dc1576040517f08c379a0000000000000000000000000000000000000000000000000000000008152600401610db890612779565b60405180910390fd5b6001600a60006101000a81548160ff021916908315150217905550565b60028054610deb90612ad3565b80601f0160208091040260200160405190810160405280929190818152602001828054610e1790612ad3565b8015610e645780601f10610e3957610100808354040283529160200191610e64565b820191906000526020600020905b815481529060010190602001808311610e4757829003601f168201915b505050505081565b610e74610cd3565b15610eb4576040517f08c379a0000000000000000000000000000000000000000000000000000000008152600401610eab906126d9565b60405180910390fd5b6000815111610ef8576040517f08c379a0000000000000000000000000000000000000000000000000000000008152600401610eef90612719565b60405180910390fd5b3373ffffffffffffffffffffffffffffffffffffffff16600060019054906101000a900473ffffffffffffffffffffffffffffffffffffffff1673ffffffffffffffffffffffffffffffffffffffff161480610fa4575060011515600560003373ffffffffffffffffffffffffffffffffffffffff1673ffffffffffffffffffffffffffffffffffffffff16815260200190815260200160002060009054906101000a900460ff161515145b610fe3576040517f08c379a0000000000000000000000000000000000000000000000000000000008152600401610fda906126b9565b60405180910390fd5b8160008151811061101d577f4e487b7100000000000000000000000000000000000000000000000000000000600052603260045260246000fd5b60200260200101516001908051906020019061103a929190611d2b565b5081600181518110611075577f4e487b7100000000000000000000000000000000000000000000000000000000600052603260045260246000fd5b602002602001015160029080519060200190611092929190611d2b565b5060005b81518110156110fb576110e88282815181106110db577f4e487b7100000000000000000000000000000000000000000000000000000000600052603260045260246000fd5b602002602001015161189b565b80806110f390612b50565b915050611096565b505050565b600060019054906101000a900473ffffffffffffffffffffffffffffffffffffffff1673ffffffffffffffffffffffffffffffffffffffff163373ffffffffffffffffffffffffffffffffffffffff1614611190576040517f08c379a000000000000000000000000000000000000000000000000000000000815260040161118790612779565b60405180910390fd5b6111986119a0565b7f62e78cea01bee320cd4e420270b5ea74000d11b0c9f74754ebdbfc544b05a2586111c16116d7565b6040516111ce91906125b4565b60405180910390a1565b600060019054906101000a900473ffffffffffffffffffffffffffffffffffffffff1681565b600060603373ffffffffffffffffffffffffffffffffffffffff16600060019054906101000a900473ffffffffffffffffffffffffffffffffffffffff1673ffffffffffffffffffffffffffffffffffffffff1614806112ae575060011515600560003373ffffffffffffffffffffffffffffffffffffffff1673ffffffffffffffffffffffffffffffffffffffff16815260200190815260200160002060009054906101000a900460ff161515145b6112ed576040517f08c379a00000000000000000000000000000000000000000000000000000000081526004016112e490612699565b60405180910390fd5b60095460088080548060200260200160405190810160405280929190818152602001828054801561133d57602002820191906000526020600020905b815481526020019060010190808311611329575b50505050509050915091509091565b60066020528060005260406000206000915054906101000a900460ff1681565b600061137b8360035484611a42565b905092915050565b600a60009054906101000a900460ff1681565b61139e610cd3565b156113de576040517f08c379a00000000000000000000000000000000000000000000000000000000081526004016113d5906126d9565b60405180910390fd5b600060019054906101000a900473ffffffffffffffffffffffffffffffffffffffff1673ffffffffffffffffffffffffffffffffffffffff163373ffffffffffffffffffffffffffffffffffffffff161461146e576040517f08c379a000000000000000000000000000000000000000000000000000000000815260040161146590612779565b60405180910390fd5b80600060016101000a81548173ffffffffffffffffffffffffffffffffffffffff021916908373ffffffffffffffffffffffffffffffffffffffff16021790555050565b60035481565b60056020528060005260406000206000915054906101000a900460ff1681565b600a60019054906101000a900460ff1615611528576040517f08c379a000000000000000000000000000000000000000000000000000000000815260040161151f90612739565b60405180910390fd5b600a60009054906101000a900460ff16611577576040517f08c379a000000000000000000000000000000000000000000000000000000000815260040161156e906126f9565b60405180910390fd5b6115e8828280806020026020016040519081016040528093929190818152602001838360200280828437600081840152601f19601f82011690508083019250505050505050336040516020016115cd9190612599565b6040516020818303038152906040528051906020012061136c565b611627576040517f08c379a000000000000000000000000000000000000000000000000000000000815260040161161e906127b9565b60405180910390fd5b6116318333611a59565b505050565b61163e610cd3565b61167d576040517f08c379a000000000000000000000000000000000000000000000000000000000815260040161167490612679565b60405180910390fd5b60008060006101000a81548160ff0219169083151502179055507f5db9ee0a495bf2e6ff9c91a7834c1ba4fdd244a5e8aa4e537bd38aeae4b073aa6116c06116d7565b6040516116cd91906125b4565b60405180910390a1565b600033905090565b600060606116eb610cd3565b1561172b576040517f08c379a0000000000000000000000000000000000000000000000000000000008152600401611722906126d9565b60405180910390fd5b60005b60045481101561183b57600954600760008381526020019081526020016000206002015411156117c7576007600082815260200190815260200160002060020154600981905550600860006117839190611db1565b600860076000838152602001908152602001600020600001549080600181540180825580915050600190039060005260206000200160009091909190915055611828565b60095460076000838152602001908152602001600020600201541415611827576008600760008381526020019081526020016000206000015490806001815401808255809150506001900390600052602060002001600090919091909150555b5b808061183390612b50565b91505061172e565b5060095460088080548060200260200160405190810160405280929190818152602001828054801561188c57602002820191906000526020600020905b815481526020019060010190808311611878575b50505050509050915091509091565b6118a3610cd3565b156118e3576040517f08c379a00000000000000000000000000000000000000000000000000000000081526004016118da906126d9565b60405180910390fd5b60405180606001604052806004548152602001828152602001600081525060076000600454815260200190815260200160002060008201518160000155602082015181600101908051906020019061193c929190611d2b565b50604082015181600201559050507f78d27a3c512303f604b46bc28acc0ca45abe6420172a017c5a6dc585821eb6396004548260405161197d929190612824565b60405180910390a16004600081548092919061199890612b50565b919050555050565b6119a8610cd3565b156119e8576040517f08c379a00000000000000000000000000000000000000000000000000000000081526004016119df906126d9565b60405180910390fd5b60016000806101000a81548160ff0219169083151502179055507f62e78cea01bee320cd4e420270b5ea74000d11b0c9f74754ebdbfc544b05a258611a2b6116d7565b604051611a3891906125b4565b60405180910390a1565b600082611a4f8584611c58565b1490509392505050565b611a61610cd3565b15611aa1576040517f08c379a0000000000000000000000000000000000000000000000000000000008152600401611a98906126d9565b60405180910390fd5b8160045481108015611ab4575060008110155b611af3576040517f08c379a0000000000000000000000000000000000000000000000000000000008152600401611aea90612759565b60405180910390fd5b600660008373ffffffffffffffffffffffffffffffffffffffff1673ffffffffffffffffffffffffffffffffffffffff16815260200190815260200160002060009054906101000a900460ff1615611b80576040517f08c379a0000000000000000000000000000000000000000000000000000000008152600401611b7790612799565b60405180910390fd5b6001600660008473ffffffffffffffffffffffffffffffffffffffff1673ffffffffffffffffffffffffffffffffffffffff16815260200190815260200160002060006101000a81548160ff021916908315150217905550600760008481526020019081526020016000206002016000815480929190611bff90612b50565b91905055507fd3ebd88818d034d26c5d98bcef9c7c45207130238e76e8cf0b3ba00e906851bf836007600086815260200190815260200160002060020154604051611c4b929190612892565b60405180910390a1505050565b60008082905060005b8451811015611ce8576000858281518110611ca5577f4e487b7100000000000000000000000000000000000000000000000000000000600052603260045260246000fd5b60200260200101519050808311611cc757611cc08382611cf3565b9250611cd4565b611cd18184611cf3565b92505b508080611ce090612b50565b915050611c61565b508091505092915050565b600082600052816020526040600020905092915050565b60405180606001604052806000815260200160608152602001600081525090565b828054611d3790612ad3565b90600052602060002090601f016020900481019282611d595760008555611da0565b82601f10611d7257805160ff1916838001178555611da0565b82800160010185558215611da0579182015b82811115611d9f578251825591602001919060010190611d84565b5b509050611dad9190611dd2565b5090565b5080546000825590600052602060002090810190611dcf9190611dd2565b50565b5b80821115611deb576000816000905550600101611dd3565b5090565b6000611e02611dfd846128e0565b6128bb565b90508083825260208201905082856020860282011115611e2157600080fd5b60005b85811015611e515781611e378882611fd2565b845260208401935060208301925050600181019050611e24565b5050509392505050565b6000611e6e611e698461290c565b6128bb565b90508083825260208201905082856020860282011115611e8d57600080fd5b60005b85811015611ed757813567ffffffffffffffff811115611eaf57600080fd5b808601611ebc8982611fe7565b85526020850194506020840193505050600181019050611e90565b5050509392505050565b6000611ef4611eef84612938565b6128bb565b905082815260208101848484011115611f0c57600080fd5b611f17848285612a91565b509392505050565b600081359050611f2e81612f2f565b92915050565b60008083601f840112611f4657600080fd5b8235905067ffffffffffffffff811115611f5f57600080fd5b602083019150836020820283011115611f7757600080fd5b9250929050565b600082601f830112611f8f57600080fd5b8135611f9f848260208601611def565b91505092915050565b600082601f830112611fb957600080fd5b8135611fc9848260208601611e5b565b91505092915050565b600081359050611fe181612f46565b92915050565b600082601f830112611ff857600080fd5b8135612008848260208601611ee1565b91505092915050565b60008135905061202081612f5d565b92915050565b60006020828403121561203857600080fd5b600061204684828501611f1f565b91505092915050565b6000806040838503121561206257600080fd5b600083013567ffffffffffffffff81111561207c57600080fd5b61208885828601611f7e565b925050602061209985828601611fd2565b9150509250929050565b600080604083850312156120b657600080fd5b600083013567ffffffffffffffff8111156120d057600080fd5b6120dc85828601611fa8565b925050602083013567ffffffffffffffff8111156120f957600080fd5b61210585828601611fa8565b9150509250929050565b60006020828403121561212157600080fd5b600061212f84828501612011565b91505092915050565b60008060006040848603121561214d57600080fd5b600061215b86828701612011565b935050602084013567ffffffffffffffff81111561217857600080fd5b61218486828701611f34565b92509250509250925092565b600061219c838361252b565b905092915050565b60006121b0838361257b565b60208301905092915050565b6121c581612a3f565b82525050565b6121dc6121d782612a3f565b612b99565b82525050565b60006121ed8261299e565b6121f781856129f1565b93508360208202850161220985612969565b8060005b8581101561224557848403895281516122268582612190565b9450612231836129ca565b925060208a0199505060018101905061220d565b50829750879550505050505092915050565b6000612262826129a9565b61226c8185612a02565b935061227783612979565b8060005b838110156122a857815161228f88826121a4565b975061229a836129d7565b92505060018101905061227b565b5085935050505092915050565b60006122c0826129b4565b6122ca8185612a02565b93506122d583612989565b8060005b8381101561230d576122ea82612c4a565b6122f488826121a4565b97506122ff836129e4565b9250506001810190506122d9565b5085935050505092915050565b61232381612a51565b82525050565b61233281612a5d565b82525050565b6000612343826129bf565b61234d8185612a13565b935061235d818560208601612aa0565b61236681612c5d565b840191505092915050565b600061237c826129bf565b6123868185612a24565b9350612396818560208601612aa0565b61239f81612c5d565b840191505092915050565b60006123b7601483612a24565b91506123c282612c88565b602082019050919050565b60006123da602e83612a24565b91506123e582612cb1565b604082019050919050565b60006123fd602d83612a24565b915061240882612d00565b604082019050919050565b6000612420601083612a24565b915061242b82612d4f565b602082019050919050565b6000612443603083612a24565b915061244e82612d78565b604082019050919050565b6000612466602183612a24565b915061247182612dc7565b604082019050919050565b6000612489601e83612a24565b915061249482612e16565b602082019050919050565b60006124ac601a83612a24565b91506124b782612e3f565b602082019050919050565b60006124cf602483612a24565b91506124da82612e68565b604082019050919050565b60006124f2601883612a24565b91506124fd82612eb7565b602082019050919050565b6000612515602d83612a24565b915061252082612ee0565b604082019050919050565b6000606083016000830151612543600086018261257b565b506020830151848203602086015261255b8282612338565b9150506040830151612570604086018261257b565b508091505092915050565b61258481612a87565b82525050565b61259381612a87565b82525050565b60006125a582846121cb565b60148201915081905092915050565b60006020820190506125c960008301846121bc565b92915050565b600060208201905081810360008301526125e981846121e2565b905092915050565b6000604082019050818103600083015261260b81856122b5565b905061261a602083018461258a565b9392505050565b6000602082019050612636600083018461231a565b92915050565b60006020820190506126516000830184612329565b92915050565b600060208201905081810360008301526126718184612371565b905092915050565b60006020820190508181036000830152612692816123aa565b9050919050565b600060208201905081810360008301526126b2816123cd565b9050919050565b600060208201905081810360008301526126d2816123f0565b9050919050565b600060208201905081810360008301526126f281612413565b9050919050565b6000602082019050818103600083015261271281612436565b9050919050565b6000602082019050818103600083015261273281612459565b9050919050565b600060208201905081810360008301526127528161247c565b9050919050565b600060208201905081810360008301526127728161249f565b9050919050565b60006020820190508181036000830152612792816124c2565b9050919050565b600060208201905081810360008301526127b2816124e5565b9050919050565b600060208201905081810360008301526127d281612508565b9050919050565b60006020820190506127ee600083018461258a565b92915050565b6000604082019050612809600083018561258a565b818103602083015261281b8184612257565b90509392505050565b6000604082019050612839600083018561258a565b818103602083015261284b8184612371565b90509392505050565b6000606082019050612869600083018661258a565b818103602083015261287b8185612371565b905061288a604083018461258a565b949350505050565b60006040820190506128a7600083018561258a565b6128b4602083018461258a565b9392505050565b60006128c56128d6565b90506128d18282612b1f565b919050565b6000604051905090565b600067ffffffffffffffff8211156128fb576128fa612c1b565b5b602082029050602081019050919050565b600067ffffffffffffffff82111561292757612926612c1b565b5b602082029050602081019050919050565b600067ffffffffffffffff82111561295357612952612c1b565b5b61295c82612c5d565b9050602081019050919050565b6000819050602082019050919050565b6000819050602082019050919050565b60008190508160005260206000209050919050565b600081519050919050565b600081519050919050565b600081549050919050565b600081519050919050565b6000602082019050919050565b6000602082019050919050565b6000600182019050919050565b600082825260208201905092915050565b600082825260208201905092915050565b600082825260208201905092915050565b600082825260208201905092915050565b6000819050919050565b6000612a4a82612a67565b9050919050565b60008115159050919050565b6000819050919050565b600073ffffffffffffffffffffffffffffffffffffffff82169050919050565b6000819050919050565b82818337600083830152505050565b60005b83811015612abe578082015181840152602081019050612aa3565b83811115612acd576000848401525b50505050565b60006002820490506001821680612aeb57607f821691505b60208210811415612aff57612afe612bec565b5b50919050565b6000612b18612b1383612c7b565b612a35565b9050919050565b612b2882612c5d565b810181811067ffffffffffffffff82111715612b4757612b46612c1b565b5b80604052505050565b6000612b5b82612a87565b91507fffffffffffffffffffffffffffffffffffffffffffffffffffffffffffffffff821415612b8e57612b8d612bbd565b5b600182019050919050565b6000612ba482612bab565b9050919050565b6000612bb682612c6e565b9050919050565b7f4e487b7100000000000000000000000000000000000000000000000000000000600052601160045260246000fd5b7f4e487b7100000000000000000000000000000000000000000000000000000000600052602260045260246000fd5b7f4e487b7100000000000000000000000000000000000000000000000000000000600052604160045260246000fd5b6000612c568254612b05565b9050919050565b6000601f19601f8301169050919050565b60008160601b9050919050565b60008160001c9050919050565b7f5061757361626c653a206e6f7420706175736564000000000000000000000000600082015250565b7f6f6e6c792074656163686572732f63686169726d616e2063616e206d616b652060008201527f726573756c7473207075626c6963000000000000000000000000000000000000602082015250565b7f6f6e6c792074656163686572732f63686169726d616e2063616e2063616c6c2060008201527f746869732066756e6374696f6e00000000000000000000000000000000000000602082015250565b7f5061757361626c653a2070617573656400000000000000000000000000000000600082015250565b7f506c6561736520636865636b206261636b2c2074686520656c656374696f6e2060008201527f686173206e6f7420737461727465642100000000000000000000000000000000602082015250565b7f61746c65617374206f6e6520706572736f6e2073686f756c6420636f6e74657360008201527f7400000000000000000000000000000000000000000000000000000000000000602082015250565b7f536f7272792c2074686520456c656374696f6e2068617320656e646564210000600082015250565b7f496e76616c69642063616e64696461746520746f20566f746521000000000000600082015250565b7f6f6e6c792063686169726d616e2063616e2063616c6c20746869732066756e6360008201527f74696f6e00000000000000000000000000000000000000000000000000000000602082015250565b7f566f7465722068617320616c726561647920566f746564210000000000000000600082015250565b7f736f7272792c206f6e6c79207374616b65686f6c646572732061726520656c6960008201527f6769626c6520746f20766f746500000000000000000000000000000000000000602082015250565b612f3881612a3f565b8114612f4357600080fd5b50565b612f4f81612a5d565b8114612f5a57600080fd5b50565b612f6681612a87565b8114612f7157600080fd5b5056fea26469706673582212203badbb725d8e8b8c3d1c0222f2c22081b4d109d818da7f43c8e524f3058921ce64736f6c63430008040033",
  "linkReferences": {},
  "deployedLinkReferences": {}
}