{
  "_format": "hh-sol-artifact-1",
  "contractName": "ZuriElection",
  "sourceName": "contracts/ZuriElection.sol",
  "abi": [
    {
      "inputs": [
        {
          "internalType": "bytes32",
          "name": "merkleRoot",
          "type": "bytes32"
        }
      ],
      "stateMutability": "nonpayable",
      "type": "constructor"
    },
    {
      "inputs": [],
      "name": "ElectionHasEnded",
      "type": "error"
    },
    {
      "inputs": [],
      "name": "ElectionNotStarted",
      "type": "error"
    },
    {
      "anonymous": false,
      "inputs": [
        {
          "indexed": false,
          "internalType": "uint256",
          "name": "_candidateId",
          "type": "uint256"
        },
        {
          "indexed": false,
          "internalType": "string",
          "name": "_candidateName",
          "type": "string"
        }
      ],
      "name": "CandidateCreated",
      "type": "event"
    },
    {
      "anonymous": false,
      "inputs": [
        {
          "indexed": false,
          "internalType": "uint256",
          "name": "_winnerId",
          "type": "uint256"
        },
        {
          "indexed": false,
          "internalType": "uint256",
          "name": "_winnerVoteCount",
          "type": "uint256"
        }
      ],
      "name": "ElectionEnded",
      "type": "event"
    },
    {
      "anonymous": false,
      "inputs": [
        {
          "indexed": false,
          "internalType": "address",
          "name": "account",
          "type": "address"
        }
      ],
      "name": "Paused",
      "type": "event"
    },
    {
      "anonymous": false,
      "inputs": [
        {
          "indexed": false,
          "internalType": "address",
          "name": "account",
          "type": "address"
        }
      ],
      "name": "Unpaused",
      "type": "event"
    },
    {
      "anonymous": false,
      "inputs": [
        {
          "indexed": false,
          "internalType": "uint256",
          "name": "_candidateId",
          "type": "uint256"
        },
        {
          "indexed": false,
          "internalType": "uint256",
          "name": "_candidateVoteCount",
          "type": "uint256"
        }
      ],
      "name": "VoteForCandidate",
      "type": "event"
    },
    {
      "inputs": [],
      "name": "Active",
      "outputs": [
        {
          "internalType": "bool",
          "name": "",
          "type": "bool"
        }
      ],
      "stateMutability": "view",
      "type": "function"
    },
    {
      "inputs": [],
      "name": "Created",
      "outputs": [
        {
          "internalType": "bool",
          "name": "",
          "type": "bool"
        }
      ],
      "stateMutability": "view",
      "type": "function"
    },
    {
      "inputs": [],
      "name": "Ended",
      "outputs": [
        {
          "internalType": "bool",
          "name": "",
          "type": "bool"
        }
      ],
      "stateMutability": "view",
      "type": "function"
    },
    {
      "inputs": [
        {
          "internalType": "string",
          "name": "_name",
          "type": "string"
        },
        {
          "internalType": "string",
          "name": "_candidateHash",
          "type": "string"
        },
        {
          "internalType": "string",
          "name": "_candidateManifesto",
          "type": "string"
        }
      ],
      "name": "addCandidate",
      "outputs": [],
      "stateMutability": "nonpayable",
      "type": "function"
    },
    {
      "inputs": [
        {
          "internalType": "address",
          "name": "_newTeacher",
          "type": "address"
        }
      ],
      "name": "addTeacher",
      "outputs": [],
      "stateMutability": "nonpayable",
      "type": "function"
    },
    {
      "inputs": [
        {
          "internalType": "uint256",
          "name": "",
          "type": "uint256"
        }
      ],
      "name": "candidates",
      "outputs": [
        {
          "internalType": "uint256",
          "name": "id",
          "type": "uint256"
        },
        {
          "internalType": "string",
          "name": "name",
          "type": "string"
        },
        {
          "internalType": "string",
          "name": "candidateHash",
          "type": "string"
        },
        {
          "internalType": "string",
          "name": "candidateManifesto",
          "type": "string"
        },
        {
          "internalType": "uint256",
          "name": "voteCount",
          "type": "uint256"
        }
      ],
      "stateMutability": "view",
      "type": "function"
    },
    {
      "inputs": [],
      "name": "candidatesCount",
      "outputs": [
        {
          "internalType": "uint256",
          "name": "",
          "type": "uint256"
        }
      ],
      "stateMutability": "view",
      "type": "function"
    },
    {
      "inputs": [],
      "name": "chairman",
      "outputs": [
        {
          "internalType": "address",
          "name": "",
          "type": "address"
        }
      ],
      "stateMutability": "view",
      "type": "function"
    },
    {
      "inputs": [
        {
          "internalType": "address",
          "name": "_newChairman",
          "type": "address"
        }
      ],
      "name": "changeChairman",
      "outputs": [],
      "stateMutability": "nonpayable",
      "type": "function"
    },
    {
      "inputs": [],
      "name": "closeElection",
      "outputs": [],
      "stateMutability": "nonpayable",
      "type": "function"
    },
    {
      "inputs": [],
      "name": "description",
      "outputs": [
        {
          "internalType": "string",
          "name": "",
          "type": "string"
        }
      ],
      "stateMutability": "view",
      "type": "function"
    },
    {
      "inputs": [],
      "name": "endElection",
      "outputs": [],
      "stateMutability": "nonpayable",
      "type": "function"
    },
    {
      "inputs": [],
      "name": "getCandidates",
      "outputs": [
        {
          "components": [
            {
              "internalType": "uint256",
              "name": "id",
              "type": "uint256"
            },
            {
              "internalType": "string",
              "name": "name",
              "type": "string"
            },
            {
              "internalType": "string",
              "name": "candidateHash",
              "type": "string"
            },
            {
              "internalType": "string",
              "name": "candidateManifesto",
              "type": "string"
            },
            {
              "internalType": "uint256",
              "name": "voteCount",
              "type": "uint256"
            }
          ],
          "internalType": "struct ZuriElection.Candidate[]",
          "name": "",
          "type": "tuple[]"
        }
      ],
      "stateMutability": "view",
      "type": "function"
    },
    {
      "inputs": [],
      "name": "getWinner",
      "outputs": [
        {
          "internalType": "uint256",
          "name": "",
          "type": "uint256"
        },
        {
          "internalType": "uint256",
          "name": "",
          "type": "uint256"
        }
      ],
      "stateMutability": "view",
      "type": "function"
    },
    {
      "inputs": [],
      "name": "getWinners",
      "outputs": [
        {
          "components": [
            {
              "internalType": "string",
              "name": "position",
              "type": "string"
            },
            {
              "internalType": "string",
              "name": "description",
              "type": "string"
            },
            {
              "components": [
                {
                  "internalType": "uint256",
                  "name": "id",
                  "type": "uint256"
                },
                {
                  "internalType": "string",
                  "name": "name",
                  "type": "string"
                },
                {
                  "internalType": "string",
                  "name": "candidateHash",
                  "type": "string"
                },
                {
                  "internalType": "string",
                  "name": "candidateManifesto",
                  "type": "string"
                },
                {
                  "internalType": "uint256",
                  "name": "voteCount",
                  "type": "uint256"
                }
              ],
              "internalType": "struct ZuriElection.Candidate",
              "name": "winner",
              "type": "tuple"
            }
          ],
          "internalType": "struct ZuriElection.Election[]",
          "name": "",
          "type": "tuple[]"
        }
      ],
      "stateMutability": "view",
      "type": "function"
    },
    {
      "inputs": [],
      "name": "isChairman",
      "outputs": [
        {
          "internalType": "bool",
          "name": "",
          "type": "bool"
        }
      ],
      "stateMutability": "view",
      "type": "function"
    },
    {
      "inputs": [],
      "name": "isCreated",
      "outputs": [
        {
          "internalType": "bool",
          "name": "",
          "type": "bool"
        }
      ],
      "stateMutability": "view",
      "type": "function"
    },
    {
      "inputs": [],
      "name": "isEnded",
      "outputs": [
        {
          "internalType": "bool",
          "name": "",
          "type": "bool"
        }
      ],
      "stateMutability": "view",
      "type": "function"
    },
    {
      "inputs": [],
      "name": "isStarted",
      "outputs": [
        {
          "internalType": "bool",
          "name": "",
          "type": "bool"
        }
      ],
      "stateMutability": "view",
      "type": "function"
    },
    {
      "inputs": [],
      "name": "isTeacher",
      "outputs": [
        {
          "internalType": "bool",
          "name": "",
          "type": "bool"
        }
      ],
      "stateMutability": "view",
      "type": "function"
    },
    {
      "inputs": [
        {
          "internalType": "bytes32[]",
          "name": "proof",
          "type": "bytes32[]"
        },
        {
          "internalType": "bytes32",
          "name": "leaf",
          "type": "bytes32"
        }
      ],
      "name": "isValid",
      "outputs": [
        {
          "internalType": "bool",
          "name": "",
          "type": "bool"
        }
      ],
      "stateMutability": "view",
      "type": "function"
    },
    {
      "inputs": [],
      "name": "makeResultPublic",
      "outputs": [],
      "stateMutability": "nonpayable",
      "type": "function"
    },
    {
      "inputs": [],
      "name": "pause",
      "outputs": [],
      "stateMutability": "nonpayable",
      "type": "function"
    },
    {
      "inputs": [],
      "name": "paused",
      "outputs": [
        {
          "internalType": "bool",
          "name": "",
          "type": "bool"
        }
      ],
      "stateMutability": "view",
      "type": "function"
    },
    {
      "inputs": [],
      "name": "position",
      "outputs": [
        {
          "internalType": "string",
          "name": "",
          "type": "string"
        }
      ],
      "stateMutability": "view",
      "type": "function"
    },
    {
      "inputs": [
        {
          "internalType": "address",
          "name": "_teacher",
          "type": "address"
        }
      ],
      "name": "removeTeacher",
      "outputs": [],
      "stateMutability": "nonpayable",
      "type": "function"
    },
    {
      "inputs": [],
      "name": "root",
      "outputs": [
        {
          "internalType": "bytes32",
          "name": "",
          "type": "bytes32"
        }
      ],
      "stateMutability": "view",
      "type": "function"
    },
    {
      "inputs": [
        {
          "internalType": "string[]",
          "name": "_prop",
          "type": "string[]"
        }
      ],
      "name": "setUpElection",
      "outputs": [],
      "stateMutability": "nonpayable",
      "type": "function"
    },
    {
      "inputs": [],
      "name": "startElection",
      "outputs": [],
      "stateMutability": "nonpayable",
      "type": "function"
    },
    {
      "inputs": [],
      "name": "startTimer",
      "outputs": [
        {
          "internalType": "uint256",
          "name": "",
          "type": "uint256"
        }
      ],
      "stateMutability": "view",
      "type": "function"
    },
    {
      "inputs": [
        {
          "internalType": "address",
          "name": "",
          "type": "address"
        }
      ],
      "name": "teachers",
      "outputs": [
        {
          "internalType": "bool",
          "name": "",
          "type": "bool"
        }
      ],
      "stateMutability": "view",
      "type": "function"
    },
    {
      "inputs": [],
      "name": "unpause",
      "outputs": [],
      "stateMutability": "nonpayable",
      "type": "function"
    },
    {
      "inputs": [
        {
          "internalType": "uint256",
          "name": "_candidateId",
          "type": "uint256"
        },
        {
          "internalType": "bytes32[]",
          "name": "hexProof",
          "type": "bytes32[]"
        }
      ],
      "name": "vote",
      "outputs": [],
      "stateMutability": "nonpayable",
      "type": "function"
    },
    {
      "inputs": [
        {
          "internalType": "address",
          "name": "",
          "type": "address"
        }
      ],
      "name": "voted",
      "outputs": [
        {
          "internalType": "bool",
          "name": "",
          "type": "bool"
        }
      ],
      "stateMutability": "view",
      "type": "function"
    },
    {
      "inputs": [],
      "name": "winnerId",
      "outputs": [
        {
          "internalType": "uint256",
          "name": "",
          "type": "uint256"
        }
      ],
      "stateMutability": "view",
      "type": "function"
    },
    {
      "inputs": [],
      "name": "winnerVoteCount",
      "outputs": [
        {
          "internalType": "uint256",
          "name": "",
          "type": "uint256"
        }
      ],
      "stateMutability": "view",
      "type": "function"
    },
    {
      "inputs": [
        {
          "internalType": "uint256",
          "name": "",
          "type": "uint256"
        }
      ],
      "name": "winners",
      "outputs": [
        {
          "internalType": "string",
          "name": "position",
          "type": "string"
        },
        {
          "internalType": "string",
          "name": "description",
          "type": "string"
        },
        {
          "components": [
            {
              "internalType": "uint256",
              "name": "id",
              "type": "uint256"
            },
            {
              "internalType": "string",
              "name": "name",
              "type": "string"
            },
            {
              "internalType": "string",
              "name": "candidateHash",
              "type": "string"
            },
            {
              "internalType": "string",
              "name": "candidateManifesto",
              "type": "string"
            },
            {
              "internalType": "uint256",
              "name": "voteCount",
              "type": "uint256"
            }
          ],
          "internalType": "struct ZuriElection.Candidate",
          "name": "winner",
          "type": "tuple"
        }
      ],
      "stateMutability": "view",
      "type": "function"
    }
  ],
  "bytecode": "0x60806040523480156200001157600080fd5b50604051620046563803806200465683398181016040528101906200003791906200012b565b60008060006101000a81548160ff02191690831515021790555033600060016101000a81548173ffffffffffffffffffffffffffffffffffffffff021916908373ffffffffffffffffffffffffffffffffffffffff1602179055506000600d60006101000a81548160ff0219169083151502179055506000600d60016101000a81548160ff0219169083151502179055506000600d60026101000a81548160ff0219169083151502179055506000600481905550806003819055506000600d60036101000a81548160ff021916908315150217905550506200017b565b600081519050620001258162000161565b92915050565b6000602082840312156200013e57600080fd5b60006200014e8482850162000114565b91505092915050565b6000819050919050565b6200016c8162000157565b81146200017857600080fd5b50565b6144cb806200018b6000396000f3fe608060405234801561001057600080fd5b50600436106102275760003560e01c80638e7ea5b211610130578063b8a20ed0116100b8578063e81018691161007c578063e8101869146105bb578063ebf0c717146105d7578063f0a47f78146105f5578063f51b41d214610625578063fd27419b1461064357610227565b8063b8a20ed014610515578063c64a4bad14610545578063c9b0a2a714610563578063d1e53b8a14610581578063df15c37e1461059d57610227565b8063a2fb1175116100ff578063a2fb11751461045b578063a39f74491461048d578063a4fd6f56146104ab578063ad71f8dc146104c9578063aec2ccae146104e557610227565b80638e7ea5b2146103f657806391e0d5931461041557806395adfc5e146104335780639adeddf81461043d57610227565b8063544736e6116101b35780636c6c32d0116101825780636c6c32d0146103885780637284e416146103925780638456cb59146103b057806386174396146103ba57806387f7b975146103d857610227565b8063544736e61461033857806359f78468146103565780635c975abb1461036057806362d73eb81461037e57610227565b80633477ee2e116101fa5780633477ee2e146102a45780633bc6e309146102d85780633f4ba83a146102f4578063477383f3146102fe57806352ff68461461031c57610227565b806306a49fce1461022c57806309218e911461024a5780632d35a8a2146102685780632f22850d14610286575b600080fd5b61023461065f565b6040516102419190613a28565b60405180910390f35b61025261093b565b60405161025f9190613aa2565b60405180910390f35b6102706109c9565b60405161027d9190613cd0565b60405180910390f35b61028e6109cf565b60405161029b9190613cd0565b60405180910390f35b6102be60048036038101906102b9919061343b565b6109d5565b6040516102cf959493929190613d1b565b60405180910390f35b6102f260048036038101906102ed91906132e6565b610ba3565b005b6102fc610d31565b005b610306610e09565b6040516103139190613a6c565b60405180910390f35b610336600480360381019061033191906132e6565b610e1c565b005b610340610faa565b60405161034d9190613a6c565b60405180910390f35b61035e610fc1565b005b6103686110fd565b6040516103759190613a6c565b60405180910390f35b610386611113565b005b610390611208565b005b61039a611372565b6040516103a79190613aa2565b60405180910390f35b6103b8611400565b005b6103c26114d8565b6040516103cf9190613a6c565b60405180910390f35b6103e06114ef565b6040516103ed9190613a0d565b60405180910390f35b6103fe611515565b60405161040c929190613d83565b60405180910390f35b61041d611575565b60405161042a9190613cd0565b60405180910390f35b61043b61157b565b005b6104456116d2565b6040516104529190613a6c565b60405180910390f35b6104756004803603810190610470919061343b565b6116e5565b60405161048493929190613ac4565b60405180910390f35b6104956119f3565b6040516104a29190613cd0565b60405180910390f35b6104b36119f9565b6040516104c09190613a6c565b60405180910390f35b6104e360048036038101906104de91906133a4565b611a10565b005b6104ff60048036038101906104fa91906132e6565b611c98565b60405161050c9190613a6c565b60405180910390f35b61052f600480360381019061052a919061330f565b611cb8565b60405161053c9190613a6c565b60405180910390f35b61054d611ccf565b60405161055a9190613a6c565b60405180910390f35b61056b611d23565b6040516105789190613a6c565b60405180910390f35b61059b60048036038101906105969190613363565b611d36565b005b6105a5611fe3565b6040516105b29190613a4a565b60405180910390f35b6105d560048036038101906105d091906132e6565b6123f7565b005b6105df612513565b6040516105ec9190613a87565b60405180910390f35b61060f600480360381019061060a91906132e6565b612519565b60405161061c9190613a6c565b60405180910390f35b61062d612539565b60405161063a9190613a6c565b60405180910390f35b61065d60048036038101906106589190613464565b612591565b005b6060600060045467ffffffffffffffff8111156106a5577f4e487b7100000000000000000000000000000000000000000000000000000000600052604160045260246000fd5b6040519080825280602002602001820160405280156106de57816020015b6106cb612fb6565b8152602001906001900390816106c35790505b50905060005b600454811015610933576000600960008381526020019081526020016000209050806040518060a00160405290816000820154815260200160018201805461072b90613f8d565b80601f016020809104026020016040519081016040528092919081815260200182805461075790613f8d565b80156107a45780601f10610779576101008083540402835291602001916107a4565b820191906000526020600020905b81548152906001019060200180831161078757829003601f168201915b505050505081526020016002820180546107bd90613f8d565b80601f01602080910402602001604051908101604052809291908181526020018280546107e990613f8d565b80156108365780601f1061080b57610100808354040283529160200191610836565b820191906000526020600020905b81548152906001019060200180831161081957829003601f168201915b5050505050815260200160038201805461084f90613f8d565b80601f016020809104026020016040519081016040528092919081815260200182805461087b90613f8d565b80156108c85780601f1061089d576101008083540402835291602001916108c8565b820191906000526020600020905b8154815290600101906020018083116108ab57829003601f168201915b50505050508152602001600482015481525050838381518110610914577f4e487b7100000000000000000000000000000000000000000000000000000000600052603260045260246000fd5b602002602001018190525050808061092b90613ff0565b9150506106e4565b508091505090565b6001805461094890613f8d565b80601f016020809104026020016040519081016040528092919081815260200182805461097490613f8d565b80156109c15780601f10610996576101008083540402835291602001916109c1565b820191906000526020600020905b8154815290600101906020018083116109a457829003601f168201915b505050505081565b60045481565b600c5481565b60096020528060005260406000206000915090508060000154908060010180546109fe90613f8d565b80601f0160208091040260200160405190810160405280929190818152602001828054610a2a90613f8d565b8015610a775780601f10610a4c57610100808354040283529160200191610a77565b820191906000526020600020905b815481529060010190602001808311610a5a57829003601f168201915b505050505090806002018054610a8c90613f8d565b80601f0160208091040260200160405190810160405280929190818152602001828054610ab890613f8d565b8015610b055780601f10610ada57610100808354040283529160200191610b05565b820191906000526020600020905b815481529060010190602001808311610ae857829003601f168201915b505050505090806003018054610b1a90613f8d565b80601f0160208091040260200160405190810160405280929190818152602001828054610b4690613f8d565b8015610b935780601f10610b6857610100808354040283529160200191610b93565b820191906000526020600020905b815481529060010190602001808311610b7657829003601f168201915b5050505050908060040154905085565b610bab6110fd565b15610beb576040517f08c379a0000000000000000000000000000000000000000000000000000000008152600401610be290613bb0565b60405180910390fd5b3373ffffffffffffffffffffffffffffffffffffffff16600060019054906101000a900473ffffffffffffffffffffffffffffffffffffffff1673ffffffffffffffffffffffffffffffffffffffff161480610c97575060011515600760003373ffffffffffffffffffffffffffffffffffffffff1673ffffffffffffffffffffffffffffffffffffffff16815260200190815260200160002060009054906101000a900460ff161515145b610cd6576040517f08c379a0000000000000000000000000000000000000000000000000000000008152600401610ccd90613b90565b60405180910390fd5b6001600760008373ffffffffffffffffffffffffffffffffffffffff1673ffffffffffffffffffffffffffffffffffffffff16815260200190815260200160002060006101000a81548160ff02191690831515021790555050565b600060019054906101000a900473ffffffffffffffffffffffffffffffffffffffff1673ffffffffffffffffffffffffffffffffffffffff163373ffffffffffffffffffffffffffffffffffffffff1614610dc1576040517f08c379a0000000000000000000000000000000000000000000000000000000008152600401610db890613c50565b60405180910390fd5b610dc96126ef565b7f5db9ee0a495bf2e6ff9c91a7834c1ba4fdd244a5e8aa4e537bd38aeae4b073aa610df2612790565b604051610dff9190613a0d565b60405180910390a1565b600d60019054906101000a900460ff1681565b610e246110fd565b15610e64576040517f08c379a0000000000000000000000000000000000000000000000000000000008152600401610e5b90613bb0565b60405180910390fd5b3373ffffffffffffffffffffffffffffffffffffffff16600060019054906101000a900473ffffffffffffffffffffffffffffffffffffffff1673ffffffffffffffffffffffffffffffffffffffff161480610f10575060011515600760003373ffffffffffffffffffffffffffffffffffffffff1673ffffffffffffffffffffffffffffffffffffffff16815260200190815260200160002060009054906101000a900460ff161515145b610f4f576040517f08c379a0000000000000000000000000000000000000000000000000000000008152600401610f4690613b90565b60405180910390fd5b6000600760008373ffffffffffffffffffffffffffffffffffffffff1673ffffffffffffffffffffffffffffffffffffffff16815260200190815260200160002060006101000a81548160ff02191690831515021790555050565b6000600d60009054906101000a900460ff16905090565b610fc96110fd565b15611009576040517f08c379a000000000000000000000000000000000000000000000000000000000815260040161100090613bb0565b60405180910390fd5b600060019054906101000a900473ffffffffffffffffffffffffffffffffffffffff1673ffffffffffffffffffffffffffffffffffffffff163373ffffffffffffffffffffffffffffffffffffffff1614611099576040517f08c379a000000000000000000000000000000000000000000000000000000000815260040161109090613c50565b60405180910390fd5b6001600d60016101000a81548160ff0219169083151502179055506110bc612798565b50507f32e2c12037f9600b91a766ce53eab6909f3bdb865851cd9a8c7fafbdf249a9ce600a54600c546040516110f3929190613d83565b60405180910390a1565b60008060009054906101000a900460ff16905090565b61111b6110fd565b1561115b576040517f08c379a000000000000000000000000000000000000000000000000000000000815260040161115290613bb0565b60405180910390fd5b600060019054906101000a900473ffffffffffffffffffffffffffffffffffffffff1673ffffffffffffffffffffffffffffffffffffffff163373ffffffffffffffffffffffffffffffffffffffff16146111eb576040517f08c379a00000000000000000000000000000000000000000000000000000000081526004016111e290613c50565b60405180910390fd5b6001600d60006101000a81548160ff021916908315150217905550565b600060019054906101000a900473ffffffffffffffffffffffffffffffffffffffff1673ffffffffffffffffffffffffffffffffffffffff163373ffffffffffffffffffffffffffffffffffffffff1614611298576040517f08c379a000000000000000000000000000000000000000000000000000000000815260040161128f90613c50565b60405180910390fd5b6000600d60026101000a81548160ff02191690831515021790555033600060016101000a81548173ffffffffffffffffffffffffffffffffffffffff021916908373ffffffffffffffffffffffffffffffffffffffff1602179055506000600d60006101000a81548160ff0219169083151502179055506000600d60016101000a81548160ff0219169083151502179055506000600d60026101000a81548160ff02191690831515021790555060006004819055506000600d60036101000a81548160ff0219169083151502179055506000600c81905550565b6002805461137f90613f8d565b80601f01602080910402602001604051908101604052809291908181526020018280546113ab90613f8d565b80156113f85780601f106113cd576101008083540402835291602001916113f8565b820191906000526020600020905b8154815290600101906020018083116113db57829003601f168201915b505050505081565b600060019054906101000a900473ffffffffffffffffffffffffffffffffffffffff1673ffffffffffffffffffffffffffffffffffffffff163373ffffffffffffffffffffffffffffffffffffffff1614611490576040517f08c379a000000000000000000000000000000000000000000000000000000000815260040161148790613c50565b60405180910390fd5b611498612c4c565b7f62e78cea01bee320cd4e420270b5ea74000d11b0c9f74754ebdbfc544b05a2586114c1612790565b6040516114ce9190613a0d565b60405180910390a1565b6000600d60029054906101000a900460ff16905090565b600060019054906101000a900473ffffffffffffffffffffffffffffffffffffffff1681565b600080600d60039054906101000a900460ff16611567576040517f08c379a000000000000000000000000000000000000000000000000000000000815260040161155e90613c90565b60405180910390fd5b600c54600a54915091509091565b600a5481565b600d60019054906101000a900460ff166115ca576040517f08c379a00000000000000000000000000000000000000000000000000000000081526004016115c190613b30565b60405180910390fd5b3373ffffffffffffffffffffffffffffffffffffffff16600060019054906101000a900473ffffffffffffffffffffffffffffffffffffffff1673ffffffffffffffffffffffffffffffffffffffff161480611676575060011515600760003373ffffffffffffffffffffffffffffffffffffffff1673ffffffffffffffffffffffffffffffffffffffff16815260200190815260200160002060009054906101000a900460ff161515145b6116b5576040517f08c379a00000000000000000000000000000000000000000000000000000000081526004016116ac90613b70565b60405180910390fd5b6001600d60036101000a81548160ff021916908315150217905550565b600d60029054906101000a900460ff1681565b600b60205280600052604060002060009150905080600001805461170890613f8d565b80601f016020809104026020016040519081016040528092919081815260200182805461173490613f8d565b80156117815780601f1061175657610100808354040283529160200191611781565b820191906000526020600020905b81548152906001019060200180831161176457829003601f168201915b50505050509080600101805461179690613f8d565b80601f01602080910402602001604051908101604052809291908181526020018280546117c290613f8d565b801561180f5780601f106117e45761010080835404028352916020019161180f565b820191906000526020600020905b8154815290600101906020018083116117f257829003601f168201915b505050505090806002016040518060a00160405290816000820154815260200160018201805461183e90613f8d565b80601f016020809104026020016040519081016040528092919081815260200182805461186a90613f8d565b80156118b75780601f1061188c576101008083540402835291602001916118b7565b820191906000526020600020905b81548152906001019060200180831161189a57829003601f168201915b505050505081526020016002820180546118d090613f8d565b80601f01602080910402602001604051908101604052809291908181526020018280546118fc90613f8d565b80156119495780601f1061191e57610100808354040283529160200191611949565b820191906000526020600020905b81548152906001019060200180831161192c57829003601f168201915b5050505050815260200160038201805461196290613f8d565b80601f016020809104026020016040519081016040528092919081815260200182805461198e90613f8d565b80156119db5780601f106119b0576101008083540402835291602001916119db565b820191906000526020600020905b8154815290600101906020018083116119be57829003601f168201915b50505050508152602001600482015481525050905083565b60065481565b6000600d60019054906101000a900460ff16905090565b611a186110fd565b15611a58576040517f08c379a0000000000000000000000000000000000000000000000000000000008152600401611a4f90613bb0565b60405180910390fd5b600d60009054906101000a900460ff1615611aa8576040517f08c379a0000000000000000000000000000000000000000000000000000000008152600401611a9f90613b50565b60405180910390fd5b3373ffffffffffffffffffffffffffffffffffffffff16600060019054906101000a900473ffffffffffffffffffffffffffffffffffffffff1673ffffffffffffffffffffffffffffffffffffffff161480611b54575060011515600760003373ffffffffffffffffffffffffffffffffffffffff1673ffffffffffffffffffffffffffffffffffffffff16815260200190815260200160002060009054906101000a900460ff161515145b611b93576040517f08c379a0000000000000000000000000000000000000000000000000000000008152600401611b8a90613b90565b60405180910390fd5b6040518060a0016040528060045481526020018481526020018381526020018281526020016000815250600960006004548152602001908152602001600020600082015181600001556020820151816001019080519060200190611bf8929190612fe5565b506040820151816002019080519060200190611c15929190612fe5565b506060820151816003019080519060200190611c32929190612fe5565b50608082015181600401559050507f78d27a3c512303f604b46bc28acc0ca45abe6420172a017c5a6dc585821eb63960045484604051611c73929190613ceb565b60405180910390a160046000815480929190611c8e90613ff0565b9190505550505050565b60086020528060005260406000206000915054906101000a900460ff1681565b6000611cc78360035484612cee565b905092915050565b6000600760003373ffffffffffffffffffffffffffffffffffffffff1673ffffffffffffffffffffffffffffffffffffffff16815260200190815260200160002060009054906101000a900460ff16905090565b600d60009054906101000a900460ff1681565b611d3e6110fd565b15611d7e576040517f08c379a0000000000000000000000000000000000000000000000000000000008152600401611d7590613bb0565b60405180910390fd5b600d60009054906101000a900460ff1615611dce576040517f08c379a0000000000000000000000000000000000000000000000000000000008152600401611dc590613b50565b60405180910390fd5b6000815111611e12576040517f08c379a0000000000000000000000000000000000000000000000000000000008152600401611e0990613bf0565b60405180910390fd5b3373ffffffffffffffffffffffffffffffffffffffff16600060019054906101000a900473ffffffffffffffffffffffffffffffffffffffff1673ffffffffffffffffffffffffffffffffffffffff161480611ebe575060011515600760003373ffffffffffffffffffffffffffffffffffffffff1673ffffffffffffffffffffffffffffffffffffffff16815260200190815260200160002060009054906101000a900460ff161515145b611efd576040517f08c379a0000000000000000000000000000000000000000000000000000000008152600401611ef490613b90565b60405180910390fd5b80600081518110611f37577f4e487b7100000000000000000000000000000000000000000000000000000000600052603260045260246000fd5b602002602001015160019080519060200190611f54929190612fe5565b5080600181518110611f8f577f4e487b7100000000000000000000000000000000000000000000000000000000600052603260045260246000fd5b602002602001015160029080519060200190611fac929190612fe5565b506001600d60026101000a81548160ff02191690831515021790555060056000815480929190611fdb90613ff0565b919050555050565b6060600060055467ffffffffffffffff811115612029577f4e487b7100000000000000000000000000000000000000000000000000000000600052604160045260246000fd5b60405190808252806020026020018201604052801561206257816020015b61204f61306b565b8152602001906001900390816120475790505b50905060005b6005548110156123ef576000600b60008381526020019081526020016000209050806040518060600160405290816000820180546120a590613f8d565b80601f01602080910402602001604051908101604052809291908181526020018280546120d190613f8d565b801561211e5780601f106120f35761010080835404028352916020019161211e565b820191906000526020600020905b81548152906001019060200180831161210157829003601f168201915b5050505050815260200160018201805461213790613f8d565b80601f016020809104026020016040519081016040528092919081815260200182805461216390613f8d565b80156121b05780601f10612185576101008083540402835291602001916121b0565b820191906000526020600020905b81548152906001019060200180831161219357829003601f168201915b50505050508152602001600282016040518060a0016040529081600082015481526020016001820180546121e390613f8d565b80601f016020809104026020016040519081016040528092919081815260200182805461220f90613f8d565b801561225c5780601f106122315761010080835404028352916020019161225c565b820191906000526020600020905b81548152906001019060200180831161223f57829003601f168201915b5050505050815260200160028201805461227590613f8d565b80601f01602080910402602001604051908101604052809291908181526020018280546122a190613f8d565b80156122ee5780601f106122c3576101008083540402835291602001916122ee565b820191906000526020600020905b8154815290600101906020018083116122d157829003601f168201915b5050505050815260200160038201805461230790613f8d565b80601f016020809104026020016040519081016040528092919081815260200182805461233390613f8d565b80156123805780601f1061235557610100808354040283529160200191612380565b820191906000526020600020905b81548152906001019060200180831161236357829003601f168201915b50505050508152602001600482015481525050815250508383815181106123d0577f4e487b7100000000000000000000000000000000000000000000000000000000600052603260045260246000fd5b60200260200101819052505080806123e790613ff0565b915050612068565b508091505090565b6123ff6110fd565b1561243f576040517f08c379a000000000000000000000000000000000000000000000000000000000815260040161243690613bb0565b60405180910390fd5b600060019054906101000a900473ffffffffffffffffffffffffffffffffffffffff1673ffffffffffffffffffffffffffffffffffffffff163373ffffffffffffffffffffffffffffffffffffffff16146124cf576040517f08c379a00000000000000000000000000000000000000000000000000000000081526004016124c690613c50565b60405180910390fd5b80600060016101000a81548173ffffffffffffffffffffffffffffffffffffffff021916908373ffffffffffffffffffffffffffffffffffffffff16021790555050565b60035481565b60076020528060005260406000206000915054906101000a900460ff1681565b60003373ffffffffffffffffffffffffffffffffffffffff16600060019054906101000a900473ffffffffffffffffffffffffffffffffffffffff1673ffffffffffffffffffffffffffffffffffffffff1614905090565b600d60019054906101000a900460ff16156125e1576040517f08c379a00000000000000000000000000000000000000000000000000000000081526004016125d890613c10565b60405180910390fd5b600d60009054906101000a900460ff16612630576040517f08c379a000000000000000000000000000000000000000000000000000000000815260040161262790613bd0565b60405180910390fd5b6126a1828280806020026020016040519081016040528093929190818152602001838360200280828437600081840152601f19601f820116905080830192505050505050503360405160200161268691906139f2565b60405160208183030381529060405280519060200120611cb8565b6126e0576040517f08c379a00000000000000000000000000000000000000000000000000000000081526004016126d790613cb0565b60405180910390fd5b6126ea8333612d05565b505050565b6126f76110fd565b612736576040517f08c379a000000000000000000000000000000000000000000000000000000000815260040161272d90613b10565b60405180910390fd5b60008060006101000a81548160ff0219169083151502179055507f5db9ee0a495bf2e6ff9c91a7834c1ba4fdd244a5e8aa4e537bd38aeae4b073aa612779612790565b6040516127869190613a0d565b60405180910390a1565b600033905090565b6000806127a36110fd565b156127e3576040517f08c379a00000000000000000000000000000000000000000000000000000000081526004016127da90613bb0565b60405180910390fd5b60005b60045481101561285d57600c5460096000838152602001908152602001600020600401541061284a576009600082815260200190815260200160002060040154600c819055506009600082815260200190815260200160002060000154600a819055505b808061285590613ff0565b9150506127e6565b5060405180606001604052806001805461287690613f8d565b80601f01602080910402602001604051908101604052809291908181526020018280546128a290613f8d565b80156128ef5780601f106128c4576101008083540402835291602001916128ef565b820191906000526020600020905b8154815290600101906020018083116128d257829003601f168201915b505050505081526020016002805461290690613f8d565b80601f016020809104026020016040519081016040528092919081815260200182805461293290613f8d565b801561297f5780601f106129545761010080835404028352916020019161297f565b820191906000526020600020905b81548152906001019060200180831161296257829003601f168201915b5050505050815260200160096000600a5481526020019081526020016000206040518060a0016040529081600082015481526020016001820180546129c390613f8d565b80601f01602080910402602001604051908101604052809291908181526020018280546129ef90613f8d565b8015612a3c5780601f10612a1157610100808354040283529160200191612a3c565b820191906000526020600020905b815481529060010190602001808311612a1f57829003601f168201915b50505050508152602001600282018054612a5590613f8d565b80601f0160208091040260200160405190810160405280929190818152602001828054612a8190613f8d565b8015612ace5780601f10612aa357610100808354040283529160200191612ace565b820191906000526020600020905b815481529060010190602001808311612ab157829003601f168201915b50505050508152602001600382018054612ae790613f8d565b80601f0160208091040260200160405190810160405280929190818152602001828054612b1390613f8d565b8015612b605780601f10612b3557610100808354040283529160200191612b60565b820191906000526020600020905b815481529060010190602001808311612b4357829003601f168201915b50505050508152602001600482015481525050815250600b600060055481526020019081526020016000206000820151816000019080519060200190612ba7929190612fe5565b506020820151816001019080519060200190612bc4929190612fe5565b50604082015181600201600082015181600001556020820151816001019080519060200190612bf4929190612fe5565b506040820151816002019080519060200190612c11929190612fe5565b506060820151816003019080519060200190612c2e929190612fe5565b50608082015181600401555050905050600c54600a54915091509091565b612c546110fd565b15612c94576040517f08c379a0000000000000000000000000000000000000000000000000000000008152600401612c8b90613bb0565b60405180910390fd5b60016000806101000a81548160ff0219169083151502179055507f62e78cea01bee320cd4e420270b5ea74000d11b0c9f74754ebdbfc544b05a258612cd7612790565b604051612ce49190613a0d565b60405180910390a1565b600082612cfb8584612f04565b1490509392505050565b612d0d6110fd565b15612d4d576040517f08c379a0000000000000000000000000000000000000000000000000000000008152600401612d4490613bb0565b60405180910390fd5b8160045481108015612d60575060008110155b612d9f576040517f08c379a0000000000000000000000000000000000000000000000000000000008152600401612d9690613c30565b60405180910390fd5b600860008373ffffffffffffffffffffffffffffffffffffffff1673ffffffffffffffffffffffffffffffffffffffff16815260200190815260200160002060009054906101000a900460ff1615612e2c576040517f08c379a0000000000000000000000000000000000000000000000000000000008152600401612e2390613c70565b60405180910390fd5b6001600860008473ffffffffffffffffffffffffffffffffffffffff1673ffffffffffffffffffffffffffffffffffffffff16815260200190815260200160002060006101000a81548160ff021916908315150217905550600960008481526020019081526020016000206004016000815480929190612eab90613ff0565b91905055507fd3ebd88818d034d26c5d98bcef9c7c45207130238e76e8cf0b3ba00e906851bf836009600086815260200190815260200160002060040154604051612ef7929190613d83565b60405180910390a1505050565b60008082905060005b8451811015612f94576000858281518110612f51577f4e487b7100000000000000000000000000000000000000000000000000000000600052603260045260246000fd5b60200260200101519050808311612f7357612f6c8382612f9f565b9250612f80565b612f7d8184612f9f565b92505b508080612f8c90613ff0565b915050612f0d565b508091505092915050565b600082600052816020526040600020905092915050565b6040518060a0016040528060008152602001606081526020016060815260200160608152602001600081525090565b828054612ff190613f8d565b90600052602060002090601f016020900481019282613013576000855561305a565b82601f1061302c57805160ff191683800117855561305a565b8280016001018555821561305a579182015b8281111561305957825182559160200191906001019061303e565b5b5090506130679190613092565b5090565b6040518060600160405280606081526020016060815260200161308c612fb6565b81525090565b5b808211156130ab576000816000905550600101613093565b5090565b60006130c26130bd84613dd1565b613dac565b905080838252602082019050828560208602820111156130e157600080fd5b60005b8581101561311157816130f78882613292565b8452602084019350602083019250506001810190506130e4565b5050509392505050565b600061312e61312984613dfd565b613dac565b9050808382526020820190508285602086028201111561314d57600080fd5b60005b8581101561319757813567ffffffffffffffff81111561316f57600080fd5b80860161317c89826132a7565b85526020850194506020840193505050600181019050613150565b5050509392505050565b60006131b46131af84613e29565b613dac565b9050828152602081018484840111156131cc57600080fd5b6131d7848285613f4b565b509392505050565b6000813590506131ee81614450565b92915050565b60008083601f84011261320657600080fd5b8235905067ffffffffffffffff81111561321f57600080fd5b60208301915083602082028301111561323757600080fd5b9250929050565b600082601f83011261324f57600080fd5b813561325f8482602086016130af565b91505092915050565b600082601f83011261327957600080fd5b813561328984826020860161311b565b91505092915050565b6000813590506132a181614467565b92915050565b600082601f8301126132b857600080fd5b81356132c88482602086016131a1565b91505092915050565b6000813590506132e08161447e565b92915050565b6000602082840312156132f857600080fd5b6000613306848285016131df565b91505092915050565b6000806040838503121561332257600080fd5b600083013567ffffffffffffffff81111561333c57600080fd5b6133488582860161323e565b925050602061335985828601613292565b9150509250929050565b60006020828403121561337557600080fd5b600082013567ffffffffffffffff81111561338f57600080fd5b61339b84828501613268565b91505092915050565b6000806000606084860312156133b957600080fd5b600084013567ffffffffffffffff8111156133d357600080fd5b6133df868287016132a7565b935050602084013567ffffffffffffffff8111156133fc57600080fd5b613408868287016132a7565b925050604084013567ffffffffffffffff81111561342557600080fd5b613431868287016132a7565b9150509250925092565b60006020828403121561344d57600080fd5b600061345b848285016132d1565b91505092915050565b60008060006040848603121561347957600080fd5b6000613487868287016132d1565b935050602084013567ffffffffffffffff8111156134a457600080fd5b6134b0868287016131f4565b92509250509250925092565b60006134c8838361386e565b905092915050565b60006134dc8383613976565b905092915050565b6134ed81613ef9565b82525050565b6135046134ff82613ef9565b614039565b82525050565b600061351582613e7a565b61351f8185613eb5565b93508360208202850161353185613e5a565b8060005b8581101561356d578484038952815161354e85826134bc565b945061355983613e9b565b925060208a01995050600181019050613535565b50829750879550505050505092915050565b600061358a82613e85565b6135948185613ec6565b9350836020820285016135a685613e6a565b8060005b858110156135e257848403895281516135c385826134d0565b94506135ce83613ea8565b925060208a019950506001810190506135aa565b50829750879550505050505092915050565b6135fd81613f0b565b82525050565b61360c81613f17565b82525050565b600061361d82613e90565b6136278185613ed7565b9350613637818560208601613f5a565b613640816140ea565b840191505092915050565b600061365682613e90565b6136608185613ee8565b9350613670818560208601613f5a565b613679816140ea565b840191505092915050565b6000613691601483613ee8565b915061369c82614108565b602082019050919050565b60006136b4602183613ee8565b91506136bf82614131565b604082019050919050565b60006136d7601383613ee8565b91506136e282614180565b602082019050919050565b60006136fa602e83613ee8565b9150613705826141a9565b604082019050919050565b600061371d602d83613ee8565b9150613728826141f8565b604082019050919050565b6000613740601083613ee8565b915061374b82614247565b602082019050919050565b6000613763603083613ee8565b915061376e82614270565b604082019050919050565b6000613786602183613ee8565b9150613791826142bf565b604082019050919050565b60006137a9601e83613ee8565b91506137b48261430e565b602082019050919050565b60006137cc601a83613ee8565b91506137d782614337565b602082019050919050565b60006137ef602483613ee8565b91506137fa82614360565b604082019050919050565b6000613812601883613ee8565b915061381d826143af565b602082019050919050565b6000613835601f83613ee8565b9150613840826143d8565b602082019050919050565b6000613858602d83613ee8565b915061386382614401565b604082019050919050565b600060a08301600083015161388660008601826139d4565b506020830151848203602086015261389e8282613612565b915050604083015184820360408601526138b88282613612565b915050606083015184820360608601526138d28282613612565b91505060808301516138e760808601826139d4565b508091505092915050565b600060a08301600083015161390a60008601826139d4565b50602083015184820360208601526139228282613612565b9150506040830151848203604086015261393c8282613612565b915050606083015184820360608601526139568282613612565b915050608083015161396b60808601826139d4565b508091505092915050565b600060608301600083015184820360008601526139938282613612565b915050602083015184820360208601526139ad8282613612565b915050604083015184820360408601526139c7828261386e565b9150508091505092915050565b6139dd81613f41565b82525050565b6139ec81613f41565b82525050565b60006139fe82846134f3565b60148201915081905092915050565b6000602082019050613a2260008301846134e4565b92915050565b60006020820190508181036000830152613a42818461350a565b905092915050565b60006020820190508181036000830152613a64818461357f565b905092915050565b6000602082019050613a8160008301846135f4565b92915050565b6000602082019050613a9c6000830184613603565b92915050565b60006020820190508181036000830152613abc818461364b565b905092915050565b60006060820190508181036000830152613ade818661364b565b90508181036020830152613af2818561364b565b90508181036040830152613b0681846138f2565b9050949350505050565b60006020820190508181036000830152613b2981613684565b9050919050565b60006020820190508181036000830152613b49816136a7565b9050919050565b60006020820190508181036000830152613b69816136ca565b9050919050565b60006020820190508181036000830152613b89816136ed565b9050919050565b60006020820190508181036000830152613ba981613710565b9050919050565b60006020820190508181036000830152613bc981613733565b9050919050565b60006020820190508181036000830152613be981613756565b9050919050565b60006020820190508181036000830152613c0981613779565b9050919050565b60006020820190508181036000830152613c298161379c565b9050919050565b60006020820190508181036000830152613c49816137bf565b9050919050565b60006020820190508181036000830152613c69816137e2565b9050919050565b60006020820190508181036000830152613c8981613805565b9050919050565b60006020820190508181036000830152613ca981613828565b9050919050565b60006020820190508181036000830152613cc98161384b565b9050919050565b6000602082019050613ce560008301846139e3565b92915050565b6000604082019050613d0060008301856139e3565b8181036020830152613d12818461364b565b90509392505050565b600060a082019050613d3060008301886139e3565b8181036020830152613d42818761364b565b90508181036040830152613d56818661364b565b90508181036060830152613d6a818561364b565b9050613d7960808301846139e3565b9695505050505050565b6000604082019050613d9860008301856139e3565b613da560208301846139e3565b9392505050565b6000613db6613dc7565b9050613dc28282613fbf565b919050565b6000604051905090565b600067ffffffffffffffff821115613dec57613deb6140bb565b5b602082029050602081019050919050565b600067ffffffffffffffff821115613e1857613e176140bb565b5b602082029050602081019050919050565b600067ffffffffffffffff821115613e4457613e436140bb565b5b613e4d826140ea565b9050602081019050919050565b6000819050602082019050919050565b6000819050602082019050919050565b600081519050919050565b600081519050919050565b600081519050919050565b6000602082019050919050565b6000602082019050919050565b600082825260208201905092915050565b600082825260208201905092915050565b600082825260208201905092915050565b600082825260208201905092915050565b6000613f0482613f21565b9050919050565b60008115159050919050565b6000819050919050565b600073ffffffffffffffffffffffffffffffffffffffff82169050919050565b6000819050919050565b82818337600083830152505050565b60005b83811015613f78578082015181840152602081019050613f5d565b83811115613f87576000848401525b50505050565b60006002820490506001821680613fa557607f821691505b60208210811415613fb957613fb861408c565b5b50919050565b613fc8826140ea565b810181811067ffffffffffffffff82111715613fe757613fe66140bb565b5b80604052505050565b6000613ffb82613f41565b91507fffffffffffffffffffffffffffffffffffffffffffffffffffffffffffffffff82141561402e5761402d61405d565b5b600182019050919050565b60006140448261404b565b9050919050565b6000614056826140fb565b9050919050565b7f4e487b7100000000000000000000000000000000000000000000000000000000600052601160045260246000fd5b7f4e487b7100000000000000000000000000000000000000000000000000000000600052602260045260246000fd5b7f4e487b7100000000000000000000000000000000000000000000000000000000600052604160045260246000fd5b6000601f19601f8301169050919050565b60008160601b9050919050565b7f5061757361626c653a206e6f7420706175736564000000000000000000000000600082015250565b7f536f7272792c2074686520456c656374696f6e20686173206e6f7420656e646560008201527f6400000000000000000000000000000000000000000000000000000000000000602082015250565b7f456c656374696f6e206973204f6e676f696e6700000000000000000000000000600082015250565b7f6f6e6c792074656163686572732f63686169726d616e2063616e206d616b652060008201527f726573756c7473207075626c6963000000000000000000000000000000000000602082015250565b7f6f6e6c792074656163686572732f63686169726d616e2063616e2063616c6c2060008201527f746869732066756e6374696f6e00000000000000000000000000000000000000602082015250565b7f5061757361626c653a2070617573656400000000000000000000000000000000600082015250565b7f506c6561736520636865636b206261636b2c2074686520656c656374696f6e2060008201527f686173206e6f7420737461727465642100000000000000000000000000000000602082015250565b7f61746c65617374206f6e6520706572736f6e2073686f756c6420636f6e74657360008201527f7400000000000000000000000000000000000000000000000000000000000000602082015250565b7f536f7272792c2074686520456c656374696f6e2068617320656e646564210000600082015250565b7f496e76616c69642063616e64696461746520746f20566f746521000000000000600082015250565b7f6f6e6c792063686169726d616e2063616e2063616c6c20746869732066756e6360008201527f74696f6e00000000000000000000000000000000000000000000000000000000602082015250565b7f566f7465722068617320616c726561647920566f746564210000000000000000600082015250565b7f54686520526573756c7473206d757374206265206d616465207075626c696300600082015250565b7f736f7272792c206f6e6c79207374616b65686f6c646572732061726520656c6960008201527f6769626c6520746f20766f746500000000000000000000000000000000000000602082015250565b61445981613ef9565b811461446457600080fd5b50565b61447081613f17565b811461447b57600080fd5b50565b61448781613f41565b811461449257600080fd5b5056fea26469706673582212208a1f1173afd3dd4bdb2b9d8fd8514ba1e8246e5170f646ff0d0e4f79b7dcf39364736f6c63430008040033",
  "linkReferences": {},
  "deployedLinkReferences": {}
}