{
  "_format": "hh-sol-artifact-1",
  "contractName": "ZuriElection",
  "sourceName": "contracts/ZuriElection.sol",
  "abi": [
    {
      "inputs": [
        {
          "internalType": "bytes32",
          "name": "merkleRoot",
          "type": "bytes32"
        }
      ],
      "stateMutability": "nonpayable",
      "type": "constructor"
    },
    {
      "inputs": [],
      "name": "ElectionHasEnded",
      "type": "error"
    },
    {
      "inputs": [],
      "name": "ElectionNotStarted",
      "type": "error"
    },
    {
      "anonymous": false,
      "inputs": [
        {
          "indexed": false,
          "internalType": "uint256",
          "name": "_candidateId",
          "type": "uint256"
        },
        {
          "indexed": false,
          "internalType": "string",
          "name": "_candidateName",
          "type": "string"
        }
      ],
      "name": "CandidateCreated",
      "type": "event"
    },
    {
      "anonymous": false,
      "inputs": [
        {
          "indexed": false,
          "internalType": "uint256[]",
          "name": "_winnerIds",
          "type": "uint256[]"
        },
        {
          "indexed": false,
          "internalType": "uint256",
          "name": "_winnerVoteCount",
          "type": "uint256"
        }
      ],
      "name": "ElectionEnded",
      "type": "event"
    },
    {
      "anonymous": false,
      "inputs": [
        {
          "indexed": false,
          "internalType": "address",
          "name": "account",
          "type": "address"
        }
      ],
      "name": "Paused",
      "type": "event"
    },
    {
      "anonymous": false,
      "inputs": [
        {
          "indexed": false,
          "internalType": "address",
          "name": "account",
          "type": "address"
        }
      ],
      "name": "Unpaused",
      "type": "event"
    },
    {
      "anonymous": false,
      "inputs": [
        {
          "indexed": false,
          "internalType": "uint256",
          "name": "_candidateId",
          "type": "uint256"
        },
        {
          "indexed": false,
          "internalType": "uint256",
          "name": "_candidateVoteCount",
          "type": "uint256"
        }
      ],
      "name": "VoteForCandidate",
      "type": "event"
    },
    {
      "inputs": [],
      "name": "Active",
      "outputs": [
        {
          "internalType": "bool",
          "name": "",
          "type": "bool"
        }
      ],
      "stateMutability": "view",
      "type": "function"
    },
    {
      "inputs": [],
      "name": "Created",
      "outputs": [
        {
          "internalType": "bool",
          "name": "",
          "type": "bool"
        }
      ],
      "stateMutability": "view",
      "type": "function"
    },
    {
      "inputs": [],
      "name": "Ended",
      "outputs": [
        {
          "internalType": "bool",
          "name": "",
          "type": "bool"
        }
      ],
      "stateMutability": "view",
      "type": "function"
    },
    {
      "inputs": [
        {
          "internalType": "string",
          "name": "_name",
          "type": "string"
        },
        {
          "internalType": "string",
          "name": "_candidateHash",
          "type": "string"
        },
        {
          "internalType": "string",
          "name": "_candidateManifesto",
          "type": "string"
        }
      ],
      "name": "addCandidate",
      "outputs": [],
      "stateMutability": "nonpayable",
      "type": "function"
    },
    {
      "inputs": [
        {
          "internalType": "address",
          "name": "_newTeacher",
          "type": "address"
        }
      ],
      "name": "addTeacher",
      "outputs": [],
      "stateMutability": "nonpayable",
      "type": "function"
    },
    {
      "inputs": [
        {
          "internalType": "uint256",
          "name": "",
          "type": "uint256"
        }
      ],
      "name": "candidates",
      "outputs": [
        {
          "internalType": "uint256",
          "name": "id",
          "type": "uint256"
        },
        {
          "internalType": "string",
          "name": "name",
          "type": "string"
        },
        {
          "internalType": "string",
          "name": "candidateHash",
          "type": "string"
        },
        {
          "internalType": "string",
          "name": "candidateManifesto",
          "type": "string"
        },
        {
          "internalType": "uint256",
          "name": "voteCount",
          "type": "uint256"
        }
      ],
      "stateMutability": "view",
      "type": "function"
    },
    {
      "inputs": [],
      "name": "candidatesCount",
      "outputs": [
        {
          "internalType": "uint256",
          "name": "",
          "type": "uint256"
        }
      ],
      "stateMutability": "view",
      "type": "function"
    },
    {
      "inputs": [],
      "name": "chairman",
      "outputs": [
        {
          "internalType": "address",
          "name": "",
          "type": "address"
        }
      ],
      "stateMutability": "view",
      "type": "function"
    },
    {
      "inputs": [
        {
          "internalType": "address",
          "name": "_newChairman",
          "type": "address"
        }
      ],
      "name": "changeChairman",
      "outputs": [],
      "stateMutability": "nonpayable",
      "type": "function"
    },
    {
      "inputs": [],
      "name": "closeElection",
      "outputs": [],
      "stateMutability": "nonpayable",
      "type": "function"
    },
    {
      "inputs": [],
      "name": "description",
      "outputs": [
        {
          "internalType": "string",
          "name": "",
          "type": "string"
        }
      ],
      "stateMutability": "view",
      "type": "function"
    },
    {
      "inputs": [],
      "name": "endElection",
      "outputs": [],
      "stateMutability": "nonpayable",
      "type": "function"
    },
    {
      "inputs": [],
      "name": "getCandidates",
      "outputs": [
        {
          "components": [
            {
              "internalType": "uint256",
              "name": "id",
              "type": "uint256"
            },
            {
              "internalType": "string",
              "name": "name",
              "type": "string"
            },
            {
              "internalType": "string",
              "name": "candidateHash",
              "type": "string"
            },
            {
              "internalType": "string",
              "name": "candidateManifesto",
              "type": "string"
            },
            {
              "internalType": "uint256",
              "name": "voteCount",
              "type": "uint256"
            }
          ],
          "internalType": "struct ZuriElection.Candidate[]",
          "name": "",
          "type": "tuple[]"
        }
      ],
      "stateMutability": "view",
      "type": "function"
    },
    {
      "inputs": [],
      "name": "getWinner",
      "outputs": [
        {
          "internalType": "uint256",
          "name": "",
          "type": "uint256"
        },
        {
          "internalType": "uint256[]",
          "name": "",
          "type": "uint256[]"
        }
      ],
      "stateMutability": "view",
      "type": "function"
    },
    {
      "inputs": [],
      "name": "isChairman",
      "outputs": [
        {
          "internalType": "bool",
          "name": "",
          "type": "bool"
        }
      ],
      "stateMutability": "view",
      "type": "function"
    },
    {
      "inputs": [],
      "name": "isCreated",
      "outputs": [
        {
          "internalType": "bool",
          "name": "",
          "type": "bool"
        }
      ],
      "stateMutability": "view",
      "type": "function"
    },
    {
      "inputs": [],
      "name": "isEnded",
      "outputs": [
        {
          "internalType": "bool",
          "name": "",
          "type": "bool"
        }
      ],
      "stateMutability": "view",
      "type": "function"
    },
    {
      "inputs": [],
      "name": "isStarted",
      "outputs": [
        {
          "internalType": "bool",
          "name": "",
          "type": "bool"
        }
      ],
      "stateMutability": "view",
      "type": "function"
    },
    {
      "inputs": [],
      "name": "isTeacher",
      "outputs": [
        {
          "internalType": "bool",
          "name": "",
          "type": "bool"
        }
      ],
      "stateMutability": "view",
      "type": "function"
    },
    {
      "inputs": [
        {
          "internalType": "bytes32[]",
          "name": "proof",
          "type": "bytes32[]"
        },
        {
          "internalType": "bytes32",
          "name": "leaf",
          "type": "bytes32"
        }
      ],
      "name": "isValid",
      "outputs": [
        {
          "internalType": "bool",
          "name": "",
          "type": "bool"
        }
      ],
      "stateMutability": "view",
      "type": "function"
    },
    {
      "inputs": [],
      "name": "makeResultPublic",
      "outputs": [],
      "stateMutability": "nonpayable",
      "type": "function"
    },
    {
      "inputs": [],
      "name": "pause",
      "outputs": [],
      "stateMutability": "nonpayable",
      "type": "function"
    },
    {
      "inputs": [],
      "name": "paused",
      "outputs": [
        {
          "internalType": "bool",
          "name": "",
          "type": "bool"
        }
      ],
      "stateMutability": "view",
      "type": "function"
    },
    {
      "inputs": [],
      "name": "position",
      "outputs": [
        {
          "internalType": "string",
          "name": "",
          "type": "string"
        }
      ],
      "stateMutability": "view",
      "type": "function"
    },
    {
      "inputs": [
        {
          "internalType": "address",
          "name": "_teacher",
          "type": "address"
        }
      ],
      "name": "removeTeacher",
      "outputs": [],
      "stateMutability": "nonpayable",
      "type": "function"
    },
    {
      "inputs": [],
      "name": "root",
      "outputs": [
        {
          "internalType": "bytes32",
          "name": "",
          "type": "bytes32"
        }
      ],
      "stateMutability": "view",
      "type": "function"
    },
    {
      "inputs": [
        {
          "internalType": "string[]",
          "name": "_prop",
          "type": "string[]"
        }
      ],
      "name": "setUpElection",
      "outputs": [],
      "stateMutability": "nonpayable",
      "type": "function"
    },
    {
      "inputs": [],
      "name": "startElection",
      "outputs": [],
      "stateMutability": "nonpayable",
      "type": "function"
    },
    {
      "inputs": [],
      "name": "startTimer",
      "outputs": [
        {
          "internalType": "uint256",
          "name": "",
          "type": "uint256"
        }
      ],
      "stateMutability": "view",
      "type": "function"
    },
    {
      "inputs": [
        {
          "internalType": "address",
          "name": "",
          "type": "address"
        }
      ],
      "name": "teachers",
      "outputs": [
        {
          "internalType": "bool",
          "name": "",
          "type": "bool"
        }
      ],
      "stateMutability": "view",
      "type": "function"
    },
    {
      "inputs": [],
      "name": "unpause",
      "outputs": [],
      "stateMutability": "nonpayable",
      "type": "function"
    },
    {
      "inputs": [
        {
          "internalType": "uint256",
          "name": "_candidateId",
          "type": "uint256"
        },
        {
          "internalType": "bytes32[]",
          "name": "hexProof",
          "type": "bytes32[]"
        }
      ],
      "name": "vote",
      "outputs": [],
      "stateMutability": "nonpayable",
      "type": "function"
    },
    {
      "inputs": [
        {
          "internalType": "address",
          "name": "",
          "type": "address"
        }
      ],
      "name": "voted",
      "outputs": [
        {
          "internalType": "bool",
          "name": "",
          "type": "bool"
        }
      ],
      "stateMutability": "view",
      "type": "function"
    },
    {
      "inputs": [
        {
          "internalType": "uint256",
          "name": "",
          "type": "uint256"
        }
      ],
      "name": "winnerIds",
      "outputs": [
        {
          "internalType": "uint256",
          "name": "",
          "type": "uint256"
        }
      ],
      "stateMutability": "view",
      "type": "function"
    },
    {
      "inputs": [],
      "name": "winnerVoteCount",
      "outputs": [
        {
          "internalType": "uint256",
          "name": "",
          "type": "uint256"
        }
      ],
      "stateMutability": "view",
      "type": "function"
    }
  ],
  "bytecode": "0x60806040523480156200001157600080fd5b5060405162003c1a38038062003c1a83398181016040528101906200003791906200012b565b60008060006101000a81548160ff02191690831515021790555033600060016101000a81548173ffffffffffffffffffffffffffffffffffffffff021916908373ffffffffffffffffffffffffffffffffffffffff1602179055506000600c60006101000a81548160ff0219169083151502179055506000600c60016101000a81548160ff0219169083151502179055506000600c60026101000a81548160ff0219169083151502179055506000600481905550806003819055506000600c60036101000a81548160ff021916908315150217905550506200017b565b600081519050620001258162000161565b92915050565b6000602082840312156200013e57600080fd5b60006200014e8482850162000114565b91505092915050565b6000819050919050565b6200016c8162000157565b81146200017857600080fd5b50565b613a8f806200018b6000396000f3fe608060405234801561001057600080fd5b50600436106102115760003560e01c80638617439611610125578063b8a20ed0116100ad578063e81018691161007c578063e810186914610567578063ebf0c71714610583578063f0a47f78146105a1578063f51b41d2146105d1578063fd27419b146105ef57610211565b8063b8a20ed0146104df578063c64a4bad1461050f578063c9b0a2a71461052d578063d1e53b8a1461054b57610211565b80639adeddf8116100f45780639adeddf814610439578063a39f744914610457578063a4fd6f5614610475578063ad71f8dc14610493578063aec2ccae146104af57610211565b806386174396146103d457806387f7b975146103f25780638e7ea5b21461041057806395adfc5e1461042f57610211565b8063477383f3116101a85780635c975abb116101775780635c975abb1461037a57806362d73eb8146103985780636c6c32d0146103a25780637284e416146103ac5780638456cb59146103ca57610211565b8063477383f31461031857806352ff684614610336578063544736e61461035257806359f784681461037057610211565b80633477ee2e116101e45780633477ee2e1461028e5780633bc6e309146102c25780633f4ba83a146102de578063403d1312146102e857610211565b806306a49fce1461021657806309218e91146102345780632d35a8a2146102525780632f22850d14610270575b600080fd5b61021e61060b565b60405161022b9190612f89565b60405180910390f35b61023c6108e7565b6040516102499190613011565b60405180910390f35b61025a610975565b60405161026791906131f3565b60405180910390f35b61027861097b565b60405161028591906131f3565b60405180910390f35b6102a860048036038101906102a39190612a2c565b610981565b6040516102b995949392919061326e565b60405180910390f35b6102dc60048036038101906102d791906128d7565b610b4f565b005b6102e6610cdd565b005b61030260048036038101906102fd9190612a2c565b610db5565b60405161030f91906131f3565b60405180910390f35b610320610dd9565b60405161032d9190612fdb565b60405180910390f35b610350600480360381019061034b91906128d7565b610dec565b005b61035a610f7a565b6040516103679190612fdb565b60405180910390f35b610378610f91565b005b6103826110cc565b60405161038f9190612fdb565b60405180910390f35b6103a06110e2565b005b6103aa6111d7565b005b6103b461134f565b6040516103c19190613011565b60405180910390f35b6103d26113dd565b005b6103dc6114b5565b6040516103e99190612fdb565b60405180910390f35b6103fa6114cc565b6040516104079190612f6e565b60405180910390f35b6104186114f2565b60405161042692919061320e565b60405180910390f35b6104376115a4565b005b6104416116fb565b60405161044e9190612fdb565b60405180910390f35b61045f61170e565b60405161046c91906131f3565b60405180910390f35b61047d611714565b60405161048a9190612fdb565b60405180910390f35b6104ad60048036038101906104a89190612995565b61172b565b005b6104c960048036038101906104c491906128d7565b6119b3565b6040516104d69190612fdb565b60405180910390f35b6104f960048036038101906104f49190612900565b6119d3565b6040516105069190612fdb565b60405180910390f35b6105176119ea565b6040516105249190612fdb565b60405180910390f35b610535611a3e565b6040516105429190612fdb565b60405180910390f35b61056560048036038101906105609190612954565b611a51565b005b610581600480360381019061057c91906128d7565b611ce6565b005b61058b611e02565b6040516105989190612ff6565b60405180910390f35b6105bb60048036038101906105b691906128d7565b611e08565b6040516105c89190612fdb565b60405180910390f35b6105d9611e28565b6040516105e69190612fdb565b60405180910390f35b61060960048036038101906106049190612a55565b611e80565b005b6060600060045467ffffffffffffffff811115610651577f4e487b7100000000000000000000000000000000000000000000000000000000600052604160045260246000fd5b60405190808252806020026020018201604052801561068a57816020015b6106776125ad565b81526020019060019003908161066f5790505b50905060005b6004548110156108df576000600960008381526020019081526020016000209050806040518060a0016040529081600082015481526020016001820180546106d790613517565b80601f016020809104026020016040519081016040528092919081815260200182805461070390613517565b80156107505780601f1061072557610100808354040283529160200191610750565b820191906000526020600020905b81548152906001019060200180831161073357829003601f168201915b5050505050815260200160028201805461076990613517565b80601f016020809104026020016040519081016040528092919081815260200182805461079590613517565b80156107e25780601f106107b7576101008083540402835291602001916107e2565b820191906000526020600020905b8154815290600101906020018083116107c557829003601f168201915b505050505081526020016003820180546107fb90613517565b80601f016020809104026020016040519081016040528092919081815260200182805461082790613517565b80156108745780601f1061084957610100808354040283529160200191610874565b820191906000526020600020905b81548152906001019060200180831161085757829003601f168201915b505050505081526020016004820154815250508383815181106108c0577f4e487b7100000000000000000000000000000000000000000000000000000000600052603260045260246000fd5b60200260200101819052505080806108d790613594565b915050610690565b508091505090565b600180546108f490613517565b80601f016020809104026020016040519081016040528092919081815260200182805461092090613517565b801561096d5780601f106109425761010080835404028352916020019161096d565b820191906000526020600020905b81548152906001019060200180831161095057829003601f168201915b505050505081565b60045481565b600b5481565b60096020528060005260406000206000915090508060000154908060010180546109aa90613517565b80601f01602080910402602001604051908101604052809291908181526020018280546109d690613517565b8015610a235780601f106109f857610100808354040283529160200191610a23565b820191906000526020600020905b815481529060010190602001808311610a0657829003601f168201915b505050505090806002018054610a3890613517565b80601f0160208091040260200160405190810160405280929190818152602001828054610a6490613517565b8015610ab15780601f10610a8657610100808354040283529160200191610ab1565b820191906000526020600020905b815481529060010190602001808311610a9457829003601f168201915b505050505090806003018054610ac690613517565b80601f0160208091040260200160405190810160405280929190818152602001828054610af290613517565b8015610b3f5780601f10610b1457610100808354040283529160200191610b3f565b820191906000526020600020905b815481529060010190602001808311610b2257829003601f168201915b5050505050908060040154905085565b610b576110cc565b15610b97576040517f08c379a0000000000000000000000000000000000000000000000000000000008152600401610b8e906130d3565b60405180910390fd5b3373ffffffffffffffffffffffffffffffffffffffff16600060019054906101000a900473ffffffffffffffffffffffffffffffffffffffff1673ffffffffffffffffffffffffffffffffffffffff161480610c43575060011515600760003373ffffffffffffffffffffffffffffffffffffffff1673ffffffffffffffffffffffffffffffffffffffff16815260200190815260200160002060009054906101000a900460ff161515145b610c82576040517f08c379a0000000000000000000000000000000000000000000000000000000008152600401610c79906130b3565b60405180910390fd5b6001600760008373ffffffffffffffffffffffffffffffffffffffff1673ffffffffffffffffffffffffffffffffffffffff16815260200190815260200160002060006101000a81548160ff02191690831515021790555050565b600060019054906101000a900473ffffffffffffffffffffffffffffffffffffffff1673ffffffffffffffffffffffffffffffffffffffff163373ffffffffffffffffffffffffffffffffffffffff1614610d6d576040517f08c379a0000000000000000000000000000000000000000000000000000000008152600401610d6490613173565b60405180910390fd5b610d75611fde565b7f5db9ee0a495bf2e6ff9c91a7834c1ba4fdd244a5e8aa4e537bd38aeae4b073aa610d9e61207f565b604051610dab9190612f6e565b60405180910390a1565b600a8181548110610dc557600080fd5b906000526020600020016000915090505481565b600c60019054906101000a900460ff1681565b610df46110cc565b15610e34576040517f08c379a0000000000000000000000000000000000000000000000000000000008152600401610e2b906130d3565b60405180910390fd5b3373ffffffffffffffffffffffffffffffffffffffff16600060019054906101000a900473ffffffffffffffffffffffffffffffffffffffff1673ffffffffffffffffffffffffffffffffffffffff161480610ee0575060011515600760003373ffffffffffffffffffffffffffffffffffffffff1673ffffffffffffffffffffffffffffffffffffffff16815260200190815260200160002060009054906101000a900460ff161515145b610f1f576040517f08c379a0000000000000000000000000000000000000000000000000000000008152600401610f16906130b3565b60405180910390fd5b6000600760008373ffffffffffffffffffffffffffffffffffffffff1673ffffffffffffffffffffffffffffffffffffffff16815260200190815260200160002060006101000a81548160ff02191690831515021790555050565b6000600c60009054906101000a900460ff16905090565b610f996110cc565b15610fd9576040517f08c379a0000000000000000000000000000000000000000000000000000000008152600401610fd0906130d3565b60405180910390fd5b600060019054906101000a900473ffffffffffffffffffffffffffffffffffffffff1673ffffffffffffffffffffffffffffffffffffffff163373ffffffffffffffffffffffffffffffffffffffff1614611069576040517f08c379a000000000000000000000000000000000000000000000000000000000815260040161106090613173565b60405180910390fd5b6001600c60016101000a81548160ff02191690831515021790555061108c612087565b50507f38d8ebbbb4803f034f19b4cf2f19bfb84cc5dea177696c1f80a19357d5602e04600a600b546040516110c2929190612fab565b60405180910390a1565b60008060009054906101000a900460ff16905090565b6110ea6110cc565b1561112a576040517f08c379a0000000000000000000000000000000000000000000000000000000008152600401611121906130d3565b60405180910390fd5b600060019054906101000a900473ffffffffffffffffffffffffffffffffffffffff1673ffffffffffffffffffffffffffffffffffffffff163373ffffffffffffffffffffffffffffffffffffffff16146111ba576040517f08c379a00000000000000000000000000000000000000000000000000000000081526004016111b190613173565b60405180910390fd5b6001600c60006101000a81548160ff021916908315150217905550565b600060019054906101000a900473ffffffffffffffffffffffffffffffffffffffff1673ffffffffffffffffffffffffffffffffffffffff163373ffffffffffffffffffffffffffffffffffffffff1614611267576040517f08c379a000000000000000000000000000000000000000000000000000000000815260040161125e90613173565b60405180910390fd5b6000600c60026101000a81548160ff02191690831515021790555033600060016101000a81548173ffffffffffffffffffffffffffffffffffffffff021916908373ffffffffffffffffffffffffffffffffffffffff1602179055506000600c60006101000a81548160ff0219169083151502179055506000600c60016101000a81548160ff0219169083151502179055506000600c60026101000a81548160ff02191690831515021790555060006004819055506000600c60036101000a81548160ff021916908315150217905550600a600061134591906125dc565b6000600b81905550565b6002805461135c90613517565b80601f016020809104026020016040519081016040528092919081815260200182805461138890613517565b80156113d55780601f106113aa576101008083540402835291602001916113d5565b820191906000526020600020905b8154815290600101906020018083116113b857829003601f168201915b505050505081565b600060019054906101000a900473ffffffffffffffffffffffffffffffffffffffff1673ffffffffffffffffffffffffffffffffffffffff163373ffffffffffffffffffffffffffffffffffffffff161461146d576040517f08c379a000000000000000000000000000000000000000000000000000000000815260040161146490613173565b60405180910390fd5b611475612243565b7f62e78cea01bee320cd4e420270b5ea74000d11b0c9f74754ebdbfc544b05a25861149e61207f565b6040516114ab9190612f6e565b60405180910390a1565b6000600c60029054906101000a900460ff16905090565b600060019054906101000a900473ffffffffffffffffffffffffffffffffffffffff1681565b60006060600c60039054906101000a900460ff16611545576040517f08c379a000000000000000000000000000000000000000000000000000000000815260040161153c906131b3565b60405180910390fd5b600b54600a8080548060200260200160405190810160405280929190818152602001828054801561159557602002820191906000526020600020905b815481526020019060010190808311611581575b50505050509050915091509091565b600c60019054906101000a900460ff166115f3576040517f08c379a00000000000000000000000000000000000000000000000000000000081526004016115ea90613053565b60405180910390fd5b3373ffffffffffffffffffffffffffffffffffffffff16600060019054906101000a900473ffffffffffffffffffffffffffffffffffffffff1673ffffffffffffffffffffffffffffffffffffffff16148061169f575060011515600760003373ffffffffffffffffffffffffffffffffffffffff1673ffffffffffffffffffffffffffffffffffffffff16815260200190815260200160002060009054906101000a900460ff161515145b6116de576040517f08c379a00000000000000000000000000000000000000000000000000000000081526004016116d590613093565b60405180910390fd5b6001600c60036101000a81548160ff021916908315150217905550565b600c60029054906101000a900460ff1681565b60065481565b6000600c60019054906101000a900460ff16905090565b6117336110cc565b15611773576040517f08c379a000000000000000000000000000000000000000000000000000000000815260040161176a906130d3565b60405180910390fd5b600c60009054906101000a900460ff16156117c3576040517f08c379a00000000000000000000000000000000000000000000000000000000081526004016117ba90613073565b60405180910390fd5b3373ffffffffffffffffffffffffffffffffffffffff16600060019054906101000a900473ffffffffffffffffffffffffffffffffffffffff1673ffffffffffffffffffffffffffffffffffffffff16148061186f575060011515600760003373ffffffffffffffffffffffffffffffffffffffff1673ffffffffffffffffffffffffffffffffffffffff16815260200190815260200160002060009054906101000a900460ff161515145b6118ae576040517f08c379a00000000000000000000000000000000000000000000000000000000081526004016118a5906130b3565b60405180910390fd5b6040518060a00160405280600454815260200184815260200183815260200182815260200160008152506009600060045481526020019081526020016000206000820151816000015560208201518160010190805190602001906119139291906125fd565b5060408201518160020190805190602001906119309291906125fd565b50606082015181600301908051906020019061194d9291906125fd565b50608082015181600401559050507f78d27a3c512303f604b46bc28acc0ca45abe6420172a017c5a6dc585821eb6396004548460405161198e92919061323e565b60405180910390a1600460008154809291906119a990613594565b9190505550505050565b60086020528060005260406000206000915054906101000a900460ff1681565b60006119e283600354846122e5565b905092915050565b6000600760003373ffffffffffffffffffffffffffffffffffffffff1673ffffffffffffffffffffffffffffffffffffffff16815260200190815260200160002060009054906101000a900460ff16905090565b600c60009054906101000a900460ff1681565b611a596110cc565b15611a99576040517f08c379a0000000000000000000000000000000000000000000000000000000008152600401611a90906130d3565b60405180910390fd5b600c60009054906101000a900460ff1615611ae9576040517f08c379a0000000000000000000000000000000000000000000000000000000008152600401611ae090613073565b60405180910390fd5b6000815111611b2d576040517f08c379a0000000000000000000000000000000000000000000000000000000008152600401611b2490613113565b60405180910390fd5b3373ffffffffffffffffffffffffffffffffffffffff16600060019054906101000a900473ffffffffffffffffffffffffffffffffffffffff1673ffffffffffffffffffffffffffffffffffffffff161480611bd9575060011515600760003373ffffffffffffffffffffffffffffffffffffffff1673ffffffffffffffffffffffffffffffffffffffff16815260200190815260200160002060009054906101000a900460ff161515145b611c18576040517f08c379a0000000000000000000000000000000000000000000000000000000008152600401611c0f906130b3565b60405180910390fd5b80600081518110611c52577f4e487b7100000000000000000000000000000000000000000000000000000000600052603260045260246000fd5b602002602001015160019080519060200190611c6f9291906125fd565b5080600181518110611caa577f4e487b7100000000000000000000000000000000000000000000000000000000600052603260045260246000fd5b602002602001015160029080519060200190611cc79291906125fd565b506001600c60026101000a81548160ff02191690831515021790555050565b611cee6110cc565b15611d2e576040517f08c379a0000000000000000000000000000000000000000000000000000000008152600401611d25906130d3565b60405180910390fd5b600060019054906101000a900473ffffffffffffffffffffffffffffffffffffffff1673ffffffffffffffffffffffffffffffffffffffff163373ffffffffffffffffffffffffffffffffffffffff1614611dbe576040517f08c379a0000000000000000000000000000000000000000000000000000000008152600401611db590613173565b60405180910390fd5b80600060016101000a81548173ffffffffffffffffffffffffffffffffffffffff021916908373ffffffffffffffffffffffffffffffffffffffff16021790555050565b60035481565b60076020528060005260406000206000915054906101000a900460ff1681565b60003373ffffffffffffffffffffffffffffffffffffffff16600060019054906101000a900473ffffffffffffffffffffffffffffffffffffffff1673ffffffffffffffffffffffffffffffffffffffff1614905090565b600c60019054906101000a900460ff1615611ed0576040517f08c379a0000000000000000000000000000000000000000000000000000000008152600401611ec790613133565b60405180910390fd5b600c60009054906101000a900460ff16611f1f576040517f08c379a0000000000000000000000000000000000000000000000000000000008152600401611f16906130f3565b60405180910390fd5b611f90828280806020026020016040519081016040528093929190818152602001838360200280828437600081840152601f19601f8201169050808301925050505050505033604051602001611f759190612f53565b604051602081830303815290604052805190602001206119d3565b611fcf576040517f08c379a0000000000000000000000000000000000000000000000000000000008152600401611fc6906131d3565b60405180910390fd5b611fd983336122fc565b505050565b611fe66110cc565b612025576040517f08c379a000000000000000000000000000000000000000000000000000000000815260040161201c90613033565b60405180910390fd5b60008060006101000a81548160ff0219169083151502179055507f5db9ee0a495bf2e6ff9c91a7834c1ba4fdd244a5e8aa4e537bd38aeae4b073aa61206861207f565b6040516120759190612f6e565b60405180910390a1565b600033905090565b600060606120936110cc565b156120d3576040517f08c379a00000000000000000000000000000000000000000000000000000000081526004016120ca906130d3565b60405180910390fd5b60005b6004548110156121e357600b546009600083815260200190815260200160002060040154111561216f576009600082815260200190815260200160002060040154600b81905550600a600061212b91906125dc565b600a600960008381526020019081526020016000206000015490806001815401808255809150506001900390600052602060002001600090919091909150556121d0565b600b54600960008381526020019081526020016000206004015414156121cf57600a600960008381526020019081526020016000206000015490806001815401808255809150506001900390600052602060002001600090919091909150555b5b80806121db90613594565b9150506120d6565b50600b54600a8080548060200260200160405190810160405280929190818152602001828054801561223457602002820191906000526020600020905b815481526020019060010190808311612220575b50505050509050915091509091565b61224b6110cc565b1561228b576040517f08c379a0000000000000000000000000000000000000000000000000000000008152600401612282906130d3565b60405180910390fd5b60016000806101000a81548160ff0219169083151502179055507f62e78cea01bee320cd4e420270b5ea74000d11b0c9f74754ebdbfc544b05a2586122ce61207f565b6040516122db9190612f6e565b60405180910390a1565b6000826122f285846124fb565b1490509392505050565b6123046110cc565b15612344576040517f08c379a000000000000000000000000000000000000000000000000000000000815260040161233b906130d3565b60405180910390fd5b8160045481108015612357575060008110155b612396576040517f08c379a000000000000000000000000000000000000000000000000000000000815260040161238d90613153565b60405180910390fd5b600860008373ffffffffffffffffffffffffffffffffffffffff1673ffffffffffffffffffffffffffffffffffffffff16815260200190815260200160002060009054906101000a900460ff1615612423576040517f08c379a000000000000000000000000000000000000000000000000000000000815260040161241a90613193565b60405180910390fd5b6001600860008473ffffffffffffffffffffffffffffffffffffffff1673ffffffffffffffffffffffffffffffffffffffff16815260200190815260200160002060006101000a81548160ff0219169083151502179055506009600084815260200190815260200160002060040160008154809291906124a290613594565b91905055507fd3ebd88818d034d26c5d98bcef9c7c45207130238e76e8cf0b3ba00e906851bf8360096000868152602001908152602001600020600401546040516124ee9291906132d6565b60405180910390a1505050565b60008082905060005b845181101561258b576000858281518110612548577f4e487b7100000000000000000000000000000000000000000000000000000000600052603260045260246000fd5b6020026020010151905080831161256a576125638382612596565b9250612577565b6125748184612596565b92505b50808061258390613594565b915050612504565b508091505092915050565b600082600052816020526040600020905092915050565b6040518060a0016040528060008152602001606081526020016060815260200160608152602001600081525090565b50805460008255906000526020600020908101906125fa9190612683565b50565b82805461260990613517565b90600052602060002090601f01602090048101928261262b5760008555612672565b82601f1061264457805160ff1916838001178555612672565b82800160010185558215612672579182015b82811115612671578251825591602001919060010190612656565b5b50905061267f9190612683565b5090565b5b8082111561269c576000816000905550600101612684565b5090565b60006126b36126ae84613324565b6132ff565b905080838252602082019050828560208602820111156126d257600080fd5b60005b8581101561270257816126e88882612883565b8452602084019350602083019250506001810190506126d5565b5050509392505050565b600061271f61271a84613350565b6132ff565b9050808382526020820190508285602086028201111561273e57600080fd5b60005b8581101561278857813567ffffffffffffffff81111561276057600080fd5b80860161276d8982612898565b85526020850194506020840193505050600181019050612741565b5050509392505050565b60006127a56127a08461337c565b6132ff565b9050828152602081018484840111156127bd57600080fd5b6127c88482856134d5565b509392505050565b6000813590506127df81613a14565b92915050565b60008083601f8401126127f757600080fd5b8235905067ffffffffffffffff81111561281057600080fd5b60208301915083602082028301111561282857600080fd5b9250929050565b600082601f83011261284057600080fd5b81356128508482602086016126a0565b91505092915050565b600082601f83011261286a57600080fd5b813561287a84826020860161270c565b91505092915050565b60008135905061289281613a2b565b92915050565b600082601f8301126128a957600080fd5b81356128b9848260208601612792565b91505092915050565b6000813590506128d181613a42565b92915050565b6000602082840312156128e957600080fd5b60006128f7848285016127d0565b91505092915050565b6000806040838503121561291357600080fd5b600083013567ffffffffffffffff81111561292d57600080fd5b6129398582860161282f565b925050602061294a85828601612883565b9150509250929050565b60006020828403121561296657600080fd5b600082013567ffffffffffffffff81111561298057600080fd5b61298c84828501612859565b91505092915050565b6000806000606084860312156129aa57600080fd5b600084013567ffffffffffffffff8111156129c457600080fd5b6129d086828701612898565b935050602084013567ffffffffffffffff8111156129ed57600080fd5b6129f986828701612898565b925050604084013567ffffffffffffffff811115612a1657600080fd5b612a2286828701612898565b9150509250925092565b600060208284031215612a3e57600080fd5b6000612a4c848285016128c2565b91505092915050565b600080600060408486031215612a6a57600080fd5b6000612a78868287016128c2565b935050602084013567ffffffffffffffff811115612a9557600080fd5b612aa1868287016127e5565b92509250509250925092565b6000612ab98383612eb1565b905092915050565b6000612acd8383612f35565b60208301905092915050565b612ae281613483565b82525050565b612af9612af482613483565b6135dd565b82525050565b6000612b0a826133e2565b612b148185613435565b935083602082028501612b26856133ad565b8060005b85811015612b625784840389528151612b438582612aad565b9450612b4e8361340e565b925060208a01995050600181019050612b2a565b50829750879550505050505092915050565b6000612b7f826133ed565b612b898185613446565b9350612b94836133bd565b8060005b83811015612bc5578151612bac8882612ac1565b9750612bb78361341b565b925050600181019050612b98565b5085935050505092915050565b6000612bdd826133f8565b612be78185613446565b9350612bf2836133cd565b8060005b83811015612c2a57612c078261368e565b612c118882612ac1565b9750612c1c83613428565b925050600181019050612bf6565b5085935050505092915050565b612c4081613495565b82525050565b612c4f816134a1565b82525050565b6000612c6082613403565b612c6a8185613457565b9350612c7a8185602086016134e4565b612c83816136a1565b840191505092915050565b6000612c9982613403565b612ca38185613468565b9350612cb38185602086016134e4565b612cbc816136a1565b840191505092915050565b6000612cd4601483613468565b9150612cdf826136cc565b602082019050919050565b6000612cf7602183613468565b9150612d02826136f5565b604082019050919050565b6000612d1a601383613468565b9150612d2582613744565b602082019050919050565b6000612d3d602e83613468565b9150612d488261376d565b604082019050919050565b6000612d60602d83613468565b9150612d6b826137bc565b604082019050919050565b6000612d83601083613468565b9150612d8e8261380b565b602082019050919050565b6000612da6603083613468565b9150612db182613834565b604082019050919050565b6000612dc9602183613468565b9150612dd482613883565b604082019050919050565b6000612dec601e83613468565b9150612df7826138d2565b602082019050919050565b6000612e0f601a83613468565b9150612e1a826138fb565b602082019050919050565b6000612e32602483613468565b9150612e3d82613924565b604082019050919050565b6000612e55601883613468565b9150612e6082613973565b602082019050919050565b6000612e78601f83613468565b9150612e838261399c565b602082019050919050565b6000612e9b602d83613468565b9150612ea6826139c5565b604082019050919050565b600060a083016000830151612ec96000860182612f35565b5060208301518482036020860152612ee18282612c55565b91505060408301518482036040860152612efb8282612c55565b91505060608301518482036060860152612f158282612c55565b9150506080830151612f2a6080860182612f35565b508091505092915050565b612f3e816134cb565b82525050565b612f4d816134cb565b82525050565b6000612f5f8284612ae8565b60148201915081905092915050565b6000602082019050612f836000830184612ad9565b92915050565b60006020820190508181036000830152612fa38184612aff565b905092915050565b60006040820190508181036000830152612fc58185612bd2565b9050612fd46020830184612f44565b9392505050565b6000602082019050612ff06000830184612c37565b92915050565b600060208201905061300b6000830184612c46565b92915050565b6000602082019050818103600083015261302b8184612c8e565b905092915050565b6000602082019050818103600083015261304c81612cc7565b9050919050565b6000602082019050818103600083015261306c81612cea565b9050919050565b6000602082019050818103600083015261308c81612d0d565b9050919050565b600060208201905081810360008301526130ac81612d30565b9050919050565b600060208201905081810360008301526130cc81612d53565b9050919050565b600060208201905081810360008301526130ec81612d76565b9050919050565b6000602082019050818103600083015261310c81612d99565b9050919050565b6000602082019050818103600083015261312c81612dbc565b9050919050565b6000602082019050818103600083015261314c81612ddf565b9050919050565b6000602082019050818103600083015261316c81612e02565b9050919050565b6000602082019050818103600083015261318c81612e25565b9050919050565b600060208201905081810360008301526131ac81612e48565b9050919050565b600060208201905081810360008301526131cc81612e6b565b9050919050565b600060208201905081810360008301526131ec81612e8e565b9050919050565b60006020820190506132086000830184612f44565b92915050565b60006040820190506132236000830185612f44565b81810360208301526132358184612b74565b90509392505050565b60006040820190506132536000830185612f44565b81810360208301526132658184612c8e565b90509392505050565b600060a0820190506132836000830188612f44565b81810360208301526132958187612c8e565b905081810360408301526132a98186612c8e565b905081810360608301526132bd8185612c8e565b90506132cc6080830184612f44565b9695505050505050565b60006040820190506132eb6000830185612f44565b6132f86020830184612f44565b9392505050565b600061330961331a565b90506133158282613563565b919050565b6000604051905090565b600067ffffffffffffffff82111561333f5761333e61365f565b5b602082029050602081019050919050565b600067ffffffffffffffff82111561336b5761336a61365f565b5b602082029050602081019050919050565b600067ffffffffffffffff8211156133975761339661365f565b5b6133a0826136a1565b9050602081019050919050565b6000819050602082019050919050565b6000819050602082019050919050565b60008190508160005260206000209050919050565b600081519050919050565b600081519050919050565b600081549050919050565b600081519050919050565b6000602082019050919050565b6000602082019050919050565b6000600182019050919050565b600082825260208201905092915050565b600082825260208201905092915050565b600082825260208201905092915050565b600082825260208201905092915050565b6000819050919050565b600061348e826134ab565b9050919050565b60008115159050919050565b6000819050919050565b600073ffffffffffffffffffffffffffffffffffffffff82169050919050565b6000819050919050565b82818337600083830152505050565b60005b838110156135025780820151818401526020810190506134e7565b83811115613511576000848401525b50505050565b6000600282049050600182168061352f57607f821691505b6020821081141561354357613542613630565b5b50919050565b600061355c613557836136bf565b613479565b9050919050565b61356c826136a1565b810181811067ffffffffffffffff8211171561358b5761358a61365f565b5b80604052505050565b600061359f826134cb565b91507fffffffffffffffffffffffffffffffffffffffffffffffffffffffffffffffff8214156135d2576135d1613601565b5b600182019050919050565b60006135e8826135ef565b9050919050565b60006135fa826136b2565b9050919050565b7f4e487b7100000000000000000000000000000000000000000000000000000000600052601160045260246000fd5b7f4e487b7100000000000000000000000000000000000000000000000000000000600052602260045260246000fd5b7f4e487b7100000000000000000000000000000000000000000000000000000000600052604160045260246000fd5b600061369a8254613549565b9050919050565b6000601f19601f8301169050919050565b60008160601b9050919050565b60008160001c9050919050565b7f5061757361626c653a206e6f7420706175736564000000000000000000000000600082015250565b7f536f7272792c2074686520456c656374696f6e20686173206e6f7420656e646560008201527f6400000000000000000000000000000000000000000000000000000000000000602082015250565b7f456c656374696f6e206973204f6e676f696e6700000000000000000000000000600082015250565b7f6f6e6c792074656163686572732f63686169726d616e2063616e206d616b652060008201527f726573756c7473207075626c6963000000000000000000000000000000000000602082015250565b7f6f6e6c792074656163686572732f63686169726d616e2063616e2063616c6c2060008201527f746869732066756e6374696f6e00000000000000000000000000000000000000602082015250565b7f5061757361626c653a2070617573656400000000000000000000000000000000600082015250565b7f506c6561736520636865636b206261636b2c2074686520656c656374696f6e2060008201527f686173206e6f7420737461727465642100000000000000000000000000000000602082015250565b7f61746c65617374206f6e6520706572736f6e2073686f756c6420636f6e74657360008201527f7400000000000000000000000000000000000000000000000000000000000000602082015250565b7f536f7272792c2074686520456c656374696f6e2068617320656e646564210000600082015250565b7f496e76616c69642063616e64696461746520746f20566f746521000000000000600082015250565b7f6f6e6c792063686169726d616e2063616e2063616c6c20746869732066756e6360008201527f74696f6e00000000000000000000000000000000000000000000000000000000602082015250565b7f566f7465722068617320616c726561647920566f746564210000000000000000600082015250565b7f54686520526573756c7473206d757374206265206d616465207075626c696300600082015250565b7f736f7272792c206f6e6c79207374616b65686f6c646572732061726520656c6960008201527f6769626c6520746f20766f746500000000000000000000000000000000000000602082015250565b613a1d81613483565b8114613a2857600080fd5b50565b613a34816134a1565b8114613a3f57600080fd5b50565b613a4b816134cb565b8114613a5657600080fd5b5056fea26469706673582212207c20b3881d86ca9501080845419abc9763d988bb0790eca0ef3372b8d576607964736f6c63430008040033",
  "linkReferences": {},
  "deployedLinkReferences": {}
}