{
  "contracts/ZuriElection.sol": {
    "ZuriElection": {
      "abi": [
        {
          "inputs": [
            {
              "internalType": "bytes32",
              "name": "merkleRoot",
              "type": "bytes32"
            }
          ],
          "stateMutability": "nonpayable",
          "type": "constructor"
        },
        {
          "inputs": [],
          "name": "ElectionHasEnded",
          "type": "error"
        },
        {
          "inputs": [],
          "name": "ElectionNotStarted",
          "type": "error"
        },
        {
          "anonymous": false,
          "inputs": [
            {
              "indexed": false,
              "internalType": "uint256",
              "name": "_candidateId",
              "type": "uint256"
            },
            {
              "indexed": false,
              "internalType": "string",
              "name": "_candidateName",
              "type": "string"
            }
          ],
          "name": "CandidateCreated",
          "type": "event"
        },
        {
          "anonymous": false,
          "inputs": [
            {
              "indexed": false,
              "internalType": "uint256[]",
              "name": "_winnerIds",
              "type": "uint256[]"
            },
            {
              "indexed": false,
              "internalType": "uint256",
              "name": "_winnerVoteCount",
              "type": "uint256"
            }
          ],
          "name": "ElectionEnded",
          "type": "event"
        },
        {
          "anonymous": false,
          "inputs": [
            {
              "indexed": false,
              "internalType": "address",
              "name": "account",
              "type": "address"
            }
          ],
          "name": "Paused",
          "type": "event"
        },
        {
          "anonymous": false,
          "inputs": [
            {
              "indexed": false,
              "internalType": "address",
              "name": "account",
              "type": "address"
            }
          ],
          "name": "Unpaused",
          "type": "event"
        },
        {
          "anonymous": false,
          "inputs": [
            {
              "indexed": false,
              "internalType": "uint256",
              "name": "_candidateId",
              "type": "uint256"
            },
            {
              "indexed": false,
              "internalType": "uint256",
              "name": "_candidateVoteCount",
              "type": "uint256"
            }
          ],
          "name": "VoteForCandidate",
          "type": "event"
        },
        {
          "inputs": [],
          "name": "Active",
          "outputs": [
            {
              "internalType": "bool",
              "name": "",
              "type": "bool"
            }
          ],
          "stateMutability": "view",
          "type": "function"
        },
        {
          "inputs": [],
          "name": "Ended",
          "outputs": [
            {
              "internalType": "bool",
              "name": "",
              "type": "bool"
            }
          ],
          "stateMutability": "view",
          "type": "function"
        },
        {
          "inputs": [
            {
              "internalType": "address",
              "name": "_newTeacher",
              "type": "address"
            }
          ],
          "name": "addTeacher",
          "outputs": [],
          "stateMutability": "nonpayable",
          "type": "function"
        },
        {
          "inputs": [
            {
              "internalType": "uint256",
              "name": "",
              "type": "uint256"
            }
          ],
          "name": "candidates",
          "outputs": [
            {
              "internalType": "uint256",
              "name": "id",
              "type": "uint256"
            },
            {
              "internalType": "string",
              "name": "name",
              "type": "string"
            },
            {
              "internalType": "uint256",
              "name": "voteCount",
              "type": "uint256"
            }
          ],
          "stateMutability": "view",
          "type": "function"
        },
        {
          "inputs": [],
          "name": "candidatesCount",
          "outputs": [
            {
              "internalType": "uint256",
              "name": "",
              "type": "uint256"
            }
          ],
          "stateMutability": "view",
          "type": "function"
        },
        {
          "inputs": [],
          "name": "chairman",
          "outputs": [
            {
              "internalType": "address",
              "name": "",
              "type": "address"
            }
          ],
          "stateMutability": "view",
          "type": "function"
        },
        {
          "inputs": [
            {
              "internalType": "address",
              "name": "_newChairman",
              "type": "address"
            }
          ],
          "name": "changeChairman",
          "outputs": [],
          "stateMutability": "nonpayable",
          "type": "function"
        },
        {
          "inputs": [],
          "name": "description",
          "outputs": [
            {
              "internalType": "string",
              "name": "",
              "type": "string"
            }
          ],
          "stateMutability": "view",
          "type": "function"
        },
        {
          "inputs": [],
          "name": "endElection",
          "outputs": [],
          "stateMutability": "nonpayable",
          "type": "function"
        },
        {
          "inputs": [],
          "name": "getCandidates",
          "outputs": [
            {
              "components": [
                {
                  "internalType": "uint256",
                  "name": "id",
                  "type": "uint256"
                },
                {
                  "internalType": "string",
                  "name": "name",
                  "type": "string"
                },
                {
                  "internalType": "uint256",
                  "name": "voteCount",
                  "type": "uint256"
                }
              ],
              "internalType": "struct ZuriElection.Candidate[]",
              "name": "",
              "type": "tuple[]"
            }
          ],
          "stateMutability": "view",
          "type": "function"
        },
        {
          "inputs": [
            {
              "internalType": "bytes32[]",
              "name": "proof",
              "type": "bytes32[]"
            },
            {
              "internalType": "bytes32",
              "name": "leaf",
              "type": "bytes32"
            }
          ],
          "name": "isValid",
          "outputs": [
            {
              "internalType": "bool",
              "name": "",
              "type": "bool"
            }
          ],
          "stateMutability": "view",
          "type": "function"
        },
        {
          "inputs": [],
          "name": "makeResultPublic",
          "outputs": [
            {
              "internalType": "uint256",
              "name": "",
              "type": "uint256"
            },
            {
              "internalType": "uint256[]",
              "name": "",
              "type": "uint256[]"
            }
          ],
          "stateMutability": "view",
          "type": "function"
        },
        {
          "inputs": [],
          "name": "pause",
          "outputs": [],
          "stateMutability": "nonpayable",
          "type": "function"
        },
        {
          "inputs": [],
          "name": "paused",
          "outputs": [
            {
              "internalType": "bool",
              "name": "",
              "type": "bool"
            }
          ],
          "stateMutability": "view",
          "type": "function"
        },
        {
          "inputs": [],
          "name": "position",
          "outputs": [
            {
              "internalType": "string",
              "name": "",
              "type": "string"
            }
          ],
          "stateMutability": "view",
          "type": "function"
        },
        {
          "inputs": [
            {
              "internalType": "address",
              "name": "_teacher",
              "type": "address"
            }
          ],
          "name": "removeTeacher",
          "outputs": [],
          "stateMutability": "nonpayable",
          "type": "function"
        },
        {
          "inputs": [],
          "name": "root",
          "outputs": [
            {
              "internalType": "bytes32",
              "name": "",
              "type": "bytes32"
            }
          ],
          "stateMutability": "view",
          "type": "function"
        },
        {
          "inputs": [
            {
              "internalType": "string[]",
              "name": "_prop",
              "type": "string[]"
            },
            {
              "internalType": "string[]",
              "name": "_candidates",
              "type": "string[]"
            }
          ],
          "name": "setUpElection",
          "outputs": [],
          "stateMutability": "nonpayable",
          "type": "function"
        },
        {
          "inputs": [],
          "name": "startElection",
          "outputs": [],
          "stateMutability": "nonpayable",
          "type": "function"
        },
        {
          "inputs": [
            {
              "internalType": "address",
              "name": "",
              "type": "address"
            }
          ],
          "name": "teachers",
          "outputs": [
            {
              "internalType": "bool",
              "name": "",
              "type": "bool"
            }
          ],
          "stateMutability": "view",
          "type": "function"
        },
        {
          "inputs": [],
          "name": "unpause",
          "outputs": [],
          "stateMutability": "nonpayable",
          "type": "function"
        },
        {
          "inputs": [
            {
              "internalType": "uint256",
              "name": "_candidateId",
              "type": "uint256"
            },
            {
              "internalType": "bytes32[]",
              "name": "hexProof",
              "type": "bytes32[]"
            }
          ],
          "name": "vote",
          "outputs": [],
          "stateMutability": "nonpayable",
          "type": "function"
        },
        {
          "inputs": [
            {
              "internalType": "address",
              "name": "",
              "type": "address"
            }
          ],
          "name": "voted",
          "outputs": [
            {
              "internalType": "bool",
              "name": "",
              "type": "bool"
            }
          ],
          "stateMutability": "view",
          "type": "function"
        },
        {
          "inputs": [
            {
              "internalType": "uint256",
              "name": "",
              "type": "uint256"
            }
          ],
          "name": "winnerIds",
          "outputs": [
            {
              "internalType": "uint256",
              "name": "",
              "type": "uint256"
            }
          ],
          "stateMutability": "view",
          "type": "function"
        },
        {
          "inputs": [],
          "name": "winnerVoteCount",
          "outputs": [
            {
              "internalType": "uint256",
              "name": "",
              "type": "uint256"
            }
          ],
          "stateMutability": "view",
          "type": "function"
        }
      ],
      "evm": {
        "bytecode": {
          "linkReferences": {},
          "object": "60806040523480156200001157600080fd5b50604051620030ff380380620030ff8339818101604052810190620000379190620000f5565b60008060006101000a81548160ff02191690831515021790555033600060016101000a81548173ffffffffffffffffffffffffffffffffffffffff021916908373ffffffffffffffffffffffffffffffffffffffff1602179055506000600a60006101000a81548160ff0219169083151502179055506000600a60016101000a81548160ff0219169083151502179055506000600481905550806003819055505062000145565b600081519050620000ef816200012b565b92915050565b6000602082840312156200010857600080fd5b60006200011884828501620000de565b91505092915050565b6000819050919050565b620001368162000121565b81146200014257600080fd5b50565b612faa80620001556000396000f3fe608060405234801561001057600080fd5b50600436106101735760003560e01c806362d73eb8116100de578063aec2ccae11610097578063e810186911610071578063e8101869146103e3578063ebf0c717146103ff578063f0a47f781461041d578063fd27419b1461044d57610173565b8063aec2ccae14610365578063b8a20ed014610395578063c9b0a2a7146103c557610173565b806362d73eb8146102da5780637284e416146102e457806379bf09ab146103025780638456cb591461031e57806387f7b9751461032857806395adfc5e1461034657610173565b80633f4ba83a116101305780633f4ba83a1461023e578063403d131214610248578063477383f31461027857806352ff68461461029657806359f78468146102b25780635c975abb146102bc57610173565b806306a49fce1461017857806309218e91146101965780632d35a8a2146101b45780632f22850d146101d25780633477ee2e146101f05780633bc6e30914610222575b600080fd5b610180610469565b60405161018d91906125cf565b60405180910390f35b61019e610621565b6040516101ab9190612657565b60405180910390f35b6101bc6106af565b6040516101c991906127d9565b60405180910390f35b6101da6106b5565b6040516101e791906127d9565b60405180910390f35b61020a6004803603810190610205919061210f565b6106bb565b60405161021993929190612854565b60405180910390f35b61023c60048036038101906102379190612026565b61076d565b005b6102466108fb565b005b610262600480360381019061025d919061210f565b6109d3565b60405161026f91906127d9565b60405180910390f35b6102806109f7565b60405161028d9190612621565b60405180910390f35b6102b060048036038101906102ab9190612026565b610a0a565b005b6102ba610b98565b005b6102c4610cd3565b6040516102d19190612621565b60405180910390f35b6102e2610ce9565b005b6102ec610dde565b6040516102f99190612657565b60405180910390f35b61031c600480360381019061031791906120a3565b610e6c565b005b610326611100565b005b6103306111d8565b60405161033d91906125b4565b60405180910390f35b61034e6111fe565b60405161035c9291906127f4565b60405180910390f35b61037f600480360381019061037a9190612026565b61134c565b60405161038c9190612621565b60405180910390f35b6103af60048036038101906103aa919061204f565b61136c565b6040516103bc9190612621565b60405180910390f35b6103cd611383565b6040516103da9190612621565b60405180910390f35b6103fd60048036038101906103f89190612026565b611396565b005b6104076114b2565b604051610414919061263c565b60405180910390f35b61043760048036038101906104329190612026565b6114b8565b6040516104449190612621565b60405180910390f35b61046760048036038101906104629190612138565b6114d8565b005b6060600060045467ffffffffffffffff8111156104af577f4e487b7100000000000000000000000000000000000000000000000000000000600052604160045260246000fd5b6040519080825280602002602001820160405280156104e857816020015b6104d5611d0a565b8152602001906001900390816104cd5790505b50905060005b600454811015610619576000600760008381526020019081526020016000209050806040518060600160405290816000820154815260200160018201805461053590612ad3565b80601f016020809104026020016040519081016040528092919081815260200182805461056190612ad3565b80156105ae5780601f10610583576101008083540402835291602001916105ae565b820191906000526020600020905b81548152906001019060200180831161059157829003601f168201915b505050505081526020016002820154815250508383815181106105fa577f4e487b7100000000000000000000000000000000000000000000000000000000600052603260045260246000fd5b602002602001018190525050808061061190612b50565b9150506104ee565b508091505090565b6001805461062e90612ad3565b80601f016020809104026020016040519081016040528092919081815260200182805461065a90612ad3565b80156106a75780601f1061067c576101008083540402835291602001916106a7565b820191906000526020600020905b81548152906001019060200180831161068a57829003601f168201915b505050505081565b60045481565b60095481565b60076020528060005260406000206000915090508060000154908060010180546106e490612ad3565b80601f016020809104026020016040519081016040528092919081815260200182805461071090612ad3565b801561075d5780601f106107325761010080835404028352916020019161075d565b820191906000526020600020905b81548152906001019060200180831161074057829003601f168201915b5050505050908060020154905083565b610775610cd3565b156107b5576040517f08c379a00000000000000000000000000000000000000000000000000000000081526004016107ac906126d9565b60405180910390fd5b3373ffffffffffffffffffffffffffffffffffffffff16600060019054906101000a900473ffffffffffffffffffffffffffffffffffffffff1673ffffffffffffffffffffffffffffffffffffffff161480610861575060011515600560003373ffffffffffffffffffffffffffffffffffffffff1673ffffffffffffffffffffffffffffffffffffffff16815260200190815260200160002060009054906101000a900460ff161515145b6108a0576040517f08c379a0000000000000000000000000000000000000000000000000000000008152600401610897906126b9565b60405180910390fd5b6001600560008373ffffffffffffffffffffffffffffffffffffffff1673ffffffffffffffffffffffffffffffffffffffff16815260200190815260200160002060006101000a81548160ff02191690831515021790555050565b600060019054906101000a900473ffffffffffffffffffffffffffffffffffffffff1673ffffffffffffffffffffffffffffffffffffffff163373ffffffffffffffffffffffffffffffffffffffff161461098b576040517f08c379a000000000000000000000000000000000000000000000000000000000815260040161098290612779565b60405180910390fd5b610993611636565b7f5db9ee0a495bf2e6ff9c91a7834c1ba4fdd244a5e8aa4e537bd38aeae4b073aa6109bc6116d7565b6040516109c991906125b4565b60405180910390a1565b600881815481106109e357600080fd5b906000526020600020016000915090505481565b600a60019054906101000a900460ff1681565b610a12610cd3565b15610a52576040517f08c379a0000000000000000000000000000000000000000000000000000000008152600401610a49906126d9565b60405180910390fd5b3373ffffffffffffffffffffffffffffffffffffffff16600060019054906101000a900473ffffffffffffffffffffffffffffffffffffffff1673ffffffffffffffffffffffffffffffffffffffff161480610afe575060011515600560003373ffffffffffffffffffffffffffffffffffffffff1673ffffffffffffffffffffffffffffffffffffffff16815260200190815260200160002060009054906101000a900460ff161515145b610b3d576040517f08c379a0000000000000000000000000000000000000000000000000000000008152600401610b34906126b9565b60405180910390fd5b6000600560008373ffffffffffffffffffffffffffffffffffffffff1673ffffffffffffffffffffffffffffffffffffffff16815260200190815260200160002060006101000a81548160ff02191690831515021790555050565b610ba0610cd3565b15610be0576040517f08c379a0000000000000000000000000000000000000000000000000000000008152600401610bd7906126d9565b60405180910390fd5b600060019054906101000a900473ffffffffffffffffffffffffffffffffffffffff1673ffffffffffffffffffffffffffffffffffffffff163373ffffffffffffffffffffffffffffffffffffffff1614610c70576040517f08c379a0000000000000000000000000000000000000000000000000000000008152600401610c6790612779565b60405180910390fd5b6001600a60016101000a81548160ff021916908315150217905550610c936116df565b50507f38d8ebbbb4803f034f19b4cf2f19bfb84cc5dea177696c1f80a19357d5602e046008600954604051610cc99291906125f1565b60405180910390a1565b60008060009054906101000a900460ff16905090565b610cf1610cd3565b15610d31576040517f08c379a0000000000000000000000000000000000000000000000000000000008152600401610d28906126d9565b60405180910390fd5b600060019054906101000a900473ffffffffffffffffffffffffffffffffffffffff1673ffffffffffffffffffffffffffffffffffffffff163373ffffffffffffffffffffffffffffffffffffffff1614610dc1576040517f08c379a0000000000000000000000000000000000000000000000000000000008152600401610db890612779565b60405180910390fd5b6001600a60006101000a81548160ff021916908315150217905550565b60028054610deb90612ad3565b80601f0160208091040260200160405190810160405280929190818152602001828054610e1790612ad3565b8015610e645780601f10610e3957610100808354040283529160200191610e64565b820191906000526020600020905b815481529060010190602001808311610e4757829003601f168201915b505050505081565b610e74610cd3565b15610eb4576040517f08c379a0000000000000000000000000000000000000000000000000000000008152600401610eab906126d9565b60405180910390fd5b6000815111610ef8576040517f08c379a0000000000000000000000000000000000000000000000000000000008152600401610eef90612719565b60405180910390fd5b3373ffffffffffffffffffffffffffffffffffffffff16600060019054906101000a900473ffffffffffffffffffffffffffffffffffffffff1673ffffffffffffffffffffffffffffffffffffffff161480610fa4575060011515600560003373ffffffffffffffffffffffffffffffffffffffff1673ffffffffffffffffffffffffffffffffffffffff16815260200190815260200160002060009054906101000a900460ff161515145b610fe3576040517f08c379a0000000000000000000000000000000000000000000000000000000008152600401610fda906126b9565b60405180910390fd5b8160008151811061101d577f4e487b7100000000000000000000000000000000000000000000000000000000600052603260045260246000fd5b60200260200101516001908051906020019061103a929190611d2b565b5081600181518110611075577f4e487b7100000000000000000000000000000000000000000000000000000000600052603260045260246000fd5b602002602001015160029080519060200190611092929190611d2b565b5060005b81518110156110fb576110e88282815181106110db577f4e487b7100000000000000000000000000000000000000000000000000000000600052603260045260246000fd5b602002602001015161189b565b80806110f390612b50565b915050611096565b505050565b600060019054906101000a900473ffffffffffffffffffffffffffffffffffffffff1673ffffffffffffffffffffffffffffffffffffffff163373ffffffffffffffffffffffffffffffffffffffff1614611190576040517f08c379a000000000000000000000000000000000000000000000000000000000815260040161118790612779565b60405180910390fd5b6111986119a0565b7f62e78cea01bee320cd4e420270b5ea74000d11b0c9f74754ebdbfc544b05a2586111c16116d7565b6040516111ce91906125b4565b60405180910390a1565b600060019054906101000a900473ffffffffffffffffffffffffffffffffffffffff1681565b600060603373ffffffffffffffffffffffffffffffffffffffff16600060019054906101000a900473ffffffffffffffffffffffffffffffffffffffff1673ffffffffffffffffffffffffffffffffffffffff1614806112ae575060011515600560003373ffffffffffffffffffffffffffffffffffffffff1673ffffffffffffffffffffffffffffffffffffffff16815260200190815260200160002060009054906101000a900460ff161515145b6112ed576040517f08c379a00000000000000000000000000000000000000000000000000000000081526004016112e490612699565b60405180910390fd5b60095460088080548060200260200160405190810160405280929190818152602001828054801561133d57602002820191906000526020600020905b815481526020019060010190808311611329575b50505050509050915091509091565b60066020528060005260406000206000915054906101000a900460ff1681565b600061137b8360035484611a42565b905092915050565b600a60009054906101000a900460ff1681565b61139e610cd3565b156113de576040517f08c379a00000000000000000000000000000000000000000000000000000000081526004016113d5906126d9565b60405180910390fd5b600060019054906101000a900473ffffffffffffffffffffffffffffffffffffffff1673ffffffffffffffffffffffffffffffffffffffff163373ffffffffffffffffffffffffffffffffffffffff161461146e576040517f08c379a000000000000000000000000000000000000000000000000000000000815260040161146590612779565b60405180910390fd5b80600060016101000a81548173ffffffffffffffffffffffffffffffffffffffff021916908373ffffffffffffffffffffffffffffffffffffffff16021790555050565b60035481565b60056020528060005260406000206000915054906101000a900460ff1681565b600a60019054906101000a900460ff1615611528576040517f08c379a000000000000000000000000000000000000000000000000000000000815260040161151f90612739565b60405180910390fd5b600a60009054906101000a900460ff16611577576040517f08c379a000000000000000000000000000000000000000000000000000000000815260040161156e906126f9565b60405180910390fd5b6115e8828280806020026020016040519081016040528093929190818152602001838360200280828437600081840152601f19601f82011690508083019250505050505050336040516020016115cd9190612599565b6040516020818303038152906040528051906020012061136c565b611627576040517f08c379a000000000000000000000000000000000000000000000000000000000815260040161161e906127b9565b60405180910390fd5b6116318333611a59565b505050565b61163e610cd3565b61167d576040517f08c379a000000000000000000000000000000000000000000000000000000000815260040161167490612679565b60405180910390fd5b60008060006101000a81548160ff0219169083151502179055507f5db9ee0a495bf2e6ff9c91a7834c1ba4fdd244a5e8aa4e537bd38aeae4b073aa6116c06116d7565b6040516116cd91906125b4565b60405180910390a1565b600033905090565b600060606116eb610cd3565b1561172b576040517f08c379a0000000000000000000000000000000000000000000000000000000008152600401611722906126d9565b60405180910390fd5b60005b60045481101561183b57600954600760008381526020019081526020016000206002015411156117c7576007600082815260200190815260200160002060020154600981905550600860006117839190611db1565b600860076000838152602001908152602001600020600001549080600181540180825580915050600190039060005260206000200160009091909190915055611828565b60095460076000838152602001908152602001600020600201541415611827576008600760008381526020019081526020016000206000015490806001815401808255809150506001900390600052602060002001600090919091909150555b5b808061183390612b50565b91505061172e565b5060095460088080548060200260200160405190810160405280929190818152602001828054801561188c57602002820191906000526020600020905b815481526020019060010190808311611878575b50505050509050915091509091565b6118a3610cd3565b156118e3576040517f08c379a00000000000000000000000000000000000000000000000000000000081526004016118da906126d9565b60405180910390fd5b60405180606001604052806004548152602001828152602001600081525060076000600454815260200190815260200160002060008201518160000155602082015181600101908051906020019061193c929190611d2b565b50604082015181600201559050507f78d27a3c512303f604b46bc28acc0ca45abe6420172a017c5a6dc585821eb6396004548260405161197d929190612824565b60405180910390a16004600081548092919061199890612b50565b919050555050565b6119a8610cd3565b156119e8576040517f08c379a00000000000000000000000000000000000000000000000000000000081526004016119df906126d9565b60405180910390fd5b60016000806101000a81548160ff0219169083151502179055507f62e78cea01bee320cd4e420270b5ea74000d11b0c9f74754ebdbfc544b05a258611a2b6116d7565b604051611a3891906125b4565b60405180910390a1565b600082611a4f8584611c58565b1490509392505050565b611a61610cd3565b15611aa1576040517f08c379a0000000000000000000000000000000000000000000000000000000008152600401611a98906126d9565b60405180910390fd5b8160045481108015611ab4575060008110155b611af3576040517f08c379a0000000000000000000000000000000000000000000000000000000008152600401611aea90612759565b60405180910390fd5b600660008373ffffffffffffffffffffffffffffffffffffffff1673ffffffffffffffffffffffffffffffffffffffff16815260200190815260200160002060009054906101000a900460ff1615611b80576040517f08c379a0000000000000000000000000000000000000000000000000000000008152600401611b7790612799565b60405180910390fd5b6001600660008473ffffffffffffffffffffffffffffffffffffffff1673ffffffffffffffffffffffffffffffffffffffff16815260200190815260200160002060006101000a81548160ff021916908315150217905550600760008481526020019081526020016000206002016000815480929190611bff90612b50565b91905055507fd3ebd88818d034d26c5d98bcef9c7c45207130238e76e8cf0b3ba00e906851bf836007600086815260200190815260200160002060020154604051611c4b929190612892565b60405180910390a1505050565b60008082905060005b8451811015611ce8576000858281518110611ca5577f4e487b7100000000000000000000000000000000000000000000000000000000600052603260045260246000fd5b60200260200101519050808311611cc757611cc08382611cf3565b9250611cd4565b611cd18184611cf3565b92505b508080611ce090612b50565b915050611c61565b508091505092915050565b600082600052816020526040600020905092915050565b60405180606001604052806000815260200160608152602001600081525090565b828054611d3790612ad3565b90600052602060002090601f016020900481019282611d595760008555611da0565b82601f10611d7257805160ff1916838001178555611da0565b82800160010185558215611da0579182015b82811115611d9f578251825591602001919060010190611d84565b5b509050611dad9190611dd2565b5090565b5080546000825590600052602060002090810190611dcf9190611dd2565b50565b5b80821115611deb576000816000905550600101611dd3565b5090565b6000611e02611dfd846128e0565b6128bb565b90508083825260208201905082856020860282011115611e2157600080fd5b60005b85811015611e515781611e378882611fd2565b845260208401935060208301925050600181019050611e24565b5050509392505050565b6000611e6e611e698461290c565b6128bb565b90508083825260208201905082856020860282011115611e8d57600080fd5b60005b85811015611ed757813567ffffffffffffffff811115611eaf57600080fd5b808601611ebc8982611fe7565b85526020850194506020840193505050600181019050611e90565b5050509392505050565b6000611ef4611eef84612938565b6128bb565b905082815260208101848484011115611f0c57600080fd5b611f17848285612a91565b509392505050565b600081359050611f2e81612f2f565b92915050565b60008083601f840112611f4657600080fd5b8235905067ffffffffffffffff811115611f5f57600080fd5b602083019150836020820283011115611f7757600080fd5b9250929050565b600082601f830112611f8f57600080fd5b8135611f9f848260208601611def565b91505092915050565b600082601f830112611fb957600080fd5b8135611fc9848260208601611e5b565b91505092915050565b600081359050611fe181612f46565b92915050565b600082601f830112611ff857600080fd5b8135612008848260208601611ee1565b91505092915050565b60008135905061202081612f5d565b92915050565b60006020828403121561203857600080fd5b600061204684828501611f1f565b91505092915050565b6000806040838503121561206257600080fd5b600083013567ffffffffffffffff81111561207c57600080fd5b61208885828601611f7e565b925050602061209985828601611fd2565b9150509250929050565b600080604083850312156120b657600080fd5b600083013567ffffffffffffffff8111156120d057600080fd5b6120dc85828601611fa8565b925050602083013567ffffffffffffffff8111156120f957600080fd5b61210585828601611fa8565b9150509250929050565b60006020828403121561212157600080fd5b600061212f84828501612011565b91505092915050565b60008060006040848603121561214d57600080fd5b600061215b86828701612011565b935050602084013567ffffffffffffffff81111561217857600080fd5b61218486828701611f34565b92509250509250925092565b600061219c838361252b565b905092915050565b60006121b0838361257b565b60208301905092915050565b6121c581612a3f565b82525050565b6121dc6121d782612a3f565b612b99565b82525050565b60006121ed8261299e565b6121f781856129f1565b93508360208202850161220985612969565b8060005b8581101561224557848403895281516122268582612190565b9450612231836129ca565b925060208a0199505060018101905061220d565b50829750879550505050505092915050565b6000612262826129a9565b61226c8185612a02565b935061227783612979565b8060005b838110156122a857815161228f88826121a4565b975061229a836129d7565b92505060018101905061227b565b5085935050505092915050565b60006122c0826129b4565b6122ca8185612a02565b93506122d583612989565b8060005b8381101561230d576122ea82612c4a565b6122f488826121a4565b97506122ff836129e4565b9250506001810190506122d9565b5085935050505092915050565b61232381612a51565b82525050565b61233281612a5d565b82525050565b6000612343826129bf565b61234d8185612a13565b935061235d818560208601612aa0565b61236681612c5d565b840191505092915050565b600061237c826129bf565b6123868185612a24565b9350612396818560208601612aa0565b61239f81612c5d565b840191505092915050565b60006123b7601483612a24565b91506123c282612c88565b602082019050919050565b60006123da602e83612a24565b91506123e582612cb1565b604082019050919050565b60006123fd602d83612a24565b915061240882612d00565b604082019050919050565b6000612420601083612a24565b915061242b82612d4f565b602082019050919050565b6000612443603083612a24565b915061244e82612d78565b604082019050919050565b6000612466602183612a24565b915061247182612dc7565b604082019050919050565b6000612489601e83612a24565b915061249482612e16565b602082019050919050565b60006124ac601a83612a24565b91506124b782612e3f565b602082019050919050565b60006124cf602483612a24565b91506124da82612e68565b604082019050919050565b60006124f2601883612a24565b91506124fd82612eb7565b602082019050919050565b6000612515602d83612a24565b915061252082612ee0565b604082019050919050565b6000606083016000830151612543600086018261257b565b506020830151848203602086015261255b8282612338565b9150506040830151612570604086018261257b565b508091505092915050565b61258481612a87565b82525050565b61259381612a87565b82525050565b60006125a582846121cb565b60148201915081905092915050565b60006020820190506125c960008301846121bc565b92915050565b600060208201905081810360008301526125e981846121e2565b905092915050565b6000604082019050818103600083015261260b81856122b5565b905061261a602083018461258a565b9392505050565b6000602082019050612636600083018461231a565b92915050565b60006020820190506126516000830184612329565b92915050565b600060208201905081810360008301526126718184612371565b905092915050565b60006020820190508181036000830152612692816123aa565b9050919050565b600060208201905081810360008301526126b2816123cd565b9050919050565b600060208201905081810360008301526126d2816123f0565b9050919050565b600060208201905081810360008301526126f281612413565b9050919050565b6000602082019050818103600083015261271281612436565b9050919050565b6000602082019050818103600083015261273281612459565b9050919050565b600060208201905081810360008301526127528161247c565b9050919050565b600060208201905081810360008301526127728161249f565b9050919050565b60006020820190508181036000830152612792816124c2565b9050919050565b600060208201905081810360008301526127b2816124e5565b9050919050565b600060208201905081810360008301526127d281612508565b9050919050565b60006020820190506127ee600083018461258a565b92915050565b6000604082019050612809600083018561258a565b818103602083015261281b8184612257565b90509392505050565b6000604082019050612839600083018561258a565b818103602083015261284b8184612371565b90509392505050565b6000606082019050612869600083018661258a565b818103602083015261287b8185612371565b905061288a604083018461258a565b949350505050565b60006040820190506128a7600083018561258a565b6128b4602083018461258a565b9392505050565b60006128c56128d6565b90506128d18282612b1f565b919050565b6000604051905090565b600067ffffffffffffffff8211156128fb576128fa612c1b565b5b602082029050602081019050919050565b600067ffffffffffffffff82111561292757612926612c1b565b5b602082029050602081019050919050565b600067ffffffffffffffff82111561295357612952612c1b565b5b61295c82612c5d565b9050602081019050919050565b6000819050602082019050919050565b6000819050602082019050919050565b60008190508160005260206000209050919050565b600081519050919050565b600081519050919050565b600081549050919050565b600081519050919050565b6000602082019050919050565b6000602082019050919050565b6000600182019050919050565b600082825260208201905092915050565b600082825260208201905092915050565b600082825260208201905092915050565b600082825260208201905092915050565b6000819050919050565b6000612a4a82612a67565b9050919050565b60008115159050919050565b6000819050919050565b600073ffffffffffffffffffffffffffffffffffffffff82169050919050565b6000819050919050565b82818337600083830152505050565b60005b83811015612abe578082015181840152602081019050612aa3565b83811115612acd576000848401525b50505050565b60006002820490506001821680612aeb57607f821691505b60208210811415612aff57612afe612bec565b5b50919050565b6000612b18612b1383612c7b565b612a35565b9050919050565b612b2882612c5d565b810181811067ffffffffffffffff82111715612b4757612b46612c1b565b5b80604052505050565b6000612b5b82612a87565b91507fffffffffffffffffffffffffffffffffffffffffffffffffffffffffffffffff821415612b8e57612b8d612bbd565b5b600182019050919050565b6000612ba482612bab565b9050919050565b6000612bb682612c6e565b9050919050565b7f4e487b7100000000000000000000000000000000000000000000000000000000600052601160045260246000fd5b7f4e487b7100000000000000000000000000000000000000000000000000000000600052602260045260246000fd5b7f4e487b7100000000000000000000000000000000000000000000000000000000600052604160045260246000fd5b6000612c568254612b05565b9050919050565b6000601f19601f8301169050919050565b60008160601b9050919050565b60008160001c9050919050565b7f5061757361626c653a206e6f7420706175736564000000000000000000000000600082015250565b7f6f6e6c792074656163686572732f63686169726d616e2063616e206d616b652060008201527f726573756c7473207075626c6963000000000000000000000000000000000000602082015250565b7f6f6e6c792074656163686572732f63686169726d616e2063616e2063616c6c2060008201527f746869732066756e6374696f6e00000000000000000000000000000000000000602082015250565b7f5061757361626c653a2070617573656400000000000000000000000000000000600082015250565b7f506c6561736520636865636b206261636b2c2074686520656c656374696f6e2060008201527f686173206e6f7420737461727465642100000000000000000000000000000000602082015250565b7f61746c65617374206f6e6520706572736f6e2073686f756c6420636f6e74657360008201527f7400000000000000000000000000000000000000000000000000000000000000602082015250565b7f536f7272792c2074686520456c656374696f6e2068617320656e646564210000600082015250565b7f496e76616c69642063616e64696461746520746f20566f746521000000000000600082015250565b7f6f6e6c792063686169726d616e2063616e2063616c6c20746869732066756e6360008201527f74696f6e00000000000000000000000000000000000000000000000000000000602082015250565b7f566f7465722068617320616c726561647920566f746564210000000000000000600082015250565b7f736f7272792c206f6e6c79207374616b65686f6c646572732061726520656c6960008201527f6769626c6520746f20766f746500000000000000000000000000000000000000602082015250565b612f3881612a3f565b8114612f4357600080fd5b50565b612f4f81612a5d565b8114612f5a57600080fd5b50565b612f6681612a87565b8114612f7157600080fd5b5056fea26469706673582212203badbb725d8e8b8c3d1c0222f2c22081b4d109d818da7f43c8e524f3058921ce64736f6c63430008040033",
          "opcodes": "PUSH1 0x80 PUSH1 0x40 MSTORE CALLVALUE DUP1 ISZERO PUSH3 0x11 JUMPI PUSH1 0x0 DUP1 REVERT JUMPDEST POP PUSH1 0x40 MLOAD PUSH3 0x30FF CODESIZE SUB DUP1 PUSH3 0x30FF DUP4 CODECOPY DUP2 DUP2 ADD PUSH1 0x40 MSTORE DUP2 ADD SWAP1 PUSH3 0x37 SWAP2 SWAP1 PUSH3 0xF5 JUMP JUMPDEST PUSH1 0x0 DUP1 PUSH1 0x0 PUSH2 0x100 EXP DUP2 SLOAD DUP2 PUSH1 0xFF MUL NOT AND SWAP1 DUP4 ISZERO ISZERO MUL OR SWAP1 SSTORE POP CALLER PUSH1 0x0 PUSH1 0x1 PUSH2 0x100 EXP DUP2 SLOAD DUP2 PUSH20 0xFFFFFFFFFFFFFFFFFFFFFFFFFFFFFFFFFFFFFFFF MUL NOT AND SWAP1 DUP4 PUSH20 0xFFFFFFFFFFFFFFFFFFFFFFFFFFFFFFFFFFFFFFFF AND MUL OR SWAP1 SSTORE POP PUSH1 0x0 PUSH1 0xA PUSH1 0x0 PUSH2 0x100 EXP DUP2 SLOAD DUP2 PUSH1 0xFF MUL NOT AND SWAP1 DUP4 ISZERO ISZERO MUL OR SWAP1 SSTORE POP PUSH1 0x0 PUSH1 0xA PUSH1 0x1 PUSH2 0x100 EXP DUP2 SLOAD DUP2 PUSH1 0xFF MUL NOT AND SWAP1 DUP4 ISZERO ISZERO MUL OR SWAP1 SSTORE POP PUSH1 0x0 PUSH1 0x4 DUP2 SWAP1 SSTORE POP DUP1 PUSH1 0x3 DUP2 SWAP1 SSTORE POP POP PUSH3 0x145 JUMP JUMPDEST PUSH1 0x0 DUP2 MLOAD SWAP1 POP PUSH3 0xEF DUP2 PUSH3 0x12B JUMP JUMPDEST SWAP3 SWAP2 POP POP JUMP JUMPDEST PUSH1 0x0 PUSH1 0x20 DUP3 DUP5 SUB SLT ISZERO PUSH3 0x108 JUMPI PUSH1 0x0 DUP1 REVERT JUMPDEST PUSH1 0x0 PUSH3 0x118 DUP5 DUP3 DUP6 ADD PUSH3 0xDE JUMP JUMPDEST SWAP2 POP POP SWAP3 SWAP2 POP POP JUMP JUMPDEST PUSH1 0x0 DUP2 SWAP1 POP SWAP2 SWAP1 POP JUMP JUMPDEST PUSH3 0x136 DUP2 PUSH3 0x121 JUMP JUMPDEST DUP2 EQ PUSH3 0x142 JUMPI PUSH1 0x0 DUP1 REVERT JUMPDEST POP JUMP JUMPDEST PUSH2 0x2FAA DUP1 PUSH3 0x155 PUSH1 0x0 CODECOPY PUSH1 0x0 RETURN INVALID PUSH1 0x80 PUSH1 0x40 MSTORE CALLVALUE DUP1 ISZERO PUSH2 0x10 JUMPI PUSH1 0x0 DUP1 REVERT JUMPDEST POP PUSH1 0x4 CALLDATASIZE LT PUSH2 0x173 JUMPI PUSH1 0x0 CALLDATALOAD PUSH1 0xE0 SHR DUP1 PUSH4 0x62D73EB8 GT PUSH2 0xDE JUMPI DUP1 PUSH4 0xAEC2CCAE GT PUSH2 0x97 JUMPI DUP1 PUSH4 0xE8101869 GT PUSH2 0x71 JUMPI DUP1 PUSH4 0xE8101869 EQ PUSH2 0x3E3 JUMPI DUP1 PUSH4 0xEBF0C717 EQ PUSH2 0x3FF JUMPI DUP1 PUSH4 0xF0A47F78 EQ PUSH2 0x41D JUMPI DUP1 PUSH4 0xFD27419B EQ PUSH2 0x44D JUMPI PUSH2 0x173 JUMP JUMPDEST DUP1 PUSH4 0xAEC2CCAE EQ PUSH2 0x365 JUMPI DUP1 PUSH4 0xB8A20ED0 EQ PUSH2 0x395 JUMPI DUP1 PUSH4 0xC9B0A2A7 EQ PUSH2 0x3C5 JUMPI PUSH2 0x173 JUMP JUMPDEST DUP1 PUSH4 0x62D73EB8 EQ PUSH2 0x2DA JUMPI DUP1 PUSH4 0x7284E416 EQ PUSH2 0x2E4 JUMPI DUP1 PUSH4 0x79BF09AB EQ PUSH2 0x302 JUMPI DUP1 PUSH4 0x8456CB59 EQ PUSH2 0x31E JUMPI DUP1 PUSH4 0x87F7B975 EQ PUSH2 0x328 JUMPI DUP1 PUSH4 0x95ADFC5E EQ PUSH2 0x346 JUMPI PUSH2 0x173 JUMP JUMPDEST DUP1 PUSH4 0x3F4BA83A GT PUSH2 0x130 JUMPI DUP1 PUSH4 0x3F4BA83A EQ PUSH2 0x23E JUMPI DUP1 PUSH4 0x403D1312 EQ PUSH2 0x248 JUMPI DUP1 PUSH4 0x477383F3 EQ PUSH2 0x278 JUMPI DUP1 PUSH4 0x52FF6846 EQ PUSH2 0x296 JUMPI DUP1 PUSH4 0x59F78468 EQ PUSH2 0x2B2 JUMPI DUP1 PUSH4 0x5C975ABB EQ PUSH2 0x2BC JUMPI PUSH2 0x173 JUMP JUMPDEST DUP1 PUSH4 0x6A49FCE EQ PUSH2 0x178 JUMPI DUP1 PUSH4 0x9218E91 EQ PUSH2 0x196 JUMPI DUP1 PUSH4 0x2D35A8A2 EQ PUSH2 0x1B4 JUMPI DUP1 PUSH4 0x2F22850D EQ PUSH2 0x1D2 JUMPI DUP1 PUSH4 0x3477EE2E EQ PUSH2 0x1F0 JUMPI DUP1 PUSH4 0x3BC6E309 EQ PUSH2 0x222 JUMPI JUMPDEST PUSH1 0x0 DUP1 REVERT JUMPDEST PUSH2 0x180 PUSH2 0x469 JUMP JUMPDEST PUSH1 0x40 MLOAD PUSH2 0x18D SWAP2 SWAP1 PUSH2 0x25CF JUMP JUMPDEST PUSH1 0x40 MLOAD DUP1 SWAP2 SUB SWAP1 RETURN JUMPDEST PUSH2 0x19E PUSH2 0x621 JUMP JUMPDEST PUSH1 0x40 MLOAD PUSH2 0x1AB SWAP2 SWAP1 PUSH2 0x2657 JUMP JUMPDEST PUSH1 0x40 MLOAD DUP1 SWAP2 SUB SWAP1 RETURN JUMPDEST PUSH2 0x1BC PUSH2 0x6AF JUMP JUMPDEST PUSH1 0x40 MLOAD PUSH2 0x1C9 SWAP2 SWAP1 PUSH2 0x27D9 JUMP JUMPDEST PUSH1 0x40 MLOAD DUP1 SWAP2 SUB SWAP1 RETURN JUMPDEST PUSH2 0x1DA PUSH2 0x6B5 JUMP JUMPDEST PUSH1 0x40 MLOAD PUSH2 0x1E7 SWAP2 SWAP1 PUSH2 0x27D9 JUMP JUMPDEST PUSH1 0x40 MLOAD DUP1 SWAP2 SUB SWAP1 RETURN JUMPDEST PUSH2 0x20A PUSH1 0x4 DUP1 CALLDATASIZE SUB DUP2 ADD SWAP1 PUSH2 0x205 SWAP2 SWAP1 PUSH2 0x210F JUMP JUMPDEST PUSH2 0x6BB JUMP JUMPDEST PUSH1 0x40 MLOAD PUSH2 0x219 SWAP4 SWAP3 SWAP2 SWAP1 PUSH2 0x2854 JUMP JUMPDEST PUSH1 0x40 MLOAD DUP1 SWAP2 SUB SWAP1 RETURN JUMPDEST PUSH2 0x23C PUSH1 0x4 DUP1 CALLDATASIZE SUB DUP2 ADD SWAP1 PUSH2 0x237 SWAP2 SWAP1 PUSH2 0x2026 JUMP JUMPDEST PUSH2 0x76D JUMP JUMPDEST STOP JUMPDEST PUSH2 0x246 PUSH2 0x8FB JUMP JUMPDEST STOP JUMPDEST PUSH2 0x262 PUSH1 0x4 DUP1 CALLDATASIZE SUB DUP2 ADD SWAP1 PUSH2 0x25D SWAP2 SWAP1 PUSH2 0x210F JUMP JUMPDEST PUSH2 0x9D3 JUMP JUMPDEST PUSH1 0x40 MLOAD PUSH2 0x26F SWAP2 SWAP1 PUSH2 0x27D9 JUMP JUMPDEST PUSH1 0x40 MLOAD DUP1 SWAP2 SUB SWAP1 RETURN JUMPDEST PUSH2 0x280 PUSH2 0x9F7 JUMP JUMPDEST PUSH1 0x40 MLOAD PUSH2 0x28D SWAP2 SWAP1 PUSH2 0x2621 JUMP JUMPDEST PUSH1 0x40 MLOAD DUP1 SWAP2 SUB SWAP1 RETURN JUMPDEST PUSH2 0x2B0 PUSH1 0x4 DUP1 CALLDATASIZE SUB DUP2 ADD SWAP1 PUSH2 0x2AB SWAP2 SWAP1 PUSH2 0x2026 JUMP JUMPDEST PUSH2 0xA0A JUMP JUMPDEST STOP JUMPDEST PUSH2 0x2BA PUSH2 0xB98 JUMP JUMPDEST STOP JUMPDEST PUSH2 0x2C4 PUSH2 0xCD3 JUMP JUMPDEST PUSH1 0x40 MLOAD PUSH2 0x2D1 SWAP2 SWAP1 PUSH2 0x2621 JUMP JUMPDEST PUSH1 0x40 MLOAD DUP1 SWAP2 SUB SWAP1 RETURN JUMPDEST PUSH2 0x2E2 PUSH2 0xCE9 JUMP JUMPDEST STOP JUMPDEST PUSH2 0x2EC PUSH2 0xDDE JUMP JUMPDEST PUSH1 0x40 MLOAD PUSH2 0x2F9 SWAP2 SWAP1 PUSH2 0x2657 JUMP JUMPDEST PUSH1 0x40 MLOAD DUP1 SWAP2 SUB SWAP1 RETURN JUMPDEST PUSH2 0x31C PUSH1 0x4 DUP1 CALLDATASIZE SUB DUP2 ADD SWAP1 PUSH2 0x317 SWAP2 SWAP1 PUSH2 0x20A3 JUMP JUMPDEST PUSH2 0xE6C JUMP JUMPDEST STOP JUMPDEST PUSH2 0x326 PUSH2 0x1100 JUMP JUMPDEST STOP JUMPDEST PUSH2 0x330 PUSH2 0x11D8 JUMP JUMPDEST PUSH1 0x40 MLOAD PUSH2 0x33D SWAP2 SWAP1 PUSH2 0x25B4 JUMP JUMPDEST PUSH1 0x40 MLOAD DUP1 SWAP2 SUB SWAP1 RETURN JUMPDEST PUSH2 0x34E PUSH2 0x11FE JUMP JUMPDEST PUSH1 0x40 MLOAD PUSH2 0x35C SWAP3 SWAP2 SWAP1 PUSH2 0x27F4 JUMP JUMPDEST PUSH1 0x40 MLOAD DUP1 SWAP2 SUB SWAP1 RETURN JUMPDEST PUSH2 0x37F PUSH1 0x4 DUP1 CALLDATASIZE SUB DUP2 ADD SWAP1 PUSH2 0x37A SWAP2 SWAP1 PUSH2 0x2026 JUMP JUMPDEST PUSH2 0x134C JUMP JUMPDEST PUSH1 0x40 MLOAD PUSH2 0x38C SWAP2 SWAP1 PUSH2 0x2621 JUMP JUMPDEST PUSH1 0x40 MLOAD DUP1 SWAP2 SUB SWAP1 RETURN JUMPDEST PUSH2 0x3AF PUSH1 0x4 DUP1 CALLDATASIZE SUB DUP2 ADD SWAP1 PUSH2 0x3AA SWAP2 SWAP1 PUSH2 0x204F JUMP JUMPDEST PUSH2 0x136C JUMP JUMPDEST PUSH1 0x40 MLOAD PUSH2 0x3BC SWAP2 SWAP1 PUSH2 0x2621 JUMP JUMPDEST PUSH1 0x40 MLOAD DUP1 SWAP2 SUB SWAP1 RETURN JUMPDEST PUSH2 0x3CD PUSH2 0x1383 JUMP JUMPDEST PUSH1 0x40 MLOAD PUSH2 0x3DA SWAP2 SWAP1 PUSH2 0x2621 JUMP JUMPDEST PUSH1 0x40 MLOAD DUP1 SWAP2 SUB SWAP1 RETURN JUMPDEST PUSH2 0x3FD PUSH1 0x4 DUP1 CALLDATASIZE SUB DUP2 ADD SWAP1 PUSH2 0x3F8 SWAP2 SWAP1 PUSH2 0x2026 JUMP JUMPDEST PUSH2 0x1396 JUMP JUMPDEST STOP JUMPDEST PUSH2 0x407 PUSH2 0x14B2 JUMP JUMPDEST PUSH1 0x40 MLOAD PUSH2 0x414 SWAP2 SWAP1 PUSH2 0x263C JUMP JUMPDEST PUSH1 0x40 MLOAD DUP1 SWAP2 SUB SWAP1 RETURN JUMPDEST PUSH2 0x437 PUSH1 0x4 DUP1 CALLDATASIZE SUB DUP2 ADD SWAP1 PUSH2 0x432 SWAP2 SWAP1 PUSH2 0x2026 JUMP JUMPDEST PUSH2 0x14B8 JUMP JUMPDEST PUSH1 0x40 MLOAD PUSH2 0x444 SWAP2 SWAP1 PUSH2 0x2621 JUMP JUMPDEST PUSH1 0x40 MLOAD DUP1 SWAP2 SUB SWAP1 RETURN JUMPDEST PUSH2 0x467 PUSH1 0x4 DUP1 CALLDATASIZE SUB DUP2 ADD SWAP1 PUSH2 0x462 SWAP2 SWAP1 PUSH2 0x2138 JUMP JUMPDEST PUSH2 0x14D8 JUMP JUMPDEST STOP JUMPDEST PUSH1 0x60 PUSH1 0x0 PUSH1 0x4 SLOAD PUSH8 0xFFFFFFFFFFFFFFFF DUP2 GT ISZERO PUSH2 0x4AF JUMPI PUSH32 0x4E487B7100000000000000000000000000000000000000000000000000000000 PUSH1 0x0 MSTORE PUSH1 0x41 PUSH1 0x4 MSTORE PUSH1 0x24 PUSH1 0x0 REVERT JUMPDEST PUSH1 0x40 MLOAD SWAP1 DUP1 DUP3 MSTORE DUP1 PUSH1 0x20 MUL PUSH1 0x20 ADD DUP3 ADD PUSH1 0x40 MSTORE DUP1 ISZERO PUSH2 0x4E8 JUMPI DUP2 PUSH1 0x20 ADD JUMPDEST PUSH2 0x4D5 PUSH2 0x1D0A JUMP JUMPDEST DUP2 MSTORE PUSH1 0x20 ADD SWAP1 PUSH1 0x1 SWAP1 SUB SWAP1 DUP2 PUSH2 0x4CD JUMPI SWAP1 POP JUMPDEST POP SWAP1 POP PUSH1 0x0 JUMPDEST PUSH1 0x4 SLOAD DUP2 LT ISZERO PUSH2 0x619 JUMPI PUSH1 0x0 PUSH1 0x7 PUSH1 0x0 DUP4 DUP2 MSTORE PUSH1 0x20 ADD SWAP1 DUP2 MSTORE PUSH1 0x20 ADD PUSH1 0x0 KECCAK256 SWAP1 POP DUP1 PUSH1 0x40 MLOAD DUP1 PUSH1 0x60 ADD PUSH1 0x40 MSTORE SWAP1 DUP2 PUSH1 0x0 DUP3 ADD SLOAD DUP2 MSTORE PUSH1 0x20 ADD PUSH1 0x1 DUP3 ADD DUP1 SLOAD PUSH2 0x535 SWAP1 PUSH2 0x2AD3 JUMP JUMPDEST DUP1 PUSH1 0x1F ADD PUSH1 0x20 DUP1 SWAP2 DIV MUL PUSH1 0x20 ADD PUSH1 0x40 MLOAD SWAP1 DUP2 ADD PUSH1 0x40 MSTORE DUP1 SWAP3 SWAP2 SWAP1 DUP2 DUP2 MSTORE PUSH1 0x20 ADD DUP3 DUP1 SLOAD PUSH2 0x561 SWAP1 PUSH2 0x2AD3 JUMP JUMPDEST DUP1 ISZERO PUSH2 0x5AE JUMPI DUP1 PUSH1 0x1F LT PUSH2 0x583 JUMPI PUSH2 0x100 DUP1 DUP4 SLOAD DIV MUL DUP4 MSTORE SWAP2 PUSH1 0x20 ADD SWAP2 PUSH2 0x5AE JUMP JUMPDEST DUP3 ADD SWAP2 SWAP1 PUSH1 0x0 MSTORE PUSH1 0x20 PUSH1 0x0 KECCAK256 SWAP1 JUMPDEST DUP2 SLOAD DUP2 MSTORE SWAP1 PUSH1 0x1 ADD SWAP1 PUSH1 0x20 ADD DUP1 DUP4 GT PUSH2 0x591 JUMPI DUP3 SWAP1 SUB PUSH1 0x1F AND DUP3 ADD SWAP2 JUMPDEST POP POP POP POP POP DUP2 MSTORE PUSH1 0x20 ADD PUSH1 0x2 DUP3 ADD SLOAD DUP2 MSTORE POP POP DUP4 DUP4 DUP2 MLOAD DUP2 LT PUSH2 0x5FA JUMPI PUSH32 0x4E487B7100000000000000000000000000000000000000000000000000000000 PUSH1 0x0 MSTORE PUSH1 0x32 PUSH1 0x4 MSTORE PUSH1 0x24 PUSH1 0x0 REVERT JUMPDEST PUSH1 0x20 MUL PUSH1 0x20 ADD ADD DUP2 SWAP1 MSTORE POP POP DUP1 DUP1 PUSH2 0x611 SWAP1 PUSH2 0x2B50 JUMP JUMPDEST SWAP2 POP POP PUSH2 0x4EE JUMP JUMPDEST POP DUP1 SWAP2 POP POP SWAP1 JUMP JUMPDEST PUSH1 0x1 DUP1 SLOAD PUSH2 0x62E SWAP1 PUSH2 0x2AD3 JUMP JUMPDEST DUP1 PUSH1 0x1F ADD PUSH1 0x20 DUP1 SWAP2 DIV MUL PUSH1 0x20 ADD PUSH1 0x40 MLOAD SWAP1 DUP2 ADD PUSH1 0x40 MSTORE DUP1 SWAP3 SWAP2 SWAP1 DUP2 DUP2 MSTORE PUSH1 0x20 ADD DUP3 DUP1 SLOAD PUSH2 0x65A SWAP1 PUSH2 0x2AD3 JUMP JUMPDEST DUP1 ISZERO PUSH2 0x6A7 JUMPI DUP1 PUSH1 0x1F LT PUSH2 0x67C JUMPI PUSH2 0x100 DUP1 DUP4 SLOAD DIV MUL DUP4 MSTORE SWAP2 PUSH1 0x20 ADD SWAP2 PUSH2 0x6A7 JUMP JUMPDEST DUP3 ADD SWAP2 SWAP1 PUSH1 0x0 MSTORE PUSH1 0x20 PUSH1 0x0 KECCAK256 SWAP1 JUMPDEST DUP2 SLOAD DUP2 MSTORE SWAP1 PUSH1 0x1 ADD SWAP1 PUSH1 0x20 ADD DUP1 DUP4 GT PUSH2 0x68A JUMPI DUP3 SWAP1 SUB PUSH1 0x1F AND DUP3 ADD SWAP2 JUMPDEST POP POP POP POP POP DUP2 JUMP JUMPDEST PUSH1 0x4 SLOAD DUP2 JUMP JUMPDEST PUSH1 0x9 SLOAD DUP2 JUMP JUMPDEST PUSH1 0x7 PUSH1 0x20 MSTORE DUP1 PUSH1 0x0 MSTORE PUSH1 0x40 PUSH1 0x0 KECCAK256 PUSH1 0x0 SWAP2 POP SWAP1 POP DUP1 PUSH1 0x0 ADD SLOAD SWAP1 DUP1 PUSH1 0x1 ADD DUP1 SLOAD PUSH2 0x6E4 SWAP1 PUSH2 0x2AD3 JUMP JUMPDEST DUP1 PUSH1 0x1F ADD PUSH1 0x20 DUP1 SWAP2 DIV MUL PUSH1 0x20 ADD PUSH1 0x40 MLOAD SWAP1 DUP2 ADD PUSH1 0x40 MSTORE DUP1 SWAP3 SWAP2 SWAP1 DUP2 DUP2 MSTORE PUSH1 0x20 ADD DUP3 DUP1 SLOAD PUSH2 0x710 SWAP1 PUSH2 0x2AD3 JUMP JUMPDEST DUP1 ISZERO PUSH2 0x75D JUMPI DUP1 PUSH1 0x1F LT PUSH2 0x732 JUMPI PUSH2 0x100 DUP1 DUP4 SLOAD DIV MUL DUP4 MSTORE SWAP2 PUSH1 0x20 ADD SWAP2 PUSH2 0x75D JUMP JUMPDEST DUP3 ADD SWAP2 SWAP1 PUSH1 0x0 MSTORE PUSH1 0x20 PUSH1 0x0 KECCAK256 SWAP1 JUMPDEST DUP2 SLOAD DUP2 MSTORE SWAP1 PUSH1 0x1 ADD SWAP1 PUSH1 0x20 ADD DUP1 DUP4 GT PUSH2 0x740 JUMPI DUP3 SWAP1 SUB PUSH1 0x1F AND DUP3 ADD SWAP2 JUMPDEST POP POP POP POP POP SWAP1 DUP1 PUSH1 0x2 ADD SLOAD SWAP1 POP DUP4 JUMP JUMPDEST PUSH2 0x775 PUSH2 0xCD3 JUMP JUMPDEST ISZERO PUSH2 0x7B5 JUMPI PUSH1 0x40 MLOAD PUSH32 0x8C379A000000000000000000000000000000000000000000000000000000000 DUP2 MSTORE PUSH1 0x4 ADD PUSH2 0x7AC SWAP1 PUSH2 0x26D9 JUMP JUMPDEST PUSH1 0x40 MLOAD DUP1 SWAP2 SUB SWAP1 REVERT JUMPDEST CALLER PUSH20 0xFFFFFFFFFFFFFFFFFFFFFFFFFFFFFFFFFFFFFFFF AND PUSH1 0x0 PUSH1 0x1 SWAP1 SLOAD SWAP1 PUSH2 0x100 EXP SWAP1 DIV PUSH20 0xFFFFFFFFFFFFFFFFFFFFFFFFFFFFFFFFFFFFFFFF AND PUSH20 0xFFFFFFFFFFFFFFFFFFFFFFFFFFFFFFFFFFFFFFFF AND EQ DUP1 PUSH2 0x861 JUMPI POP PUSH1 0x1 ISZERO ISZERO PUSH1 0x5 PUSH1 0x0 CALLER PUSH20 0xFFFFFFFFFFFFFFFFFFFFFFFFFFFFFFFFFFFFFFFF AND PUSH20 0xFFFFFFFFFFFFFFFFFFFFFFFFFFFFFFFFFFFFFFFF AND DUP2 MSTORE PUSH1 0x20 ADD SWAP1 DUP2 MSTORE PUSH1 0x20 ADD PUSH1 0x0 KECCAK256 PUSH1 0x0 SWAP1 SLOAD SWAP1 PUSH2 0x100 EXP SWAP1 DIV PUSH1 0xFF AND ISZERO ISZERO EQ JUMPDEST PUSH2 0x8A0 JUMPI PUSH1 0x40 MLOAD PUSH32 0x8C379A000000000000000000000000000000000000000000000000000000000 DUP2 MSTORE PUSH1 0x4 ADD PUSH2 0x897 SWAP1 PUSH2 0x26B9 JUMP JUMPDEST PUSH1 0x40 MLOAD DUP1 SWAP2 SUB SWAP1 REVERT JUMPDEST PUSH1 0x1 PUSH1 0x5 PUSH1 0x0 DUP4 PUSH20 0xFFFFFFFFFFFFFFFFFFFFFFFFFFFFFFFFFFFFFFFF AND PUSH20 0xFFFFFFFFFFFFFFFFFFFFFFFFFFFFFFFFFFFFFFFF AND DUP2 MSTORE PUSH1 0x20 ADD SWAP1 DUP2 MSTORE PUSH1 0x20 ADD PUSH1 0x0 KECCAK256 PUSH1 0x0 PUSH2 0x100 EXP DUP2 SLOAD DUP2 PUSH1 0xFF MUL NOT AND SWAP1 DUP4 ISZERO ISZERO MUL OR SWAP1 SSTORE POP POP JUMP JUMPDEST PUSH1 0x0 PUSH1 0x1 SWAP1 SLOAD SWAP1 PUSH2 0x100 EXP SWAP1 DIV PUSH20 0xFFFFFFFFFFFFFFFFFFFFFFFFFFFFFFFFFFFFFFFF AND PUSH20 0xFFFFFFFFFFFFFFFFFFFFFFFFFFFFFFFFFFFFFFFF AND CALLER PUSH20 0xFFFFFFFFFFFFFFFFFFFFFFFFFFFFFFFFFFFFFFFF AND EQ PUSH2 0x98B JUMPI PUSH1 0x40 MLOAD PUSH32 0x8C379A000000000000000000000000000000000000000000000000000000000 DUP2 MSTORE PUSH1 0x4 ADD PUSH2 0x982 SWAP1 PUSH2 0x2779 JUMP JUMPDEST PUSH1 0x40 MLOAD DUP1 SWAP2 SUB SWAP1 REVERT JUMPDEST PUSH2 0x993 PUSH2 0x1636 JUMP JUMPDEST PUSH32 0x5DB9EE0A495BF2E6FF9C91A7834C1BA4FDD244A5E8AA4E537BD38AEAE4B073AA PUSH2 0x9BC PUSH2 0x16D7 JUMP JUMPDEST PUSH1 0x40 MLOAD PUSH2 0x9C9 SWAP2 SWAP1 PUSH2 0x25B4 JUMP JUMPDEST PUSH1 0x40 MLOAD DUP1 SWAP2 SUB SWAP1 LOG1 JUMP JUMPDEST PUSH1 0x8 DUP2 DUP2 SLOAD DUP2 LT PUSH2 0x9E3 JUMPI PUSH1 0x0 DUP1 REVERT JUMPDEST SWAP1 PUSH1 0x0 MSTORE PUSH1 0x20 PUSH1 0x0 KECCAK256 ADD PUSH1 0x0 SWAP2 POP SWAP1 POP SLOAD DUP2 JUMP JUMPDEST PUSH1 0xA PUSH1 0x1 SWAP1 SLOAD SWAP1 PUSH2 0x100 EXP SWAP1 DIV PUSH1 0xFF AND DUP2 JUMP JUMPDEST PUSH2 0xA12 PUSH2 0xCD3 JUMP JUMPDEST ISZERO PUSH2 0xA52 JUMPI PUSH1 0x40 MLOAD PUSH32 0x8C379A000000000000000000000000000000000000000000000000000000000 DUP2 MSTORE PUSH1 0x4 ADD PUSH2 0xA49 SWAP1 PUSH2 0x26D9 JUMP JUMPDEST PUSH1 0x40 MLOAD DUP1 SWAP2 SUB SWAP1 REVERT JUMPDEST CALLER PUSH20 0xFFFFFFFFFFFFFFFFFFFFFFFFFFFFFFFFFFFFFFFF AND PUSH1 0x0 PUSH1 0x1 SWAP1 SLOAD SWAP1 PUSH2 0x100 EXP SWAP1 DIV PUSH20 0xFFFFFFFFFFFFFFFFFFFFFFFFFFFFFFFFFFFFFFFF AND PUSH20 0xFFFFFFFFFFFFFFFFFFFFFFFFFFFFFFFFFFFFFFFF AND EQ DUP1 PUSH2 0xAFE JUMPI POP PUSH1 0x1 ISZERO ISZERO PUSH1 0x5 PUSH1 0x0 CALLER PUSH20 0xFFFFFFFFFFFFFFFFFFFFFFFFFFFFFFFFFFFFFFFF AND PUSH20 0xFFFFFFFFFFFFFFFFFFFFFFFFFFFFFFFFFFFFFFFF AND DUP2 MSTORE PUSH1 0x20 ADD SWAP1 DUP2 MSTORE PUSH1 0x20 ADD PUSH1 0x0 KECCAK256 PUSH1 0x0 SWAP1 SLOAD SWAP1 PUSH2 0x100 EXP SWAP1 DIV PUSH1 0xFF AND ISZERO ISZERO EQ JUMPDEST PUSH2 0xB3D JUMPI PUSH1 0x40 MLOAD PUSH32 0x8C379A000000000000000000000000000000000000000000000000000000000 DUP2 MSTORE PUSH1 0x4 ADD PUSH2 0xB34 SWAP1 PUSH2 0x26B9 JUMP JUMPDEST PUSH1 0x40 MLOAD DUP1 SWAP2 SUB SWAP1 REVERT JUMPDEST PUSH1 0x0 PUSH1 0x5 PUSH1 0x0 DUP4 PUSH20 0xFFFFFFFFFFFFFFFFFFFFFFFFFFFFFFFFFFFFFFFF AND PUSH20 0xFFFFFFFFFFFFFFFFFFFFFFFFFFFFFFFFFFFFFFFF AND DUP2 MSTORE PUSH1 0x20 ADD SWAP1 DUP2 MSTORE PUSH1 0x20 ADD PUSH1 0x0 KECCAK256 PUSH1 0x0 PUSH2 0x100 EXP DUP2 SLOAD DUP2 PUSH1 0xFF MUL NOT AND SWAP1 DUP4 ISZERO ISZERO MUL OR SWAP1 SSTORE POP POP JUMP JUMPDEST PUSH2 0xBA0 PUSH2 0xCD3 JUMP JUMPDEST ISZERO PUSH2 0xBE0 JUMPI PUSH1 0x40 MLOAD PUSH32 0x8C379A000000000000000000000000000000000000000000000000000000000 DUP2 MSTORE PUSH1 0x4 ADD PUSH2 0xBD7 SWAP1 PUSH2 0x26D9 JUMP JUMPDEST PUSH1 0x40 MLOAD DUP1 SWAP2 SUB SWAP1 REVERT JUMPDEST PUSH1 0x0 PUSH1 0x1 SWAP1 SLOAD SWAP1 PUSH2 0x100 EXP SWAP1 DIV PUSH20 0xFFFFFFFFFFFFFFFFFFFFFFFFFFFFFFFFFFFFFFFF AND PUSH20 0xFFFFFFFFFFFFFFFFFFFFFFFFFFFFFFFFFFFFFFFF AND CALLER PUSH20 0xFFFFFFFFFFFFFFFFFFFFFFFFFFFFFFFFFFFFFFFF AND EQ PUSH2 0xC70 JUMPI PUSH1 0x40 MLOAD PUSH32 0x8C379A000000000000000000000000000000000000000000000000000000000 DUP2 MSTORE PUSH1 0x4 ADD PUSH2 0xC67 SWAP1 PUSH2 0x2779 JUMP JUMPDEST PUSH1 0x40 MLOAD DUP1 SWAP2 SUB SWAP1 REVERT JUMPDEST PUSH1 0x1 PUSH1 0xA PUSH1 0x1 PUSH2 0x100 EXP DUP2 SLOAD DUP2 PUSH1 0xFF MUL NOT AND SWAP1 DUP4 ISZERO ISZERO MUL OR SWAP1 SSTORE POP PUSH2 0xC93 PUSH2 0x16DF JUMP JUMPDEST POP POP PUSH32 0x38D8EBBBB4803F034F19B4CF2F19BFB84CC5DEA177696C1F80A19357D5602E04 PUSH1 0x8 PUSH1 0x9 SLOAD PUSH1 0x40 MLOAD PUSH2 0xCC9 SWAP3 SWAP2 SWAP1 PUSH2 0x25F1 JUMP JUMPDEST PUSH1 0x40 MLOAD DUP1 SWAP2 SUB SWAP1 LOG1 JUMP JUMPDEST PUSH1 0x0 DUP1 PUSH1 0x0 SWAP1 SLOAD SWAP1 PUSH2 0x100 EXP SWAP1 DIV PUSH1 0xFF AND SWAP1 POP SWAP1 JUMP JUMPDEST PUSH2 0xCF1 PUSH2 0xCD3 JUMP JUMPDEST ISZERO PUSH2 0xD31 JUMPI PUSH1 0x40 MLOAD PUSH32 0x8C379A000000000000000000000000000000000000000000000000000000000 DUP2 MSTORE PUSH1 0x4 ADD PUSH2 0xD28 SWAP1 PUSH2 0x26D9 JUMP JUMPDEST PUSH1 0x40 MLOAD DUP1 SWAP2 SUB SWAP1 REVERT JUMPDEST PUSH1 0x0 PUSH1 0x1 SWAP1 SLOAD SWAP1 PUSH2 0x100 EXP SWAP1 DIV PUSH20 0xFFFFFFFFFFFFFFFFFFFFFFFFFFFFFFFFFFFFFFFF AND PUSH20 0xFFFFFFFFFFFFFFFFFFFFFFFFFFFFFFFFFFFFFFFF AND CALLER PUSH20 0xFFFFFFFFFFFFFFFFFFFFFFFFFFFFFFFFFFFFFFFF AND EQ PUSH2 0xDC1 JUMPI PUSH1 0x40 MLOAD PUSH32 0x8C379A000000000000000000000000000000000000000000000000000000000 DUP2 MSTORE PUSH1 0x4 ADD PUSH2 0xDB8 SWAP1 PUSH2 0x2779 JUMP JUMPDEST PUSH1 0x40 MLOAD DUP1 SWAP2 SUB SWAP1 REVERT JUMPDEST PUSH1 0x1 PUSH1 0xA PUSH1 0x0 PUSH2 0x100 EXP DUP2 SLOAD DUP2 PUSH1 0xFF MUL NOT AND SWAP1 DUP4 ISZERO ISZERO MUL OR SWAP1 SSTORE POP JUMP JUMPDEST PUSH1 0x2 DUP1 SLOAD PUSH2 0xDEB SWAP1 PUSH2 0x2AD3 JUMP JUMPDEST DUP1 PUSH1 0x1F ADD PUSH1 0x20 DUP1 SWAP2 DIV MUL PUSH1 0x20 ADD PUSH1 0x40 MLOAD SWAP1 DUP2 ADD PUSH1 0x40 MSTORE DUP1 SWAP3 SWAP2 SWAP1 DUP2 DUP2 MSTORE PUSH1 0x20 ADD DUP3 DUP1 SLOAD PUSH2 0xE17 SWAP1 PUSH2 0x2AD3 JUMP JUMPDEST DUP1 ISZERO PUSH2 0xE64 JUMPI DUP1 PUSH1 0x1F LT PUSH2 0xE39 JUMPI PUSH2 0x100 DUP1 DUP4 SLOAD DIV MUL DUP4 MSTORE SWAP2 PUSH1 0x20 ADD SWAP2 PUSH2 0xE64 JUMP JUMPDEST DUP3 ADD SWAP2 SWAP1 PUSH1 0x0 MSTORE PUSH1 0x20 PUSH1 0x0 KECCAK256 SWAP1 JUMPDEST DUP2 SLOAD DUP2 MSTORE SWAP1 PUSH1 0x1 ADD SWAP1 PUSH1 0x20 ADD DUP1 DUP4 GT PUSH2 0xE47 JUMPI DUP3 SWAP1 SUB PUSH1 0x1F AND DUP3 ADD SWAP2 JUMPDEST POP POP POP POP POP DUP2 JUMP JUMPDEST PUSH2 0xE74 PUSH2 0xCD3 JUMP JUMPDEST ISZERO PUSH2 0xEB4 JUMPI PUSH1 0x40 MLOAD PUSH32 0x8C379A000000000000000000000000000000000000000000000000000000000 DUP2 MSTORE PUSH1 0x4 ADD PUSH2 0xEAB SWAP1 PUSH2 0x26D9 JUMP JUMPDEST PUSH1 0x40 MLOAD DUP1 SWAP2 SUB SWAP1 REVERT JUMPDEST PUSH1 0x0 DUP2 MLOAD GT PUSH2 0xEF8 JUMPI PUSH1 0x40 MLOAD PUSH32 0x8C379A000000000000000000000000000000000000000000000000000000000 DUP2 MSTORE PUSH1 0x4 ADD PUSH2 0xEEF SWAP1 PUSH2 0x2719 JUMP JUMPDEST PUSH1 0x40 MLOAD DUP1 SWAP2 SUB SWAP1 REVERT JUMPDEST CALLER PUSH20 0xFFFFFFFFFFFFFFFFFFFFFFFFFFFFFFFFFFFFFFFF AND PUSH1 0x0 PUSH1 0x1 SWAP1 SLOAD SWAP1 PUSH2 0x100 EXP SWAP1 DIV PUSH20 0xFFFFFFFFFFFFFFFFFFFFFFFFFFFFFFFFFFFFFFFF AND PUSH20 0xFFFFFFFFFFFFFFFFFFFFFFFFFFFFFFFFFFFFFFFF AND EQ DUP1 PUSH2 0xFA4 JUMPI POP PUSH1 0x1 ISZERO ISZERO PUSH1 0x5 PUSH1 0x0 CALLER PUSH20 0xFFFFFFFFFFFFFFFFFFFFFFFFFFFFFFFFFFFFFFFF AND PUSH20 0xFFFFFFFFFFFFFFFFFFFFFFFFFFFFFFFFFFFFFFFF AND DUP2 MSTORE PUSH1 0x20 ADD SWAP1 DUP2 MSTORE PUSH1 0x20 ADD PUSH1 0x0 KECCAK256 PUSH1 0x0 SWAP1 SLOAD SWAP1 PUSH2 0x100 EXP SWAP1 DIV PUSH1 0xFF AND ISZERO ISZERO EQ JUMPDEST PUSH2 0xFE3 JUMPI PUSH1 0x40 MLOAD PUSH32 0x8C379A000000000000000000000000000000000000000000000000000000000 DUP2 MSTORE PUSH1 0x4 ADD PUSH2 0xFDA SWAP1 PUSH2 0x26B9 JUMP JUMPDEST PUSH1 0x40 MLOAD DUP1 SWAP2 SUB SWAP1 REVERT JUMPDEST DUP2 PUSH1 0x0 DUP2 MLOAD DUP2 LT PUSH2 0x101D JUMPI PUSH32 0x4E487B7100000000000000000000000000000000000000000000000000000000 PUSH1 0x0 MSTORE PUSH1 0x32 PUSH1 0x4 MSTORE PUSH1 0x24 PUSH1 0x0 REVERT JUMPDEST PUSH1 0x20 MUL PUSH1 0x20 ADD ADD MLOAD PUSH1 0x1 SWAP1 DUP1 MLOAD SWAP1 PUSH1 0x20 ADD SWAP1 PUSH2 0x103A SWAP3 SWAP2 SWAP1 PUSH2 0x1D2B JUMP JUMPDEST POP DUP2 PUSH1 0x1 DUP2 MLOAD DUP2 LT PUSH2 0x1075 JUMPI PUSH32 0x4E487B7100000000000000000000000000000000000000000000000000000000 PUSH1 0x0 MSTORE PUSH1 0x32 PUSH1 0x4 MSTORE PUSH1 0x24 PUSH1 0x0 REVERT JUMPDEST PUSH1 0x20 MUL PUSH1 0x20 ADD ADD MLOAD PUSH1 0x2 SWAP1 DUP1 MLOAD SWAP1 PUSH1 0x20 ADD SWAP1 PUSH2 0x1092 SWAP3 SWAP2 SWAP1 PUSH2 0x1D2B JUMP JUMPDEST POP PUSH1 0x0 JUMPDEST DUP2 MLOAD DUP2 LT ISZERO PUSH2 0x10FB JUMPI PUSH2 0x10E8 DUP3 DUP3 DUP2 MLOAD DUP2 LT PUSH2 0x10DB JUMPI PUSH32 0x4E487B7100000000000000000000000000000000000000000000000000000000 PUSH1 0x0 MSTORE PUSH1 0x32 PUSH1 0x4 MSTORE PUSH1 0x24 PUSH1 0x0 REVERT JUMPDEST PUSH1 0x20 MUL PUSH1 0x20 ADD ADD MLOAD PUSH2 0x189B JUMP JUMPDEST DUP1 DUP1 PUSH2 0x10F3 SWAP1 PUSH2 0x2B50 JUMP JUMPDEST SWAP2 POP POP PUSH2 0x1096 JUMP JUMPDEST POP POP POP JUMP JUMPDEST PUSH1 0x0 PUSH1 0x1 SWAP1 SLOAD SWAP1 PUSH2 0x100 EXP SWAP1 DIV PUSH20 0xFFFFFFFFFFFFFFFFFFFFFFFFFFFFFFFFFFFFFFFF AND PUSH20 0xFFFFFFFFFFFFFFFFFFFFFFFFFFFFFFFFFFFFFFFF AND CALLER PUSH20 0xFFFFFFFFFFFFFFFFFFFFFFFFFFFFFFFFFFFFFFFF AND EQ PUSH2 0x1190 JUMPI PUSH1 0x40 MLOAD PUSH32 0x8C379A000000000000000000000000000000000000000000000000000000000 DUP2 MSTORE PUSH1 0x4 ADD PUSH2 0x1187 SWAP1 PUSH2 0x2779 JUMP JUMPDEST PUSH1 0x40 MLOAD DUP1 SWAP2 SUB SWAP1 REVERT JUMPDEST PUSH2 0x1198 PUSH2 0x19A0 JUMP JUMPDEST PUSH32 0x62E78CEA01BEE320CD4E420270B5EA74000D11B0C9F74754EBDBFC544B05A258 PUSH2 0x11C1 PUSH2 0x16D7 JUMP JUMPDEST PUSH1 0x40 MLOAD PUSH2 0x11CE SWAP2 SWAP1 PUSH2 0x25B4 JUMP JUMPDEST PUSH1 0x40 MLOAD DUP1 SWAP2 SUB SWAP1 LOG1 JUMP JUMPDEST PUSH1 0x0 PUSH1 0x1 SWAP1 SLOAD SWAP1 PUSH2 0x100 EXP SWAP1 DIV PUSH20 0xFFFFFFFFFFFFFFFFFFFFFFFFFFFFFFFFFFFFFFFF AND DUP2 JUMP JUMPDEST PUSH1 0x0 PUSH1 0x60 CALLER PUSH20 0xFFFFFFFFFFFFFFFFFFFFFFFFFFFFFFFFFFFFFFFF AND PUSH1 0x0 PUSH1 0x1 SWAP1 SLOAD SWAP1 PUSH2 0x100 EXP SWAP1 DIV PUSH20 0xFFFFFFFFFFFFFFFFFFFFFFFFFFFFFFFFFFFFFFFF AND PUSH20 0xFFFFFFFFFFFFFFFFFFFFFFFFFFFFFFFFFFFFFFFF AND EQ DUP1 PUSH2 0x12AE JUMPI POP PUSH1 0x1 ISZERO ISZERO PUSH1 0x5 PUSH1 0x0 CALLER PUSH20 0xFFFFFFFFFFFFFFFFFFFFFFFFFFFFFFFFFFFFFFFF AND PUSH20 0xFFFFFFFFFFFFFFFFFFFFFFFFFFFFFFFFFFFFFFFF AND DUP2 MSTORE PUSH1 0x20 ADD SWAP1 DUP2 MSTORE PUSH1 0x20 ADD PUSH1 0x0 KECCAK256 PUSH1 0x0 SWAP1 SLOAD SWAP1 PUSH2 0x100 EXP SWAP1 DIV PUSH1 0xFF AND ISZERO ISZERO EQ JUMPDEST PUSH2 0x12ED JUMPI PUSH1 0x40 MLOAD PUSH32 0x8C379A000000000000000000000000000000000000000000000000000000000 DUP2 MSTORE PUSH1 0x4 ADD PUSH2 0x12E4 SWAP1 PUSH2 0x2699 JUMP JUMPDEST PUSH1 0x40 MLOAD DUP1 SWAP2 SUB SWAP1 REVERT JUMPDEST PUSH1 0x9 SLOAD PUSH1 0x8 DUP1 DUP1 SLOAD DUP1 PUSH1 0x20 MUL PUSH1 0x20 ADD PUSH1 0x40 MLOAD SWAP1 DUP2 ADD PUSH1 0x40 MSTORE DUP1 SWAP3 SWAP2 SWAP1 DUP2 DUP2 MSTORE PUSH1 0x20 ADD DUP3 DUP1 SLOAD DUP1 ISZERO PUSH2 0x133D JUMPI PUSH1 0x20 MUL DUP3 ADD SWAP2 SWAP1 PUSH1 0x0 MSTORE PUSH1 0x20 PUSH1 0x0 KECCAK256 SWAP1 JUMPDEST DUP2 SLOAD DUP2 MSTORE PUSH1 0x20 ADD SWAP1 PUSH1 0x1 ADD SWAP1 DUP1 DUP4 GT PUSH2 0x1329 JUMPI JUMPDEST POP POP POP POP POP SWAP1 POP SWAP2 POP SWAP2 POP SWAP1 SWAP2 JUMP JUMPDEST PUSH1 0x6 PUSH1 0x20 MSTORE DUP1 PUSH1 0x0 MSTORE PUSH1 0x40 PUSH1 0x0 KECCAK256 PUSH1 0x0 SWAP2 POP SLOAD SWAP1 PUSH2 0x100 EXP SWAP1 DIV PUSH1 0xFF AND DUP2 JUMP JUMPDEST PUSH1 0x0 PUSH2 0x137B DUP4 PUSH1 0x3 SLOAD DUP5 PUSH2 0x1A42 JUMP JUMPDEST SWAP1 POP SWAP3 SWAP2 POP POP JUMP JUMPDEST PUSH1 0xA PUSH1 0x0 SWAP1 SLOAD SWAP1 PUSH2 0x100 EXP SWAP1 DIV PUSH1 0xFF AND DUP2 JUMP JUMPDEST PUSH2 0x139E PUSH2 0xCD3 JUMP JUMPDEST ISZERO PUSH2 0x13DE JUMPI PUSH1 0x40 MLOAD PUSH32 0x8C379A000000000000000000000000000000000000000000000000000000000 DUP2 MSTORE PUSH1 0x4 ADD PUSH2 0x13D5 SWAP1 PUSH2 0x26D9 JUMP JUMPDEST PUSH1 0x40 MLOAD DUP1 SWAP2 SUB SWAP1 REVERT JUMPDEST PUSH1 0x0 PUSH1 0x1 SWAP1 SLOAD SWAP1 PUSH2 0x100 EXP SWAP1 DIV PUSH20 0xFFFFFFFFFFFFFFFFFFFFFFFFFFFFFFFFFFFFFFFF AND PUSH20 0xFFFFFFFFFFFFFFFFFFFFFFFFFFFFFFFFFFFFFFFF AND CALLER PUSH20 0xFFFFFFFFFFFFFFFFFFFFFFFFFFFFFFFFFFFFFFFF AND EQ PUSH2 0x146E JUMPI PUSH1 0x40 MLOAD PUSH32 0x8C379A000000000000000000000000000000000000000000000000000000000 DUP2 MSTORE PUSH1 0x4 ADD PUSH2 0x1465 SWAP1 PUSH2 0x2779 JUMP JUMPDEST PUSH1 0x40 MLOAD DUP1 SWAP2 SUB SWAP1 REVERT JUMPDEST DUP1 PUSH1 0x0 PUSH1 0x1 PUSH2 0x100 EXP DUP2 SLOAD DUP2 PUSH20 0xFFFFFFFFFFFFFFFFFFFFFFFFFFFFFFFFFFFFFFFF MUL NOT AND SWAP1 DUP4 PUSH20 0xFFFFFFFFFFFFFFFFFFFFFFFFFFFFFFFFFFFFFFFF AND MUL OR SWAP1 SSTORE POP POP JUMP JUMPDEST PUSH1 0x3 SLOAD DUP2 JUMP JUMPDEST PUSH1 0x5 PUSH1 0x20 MSTORE DUP1 PUSH1 0x0 MSTORE PUSH1 0x40 PUSH1 0x0 KECCAK256 PUSH1 0x0 SWAP2 POP SLOAD SWAP1 PUSH2 0x100 EXP SWAP1 DIV PUSH1 0xFF AND DUP2 JUMP JUMPDEST PUSH1 0xA PUSH1 0x1 SWAP1 SLOAD SWAP1 PUSH2 0x100 EXP SWAP1 DIV PUSH1 0xFF AND ISZERO PUSH2 0x1528 JUMPI PUSH1 0x40 MLOAD PUSH32 0x8C379A000000000000000000000000000000000000000000000000000000000 DUP2 MSTORE PUSH1 0x4 ADD PUSH2 0x151F SWAP1 PUSH2 0x2739 JUMP JUMPDEST PUSH1 0x40 MLOAD DUP1 SWAP2 SUB SWAP1 REVERT JUMPDEST PUSH1 0xA PUSH1 0x0 SWAP1 SLOAD SWAP1 PUSH2 0x100 EXP SWAP1 DIV PUSH1 0xFF AND PUSH2 0x1577 JUMPI PUSH1 0x40 MLOAD PUSH32 0x8C379A000000000000000000000000000000000000000000000000000000000 DUP2 MSTORE PUSH1 0x4 ADD PUSH2 0x156E SWAP1 PUSH2 0x26F9 JUMP JUMPDEST PUSH1 0x40 MLOAD DUP1 SWAP2 SUB SWAP1 REVERT JUMPDEST PUSH2 0x15E8 DUP3 DUP3 DUP1 DUP1 PUSH1 0x20 MUL PUSH1 0x20 ADD PUSH1 0x40 MLOAD SWAP1 DUP2 ADD PUSH1 0x40 MSTORE DUP1 SWAP4 SWAP3 SWAP2 SWAP1 DUP2 DUP2 MSTORE PUSH1 0x20 ADD DUP4 DUP4 PUSH1 0x20 MUL DUP1 DUP3 DUP5 CALLDATACOPY PUSH1 0x0 DUP2 DUP5 ADD MSTORE PUSH1 0x1F NOT PUSH1 0x1F DUP3 ADD AND SWAP1 POP DUP1 DUP4 ADD SWAP3 POP POP POP POP POP POP POP CALLER PUSH1 0x40 MLOAD PUSH1 0x20 ADD PUSH2 0x15CD SWAP2 SWAP1 PUSH2 0x2599 JUMP JUMPDEST PUSH1 0x40 MLOAD PUSH1 0x20 DUP2 DUP4 SUB SUB DUP2 MSTORE SWAP1 PUSH1 0x40 MSTORE DUP1 MLOAD SWAP1 PUSH1 0x20 ADD KECCAK256 PUSH2 0x136C JUMP JUMPDEST PUSH2 0x1627 JUMPI PUSH1 0x40 MLOAD PUSH32 0x8C379A000000000000000000000000000000000000000000000000000000000 DUP2 MSTORE PUSH1 0x4 ADD PUSH2 0x161E SWAP1 PUSH2 0x27B9 JUMP JUMPDEST PUSH1 0x40 MLOAD DUP1 SWAP2 SUB SWAP1 REVERT JUMPDEST PUSH2 0x1631 DUP4 CALLER PUSH2 0x1A59 JUMP JUMPDEST POP POP POP JUMP JUMPDEST PUSH2 0x163E PUSH2 0xCD3 JUMP JUMPDEST PUSH2 0x167D JUMPI PUSH1 0x40 MLOAD PUSH32 0x8C379A000000000000000000000000000000000000000000000000000000000 DUP2 MSTORE PUSH1 0x4 ADD PUSH2 0x1674 SWAP1 PUSH2 0x2679 JUMP JUMPDEST PUSH1 0x40 MLOAD DUP1 SWAP2 SUB SWAP1 REVERT JUMPDEST PUSH1 0x0 DUP1 PUSH1 0x0 PUSH2 0x100 EXP DUP2 SLOAD DUP2 PUSH1 0xFF MUL NOT AND SWAP1 DUP4 ISZERO ISZERO MUL OR SWAP1 SSTORE POP PUSH32 0x5DB9EE0A495BF2E6FF9C91A7834C1BA4FDD244A5E8AA4E537BD38AEAE4B073AA PUSH2 0x16C0 PUSH2 0x16D7 JUMP JUMPDEST PUSH1 0x40 MLOAD PUSH2 0x16CD SWAP2 SWAP1 PUSH2 0x25B4 JUMP JUMPDEST PUSH1 0x40 MLOAD DUP1 SWAP2 SUB SWAP1 LOG1 JUMP JUMPDEST PUSH1 0x0 CALLER SWAP1 POP SWAP1 JUMP JUMPDEST PUSH1 0x0 PUSH1 0x60 PUSH2 0x16EB PUSH2 0xCD3 JUMP JUMPDEST ISZERO PUSH2 0x172B JUMPI PUSH1 0x40 MLOAD PUSH32 0x8C379A000000000000000000000000000000000000000000000000000000000 DUP2 MSTORE PUSH1 0x4 ADD PUSH2 0x1722 SWAP1 PUSH2 0x26D9 JUMP JUMPDEST PUSH1 0x40 MLOAD DUP1 SWAP2 SUB SWAP1 REVERT JUMPDEST PUSH1 0x0 JUMPDEST PUSH1 0x4 SLOAD DUP2 LT ISZERO PUSH2 0x183B JUMPI PUSH1 0x9 SLOAD PUSH1 0x7 PUSH1 0x0 DUP4 DUP2 MSTORE PUSH1 0x20 ADD SWAP1 DUP2 MSTORE PUSH1 0x20 ADD PUSH1 0x0 KECCAK256 PUSH1 0x2 ADD SLOAD GT ISZERO PUSH2 0x17C7 JUMPI PUSH1 0x7 PUSH1 0x0 DUP3 DUP2 MSTORE PUSH1 0x20 ADD SWAP1 DUP2 MSTORE PUSH1 0x20 ADD PUSH1 0x0 KECCAK256 PUSH1 0x2 ADD SLOAD PUSH1 0x9 DUP2 SWAP1 SSTORE POP PUSH1 0x8 PUSH1 0x0 PUSH2 0x1783 SWAP2 SWAP1 PUSH2 0x1DB1 JUMP JUMPDEST PUSH1 0x8 PUSH1 0x7 PUSH1 0x0 DUP4 DUP2 MSTORE PUSH1 0x20 ADD SWAP1 DUP2 MSTORE PUSH1 0x20 ADD PUSH1 0x0 KECCAK256 PUSH1 0x0 ADD SLOAD SWAP1 DUP1 PUSH1 0x1 DUP2 SLOAD ADD DUP1 DUP3 SSTORE DUP1 SWAP2 POP POP PUSH1 0x1 SWAP1 SUB SWAP1 PUSH1 0x0 MSTORE PUSH1 0x20 PUSH1 0x0 KECCAK256 ADD PUSH1 0x0 SWAP1 SWAP2 SWAP1 SWAP2 SWAP1 SWAP2 POP SSTORE PUSH2 0x1828 JUMP JUMPDEST PUSH1 0x9 SLOAD PUSH1 0x7 PUSH1 0x0 DUP4 DUP2 MSTORE PUSH1 0x20 ADD SWAP1 DUP2 MSTORE PUSH1 0x20 ADD PUSH1 0x0 KECCAK256 PUSH1 0x2 ADD SLOAD EQ ISZERO PUSH2 0x1827 JUMPI PUSH1 0x8 PUSH1 0x7 PUSH1 0x0 DUP4 DUP2 MSTORE PUSH1 0x20 ADD SWAP1 DUP2 MSTORE PUSH1 0x20 ADD PUSH1 0x0 KECCAK256 PUSH1 0x0 ADD SLOAD SWAP1 DUP1 PUSH1 0x1 DUP2 SLOAD ADD DUP1 DUP3 SSTORE DUP1 SWAP2 POP POP PUSH1 0x1 SWAP1 SUB SWAP1 PUSH1 0x0 MSTORE PUSH1 0x20 PUSH1 0x0 KECCAK256 ADD PUSH1 0x0 SWAP1 SWAP2 SWAP1 SWAP2 SWAP1 SWAP2 POP SSTORE JUMPDEST JUMPDEST DUP1 DUP1 PUSH2 0x1833 SWAP1 PUSH2 0x2B50 JUMP JUMPDEST SWAP2 POP POP PUSH2 0x172E JUMP JUMPDEST POP PUSH1 0x9 SLOAD PUSH1 0x8 DUP1 DUP1 SLOAD DUP1 PUSH1 0x20 MUL PUSH1 0x20 ADD PUSH1 0x40 MLOAD SWAP1 DUP2 ADD PUSH1 0x40 MSTORE DUP1 SWAP3 SWAP2 SWAP1 DUP2 DUP2 MSTORE PUSH1 0x20 ADD DUP3 DUP1 SLOAD DUP1 ISZERO PUSH2 0x188C JUMPI PUSH1 0x20 MUL DUP3 ADD SWAP2 SWAP1 PUSH1 0x0 MSTORE PUSH1 0x20 PUSH1 0x0 KECCAK256 SWAP1 JUMPDEST DUP2 SLOAD DUP2 MSTORE PUSH1 0x20 ADD SWAP1 PUSH1 0x1 ADD SWAP1 DUP1 DUP4 GT PUSH2 0x1878 JUMPI JUMPDEST POP POP POP POP POP SWAP1 POP SWAP2 POP SWAP2 POP SWAP1 SWAP2 JUMP JUMPDEST PUSH2 0x18A3 PUSH2 0xCD3 JUMP JUMPDEST ISZERO PUSH2 0x18E3 JUMPI PUSH1 0x40 MLOAD PUSH32 0x8C379A000000000000000000000000000000000000000000000000000000000 DUP2 MSTORE PUSH1 0x4 ADD PUSH2 0x18DA SWAP1 PUSH2 0x26D9 JUMP JUMPDEST PUSH1 0x40 MLOAD DUP1 SWAP2 SUB SWAP1 REVERT JUMPDEST PUSH1 0x40 MLOAD DUP1 PUSH1 0x60 ADD PUSH1 0x40 MSTORE DUP1 PUSH1 0x4 SLOAD DUP2 MSTORE PUSH1 0x20 ADD DUP3 DUP2 MSTORE PUSH1 0x20 ADD PUSH1 0x0 DUP2 MSTORE POP PUSH1 0x7 PUSH1 0x0 PUSH1 0x4 SLOAD DUP2 MSTORE PUSH1 0x20 ADD SWAP1 DUP2 MSTORE PUSH1 0x20 ADD PUSH1 0x0 KECCAK256 PUSH1 0x0 DUP3 ADD MLOAD DUP2 PUSH1 0x0 ADD SSTORE PUSH1 0x20 DUP3 ADD MLOAD DUP2 PUSH1 0x1 ADD SWAP1 DUP1 MLOAD SWAP1 PUSH1 0x20 ADD SWAP1 PUSH2 0x193C SWAP3 SWAP2 SWAP1 PUSH2 0x1D2B JUMP JUMPDEST POP PUSH1 0x40 DUP3 ADD MLOAD DUP2 PUSH1 0x2 ADD SSTORE SWAP1 POP POP PUSH32 0x78D27A3C512303F604B46BC28ACC0CA45ABE6420172A017C5A6DC585821EB639 PUSH1 0x4 SLOAD DUP3 PUSH1 0x40 MLOAD PUSH2 0x197D SWAP3 SWAP2 SWAP1 PUSH2 0x2824 JUMP JUMPDEST PUSH1 0x40 MLOAD DUP1 SWAP2 SUB SWAP1 LOG1 PUSH1 0x4 PUSH1 0x0 DUP2 SLOAD DUP1 SWAP3 SWAP2 SWAP1 PUSH2 0x1998 SWAP1 PUSH2 0x2B50 JUMP JUMPDEST SWAP2 SWAP1 POP SSTORE POP POP JUMP JUMPDEST PUSH2 0x19A8 PUSH2 0xCD3 JUMP JUMPDEST ISZERO PUSH2 0x19E8 JUMPI PUSH1 0x40 MLOAD PUSH32 0x8C379A000000000000000000000000000000000000000000000000000000000 DUP2 MSTORE PUSH1 0x4 ADD PUSH2 0x19DF SWAP1 PUSH2 0x26D9 JUMP JUMPDEST PUSH1 0x40 MLOAD DUP1 SWAP2 SUB SWAP1 REVERT JUMPDEST PUSH1 0x1 PUSH1 0x0 DUP1 PUSH2 0x100 EXP DUP2 SLOAD DUP2 PUSH1 0xFF MUL NOT AND SWAP1 DUP4 ISZERO ISZERO MUL OR SWAP1 SSTORE POP PUSH32 0x62E78CEA01BEE320CD4E420270B5EA74000D11B0C9F74754EBDBFC544B05A258 PUSH2 0x1A2B PUSH2 0x16D7 JUMP JUMPDEST PUSH1 0x40 MLOAD PUSH2 0x1A38 SWAP2 SWAP1 PUSH2 0x25B4 JUMP JUMPDEST PUSH1 0x40 MLOAD DUP1 SWAP2 SUB SWAP1 LOG1 JUMP JUMPDEST PUSH1 0x0 DUP3 PUSH2 0x1A4F DUP6 DUP5 PUSH2 0x1C58 JUMP JUMPDEST EQ SWAP1 POP SWAP4 SWAP3 POP POP POP JUMP JUMPDEST PUSH2 0x1A61 PUSH2 0xCD3 JUMP JUMPDEST ISZERO PUSH2 0x1AA1 JUMPI PUSH1 0x40 MLOAD PUSH32 0x8C379A000000000000000000000000000000000000000000000000000000000 DUP2 MSTORE PUSH1 0x4 ADD PUSH2 0x1A98 SWAP1 PUSH2 0x26D9 JUMP JUMPDEST PUSH1 0x40 MLOAD DUP1 SWAP2 SUB SWAP1 REVERT JUMPDEST DUP2 PUSH1 0x4 SLOAD DUP2 LT DUP1 ISZERO PUSH2 0x1AB4 JUMPI POP PUSH1 0x0 DUP2 LT ISZERO JUMPDEST PUSH2 0x1AF3 JUMPI PUSH1 0x40 MLOAD PUSH32 0x8C379A000000000000000000000000000000000000000000000000000000000 DUP2 MSTORE PUSH1 0x4 ADD PUSH2 0x1AEA SWAP1 PUSH2 0x2759 JUMP JUMPDEST PUSH1 0x40 MLOAD DUP1 SWAP2 SUB SWAP1 REVERT JUMPDEST PUSH1 0x6 PUSH1 0x0 DUP4 PUSH20 0xFFFFFFFFFFFFFFFFFFFFFFFFFFFFFFFFFFFFFFFF AND PUSH20 0xFFFFFFFFFFFFFFFFFFFFFFFFFFFFFFFFFFFFFFFF AND DUP2 MSTORE PUSH1 0x20 ADD SWAP1 DUP2 MSTORE PUSH1 0x20 ADD PUSH1 0x0 KECCAK256 PUSH1 0x0 SWAP1 SLOAD SWAP1 PUSH2 0x100 EXP SWAP1 DIV PUSH1 0xFF AND ISZERO PUSH2 0x1B80 JUMPI PUSH1 0x40 MLOAD PUSH32 0x8C379A000000000000000000000000000000000000000000000000000000000 DUP2 MSTORE PUSH1 0x4 ADD PUSH2 0x1B77 SWAP1 PUSH2 0x2799 JUMP JUMPDEST PUSH1 0x40 MLOAD DUP1 SWAP2 SUB SWAP1 REVERT JUMPDEST PUSH1 0x1 PUSH1 0x6 PUSH1 0x0 DUP5 PUSH20 0xFFFFFFFFFFFFFFFFFFFFFFFFFFFFFFFFFFFFFFFF AND PUSH20 0xFFFFFFFFFFFFFFFFFFFFFFFFFFFFFFFFFFFFFFFF AND DUP2 MSTORE PUSH1 0x20 ADD SWAP1 DUP2 MSTORE PUSH1 0x20 ADD PUSH1 0x0 KECCAK256 PUSH1 0x0 PUSH2 0x100 EXP DUP2 SLOAD DUP2 PUSH1 0xFF MUL NOT AND SWAP1 DUP4 ISZERO ISZERO MUL OR SWAP1 SSTORE POP PUSH1 0x7 PUSH1 0x0 DUP5 DUP2 MSTORE PUSH1 0x20 ADD SWAP1 DUP2 MSTORE PUSH1 0x20 ADD PUSH1 0x0 KECCAK256 PUSH1 0x2 ADD PUSH1 0x0 DUP2 SLOAD DUP1 SWAP3 SWAP2 SWAP1 PUSH2 0x1BFF SWAP1 PUSH2 0x2B50 JUMP JUMPDEST SWAP2 SWAP1 POP SSTORE POP PUSH32 0xD3EBD88818D034D26C5D98BCEF9C7C45207130238E76E8CF0B3BA00E906851BF DUP4 PUSH1 0x7 PUSH1 0x0 DUP7 DUP2 MSTORE PUSH1 0x20 ADD SWAP1 DUP2 MSTORE PUSH1 0x20 ADD PUSH1 0x0 KECCAK256 PUSH1 0x2 ADD SLOAD PUSH1 0x40 MLOAD PUSH2 0x1C4B SWAP3 SWAP2 SWAP1 PUSH2 0x2892 JUMP JUMPDEST PUSH1 0x40 MLOAD DUP1 SWAP2 SUB SWAP1 LOG1 POP POP POP JUMP JUMPDEST PUSH1 0x0 DUP1 DUP3 SWAP1 POP PUSH1 0x0 JUMPDEST DUP5 MLOAD DUP2 LT ISZERO PUSH2 0x1CE8 JUMPI PUSH1 0x0 DUP6 DUP3 DUP2 MLOAD DUP2 LT PUSH2 0x1CA5 JUMPI PUSH32 0x4E487B7100000000000000000000000000000000000000000000000000000000 PUSH1 0x0 MSTORE PUSH1 0x32 PUSH1 0x4 MSTORE PUSH1 0x24 PUSH1 0x0 REVERT JUMPDEST PUSH1 0x20 MUL PUSH1 0x20 ADD ADD MLOAD SWAP1 POP DUP1 DUP4 GT PUSH2 0x1CC7 JUMPI PUSH2 0x1CC0 DUP4 DUP3 PUSH2 0x1CF3 JUMP JUMPDEST SWAP3 POP PUSH2 0x1CD4 JUMP JUMPDEST PUSH2 0x1CD1 DUP2 DUP5 PUSH2 0x1CF3 JUMP JUMPDEST SWAP3 POP JUMPDEST POP DUP1 DUP1 PUSH2 0x1CE0 SWAP1 PUSH2 0x2B50 JUMP JUMPDEST SWAP2 POP POP PUSH2 0x1C61 JUMP JUMPDEST POP DUP1 SWAP2 POP POP SWAP3 SWAP2 POP POP JUMP JUMPDEST PUSH1 0x0 DUP3 PUSH1 0x0 MSTORE DUP2 PUSH1 0x20 MSTORE PUSH1 0x40 PUSH1 0x0 KECCAK256 SWAP1 POP SWAP3 SWAP2 POP POP JUMP JUMPDEST PUSH1 0x40 MLOAD DUP1 PUSH1 0x60 ADD PUSH1 0x40 MSTORE DUP1 PUSH1 0x0 DUP2 MSTORE PUSH1 0x20 ADD PUSH1 0x60 DUP2 MSTORE PUSH1 0x20 ADD PUSH1 0x0 DUP2 MSTORE POP SWAP1 JUMP JUMPDEST DUP3 DUP1 SLOAD PUSH2 0x1D37 SWAP1 PUSH2 0x2AD3 JUMP JUMPDEST SWAP1 PUSH1 0x0 MSTORE PUSH1 0x20 PUSH1 0x0 KECCAK256 SWAP1 PUSH1 0x1F ADD PUSH1 0x20 SWAP1 DIV DUP2 ADD SWAP3 DUP3 PUSH2 0x1D59 JUMPI PUSH1 0x0 DUP6 SSTORE PUSH2 0x1DA0 JUMP JUMPDEST DUP3 PUSH1 0x1F LT PUSH2 0x1D72 JUMPI DUP1 MLOAD PUSH1 0xFF NOT AND DUP4 DUP1 ADD OR DUP6 SSTORE PUSH2 0x1DA0 JUMP JUMPDEST DUP3 DUP1 ADD PUSH1 0x1 ADD DUP6 SSTORE DUP3 ISZERO PUSH2 0x1DA0 JUMPI SWAP2 DUP3 ADD JUMPDEST DUP3 DUP2 GT ISZERO PUSH2 0x1D9F JUMPI DUP3 MLOAD DUP3 SSTORE SWAP2 PUSH1 0x20 ADD SWAP2 SWAP1 PUSH1 0x1 ADD SWAP1 PUSH2 0x1D84 JUMP JUMPDEST JUMPDEST POP SWAP1 POP PUSH2 0x1DAD SWAP2 SWAP1 PUSH2 0x1DD2 JUMP JUMPDEST POP SWAP1 JUMP JUMPDEST POP DUP1 SLOAD PUSH1 0x0 DUP3 SSTORE SWAP1 PUSH1 0x0 MSTORE PUSH1 0x20 PUSH1 0x0 KECCAK256 SWAP1 DUP2 ADD SWAP1 PUSH2 0x1DCF SWAP2 SWAP1 PUSH2 0x1DD2 JUMP JUMPDEST POP JUMP JUMPDEST JUMPDEST DUP1 DUP3 GT ISZERO PUSH2 0x1DEB JUMPI PUSH1 0x0 DUP2 PUSH1 0x0 SWAP1 SSTORE POP PUSH1 0x1 ADD PUSH2 0x1DD3 JUMP JUMPDEST POP SWAP1 JUMP JUMPDEST PUSH1 0x0 PUSH2 0x1E02 PUSH2 0x1DFD DUP5 PUSH2 0x28E0 JUMP JUMPDEST PUSH2 0x28BB JUMP JUMPDEST SWAP1 POP DUP1 DUP4 DUP3 MSTORE PUSH1 0x20 DUP3 ADD SWAP1 POP DUP3 DUP6 PUSH1 0x20 DUP7 MUL DUP3 ADD GT ISZERO PUSH2 0x1E21 JUMPI PUSH1 0x0 DUP1 REVERT JUMPDEST PUSH1 0x0 JUMPDEST DUP6 DUP2 LT ISZERO PUSH2 0x1E51 JUMPI DUP2 PUSH2 0x1E37 DUP9 DUP3 PUSH2 0x1FD2 JUMP JUMPDEST DUP5 MSTORE PUSH1 0x20 DUP5 ADD SWAP4 POP PUSH1 0x20 DUP4 ADD SWAP3 POP POP PUSH1 0x1 DUP2 ADD SWAP1 POP PUSH2 0x1E24 JUMP JUMPDEST POP POP POP SWAP4 SWAP3 POP POP POP JUMP JUMPDEST PUSH1 0x0 PUSH2 0x1E6E PUSH2 0x1E69 DUP5 PUSH2 0x290C JUMP JUMPDEST PUSH2 0x28BB JUMP JUMPDEST SWAP1 POP DUP1 DUP4 DUP3 MSTORE PUSH1 0x20 DUP3 ADD SWAP1 POP DUP3 DUP6 PUSH1 0x20 DUP7 MUL DUP3 ADD GT ISZERO PUSH2 0x1E8D JUMPI PUSH1 0x0 DUP1 REVERT JUMPDEST PUSH1 0x0 JUMPDEST DUP6 DUP2 LT ISZERO PUSH2 0x1ED7 JUMPI DUP2 CALLDATALOAD PUSH8 0xFFFFFFFFFFFFFFFF DUP2 GT ISZERO PUSH2 0x1EAF JUMPI PUSH1 0x0 DUP1 REVERT JUMPDEST DUP1 DUP7 ADD PUSH2 0x1EBC DUP10 DUP3 PUSH2 0x1FE7 JUMP JUMPDEST DUP6 MSTORE PUSH1 0x20 DUP6 ADD SWAP5 POP PUSH1 0x20 DUP5 ADD SWAP4 POP POP POP PUSH1 0x1 DUP2 ADD SWAP1 POP PUSH2 0x1E90 JUMP JUMPDEST POP POP POP SWAP4 SWAP3 POP POP POP JUMP JUMPDEST PUSH1 0x0 PUSH2 0x1EF4 PUSH2 0x1EEF DUP5 PUSH2 0x2938 JUMP JUMPDEST PUSH2 0x28BB JUMP JUMPDEST SWAP1 POP DUP3 DUP2 MSTORE PUSH1 0x20 DUP2 ADD DUP5 DUP5 DUP5 ADD GT ISZERO PUSH2 0x1F0C JUMPI PUSH1 0x0 DUP1 REVERT JUMPDEST PUSH2 0x1F17 DUP5 DUP3 DUP6 PUSH2 0x2A91 JUMP JUMPDEST POP SWAP4 SWAP3 POP POP POP JUMP JUMPDEST PUSH1 0x0 DUP2 CALLDATALOAD SWAP1 POP PUSH2 0x1F2E DUP2 PUSH2 0x2F2F JUMP JUMPDEST SWAP3 SWAP2 POP POP JUMP JUMPDEST PUSH1 0x0 DUP1 DUP4 PUSH1 0x1F DUP5 ADD SLT PUSH2 0x1F46 JUMPI PUSH1 0x0 DUP1 REVERT JUMPDEST DUP3 CALLDATALOAD SWAP1 POP PUSH8 0xFFFFFFFFFFFFFFFF DUP2 GT ISZERO PUSH2 0x1F5F JUMPI PUSH1 0x0 DUP1 REVERT JUMPDEST PUSH1 0x20 DUP4 ADD SWAP2 POP DUP4 PUSH1 0x20 DUP3 MUL DUP4 ADD GT ISZERO PUSH2 0x1F77 JUMPI PUSH1 0x0 DUP1 REVERT JUMPDEST SWAP3 POP SWAP3 SWAP1 POP JUMP JUMPDEST PUSH1 0x0 DUP3 PUSH1 0x1F DUP4 ADD SLT PUSH2 0x1F8F JUMPI PUSH1 0x0 DUP1 REVERT JUMPDEST DUP2 CALLDATALOAD PUSH2 0x1F9F DUP5 DUP3 PUSH1 0x20 DUP7 ADD PUSH2 0x1DEF JUMP JUMPDEST SWAP2 POP POP SWAP3 SWAP2 POP POP JUMP JUMPDEST PUSH1 0x0 DUP3 PUSH1 0x1F DUP4 ADD SLT PUSH2 0x1FB9 JUMPI PUSH1 0x0 DUP1 REVERT JUMPDEST DUP2 CALLDATALOAD PUSH2 0x1FC9 DUP5 DUP3 PUSH1 0x20 DUP7 ADD PUSH2 0x1E5B JUMP JUMPDEST SWAP2 POP POP SWAP3 SWAP2 POP POP JUMP JUMPDEST PUSH1 0x0 DUP2 CALLDATALOAD SWAP1 POP PUSH2 0x1FE1 DUP2 PUSH2 0x2F46 JUMP JUMPDEST SWAP3 SWAP2 POP POP JUMP JUMPDEST PUSH1 0x0 DUP3 PUSH1 0x1F DUP4 ADD SLT PUSH2 0x1FF8 JUMPI PUSH1 0x0 DUP1 REVERT JUMPDEST DUP2 CALLDATALOAD PUSH2 0x2008 DUP5 DUP3 PUSH1 0x20 DUP7 ADD PUSH2 0x1EE1 JUMP JUMPDEST SWAP2 POP POP SWAP3 SWAP2 POP POP JUMP JUMPDEST PUSH1 0x0 DUP2 CALLDATALOAD SWAP1 POP PUSH2 0x2020 DUP2 PUSH2 0x2F5D JUMP JUMPDEST SWAP3 SWAP2 POP POP JUMP JUMPDEST PUSH1 0x0 PUSH1 0x20 DUP3 DUP5 SUB SLT ISZERO PUSH2 0x2038 JUMPI PUSH1 0x0 DUP1 REVERT JUMPDEST PUSH1 0x0 PUSH2 0x2046 DUP5 DUP3 DUP6 ADD PUSH2 0x1F1F JUMP JUMPDEST SWAP2 POP POP SWAP3 SWAP2 POP POP JUMP JUMPDEST PUSH1 0x0 DUP1 PUSH1 0x40 DUP4 DUP6 SUB SLT ISZERO PUSH2 0x2062 JUMPI PUSH1 0x0 DUP1 REVERT JUMPDEST PUSH1 0x0 DUP4 ADD CALLDATALOAD PUSH8 0xFFFFFFFFFFFFFFFF DUP2 GT ISZERO PUSH2 0x207C JUMPI PUSH1 0x0 DUP1 REVERT JUMPDEST PUSH2 0x2088 DUP6 DUP3 DUP7 ADD PUSH2 0x1F7E JUMP JUMPDEST SWAP3 POP POP PUSH1 0x20 PUSH2 0x2099 DUP6 DUP3 DUP7 ADD PUSH2 0x1FD2 JUMP JUMPDEST SWAP2 POP POP SWAP3 POP SWAP3 SWAP1 POP JUMP JUMPDEST PUSH1 0x0 DUP1 PUSH1 0x40 DUP4 DUP6 SUB SLT ISZERO PUSH2 0x20B6 JUMPI PUSH1 0x0 DUP1 REVERT JUMPDEST PUSH1 0x0 DUP4 ADD CALLDATALOAD PUSH8 0xFFFFFFFFFFFFFFFF DUP2 GT ISZERO PUSH2 0x20D0 JUMPI PUSH1 0x0 DUP1 REVERT JUMPDEST PUSH2 0x20DC DUP6 DUP3 DUP7 ADD PUSH2 0x1FA8 JUMP JUMPDEST SWAP3 POP POP PUSH1 0x20 DUP4 ADD CALLDATALOAD PUSH8 0xFFFFFFFFFFFFFFFF DUP2 GT ISZERO PUSH2 0x20F9 JUMPI PUSH1 0x0 DUP1 REVERT JUMPDEST PUSH2 0x2105 DUP6 DUP3 DUP7 ADD PUSH2 0x1FA8 JUMP JUMPDEST SWAP2 POP POP SWAP3 POP SWAP3 SWAP1 POP JUMP JUMPDEST PUSH1 0x0 PUSH1 0x20 DUP3 DUP5 SUB SLT ISZERO PUSH2 0x2121 JUMPI PUSH1 0x0 DUP1 REVERT JUMPDEST PUSH1 0x0 PUSH2 0x212F DUP5 DUP3 DUP6 ADD PUSH2 0x2011 JUMP JUMPDEST SWAP2 POP POP SWAP3 SWAP2 POP POP JUMP JUMPDEST PUSH1 0x0 DUP1 PUSH1 0x0 PUSH1 0x40 DUP5 DUP7 SUB SLT ISZERO PUSH2 0x214D JUMPI PUSH1 0x0 DUP1 REVERT JUMPDEST PUSH1 0x0 PUSH2 0x215B DUP7 DUP3 DUP8 ADD PUSH2 0x2011 JUMP JUMPDEST SWAP4 POP POP PUSH1 0x20 DUP5 ADD CALLDATALOAD PUSH8 0xFFFFFFFFFFFFFFFF DUP2 GT ISZERO PUSH2 0x2178 JUMPI PUSH1 0x0 DUP1 REVERT JUMPDEST PUSH2 0x2184 DUP7 DUP3 DUP8 ADD PUSH2 0x1F34 JUMP JUMPDEST SWAP3 POP SWAP3 POP POP SWAP3 POP SWAP3 POP SWAP3 JUMP JUMPDEST PUSH1 0x0 PUSH2 0x219C DUP4 DUP4 PUSH2 0x252B JUMP JUMPDEST SWAP1 POP SWAP3 SWAP2 POP POP JUMP JUMPDEST PUSH1 0x0 PUSH2 0x21B0 DUP4 DUP4 PUSH2 0x257B JUMP JUMPDEST PUSH1 0x20 DUP4 ADD SWAP1 POP SWAP3 SWAP2 POP POP JUMP JUMPDEST PUSH2 0x21C5 DUP2 PUSH2 0x2A3F JUMP JUMPDEST DUP3 MSTORE POP POP JUMP JUMPDEST PUSH2 0x21DC PUSH2 0x21D7 DUP3 PUSH2 0x2A3F JUMP JUMPDEST PUSH2 0x2B99 JUMP JUMPDEST DUP3 MSTORE POP POP JUMP JUMPDEST PUSH1 0x0 PUSH2 0x21ED DUP3 PUSH2 0x299E JUMP JUMPDEST PUSH2 0x21F7 DUP2 DUP6 PUSH2 0x29F1 JUMP JUMPDEST SWAP4 POP DUP4 PUSH1 0x20 DUP3 MUL DUP6 ADD PUSH2 0x2209 DUP6 PUSH2 0x2969 JUMP JUMPDEST DUP1 PUSH1 0x0 JUMPDEST DUP6 DUP2 LT ISZERO PUSH2 0x2245 JUMPI DUP5 DUP5 SUB DUP10 MSTORE DUP2 MLOAD PUSH2 0x2226 DUP6 DUP3 PUSH2 0x2190 JUMP JUMPDEST SWAP5 POP PUSH2 0x2231 DUP4 PUSH2 0x29CA JUMP JUMPDEST SWAP3 POP PUSH1 0x20 DUP11 ADD SWAP10 POP POP PUSH1 0x1 DUP2 ADD SWAP1 POP PUSH2 0x220D JUMP JUMPDEST POP DUP3 SWAP8 POP DUP8 SWAP6 POP POP POP POP POP POP SWAP3 SWAP2 POP POP JUMP JUMPDEST PUSH1 0x0 PUSH2 0x2262 DUP3 PUSH2 0x29A9 JUMP JUMPDEST PUSH2 0x226C DUP2 DUP6 PUSH2 0x2A02 JUMP JUMPDEST SWAP4 POP PUSH2 0x2277 DUP4 PUSH2 0x2979 JUMP JUMPDEST DUP1 PUSH1 0x0 JUMPDEST DUP4 DUP2 LT ISZERO PUSH2 0x22A8 JUMPI DUP2 MLOAD PUSH2 0x228F DUP9 DUP3 PUSH2 0x21A4 JUMP JUMPDEST SWAP8 POP PUSH2 0x229A DUP4 PUSH2 0x29D7 JUMP JUMPDEST SWAP3 POP POP PUSH1 0x1 DUP2 ADD SWAP1 POP PUSH2 0x227B JUMP JUMPDEST POP DUP6 SWAP4 POP POP POP POP SWAP3 SWAP2 POP POP JUMP JUMPDEST PUSH1 0x0 PUSH2 0x22C0 DUP3 PUSH2 0x29B4 JUMP JUMPDEST PUSH2 0x22CA DUP2 DUP6 PUSH2 0x2A02 JUMP JUMPDEST SWAP4 POP PUSH2 0x22D5 DUP4 PUSH2 0x2989 JUMP JUMPDEST DUP1 PUSH1 0x0 JUMPDEST DUP4 DUP2 LT ISZERO PUSH2 0x230D JUMPI PUSH2 0x22EA DUP3 PUSH2 0x2C4A JUMP JUMPDEST PUSH2 0x22F4 DUP9 DUP3 PUSH2 0x21A4 JUMP JUMPDEST SWAP8 POP PUSH2 0x22FF DUP4 PUSH2 0x29E4 JUMP JUMPDEST SWAP3 POP POP PUSH1 0x1 DUP2 ADD SWAP1 POP PUSH2 0x22D9 JUMP JUMPDEST POP DUP6 SWAP4 POP POP POP POP SWAP3 SWAP2 POP POP JUMP JUMPDEST PUSH2 0x2323 DUP2 PUSH2 0x2A51 JUMP JUMPDEST DUP3 MSTORE POP POP JUMP JUMPDEST PUSH2 0x2332 DUP2 PUSH2 0x2A5D JUMP JUMPDEST DUP3 MSTORE POP POP JUMP JUMPDEST PUSH1 0x0 PUSH2 0x2343 DUP3 PUSH2 0x29BF JUMP JUMPDEST PUSH2 0x234D DUP2 DUP6 PUSH2 0x2A13 JUMP JUMPDEST SWAP4 POP PUSH2 0x235D DUP2 DUP6 PUSH1 0x20 DUP7 ADD PUSH2 0x2AA0 JUMP JUMPDEST PUSH2 0x2366 DUP2 PUSH2 0x2C5D JUMP JUMPDEST DUP5 ADD SWAP2 POP POP SWAP3 SWAP2 POP POP JUMP JUMPDEST PUSH1 0x0 PUSH2 0x237C DUP3 PUSH2 0x29BF JUMP JUMPDEST PUSH2 0x2386 DUP2 DUP6 PUSH2 0x2A24 JUMP JUMPDEST SWAP4 POP PUSH2 0x2396 DUP2 DUP6 PUSH1 0x20 DUP7 ADD PUSH2 0x2AA0 JUMP JUMPDEST PUSH2 0x239F DUP2 PUSH2 0x2C5D JUMP JUMPDEST DUP5 ADD SWAP2 POP POP SWAP3 SWAP2 POP POP JUMP JUMPDEST PUSH1 0x0 PUSH2 0x23B7 PUSH1 0x14 DUP4 PUSH2 0x2A24 JUMP JUMPDEST SWAP2 POP PUSH2 0x23C2 DUP3 PUSH2 0x2C88 JUMP JUMPDEST PUSH1 0x20 DUP3 ADD SWAP1 POP SWAP2 SWAP1 POP JUMP JUMPDEST PUSH1 0x0 PUSH2 0x23DA PUSH1 0x2E DUP4 PUSH2 0x2A24 JUMP JUMPDEST SWAP2 POP PUSH2 0x23E5 DUP3 PUSH2 0x2CB1 JUMP JUMPDEST PUSH1 0x40 DUP3 ADD SWAP1 POP SWAP2 SWAP1 POP JUMP JUMPDEST PUSH1 0x0 PUSH2 0x23FD PUSH1 0x2D DUP4 PUSH2 0x2A24 JUMP JUMPDEST SWAP2 POP PUSH2 0x2408 DUP3 PUSH2 0x2D00 JUMP JUMPDEST PUSH1 0x40 DUP3 ADD SWAP1 POP SWAP2 SWAP1 POP JUMP JUMPDEST PUSH1 0x0 PUSH2 0x2420 PUSH1 0x10 DUP4 PUSH2 0x2A24 JUMP JUMPDEST SWAP2 POP PUSH2 0x242B DUP3 PUSH2 0x2D4F JUMP JUMPDEST PUSH1 0x20 DUP3 ADD SWAP1 POP SWAP2 SWAP1 POP JUMP JUMPDEST PUSH1 0x0 PUSH2 0x2443 PUSH1 0x30 DUP4 PUSH2 0x2A24 JUMP JUMPDEST SWAP2 POP PUSH2 0x244E DUP3 PUSH2 0x2D78 JUMP JUMPDEST PUSH1 0x40 DUP3 ADD SWAP1 POP SWAP2 SWAP1 POP JUMP JUMPDEST PUSH1 0x0 PUSH2 0x2466 PUSH1 0x21 DUP4 PUSH2 0x2A24 JUMP JUMPDEST SWAP2 POP PUSH2 0x2471 DUP3 PUSH2 0x2DC7 JUMP JUMPDEST PUSH1 0x40 DUP3 ADD SWAP1 POP SWAP2 SWAP1 POP JUMP JUMPDEST PUSH1 0x0 PUSH2 0x2489 PUSH1 0x1E DUP4 PUSH2 0x2A24 JUMP JUMPDEST SWAP2 POP PUSH2 0x2494 DUP3 PUSH2 0x2E16 JUMP JUMPDEST PUSH1 0x20 DUP3 ADD SWAP1 POP SWAP2 SWAP1 POP JUMP JUMPDEST PUSH1 0x0 PUSH2 0x24AC PUSH1 0x1A DUP4 PUSH2 0x2A24 JUMP JUMPDEST SWAP2 POP PUSH2 0x24B7 DUP3 PUSH2 0x2E3F JUMP JUMPDEST PUSH1 0x20 DUP3 ADD SWAP1 POP SWAP2 SWAP1 POP JUMP JUMPDEST PUSH1 0x0 PUSH2 0x24CF PUSH1 0x24 DUP4 PUSH2 0x2A24 JUMP JUMPDEST SWAP2 POP PUSH2 0x24DA DUP3 PUSH2 0x2E68 JUMP JUMPDEST PUSH1 0x40 DUP3 ADD SWAP1 POP SWAP2 SWAP1 POP JUMP JUMPDEST PUSH1 0x0 PUSH2 0x24F2 PUSH1 0x18 DUP4 PUSH2 0x2A24 JUMP JUMPDEST SWAP2 POP PUSH2 0x24FD DUP3 PUSH2 0x2EB7 JUMP JUMPDEST PUSH1 0x20 DUP3 ADD SWAP1 POP SWAP2 SWAP1 POP JUMP JUMPDEST PUSH1 0x0 PUSH2 0x2515 PUSH1 0x2D DUP4 PUSH2 0x2A24 JUMP JUMPDEST SWAP2 POP PUSH2 0x2520 DUP3 PUSH2 0x2EE0 JUMP JUMPDEST PUSH1 0x40 DUP3 ADD SWAP1 POP SWAP2 SWAP1 POP JUMP JUMPDEST PUSH1 0x0 PUSH1 0x60 DUP4 ADD PUSH1 0x0 DUP4 ADD MLOAD PUSH2 0x2543 PUSH1 0x0 DUP7 ADD DUP3 PUSH2 0x257B JUMP JUMPDEST POP PUSH1 0x20 DUP4 ADD MLOAD DUP5 DUP3 SUB PUSH1 0x20 DUP7 ADD MSTORE PUSH2 0x255B DUP3 DUP3 PUSH2 0x2338 JUMP JUMPDEST SWAP2 POP POP PUSH1 0x40 DUP4 ADD MLOAD PUSH2 0x2570 PUSH1 0x40 DUP7 ADD DUP3 PUSH2 0x257B JUMP JUMPDEST POP DUP1 SWAP2 POP POP SWAP3 SWAP2 POP POP JUMP JUMPDEST PUSH2 0x2584 DUP2 PUSH2 0x2A87 JUMP JUMPDEST DUP3 MSTORE POP POP JUMP JUMPDEST PUSH2 0x2593 DUP2 PUSH2 0x2A87 JUMP JUMPDEST DUP3 MSTORE POP POP JUMP JUMPDEST PUSH1 0x0 PUSH2 0x25A5 DUP3 DUP5 PUSH2 0x21CB JUMP JUMPDEST PUSH1 0x14 DUP3 ADD SWAP2 POP DUP2 SWAP1 POP SWAP3 SWAP2 POP POP JUMP JUMPDEST PUSH1 0x0 PUSH1 0x20 DUP3 ADD SWAP1 POP PUSH2 0x25C9 PUSH1 0x0 DUP4 ADD DUP5 PUSH2 0x21BC JUMP JUMPDEST SWAP3 SWAP2 POP POP JUMP JUMPDEST PUSH1 0x0 PUSH1 0x20 DUP3 ADD SWAP1 POP DUP2 DUP2 SUB PUSH1 0x0 DUP4 ADD MSTORE PUSH2 0x25E9 DUP2 DUP5 PUSH2 0x21E2 JUMP JUMPDEST SWAP1 POP SWAP3 SWAP2 POP POP JUMP JUMPDEST PUSH1 0x0 PUSH1 0x40 DUP3 ADD SWAP1 POP DUP2 DUP2 SUB PUSH1 0x0 DUP4 ADD MSTORE PUSH2 0x260B DUP2 DUP6 PUSH2 0x22B5 JUMP JUMPDEST SWAP1 POP PUSH2 0x261A PUSH1 0x20 DUP4 ADD DUP5 PUSH2 0x258A JUMP JUMPDEST SWAP4 SWAP3 POP POP POP JUMP JUMPDEST PUSH1 0x0 PUSH1 0x20 DUP3 ADD SWAP1 POP PUSH2 0x2636 PUSH1 0x0 DUP4 ADD DUP5 PUSH2 0x231A JUMP JUMPDEST SWAP3 SWAP2 POP POP JUMP JUMPDEST PUSH1 0x0 PUSH1 0x20 DUP3 ADD SWAP1 POP PUSH2 0x2651 PUSH1 0x0 DUP4 ADD DUP5 PUSH2 0x2329 JUMP JUMPDEST SWAP3 SWAP2 POP POP JUMP JUMPDEST PUSH1 0x0 PUSH1 0x20 DUP3 ADD SWAP1 POP DUP2 DUP2 SUB PUSH1 0x0 DUP4 ADD MSTORE PUSH2 0x2671 DUP2 DUP5 PUSH2 0x2371 JUMP JUMPDEST SWAP1 POP SWAP3 SWAP2 POP POP JUMP JUMPDEST PUSH1 0x0 PUSH1 0x20 DUP3 ADD SWAP1 POP DUP2 DUP2 SUB PUSH1 0x0 DUP4 ADD MSTORE PUSH2 0x2692 DUP2 PUSH2 0x23AA JUMP JUMPDEST SWAP1 POP SWAP2 SWAP1 POP JUMP JUMPDEST PUSH1 0x0 PUSH1 0x20 DUP3 ADD SWAP1 POP DUP2 DUP2 SUB PUSH1 0x0 DUP4 ADD MSTORE PUSH2 0x26B2 DUP2 PUSH2 0x23CD JUMP JUMPDEST SWAP1 POP SWAP2 SWAP1 POP JUMP JUMPDEST PUSH1 0x0 PUSH1 0x20 DUP3 ADD SWAP1 POP DUP2 DUP2 SUB PUSH1 0x0 DUP4 ADD MSTORE PUSH2 0x26D2 DUP2 PUSH2 0x23F0 JUMP JUMPDEST SWAP1 POP SWAP2 SWAP1 POP JUMP JUMPDEST PUSH1 0x0 PUSH1 0x20 DUP3 ADD SWAP1 POP DUP2 DUP2 SUB PUSH1 0x0 DUP4 ADD MSTORE PUSH2 0x26F2 DUP2 PUSH2 0x2413 JUMP JUMPDEST SWAP1 POP SWAP2 SWAP1 POP JUMP JUMPDEST PUSH1 0x0 PUSH1 0x20 DUP3 ADD SWAP1 POP DUP2 DUP2 SUB PUSH1 0x0 DUP4 ADD MSTORE PUSH2 0x2712 DUP2 PUSH2 0x2436 JUMP JUMPDEST SWAP1 POP SWAP2 SWAP1 POP JUMP JUMPDEST PUSH1 0x0 PUSH1 0x20 DUP3 ADD SWAP1 POP DUP2 DUP2 SUB PUSH1 0x0 DUP4 ADD MSTORE PUSH2 0x2732 DUP2 PUSH2 0x2459 JUMP JUMPDEST SWAP1 POP SWAP2 SWAP1 POP JUMP JUMPDEST PUSH1 0x0 PUSH1 0x20 DUP3 ADD SWAP1 POP DUP2 DUP2 SUB PUSH1 0x0 DUP4 ADD MSTORE PUSH2 0x2752 DUP2 PUSH2 0x247C JUMP JUMPDEST SWAP1 POP SWAP2 SWAP1 POP JUMP JUMPDEST PUSH1 0x0 PUSH1 0x20 DUP3 ADD SWAP1 POP DUP2 DUP2 SUB PUSH1 0x0 DUP4 ADD MSTORE PUSH2 0x2772 DUP2 PUSH2 0x249F JUMP JUMPDEST SWAP1 POP SWAP2 SWAP1 POP JUMP JUMPDEST PUSH1 0x0 PUSH1 0x20 DUP3 ADD SWAP1 POP DUP2 DUP2 SUB PUSH1 0x0 DUP4 ADD MSTORE PUSH2 0x2792 DUP2 PUSH2 0x24C2 JUMP JUMPDEST SWAP1 POP SWAP2 SWAP1 POP JUMP JUMPDEST PUSH1 0x0 PUSH1 0x20 DUP3 ADD SWAP1 POP DUP2 DUP2 SUB PUSH1 0x0 DUP4 ADD MSTORE PUSH2 0x27B2 DUP2 PUSH2 0x24E5 JUMP JUMPDEST SWAP1 POP SWAP2 SWAP1 POP JUMP JUMPDEST PUSH1 0x0 PUSH1 0x20 DUP3 ADD SWAP1 POP DUP2 DUP2 SUB PUSH1 0x0 DUP4 ADD MSTORE PUSH2 0x27D2 DUP2 PUSH2 0x2508 JUMP JUMPDEST SWAP1 POP SWAP2 SWAP1 POP JUMP JUMPDEST PUSH1 0x0 PUSH1 0x20 DUP3 ADD SWAP1 POP PUSH2 0x27EE PUSH1 0x0 DUP4 ADD DUP5 PUSH2 0x258A JUMP JUMPDEST SWAP3 SWAP2 POP POP JUMP JUMPDEST PUSH1 0x0 PUSH1 0x40 DUP3 ADD SWAP1 POP PUSH2 0x2809 PUSH1 0x0 DUP4 ADD DUP6 PUSH2 0x258A JUMP JUMPDEST DUP2 DUP2 SUB PUSH1 0x20 DUP4 ADD MSTORE PUSH2 0x281B DUP2 DUP5 PUSH2 0x2257 JUMP JUMPDEST SWAP1 POP SWAP4 SWAP3 POP POP POP JUMP JUMPDEST PUSH1 0x0 PUSH1 0x40 DUP3 ADD SWAP1 POP PUSH2 0x2839 PUSH1 0x0 DUP4 ADD DUP6 PUSH2 0x258A JUMP JUMPDEST DUP2 DUP2 SUB PUSH1 0x20 DUP4 ADD MSTORE PUSH2 0x284B DUP2 DUP5 PUSH2 0x2371 JUMP JUMPDEST SWAP1 POP SWAP4 SWAP3 POP POP POP JUMP JUMPDEST PUSH1 0x0 PUSH1 0x60 DUP3 ADD SWAP1 POP PUSH2 0x2869 PUSH1 0x0 DUP4 ADD DUP7 PUSH2 0x258A JUMP JUMPDEST DUP2 DUP2 SUB PUSH1 0x20 DUP4 ADD MSTORE PUSH2 0x287B DUP2 DUP6 PUSH2 0x2371 JUMP JUMPDEST SWAP1 POP PUSH2 0x288A PUSH1 0x40 DUP4 ADD DUP5 PUSH2 0x258A JUMP JUMPDEST SWAP5 SWAP4 POP POP POP POP JUMP JUMPDEST PUSH1 0x0 PUSH1 0x40 DUP3 ADD SWAP1 POP PUSH2 0x28A7 PUSH1 0x0 DUP4 ADD DUP6 PUSH2 0x258A JUMP JUMPDEST PUSH2 0x28B4 PUSH1 0x20 DUP4 ADD DUP5 PUSH2 0x258A JUMP JUMPDEST SWAP4 SWAP3 POP POP POP JUMP JUMPDEST PUSH1 0x0 PUSH2 0x28C5 PUSH2 0x28D6 JUMP JUMPDEST SWAP1 POP PUSH2 0x28D1 DUP3 DUP3 PUSH2 0x2B1F JUMP JUMPDEST SWAP2 SWAP1 POP JUMP JUMPDEST PUSH1 0x0 PUSH1 0x40 MLOAD SWAP1 POP SWAP1 JUMP JUMPDEST PUSH1 0x0 PUSH8 0xFFFFFFFFFFFFFFFF DUP3 GT ISZERO PUSH2 0x28FB JUMPI PUSH2 0x28FA PUSH2 0x2C1B JUMP JUMPDEST JUMPDEST PUSH1 0x20 DUP3 MUL SWAP1 POP PUSH1 0x20 DUP2 ADD SWAP1 POP SWAP2 SWAP1 POP JUMP JUMPDEST PUSH1 0x0 PUSH8 0xFFFFFFFFFFFFFFFF DUP3 GT ISZERO PUSH2 0x2927 JUMPI PUSH2 0x2926 PUSH2 0x2C1B JUMP JUMPDEST JUMPDEST PUSH1 0x20 DUP3 MUL SWAP1 POP PUSH1 0x20 DUP2 ADD SWAP1 POP SWAP2 SWAP1 POP JUMP JUMPDEST PUSH1 0x0 PUSH8 0xFFFFFFFFFFFFFFFF DUP3 GT ISZERO PUSH2 0x2953 JUMPI PUSH2 0x2952 PUSH2 0x2C1B JUMP JUMPDEST JUMPDEST PUSH2 0x295C DUP3 PUSH2 0x2C5D JUMP JUMPDEST SWAP1 POP PUSH1 0x20 DUP2 ADD SWAP1 POP SWAP2 SWAP1 POP JUMP JUMPDEST PUSH1 0x0 DUP2 SWAP1 POP PUSH1 0x20 DUP3 ADD SWAP1 POP SWAP2 SWAP1 POP JUMP JUMPDEST PUSH1 0x0 DUP2 SWAP1 POP PUSH1 0x20 DUP3 ADD SWAP1 POP SWAP2 SWAP1 POP JUMP JUMPDEST PUSH1 0x0 DUP2 SWAP1 POP DUP2 PUSH1 0x0 MSTORE PUSH1 0x20 PUSH1 0x0 KECCAK256 SWAP1 POP SWAP2 SWAP1 POP JUMP JUMPDEST PUSH1 0x0 DUP2 MLOAD SWAP1 POP SWAP2 SWAP1 POP JUMP JUMPDEST PUSH1 0x0 DUP2 MLOAD SWAP1 POP SWAP2 SWAP1 POP JUMP JUMPDEST PUSH1 0x0 DUP2 SLOAD SWAP1 POP SWAP2 SWAP1 POP JUMP JUMPDEST PUSH1 0x0 DUP2 MLOAD SWAP1 POP SWAP2 SWAP1 POP JUMP JUMPDEST PUSH1 0x0 PUSH1 0x20 DUP3 ADD SWAP1 POP SWAP2 SWAP1 POP JUMP JUMPDEST PUSH1 0x0 PUSH1 0x20 DUP3 ADD SWAP1 POP SWAP2 SWAP1 POP JUMP JUMPDEST PUSH1 0x0 PUSH1 0x1 DUP3 ADD SWAP1 POP SWAP2 SWAP1 POP JUMP JUMPDEST PUSH1 0x0 DUP3 DUP3 MSTORE PUSH1 0x20 DUP3 ADD SWAP1 POP SWAP3 SWAP2 POP POP JUMP JUMPDEST PUSH1 0x0 DUP3 DUP3 MSTORE PUSH1 0x20 DUP3 ADD SWAP1 POP SWAP3 SWAP2 POP POP JUMP JUMPDEST PUSH1 0x0 DUP3 DUP3 MSTORE PUSH1 0x20 DUP3 ADD SWAP1 POP SWAP3 SWAP2 POP POP JUMP JUMPDEST PUSH1 0x0 DUP3 DUP3 MSTORE PUSH1 0x20 DUP3 ADD SWAP1 POP SWAP3 SWAP2 POP POP JUMP JUMPDEST PUSH1 0x0 DUP2 SWAP1 POP SWAP2 SWAP1 POP JUMP JUMPDEST PUSH1 0x0 PUSH2 0x2A4A DUP3 PUSH2 0x2A67 JUMP JUMPDEST SWAP1 POP SWAP2 SWAP1 POP JUMP JUMPDEST PUSH1 0x0 DUP2 ISZERO ISZERO SWAP1 POP SWAP2 SWAP1 POP JUMP JUMPDEST PUSH1 0x0 DUP2 SWAP1 POP SWAP2 SWAP1 POP JUMP JUMPDEST PUSH1 0x0 PUSH20 0xFFFFFFFFFFFFFFFFFFFFFFFFFFFFFFFFFFFFFFFF DUP3 AND SWAP1 POP SWAP2 SWAP1 POP JUMP JUMPDEST PUSH1 0x0 DUP2 SWAP1 POP SWAP2 SWAP1 POP JUMP JUMPDEST DUP3 DUP2 DUP4 CALLDATACOPY PUSH1 0x0 DUP4 DUP4 ADD MSTORE POP POP POP JUMP JUMPDEST PUSH1 0x0 JUMPDEST DUP4 DUP2 LT ISZERO PUSH2 0x2ABE JUMPI DUP1 DUP3 ADD MLOAD DUP2 DUP5 ADD MSTORE PUSH1 0x20 DUP2 ADD SWAP1 POP PUSH2 0x2AA3 JUMP JUMPDEST DUP4 DUP2 GT ISZERO PUSH2 0x2ACD JUMPI PUSH1 0x0 DUP5 DUP5 ADD MSTORE JUMPDEST POP POP POP POP JUMP JUMPDEST PUSH1 0x0 PUSH1 0x2 DUP3 DIV SWAP1 POP PUSH1 0x1 DUP3 AND DUP1 PUSH2 0x2AEB JUMPI PUSH1 0x7F DUP3 AND SWAP2 POP JUMPDEST PUSH1 0x20 DUP3 LT DUP2 EQ ISZERO PUSH2 0x2AFF JUMPI PUSH2 0x2AFE PUSH2 0x2BEC JUMP JUMPDEST JUMPDEST POP SWAP2 SWAP1 POP JUMP JUMPDEST PUSH1 0x0 PUSH2 0x2B18 PUSH2 0x2B13 DUP4 PUSH2 0x2C7B JUMP JUMPDEST PUSH2 0x2A35 JUMP JUMPDEST SWAP1 POP SWAP2 SWAP1 POP JUMP JUMPDEST PUSH2 0x2B28 DUP3 PUSH2 0x2C5D JUMP JUMPDEST DUP2 ADD DUP2 DUP2 LT PUSH8 0xFFFFFFFFFFFFFFFF DUP3 GT OR ISZERO PUSH2 0x2B47 JUMPI PUSH2 0x2B46 PUSH2 0x2C1B JUMP JUMPDEST JUMPDEST DUP1 PUSH1 0x40 MSTORE POP POP POP JUMP JUMPDEST PUSH1 0x0 PUSH2 0x2B5B DUP3 PUSH2 0x2A87 JUMP JUMPDEST SWAP2 POP PUSH32 0xFFFFFFFFFFFFFFFFFFFFFFFFFFFFFFFFFFFFFFFFFFFFFFFFFFFFFFFFFFFFFFFF DUP3 EQ ISZERO PUSH2 0x2B8E JUMPI PUSH2 0x2B8D PUSH2 0x2BBD JUMP JUMPDEST JUMPDEST PUSH1 0x1 DUP3 ADD SWAP1 POP SWAP2 SWAP1 POP JUMP JUMPDEST PUSH1 0x0 PUSH2 0x2BA4 DUP3 PUSH2 0x2BAB JUMP JUMPDEST SWAP1 POP SWAP2 SWAP1 POP JUMP JUMPDEST PUSH1 0x0 PUSH2 0x2BB6 DUP3 PUSH2 0x2C6E JUMP JUMPDEST SWAP1 POP SWAP2 SWAP1 POP JUMP JUMPDEST PUSH32 0x4E487B7100000000000000000000000000000000000000000000000000000000 PUSH1 0x0 MSTORE PUSH1 0x11 PUSH1 0x4 MSTORE PUSH1 0x24 PUSH1 0x0 REVERT JUMPDEST PUSH32 0x4E487B7100000000000000000000000000000000000000000000000000000000 PUSH1 0x0 MSTORE PUSH1 0x22 PUSH1 0x4 MSTORE PUSH1 0x24 PUSH1 0x0 REVERT JUMPDEST PUSH32 0x4E487B7100000000000000000000000000000000000000000000000000000000 PUSH1 0x0 MSTORE PUSH1 0x41 PUSH1 0x4 MSTORE PUSH1 0x24 PUSH1 0x0 REVERT JUMPDEST PUSH1 0x0 PUSH2 0x2C56 DUP3 SLOAD PUSH2 0x2B05 JUMP JUMPDEST SWAP1 POP SWAP2 SWAP1 POP JUMP JUMPDEST PUSH1 0x0 PUSH1 0x1F NOT PUSH1 0x1F DUP4 ADD AND SWAP1 POP SWAP2 SWAP1 POP JUMP JUMPDEST PUSH1 0x0 DUP2 PUSH1 0x60 SHL SWAP1 POP SWAP2 SWAP1 POP JUMP JUMPDEST PUSH1 0x0 DUP2 PUSH1 0x0 SHR SWAP1 POP SWAP2 SWAP1 POP JUMP JUMPDEST PUSH32 0x5061757361626C653A206E6F7420706175736564000000000000000000000000 PUSH1 0x0 DUP3 ADD MSTORE POP JUMP JUMPDEST PUSH32 0x6F6E6C792074656163686572732F63686169726D616E2063616E206D616B6520 PUSH1 0x0 DUP3 ADD MSTORE PUSH32 0x726573756C7473207075626C6963000000000000000000000000000000000000 PUSH1 0x20 DUP3 ADD MSTORE POP JUMP JUMPDEST PUSH32 0x6F6E6C792074656163686572732F63686169726D616E2063616E2063616C6C20 PUSH1 0x0 DUP3 ADD MSTORE PUSH32 0x746869732066756E6374696F6E00000000000000000000000000000000000000 PUSH1 0x20 DUP3 ADD MSTORE POP JUMP JUMPDEST PUSH32 0x5061757361626C653A2070617573656400000000000000000000000000000000 PUSH1 0x0 DUP3 ADD MSTORE POP JUMP JUMPDEST PUSH32 0x506C6561736520636865636B206261636B2C2074686520656C656374696F6E20 PUSH1 0x0 DUP3 ADD MSTORE PUSH32 0x686173206E6F7420737461727465642100000000000000000000000000000000 PUSH1 0x20 DUP3 ADD MSTORE POP JUMP JUMPDEST PUSH32 0x61746C65617374206F6E6520706572736F6E2073686F756C6420636F6E746573 PUSH1 0x0 DUP3 ADD MSTORE PUSH32 0x7400000000000000000000000000000000000000000000000000000000000000 PUSH1 0x20 DUP3 ADD MSTORE POP JUMP JUMPDEST PUSH32 0x536F7272792C2074686520456C656374696F6E2068617320656E646564210000 PUSH1 0x0 DUP3 ADD MSTORE POP JUMP JUMPDEST PUSH32 0x496E76616C69642063616E64696461746520746F20566F746521000000000000 PUSH1 0x0 DUP3 ADD MSTORE POP JUMP JUMPDEST PUSH32 0x6F6E6C792063686169726D616E2063616E2063616C6C20746869732066756E63 PUSH1 0x0 DUP3 ADD MSTORE PUSH32 0x74696F6E00000000000000000000000000000000000000000000000000000000 PUSH1 0x20 DUP3 ADD MSTORE POP JUMP JUMPDEST PUSH32 0x566F7465722068617320616C726561647920566F746564210000000000000000 PUSH1 0x0 DUP3 ADD MSTORE POP JUMP JUMPDEST PUSH32 0x736F7272792C206F6E6C79207374616B65686F6C646572732061726520656C69 PUSH1 0x0 DUP3 ADD MSTORE PUSH32 0x6769626C6520746F20766F746500000000000000000000000000000000000000 PUSH1 0x20 DUP3 ADD MSTORE POP JUMP JUMPDEST PUSH2 0x2F38 DUP2 PUSH2 0x2A3F JUMP JUMPDEST DUP2 EQ PUSH2 0x2F43 JUMPI PUSH1 0x0 DUP1 REVERT JUMPDEST POP JUMP JUMPDEST PUSH2 0x2F4F DUP2 PUSH2 0x2A5D JUMP JUMPDEST DUP2 EQ PUSH2 0x2F5A JUMPI PUSH1 0x0 DUP1 REVERT JUMPDEST POP JUMP JUMPDEST PUSH2 0x2F66 DUP2 PUSH2 0x2A87 JUMP JUMPDEST DUP2 EQ PUSH2 0x2F71 JUMPI PUSH1 0x0 DUP1 REVERT JUMPDEST POP JUMP INVALID LOG2 PUSH5 0x6970667358 0x22 SLT KECCAK256 EXTCODESIZE 0xAD 0xBB PUSH19 0x5D8E8B8C3D1C0222F2C22081B4D109D818DA7F NUMBER 0xC8 0xE5 0x24 RETURN SDIV DUP10 0x21 0xCE PUSH5 0x736F6C6343 STOP ADDMOD DIV STOP CALLER "
        },
        "methodIdentifiers": {
          "Active()": "c9b0a2a7",
          "Ended()": "477383f3",
          "addTeacher(address)": "3bc6e309",
          "candidates(uint256)": "3477ee2e",
          "candidatesCount()": "2d35a8a2",
          "chairman()": "87f7b975",
          "changeChairman(address)": "e8101869",
          "description()": "7284e416",
          "endElection()": "59f78468",
          "getCandidates()": "06a49fce",
          "isValid(bytes32[],bytes32)": "b8a20ed0",
          "makeResultPublic()": "95adfc5e",
          "pause()": "8456cb59",
          "paused()": "5c975abb",
          "position()": "09218e91",
          "removeTeacher(address)": "52ff6846",
          "root()": "ebf0c717",
          "setUpElection(string[],string[])": "79bf09ab",
          "startElection()": "62d73eb8",
          "teachers(address)": "f0a47f78",
          "unpause()": "3f4ba83a",
          "vote(uint256,bytes32[])": "fd27419b",
          "voted(address)": "aec2ccae",
          "winnerIds(uint256)": "403d1312",
          "winnerVoteCount()": "2f22850d"
        }
      },
      "storageLayout": {
        "storage": [
          {
            "astId": 17,
            "contract": "contracts/ZuriElection.sol:ZuriElection",
            "label": "_paused",
            "offset": 0,
            "slot": "0",
            "type": "t_bool"
          },
          {
            "astId": 244,
            "contract": "contracts/ZuriElection.sol:ZuriElection",
            "label": "chairman",
            "offset": 1,
            "slot": "0",
            "type": "t_address"
          },
          {
            "astId": 247,
            "contract": "contracts/ZuriElection.sol:ZuriElection",
            "label": "position",
            "offset": 0,
            "slot": "1",
            "type": "t_string_storage"
          },
          {
            "astId": 250,
            "contract": "contracts/ZuriElection.sol:ZuriElection",
            "label": "description",
            "offset": 0,
            "slot": "2",
            "type": "t_string_storage"
          },
          {
            "astId": 253,
            "contract": "contracts/ZuriElection.sol:ZuriElection",
            "label": "root",
            "offset": 0,
            "slot": "3",
            "type": "t_bytes32"
          },
          {
            "astId": 256,
            "contract": "contracts/ZuriElection.sol:ZuriElection",
            "label": "candidatesCount",
            "offset": 0,
            "slot": "4",
            "type": "t_uint256"
          },
          {
            "astId": 261,
            "contract": "contracts/ZuriElection.sol:ZuriElection",
            "label": "teachers",
            "offset": 0,
            "slot": "5",
            "type": "t_mapping(t_address,t_bool)"
          },
          {
            "astId": 266,
            "contract": "contracts/ZuriElection.sol:ZuriElection",
            "label": "voted",
            "offset": 0,
            "slot": "6",
            "type": "t_mapping(t_address,t_bool)"
          },
          {
            "astId": 272,
            "contract": "contracts/ZuriElection.sol:ZuriElection",
            "label": "candidates",
            "offset": 0,
            "slot": "7",
            "type": "t_mapping(t_uint256,t_struct(Candidate)292_storage)"
          },
          {
            "astId": 276,
            "contract": "contracts/ZuriElection.sol:ZuriElection",
            "label": "winnerIds",
            "offset": 0,
            "slot": "8",
            "type": "t_array(t_uint256)dyn_storage"
          },
          {
            "astId": 279,
            "contract": "contracts/ZuriElection.sol:ZuriElection",
            "label": "winnerVoteCount",
            "offset": 0,
            "slot": "9",
            "type": "t_uint256"
          },
          {
            "astId": 282,
            "contract": "contracts/ZuriElection.sol:ZuriElection",
            "label": "Active",
            "offset": 0,
            "slot": "10",
            "type": "t_bool"
          },
          {
            "astId": 285,
            "contract": "contracts/ZuriElection.sol:ZuriElection",
            "label": "Ended",
            "offset": 1,
            "slot": "10",
            "type": "t_bool"
          }
        ],
        "types": {
          "t_address": {
            "encoding": "inplace",
            "label": "address",
            "numberOfBytes": "20"
          },
          "t_array(t_uint256)dyn_storage": {
            "base": "t_uint256",
            "encoding": "dynamic_array",
            "label": "uint256[]",
            "numberOfBytes": "32"
          },
          "t_bool": {
            "encoding": "inplace",
            "label": "bool",
            "numberOfBytes": "1"
          },
          "t_bytes32": {
            "encoding": "inplace",
            "label": "bytes32",
            "numberOfBytes": "32"
          },
          "t_mapping(t_address,t_bool)": {
            "encoding": "mapping",
            "key": "t_address",
            "label": "mapping(address => bool)",
            "numberOfBytes": "32",
            "value": "t_bool"
          },
          "t_mapping(t_uint256,t_struct(Candidate)292_storage)": {
            "encoding": "mapping",
            "key": "t_uint256",
            "label": "mapping(uint256 => struct ZuriElection.Candidate)",
            "numberOfBytes": "32",
            "value": "t_struct(Candidate)292_storage"
          },
          "t_string_storage": {
            "encoding": "bytes",
            "label": "string",
            "numberOfBytes": "32"
          },
          "t_struct(Candidate)292_storage": {
            "encoding": "inplace",
            "label": "struct ZuriElection.Candidate",
            "members": [
              {
                "astId": 287,
                "contract": "contracts/ZuriElection.sol:ZuriElection",
                "label": "id",
                "offset": 0,
                "slot": "0",
                "type": "t_uint256"
              },
              {
                "astId": 289,
                "contract": "contracts/ZuriElection.sol:ZuriElection",
                "label": "name",
                "offset": 0,
                "slot": "1",
                "type": "t_string_storage"
              },
              {
                "astId": 291,
                "contract": "contracts/ZuriElection.sol:ZuriElection",
                "label": "voteCount",
                "offset": 0,
                "slot": "2",
                "type": "t_uint256"
              }
            ],
            "numberOfBytes": "96"
          },
          "t_uint256": {
            "encoding": "inplace",
            "label": "uint256",
            "numberOfBytes": "32"
          }
        }
      }
    }
  }
}