{
  "contracts/ZuriElection.sol": {
    "ZuriElection": {
      "abi": [
        {
          "inputs": [],
          "stateMutability": "nonpayable",
          "type": "constructor"
        },
        {
          "inputs": [],
          "name": "ElectionHasEnded",
          "type": "error"
        },
        {
          "inputs": [],
          "name": "ElectionNotStarted",
          "type": "error"
        },
        {
          "anonymous": false,
          "inputs": [
            {
              "indexed": false,
              "internalType": "address",
              "name": "previousAdmin",
              "type": "address"
            },
            {
              "indexed": false,
              "internalType": "address",
              "name": "newAdmin",
              "type": "address"
            }
          ],
          "name": "AdminChanged",
          "type": "event"
        },
        {
          "anonymous": false,
          "inputs": [
            {
              "indexed": true,
              "internalType": "address",
              "name": "beacon",
              "type": "address"
            }
          ],
          "name": "BeaconUpgraded",
          "type": "event"
        },
        {
          "anonymous": false,
          "inputs": [
            {
              "indexed": false,
              "internalType": "uint256",
              "name": "_candidateId",
              "type": "uint256"
            },
            {
              "indexed": false,
              "internalType": "string",
              "name": "_candidateName",
              "type": "string"
            }
          ],
          "name": "CandidateCreated",
          "type": "event"
        },
        {
          "anonymous": false,
          "inputs": [
            {
              "indexed": false,
              "internalType": "uint256[]",
              "name": "_winnerIds",
              "type": "uint256[]"
            },
            {
              "indexed": false,
              "internalType": "uint256",
              "name": "_winnerVoteCount",
              "type": "uint256"
            }
          ],
          "name": "ElectionEnded",
          "type": "event"
        },
        {
          "anonymous": false,
          "inputs": [
            {
              "indexed": false,
              "internalType": "address",
              "name": "account",
              "type": "address"
            }
          ],
          "name": "Paused",
          "type": "event"
        },
        {
          "anonymous": false,
          "inputs": [
            {
              "indexed": false,
              "internalType": "address",
              "name": "account",
              "type": "address"
            }
          ],
          "name": "Unpaused",
          "type": "event"
        },
        {
          "anonymous": false,
          "inputs": [
            {
              "indexed": true,
              "internalType": "address",
              "name": "implementation",
              "type": "address"
            }
          ],
          "name": "Upgraded",
          "type": "event"
        },
        {
          "anonymous": false,
          "inputs": [
            {
              "indexed": false,
              "internalType": "uint256",
              "name": "_candidateId",
              "type": "uint256"
            },
            {
              "indexed": false,
              "internalType": "uint256",
              "name": "_candidateVoteCount",
              "type": "uint256"
            }
          ],
          "name": "VoteForCandidate",
          "type": "event"
        },
        {
          "inputs": [],
          "name": "Active",
          "outputs": [
            {
              "internalType": "bool",
              "name": "",
              "type": "bool"
            }
          ],
          "stateMutability": "view",
          "type": "function"
        },
        {
          "inputs": [],
          "name": "Ended",
          "outputs": [
            {
              "internalType": "bool",
              "name": "",
              "type": "bool"
            }
          ],
          "stateMutability": "view",
          "type": "function"
        },
        {
          "inputs": [
            {
              "internalType": "address",
              "name": "_newTeacher",
              "type": "address"
            }
          ],
          "name": "addTeacher",
          "outputs": [],
          "stateMutability": "nonpayable",
          "type": "function"
        },
        {
          "inputs": [
            {
              "internalType": "uint256",
              "name": "",
              "type": "uint256"
            }
          ],
          "name": "candidates",
          "outputs": [
            {
              "internalType": "uint256",
              "name": "id",
              "type": "uint256"
            },
            {
              "internalType": "string",
              "name": "name",
              "type": "string"
            },
            {
              "internalType": "uint256",
              "name": "voteCount",
              "type": "uint256"
            }
          ],
          "stateMutability": "view",
          "type": "function"
        },
        {
          "inputs": [],
          "name": "candidatesCount",
          "outputs": [
            {
              "internalType": "uint256",
              "name": "",
              "type": "uint256"
            }
          ],
          "stateMutability": "view",
          "type": "function"
        },
        {
          "inputs": [],
          "name": "chairman",
          "outputs": [
            {
              "internalType": "address",
              "name": "",
              "type": "address"
            }
          ],
          "stateMutability": "view",
          "type": "function"
        },
        {
          "inputs": [
            {
              "internalType": "address",
              "name": "_newChairman",
              "type": "address"
            }
          ],
          "name": "changeChairman",
          "outputs": [],
          "stateMutability": "nonpayable",
          "type": "function"
        },
        {
          "inputs": [],
          "name": "description",
          "outputs": [
            {
              "internalType": "string",
              "name": "",
              "type": "string"
            }
          ],
          "stateMutability": "view",
          "type": "function"
        },
        {
          "inputs": [],
          "name": "endElection",
          "outputs": [],
          "stateMutability": "nonpayable",
          "type": "function"
        },
        {
          "inputs": [
            {
              "internalType": "bytes32",
              "name": "merkleRoot",
              "type": "bytes32"
            }
          ],
          "name": "initialize",
          "outputs": [],
          "stateMutability": "nonpayable",
          "type": "function"
        },
        {
          "inputs": [
            {
              "internalType": "bytes32[]",
              "name": "proof",
              "type": "bytes32[]"
            },
            {
              "internalType": "bytes32",
              "name": "leaf",
              "type": "bytes32"
            }
          ],
          "name": "isValid",
          "outputs": [
            {
              "internalType": "bool",
              "name": "",
              "type": "bool"
            }
          ],
          "stateMutability": "view",
          "type": "function"
        },
        {
          "inputs": [],
          "name": "name",
          "outputs": [
            {
              "internalType": "string",
              "name": "",
              "type": "string"
            }
          ],
          "stateMutability": "view",
          "type": "function"
        },
        {
          "inputs": [],
          "name": "pause",
          "outputs": [],
          "stateMutability": "nonpayable",
          "type": "function"
        },
        {
          "inputs": [],
          "name": "paused",
          "outputs": [
            {
              "internalType": "bool",
              "name": "",
              "type": "bool"
            }
          ],
          "stateMutability": "view",
          "type": "function"
        },
        {
          "inputs": [],
          "name": "proxiableUUID",
          "outputs": [
            {
              "internalType": "bytes32",
              "name": "",
              "type": "bytes32"
            }
          ],
          "stateMutability": "view",
          "type": "function"
        },
        {
          "inputs": [
            {
              "internalType": "address",
              "name": "_teacher",
              "type": "address"
            }
          ],
          "name": "removeTeacher",
          "outputs": [],
          "stateMutability": "nonpayable",
          "type": "function"
        },
        {
          "inputs": [],
          "name": "root",
          "outputs": [
            {
              "internalType": "bytes32",
              "name": "",
              "type": "bytes32"
            }
          ],
          "stateMutability": "view",
          "type": "function"
        },
        {
          "inputs": [],
          "name": "startElection",
          "outputs": [],
          "stateMutability": "nonpayable",
          "type": "function"
        },
        {
          "inputs": [
            {
              "internalType": "address",
              "name": "",
              "type": "address"
            }
          ],
          "name": "teachers",
          "outputs": [
            {
              "internalType": "bool",
              "name": "",
              "type": "bool"
            }
          ],
          "stateMutability": "view",
          "type": "function"
        },
        {
          "inputs": [],
          "name": "unpause",
          "outputs": [],
          "stateMutability": "nonpayable",
          "type": "function"
        },
        {
          "inputs": [
            {
              "internalType": "address",
              "name": "newImplementation",
              "type": "address"
            }
          ],
          "name": "upgradeTo",
          "outputs": [],
          "stateMutability": "nonpayable",
          "type": "function"
        },
        {
          "inputs": [
            {
              "internalType": "address",
              "name": "newImplementation",
              "type": "address"
            },
            {
              "internalType": "bytes",
              "name": "data",
              "type": "bytes"
            }
          ],
          "name": "upgradeToAndCall",
          "outputs": [],
          "stateMutability": "payable",
          "type": "function"
        },
        {
          "inputs": [
            {
              "internalType": "uint256",
              "name": "_candidateId",
              "type": "uint256"
            },
            {
              "internalType": "bytes32[]",
              "name": "hexProof",
              "type": "bytes32[]"
            }
          ],
          "name": "vote",
          "outputs": [],
          "stateMutability": "nonpayable",
          "type": "function"
        },
        {
          "inputs": [
            {
              "internalType": "address",
              "name": "",
              "type": "address"
            }
          ],
          "name": "voted",
          "outputs": [
            {
              "internalType": "bool",
              "name": "",
              "type": "bool"
            }
          ],
          "stateMutability": "view",
          "type": "function"
        },
        {
          "inputs": [
            {
              "internalType": "uint256",
              "name": "",
              "type": "uint256"
            }
          ],
          "name": "winnerIds",
          "outputs": [
            {
              "internalType": "uint256",
              "name": "",
              "type": "uint256"
            }
          ],
          "stateMutability": "view",
          "type": "function"
        },
        {
          "inputs": [],
          "name": "winnerVoteCount",
          "outputs": [
            {
              "internalType": "uint256",
              "name": "",
              "type": "uint256"
            }
          ],
          "stateMutability": "view",
          "type": "function"
        }
      ],
      "evm": {
        "bytecode": {
          "linkReferences": {},
          "object": "60a06040523073ffffffffffffffffffffffffffffffffffffffff1660809073ffffffffffffffffffffffffffffffffffffffff168152503480156200004457600080fd5b50600060019054906101000a900460ff166200006f5760008054906101000a900460ff161562000080565b6200007f6200017060201b60201c565b5b620000c2576040517f08c379a0000000000000000000000000000000000000000000000000000000008152600401620000b9906200023b565b60405180910390fd5b60008060019054906101000a900460ff16159050801562000113576001600060016101000a81548160ff02191690831515021790555060016000806101000a81548160ff0219169083151502179055505b620001477fc148c3416430e495184aa7e5f85fac527c54a366326f87b46b0c9a7aac021b4260001b6200018e60201b60201c565b8015620001695760008060016101000a81548160ff0219169083151502179055505b506200025d565b600062000188306200019160201b620027351760201c565b15905090565b50565b6000808273ffffffffffffffffffffffffffffffffffffffff163b119050919050565b600082825260208201905092915050565b7f496e697469616c697a61626c653a20636f6e747261637420697320616c72656160008201527f647920696e697469616c697a6564000000000000000000000000000000000000602082015250565b600062000223602e83620001b4565b91506200023082620001c5565b604082019050919050565b60006020820190508181036000830152620002568162000214565b9050919050565b608051614dc76200029560003960008181610723015281816107b201528181610dcb01528181610e5a0152610f0a0152614dc76000f3fe6080604052600436106101815760003560e01c80635c975abb116100d1578063aec2ccae1161008a578063e810186911610064578063e81018691461051b578063ebf0c71714610544578063f0a47f781461056f578063fd27419b146105ac57610181565b8063aec2ccae14610476578063b8a20ed0146104b3578063c9b0a2a7146104f057610181565b80635c975abb1461039e57806362d73eb8146103c95780637284e416146103e05780638456cb591461040b57806387f7b975146104225780639498bd711461044d57610181565b80633f4ba83a1161013e5780634f1ef286116101185780634f1ef2861461031757806352d1902d1461033357806352ff68461461035e57806359f784681461038757610181565b80633f4ba83a14610298578063403d1312146102af578063477383f3146102ec57610181565b806306fdde03146101865780632d35a8a2146101b15780632f22850d146101dc5780633477ee2e146102075780633659cfe6146102465780633bc6e3091461026f575b600080fd5b34801561019257600080fd5b5061019b6105d5565b6040516101a89190613aaf565b60405180910390f35b3480156101bd57600080fd5b506101c6610663565b6040516101d39190613aea565b60405180910390f35b3480156101e857600080fd5b506101f1610669565b6040516101fe9190613aea565b60405180910390f35b34801561021357600080fd5b5061022e60048036038101906102299190613b45565b61066f565b60405161023d93929190613b72565b60405180910390f35b34801561025257600080fd5b5061026d60048036038101906102689190613c0e565b610721565b005b34801561027b57600080fd5b5061029660048036038101906102919190613c0e565b6108aa565b005b3480156102a457600080fd5b506102ad610b6c565b005b3480156102bb57600080fd5b506102d660048036038101906102d19190613b45565b610d92565b6040516102e39190613aea565b60405180910390f35b3480156102f857600080fd5b50610301610db6565b60405161030e9190613c56565b60405180910390f35b610331600480360381019061032c9190613da6565b610dc9565b005b34801561033f57600080fd5b50610348610f06565b6040516103559190613e1b565b60405180910390f35b34801561036a57600080fd5b5061038560048036038101906103809190613c0e565b610fbf565b005b34801561039357600080fd5b5061039c611281565b005b3480156103aa57600080fd5b506103b36115f8565b6040516103c09190613c56565b60405180910390f35b3480156103d557600080fd5b506103de61160f565b005b3480156103ec57600080fd5b506103f5611890565b6040516104029190613aaf565b60405180910390f35b34801561041757600080fd5b5061042061191e565b005b34801561042e57600080fd5b50610437611b44565b6040516104449190613e45565b60405180910390f35b34801561045957600080fd5b50610474600480360381019061046f9190613e8c565b611b6a565b005b34801561048257600080fd5b5061049d60048036038101906104989190613c0e565b611ef7565b6040516104aa9190613c56565b60405180910390f35b3480156104bf57600080fd5b506104da60048036038101906104d59190613f81565b611f17565b6040516104e79190613c56565b60405180910390f35b3480156104fc57600080fd5b50610505611fb2565b6040516105129190613c56565b60405180910390f35b34801561052757600080fd5b50610542600480360381019061053d9190613c0e565b611fc5565b005b34801561055057600080fd5b5061055961226d565b6040516105669190613e1b565b60405180910390f35b34801561057b57600080fd5b5061059660048036038101906105919190613c0e565b612273565b6040516105a39190613c56565b60405180910390f35b3480156105b857600080fd5b506105d360048036038101906105ce9190614038565b612293565b005b60ca80546105e2906140c7565b80601f016020809104026020016040519081016040528092919081815260200182805461060e906140c7565b801561065b5780601f106106305761010080835404028352916020019161065b565b820191906000526020600020905b81548152906001019060200180831161063e57829003601f168201915b505050505081565b60cd5481565b60d25481565b60d0602052806000526040600020600091509050806000015490806001018054610698906140c7565b80601f01602080910402602001604051908101604052809291908181526020018280546106c4906140c7565b80156107115780601f106106e657610100808354040283529160200191610711565b820191906000526020600020905b8154815290600101906020018083116106f457829003601f168201915b5050505050908060020154905083565b7f000000000000000000000000000000000000000000000000000000000000000073ffffffffffffffffffffffffffffffffffffffff163073ffffffffffffffffffffffffffffffffffffffff1614156107b0576040517f08c379a00000000000000000000000000000000000000000000000000000000081526004016107a79061416b565b60405180910390fd5b7f000000000000000000000000000000000000000000000000000000000000000073ffffffffffffffffffffffffffffffffffffffff166107ef612758565b73ffffffffffffffffffffffffffffffffffffffff1614610845576040517f08c379a000000000000000000000000000000000000000000000000000000000815260040161083c906141fd565b60405180910390fd5b61084e816127af565b6108a781600067ffffffffffffffff81111561086d5761086c613c7b565b5b6040519080825280601f01601f19166020018201604052801561089f5781602001600182028036833780820191505090505b5060006129be565b50565b6108b26115f8565b156108f2576040517f08c379a00000000000000000000000000000000000000000000000000000000081526004016108e990614269565b60405180910390fd5b61091e7f647f8565636a78af1b1a8b9400032d19db4b57f05b6335876b41002011fe75a460001b612b2c565b61094a7fe4c352d770f91ec3bae11894ac150a32d9a6cb4da8ef0beea2601aca1238d17460001b612b2c565b6109767f443abaf965ff378f7f93f7126f8ef7ea116c10a436b40344c5b6664074b5888760001b612b2c565b6109a27ff1d65da40cd7da7cd1d29d0f52b82a06cfdd3f1889285c71aa3c5feaa406241660001b612b2c565b3373ffffffffffffffffffffffffffffffffffffffff1660c960009054906101000a900473ffffffffffffffffffffffffffffffffffffffff1673ffffffffffffffffffffffffffffffffffffffff161480610a4e57506001151560ce60003373ffffffffffffffffffffffffffffffffffffffff1673ffffffffffffffffffffffffffffffffffffffff16815260200190815260200160002060009054906101000a900460ff161515145b610a8d576040517f08c379a0000000000000000000000000000000000000000000000000000000008152600401610a84906142fb565b60405180910390fd5b610ab97fa00c272cf75a8e59d101b8a4e69e45781bc21011ebe04bddadb1075faf299d8260001b612b2c565b610ae57f5ae36ab7e907aa1aeb4ca0251f16c35c417d7b589c774a83f06d1bcc8882b74c60001b612b2c565b610b117f458faf568390ebdcc623372ab15850c6afc5861a1ce2a9a66e1dc8d43e004ca560001b612b2c565b600160ce60008373ffffffffffffffffffffffffffffffffffffffff1673ffffffffffffffffffffffffffffffffffffffff16815260200190815260200160002060006101000a81548160ff02191690831515021790555050565b610b987ff10368458a1e8950f55708f9d928976985fd6a397515e608fbc35721f47bc11160001b612b2c565b610bc47fd7f1e7c923c834b0cd9f7ae6f2ec5dfded676e8b0c9d801158b264f0d24a8d9a60001b612b2c565b610bf07fa8376455167799a5f7783c9a2746fd868015caadded1496a6d3285313dd5824a60001b612b2c565b610c1c7f3d99decd8dc16d966e03cb906537c21473376b91051ddf053214e985effb432c60001b612b2c565b60c960009054906101000a900473ffffffffffffffffffffffffffffffffffffffff1673ffffffffffffffffffffffffffffffffffffffff163373ffffffffffffffffffffffffffffffffffffffff1614610cac576040517f08c379a0000000000000000000000000000000000000000000000000000000008152600401610ca39061438d565b60405180910390fd5b610cd87f9ac8d3a927f4e73e1d754d8ab32f5e300854da6298b98a2f43560d168359746e60001b612b2c565b610d047f3270b14e1b2239186b3c058ec7dbc5ce62f3adc9f41b6ba75756943bdf2656c460001b612b2c565b610d307fb6c18b71270308205508530b9848e075ede2a048ce6cacbc880e97330c19bf5460001b612b2c565b610d5c7fa92ce9aa72570f37b18f188a2651aa0f0c21f6e2205252be6aafc9a5b22e92ae60001b612b2c565b610d887f67e0f1295d03631725b364e5b7deb02af935254e944c594e31bd35eedb09b50a60001b612b2c565b610d90612b2f565b565b60d18181548110610da257600080fd5b906000526020600020016000915090505481565b60d360019054906101000a900460ff1681565b7f000000000000000000000000000000000000000000000000000000000000000073ffffffffffffffffffffffffffffffffffffffff163073ffffffffffffffffffffffffffffffffffffffff161415610e58576040517f08c379a0000000000000000000000000000000000000000000000000000000008152600401610e4f9061416b565b60405180910390fd5b7f000000000000000000000000000000000000000000000000000000000000000073ffffffffffffffffffffffffffffffffffffffff16610e97612758565b73ffffffffffffffffffffffffffffffffffffffff1614610eed576040517f08c379a0000000000000000000000000000000000000000000000000000000008152600401610ee4906141fd565b60405180910390fd5b610ef6826127af565b610f02828260016129be565b5050565b60007f000000000000000000000000000000000000000000000000000000000000000073ffffffffffffffffffffffffffffffffffffffff163073ffffffffffffffffffffffffffffffffffffffff1614610f96576040517f08c379a0000000000000000000000000000000000000000000000000000000008152600401610f8d9061441f565b60405180910390fd5b7f360894a13ba1a3210667c828492db98dca3e2076cc3735a920a3ca505d382bbc60001b905090565b610fc76115f8565b15611007576040517f08c379a0000000000000000000000000000000000000000000000000000000008152600401610ffe90614269565b60405180910390fd5b6110337f4e682562efcf2b4db1db442268e4f7f62bedb4f9cea17c42904e1fe44d2f0f4560001b612b2c565b61105f7f2c39c8babfadc7095ca6f199222200ab0de89d30c24aabe11552c770fce0620860001b612b2c565b61108b7ff6ae938701626db699221d94f02e273855c88ffa93c2dda398f1621835a0b46e60001b612b2c565b6110b77f72e3c4fa2bdc5c4f20b12839766a54882affff3548d8307fae762780c35c18ba60001b612b2c565b3373ffffffffffffffffffffffffffffffffffffffff1660c960009054906101000a900473ffffffffffffffffffffffffffffffffffffffff1673ffffffffffffffffffffffffffffffffffffffff16148061116357506001151560ce60003373ffffffffffffffffffffffffffffffffffffffff1673ffffffffffffffffffffffffffffffffffffffff16815260200190815260200160002060009054906101000a900460ff161515145b6111a2576040517f08c379a0000000000000000000000000000000000000000000000000000000008152600401611199906142fb565b60405180910390fd5b6111ce7ffd14a535a0bbc1c498870db62231018fdbec1c97b0fb4560795f912471f88bda60001b612b2c565b6111fa7f5e167ebe276c8633fea3eca617d845d29aef3ce367def3b48f1de05bd95e589e60001b612b2c565b6112267f60905a303297992b7dd411b3bc183e501c767b55f7e1d46f0003049b4959a53460001b612b2c565b600060ce60008373ffffffffffffffffffffffffffffffffffffffff1673ffffffffffffffffffffffffffffffffffffffff16815260200190815260200160002060006101000a81548160ff02191690831515021790555050565b6112896115f8565b156112c9576040517f08c379a00000000000000000000000000000000000000000000000000000000081526004016112c090614269565b60405180910390fd5b6112f57ff10368458a1e8950f55708f9d928976985fd6a397515e608fbc35721f47bc11160001b612b2c565b6113217fd7f1e7c923c834b0cd9f7ae6f2ec5dfded676e8b0c9d801158b264f0d24a8d9a60001b612b2c565b61134d7fa8376455167799a5f7783c9a2746fd868015caadded1496a6d3285313dd5824a60001b612b2c565b6113797f3d99decd8dc16d966e03cb906537c21473376b91051ddf053214e985effb432c60001b612b2c565b60c960009054906101000a900473ffffffffffffffffffffffffffffffffffffffff1673ffffffffffffffffffffffffffffffffffffffff163373ffffffffffffffffffffffffffffffffffffffff1614611409576040517f08c379a00000000000000000000000000000000000000000000000000000000081526004016114009061438d565b60405180910390fd5b6114357f9ac8d3a927f4e73e1d754d8ab32f5e300854da6298b98a2f43560d168359746e60001b612b2c565b6114617f3270b14e1b2239186b3c058ec7dbc5ce62f3adc9f41b6ba75756943bdf2656c460001b612b2c565b61148d7f28788e5c9444ea19062ebb6d9da0dc4133346e2eb9d8a9f9890b03f38c55d92560001b612b2c565b6114b97fc1f2f05a72013c155e8db264c5e782ce5fb1332af4ab0a4dbf23ec2d444b5c8d60001b612b2c565b6114e57f8c6601304668a6293b0b348625515c565e1ff373894dcedf25b768fea1a9ccf960001b612b2c565b600160d360016101000a81548160ff02191690831515021790555061152c7f57641378a2b6662375cb8d9ef33684d81d2cb15b169a498bb5c654a1603a3c8d60001b612b2c565b6115587fd6480dbacf21101c8fdee5a8ea516058b615a83929f6388b33685cbb873526c460001b612b2c565b611560612bd1565b505061158e7f9e1bb5315f94c9aa1a1cb57bf207c894244929a9d7b82c90706e828dded6170760001b612b2c565b6115ba7fe317966e63338e812348c7748947cece9d022b929b604f31faaa8b8f39c5ff2060001b612b2c565b7f38d8ebbbb4803f034f19b4cf2f19bfb84cc5dea177696c1f80a19357d5602e0460d160d2546040516115ee92919061454d565b60405180910390a1565b6000603360009054906101000a900460ff16905090565b6116176115f8565b15611657576040517f08c379a000000000000000000000000000000000000000000000000000000000815260040161164e90614269565b60405180910390fd5b6116837ff10368458a1e8950f55708f9d928976985fd6a397515e608fbc35721f47bc11160001b612b2c565b6116af7fd7f1e7c923c834b0cd9f7ae6f2ec5dfded676e8b0c9d801158b264f0d24a8d9a60001b612b2c565b6116db7fa8376455167799a5f7783c9a2746fd868015caadded1496a6d3285313dd5824a60001b612b2c565b6117077f3d99decd8dc16d966e03cb906537c21473376b91051ddf053214e985effb432c60001b612b2c565b60c960009054906101000a900473ffffffffffffffffffffffffffffffffffffffff1673ffffffffffffffffffffffffffffffffffffffff163373ffffffffffffffffffffffffffffffffffffffff1614611797576040517f08c379a000000000000000000000000000000000000000000000000000000000815260040161178e9061438d565b60405180910390fd5b6117c37f9ac8d3a927f4e73e1d754d8ab32f5e300854da6298b98a2f43560d168359746e60001b612b2c565b6117ef7f3270b14e1b2239186b3c058ec7dbc5ce62f3adc9f41b6ba75756943bdf2656c460001b612b2c565b61181b7fc5ec14fb9a2b00f3712cd29de0f531c266c6fc337e4d871847053fc264ae74de60001b612b2c565b6118477f7d6d1a41dcd407c213f1f7622d60f9d9c15f915af936918ae8b3a9cea7fc4cdb60001b612b2c565b6118737f69065ee662199b8c69f2aca7a21d4ce9b5f6d1573c891a6e722d0957f81f022560001b612b2c565b600160d360006101000a81548160ff021916908315150217905550565b60cb805461189d906140c7565b80601f01602080910402602001604051908101604052809291908181526020018280546118c9906140c7565b80156119165780601f106118eb57610100808354040283529160200191611916565b820191906000526020600020905b8154815290600101906020018083116118f957829003601f168201915b505050505081565b61194a7ff10368458a1e8950f55708f9d928976985fd6a397515e608fbc35721f47bc11160001b612b2c565b6119767fd7f1e7c923c834b0cd9f7ae6f2ec5dfded676e8b0c9d801158b264f0d24a8d9a60001b612b2c565b6119a27fa8376455167799a5f7783c9a2746fd868015caadded1496a6d3285313dd5824a60001b612b2c565b6119ce7f3d99decd8dc16d966e03cb906537c21473376b91051ddf053214e985effb432c60001b612b2c565b60c960009054906101000a900473ffffffffffffffffffffffffffffffffffffffff1673ffffffffffffffffffffffffffffffffffffffff163373ffffffffffffffffffffffffffffffffffffffff1614611a5e576040517f08c379a0000000000000000000000000000000000000000000000000000000008152600401611a559061438d565b60405180910390fd5b611a8a7f9ac8d3a927f4e73e1d754d8ab32f5e300854da6298b98a2f43560d168359746e60001b612b2c565b611ab67f3270b14e1b2239186b3c058ec7dbc5ce62f3adc9f41b6ba75756943bdf2656c460001b612b2c565b611ae27f0eb11335a755f683bf2199128a7d82f797a901c99ec6fded58e7e75a272accd360001b612b2c565b611b0e7f7e2e77ca21aa1b46b9b0aad6729d34129f7d6c650038a359e5a0d7790112444460001b612b2c565b611b3a7f0fcb49922ecb56b47c45c8be27aeb49621fd0d364c7e88bcc10d4e783067ad0460001b612b2c565b611b426130d6565b565b60c960009054906101000a900473ffffffffffffffffffffffffffffffffffffffff1681565b600060019054906101000a900460ff16611b925760008054906101000a900460ff1615611b9b565b611b9a613179565b5b611bda576040517f08c379a0000000000000000000000000000000000000000000000000000000008152600401611bd1906145ef565b60405180910390fd5b60008060019054906101000a900460ff161590508015611c2a576001600060016101000a81548160ff02191690831515021790555060016000806101000a81548160ff0219169083151502179055505b611c567f9ace2e23f110f2c2476b0d524036c4bf1ec765e5c3cb793462562f5b4e2b86ac60001b612b2c565b611c827f0975c750226379d8e306b1cb38d23cf769884ad24d4a9239b8420e07289b843060001b612b2c565b611cae7f57f5a17dd93d2f433b98d7291ccab2ea3b364f7f2df5a0396e632fb0a7fca96060001b612b2c565b3373ffffffffffffffffffffffffffffffffffffffff1660c960009054906101000a90505050611d007fe830c0ee140fbbbc436032dc4ce74bd2d88f47070d3b8087f3b8b7c31c8538a860001b612b2c565b611d2c7f2e81cca64ca6d6ab4ca06c40af7e18ae6e9cd6a37361c0931afaa89efa28505460001b612b2c565b611d587f2e36c2aedf7468fbaaba247f8cafdadfbb4c967f336c17fdab6ec386129c178c60001b612b2c565b611d847fb05fc425ef53341246609de4eb849e0eb5049a64251509c4e358adf537a6b98b60001b612b2c565b600060d360006101000a81548160ff021916908315150217905550611dcb7f082c10ba22f146a66f8b226a850dd3314ece4f503137b8b50d93c7dc07b98e0860001b612b2c565b611df77f060dfe5f924a445355811c299be4e1cf7b18a8d116987905341223ffc0d2ebd660001b612b2c565b600060d360016101000a81548160ff021916908315150217905550611e3e7fe97062e62347a347ce9f89ca4532670ff1ee6c014d411f2f0a2d82d3a9d32e4260001b612b2c565b611e6a7f579336b80875a4b5d62d2d2dbe5d2b35ece70268c608b84d96234d695065ee0c60001b612b2c565b600060cd81905550611e9e7f2757f444343bcf165c7c879a1ad14e8184e216f8ae1351feeb45777be5478fc560001b612b2c565b611eca7f051fab2ffd12f89504c5879306ab5485d16310d46507eab23210ce88f0f42fec60001b612b2c565b611ed261318a565b8015611ef35760008060016101000a81548160ff0219169083151502179055505b5050565b60cf6020528060005260406000206000915054906101000a900460ff1681565b6000611f457f7ea2f91b44b3471592202a59559efc29bdbd4e67105ea0a7a79354b9fff7c1b960001b612b2c565b611f717fc1c4b225ebe7491342da42441a5fa896e9aecad3bfca40bc9979493f60ab7bcb60001b612b2c565b611f9d7ff166cb8eb0dccef39b57656388ea6f6021a27060f3424486dd9abfff75d52c8e60001b612b2c565b611faa8360cc54846131db565b905092915050565b60d360009054906101000a900460ff1681565b611fcd6115f8565b1561200d576040517f08c379a000000000000000000000000000000000000000000000000000000000815260040161200490614269565b60405180910390fd5b6120397ff10368458a1e8950f55708f9d928976985fd6a397515e608fbc35721f47bc11160001b612b2c565b6120657fd7f1e7c923c834b0cd9f7ae6f2ec5dfded676e8b0c9d801158b264f0d24a8d9a60001b612b2c565b6120917fa8376455167799a5f7783c9a2746fd868015caadded1496a6d3285313dd5824a60001b612b2c565b6120bd7f3d99decd8dc16d966e03cb906537c21473376b91051ddf053214e985effb432c60001b612b2c565b60c960009054906101000a900473ffffffffffffffffffffffffffffffffffffffff1673ffffffffffffffffffffffffffffffffffffffff163373ffffffffffffffffffffffffffffffffffffffff161461214d576040517f08c379a00000000000000000000000000000000000000000000000000000000081526004016121449061438d565b60405180910390fd5b6121797f9ac8d3a927f4e73e1d754d8ab32f5e300854da6298b98a2f43560d168359746e60001b612b2c565b6121a57f3270b14e1b2239186b3c058ec7dbc5ce62f3adc9f41b6ba75756943bdf2656c460001b612b2c565b6121d17fa3c63ef2c6d970ee391e725659543776b9b172cea12bb1d3407f96000bf0809260001b612b2c565b6121fd7f5b1531256f8e22ce8cb2d338e0aa7512f2d192c91151878940b2cde31e19d14e60001b612b2c565b6122297f905397cd83c0a0c8e00ee1cda927ace007910bc92abc3e3102583b275fef7ce560001b612b2c565b8060c960006101000a81548173ffffffffffffffffffffffffffffffffffffffff021916908373ffffffffffffffffffffffffffffffffffffffff16021790555050565b60cc5481565b60ce6020528060005260406000206000915054906101000a900460ff1681565b6122bf7f127ed3cdc677c3b4df3882a0324ee9814daa9a4594d474ead6861d701351c72d60001b612b2c565b6122eb7fff62d83e44367c49b2c52660f37ee3c4671b3a81ae1d2c892920ef566ff0e3ae60001b612b2c565b6123177fadbccd420bd42d67d7af9d01c4cde18692d5dc297d85010bec7a5e7d9709ee5e60001b612b2c565b6123437f82fd32ad4f6f90946ac741c3881c887aca20cd82a4fe5f2c46bd57f8e864719d60001b612b2c565b60d360019054906101000a900460ff1615612393576040517f08c379a000000000000000000000000000000000000000000000000000000000815260040161238a9061465b565b60405180910390fd5b6123bf7faa541832e7c45b1f9cdbe5e11cba12db426dfaaace61adad4b3b7d0e6feec7bd60001b612b2c565b6123eb7f3cf9fa72d3cc65eb6f163983b402ad9ed5daceabde5e63d0443e7b91dd9fd19860001b612b2c565b6124177fbc5e837481a62a503f356e17536aaa01dfb927083649dc13e0ef7a8c109ab0dc60001b612b2c565b6124437f1a0fb6d0eb0b2ca8ecab5dd8ee2640ca654fa3b5e4bf96ccfa3bc887d2d7cc8d60001b612b2c565b61246f7f2400b544cfa17e229110af76130e00ba3670111d0b816bddbd49ff01cebf902360001b612b2c565b61249b7f8290af1050945caa0784190b1bb8285e221df0ace2b47cb2887242956b4932ef60001b612b2c565b60d360009054906101000a900460ff166124ea576040517f08c379a00000000000000000000000000000000000000000000000000000000081526004016124e1906146c7565b60405180910390fd5b6125167f9105da7c679f65e4eb53af1d078c4a53e6b92a94779edaf83d18b8dbc8a98b5f60001b612b2c565b6125427fa4f8ebfa0bcf3c4b117d74552e050fe22086d78c0fdb2c01888b4b4d331127b260001b612b2c565b61256e7f5f3483e5530fc89c17f8385258c17b7b9f6fe9d8a0749b06b762e58f8959bdca60001b612b2c565b61259a7feee8ad60c650688b85674c06bace49f696fd8855d7b3960bef134c418bcec19e60001b612b2c565b6125c67fe589a0492b5efb3d69c62106c4e489736a5492eebc34447ce9987e0789adf0f360001b612b2c565b6125f27f3e86f88c4efd3c7866a80f63e83788e775779c1fa9ab59e1adf7eb67c0f9da0c60001b612b2c565b612663828280806020026020016040519081016040528093929190818152602001838360200280828437600081840152601f19601f8201169050808301925050505050505033604051602001612648919061472f565b60405160208183030381529060405280519060200120611f17565b6126a2576040517f08c379a0000000000000000000000000000000000000000000000000000000008152600401612699906147bc565b60405180910390fd5b6126ce7f1d830ed6ab7d9f5a54ad467677b8108137d686e7931b1333e4bbd0c41d42c41960001b612b2c565b6126fa7fe4da5737da703f921c09a16433e4c55b06a02be029c9b6ded6e106fedd91ea3260001b612b2c565b6127267fcf2a3fbb94cefa12bd738dd4217306af8bbedd85db691383986c64c0ddfa588f60001b612b2c565b61273083336131f2565b505050565b6000808273ffffffffffffffffffffffffffffffffffffffff163b119050919050565b60006127867f360894a13ba1a3210667c828492db98dca3e2076cc3735a920a3ca505d382bbc60001b6136b1565b60000160009054906101000a900473ffffffffffffffffffffffffffffffffffffffff16905090565b6127db7ff10368458a1e8950f55708f9d928976985fd6a397515e608fbc35721f47bc11160001b612b2c565b6128077fd7f1e7c923c834b0cd9f7ae6f2ec5dfded676e8b0c9d801158b264f0d24a8d9a60001b612b2c565b6128337fa8376455167799a5f7783c9a2746fd868015caadded1496a6d3285313dd5824a60001b612b2c565b61285f7f3d99decd8dc16d966e03cb906537c21473376b91051ddf053214e985effb432c60001b612b2c565b60c960009054906101000a900473ffffffffffffffffffffffffffffffffffffffff1673ffffffffffffffffffffffffffffffffffffffff163373ffffffffffffffffffffffffffffffffffffffff16146128ef576040517f08c379a00000000000000000000000000000000000000000000000000000000081526004016128e69061438d565b60405180910390fd5b61291b7f9ac8d3a927f4e73e1d754d8ab32f5e300854da6298b98a2f43560d168359746e60001b612b2c565b6129477f3270b14e1b2239186b3c058ec7dbc5ce62f3adc9f41b6ba75756943bdf2656c460001b612b2c565b61294f6115f8565b1561298f576040517f08c379a000000000000000000000000000000000000000000000000000000000815260040161298690614269565b60405180910390fd5b6129bb7fe0d3a8a961f2a7a18994ab8dfe35d1df998f28b79bcde1a79aae5c48ee71011060001b612b2c565b50565b6129ea7f4910fdfa16fed3260ed0e7147f7cc6da11a60208b5b9406d12a635614ffd914360001b6136bb565b60000160009054906101000a900460ff1615612a0e57612a09836136c5565b612b27565b8273ffffffffffffffffffffffffffffffffffffffff166352d1902d6040518163ffffffff1660e01b8152600401602060405180830381865afa925050508015612a7657506040513d601f19601f82011682018060405250810190612a7391906147f1565b60015b612ab5576040517f08c379a0000000000000000000000000000000000000000000000000000000008152600401612aac90614890565b60405180910390fd5b7f360894a13ba1a3210667c828492db98dca3e2076cc3735a920a3ca505d382bbc60001b8114612b1a576040517f08c379a0000000000000000000000000000000000000000000000000000000008152600401612b1190614922565b60405180910390fd5b50612b2683838361377e565b5b505050565b50565b612b376115f8565b612b76576040517f08c379a0000000000000000000000000000000000000000000000000000000008152600401612b6d9061498e565b60405180910390fd5b6000603360006101000a81548160ff0219169083151502179055507f5db9ee0a495bf2e6ff9c91a7834c1ba4fdd244a5e8aa4e537bd38aeae4b073aa612bba6137aa565b604051612bc79190613e45565b60405180910390a1565b60006060612bdd6115f8565b15612c1d576040517f08c379a0000000000000000000000000000000000000000000000000000000008152600401612c1490614269565b60405180910390fd5b612c497f85099047f48d4f172ea26128c5ad3bacb7c038d1bdcc4a4da06973edb42e31a060001b612b2c565b612c757fbdc313912be04859411b4daa50c3be9b4ab6cc059511441edbd0c2a852a2099860001b612b2c565b612ca17f4a6dbb52f1d19f49f1521498189d17e67b23d4a5e656d8ad33f5d108d0d0b5dc60001b612b2c565b60005b60cd5481101561301e57612cda7fd8f11a683391e8ef9aacf21d1e8099e1da819896a80a34ccb5905c0a4372fb3c60001b612b2c565b612d067fd926a409dfa6be33c9d7857b8ab42c29afe397106d83743a75f2efe639ff5f8a60001b612b2c565b60d25460d06000838152602001908152602001600020600201541115612e9d57612d527f01dbe1f6f3814d6e9d4b0ebad11be147efaa5893065b90e1bb04f3a24b25b1e860001b612b2c565b612d7e7fba6157d61e9b30815382d7948370b0966b0cc4967fc9deed9d3635b87fecd52f60001b612b2c565b612daa7feab754abfb2f39f44972655f49ac7d406c54c2b073adea87b2005d6ed6b8d49360001b612b2c565b60d060008281526020019081526020016000206002015460d281905550612df37f0f0dec143076cf2a25ae8f6440799b3e1275ea4ef27e2b86df0e72346324524a60001b612b2c565b60d16000612e0191906139d8565b612e2d7f99795938260be343f6b98336250ffc513d0ecdcd5ba5287e7d452a259281b26a60001b612b2c565b612e597f52aba296b1a285aab90eef2fe69f0451778e98c9c581f34b245383b39569ac7460001b612b2c565b60d160d0600083815260200190815260200160002060000154908060018154018082558091505060019003906000526020600020016000909190919091505561300b565b612ec97f4570d64e780b4ea8bbb8e1ea79e858b76c20d9e9127cd9e72bcef9e52239dd5c60001b612b2c565b612ef57f30e3056520e963c3f5c3b9718ca2ff788e709ba541c65a95cdba4cbdc320746a60001b612b2c565b60d25460d06000838152602001908152602001600020600201541415612fdd57612f417ff9eaddfbaa1537da6bfab2d79592a29626d651c934fcd102423e672a6249a7d860001b612b2c565b612f6d7fced0160ed6dc24b2a6249c3bd27d8603f06350faa8ae4f285c79bc9834189c1660001b612b2c565b612f997f3a2fb4ca7655d1cab0ed5945f1d042f53f1f84d2e2372d720c42dc9df22ae1fc60001b612b2c565b60d160d0600083815260200190815260200160002060000154908060018154018082558091505060019003906000526020600020016000909190919091505561300a565b6130097fef0ced56307a31cd3605705c54430a5ef4483efec947e7f8760115dccc8371c760001b612b2c565b5b5b8080613016906149dd565b915050612ca4565b5061304b7feae8e141b4dc5ee1ec3fa9440f45a95be52d6eedbb86206228965bfbb16c6ede60001b612b2c565b6130777fa2210f6de7f686d7d5ba9944f7b94ccc03a216161bdce2b50697410c562b41aa60001b612b2c565b60d25460d1808054806020026020016040519081016040528092919081815260200182805480156130c757602002820191906000526020600020905b8154815260200190600101908083116130b3575b50505050509050915091509091565b6130de6115f8565b1561311e576040517f08c379a000000000000000000000000000000000000000000000000000000000815260040161311590614269565b60405180910390fd5b6001603360006101000a81548160ff0219169083151502179055507f62e78cea01bee320cd4e420270b5ea74000d11b0c9f74754ebdbfc544b05a2586131626137aa565b60405161316f9190613e45565b60405180910390a1565b600061318430612735565b15905090565b600060019054906101000a900460ff166131d9576040517f08c379a00000000000000000000000000000000000000000000000000000000081526004016131d090614a98565b60405180910390fd5b565b6000826131e885846137b2565b1490509392505050565b6131fa6115f8565b1561323a576040517f08c379a000000000000000000000000000000000000000000000000000000000815260040161323190614269565b60405180910390fd5b816132677f5baa34f426a5fd854ac12c565c454f0e035337ed797fb65c8fb0f3ce6ad3dd1060001b612b2c565b6132937f729a02e7ea63b14b17257a38e48bf5fb2306e6e6621b1f9ab95eb759dc671c3960001b612b2c565b6132bf7f557c7f34d0c37c90d6309150a53bf4c53149e61ce0bb3745ccc153256f49816e60001b612b2c565b6132eb7fe5df44ebae7e990ba0b6516e80f2aa0e040a792d68447286faffc5ed917bfa8360001b612b2c565b60cd54811080156132fd575060008110155b61333c576040517f08c379a000000000000000000000000000000000000000000000000000000000815260040161333390614b04565b60405180910390fd5b6133687f04414778bbd28a836711f117e56ea632a9642b313567a0ff15732fac3954332360001b612b2c565b6133947f37147b97543546b5e9a32b0214d5e37212c75caa0931495c465d59ac04bd2b0760001b612b2c565b6133c07f31968501416019c5b26d222909d8a7802849f3aa8c787d56cfa0ae4ee85cca8d60001b612b2c565b6133ec7fb1b7b6fb493b998da88c06c370b77cfc1f647dcb1c8baba832ba8bc53e89453b60001b612b2c565b6134187fd73bf06c14ec09d5fabfc335b622383807409f0abd5e132c2cffab9de0477f2d60001b612b2c565b6134447f5906960ee68a3e0166cebbaa0047c9d1c311d754684131aacb69915dd426956060001b612b2c565b60cf60008373ffffffffffffffffffffffffffffffffffffffff1673ffffffffffffffffffffffffffffffffffffffff16815260200190815260200160002060009054906101000a900460ff16156134d1576040517f08c379a00000000000000000000000000000000000000000000000000000000081526004016134c890614b70565b60405180910390fd5b6134fd7fd988c72d90b9ba41322a652df8af204a52f491df9c4c83da1dab3b07422d662260001b612b2c565b6135297f7909c796fecfafa9449736b1930efddc3d54278e3237cd955c5df949f6fc349760001b612b2c565b6135557f0509fe1e5e99dc4bb822904e8a3ba520c697b5b577a3996b613bba21e9086dec60001b612b2c565b600160cf60008473ffffffffffffffffffffffffffffffffffffffff1673ffffffffffffffffffffffffffffffffffffffff16815260200190815260200160002060006101000a81548160ff0219169083151502179055506135d97fd94888d3eac30e7f71353ed0a8b5ed617daed4db88671ecc856a6ac4e224373660001b612b2c565b60d060008481526020019081526020016000206002016000815480929190613600906149dd565b91905055506136317f685d0e0940fd8c835e83374ff61d4860975e1347889196ba1810f215ba24787a60001b612b2c565b61365d7f539cd77f75f8c4cdb8c091587e43bf9d68186b77e32dac34808d3848dfdcdd2460001b612b2c565b7fd3ebd88818d034d26c5d98bcef9c7c45207130238e76e8cf0b3ba00e906851bf8360d06000868152602001908152602001600020600201546040516136a4929190614b90565b60405180910390a1505050565b6000819050919050565b6000819050919050565b6136ce81612735565b61370d576040517f08c379a000000000000000000000000000000000000000000000000000000000815260040161370490614c2b565b60405180910390fd5b8061373a7f360894a13ba1a3210667c828492db98dca3e2076cc3735a920a3ca505d382bbc60001b6136b1565b60000160006101000a81548173ffffffffffffffffffffffffffffffffffffffff021916908373ffffffffffffffffffffffffffffffffffffffff16021790555050565b61378783613827565b6000825111806137945750805b156137a5576137a38383613876565b505b505050565b600033905090565b60008082905060005b845181101561381c5760008582815181106137d9576137d8614c4b565b5b602002602001015190508083116137fb576137f4838261395a565b9250613808565b613805818461395a565b92505b508080613814906149dd565b9150506137bb565b508091505092915050565b613830816136c5565b8073ffffffffffffffffffffffffffffffffffffffff167fbc7cd75a20ee27fd9adebab32041f755214dbc6bffa90cc0225b39da2e5c2d3b60405160405180910390a250565b606061388183612735565b6138c0576040517f08c379a00000000000000000000000000000000000000000000000000000000081526004016138b790614cec565b60405180910390fd5b6000808473ffffffffffffffffffffffffffffffffffffffff16846040516138e89190614d53565b600060405180830381855af49150503d8060008114613923576040519150601f19603f3d011682016040523d82523d6000602084013e613928565b606091505b50915091506139508282604051806060016040528060278152602001614d6b60279139613971565b9250505092915050565b600082600052816020526040600020905092915050565b60608315613981578290506139d1565b6000835111156139945782518084602001fd5b816040517f08c379a00000000000000000000000000000000000000000000000000000000081526004016139c89190613aaf565b60405180910390fd5b9392505050565b50805460008255906000526020600020908101906139f691906139f9565b50565b5b80821115613a125760008160009055506001016139fa565b5090565b600081519050919050565b600082825260208201905092915050565b60005b83811015613a50578082015181840152602081019050613a35565b83811115613a5f576000848401525b50505050565b6000601f19601f8301169050919050565b6000613a8182613a16565b613a8b8185613a21565b9350613a9b818560208601613a32565b613aa481613a65565b840191505092915050565b60006020820190508181036000830152613ac98184613a76565b905092915050565b6000819050919050565b613ae481613ad1565b82525050565b6000602082019050613aff6000830184613adb565b92915050565b6000604051905090565b600080fd5b600080fd5b613b2281613ad1565b8114613b2d57600080fd5b50565b600081359050613b3f81613b19565b92915050565b600060208284031215613b5b57613b5a613b0f565b5b6000613b6984828501613b30565b91505092915050565b6000606082019050613b876000830186613adb565b8181036020830152613b998185613a76565b9050613ba86040830184613adb565b949350505050565b600073ffffffffffffffffffffffffffffffffffffffff82169050919050565b6000613bdb82613bb0565b9050919050565b613beb81613bd0565b8114613bf657600080fd5b50565b600081359050613c0881613be2565b92915050565b600060208284031215613c2457613c23613b0f565b5b6000613c3284828501613bf9565b91505092915050565b60008115159050919050565b613c5081613c3b565b82525050565b6000602082019050613c6b6000830184613c47565b92915050565b600080fd5b600080fd5b7f4e487b7100000000000000000000000000000000000000000000000000000000600052604160045260246000fd5b613cb382613a65565b810181811067ffffffffffffffff82111715613cd257613cd1613c7b565b5b80604052505050565b6000613ce5613b05565b9050613cf18282613caa565b919050565b600067ffffffffffffffff821115613d1157613d10613c7b565b5b613d1a82613a65565b9050602081019050919050565b82818337600083830152505050565b6000613d49613d4484613cf6565b613cdb565b905082815260208101848484011115613d6557613d64613c76565b5b613d70848285613d27565b509392505050565b600082601f830112613d8d57613d8c613c71565b5b8135613d9d848260208601613d36565b91505092915050565b60008060408385031215613dbd57613dbc613b0f565b5b6000613dcb85828601613bf9565b925050602083013567ffffffffffffffff811115613dec57613deb613b14565b5b613df885828601613d78565b9150509250929050565b6000819050919050565b613e1581613e02565b82525050565b6000602082019050613e306000830184613e0c565b92915050565b613e3f81613bd0565b82525050565b6000602082019050613e5a6000830184613e36565b92915050565b613e6981613e02565b8114613e7457600080fd5b50565b600081359050613e8681613e60565b92915050565b600060208284031215613ea257613ea1613b0f565b5b6000613eb084828501613e77565b91505092915050565b600067ffffffffffffffff821115613ed457613ed3613c7b565b5b602082029050602081019050919050565b600080fd5b6000613efd613ef884613eb9565b613cdb565b90508083825260208201905060208402830185811115613f2057613f1f613ee5565b5b835b81811015613f495780613f358882613e77565b845260208401935050602081019050613f22565b5050509392505050565b600082601f830112613f6857613f67613c71565b5b8135613f78848260208601613eea565b91505092915050565b60008060408385031215613f9857613f97613b0f565b5b600083013567ffffffffffffffff811115613fb657613fb5613b14565b5b613fc285828601613f53565b9250506020613fd385828601613e77565b9150509250929050565b600080fd5b60008083601f840112613ff857613ff7613c71565b5b8235905067ffffffffffffffff81111561401557614014613fdd565b5b60208301915083602082028301111561403157614030613ee5565b5b9250929050565b60008060006040848603121561405157614050613b0f565b5b600061405f86828701613b30565b935050602084013567ffffffffffffffff8111156140805761407f613b14565b5b61408c86828701613fe2565b92509250509250925092565b7f4e487b7100000000000000000000000000000000000000000000000000000000600052602260045260246000fd5b600060028204905060018216806140df57607f821691505b602082108114156140f3576140f2614098565b5b50919050565b7f46756e6374696f6e206d7573742062652063616c6c6564207468726f7567682060008201527f64656c656761746563616c6c0000000000000000000000000000000000000000602082015250565b6000614155602c83613a21565b9150614160826140f9565b604082019050919050565b6000602082019050818103600083015261418481614148565b9050919050565b7f46756e6374696f6e206d7573742062652063616c6c6564207468726f7567682060008201527f6163746976652070726f78790000000000000000000000000000000000000000602082015250565b60006141e7602c83613a21565b91506141f28261418b565b604082019050919050565b60006020820190508181036000830152614216816141da565b9050919050565b7f5061757361626c653a2070617573656400000000000000000000000000000000600082015250565b6000614253601083613a21565b915061425e8261421d565b602082019050919050565b6000602082019050818103600083015261428281614246565b9050919050565b7f6f6e6c792074656163686572732f63686169726d616e2063616e2063616c6c2060008201527f746869732066756e6374696f6e00000000000000000000000000000000000000602082015250565b60006142e5602d83613a21565b91506142f082614289565b604082019050919050565b60006020820190508181036000830152614314816142d8565b9050919050565b7f6f6e6c792063686169726d616e2063616e2063616c6c20746869732066756e6360008201527f74696f6e00000000000000000000000000000000000000000000000000000000602082015250565b6000614377602483613a21565b91506143828261431b565b604082019050919050565b600060208201905081810360008301526143a68161436a565b9050919050565b7f555550535570677261646561626c653a206d757374206e6f742062652063616c60008201527f6c6564207468726f7567682064656c656761746563616c6c0000000000000000602082015250565b6000614409603883613a21565b9150614414826143ad565b604082019050919050565b60006020820190508181036000830152614438816143fc565b9050919050565b600081549050919050565b600082825260208201905092915050565b60008190508160005260206000209050919050565b61447981613ad1565b82525050565b600061448b8383614470565b60208301905092915050565b60008160001c9050919050565b6000819050919050565b60006144c16144bc83614497565b6144a4565b9050919050565b60006144d482546144ae565b9050919050565b6000600182019050919050565b60006144f38261443f565b6144fd818561444a565b93506145088361445b565b8060005b838110156145405761451d826144c8565b614527888261447f565b9750614532836144db565b92505060018101905061450c565b5085935050505092915050565b6000604082019050818103600083015261456781856144e8565b90506145766020830184613adb565b9392505050565b7f496e697469616c697a61626c653a20636f6e747261637420697320616c72656160008201527f647920696e697469616c697a6564000000000000000000000000000000000000602082015250565b60006145d9602e83613a21565b91506145e48261457d565b604082019050919050565b60006020820190508181036000830152614608816145cc565b9050919050565b7f536f7272792c2074686520456c656374696f6e2068617320656e646564210000600082015250565b6000614645601e83613a21565b91506146508261460f565b602082019050919050565b6000602082019050818103600083015261467481614638565b9050919050565b7f456c656374696f6e20686173206e6f7420626567756e21000000000000000000600082015250565b60006146b1601783613a21565b91506146bc8261467b565b602082019050919050565b600060208201905081810360008301526146e0816146a4565b9050919050565b60008160601b9050919050565b60006146ff826146e7565b9050919050565b6000614711826146f4565b9050919050565b61472961472482613bd0565b614706565b82525050565b600061473b8284614718565b60148201915081905092915050565b7f736f7272792c206f6e6c79207374616b65686f6c646572732061726520656c6960008201527f6769626c6520746f20766f746500000000000000000000000000000000000000602082015250565b60006147a6602d83613a21565b91506147b18261474a565b604082019050919050565b600060208201905081810360008301526147d581614799565b9050919050565b6000815190506147eb81613e60565b92915050565b60006020828403121561480757614806613b0f565b5b6000614815848285016147dc565b91505092915050565b7f45524331393637557067726164653a206e657720696d706c656d656e7461746960008201527f6f6e206973206e6f742055555053000000000000000000000000000000000000602082015250565b600061487a602e83613a21565b91506148858261481e565b604082019050919050565b600060208201905081810360008301526148a98161486d565b9050919050565b7f45524331393637557067726164653a20756e737570706f727465642070726f7860008201527f6961626c65555549440000000000000000000000000000000000000000000000602082015250565b600061490c602983613a21565b9150614917826148b0565b604082019050919050565b6000602082019050818103600083015261493b816148ff565b9050919050565b7f5061757361626c653a206e6f7420706175736564000000000000000000000000600082015250565b6000614978601483613a21565b915061498382614942565b602082019050919050565b600060208201905081810360008301526149a78161496b565b9050919050565b7f4e487b7100000000000000000000000000000000000000000000000000000000600052601160045260246000fd5b60006149e882613ad1565b91507fffffffffffffffffffffffffffffffffffffffffffffffffffffffffffffffff821415614a1b57614a1a6149ae565b5b600182019050919050565b7f496e697469616c697a61626c653a20636f6e7472616374206973206e6f74206960008201527f6e697469616c697a696e67000000000000000000000000000000000000000000602082015250565b6000614a82602b83613a21565b9150614a8d82614a26565b604082019050919050565b60006020820190508181036000830152614ab181614a75565b9050919050565b7f496e76616c69642063616e64696461746520746f20566f746521000000000000600082015250565b6000614aee601a83613a21565b9150614af982614ab8565b602082019050919050565b60006020820190508181036000830152614b1d81614ae1565b9050919050565b7f566f7465722068617320616c726561647920566f746564210000000000000000600082015250565b6000614b5a601883613a21565b9150614b6582614b24565b602082019050919050565b60006020820190508181036000830152614b8981614b4d565b9050919050565b6000604082019050614ba56000830185613adb565b614bb26020830184613adb565b9392505050565b7f455243313936373a206e657720696d706c656d656e746174696f6e206973206e60008201527f6f74206120636f6e747261637400000000000000000000000000000000000000602082015250565b6000614c15602d83613a21565b9150614c2082614bb9565b604082019050919050565b60006020820190508181036000830152614c4481614c08565b9050919050565b7f4e487b7100000000000000000000000000000000000000000000000000000000600052603260045260246000fd5b7f416464726573733a2064656c65676174652063616c6c20746f206e6f6e2d636f60008201527f6e74726163740000000000000000000000000000000000000000000000000000602082015250565b6000614cd6602683613a21565b9150614ce182614c7a565b604082019050919050565b60006020820190508181036000830152614d0581614cc9565b9050919050565b600081519050919050565b600081905092915050565b6000614d2d82614d0c565b614d378185614d17565b9350614d47818560208601613a32565b80840191505092915050565b6000614d5f8284614d22565b91508190509291505056fe416464726573733a206c6f772d6c6576656c2064656c65676174652063616c6c206661696c6564a2646970667358221220ec5501d3a51617aa3bb70bd430b02947eb77bc8f70df014d85bc34f6af51422f64736f6c634300080a0033",
          "opcodes": "PUSH1 0xA0 PUSH1 0x40 MSTORE ADDRESS PUSH20 0xFFFFFFFFFFFFFFFFFFFFFFFFFFFFFFFFFFFFFFFF AND PUSH1 0x80 SWAP1 PUSH20 0xFFFFFFFFFFFFFFFFFFFFFFFFFFFFFFFFFFFFFFFF AND DUP2 MSTORE POP CALLVALUE DUP1 ISZERO PUSH3 0x44 JUMPI PUSH1 0x0 DUP1 REVERT JUMPDEST POP PUSH1 0x0 PUSH1 0x1 SWAP1 SLOAD SWAP1 PUSH2 0x100 EXP SWAP1 DIV PUSH1 0xFF AND PUSH3 0x6F JUMPI PUSH1 0x0 DUP1 SLOAD SWAP1 PUSH2 0x100 EXP SWAP1 DIV PUSH1 0xFF AND ISZERO PUSH3 0x80 JUMP JUMPDEST PUSH3 0x7F PUSH3 0x170 PUSH1 0x20 SHL PUSH1 0x20 SHR JUMP JUMPDEST JUMPDEST PUSH3 0xC2 JUMPI PUSH1 0x40 MLOAD PUSH32 0x8C379A000000000000000000000000000000000000000000000000000000000 DUP2 MSTORE PUSH1 0x4 ADD PUSH3 0xB9 SWAP1 PUSH3 0x23B JUMP JUMPDEST PUSH1 0x40 MLOAD DUP1 SWAP2 SUB SWAP1 REVERT JUMPDEST PUSH1 0x0 DUP1 PUSH1 0x1 SWAP1 SLOAD SWAP1 PUSH2 0x100 EXP SWAP1 DIV PUSH1 0xFF AND ISZERO SWAP1 POP DUP1 ISZERO PUSH3 0x113 JUMPI PUSH1 0x1 PUSH1 0x0 PUSH1 0x1 PUSH2 0x100 EXP DUP2 SLOAD DUP2 PUSH1 0xFF MUL NOT AND SWAP1 DUP4 ISZERO ISZERO MUL OR SWAP1 SSTORE POP PUSH1 0x1 PUSH1 0x0 DUP1 PUSH2 0x100 EXP DUP2 SLOAD DUP2 PUSH1 0xFF MUL NOT AND SWAP1 DUP4 ISZERO ISZERO MUL OR SWAP1 SSTORE POP JUMPDEST PUSH3 0x147 PUSH32 0xC148C3416430E495184AA7E5F85FAC527C54A366326F87B46B0C9A7AAC021B42 PUSH1 0x0 SHL PUSH3 0x18E PUSH1 0x20 SHL PUSH1 0x20 SHR JUMP JUMPDEST DUP1 ISZERO PUSH3 0x169 JUMPI PUSH1 0x0 DUP1 PUSH1 0x1 PUSH2 0x100 EXP DUP2 SLOAD DUP2 PUSH1 0xFF MUL NOT AND SWAP1 DUP4 ISZERO ISZERO MUL OR SWAP1 SSTORE POP JUMPDEST POP PUSH3 0x25D JUMP JUMPDEST PUSH1 0x0 PUSH3 0x188 ADDRESS PUSH3 0x191 PUSH1 0x20 SHL PUSH3 0x2735 OR PUSH1 0x20 SHR JUMP JUMPDEST ISZERO SWAP1 POP SWAP1 JUMP JUMPDEST POP JUMP JUMPDEST PUSH1 0x0 DUP1 DUP3 PUSH20 0xFFFFFFFFFFFFFFFFFFFFFFFFFFFFFFFFFFFFFFFF AND EXTCODESIZE GT SWAP1 POP SWAP2 SWAP1 POP JUMP JUMPDEST PUSH1 0x0 DUP3 DUP3 MSTORE PUSH1 0x20 DUP3 ADD SWAP1 POP SWAP3 SWAP2 POP POP JUMP JUMPDEST PUSH32 0x496E697469616C697A61626C653A20636F6E747261637420697320616C726561 PUSH1 0x0 DUP3 ADD MSTORE PUSH32 0x647920696E697469616C697A6564000000000000000000000000000000000000 PUSH1 0x20 DUP3 ADD MSTORE POP JUMP JUMPDEST PUSH1 0x0 PUSH3 0x223 PUSH1 0x2E DUP4 PUSH3 0x1B4 JUMP JUMPDEST SWAP2 POP PUSH3 0x230 DUP3 PUSH3 0x1C5 JUMP JUMPDEST PUSH1 0x40 DUP3 ADD SWAP1 POP SWAP2 SWAP1 POP JUMP JUMPDEST PUSH1 0x0 PUSH1 0x20 DUP3 ADD SWAP1 POP DUP2 DUP2 SUB PUSH1 0x0 DUP4 ADD MSTORE PUSH3 0x256 DUP2 PUSH3 0x214 JUMP JUMPDEST SWAP1 POP SWAP2 SWAP1 POP JUMP JUMPDEST PUSH1 0x80 MLOAD PUSH2 0x4DC7 PUSH3 0x295 PUSH1 0x0 CODECOPY PUSH1 0x0 DUP2 DUP2 PUSH2 0x723 ADD MSTORE DUP2 DUP2 PUSH2 0x7B2 ADD MSTORE DUP2 DUP2 PUSH2 0xDCB ADD MSTORE DUP2 DUP2 PUSH2 0xE5A ADD MSTORE PUSH2 0xF0A ADD MSTORE PUSH2 0x4DC7 PUSH1 0x0 RETURN INVALID PUSH1 0x80 PUSH1 0x40 MSTORE PUSH1 0x4 CALLDATASIZE LT PUSH2 0x181 JUMPI PUSH1 0x0 CALLDATALOAD PUSH1 0xE0 SHR DUP1 PUSH4 0x5C975ABB GT PUSH2 0xD1 JUMPI DUP1 PUSH4 0xAEC2CCAE GT PUSH2 0x8A JUMPI DUP1 PUSH4 0xE8101869 GT PUSH2 0x64 JUMPI DUP1 PUSH4 0xE8101869 EQ PUSH2 0x51B JUMPI DUP1 PUSH4 0xEBF0C717 EQ PUSH2 0x544 JUMPI DUP1 PUSH4 0xF0A47F78 EQ PUSH2 0x56F JUMPI DUP1 PUSH4 0xFD27419B EQ PUSH2 0x5AC JUMPI PUSH2 0x181 JUMP JUMPDEST DUP1 PUSH4 0xAEC2CCAE EQ PUSH2 0x476 JUMPI DUP1 PUSH4 0xB8A20ED0 EQ PUSH2 0x4B3 JUMPI DUP1 PUSH4 0xC9B0A2A7 EQ PUSH2 0x4F0 JUMPI PUSH2 0x181 JUMP JUMPDEST DUP1 PUSH4 0x5C975ABB EQ PUSH2 0x39E JUMPI DUP1 PUSH4 0x62D73EB8 EQ PUSH2 0x3C9 JUMPI DUP1 PUSH4 0x7284E416 EQ PUSH2 0x3E0 JUMPI DUP1 PUSH4 0x8456CB59 EQ PUSH2 0x40B JUMPI DUP1 PUSH4 0x87F7B975 EQ PUSH2 0x422 JUMPI DUP1 PUSH4 0x9498BD71 EQ PUSH2 0x44D JUMPI PUSH2 0x181 JUMP JUMPDEST DUP1 PUSH4 0x3F4BA83A GT PUSH2 0x13E JUMPI DUP1 PUSH4 0x4F1EF286 GT PUSH2 0x118 JUMPI DUP1 PUSH4 0x4F1EF286 EQ PUSH2 0x317 JUMPI DUP1 PUSH4 0x52D1902D EQ PUSH2 0x333 JUMPI DUP1 PUSH4 0x52FF6846 EQ PUSH2 0x35E JUMPI DUP1 PUSH4 0x59F78468 EQ PUSH2 0x387 JUMPI PUSH2 0x181 JUMP JUMPDEST DUP1 PUSH4 0x3F4BA83A EQ PUSH2 0x298 JUMPI DUP1 PUSH4 0x403D1312 EQ PUSH2 0x2AF JUMPI DUP1 PUSH4 0x477383F3 EQ PUSH2 0x2EC JUMPI PUSH2 0x181 JUMP JUMPDEST DUP1 PUSH4 0x6FDDE03 EQ PUSH2 0x186 JUMPI DUP1 PUSH4 0x2D35A8A2 EQ PUSH2 0x1B1 JUMPI DUP1 PUSH4 0x2F22850D EQ PUSH2 0x1DC JUMPI DUP1 PUSH4 0x3477EE2E EQ PUSH2 0x207 JUMPI DUP1 PUSH4 0x3659CFE6 EQ PUSH2 0x246 JUMPI DUP1 PUSH4 0x3BC6E309 EQ PUSH2 0x26F JUMPI JUMPDEST PUSH1 0x0 DUP1 REVERT JUMPDEST CALLVALUE DUP1 ISZERO PUSH2 0x192 JUMPI PUSH1 0x0 DUP1 REVERT JUMPDEST POP PUSH2 0x19B PUSH2 0x5D5 JUMP JUMPDEST PUSH1 0x40 MLOAD PUSH2 0x1A8 SWAP2 SWAP1 PUSH2 0x3AAF JUMP JUMPDEST PUSH1 0x40 MLOAD DUP1 SWAP2 SUB SWAP1 RETURN JUMPDEST CALLVALUE DUP1 ISZERO PUSH2 0x1BD JUMPI PUSH1 0x0 DUP1 REVERT JUMPDEST POP PUSH2 0x1C6 PUSH2 0x663 JUMP JUMPDEST PUSH1 0x40 MLOAD PUSH2 0x1D3 SWAP2 SWAP1 PUSH2 0x3AEA JUMP JUMPDEST PUSH1 0x40 MLOAD DUP1 SWAP2 SUB SWAP1 RETURN JUMPDEST CALLVALUE DUP1 ISZERO PUSH2 0x1E8 JUMPI PUSH1 0x0 DUP1 REVERT JUMPDEST POP PUSH2 0x1F1 PUSH2 0x669 JUMP JUMPDEST PUSH1 0x40 MLOAD PUSH2 0x1FE SWAP2 SWAP1 PUSH2 0x3AEA JUMP JUMPDEST PUSH1 0x40 MLOAD DUP1 SWAP2 SUB SWAP1 RETURN JUMPDEST CALLVALUE DUP1 ISZERO PUSH2 0x213 JUMPI PUSH1 0x0 DUP1 REVERT JUMPDEST POP PUSH2 0x22E PUSH1 0x4 DUP1 CALLDATASIZE SUB DUP2 ADD SWAP1 PUSH2 0x229 SWAP2 SWAP1 PUSH2 0x3B45 JUMP JUMPDEST PUSH2 0x66F JUMP JUMPDEST PUSH1 0x40 MLOAD PUSH2 0x23D SWAP4 SWAP3 SWAP2 SWAP1 PUSH2 0x3B72 JUMP JUMPDEST PUSH1 0x40 MLOAD DUP1 SWAP2 SUB SWAP1 RETURN JUMPDEST CALLVALUE DUP1 ISZERO PUSH2 0x252 JUMPI PUSH1 0x0 DUP1 REVERT JUMPDEST POP PUSH2 0x26D PUSH1 0x4 DUP1 CALLDATASIZE SUB DUP2 ADD SWAP1 PUSH2 0x268 SWAP2 SWAP1 PUSH2 0x3C0E JUMP JUMPDEST PUSH2 0x721 JUMP JUMPDEST STOP JUMPDEST CALLVALUE DUP1 ISZERO PUSH2 0x27B JUMPI PUSH1 0x0 DUP1 REVERT JUMPDEST POP PUSH2 0x296 PUSH1 0x4 DUP1 CALLDATASIZE SUB DUP2 ADD SWAP1 PUSH2 0x291 SWAP2 SWAP1 PUSH2 0x3C0E JUMP JUMPDEST PUSH2 0x8AA JUMP JUMPDEST STOP JUMPDEST CALLVALUE DUP1 ISZERO PUSH2 0x2A4 JUMPI PUSH1 0x0 DUP1 REVERT JUMPDEST POP PUSH2 0x2AD PUSH2 0xB6C JUMP JUMPDEST STOP JUMPDEST CALLVALUE DUP1 ISZERO PUSH2 0x2BB JUMPI PUSH1 0x0 DUP1 REVERT JUMPDEST POP PUSH2 0x2D6 PUSH1 0x4 DUP1 CALLDATASIZE SUB DUP2 ADD SWAP1 PUSH2 0x2D1 SWAP2 SWAP1 PUSH2 0x3B45 JUMP JUMPDEST PUSH2 0xD92 JUMP JUMPDEST PUSH1 0x40 MLOAD PUSH2 0x2E3 SWAP2 SWAP1 PUSH2 0x3AEA JUMP JUMPDEST PUSH1 0x40 MLOAD DUP1 SWAP2 SUB SWAP1 RETURN JUMPDEST CALLVALUE DUP1 ISZERO PUSH2 0x2F8 JUMPI PUSH1 0x0 DUP1 REVERT JUMPDEST POP PUSH2 0x301 PUSH2 0xDB6 JUMP JUMPDEST PUSH1 0x40 MLOAD PUSH2 0x30E SWAP2 SWAP1 PUSH2 0x3C56 JUMP JUMPDEST PUSH1 0x40 MLOAD DUP1 SWAP2 SUB SWAP1 RETURN JUMPDEST PUSH2 0x331 PUSH1 0x4 DUP1 CALLDATASIZE SUB DUP2 ADD SWAP1 PUSH2 0x32C SWAP2 SWAP1 PUSH2 0x3DA6 JUMP JUMPDEST PUSH2 0xDC9 JUMP JUMPDEST STOP JUMPDEST CALLVALUE DUP1 ISZERO PUSH2 0x33F JUMPI PUSH1 0x0 DUP1 REVERT JUMPDEST POP PUSH2 0x348 PUSH2 0xF06 JUMP JUMPDEST PUSH1 0x40 MLOAD PUSH2 0x355 SWAP2 SWAP1 PUSH2 0x3E1B JUMP JUMPDEST PUSH1 0x40 MLOAD DUP1 SWAP2 SUB SWAP1 RETURN JUMPDEST CALLVALUE DUP1 ISZERO PUSH2 0x36A JUMPI PUSH1 0x0 DUP1 REVERT JUMPDEST POP PUSH2 0x385 PUSH1 0x4 DUP1 CALLDATASIZE SUB DUP2 ADD SWAP1 PUSH2 0x380 SWAP2 SWAP1 PUSH2 0x3C0E JUMP JUMPDEST PUSH2 0xFBF JUMP JUMPDEST STOP JUMPDEST CALLVALUE DUP1 ISZERO PUSH2 0x393 JUMPI PUSH1 0x0 DUP1 REVERT JUMPDEST POP PUSH2 0x39C PUSH2 0x1281 JUMP JUMPDEST STOP JUMPDEST CALLVALUE DUP1 ISZERO PUSH2 0x3AA JUMPI PUSH1 0x0 DUP1 REVERT JUMPDEST POP PUSH2 0x3B3 PUSH2 0x15F8 JUMP JUMPDEST PUSH1 0x40 MLOAD PUSH2 0x3C0 SWAP2 SWAP1 PUSH2 0x3C56 JUMP JUMPDEST PUSH1 0x40 MLOAD DUP1 SWAP2 SUB SWAP1 RETURN JUMPDEST CALLVALUE DUP1 ISZERO PUSH2 0x3D5 JUMPI PUSH1 0x0 DUP1 REVERT JUMPDEST POP PUSH2 0x3DE PUSH2 0x160F JUMP JUMPDEST STOP JUMPDEST CALLVALUE DUP1 ISZERO PUSH2 0x3EC JUMPI PUSH1 0x0 DUP1 REVERT JUMPDEST POP PUSH2 0x3F5 PUSH2 0x1890 JUMP JUMPDEST PUSH1 0x40 MLOAD PUSH2 0x402 SWAP2 SWAP1 PUSH2 0x3AAF JUMP JUMPDEST PUSH1 0x40 MLOAD DUP1 SWAP2 SUB SWAP1 RETURN JUMPDEST CALLVALUE DUP1 ISZERO PUSH2 0x417 JUMPI PUSH1 0x0 DUP1 REVERT JUMPDEST POP PUSH2 0x420 PUSH2 0x191E JUMP JUMPDEST STOP JUMPDEST CALLVALUE DUP1 ISZERO PUSH2 0x42E JUMPI PUSH1 0x0 DUP1 REVERT JUMPDEST POP PUSH2 0x437 PUSH2 0x1B44 JUMP JUMPDEST PUSH1 0x40 MLOAD PUSH2 0x444 SWAP2 SWAP1 PUSH2 0x3E45 JUMP JUMPDEST PUSH1 0x40 MLOAD DUP1 SWAP2 SUB SWAP1 RETURN JUMPDEST CALLVALUE DUP1 ISZERO PUSH2 0x459 JUMPI PUSH1 0x0 DUP1 REVERT JUMPDEST POP PUSH2 0x474 PUSH1 0x4 DUP1 CALLDATASIZE SUB DUP2 ADD SWAP1 PUSH2 0x46F SWAP2 SWAP1 PUSH2 0x3E8C JUMP JUMPDEST PUSH2 0x1B6A JUMP JUMPDEST STOP JUMPDEST CALLVALUE DUP1 ISZERO PUSH2 0x482 JUMPI PUSH1 0x0 DUP1 REVERT JUMPDEST POP PUSH2 0x49D PUSH1 0x4 DUP1 CALLDATASIZE SUB DUP2 ADD SWAP1 PUSH2 0x498 SWAP2 SWAP1 PUSH2 0x3C0E JUMP JUMPDEST PUSH2 0x1EF7 JUMP JUMPDEST PUSH1 0x40 MLOAD PUSH2 0x4AA SWAP2 SWAP1 PUSH2 0x3C56 JUMP JUMPDEST PUSH1 0x40 MLOAD DUP1 SWAP2 SUB SWAP1 RETURN JUMPDEST CALLVALUE DUP1 ISZERO PUSH2 0x4BF JUMPI PUSH1 0x0 DUP1 REVERT JUMPDEST POP PUSH2 0x4DA PUSH1 0x4 DUP1 CALLDATASIZE SUB DUP2 ADD SWAP1 PUSH2 0x4D5 SWAP2 SWAP1 PUSH2 0x3F81 JUMP JUMPDEST PUSH2 0x1F17 JUMP JUMPDEST PUSH1 0x40 MLOAD PUSH2 0x4E7 SWAP2 SWAP1 PUSH2 0x3C56 JUMP JUMPDEST PUSH1 0x40 MLOAD DUP1 SWAP2 SUB SWAP1 RETURN JUMPDEST CALLVALUE DUP1 ISZERO PUSH2 0x4FC JUMPI PUSH1 0x0 DUP1 REVERT JUMPDEST POP PUSH2 0x505 PUSH2 0x1FB2 JUMP JUMPDEST PUSH1 0x40 MLOAD PUSH2 0x512 SWAP2 SWAP1 PUSH2 0x3C56 JUMP JUMPDEST PUSH1 0x40 MLOAD DUP1 SWAP2 SUB SWAP1 RETURN JUMPDEST CALLVALUE DUP1 ISZERO PUSH2 0x527 JUMPI PUSH1 0x0 DUP1 REVERT JUMPDEST POP PUSH2 0x542 PUSH1 0x4 DUP1 CALLDATASIZE SUB DUP2 ADD SWAP1 PUSH2 0x53D SWAP2 SWAP1 PUSH2 0x3C0E JUMP JUMPDEST PUSH2 0x1FC5 JUMP JUMPDEST STOP JUMPDEST CALLVALUE DUP1 ISZERO PUSH2 0x550 JUMPI PUSH1 0x0 DUP1 REVERT JUMPDEST POP PUSH2 0x559 PUSH2 0x226D JUMP JUMPDEST PUSH1 0x40 MLOAD PUSH2 0x566 SWAP2 SWAP1 PUSH2 0x3E1B JUMP JUMPDEST PUSH1 0x40 MLOAD DUP1 SWAP2 SUB SWAP1 RETURN JUMPDEST CALLVALUE DUP1 ISZERO PUSH2 0x57B JUMPI PUSH1 0x0 DUP1 REVERT JUMPDEST POP PUSH2 0x596 PUSH1 0x4 DUP1 CALLDATASIZE SUB DUP2 ADD SWAP1 PUSH2 0x591 SWAP2 SWAP1 PUSH2 0x3C0E JUMP JUMPDEST PUSH2 0x2273 JUMP JUMPDEST PUSH1 0x40 MLOAD PUSH2 0x5A3 SWAP2 SWAP1 PUSH2 0x3C56 JUMP JUMPDEST PUSH1 0x40 MLOAD DUP1 SWAP2 SUB SWAP1 RETURN JUMPDEST CALLVALUE DUP1 ISZERO PUSH2 0x5B8 JUMPI PUSH1 0x0 DUP1 REVERT JUMPDEST POP PUSH2 0x5D3 PUSH1 0x4 DUP1 CALLDATASIZE SUB DUP2 ADD SWAP1 PUSH2 0x5CE SWAP2 SWAP1 PUSH2 0x4038 JUMP JUMPDEST PUSH2 0x2293 JUMP JUMPDEST STOP JUMPDEST PUSH1 0xCA DUP1 SLOAD PUSH2 0x5E2 SWAP1 PUSH2 0x40C7 JUMP JUMPDEST DUP1 PUSH1 0x1F ADD PUSH1 0x20 DUP1 SWAP2 DIV MUL PUSH1 0x20 ADD PUSH1 0x40 MLOAD SWAP1 DUP2 ADD PUSH1 0x40 MSTORE DUP1 SWAP3 SWAP2 SWAP1 DUP2 DUP2 MSTORE PUSH1 0x20 ADD DUP3 DUP1 SLOAD PUSH2 0x60E SWAP1 PUSH2 0x40C7 JUMP JUMPDEST DUP1 ISZERO PUSH2 0x65B JUMPI DUP1 PUSH1 0x1F LT PUSH2 0x630 JUMPI PUSH2 0x100 DUP1 DUP4 SLOAD DIV MUL DUP4 MSTORE SWAP2 PUSH1 0x20 ADD SWAP2 PUSH2 0x65B JUMP JUMPDEST DUP3 ADD SWAP2 SWAP1 PUSH1 0x0 MSTORE PUSH1 0x20 PUSH1 0x0 KECCAK256 SWAP1 JUMPDEST DUP2 SLOAD DUP2 MSTORE SWAP1 PUSH1 0x1 ADD SWAP1 PUSH1 0x20 ADD DUP1 DUP4 GT PUSH2 0x63E JUMPI DUP3 SWAP1 SUB PUSH1 0x1F AND DUP3 ADD SWAP2 JUMPDEST POP POP POP POP POP DUP2 JUMP JUMPDEST PUSH1 0xCD SLOAD DUP2 JUMP JUMPDEST PUSH1 0xD2 SLOAD DUP2 JUMP JUMPDEST PUSH1 0xD0 PUSH1 0x20 MSTORE DUP1 PUSH1 0x0 MSTORE PUSH1 0x40 PUSH1 0x0 KECCAK256 PUSH1 0x0 SWAP2 POP SWAP1 POP DUP1 PUSH1 0x0 ADD SLOAD SWAP1 DUP1 PUSH1 0x1 ADD DUP1 SLOAD PUSH2 0x698 SWAP1 PUSH2 0x40C7 JUMP JUMPDEST DUP1 PUSH1 0x1F ADD PUSH1 0x20 DUP1 SWAP2 DIV MUL PUSH1 0x20 ADD PUSH1 0x40 MLOAD SWAP1 DUP2 ADD PUSH1 0x40 MSTORE DUP1 SWAP3 SWAP2 SWAP1 DUP2 DUP2 MSTORE PUSH1 0x20 ADD DUP3 DUP1 SLOAD PUSH2 0x6C4 SWAP1 PUSH2 0x40C7 JUMP JUMPDEST DUP1 ISZERO PUSH2 0x711 JUMPI DUP1 PUSH1 0x1F LT PUSH2 0x6E6 JUMPI PUSH2 0x100 DUP1 DUP4 SLOAD DIV MUL DUP4 MSTORE SWAP2 PUSH1 0x20 ADD SWAP2 PUSH2 0x711 JUMP JUMPDEST DUP3 ADD SWAP2 SWAP1 PUSH1 0x0 MSTORE PUSH1 0x20 PUSH1 0x0 KECCAK256 SWAP1 JUMPDEST DUP2 SLOAD DUP2 MSTORE SWAP1 PUSH1 0x1 ADD SWAP1 PUSH1 0x20 ADD DUP1 DUP4 GT PUSH2 0x6F4 JUMPI DUP3 SWAP1 SUB PUSH1 0x1F AND DUP3 ADD SWAP2 JUMPDEST POP POP POP POP POP SWAP1 DUP1 PUSH1 0x2 ADD SLOAD SWAP1 POP DUP4 JUMP JUMPDEST PUSH32 0x0 PUSH20 0xFFFFFFFFFFFFFFFFFFFFFFFFFFFFFFFFFFFFFFFF AND ADDRESS PUSH20 0xFFFFFFFFFFFFFFFFFFFFFFFFFFFFFFFFFFFFFFFF AND EQ ISZERO PUSH2 0x7B0 JUMPI PUSH1 0x40 MLOAD PUSH32 0x8C379A000000000000000000000000000000000000000000000000000000000 DUP2 MSTORE PUSH1 0x4 ADD PUSH2 0x7A7 SWAP1 PUSH2 0x416B JUMP JUMPDEST PUSH1 0x40 MLOAD DUP1 SWAP2 SUB SWAP1 REVERT JUMPDEST PUSH32 0x0 PUSH20 0xFFFFFFFFFFFFFFFFFFFFFFFFFFFFFFFFFFFFFFFF AND PUSH2 0x7EF PUSH2 0x2758 JUMP JUMPDEST PUSH20 0xFFFFFFFFFFFFFFFFFFFFFFFFFFFFFFFFFFFFFFFF AND EQ PUSH2 0x845 JUMPI PUSH1 0x40 MLOAD PUSH32 0x8C379A000000000000000000000000000000000000000000000000000000000 DUP2 MSTORE PUSH1 0x4 ADD PUSH2 0x83C SWAP1 PUSH2 0x41FD JUMP JUMPDEST PUSH1 0x40 MLOAD DUP1 SWAP2 SUB SWAP1 REVERT JUMPDEST PUSH2 0x84E DUP2 PUSH2 0x27AF JUMP JUMPDEST PUSH2 0x8A7 DUP2 PUSH1 0x0 PUSH8 0xFFFFFFFFFFFFFFFF DUP2 GT ISZERO PUSH2 0x86D JUMPI PUSH2 0x86C PUSH2 0x3C7B JUMP JUMPDEST JUMPDEST PUSH1 0x40 MLOAD SWAP1 DUP1 DUP3 MSTORE DUP1 PUSH1 0x1F ADD PUSH1 0x1F NOT AND PUSH1 0x20 ADD DUP3 ADD PUSH1 0x40 MSTORE DUP1 ISZERO PUSH2 0x89F JUMPI DUP2 PUSH1 0x20 ADD PUSH1 0x1 DUP3 MUL DUP1 CALLDATASIZE DUP4 CALLDATACOPY DUP1 DUP3 ADD SWAP2 POP POP SWAP1 POP JUMPDEST POP PUSH1 0x0 PUSH2 0x29BE JUMP JUMPDEST POP JUMP JUMPDEST PUSH2 0x8B2 PUSH2 0x15F8 JUMP JUMPDEST ISZERO PUSH2 0x8F2 JUMPI PUSH1 0x40 MLOAD PUSH32 0x8C379A000000000000000000000000000000000000000000000000000000000 DUP2 MSTORE PUSH1 0x4 ADD PUSH2 0x8E9 SWAP1 PUSH2 0x4269 JUMP JUMPDEST PUSH1 0x40 MLOAD DUP1 SWAP2 SUB SWAP1 REVERT JUMPDEST PUSH2 0x91E PUSH32 0x647F8565636A78AF1B1A8B9400032D19DB4B57F05B6335876B41002011FE75A4 PUSH1 0x0 SHL PUSH2 0x2B2C JUMP JUMPDEST PUSH2 0x94A PUSH32 0xE4C352D770F91EC3BAE11894AC150A32D9A6CB4DA8EF0BEEA2601ACA1238D174 PUSH1 0x0 SHL PUSH2 0x2B2C JUMP JUMPDEST PUSH2 0x976 PUSH32 0x443ABAF965FF378F7F93F7126F8EF7EA116C10A436B40344C5B6664074B58887 PUSH1 0x0 SHL PUSH2 0x2B2C JUMP JUMPDEST PUSH2 0x9A2 PUSH32 0xF1D65DA40CD7DA7CD1D29D0F52B82A06CFDD3F1889285C71AA3C5FEAA4062416 PUSH1 0x0 SHL PUSH2 0x2B2C JUMP JUMPDEST CALLER PUSH20 0xFFFFFFFFFFFFFFFFFFFFFFFFFFFFFFFFFFFFFFFF AND PUSH1 0xC9 PUSH1 0x0 SWAP1 SLOAD SWAP1 PUSH2 0x100 EXP SWAP1 DIV PUSH20 0xFFFFFFFFFFFFFFFFFFFFFFFFFFFFFFFFFFFFFFFF AND PUSH20 0xFFFFFFFFFFFFFFFFFFFFFFFFFFFFFFFFFFFFFFFF AND EQ DUP1 PUSH2 0xA4E JUMPI POP PUSH1 0x1 ISZERO ISZERO PUSH1 0xCE PUSH1 0x0 CALLER PUSH20 0xFFFFFFFFFFFFFFFFFFFFFFFFFFFFFFFFFFFFFFFF AND PUSH20 0xFFFFFFFFFFFFFFFFFFFFFFFFFFFFFFFFFFFFFFFF AND DUP2 MSTORE PUSH1 0x20 ADD SWAP1 DUP2 MSTORE PUSH1 0x20 ADD PUSH1 0x0 KECCAK256 PUSH1 0x0 SWAP1 SLOAD SWAP1 PUSH2 0x100 EXP SWAP1 DIV PUSH1 0xFF AND ISZERO ISZERO EQ JUMPDEST PUSH2 0xA8D JUMPI PUSH1 0x40 MLOAD PUSH32 0x8C379A000000000000000000000000000000000000000000000000000000000 DUP2 MSTORE PUSH1 0x4 ADD PUSH2 0xA84 SWAP1 PUSH2 0x42FB JUMP JUMPDEST PUSH1 0x40 MLOAD DUP1 SWAP2 SUB SWAP1 REVERT JUMPDEST PUSH2 0xAB9 PUSH32 0xA00C272CF75A8E59D101B8A4E69E45781BC21011EBE04BDDADB1075FAF299D82 PUSH1 0x0 SHL PUSH2 0x2B2C JUMP JUMPDEST PUSH2 0xAE5 PUSH32 0x5AE36AB7E907AA1AEB4CA0251F16C35C417D7B589C774A83F06D1BCC8882B74C PUSH1 0x0 SHL PUSH2 0x2B2C JUMP JUMPDEST PUSH2 0xB11 PUSH32 0x458FAF568390EBDCC623372AB15850C6AFC5861A1CE2A9A66E1DC8D43E004CA5 PUSH1 0x0 SHL PUSH2 0x2B2C JUMP JUMPDEST PUSH1 0x1 PUSH1 0xCE PUSH1 0x0 DUP4 PUSH20 0xFFFFFFFFFFFFFFFFFFFFFFFFFFFFFFFFFFFFFFFF AND PUSH20 0xFFFFFFFFFFFFFFFFFFFFFFFFFFFFFFFFFFFFFFFF AND DUP2 MSTORE PUSH1 0x20 ADD SWAP1 DUP2 MSTORE PUSH1 0x20 ADD PUSH1 0x0 KECCAK256 PUSH1 0x0 PUSH2 0x100 EXP DUP2 SLOAD DUP2 PUSH1 0xFF MUL NOT AND SWAP1 DUP4 ISZERO ISZERO MUL OR SWAP1 SSTORE POP POP JUMP JUMPDEST PUSH2 0xB98 PUSH32 0xF10368458A1E8950F55708F9D928976985FD6A397515E608FBC35721F47BC111 PUSH1 0x0 SHL PUSH2 0x2B2C JUMP JUMPDEST PUSH2 0xBC4 PUSH32 0xD7F1E7C923C834B0CD9F7AE6F2EC5DFDED676E8B0C9D801158B264F0D24A8D9A PUSH1 0x0 SHL PUSH2 0x2B2C JUMP JUMPDEST PUSH2 0xBF0 PUSH32 0xA8376455167799A5F7783C9A2746FD868015CAADDED1496A6D3285313DD5824A PUSH1 0x0 SHL PUSH2 0x2B2C JUMP JUMPDEST PUSH2 0xC1C PUSH32 0x3D99DECD8DC16D966E03CB906537C21473376B91051DDF053214E985EFFB432C PUSH1 0x0 SHL PUSH2 0x2B2C JUMP JUMPDEST PUSH1 0xC9 PUSH1 0x0 SWAP1 SLOAD SWAP1 PUSH2 0x100 EXP SWAP1 DIV PUSH20 0xFFFFFFFFFFFFFFFFFFFFFFFFFFFFFFFFFFFFFFFF AND PUSH20 0xFFFFFFFFFFFFFFFFFFFFFFFFFFFFFFFFFFFFFFFF AND CALLER PUSH20 0xFFFFFFFFFFFFFFFFFFFFFFFFFFFFFFFFFFFFFFFF AND EQ PUSH2 0xCAC JUMPI PUSH1 0x40 MLOAD PUSH32 0x8C379A000000000000000000000000000000000000000000000000000000000 DUP2 MSTORE PUSH1 0x4 ADD PUSH2 0xCA3 SWAP1 PUSH2 0x438D JUMP JUMPDEST PUSH1 0x40 MLOAD DUP1 SWAP2 SUB SWAP1 REVERT JUMPDEST PUSH2 0xCD8 PUSH32 0x9AC8D3A927F4E73E1D754D8AB32F5E300854DA6298B98A2F43560D168359746E PUSH1 0x0 SHL PUSH2 0x2B2C JUMP JUMPDEST PUSH2 0xD04 PUSH32 0x3270B14E1B2239186B3C058EC7DBC5CE62F3ADC9F41B6BA75756943BDF2656C4 PUSH1 0x0 SHL PUSH2 0x2B2C JUMP JUMPDEST PUSH2 0xD30 PUSH32 0xB6C18B71270308205508530B9848E075EDE2A048CE6CACBC880E97330C19BF54 PUSH1 0x0 SHL PUSH2 0x2B2C JUMP JUMPDEST PUSH2 0xD5C PUSH32 0xA92CE9AA72570F37B18F188A2651AA0F0C21F6E2205252BE6AAFC9A5B22E92AE PUSH1 0x0 SHL PUSH2 0x2B2C JUMP JUMPDEST PUSH2 0xD88 PUSH32 0x67E0F1295D03631725B364E5B7DEB02AF935254E944C594E31BD35EEDB09B50A PUSH1 0x0 SHL PUSH2 0x2B2C JUMP JUMPDEST PUSH2 0xD90 PUSH2 0x2B2F JUMP JUMPDEST JUMP JUMPDEST PUSH1 0xD1 DUP2 DUP2 SLOAD DUP2 LT PUSH2 0xDA2 JUMPI PUSH1 0x0 DUP1 REVERT JUMPDEST SWAP1 PUSH1 0x0 MSTORE PUSH1 0x20 PUSH1 0x0 KECCAK256 ADD PUSH1 0x0 SWAP2 POP SWAP1 POP SLOAD DUP2 JUMP JUMPDEST PUSH1 0xD3 PUSH1 0x1 SWAP1 SLOAD SWAP1 PUSH2 0x100 EXP SWAP1 DIV PUSH1 0xFF AND DUP2 JUMP JUMPDEST PUSH32 0x0 PUSH20 0xFFFFFFFFFFFFFFFFFFFFFFFFFFFFFFFFFFFFFFFF AND ADDRESS PUSH20 0xFFFFFFFFFFFFFFFFFFFFFFFFFFFFFFFFFFFFFFFF AND EQ ISZERO PUSH2 0xE58 JUMPI PUSH1 0x40 MLOAD PUSH32 0x8C379A000000000000000000000000000000000000000000000000000000000 DUP2 MSTORE PUSH1 0x4 ADD PUSH2 0xE4F SWAP1 PUSH2 0x416B JUMP JUMPDEST PUSH1 0x40 MLOAD DUP1 SWAP2 SUB SWAP1 REVERT JUMPDEST PUSH32 0x0 PUSH20 0xFFFFFFFFFFFFFFFFFFFFFFFFFFFFFFFFFFFFFFFF AND PUSH2 0xE97 PUSH2 0x2758 JUMP JUMPDEST PUSH20 0xFFFFFFFFFFFFFFFFFFFFFFFFFFFFFFFFFFFFFFFF AND EQ PUSH2 0xEED JUMPI PUSH1 0x40 MLOAD PUSH32 0x8C379A000000000000000000000000000000000000000000000000000000000 DUP2 MSTORE PUSH1 0x4 ADD PUSH2 0xEE4 SWAP1 PUSH2 0x41FD JUMP JUMPDEST PUSH1 0x40 MLOAD DUP1 SWAP2 SUB SWAP1 REVERT JUMPDEST PUSH2 0xEF6 DUP3 PUSH2 0x27AF JUMP JUMPDEST PUSH2 0xF02 DUP3 DUP3 PUSH1 0x1 PUSH2 0x29BE JUMP JUMPDEST POP POP JUMP JUMPDEST PUSH1 0x0 PUSH32 0x0 PUSH20 0xFFFFFFFFFFFFFFFFFFFFFFFFFFFFFFFFFFFFFFFF AND ADDRESS PUSH20 0xFFFFFFFFFFFFFFFFFFFFFFFFFFFFFFFFFFFFFFFF AND EQ PUSH2 0xF96 JUMPI PUSH1 0x40 MLOAD PUSH32 0x8C379A000000000000000000000000000000000000000000000000000000000 DUP2 MSTORE PUSH1 0x4 ADD PUSH2 0xF8D SWAP1 PUSH2 0x441F JUMP JUMPDEST PUSH1 0x40 MLOAD DUP1 SWAP2 SUB SWAP1 REVERT JUMPDEST PUSH32 0x360894A13BA1A3210667C828492DB98DCA3E2076CC3735A920A3CA505D382BBC PUSH1 0x0 SHL SWAP1 POP SWAP1 JUMP JUMPDEST PUSH2 0xFC7 PUSH2 0x15F8 JUMP JUMPDEST ISZERO PUSH2 0x1007 JUMPI PUSH1 0x40 MLOAD PUSH32 0x8C379A000000000000000000000000000000000000000000000000000000000 DUP2 MSTORE PUSH1 0x4 ADD PUSH2 0xFFE SWAP1 PUSH2 0x4269 JUMP JUMPDEST PUSH1 0x40 MLOAD DUP1 SWAP2 SUB SWAP1 REVERT JUMPDEST PUSH2 0x1033 PUSH32 0x4E682562EFCF2B4DB1DB442268E4F7F62BEDB4F9CEA17C42904E1FE44D2F0F45 PUSH1 0x0 SHL PUSH2 0x2B2C JUMP JUMPDEST PUSH2 0x105F PUSH32 0x2C39C8BABFADC7095CA6F199222200AB0DE89D30C24AABE11552C770FCE06208 PUSH1 0x0 SHL PUSH2 0x2B2C JUMP JUMPDEST PUSH2 0x108B PUSH32 0xF6AE938701626DB699221D94F02E273855C88FFA93C2DDA398F1621835A0B46E PUSH1 0x0 SHL PUSH2 0x2B2C JUMP JUMPDEST PUSH2 0x10B7 PUSH32 0x72E3C4FA2BDC5C4F20B12839766A54882AFFFF3548D8307FAE762780C35C18BA PUSH1 0x0 SHL PUSH2 0x2B2C JUMP JUMPDEST CALLER PUSH20 0xFFFFFFFFFFFFFFFFFFFFFFFFFFFFFFFFFFFFFFFF AND PUSH1 0xC9 PUSH1 0x0 SWAP1 SLOAD SWAP1 PUSH2 0x100 EXP SWAP1 DIV PUSH20 0xFFFFFFFFFFFFFFFFFFFFFFFFFFFFFFFFFFFFFFFF AND PUSH20 0xFFFFFFFFFFFFFFFFFFFFFFFFFFFFFFFFFFFFFFFF AND EQ DUP1 PUSH2 0x1163 JUMPI POP PUSH1 0x1 ISZERO ISZERO PUSH1 0xCE PUSH1 0x0 CALLER PUSH20 0xFFFFFFFFFFFFFFFFFFFFFFFFFFFFFFFFFFFFFFFF AND PUSH20 0xFFFFFFFFFFFFFFFFFFFFFFFFFFFFFFFFFFFFFFFF AND DUP2 MSTORE PUSH1 0x20 ADD SWAP1 DUP2 MSTORE PUSH1 0x20 ADD PUSH1 0x0 KECCAK256 PUSH1 0x0 SWAP1 SLOAD SWAP1 PUSH2 0x100 EXP SWAP1 DIV PUSH1 0xFF AND ISZERO ISZERO EQ JUMPDEST PUSH2 0x11A2 JUMPI PUSH1 0x40 MLOAD PUSH32 0x8C379A000000000000000000000000000000000000000000000000000000000 DUP2 MSTORE PUSH1 0x4 ADD PUSH2 0x1199 SWAP1 PUSH2 0x42FB JUMP JUMPDEST PUSH1 0x40 MLOAD DUP1 SWAP2 SUB SWAP1 REVERT JUMPDEST PUSH2 0x11CE PUSH32 0xFD14A535A0BBC1C498870DB62231018FDBEC1C97B0FB4560795F912471F88BDA PUSH1 0x0 SHL PUSH2 0x2B2C JUMP JUMPDEST PUSH2 0x11FA PUSH32 0x5E167EBE276C8633FEA3ECA617D845D29AEF3CE367DEF3B48F1DE05BD95E589E PUSH1 0x0 SHL PUSH2 0x2B2C JUMP JUMPDEST PUSH2 0x1226 PUSH32 0x60905A303297992B7DD411B3BC183E501C767B55F7E1D46F0003049B4959A534 PUSH1 0x0 SHL PUSH2 0x2B2C JUMP JUMPDEST PUSH1 0x0 PUSH1 0xCE PUSH1 0x0 DUP4 PUSH20 0xFFFFFFFFFFFFFFFFFFFFFFFFFFFFFFFFFFFFFFFF AND PUSH20 0xFFFFFFFFFFFFFFFFFFFFFFFFFFFFFFFFFFFFFFFF AND DUP2 MSTORE PUSH1 0x20 ADD SWAP1 DUP2 MSTORE PUSH1 0x20 ADD PUSH1 0x0 KECCAK256 PUSH1 0x0 PUSH2 0x100 EXP DUP2 SLOAD DUP2 PUSH1 0xFF MUL NOT AND SWAP1 DUP4 ISZERO ISZERO MUL OR SWAP1 SSTORE POP POP JUMP JUMPDEST PUSH2 0x1289 PUSH2 0x15F8 JUMP JUMPDEST ISZERO PUSH2 0x12C9 JUMPI PUSH1 0x40 MLOAD PUSH32 0x8C379A000000000000000000000000000000000000000000000000000000000 DUP2 MSTORE PUSH1 0x4 ADD PUSH2 0x12C0 SWAP1 PUSH2 0x4269 JUMP JUMPDEST PUSH1 0x40 MLOAD DUP1 SWAP2 SUB SWAP1 REVERT JUMPDEST PUSH2 0x12F5 PUSH32 0xF10368458A1E8950F55708F9D928976985FD6A397515E608FBC35721F47BC111 PUSH1 0x0 SHL PUSH2 0x2B2C JUMP JUMPDEST PUSH2 0x1321 PUSH32 0xD7F1E7C923C834B0CD9F7AE6F2EC5DFDED676E8B0C9D801158B264F0D24A8D9A PUSH1 0x0 SHL PUSH2 0x2B2C JUMP JUMPDEST PUSH2 0x134D PUSH32 0xA8376455167799A5F7783C9A2746FD868015CAADDED1496A6D3285313DD5824A PUSH1 0x0 SHL PUSH2 0x2B2C JUMP JUMPDEST PUSH2 0x1379 PUSH32 0x3D99DECD8DC16D966E03CB906537C21473376B91051DDF053214E985EFFB432C PUSH1 0x0 SHL PUSH2 0x2B2C JUMP JUMPDEST PUSH1 0xC9 PUSH1 0x0 SWAP1 SLOAD SWAP1 PUSH2 0x100 EXP SWAP1 DIV PUSH20 0xFFFFFFFFFFFFFFFFFFFFFFFFFFFFFFFFFFFFFFFF AND PUSH20 0xFFFFFFFFFFFFFFFFFFFFFFFFFFFFFFFFFFFFFFFF AND CALLER PUSH20 0xFFFFFFFFFFFFFFFFFFFFFFFFFFFFFFFFFFFFFFFF AND EQ PUSH2 0x1409 JUMPI PUSH1 0x40 MLOAD PUSH32 0x8C379A000000000000000000000000000000000000000000000000000000000 DUP2 MSTORE PUSH1 0x4 ADD PUSH2 0x1400 SWAP1 PUSH2 0x438D JUMP JUMPDEST PUSH1 0x40 MLOAD DUP1 SWAP2 SUB SWAP1 REVERT JUMPDEST PUSH2 0x1435 PUSH32 0x9AC8D3A927F4E73E1D754D8AB32F5E300854DA6298B98A2F43560D168359746E PUSH1 0x0 SHL PUSH2 0x2B2C JUMP JUMPDEST PUSH2 0x1461 PUSH32 0x3270B14E1B2239186B3C058EC7DBC5CE62F3ADC9F41B6BA75756943BDF2656C4 PUSH1 0x0 SHL PUSH2 0x2B2C JUMP JUMPDEST PUSH2 0x148D PUSH32 0x28788E5C9444EA19062EBB6D9DA0DC4133346E2EB9D8A9F9890B03F38C55D925 PUSH1 0x0 SHL PUSH2 0x2B2C JUMP JUMPDEST PUSH2 0x14B9 PUSH32 0xC1F2F05A72013C155E8DB264C5E782CE5FB1332AF4AB0A4DBF23EC2D444B5C8D PUSH1 0x0 SHL PUSH2 0x2B2C JUMP JUMPDEST PUSH2 0x14E5 PUSH32 0x8C6601304668A6293B0B348625515C565E1FF373894DCEDF25B768FEA1A9CCF9 PUSH1 0x0 SHL PUSH2 0x2B2C JUMP JUMPDEST PUSH1 0x1 PUSH1 0xD3 PUSH1 0x1 PUSH2 0x100 EXP DUP2 SLOAD DUP2 PUSH1 0xFF MUL NOT AND SWAP1 DUP4 ISZERO ISZERO MUL OR SWAP1 SSTORE POP PUSH2 0x152C PUSH32 0x57641378A2B6662375CB8D9EF33684D81D2CB15B169A498BB5C654A1603A3C8D PUSH1 0x0 SHL PUSH2 0x2B2C JUMP JUMPDEST PUSH2 0x1558 PUSH32 0xD6480DBACF21101C8FDEE5A8EA516058B615A83929F6388B33685CBB873526C4 PUSH1 0x0 SHL PUSH2 0x2B2C JUMP JUMPDEST PUSH2 0x1560 PUSH2 0x2BD1 JUMP JUMPDEST POP POP PUSH2 0x158E PUSH32 0x9E1BB5315F94C9AA1A1CB57BF207C894244929A9D7B82C90706E828DDED61707 PUSH1 0x0 SHL PUSH2 0x2B2C JUMP JUMPDEST PUSH2 0x15BA PUSH32 0xE317966E63338E812348C7748947CECE9D022B929B604F31FAAA8B8F39C5FF20 PUSH1 0x0 SHL PUSH2 0x2B2C JUMP JUMPDEST PUSH32 0x38D8EBBBB4803F034F19B4CF2F19BFB84CC5DEA177696C1F80A19357D5602E04 PUSH1 0xD1 PUSH1 0xD2 SLOAD PUSH1 0x40 MLOAD PUSH2 0x15EE SWAP3 SWAP2 SWAP1 PUSH2 0x454D JUMP JUMPDEST PUSH1 0x40 MLOAD DUP1 SWAP2 SUB SWAP1 LOG1 JUMP JUMPDEST PUSH1 0x0 PUSH1 0x33 PUSH1 0x0 SWAP1 SLOAD SWAP1 PUSH2 0x100 EXP SWAP1 DIV PUSH1 0xFF AND SWAP1 POP SWAP1 JUMP JUMPDEST PUSH2 0x1617 PUSH2 0x15F8 JUMP JUMPDEST ISZERO PUSH2 0x1657 JUMPI PUSH1 0x40 MLOAD PUSH32 0x8C379A000000000000000000000000000000000000000000000000000000000 DUP2 MSTORE PUSH1 0x4 ADD PUSH2 0x164E SWAP1 PUSH2 0x4269 JUMP JUMPDEST PUSH1 0x40 MLOAD DUP1 SWAP2 SUB SWAP1 REVERT JUMPDEST PUSH2 0x1683 PUSH32 0xF10368458A1E8950F55708F9D928976985FD6A397515E608FBC35721F47BC111 PUSH1 0x0 SHL PUSH2 0x2B2C JUMP JUMPDEST PUSH2 0x16AF PUSH32 0xD7F1E7C923C834B0CD9F7AE6F2EC5DFDED676E8B0C9D801158B264F0D24A8D9A PUSH1 0x0 SHL PUSH2 0x2B2C JUMP JUMPDEST PUSH2 0x16DB PUSH32 0xA8376455167799A5F7783C9A2746FD868015CAADDED1496A6D3285313DD5824A PUSH1 0x0 SHL PUSH2 0x2B2C JUMP JUMPDEST PUSH2 0x1707 PUSH32 0x3D99DECD8DC16D966E03CB906537C21473376B91051DDF053214E985EFFB432C PUSH1 0x0 SHL PUSH2 0x2B2C JUMP JUMPDEST PUSH1 0xC9 PUSH1 0x0 SWAP1 SLOAD SWAP1 PUSH2 0x100 EXP SWAP1 DIV PUSH20 0xFFFFFFFFFFFFFFFFFFFFFFFFFFFFFFFFFFFFFFFF AND PUSH20 0xFFFFFFFFFFFFFFFFFFFFFFFFFFFFFFFFFFFFFFFF AND CALLER PUSH20 0xFFFFFFFFFFFFFFFFFFFFFFFFFFFFFFFFFFFFFFFF AND EQ PUSH2 0x1797 JUMPI PUSH1 0x40 MLOAD PUSH32 0x8C379A000000000000000000000000000000000000000000000000000000000 DUP2 MSTORE PUSH1 0x4 ADD PUSH2 0x178E SWAP1 PUSH2 0x438D JUMP JUMPDEST PUSH1 0x40 MLOAD DUP1 SWAP2 SUB SWAP1 REVERT JUMPDEST PUSH2 0x17C3 PUSH32 0x9AC8D3A927F4E73E1D754D8AB32F5E300854DA6298B98A2F43560D168359746E PUSH1 0x0 SHL PUSH2 0x2B2C JUMP JUMPDEST PUSH2 0x17EF PUSH32 0x3270B14E1B2239186B3C058EC7DBC5CE62F3ADC9F41B6BA75756943BDF2656C4 PUSH1 0x0 SHL PUSH2 0x2B2C JUMP JUMPDEST PUSH2 0x181B PUSH32 0xC5EC14FB9A2B00F3712CD29DE0F531C266C6FC337E4D871847053FC264AE74DE PUSH1 0x0 SHL PUSH2 0x2B2C JUMP JUMPDEST PUSH2 0x1847 PUSH32 0x7D6D1A41DCD407C213F1F7622D60F9D9C15F915AF936918AE8B3A9CEA7FC4CDB PUSH1 0x0 SHL PUSH2 0x2B2C JUMP JUMPDEST PUSH2 0x1873 PUSH32 0x69065EE662199B8C69F2ACA7A21D4CE9B5F6D1573C891A6E722D0957F81F0225 PUSH1 0x0 SHL PUSH2 0x2B2C JUMP JUMPDEST PUSH1 0x1 PUSH1 0xD3 PUSH1 0x0 PUSH2 0x100 EXP DUP2 SLOAD DUP2 PUSH1 0xFF MUL NOT AND SWAP1 DUP4 ISZERO ISZERO MUL OR SWAP1 SSTORE POP JUMP JUMPDEST PUSH1 0xCB DUP1 SLOAD PUSH2 0x189D SWAP1 PUSH2 0x40C7 JUMP JUMPDEST DUP1 PUSH1 0x1F ADD PUSH1 0x20 DUP1 SWAP2 DIV MUL PUSH1 0x20 ADD PUSH1 0x40 MLOAD SWAP1 DUP2 ADD PUSH1 0x40 MSTORE DUP1 SWAP3 SWAP2 SWAP1 DUP2 DUP2 MSTORE PUSH1 0x20 ADD DUP3 DUP1 SLOAD PUSH2 0x18C9 SWAP1 PUSH2 0x40C7 JUMP JUMPDEST DUP1 ISZERO PUSH2 0x1916 JUMPI DUP1 PUSH1 0x1F LT PUSH2 0x18EB JUMPI PUSH2 0x100 DUP1 DUP4 SLOAD DIV MUL DUP4 MSTORE SWAP2 PUSH1 0x20 ADD SWAP2 PUSH2 0x1916 JUMP JUMPDEST DUP3 ADD SWAP2 SWAP1 PUSH1 0x0 MSTORE PUSH1 0x20 PUSH1 0x0 KECCAK256 SWAP1 JUMPDEST DUP2 SLOAD DUP2 MSTORE SWAP1 PUSH1 0x1 ADD SWAP1 PUSH1 0x20 ADD DUP1 DUP4 GT PUSH2 0x18F9 JUMPI DUP3 SWAP1 SUB PUSH1 0x1F AND DUP3 ADD SWAP2 JUMPDEST POP POP POP POP POP DUP2 JUMP JUMPDEST PUSH2 0x194A PUSH32 0xF10368458A1E8950F55708F9D928976985FD6A397515E608FBC35721F47BC111 PUSH1 0x0 SHL PUSH2 0x2B2C JUMP JUMPDEST PUSH2 0x1976 PUSH32 0xD7F1E7C923C834B0CD9F7AE6F2EC5DFDED676E8B0C9D801158B264F0D24A8D9A PUSH1 0x0 SHL PUSH2 0x2B2C JUMP JUMPDEST PUSH2 0x19A2 PUSH32 0xA8376455167799A5F7783C9A2746FD868015CAADDED1496A6D3285313DD5824A PUSH1 0x0 SHL PUSH2 0x2B2C JUMP JUMPDEST PUSH2 0x19CE PUSH32 0x3D99DECD8DC16D966E03CB906537C21473376B91051DDF053214E985EFFB432C PUSH1 0x0 SHL PUSH2 0x2B2C JUMP JUMPDEST PUSH1 0xC9 PUSH1 0x0 SWAP1 SLOAD SWAP1 PUSH2 0x100 EXP SWAP1 DIV PUSH20 0xFFFFFFFFFFFFFFFFFFFFFFFFFFFFFFFFFFFFFFFF AND PUSH20 0xFFFFFFFFFFFFFFFFFFFFFFFFFFFFFFFFFFFFFFFF AND CALLER PUSH20 0xFFFFFFFFFFFFFFFFFFFFFFFFFFFFFFFFFFFFFFFF AND EQ PUSH2 0x1A5E JUMPI PUSH1 0x40 MLOAD PUSH32 0x8C379A000000000000000000000000000000000000000000000000000000000 DUP2 MSTORE PUSH1 0x4 ADD PUSH2 0x1A55 SWAP1 PUSH2 0x438D JUMP JUMPDEST PUSH1 0x40 MLOAD DUP1 SWAP2 SUB SWAP1 REVERT JUMPDEST PUSH2 0x1A8A PUSH32 0x9AC8D3A927F4E73E1D754D8AB32F5E300854DA6298B98A2F43560D168359746E PUSH1 0x0 SHL PUSH2 0x2B2C JUMP JUMPDEST PUSH2 0x1AB6 PUSH32 0x3270B14E1B2239186B3C058EC7DBC5CE62F3ADC9F41B6BA75756943BDF2656C4 PUSH1 0x0 SHL PUSH2 0x2B2C JUMP JUMPDEST PUSH2 0x1AE2 PUSH32 0xEB11335A755F683BF2199128A7D82F797A901C99EC6FDED58E7E75A272ACCD3 PUSH1 0x0 SHL PUSH2 0x2B2C JUMP JUMPDEST PUSH2 0x1B0E PUSH32 0x7E2E77CA21AA1B46B9B0AAD6729D34129F7D6C650038A359E5A0D77901124444 PUSH1 0x0 SHL PUSH2 0x2B2C JUMP JUMPDEST PUSH2 0x1B3A PUSH32 0xFCB49922ECB56B47C45C8BE27AEB49621FD0D364C7E88BCC10D4E783067AD04 PUSH1 0x0 SHL PUSH2 0x2B2C JUMP JUMPDEST PUSH2 0x1B42 PUSH2 0x30D6 JUMP JUMPDEST JUMP JUMPDEST PUSH1 0xC9 PUSH1 0x0 SWAP1 SLOAD SWAP1 PUSH2 0x100 EXP SWAP1 DIV PUSH20 0xFFFFFFFFFFFFFFFFFFFFFFFFFFFFFFFFFFFFFFFF AND DUP2 JUMP JUMPDEST PUSH1 0x0 PUSH1 0x1 SWAP1 SLOAD SWAP1 PUSH2 0x100 EXP SWAP1 DIV PUSH1 0xFF AND PUSH2 0x1B92 JUMPI PUSH1 0x0 DUP1 SLOAD SWAP1 PUSH2 0x100 EXP SWAP1 DIV PUSH1 0xFF AND ISZERO PUSH2 0x1B9B JUMP JUMPDEST PUSH2 0x1B9A PUSH2 0x3179 JUMP JUMPDEST JUMPDEST PUSH2 0x1BDA JUMPI PUSH1 0x40 MLOAD PUSH32 0x8C379A000000000000000000000000000000000000000000000000000000000 DUP2 MSTORE PUSH1 0x4 ADD PUSH2 0x1BD1 SWAP1 PUSH2 0x45EF JUMP JUMPDEST PUSH1 0x40 MLOAD DUP1 SWAP2 SUB SWAP1 REVERT JUMPDEST PUSH1 0x0 DUP1 PUSH1 0x1 SWAP1 SLOAD SWAP1 PUSH2 0x100 EXP SWAP1 DIV PUSH1 0xFF AND ISZERO SWAP1 POP DUP1 ISZERO PUSH2 0x1C2A JUMPI PUSH1 0x1 PUSH1 0x0 PUSH1 0x1 PUSH2 0x100 EXP DUP2 SLOAD DUP2 PUSH1 0xFF MUL NOT AND SWAP1 DUP4 ISZERO ISZERO MUL OR SWAP1 SSTORE POP PUSH1 0x1 PUSH1 0x0 DUP1 PUSH2 0x100 EXP DUP2 SLOAD DUP2 PUSH1 0xFF MUL NOT AND SWAP1 DUP4 ISZERO ISZERO MUL OR SWAP1 SSTORE POP JUMPDEST PUSH2 0x1C56 PUSH32 0x9ACE2E23F110F2C2476B0D524036C4BF1EC765E5C3CB793462562F5B4E2B86AC PUSH1 0x0 SHL PUSH2 0x2B2C JUMP JUMPDEST PUSH2 0x1C82 PUSH32 0x975C750226379D8E306B1CB38D23CF769884AD24D4A9239B8420E07289B8430 PUSH1 0x0 SHL PUSH2 0x2B2C JUMP JUMPDEST PUSH2 0x1CAE PUSH32 0x57F5A17DD93D2F433B98D7291CCAB2EA3B364F7F2DF5A0396E632FB0A7FCA960 PUSH1 0x0 SHL PUSH2 0x2B2C JUMP JUMPDEST CALLER PUSH20 0xFFFFFFFFFFFFFFFFFFFFFFFFFFFFFFFFFFFFFFFF AND PUSH1 0xC9 PUSH1 0x0 SWAP1 SLOAD SWAP1 PUSH2 0x100 EXP SWAP1 POP POP POP PUSH2 0x1D00 PUSH32 0xE830C0EE140FBBBC436032DC4CE74BD2D88F47070D3B8087F3B8B7C31C8538A8 PUSH1 0x0 SHL PUSH2 0x2B2C JUMP JUMPDEST PUSH2 0x1D2C PUSH32 0x2E81CCA64CA6D6AB4CA06C40AF7E18AE6E9CD6A37361C0931AFAA89EFA285054 PUSH1 0x0 SHL PUSH2 0x2B2C JUMP JUMPDEST PUSH2 0x1D58 PUSH32 0x2E36C2AEDF7468FBAABA247F8CAFDADFBB4C967F336C17FDAB6EC386129C178C PUSH1 0x0 SHL PUSH2 0x2B2C JUMP JUMPDEST PUSH2 0x1D84 PUSH32 0xB05FC425EF53341246609DE4EB849E0EB5049A64251509C4E358ADF537A6B98B PUSH1 0x0 SHL PUSH2 0x2B2C JUMP JUMPDEST PUSH1 0x0 PUSH1 0xD3 PUSH1 0x0 PUSH2 0x100 EXP DUP2 SLOAD DUP2 PUSH1 0xFF MUL NOT AND SWAP1 DUP4 ISZERO ISZERO MUL OR SWAP1 SSTORE POP PUSH2 0x1DCB PUSH32 0x82C10BA22F146A66F8B226A850DD3314ECE4F503137B8B50D93C7DC07B98E08 PUSH1 0x0 SHL PUSH2 0x2B2C JUMP JUMPDEST PUSH2 0x1DF7 PUSH32 0x60DFE5F924A445355811C299BE4E1CF7B18A8D116987905341223FFC0D2EBD6 PUSH1 0x0 SHL PUSH2 0x2B2C JUMP JUMPDEST PUSH1 0x0 PUSH1 0xD3 PUSH1 0x1 PUSH2 0x100 EXP DUP2 SLOAD DUP2 PUSH1 0xFF MUL NOT AND SWAP1 DUP4 ISZERO ISZERO MUL OR SWAP1 SSTORE POP PUSH2 0x1E3E PUSH32 0xE97062E62347A347CE9F89CA4532670FF1EE6C014D411F2F0A2D82D3A9D32E42 PUSH1 0x0 SHL PUSH2 0x2B2C JUMP JUMPDEST PUSH2 0x1E6A PUSH32 0x579336B80875A4B5D62D2D2DBE5D2B35ECE70268C608B84D96234D695065EE0C PUSH1 0x0 SHL PUSH2 0x2B2C JUMP JUMPDEST PUSH1 0x0 PUSH1 0xCD DUP2 SWAP1 SSTORE POP PUSH2 0x1E9E PUSH32 0x2757F444343BCF165C7C879A1AD14E8184E216F8AE1351FEEB45777BE5478FC5 PUSH1 0x0 SHL PUSH2 0x2B2C JUMP JUMPDEST PUSH2 0x1ECA PUSH32 0x51FAB2FFD12F89504C5879306AB5485D16310D46507EAB23210CE88F0F42FEC PUSH1 0x0 SHL PUSH2 0x2B2C JUMP JUMPDEST PUSH2 0x1ED2 PUSH2 0x318A JUMP JUMPDEST DUP1 ISZERO PUSH2 0x1EF3 JUMPI PUSH1 0x0 DUP1 PUSH1 0x1 PUSH2 0x100 EXP DUP2 SLOAD DUP2 PUSH1 0xFF MUL NOT AND SWAP1 DUP4 ISZERO ISZERO MUL OR SWAP1 SSTORE POP JUMPDEST POP POP JUMP JUMPDEST PUSH1 0xCF PUSH1 0x20 MSTORE DUP1 PUSH1 0x0 MSTORE PUSH1 0x40 PUSH1 0x0 KECCAK256 PUSH1 0x0 SWAP2 POP SLOAD SWAP1 PUSH2 0x100 EXP SWAP1 DIV PUSH1 0xFF AND DUP2 JUMP JUMPDEST PUSH1 0x0 PUSH2 0x1F45 PUSH32 0x7EA2F91B44B3471592202A59559EFC29BDBD4E67105EA0A7A79354B9FFF7C1B9 PUSH1 0x0 SHL PUSH2 0x2B2C JUMP JUMPDEST PUSH2 0x1F71 PUSH32 0xC1C4B225EBE7491342DA42441A5FA896E9AECAD3BFCA40BC9979493F60AB7BCB PUSH1 0x0 SHL PUSH2 0x2B2C JUMP JUMPDEST PUSH2 0x1F9D PUSH32 0xF166CB8EB0DCCEF39B57656388EA6F6021A27060F3424486DD9ABFFF75D52C8E PUSH1 0x0 SHL PUSH2 0x2B2C JUMP JUMPDEST PUSH2 0x1FAA DUP4 PUSH1 0xCC SLOAD DUP5 PUSH2 0x31DB JUMP JUMPDEST SWAP1 POP SWAP3 SWAP2 POP POP JUMP JUMPDEST PUSH1 0xD3 PUSH1 0x0 SWAP1 SLOAD SWAP1 PUSH2 0x100 EXP SWAP1 DIV PUSH1 0xFF AND DUP2 JUMP JUMPDEST PUSH2 0x1FCD PUSH2 0x15F8 JUMP JUMPDEST ISZERO PUSH2 0x200D JUMPI PUSH1 0x40 MLOAD PUSH32 0x8C379A000000000000000000000000000000000000000000000000000000000 DUP2 MSTORE PUSH1 0x4 ADD PUSH2 0x2004 SWAP1 PUSH2 0x4269 JUMP JUMPDEST PUSH1 0x40 MLOAD DUP1 SWAP2 SUB SWAP1 REVERT JUMPDEST PUSH2 0x2039 PUSH32 0xF10368458A1E8950F55708F9D928976985FD6A397515E608FBC35721F47BC111 PUSH1 0x0 SHL PUSH2 0x2B2C JUMP JUMPDEST PUSH2 0x2065 PUSH32 0xD7F1E7C923C834B0CD9F7AE6F2EC5DFDED676E8B0C9D801158B264F0D24A8D9A PUSH1 0x0 SHL PUSH2 0x2B2C JUMP JUMPDEST PUSH2 0x2091 PUSH32 0xA8376455167799A5F7783C9A2746FD868015CAADDED1496A6D3285313DD5824A PUSH1 0x0 SHL PUSH2 0x2B2C JUMP JUMPDEST PUSH2 0x20BD PUSH32 0x3D99DECD8DC16D966E03CB906537C21473376B91051DDF053214E985EFFB432C PUSH1 0x0 SHL PUSH2 0x2B2C JUMP JUMPDEST PUSH1 0xC9 PUSH1 0x0 SWAP1 SLOAD SWAP1 PUSH2 0x100 EXP SWAP1 DIV PUSH20 0xFFFFFFFFFFFFFFFFFFFFFFFFFFFFFFFFFFFFFFFF AND PUSH20 0xFFFFFFFFFFFFFFFFFFFFFFFFFFFFFFFFFFFFFFFF AND CALLER PUSH20 0xFFFFFFFFFFFFFFFFFFFFFFFFFFFFFFFFFFFFFFFF AND EQ PUSH2 0x214D JUMPI PUSH1 0x40 MLOAD PUSH32 0x8C379A000000000000000000000000000000000000000000000000000000000 DUP2 MSTORE PUSH1 0x4 ADD PUSH2 0x2144 SWAP1 PUSH2 0x438D JUMP JUMPDEST PUSH1 0x40 MLOAD DUP1 SWAP2 SUB SWAP1 REVERT JUMPDEST PUSH2 0x2179 PUSH32 0x9AC8D3A927F4E73E1D754D8AB32F5E300854DA6298B98A2F43560D168359746E PUSH1 0x0 SHL PUSH2 0x2B2C JUMP JUMPDEST PUSH2 0x21A5 PUSH32 0x3270B14E1B2239186B3C058EC7DBC5CE62F3ADC9F41B6BA75756943BDF2656C4 PUSH1 0x0 SHL PUSH2 0x2B2C JUMP JUMPDEST PUSH2 0x21D1 PUSH32 0xA3C63EF2C6D970EE391E725659543776B9B172CEA12BB1D3407F96000BF08092 PUSH1 0x0 SHL PUSH2 0x2B2C JUMP JUMPDEST PUSH2 0x21FD PUSH32 0x5B1531256F8E22CE8CB2D338E0AA7512F2D192C91151878940B2CDE31E19D14E PUSH1 0x0 SHL PUSH2 0x2B2C JUMP JUMPDEST PUSH2 0x2229 PUSH32 0x905397CD83C0A0C8E00EE1CDA927ACE007910BC92ABC3E3102583B275FEF7CE5 PUSH1 0x0 SHL PUSH2 0x2B2C JUMP JUMPDEST DUP1 PUSH1 0xC9 PUSH1 0x0 PUSH2 0x100 EXP DUP2 SLOAD DUP2 PUSH20 0xFFFFFFFFFFFFFFFFFFFFFFFFFFFFFFFFFFFFFFFF MUL NOT AND SWAP1 DUP4 PUSH20 0xFFFFFFFFFFFFFFFFFFFFFFFFFFFFFFFFFFFFFFFF AND MUL OR SWAP1 SSTORE POP POP JUMP JUMPDEST PUSH1 0xCC SLOAD DUP2 JUMP JUMPDEST PUSH1 0xCE PUSH1 0x20 MSTORE DUP1 PUSH1 0x0 MSTORE PUSH1 0x40 PUSH1 0x0 KECCAK256 PUSH1 0x0 SWAP2 POP SLOAD SWAP1 PUSH2 0x100 EXP SWAP1 DIV PUSH1 0xFF AND DUP2 JUMP JUMPDEST PUSH2 0x22BF PUSH32 0x127ED3CDC677C3B4DF3882A0324EE9814DAA9A4594D474EAD6861D701351C72D PUSH1 0x0 SHL PUSH2 0x2B2C JUMP JUMPDEST PUSH2 0x22EB PUSH32 0xFF62D83E44367C49B2C52660F37EE3C4671B3A81AE1D2C892920EF566FF0E3AE PUSH1 0x0 SHL PUSH2 0x2B2C JUMP JUMPDEST PUSH2 0x2317 PUSH32 0xADBCCD420BD42D67D7AF9D01C4CDE18692D5DC297D85010BEC7A5E7D9709EE5E PUSH1 0x0 SHL PUSH2 0x2B2C JUMP JUMPDEST PUSH2 0x2343 PUSH32 0x82FD32AD4F6F90946AC741C3881C887ACA20CD82A4FE5F2C46BD57F8E864719D PUSH1 0x0 SHL PUSH2 0x2B2C JUMP JUMPDEST PUSH1 0xD3 PUSH1 0x1 SWAP1 SLOAD SWAP1 PUSH2 0x100 EXP SWAP1 DIV PUSH1 0xFF AND ISZERO PUSH2 0x2393 JUMPI PUSH1 0x40 MLOAD PUSH32 0x8C379A000000000000000000000000000000000000000000000000000000000 DUP2 MSTORE PUSH1 0x4 ADD PUSH2 0x238A SWAP1 PUSH2 0x465B JUMP JUMPDEST PUSH1 0x40 MLOAD DUP1 SWAP2 SUB SWAP1 REVERT JUMPDEST PUSH2 0x23BF PUSH32 0xAA541832E7C45B1F9CDBE5E11CBA12DB426DFAAACE61ADAD4B3B7D0E6FEEC7BD PUSH1 0x0 SHL PUSH2 0x2B2C JUMP JUMPDEST PUSH2 0x23EB PUSH32 0x3CF9FA72D3CC65EB6F163983B402AD9ED5DACEABDE5E63D0443E7B91DD9FD198 PUSH1 0x0 SHL PUSH2 0x2B2C JUMP JUMPDEST PUSH2 0x2417 PUSH32 0xBC5E837481A62A503F356E17536AAA01DFB927083649DC13E0EF7A8C109AB0DC PUSH1 0x0 SHL PUSH2 0x2B2C JUMP JUMPDEST PUSH2 0x2443 PUSH32 0x1A0FB6D0EB0B2CA8ECAB5DD8EE2640CA654FA3B5E4BF96CCFA3BC887D2D7CC8D PUSH1 0x0 SHL PUSH2 0x2B2C JUMP JUMPDEST PUSH2 0x246F PUSH32 0x2400B544CFA17E229110AF76130E00BA3670111D0B816BDDBD49FF01CEBF9023 PUSH1 0x0 SHL PUSH2 0x2B2C JUMP JUMPDEST PUSH2 0x249B PUSH32 0x8290AF1050945CAA0784190B1BB8285E221DF0ACE2B47CB2887242956B4932EF PUSH1 0x0 SHL PUSH2 0x2B2C JUMP JUMPDEST PUSH1 0xD3 PUSH1 0x0 SWAP1 SLOAD SWAP1 PUSH2 0x100 EXP SWAP1 DIV PUSH1 0xFF AND PUSH2 0x24EA JUMPI PUSH1 0x40 MLOAD PUSH32 0x8C379A000000000000000000000000000000000000000000000000000000000 DUP2 MSTORE PUSH1 0x4 ADD PUSH2 0x24E1 SWAP1 PUSH2 0x46C7 JUMP JUMPDEST PUSH1 0x40 MLOAD DUP1 SWAP2 SUB SWAP1 REVERT JUMPDEST PUSH2 0x2516 PUSH32 0x9105DA7C679F65E4EB53AF1D078C4A53E6B92A94779EDAF83D18B8DBC8A98B5F PUSH1 0x0 SHL PUSH2 0x2B2C JUMP JUMPDEST PUSH2 0x2542 PUSH32 0xA4F8EBFA0BCF3C4B117D74552E050FE22086D78C0FDB2C01888B4B4D331127B2 PUSH1 0x0 SHL PUSH2 0x2B2C JUMP JUMPDEST PUSH2 0x256E PUSH32 0x5F3483E5530FC89C17F8385258C17B7B9F6FE9D8A0749B06B762E58F8959BDCA PUSH1 0x0 SHL PUSH2 0x2B2C JUMP JUMPDEST PUSH2 0x259A PUSH32 0xEEE8AD60C650688B85674C06BACE49F696FD8855D7B3960BEF134C418BCEC19E PUSH1 0x0 SHL PUSH2 0x2B2C JUMP JUMPDEST PUSH2 0x25C6 PUSH32 0xE589A0492B5EFB3D69C62106C4E489736A5492EEBC34447CE9987E0789ADF0F3 PUSH1 0x0 SHL PUSH2 0x2B2C JUMP JUMPDEST PUSH2 0x25F2 PUSH32 0x3E86F88C4EFD3C7866A80F63E83788E775779C1FA9AB59E1ADF7EB67C0F9DA0C PUSH1 0x0 SHL PUSH2 0x2B2C JUMP JUMPDEST PUSH2 0x2663 DUP3 DUP3 DUP1 DUP1 PUSH1 0x20 MUL PUSH1 0x20 ADD PUSH1 0x40 MLOAD SWAP1 DUP2 ADD PUSH1 0x40 MSTORE DUP1 SWAP4 SWAP3 SWAP2 SWAP1 DUP2 DUP2 MSTORE PUSH1 0x20 ADD DUP4 DUP4 PUSH1 0x20 MUL DUP1 DUP3 DUP5 CALLDATACOPY PUSH1 0x0 DUP2 DUP5 ADD MSTORE PUSH1 0x1F NOT PUSH1 0x1F DUP3 ADD AND SWAP1 POP DUP1 DUP4 ADD SWAP3 POP POP POP POP POP POP POP CALLER PUSH1 0x40 MLOAD PUSH1 0x20 ADD PUSH2 0x2648 SWAP2 SWAP1 PUSH2 0x472F JUMP JUMPDEST PUSH1 0x40 MLOAD PUSH1 0x20 DUP2 DUP4 SUB SUB DUP2 MSTORE SWAP1 PUSH1 0x40 MSTORE DUP1 MLOAD SWAP1 PUSH1 0x20 ADD KECCAK256 PUSH2 0x1F17 JUMP JUMPDEST PUSH2 0x26A2 JUMPI PUSH1 0x40 MLOAD PUSH32 0x8C379A000000000000000000000000000000000000000000000000000000000 DUP2 MSTORE PUSH1 0x4 ADD PUSH2 0x2699 SWAP1 PUSH2 0x47BC JUMP JUMPDEST PUSH1 0x40 MLOAD DUP1 SWAP2 SUB SWAP1 REVERT JUMPDEST PUSH2 0x26CE PUSH32 0x1D830ED6AB7D9F5A54AD467677B8108137D686E7931B1333E4BBD0C41D42C419 PUSH1 0x0 SHL PUSH2 0x2B2C JUMP JUMPDEST PUSH2 0x26FA PUSH32 0xE4DA5737DA703F921C09A16433E4C55B06A02BE029C9B6DED6E106FEDD91EA32 PUSH1 0x0 SHL PUSH2 0x2B2C JUMP JUMPDEST PUSH2 0x2726 PUSH32 0xCF2A3FBB94CEFA12BD738DD4217306AF8BBEDD85DB691383986C64C0DDFA588F PUSH1 0x0 SHL PUSH2 0x2B2C JUMP JUMPDEST PUSH2 0x2730 DUP4 CALLER PUSH2 0x31F2 JUMP JUMPDEST POP POP POP JUMP JUMPDEST PUSH1 0x0 DUP1 DUP3 PUSH20 0xFFFFFFFFFFFFFFFFFFFFFFFFFFFFFFFFFFFFFFFF AND EXTCODESIZE GT SWAP1 POP SWAP2 SWAP1 POP JUMP JUMPDEST PUSH1 0x0 PUSH2 0x2786 PUSH32 0x360894A13BA1A3210667C828492DB98DCA3E2076CC3735A920A3CA505D382BBC PUSH1 0x0 SHL PUSH2 0x36B1 JUMP JUMPDEST PUSH1 0x0 ADD PUSH1 0x0 SWAP1 SLOAD SWAP1 PUSH2 0x100 EXP SWAP1 DIV PUSH20 0xFFFFFFFFFFFFFFFFFFFFFFFFFFFFFFFFFFFFFFFF AND SWAP1 POP SWAP1 JUMP JUMPDEST PUSH2 0x27DB PUSH32 0xF10368458A1E8950F55708F9D928976985FD6A397515E608FBC35721F47BC111 PUSH1 0x0 SHL PUSH2 0x2B2C JUMP JUMPDEST PUSH2 0x2807 PUSH32 0xD7F1E7C923C834B0CD9F7AE6F2EC5DFDED676E8B0C9D801158B264F0D24A8D9A PUSH1 0x0 SHL PUSH2 0x2B2C JUMP JUMPDEST PUSH2 0x2833 PUSH32 0xA8376455167799A5F7783C9A2746FD868015CAADDED1496A6D3285313DD5824A PUSH1 0x0 SHL PUSH2 0x2B2C JUMP JUMPDEST PUSH2 0x285F PUSH32 0x3D99DECD8DC16D966E03CB906537C21473376B91051DDF053214E985EFFB432C PUSH1 0x0 SHL PUSH2 0x2B2C JUMP JUMPDEST PUSH1 0xC9 PUSH1 0x0 SWAP1 SLOAD SWAP1 PUSH2 0x100 EXP SWAP1 DIV PUSH20 0xFFFFFFFFFFFFFFFFFFFFFFFFFFFFFFFFFFFFFFFF AND PUSH20 0xFFFFFFFFFFFFFFFFFFFFFFFFFFFFFFFFFFFFFFFF AND CALLER PUSH20 0xFFFFFFFFFFFFFFFFFFFFFFFFFFFFFFFFFFFFFFFF AND EQ PUSH2 0x28EF JUMPI PUSH1 0x40 MLOAD PUSH32 0x8C379A000000000000000000000000000000000000000000000000000000000 DUP2 MSTORE PUSH1 0x4 ADD PUSH2 0x28E6 SWAP1 PUSH2 0x438D JUMP JUMPDEST PUSH1 0x40 MLOAD DUP1 SWAP2 SUB SWAP1 REVERT JUMPDEST PUSH2 0x291B PUSH32 0x9AC8D3A927F4E73E1D754D8AB32F5E300854DA6298B98A2F43560D168359746E PUSH1 0x0 SHL PUSH2 0x2B2C JUMP JUMPDEST PUSH2 0x2947 PUSH32 0x3270B14E1B2239186B3C058EC7DBC5CE62F3ADC9F41B6BA75756943BDF2656C4 PUSH1 0x0 SHL PUSH2 0x2B2C JUMP JUMPDEST PUSH2 0x294F PUSH2 0x15F8 JUMP JUMPDEST ISZERO PUSH2 0x298F JUMPI PUSH1 0x40 MLOAD PUSH32 0x8C379A000000000000000000000000000000000000000000000000000000000 DUP2 MSTORE PUSH1 0x4 ADD PUSH2 0x2986 SWAP1 PUSH2 0x4269 JUMP JUMPDEST PUSH1 0x40 MLOAD DUP1 SWAP2 SUB SWAP1 REVERT JUMPDEST PUSH2 0x29BB PUSH32 0xE0D3A8A961F2A7A18994AB8DFE35D1DF998F28B79BCDE1A79AAE5C48EE710110 PUSH1 0x0 SHL PUSH2 0x2B2C JUMP JUMPDEST POP JUMP JUMPDEST PUSH2 0x29EA PUSH32 0x4910FDFA16FED3260ED0E7147F7CC6DA11A60208B5B9406D12A635614FFD9143 PUSH1 0x0 SHL PUSH2 0x36BB JUMP JUMPDEST PUSH1 0x0 ADD PUSH1 0x0 SWAP1 SLOAD SWAP1 PUSH2 0x100 EXP SWAP1 DIV PUSH1 0xFF AND ISZERO PUSH2 0x2A0E JUMPI PUSH2 0x2A09 DUP4 PUSH2 0x36C5 JUMP JUMPDEST PUSH2 0x2B27 JUMP JUMPDEST DUP3 PUSH20 0xFFFFFFFFFFFFFFFFFFFFFFFFFFFFFFFFFFFFFFFF AND PUSH4 0x52D1902D PUSH1 0x40 MLOAD DUP2 PUSH4 0xFFFFFFFF AND PUSH1 0xE0 SHL DUP2 MSTORE PUSH1 0x4 ADD PUSH1 0x20 PUSH1 0x40 MLOAD DUP1 DUP4 SUB DUP2 DUP7 GAS STATICCALL SWAP3 POP POP POP DUP1 ISZERO PUSH2 0x2A76 JUMPI POP PUSH1 0x40 MLOAD RETURNDATASIZE PUSH1 0x1F NOT PUSH1 0x1F DUP3 ADD AND DUP3 ADD DUP1 PUSH1 0x40 MSTORE POP DUP2 ADD SWAP1 PUSH2 0x2A73 SWAP2 SWAP1 PUSH2 0x47F1 JUMP JUMPDEST PUSH1 0x1 JUMPDEST PUSH2 0x2AB5 JUMPI PUSH1 0x40 MLOAD PUSH32 0x8C379A000000000000000000000000000000000000000000000000000000000 DUP2 MSTORE PUSH1 0x4 ADD PUSH2 0x2AAC SWAP1 PUSH2 0x4890 JUMP JUMPDEST PUSH1 0x40 MLOAD DUP1 SWAP2 SUB SWAP1 REVERT JUMPDEST PUSH32 0x360894A13BA1A3210667C828492DB98DCA3E2076CC3735A920A3CA505D382BBC PUSH1 0x0 SHL DUP2 EQ PUSH2 0x2B1A JUMPI PUSH1 0x40 MLOAD PUSH32 0x8C379A000000000000000000000000000000000000000000000000000000000 DUP2 MSTORE PUSH1 0x4 ADD PUSH2 0x2B11 SWAP1 PUSH2 0x4922 JUMP JUMPDEST PUSH1 0x40 MLOAD DUP1 SWAP2 SUB SWAP1 REVERT JUMPDEST POP PUSH2 0x2B26 DUP4 DUP4 DUP4 PUSH2 0x377E JUMP JUMPDEST JUMPDEST POP POP POP JUMP JUMPDEST POP JUMP JUMPDEST PUSH2 0x2B37 PUSH2 0x15F8 JUMP JUMPDEST PUSH2 0x2B76 JUMPI PUSH1 0x40 MLOAD PUSH32 0x8C379A000000000000000000000000000000000000000000000000000000000 DUP2 MSTORE PUSH1 0x4 ADD PUSH2 0x2B6D SWAP1 PUSH2 0x498E JUMP JUMPDEST PUSH1 0x40 MLOAD DUP1 SWAP2 SUB SWAP1 REVERT JUMPDEST PUSH1 0x0 PUSH1 0x33 PUSH1 0x0 PUSH2 0x100 EXP DUP2 SLOAD DUP2 PUSH1 0xFF MUL NOT AND SWAP1 DUP4 ISZERO ISZERO MUL OR SWAP1 SSTORE POP PUSH32 0x5DB9EE0A495BF2E6FF9C91A7834C1BA4FDD244A5E8AA4E537BD38AEAE4B073AA PUSH2 0x2BBA PUSH2 0x37AA JUMP JUMPDEST PUSH1 0x40 MLOAD PUSH2 0x2BC7 SWAP2 SWAP1 PUSH2 0x3E45 JUMP JUMPDEST PUSH1 0x40 MLOAD DUP1 SWAP2 SUB SWAP1 LOG1 JUMP JUMPDEST PUSH1 0x0 PUSH1 0x60 PUSH2 0x2BDD PUSH2 0x15F8 JUMP JUMPDEST ISZERO PUSH2 0x2C1D JUMPI PUSH1 0x40 MLOAD PUSH32 0x8C379A000000000000000000000000000000000000000000000000000000000 DUP2 MSTORE PUSH1 0x4 ADD PUSH2 0x2C14 SWAP1 PUSH2 0x4269 JUMP JUMPDEST PUSH1 0x40 MLOAD DUP1 SWAP2 SUB SWAP1 REVERT JUMPDEST PUSH2 0x2C49 PUSH32 0x85099047F48D4F172EA26128C5AD3BACB7C038D1BDCC4A4DA06973EDB42E31A0 PUSH1 0x0 SHL PUSH2 0x2B2C JUMP JUMPDEST PUSH2 0x2C75 PUSH32 0xBDC313912BE04859411B4DAA50C3BE9B4AB6CC059511441EDBD0C2A852A20998 PUSH1 0x0 SHL PUSH2 0x2B2C JUMP JUMPDEST PUSH2 0x2CA1 PUSH32 0x4A6DBB52F1D19F49F1521498189D17E67B23D4A5E656D8AD33F5D108D0D0B5DC PUSH1 0x0 SHL PUSH2 0x2B2C JUMP JUMPDEST PUSH1 0x0 JUMPDEST PUSH1 0xCD SLOAD DUP2 LT ISZERO PUSH2 0x301E JUMPI PUSH2 0x2CDA PUSH32 0xD8F11A683391E8EF9AACF21D1E8099E1DA819896A80A34CCB5905C0A4372FB3C PUSH1 0x0 SHL PUSH2 0x2B2C JUMP JUMPDEST PUSH2 0x2D06 PUSH32 0xD926A409DFA6BE33C9D7857B8AB42C29AFE397106D83743A75F2EFE639FF5F8A PUSH1 0x0 SHL PUSH2 0x2B2C JUMP JUMPDEST PUSH1 0xD2 SLOAD PUSH1 0xD0 PUSH1 0x0 DUP4 DUP2 MSTORE PUSH1 0x20 ADD SWAP1 DUP2 MSTORE PUSH1 0x20 ADD PUSH1 0x0 KECCAK256 PUSH1 0x2 ADD SLOAD GT ISZERO PUSH2 0x2E9D JUMPI PUSH2 0x2D52 PUSH32 0x1DBE1F6F3814D6E9D4B0EBAD11BE147EFAA5893065B90E1BB04F3A24B25B1E8 PUSH1 0x0 SHL PUSH2 0x2B2C JUMP JUMPDEST PUSH2 0x2D7E PUSH32 0xBA6157D61E9B30815382D7948370B0966B0CC4967FC9DEED9D3635B87FECD52F PUSH1 0x0 SHL PUSH2 0x2B2C JUMP JUMPDEST PUSH2 0x2DAA PUSH32 0xEAB754ABFB2F39F44972655F49AC7D406C54C2B073ADEA87B2005D6ED6B8D493 PUSH1 0x0 SHL PUSH2 0x2B2C JUMP JUMPDEST PUSH1 0xD0 PUSH1 0x0 DUP3 DUP2 MSTORE PUSH1 0x20 ADD SWAP1 DUP2 MSTORE PUSH1 0x20 ADD PUSH1 0x0 KECCAK256 PUSH1 0x2 ADD SLOAD PUSH1 0xD2 DUP2 SWAP1 SSTORE POP PUSH2 0x2DF3 PUSH32 0xF0DEC143076CF2A25AE8F6440799B3E1275EA4EF27E2B86DF0E72346324524A PUSH1 0x0 SHL PUSH2 0x2B2C JUMP JUMPDEST PUSH1 0xD1 PUSH1 0x0 PUSH2 0x2E01 SWAP2 SWAP1 PUSH2 0x39D8 JUMP JUMPDEST PUSH2 0x2E2D PUSH32 0x99795938260BE343F6B98336250FFC513D0ECDCD5BA5287E7D452A259281B26A PUSH1 0x0 SHL PUSH2 0x2B2C JUMP JUMPDEST PUSH2 0x2E59 PUSH32 0x52ABA296B1A285AAB90EEF2FE69F0451778E98C9C581F34B245383B39569AC74 PUSH1 0x0 SHL PUSH2 0x2B2C JUMP JUMPDEST PUSH1 0xD1 PUSH1 0xD0 PUSH1 0x0 DUP4 DUP2 MSTORE PUSH1 0x20 ADD SWAP1 DUP2 MSTORE PUSH1 0x20 ADD PUSH1 0x0 KECCAK256 PUSH1 0x0 ADD SLOAD SWAP1 DUP1 PUSH1 0x1 DUP2 SLOAD ADD DUP1 DUP3 SSTORE DUP1 SWAP2 POP POP PUSH1 0x1 SWAP1 SUB SWAP1 PUSH1 0x0 MSTORE PUSH1 0x20 PUSH1 0x0 KECCAK256 ADD PUSH1 0x0 SWAP1 SWAP2 SWAP1 SWAP2 SWAP1 SWAP2 POP SSTORE PUSH2 0x300B JUMP JUMPDEST PUSH2 0x2EC9 PUSH32 0x4570D64E780B4EA8BBB8E1EA79E858B76C20D9E9127CD9E72BCEF9E52239DD5C PUSH1 0x0 SHL PUSH2 0x2B2C JUMP JUMPDEST PUSH2 0x2EF5 PUSH32 0x30E3056520E963C3F5C3B9718CA2FF788E709BA541C65A95CDBA4CBDC320746A PUSH1 0x0 SHL PUSH2 0x2B2C JUMP JUMPDEST PUSH1 0xD2 SLOAD PUSH1 0xD0 PUSH1 0x0 DUP4 DUP2 MSTORE PUSH1 0x20 ADD SWAP1 DUP2 MSTORE PUSH1 0x20 ADD PUSH1 0x0 KECCAK256 PUSH1 0x2 ADD SLOAD EQ ISZERO PUSH2 0x2FDD JUMPI PUSH2 0x2F41 PUSH32 0xF9EADDFBAA1537DA6BFAB2D79592A29626D651C934FCD102423E672A6249A7D8 PUSH1 0x0 SHL PUSH2 0x2B2C JUMP JUMPDEST PUSH2 0x2F6D PUSH32 0xCED0160ED6DC24B2A6249C3BD27D8603F06350FAA8AE4F285C79BC9834189C16 PUSH1 0x0 SHL PUSH2 0x2B2C JUMP JUMPDEST PUSH2 0x2F99 PUSH32 0x3A2FB4CA7655D1CAB0ED5945F1D042F53F1F84D2E2372D720C42DC9DF22AE1FC PUSH1 0x0 SHL PUSH2 0x2B2C JUMP JUMPDEST PUSH1 0xD1 PUSH1 0xD0 PUSH1 0x0 DUP4 DUP2 MSTORE PUSH1 0x20 ADD SWAP1 DUP2 MSTORE PUSH1 0x20 ADD PUSH1 0x0 KECCAK256 PUSH1 0x0 ADD SLOAD SWAP1 DUP1 PUSH1 0x1 DUP2 SLOAD ADD DUP1 DUP3 SSTORE DUP1 SWAP2 POP POP PUSH1 0x1 SWAP1 SUB SWAP1 PUSH1 0x0 MSTORE PUSH1 0x20 PUSH1 0x0 KECCAK256 ADD PUSH1 0x0 SWAP1 SWAP2 SWAP1 SWAP2 SWAP1 SWAP2 POP SSTORE PUSH2 0x300A JUMP JUMPDEST PUSH2 0x3009 PUSH32 0xEF0CED56307A31CD3605705C54430A5EF4483EFEC947E7F8760115DCCC8371C7 PUSH1 0x0 SHL PUSH2 0x2B2C JUMP JUMPDEST JUMPDEST JUMPDEST DUP1 DUP1 PUSH2 0x3016 SWAP1 PUSH2 0x49DD JUMP JUMPDEST SWAP2 POP POP PUSH2 0x2CA4 JUMP JUMPDEST POP PUSH2 0x304B PUSH32 0xEAE8E141B4DC5EE1EC3FA9440F45A95BE52D6EEDBB86206228965BFBB16C6EDE PUSH1 0x0 SHL PUSH2 0x2B2C JUMP JUMPDEST PUSH2 0x3077 PUSH32 0xA2210F6DE7F686D7D5BA9944F7B94CCC03A216161BDCE2B50697410C562B41AA PUSH1 0x0 SHL PUSH2 0x2B2C JUMP JUMPDEST PUSH1 0xD2 SLOAD PUSH1 0xD1 DUP1 DUP1 SLOAD DUP1 PUSH1 0x20 MUL PUSH1 0x20 ADD PUSH1 0x40 MLOAD SWAP1 DUP2 ADD PUSH1 0x40 MSTORE DUP1 SWAP3 SWAP2 SWAP1 DUP2 DUP2 MSTORE PUSH1 0x20 ADD DUP3 DUP1 SLOAD DUP1 ISZERO PUSH2 0x30C7 JUMPI PUSH1 0x20 MUL DUP3 ADD SWAP2 SWAP1 PUSH1 0x0 MSTORE PUSH1 0x20 PUSH1 0x0 KECCAK256 SWAP1 JUMPDEST DUP2 SLOAD DUP2 MSTORE PUSH1 0x20 ADD SWAP1 PUSH1 0x1 ADD SWAP1 DUP1 DUP4 GT PUSH2 0x30B3 JUMPI JUMPDEST POP POP POP POP POP SWAP1 POP SWAP2 POP SWAP2 POP SWAP1 SWAP2 JUMP JUMPDEST PUSH2 0x30DE PUSH2 0x15F8 JUMP JUMPDEST ISZERO PUSH2 0x311E JUMPI PUSH1 0x40 MLOAD PUSH32 0x8C379A000000000000000000000000000000000000000000000000000000000 DUP2 MSTORE PUSH1 0x4 ADD PUSH2 0x3115 SWAP1 PUSH2 0x4269 JUMP JUMPDEST PUSH1 0x40 MLOAD DUP1 SWAP2 SUB SWAP1 REVERT JUMPDEST PUSH1 0x1 PUSH1 0x33 PUSH1 0x0 PUSH2 0x100 EXP DUP2 SLOAD DUP2 PUSH1 0xFF MUL NOT AND SWAP1 DUP4 ISZERO ISZERO MUL OR SWAP1 SSTORE POP PUSH32 0x62E78CEA01BEE320CD4E420270B5EA74000D11B0C9F74754EBDBFC544B05A258 PUSH2 0x3162 PUSH2 0x37AA JUMP JUMPDEST PUSH1 0x40 MLOAD PUSH2 0x316F SWAP2 SWAP1 PUSH2 0x3E45 JUMP JUMPDEST PUSH1 0x40 MLOAD DUP1 SWAP2 SUB SWAP1 LOG1 JUMP JUMPDEST PUSH1 0x0 PUSH2 0x3184 ADDRESS PUSH2 0x2735 JUMP JUMPDEST ISZERO SWAP1 POP SWAP1 JUMP JUMPDEST PUSH1 0x0 PUSH1 0x1 SWAP1 SLOAD SWAP1 PUSH2 0x100 EXP SWAP1 DIV PUSH1 0xFF AND PUSH2 0x31D9 JUMPI PUSH1 0x40 MLOAD PUSH32 0x8C379A000000000000000000000000000000000000000000000000000000000 DUP2 MSTORE PUSH1 0x4 ADD PUSH2 0x31D0 SWAP1 PUSH2 0x4A98 JUMP JUMPDEST PUSH1 0x40 MLOAD DUP1 SWAP2 SUB SWAP1 REVERT JUMPDEST JUMP JUMPDEST PUSH1 0x0 DUP3 PUSH2 0x31E8 DUP6 DUP5 PUSH2 0x37B2 JUMP JUMPDEST EQ SWAP1 POP SWAP4 SWAP3 POP POP POP JUMP JUMPDEST PUSH2 0x31FA PUSH2 0x15F8 JUMP JUMPDEST ISZERO PUSH2 0x323A JUMPI PUSH1 0x40 MLOAD PUSH32 0x8C379A000000000000000000000000000000000000000000000000000000000 DUP2 MSTORE PUSH1 0x4 ADD PUSH2 0x3231 SWAP1 PUSH2 0x4269 JUMP JUMPDEST PUSH1 0x40 MLOAD DUP1 SWAP2 SUB SWAP1 REVERT JUMPDEST DUP2 PUSH2 0x3267 PUSH32 0x5BAA34F426A5FD854AC12C565C454F0E035337ED797FB65C8FB0F3CE6AD3DD10 PUSH1 0x0 SHL PUSH2 0x2B2C JUMP JUMPDEST PUSH2 0x3293 PUSH32 0x729A02E7EA63B14B17257A38E48BF5FB2306E6E6621B1F9AB95EB759DC671C39 PUSH1 0x0 SHL PUSH2 0x2B2C JUMP JUMPDEST PUSH2 0x32BF PUSH32 0x557C7F34D0C37C90D6309150A53BF4C53149E61CE0BB3745CCC153256F49816E PUSH1 0x0 SHL PUSH2 0x2B2C JUMP JUMPDEST PUSH2 0x32EB PUSH32 0xE5DF44EBAE7E990BA0B6516E80F2AA0E040A792D68447286FAFFC5ED917BFA83 PUSH1 0x0 SHL PUSH2 0x2B2C JUMP JUMPDEST PUSH1 0xCD SLOAD DUP2 LT DUP1 ISZERO PUSH2 0x32FD JUMPI POP PUSH1 0x0 DUP2 LT ISZERO JUMPDEST PUSH2 0x333C JUMPI PUSH1 0x40 MLOAD PUSH32 0x8C379A000000000000000000000000000000000000000000000000000000000 DUP2 MSTORE PUSH1 0x4 ADD PUSH2 0x3333 SWAP1 PUSH2 0x4B04 JUMP JUMPDEST PUSH1 0x40 MLOAD DUP1 SWAP2 SUB SWAP1 REVERT JUMPDEST PUSH2 0x3368 PUSH32 0x4414778BBD28A836711F117E56EA632A9642B313567A0FF15732FAC39543323 PUSH1 0x0 SHL PUSH2 0x2B2C JUMP JUMPDEST PUSH2 0x3394 PUSH32 0x37147B97543546B5E9A32B0214D5E37212C75CAA0931495C465D59AC04BD2B07 PUSH1 0x0 SHL PUSH2 0x2B2C JUMP JUMPDEST PUSH2 0x33C0 PUSH32 0x31968501416019C5B26D222909D8A7802849F3AA8C787D56CFA0AE4EE85CCA8D PUSH1 0x0 SHL PUSH2 0x2B2C JUMP JUMPDEST PUSH2 0x33EC PUSH32 0xB1B7B6FB493B998DA88C06C370B77CFC1F647DCB1C8BABA832BA8BC53E89453B PUSH1 0x0 SHL PUSH2 0x2B2C JUMP JUMPDEST PUSH2 0x3418 PUSH32 0xD73BF06C14EC09D5FABFC335B622383807409F0ABD5E132C2CFFAB9DE0477F2D PUSH1 0x0 SHL PUSH2 0x2B2C JUMP JUMPDEST PUSH2 0x3444 PUSH32 0x5906960EE68A3E0166CEBBAA0047C9D1C311D754684131AACB69915DD4269560 PUSH1 0x0 SHL PUSH2 0x2B2C JUMP JUMPDEST PUSH1 0xCF PUSH1 0x0 DUP4 PUSH20 0xFFFFFFFFFFFFFFFFFFFFFFFFFFFFFFFFFFFFFFFF AND PUSH20 0xFFFFFFFFFFFFFFFFFFFFFFFFFFFFFFFFFFFFFFFF AND DUP2 MSTORE PUSH1 0x20 ADD SWAP1 DUP2 MSTORE PUSH1 0x20 ADD PUSH1 0x0 KECCAK256 PUSH1 0x0 SWAP1 SLOAD SWAP1 PUSH2 0x100 EXP SWAP1 DIV PUSH1 0xFF AND ISZERO PUSH2 0x34D1 JUMPI PUSH1 0x40 MLOAD PUSH32 0x8C379A000000000000000000000000000000000000000000000000000000000 DUP2 MSTORE PUSH1 0x4 ADD PUSH2 0x34C8 SWAP1 PUSH2 0x4B70 JUMP JUMPDEST PUSH1 0x40 MLOAD DUP1 SWAP2 SUB SWAP1 REVERT JUMPDEST PUSH2 0x34FD PUSH32 0xD988C72D90B9BA41322A652DF8AF204A52F491DF9C4C83DA1DAB3B07422D6622 PUSH1 0x0 SHL PUSH2 0x2B2C JUMP JUMPDEST PUSH2 0x3529 PUSH32 0x7909C796FECFAFA9449736B1930EFDDC3D54278E3237CD955C5DF949F6FC3497 PUSH1 0x0 SHL PUSH2 0x2B2C JUMP JUMPDEST PUSH2 0x3555 PUSH32 0x509FE1E5E99DC4BB822904E8A3BA520C697B5B577A3996B613BBA21E9086DEC PUSH1 0x0 SHL PUSH2 0x2B2C JUMP JUMPDEST PUSH1 0x1 PUSH1 0xCF PUSH1 0x0 DUP5 PUSH20 0xFFFFFFFFFFFFFFFFFFFFFFFFFFFFFFFFFFFFFFFF AND PUSH20 0xFFFFFFFFFFFFFFFFFFFFFFFFFFFFFFFFFFFFFFFF AND DUP2 MSTORE PUSH1 0x20 ADD SWAP1 DUP2 MSTORE PUSH1 0x20 ADD PUSH1 0x0 KECCAK256 PUSH1 0x0 PUSH2 0x100 EXP DUP2 SLOAD DUP2 PUSH1 0xFF MUL NOT AND SWAP1 DUP4 ISZERO ISZERO MUL OR SWAP1 SSTORE POP PUSH2 0x35D9 PUSH32 0xD94888D3EAC30E7F71353ED0A8B5ED617DAED4DB88671ECC856A6AC4E2243736 PUSH1 0x0 SHL PUSH2 0x2B2C JUMP JUMPDEST PUSH1 0xD0 PUSH1 0x0 DUP5 DUP2 MSTORE PUSH1 0x20 ADD SWAP1 DUP2 MSTORE PUSH1 0x20 ADD PUSH1 0x0 KECCAK256 PUSH1 0x2 ADD PUSH1 0x0 DUP2 SLOAD DUP1 SWAP3 SWAP2 SWAP1 PUSH2 0x3600 SWAP1 PUSH2 0x49DD JUMP JUMPDEST SWAP2 SWAP1 POP SSTORE POP PUSH2 0x3631 PUSH32 0x685D0E0940FD8C835E83374FF61D4860975E1347889196BA1810F215BA24787A PUSH1 0x0 SHL PUSH2 0x2B2C JUMP JUMPDEST PUSH2 0x365D PUSH32 0x539CD77F75F8C4CDB8C091587E43BF9D68186B77E32DAC34808D3848DFDCDD24 PUSH1 0x0 SHL PUSH2 0x2B2C JUMP JUMPDEST PUSH32 0xD3EBD88818D034D26C5D98BCEF9C7C45207130238E76E8CF0B3BA00E906851BF DUP4 PUSH1 0xD0 PUSH1 0x0 DUP7 DUP2 MSTORE PUSH1 0x20 ADD SWAP1 DUP2 MSTORE PUSH1 0x20 ADD PUSH1 0x0 KECCAK256 PUSH1 0x2 ADD SLOAD PUSH1 0x40 MLOAD PUSH2 0x36A4 SWAP3 SWAP2 SWAP1 PUSH2 0x4B90 JUMP JUMPDEST PUSH1 0x40 MLOAD DUP1 SWAP2 SUB SWAP1 LOG1 POP POP POP JUMP JUMPDEST PUSH1 0x0 DUP2 SWAP1 POP SWAP2 SWAP1 POP JUMP JUMPDEST PUSH1 0x0 DUP2 SWAP1 POP SWAP2 SWAP1 POP JUMP JUMPDEST PUSH2 0x36CE DUP2 PUSH2 0x2735 JUMP JUMPDEST PUSH2 0x370D JUMPI PUSH1 0x40 MLOAD PUSH32 0x8C379A000000000000000000000000000000000000000000000000000000000 DUP2 MSTORE PUSH1 0x4 ADD PUSH2 0x3704 SWAP1 PUSH2 0x4C2B JUMP JUMPDEST PUSH1 0x40 MLOAD DUP1 SWAP2 SUB SWAP1 REVERT JUMPDEST DUP1 PUSH2 0x373A PUSH32 0x360894A13BA1A3210667C828492DB98DCA3E2076CC3735A920A3CA505D382BBC PUSH1 0x0 SHL PUSH2 0x36B1 JUMP JUMPDEST PUSH1 0x0 ADD PUSH1 0x0 PUSH2 0x100 EXP DUP2 SLOAD DUP2 PUSH20 0xFFFFFFFFFFFFFFFFFFFFFFFFFFFFFFFFFFFFFFFF MUL NOT AND SWAP1 DUP4 PUSH20 0xFFFFFFFFFFFFFFFFFFFFFFFFFFFFFFFFFFFFFFFF AND MUL OR SWAP1 SSTORE POP POP JUMP JUMPDEST PUSH2 0x3787 DUP4 PUSH2 0x3827 JUMP JUMPDEST PUSH1 0x0 DUP3 MLOAD GT DUP1 PUSH2 0x3794 JUMPI POP DUP1 JUMPDEST ISZERO PUSH2 0x37A5 JUMPI PUSH2 0x37A3 DUP4 DUP4 PUSH2 0x3876 JUMP JUMPDEST POP JUMPDEST POP POP POP JUMP JUMPDEST PUSH1 0x0 CALLER SWAP1 POP SWAP1 JUMP JUMPDEST PUSH1 0x0 DUP1 DUP3 SWAP1 POP PUSH1 0x0 JUMPDEST DUP5 MLOAD DUP2 LT ISZERO PUSH2 0x381C JUMPI PUSH1 0x0 DUP6 DUP3 DUP2 MLOAD DUP2 LT PUSH2 0x37D9 JUMPI PUSH2 0x37D8 PUSH2 0x4C4B JUMP JUMPDEST JUMPDEST PUSH1 0x20 MUL PUSH1 0x20 ADD ADD MLOAD SWAP1 POP DUP1 DUP4 GT PUSH2 0x37FB JUMPI PUSH2 0x37F4 DUP4 DUP3 PUSH2 0x395A JUMP JUMPDEST SWAP3 POP PUSH2 0x3808 JUMP JUMPDEST PUSH2 0x3805 DUP2 DUP5 PUSH2 0x395A JUMP JUMPDEST SWAP3 POP JUMPDEST POP DUP1 DUP1 PUSH2 0x3814 SWAP1 PUSH2 0x49DD JUMP JUMPDEST SWAP2 POP POP PUSH2 0x37BB JUMP JUMPDEST POP DUP1 SWAP2 POP POP SWAP3 SWAP2 POP POP JUMP JUMPDEST PUSH2 0x3830 DUP2 PUSH2 0x36C5 JUMP JUMPDEST DUP1 PUSH20 0xFFFFFFFFFFFFFFFFFFFFFFFFFFFFFFFFFFFFFFFF AND PUSH32 0xBC7CD75A20EE27FD9ADEBAB32041F755214DBC6BFFA90CC0225B39DA2E5C2D3B PUSH1 0x40 MLOAD PUSH1 0x40 MLOAD DUP1 SWAP2 SUB SWAP1 LOG2 POP JUMP JUMPDEST PUSH1 0x60 PUSH2 0x3881 DUP4 PUSH2 0x2735 JUMP JUMPDEST PUSH2 0x38C0 JUMPI PUSH1 0x40 MLOAD PUSH32 0x8C379A000000000000000000000000000000000000000000000000000000000 DUP2 MSTORE PUSH1 0x4 ADD PUSH2 0x38B7 SWAP1 PUSH2 0x4CEC JUMP JUMPDEST PUSH1 0x40 MLOAD DUP1 SWAP2 SUB SWAP1 REVERT JUMPDEST PUSH1 0x0 DUP1 DUP5 PUSH20 0xFFFFFFFFFFFFFFFFFFFFFFFFFFFFFFFFFFFFFFFF AND DUP5 PUSH1 0x40 MLOAD PUSH2 0x38E8 SWAP2 SWAP1 PUSH2 0x4D53 JUMP JUMPDEST PUSH1 0x0 PUSH1 0x40 MLOAD DUP1 DUP4 SUB DUP2 DUP6 GAS DELEGATECALL SWAP2 POP POP RETURNDATASIZE DUP1 PUSH1 0x0 DUP2 EQ PUSH2 0x3923 JUMPI PUSH1 0x40 MLOAD SWAP2 POP PUSH1 0x1F NOT PUSH1 0x3F RETURNDATASIZE ADD AND DUP3 ADD PUSH1 0x40 MSTORE RETURNDATASIZE DUP3 MSTORE RETURNDATASIZE PUSH1 0x0 PUSH1 0x20 DUP5 ADD RETURNDATACOPY PUSH2 0x3928 JUMP JUMPDEST PUSH1 0x60 SWAP2 POP JUMPDEST POP SWAP2 POP SWAP2 POP PUSH2 0x3950 DUP3 DUP3 PUSH1 0x40 MLOAD DUP1 PUSH1 0x60 ADD PUSH1 0x40 MSTORE DUP1 PUSH1 0x27 DUP2 MSTORE PUSH1 0x20 ADD PUSH2 0x4D6B PUSH1 0x27 SWAP2 CODECOPY PUSH2 0x3971 JUMP JUMPDEST SWAP3 POP POP POP SWAP3 SWAP2 POP POP JUMP JUMPDEST PUSH1 0x0 DUP3 PUSH1 0x0 MSTORE DUP2 PUSH1 0x20 MSTORE PUSH1 0x40 PUSH1 0x0 KECCAK256 SWAP1 POP SWAP3 SWAP2 POP POP JUMP JUMPDEST PUSH1 0x60 DUP4 ISZERO PUSH2 0x3981 JUMPI DUP3 SWAP1 POP PUSH2 0x39D1 JUMP JUMPDEST PUSH1 0x0 DUP4 MLOAD GT ISZERO PUSH2 0x3994 JUMPI DUP3 MLOAD DUP1 DUP5 PUSH1 0x20 ADD REVERT JUMPDEST DUP2 PUSH1 0x40 MLOAD PUSH32 0x8C379A000000000000000000000000000000000000000000000000000000000 DUP2 MSTORE PUSH1 0x4 ADD PUSH2 0x39C8 SWAP2 SWAP1 PUSH2 0x3AAF JUMP JUMPDEST PUSH1 0x40 MLOAD DUP1 SWAP2 SUB SWAP1 REVERT JUMPDEST SWAP4 SWAP3 POP POP POP JUMP JUMPDEST POP DUP1 SLOAD PUSH1 0x0 DUP3 SSTORE SWAP1 PUSH1 0x0 MSTORE PUSH1 0x20 PUSH1 0x0 KECCAK256 SWAP1 DUP2 ADD SWAP1 PUSH2 0x39F6 SWAP2 SWAP1 PUSH2 0x39F9 JUMP JUMPDEST POP JUMP JUMPDEST JUMPDEST DUP1 DUP3 GT ISZERO PUSH2 0x3A12 JUMPI PUSH1 0x0 DUP2 PUSH1 0x0 SWAP1 SSTORE POP PUSH1 0x1 ADD PUSH2 0x39FA JUMP JUMPDEST POP SWAP1 JUMP JUMPDEST PUSH1 0x0 DUP2 MLOAD SWAP1 POP SWAP2 SWAP1 POP JUMP JUMPDEST PUSH1 0x0 DUP3 DUP3 MSTORE PUSH1 0x20 DUP3 ADD SWAP1 POP SWAP3 SWAP2 POP POP JUMP JUMPDEST PUSH1 0x0 JUMPDEST DUP4 DUP2 LT ISZERO PUSH2 0x3A50 JUMPI DUP1 DUP3 ADD MLOAD DUP2 DUP5 ADD MSTORE PUSH1 0x20 DUP2 ADD SWAP1 POP PUSH2 0x3A35 JUMP JUMPDEST DUP4 DUP2 GT ISZERO PUSH2 0x3A5F JUMPI PUSH1 0x0 DUP5 DUP5 ADD MSTORE JUMPDEST POP POP POP POP JUMP JUMPDEST PUSH1 0x0 PUSH1 0x1F NOT PUSH1 0x1F DUP4 ADD AND SWAP1 POP SWAP2 SWAP1 POP JUMP JUMPDEST PUSH1 0x0 PUSH2 0x3A81 DUP3 PUSH2 0x3A16 JUMP JUMPDEST PUSH2 0x3A8B DUP2 DUP6 PUSH2 0x3A21 JUMP JUMPDEST SWAP4 POP PUSH2 0x3A9B DUP2 DUP6 PUSH1 0x20 DUP7 ADD PUSH2 0x3A32 JUMP JUMPDEST PUSH2 0x3AA4 DUP2 PUSH2 0x3A65 JUMP JUMPDEST DUP5 ADD SWAP2 POP POP SWAP3 SWAP2 POP POP JUMP JUMPDEST PUSH1 0x0 PUSH1 0x20 DUP3 ADD SWAP1 POP DUP2 DUP2 SUB PUSH1 0x0 DUP4 ADD MSTORE PUSH2 0x3AC9 DUP2 DUP5 PUSH2 0x3A76 JUMP JUMPDEST SWAP1 POP SWAP3 SWAP2 POP POP JUMP JUMPDEST PUSH1 0x0 DUP2 SWAP1 POP SWAP2 SWAP1 POP JUMP JUMPDEST PUSH2 0x3AE4 DUP2 PUSH2 0x3AD1 JUMP JUMPDEST DUP3 MSTORE POP POP JUMP JUMPDEST PUSH1 0x0 PUSH1 0x20 DUP3 ADD SWAP1 POP PUSH2 0x3AFF PUSH1 0x0 DUP4 ADD DUP5 PUSH2 0x3ADB JUMP JUMPDEST SWAP3 SWAP2 POP POP JUMP JUMPDEST PUSH1 0x0 PUSH1 0x40 MLOAD SWAP1 POP SWAP1 JUMP JUMPDEST PUSH1 0x0 DUP1 REVERT JUMPDEST PUSH1 0x0 DUP1 REVERT JUMPDEST PUSH2 0x3B22 DUP2 PUSH2 0x3AD1 JUMP JUMPDEST DUP2 EQ PUSH2 0x3B2D JUMPI PUSH1 0x0 DUP1 REVERT JUMPDEST POP JUMP JUMPDEST PUSH1 0x0 DUP2 CALLDATALOAD SWAP1 POP PUSH2 0x3B3F DUP2 PUSH2 0x3B19 JUMP JUMPDEST SWAP3 SWAP2 POP POP JUMP JUMPDEST PUSH1 0x0 PUSH1 0x20 DUP3 DUP5 SUB SLT ISZERO PUSH2 0x3B5B JUMPI PUSH2 0x3B5A PUSH2 0x3B0F JUMP JUMPDEST JUMPDEST PUSH1 0x0 PUSH2 0x3B69 DUP5 DUP3 DUP6 ADD PUSH2 0x3B30 JUMP JUMPDEST SWAP2 POP POP SWAP3 SWAP2 POP POP JUMP JUMPDEST PUSH1 0x0 PUSH1 0x60 DUP3 ADD SWAP1 POP PUSH2 0x3B87 PUSH1 0x0 DUP4 ADD DUP7 PUSH2 0x3ADB JUMP JUMPDEST DUP2 DUP2 SUB PUSH1 0x20 DUP4 ADD MSTORE PUSH2 0x3B99 DUP2 DUP6 PUSH2 0x3A76 JUMP JUMPDEST SWAP1 POP PUSH2 0x3BA8 PUSH1 0x40 DUP4 ADD DUP5 PUSH2 0x3ADB JUMP JUMPDEST SWAP5 SWAP4 POP POP POP POP JUMP JUMPDEST PUSH1 0x0 PUSH20 0xFFFFFFFFFFFFFFFFFFFFFFFFFFFFFFFFFFFFFFFF DUP3 AND SWAP1 POP SWAP2 SWAP1 POP JUMP JUMPDEST PUSH1 0x0 PUSH2 0x3BDB DUP3 PUSH2 0x3BB0 JUMP JUMPDEST SWAP1 POP SWAP2 SWAP1 POP JUMP JUMPDEST PUSH2 0x3BEB DUP2 PUSH2 0x3BD0 JUMP JUMPDEST DUP2 EQ PUSH2 0x3BF6 JUMPI PUSH1 0x0 DUP1 REVERT JUMPDEST POP JUMP JUMPDEST PUSH1 0x0 DUP2 CALLDATALOAD SWAP1 POP PUSH2 0x3C08 DUP2 PUSH2 0x3BE2 JUMP JUMPDEST SWAP3 SWAP2 POP POP JUMP JUMPDEST PUSH1 0x0 PUSH1 0x20 DUP3 DUP5 SUB SLT ISZERO PUSH2 0x3C24 JUMPI PUSH2 0x3C23 PUSH2 0x3B0F JUMP JUMPDEST JUMPDEST PUSH1 0x0 PUSH2 0x3C32 DUP5 DUP3 DUP6 ADD PUSH2 0x3BF9 JUMP JUMPDEST SWAP2 POP POP SWAP3 SWAP2 POP POP JUMP JUMPDEST PUSH1 0x0 DUP2 ISZERO ISZERO SWAP1 POP SWAP2 SWAP1 POP JUMP JUMPDEST PUSH2 0x3C50 DUP2 PUSH2 0x3C3B JUMP JUMPDEST DUP3 MSTORE POP POP JUMP JUMPDEST PUSH1 0x0 PUSH1 0x20 DUP3 ADD SWAP1 POP PUSH2 0x3C6B PUSH1 0x0 DUP4 ADD DUP5 PUSH2 0x3C47 JUMP JUMPDEST SWAP3 SWAP2 POP POP JUMP JUMPDEST PUSH1 0x0 DUP1 REVERT JUMPDEST PUSH1 0x0 DUP1 REVERT JUMPDEST PUSH32 0x4E487B7100000000000000000000000000000000000000000000000000000000 PUSH1 0x0 MSTORE PUSH1 0x41 PUSH1 0x4 MSTORE PUSH1 0x24 PUSH1 0x0 REVERT JUMPDEST PUSH2 0x3CB3 DUP3 PUSH2 0x3A65 JUMP JUMPDEST DUP2 ADD DUP2 DUP2 LT PUSH8 0xFFFFFFFFFFFFFFFF DUP3 GT OR ISZERO PUSH2 0x3CD2 JUMPI PUSH2 0x3CD1 PUSH2 0x3C7B JUMP JUMPDEST JUMPDEST DUP1 PUSH1 0x40 MSTORE POP POP POP JUMP JUMPDEST PUSH1 0x0 PUSH2 0x3CE5 PUSH2 0x3B05 JUMP JUMPDEST SWAP1 POP PUSH2 0x3CF1 DUP3 DUP3 PUSH2 0x3CAA JUMP JUMPDEST SWAP2 SWAP1 POP JUMP JUMPDEST PUSH1 0x0 PUSH8 0xFFFFFFFFFFFFFFFF DUP3 GT ISZERO PUSH2 0x3D11 JUMPI PUSH2 0x3D10 PUSH2 0x3C7B JUMP JUMPDEST JUMPDEST PUSH2 0x3D1A DUP3 PUSH2 0x3A65 JUMP JUMPDEST SWAP1 POP PUSH1 0x20 DUP2 ADD SWAP1 POP SWAP2 SWAP1 POP JUMP JUMPDEST DUP3 DUP2 DUP4 CALLDATACOPY PUSH1 0x0 DUP4 DUP4 ADD MSTORE POP POP POP JUMP JUMPDEST PUSH1 0x0 PUSH2 0x3D49 PUSH2 0x3D44 DUP5 PUSH2 0x3CF6 JUMP JUMPDEST PUSH2 0x3CDB JUMP JUMPDEST SWAP1 POP DUP3 DUP2 MSTORE PUSH1 0x20 DUP2 ADD DUP5 DUP5 DUP5 ADD GT ISZERO PUSH2 0x3D65 JUMPI PUSH2 0x3D64 PUSH2 0x3C76 JUMP JUMPDEST JUMPDEST PUSH2 0x3D70 DUP5 DUP3 DUP6 PUSH2 0x3D27 JUMP JUMPDEST POP SWAP4 SWAP3 POP POP POP JUMP JUMPDEST PUSH1 0x0 DUP3 PUSH1 0x1F DUP4 ADD SLT PUSH2 0x3D8D JUMPI PUSH2 0x3D8C PUSH2 0x3C71 JUMP JUMPDEST JUMPDEST DUP2 CALLDATALOAD PUSH2 0x3D9D DUP5 DUP3 PUSH1 0x20 DUP7 ADD PUSH2 0x3D36 JUMP JUMPDEST SWAP2 POP POP SWAP3 SWAP2 POP POP JUMP JUMPDEST PUSH1 0x0 DUP1 PUSH1 0x40 DUP4 DUP6 SUB SLT ISZERO PUSH2 0x3DBD JUMPI PUSH2 0x3DBC PUSH2 0x3B0F JUMP JUMPDEST JUMPDEST PUSH1 0x0 PUSH2 0x3DCB DUP6 DUP3 DUP7 ADD PUSH2 0x3BF9 JUMP JUMPDEST SWAP3 POP POP PUSH1 0x20 DUP4 ADD CALLDATALOAD PUSH8 0xFFFFFFFFFFFFFFFF DUP2 GT ISZERO PUSH2 0x3DEC JUMPI PUSH2 0x3DEB PUSH2 0x3B14 JUMP JUMPDEST JUMPDEST PUSH2 0x3DF8 DUP6 DUP3 DUP7 ADD PUSH2 0x3D78 JUMP JUMPDEST SWAP2 POP POP SWAP3 POP SWAP3 SWAP1 POP JUMP JUMPDEST PUSH1 0x0 DUP2 SWAP1 POP SWAP2 SWAP1 POP JUMP JUMPDEST PUSH2 0x3E15 DUP2 PUSH2 0x3E02 JUMP JUMPDEST DUP3 MSTORE POP POP JUMP JUMPDEST PUSH1 0x0 PUSH1 0x20 DUP3 ADD SWAP1 POP PUSH2 0x3E30 PUSH1 0x0 DUP4 ADD DUP5 PUSH2 0x3E0C JUMP JUMPDEST SWAP3 SWAP2 POP POP JUMP JUMPDEST PUSH2 0x3E3F DUP2 PUSH2 0x3BD0 JUMP JUMPDEST DUP3 MSTORE POP POP JUMP JUMPDEST PUSH1 0x0 PUSH1 0x20 DUP3 ADD SWAP1 POP PUSH2 0x3E5A PUSH1 0x0 DUP4 ADD DUP5 PUSH2 0x3E36 JUMP JUMPDEST SWAP3 SWAP2 POP POP JUMP JUMPDEST PUSH2 0x3E69 DUP2 PUSH2 0x3E02 JUMP JUMPDEST DUP2 EQ PUSH2 0x3E74 JUMPI PUSH1 0x0 DUP1 REVERT JUMPDEST POP JUMP JUMPDEST PUSH1 0x0 DUP2 CALLDATALOAD SWAP1 POP PUSH2 0x3E86 DUP2 PUSH2 0x3E60 JUMP JUMPDEST SWAP3 SWAP2 POP POP JUMP JUMPDEST PUSH1 0x0 PUSH1 0x20 DUP3 DUP5 SUB SLT ISZERO PUSH2 0x3EA2 JUMPI PUSH2 0x3EA1 PUSH2 0x3B0F JUMP JUMPDEST JUMPDEST PUSH1 0x0 PUSH2 0x3EB0 DUP5 DUP3 DUP6 ADD PUSH2 0x3E77 JUMP JUMPDEST SWAP2 POP POP SWAP3 SWAP2 POP POP JUMP JUMPDEST PUSH1 0x0 PUSH8 0xFFFFFFFFFFFFFFFF DUP3 GT ISZERO PUSH2 0x3ED4 JUMPI PUSH2 0x3ED3 PUSH2 0x3C7B JUMP JUMPDEST JUMPDEST PUSH1 0x20 DUP3 MUL SWAP1 POP PUSH1 0x20 DUP2 ADD SWAP1 POP SWAP2 SWAP1 POP JUMP JUMPDEST PUSH1 0x0 DUP1 REVERT JUMPDEST PUSH1 0x0 PUSH2 0x3EFD PUSH2 0x3EF8 DUP5 PUSH2 0x3EB9 JUMP JUMPDEST PUSH2 0x3CDB JUMP JUMPDEST SWAP1 POP DUP1 DUP4 DUP3 MSTORE PUSH1 0x20 DUP3 ADD SWAP1 POP PUSH1 0x20 DUP5 MUL DUP4 ADD DUP6 DUP2 GT ISZERO PUSH2 0x3F20 JUMPI PUSH2 0x3F1F PUSH2 0x3EE5 JUMP JUMPDEST JUMPDEST DUP4 JUMPDEST DUP2 DUP2 LT ISZERO PUSH2 0x3F49 JUMPI DUP1 PUSH2 0x3F35 DUP9 DUP3 PUSH2 0x3E77 JUMP JUMPDEST DUP5 MSTORE PUSH1 0x20 DUP5 ADD SWAP4 POP POP PUSH1 0x20 DUP2 ADD SWAP1 POP PUSH2 0x3F22 JUMP JUMPDEST POP POP POP SWAP4 SWAP3 POP POP POP JUMP JUMPDEST PUSH1 0x0 DUP3 PUSH1 0x1F DUP4 ADD SLT PUSH2 0x3F68 JUMPI PUSH2 0x3F67 PUSH2 0x3C71 JUMP JUMPDEST JUMPDEST DUP2 CALLDATALOAD PUSH2 0x3F78 DUP5 DUP3 PUSH1 0x20 DUP7 ADD PUSH2 0x3EEA JUMP JUMPDEST SWAP2 POP POP SWAP3 SWAP2 POP POP JUMP JUMPDEST PUSH1 0x0 DUP1 PUSH1 0x40 DUP4 DUP6 SUB SLT ISZERO PUSH2 0x3F98 JUMPI PUSH2 0x3F97 PUSH2 0x3B0F JUMP JUMPDEST JUMPDEST PUSH1 0x0 DUP4 ADD CALLDATALOAD PUSH8 0xFFFFFFFFFFFFFFFF DUP2 GT ISZERO PUSH2 0x3FB6 JUMPI PUSH2 0x3FB5 PUSH2 0x3B14 JUMP JUMPDEST JUMPDEST PUSH2 0x3FC2 DUP6 DUP3 DUP7 ADD PUSH2 0x3F53 JUMP JUMPDEST SWAP3 POP POP PUSH1 0x20 PUSH2 0x3FD3 DUP6 DUP3 DUP7 ADD PUSH2 0x3E77 JUMP JUMPDEST SWAP2 POP POP SWAP3 POP SWAP3 SWAP1 POP JUMP JUMPDEST PUSH1 0x0 DUP1 REVERT JUMPDEST PUSH1 0x0 DUP1 DUP4 PUSH1 0x1F DUP5 ADD SLT PUSH2 0x3FF8 JUMPI PUSH2 0x3FF7 PUSH2 0x3C71 JUMP JUMPDEST JUMPDEST DUP3 CALLDATALOAD SWAP1 POP PUSH8 0xFFFFFFFFFFFFFFFF DUP2 GT ISZERO PUSH2 0x4015 JUMPI PUSH2 0x4014 PUSH2 0x3FDD JUMP JUMPDEST JUMPDEST PUSH1 0x20 DUP4 ADD SWAP2 POP DUP4 PUSH1 0x20 DUP3 MUL DUP4 ADD GT ISZERO PUSH2 0x4031 JUMPI PUSH2 0x4030 PUSH2 0x3EE5 JUMP JUMPDEST JUMPDEST SWAP3 POP SWAP3 SWAP1 POP JUMP JUMPDEST PUSH1 0x0 DUP1 PUSH1 0x0 PUSH1 0x40 DUP5 DUP7 SUB SLT ISZERO PUSH2 0x4051 JUMPI PUSH2 0x4050 PUSH2 0x3B0F JUMP JUMPDEST JUMPDEST PUSH1 0x0 PUSH2 0x405F DUP7 DUP3 DUP8 ADD PUSH2 0x3B30 JUMP JUMPDEST SWAP4 POP POP PUSH1 0x20 DUP5 ADD CALLDATALOAD PUSH8 0xFFFFFFFFFFFFFFFF DUP2 GT ISZERO PUSH2 0x4080 JUMPI PUSH2 0x407F PUSH2 0x3B14 JUMP JUMPDEST JUMPDEST PUSH2 0x408C DUP7 DUP3 DUP8 ADD PUSH2 0x3FE2 JUMP JUMPDEST SWAP3 POP SWAP3 POP POP SWAP3 POP SWAP3 POP SWAP3 JUMP JUMPDEST PUSH32 0x4E487B7100000000000000000000000000000000000000000000000000000000 PUSH1 0x0 MSTORE PUSH1 0x22 PUSH1 0x4 MSTORE PUSH1 0x24 PUSH1 0x0 REVERT JUMPDEST PUSH1 0x0 PUSH1 0x2 DUP3 DIV SWAP1 POP PUSH1 0x1 DUP3 AND DUP1 PUSH2 0x40DF JUMPI PUSH1 0x7F DUP3 AND SWAP2 POP JUMPDEST PUSH1 0x20 DUP3 LT DUP2 EQ ISZERO PUSH2 0x40F3 JUMPI PUSH2 0x40F2 PUSH2 0x4098 JUMP JUMPDEST JUMPDEST POP SWAP2 SWAP1 POP JUMP JUMPDEST PUSH32 0x46756E6374696F6E206D7573742062652063616C6C6564207468726F75676820 PUSH1 0x0 DUP3 ADD MSTORE PUSH32 0x64656C656761746563616C6C0000000000000000000000000000000000000000 PUSH1 0x20 DUP3 ADD MSTORE POP JUMP JUMPDEST PUSH1 0x0 PUSH2 0x4155 PUSH1 0x2C DUP4 PUSH2 0x3A21 JUMP JUMPDEST SWAP2 POP PUSH2 0x4160 DUP3 PUSH2 0x40F9 JUMP JUMPDEST PUSH1 0x40 DUP3 ADD SWAP1 POP SWAP2 SWAP1 POP JUMP JUMPDEST PUSH1 0x0 PUSH1 0x20 DUP3 ADD SWAP1 POP DUP2 DUP2 SUB PUSH1 0x0 DUP4 ADD MSTORE PUSH2 0x4184 DUP2 PUSH2 0x4148 JUMP JUMPDEST SWAP1 POP SWAP2 SWAP1 POP JUMP JUMPDEST PUSH32 0x46756E6374696F6E206D7573742062652063616C6C6564207468726F75676820 PUSH1 0x0 DUP3 ADD MSTORE PUSH32 0x6163746976652070726F78790000000000000000000000000000000000000000 PUSH1 0x20 DUP3 ADD MSTORE POP JUMP JUMPDEST PUSH1 0x0 PUSH2 0x41E7 PUSH1 0x2C DUP4 PUSH2 0x3A21 JUMP JUMPDEST SWAP2 POP PUSH2 0x41F2 DUP3 PUSH2 0x418B JUMP JUMPDEST PUSH1 0x40 DUP3 ADD SWAP1 POP SWAP2 SWAP1 POP JUMP JUMPDEST PUSH1 0x0 PUSH1 0x20 DUP3 ADD SWAP1 POP DUP2 DUP2 SUB PUSH1 0x0 DUP4 ADD MSTORE PUSH2 0x4216 DUP2 PUSH2 0x41DA JUMP JUMPDEST SWAP1 POP SWAP2 SWAP1 POP JUMP JUMPDEST PUSH32 0x5061757361626C653A2070617573656400000000000000000000000000000000 PUSH1 0x0 DUP3 ADD MSTORE POP JUMP JUMPDEST PUSH1 0x0 PUSH2 0x4253 PUSH1 0x10 DUP4 PUSH2 0x3A21 JUMP JUMPDEST SWAP2 POP PUSH2 0x425E DUP3 PUSH2 0x421D JUMP JUMPDEST PUSH1 0x20 DUP3 ADD SWAP1 POP SWAP2 SWAP1 POP JUMP JUMPDEST PUSH1 0x0 PUSH1 0x20 DUP3 ADD SWAP1 POP DUP2 DUP2 SUB PUSH1 0x0 DUP4 ADD MSTORE PUSH2 0x4282 DUP2 PUSH2 0x4246 JUMP JUMPDEST SWAP1 POP SWAP2 SWAP1 POP JUMP JUMPDEST PUSH32 0x6F6E6C792074656163686572732F63686169726D616E2063616E2063616C6C20 PUSH1 0x0 DUP3 ADD MSTORE PUSH32 0x746869732066756E6374696F6E00000000000000000000000000000000000000 PUSH1 0x20 DUP3 ADD MSTORE POP JUMP JUMPDEST PUSH1 0x0 PUSH2 0x42E5 PUSH1 0x2D DUP4 PUSH2 0x3A21 JUMP JUMPDEST SWAP2 POP PUSH2 0x42F0 DUP3 PUSH2 0x4289 JUMP JUMPDEST PUSH1 0x40 DUP3 ADD SWAP1 POP SWAP2 SWAP1 POP JUMP JUMPDEST PUSH1 0x0 PUSH1 0x20 DUP3 ADD SWAP1 POP DUP2 DUP2 SUB PUSH1 0x0 DUP4 ADD MSTORE PUSH2 0x4314 DUP2 PUSH2 0x42D8 JUMP JUMPDEST SWAP1 POP SWAP2 SWAP1 POP JUMP JUMPDEST PUSH32 0x6F6E6C792063686169726D616E2063616E2063616C6C20746869732066756E63 PUSH1 0x0 DUP3 ADD MSTORE PUSH32 0x74696F6E00000000000000000000000000000000000000000000000000000000 PUSH1 0x20 DUP3 ADD MSTORE POP JUMP JUMPDEST PUSH1 0x0 PUSH2 0x4377 PUSH1 0x24 DUP4 PUSH2 0x3A21 JUMP JUMPDEST SWAP2 POP PUSH2 0x4382 DUP3 PUSH2 0x431B JUMP JUMPDEST PUSH1 0x40 DUP3 ADD SWAP1 POP SWAP2 SWAP1 POP JUMP JUMPDEST PUSH1 0x0 PUSH1 0x20 DUP3 ADD SWAP1 POP DUP2 DUP2 SUB PUSH1 0x0 DUP4 ADD MSTORE PUSH2 0x43A6 DUP2 PUSH2 0x436A JUMP JUMPDEST SWAP1 POP SWAP2 SWAP1 POP JUMP JUMPDEST PUSH32 0x555550535570677261646561626C653A206D757374206E6F742062652063616C PUSH1 0x0 DUP3 ADD MSTORE PUSH32 0x6C6564207468726F7567682064656C656761746563616C6C0000000000000000 PUSH1 0x20 DUP3 ADD MSTORE POP JUMP JUMPDEST PUSH1 0x0 PUSH2 0x4409 PUSH1 0x38 DUP4 PUSH2 0x3A21 JUMP JUMPDEST SWAP2 POP PUSH2 0x4414 DUP3 PUSH2 0x43AD JUMP JUMPDEST PUSH1 0x40 DUP3 ADD SWAP1 POP SWAP2 SWAP1 POP JUMP JUMPDEST PUSH1 0x0 PUSH1 0x20 DUP3 ADD SWAP1 POP DUP2 DUP2 SUB PUSH1 0x0 DUP4 ADD MSTORE PUSH2 0x4438 DUP2 PUSH2 0x43FC JUMP JUMPDEST SWAP1 POP SWAP2 SWAP1 POP JUMP JUMPDEST PUSH1 0x0 DUP2 SLOAD SWAP1 POP SWAP2 SWAP1 POP JUMP JUMPDEST PUSH1 0x0 DUP3 DUP3 MSTORE PUSH1 0x20 DUP3 ADD SWAP1 POP SWAP3 SWAP2 POP POP JUMP JUMPDEST PUSH1 0x0 DUP2 SWAP1 POP DUP2 PUSH1 0x0 MSTORE PUSH1 0x20 PUSH1 0x0 KECCAK256 SWAP1 POP SWAP2 SWAP1 POP JUMP JUMPDEST PUSH2 0x4479 DUP2 PUSH2 0x3AD1 JUMP JUMPDEST DUP3 MSTORE POP POP JUMP JUMPDEST PUSH1 0x0 PUSH2 0x448B DUP4 DUP4 PUSH2 0x4470 JUMP JUMPDEST PUSH1 0x20 DUP4 ADD SWAP1 POP SWAP3 SWAP2 POP POP JUMP JUMPDEST PUSH1 0x0 DUP2 PUSH1 0x0 SHR SWAP1 POP SWAP2 SWAP1 POP JUMP JUMPDEST PUSH1 0x0 DUP2 SWAP1 POP SWAP2 SWAP1 POP JUMP JUMPDEST PUSH1 0x0 PUSH2 0x44C1 PUSH2 0x44BC DUP4 PUSH2 0x4497 JUMP JUMPDEST PUSH2 0x44A4 JUMP JUMPDEST SWAP1 POP SWAP2 SWAP1 POP JUMP JUMPDEST PUSH1 0x0 PUSH2 0x44D4 DUP3 SLOAD PUSH2 0x44AE JUMP JUMPDEST SWAP1 POP SWAP2 SWAP1 POP JUMP JUMPDEST PUSH1 0x0 PUSH1 0x1 DUP3 ADD SWAP1 POP SWAP2 SWAP1 POP JUMP JUMPDEST PUSH1 0x0 PUSH2 0x44F3 DUP3 PUSH2 0x443F JUMP JUMPDEST PUSH2 0x44FD DUP2 DUP6 PUSH2 0x444A JUMP JUMPDEST SWAP4 POP PUSH2 0x4508 DUP4 PUSH2 0x445B JUMP JUMPDEST DUP1 PUSH1 0x0 JUMPDEST DUP4 DUP2 LT ISZERO PUSH2 0x4540 JUMPI PUSH2 0x451D DUP3 PUSH2 0x44C8 JUMP JUMPDEST PUSH2 0x4527 DUP9 DUP3 PUSH2 0x447F JUMP JUMPDEST SWAP8 POP PUSH2 0x4532 DUP4 PUSH2 0x44DB JUMP JUMPDEST SWAP3 POP POP PUSH1 0x1 DUP2 ADD SWAP1 POP PUSH2 0x450C JUMP JUMPDEST POP DUP6 SWAP4 POP POP POP POP SWAP3 SWAP2 POP POP JUMP JUMPDEST PUSH1 0x0 PUSH1 0x40 DUP3 ADD SWAP1 POP DUP2 DUP2 SUB PUSH1 0x0 DUP4 ADD MSTORE PUSH2 0x4567 DUP2 DUP6 PUSH2 0x44E8 JUMP JUMPDEST SWAP1 POP PUSH2 0x4576 PUSH1 0x20 DUP4 ADD DUP5 PUSH2 0x3ADB JUMP JUMPDEST SWAP4 SWAP3 POP POP POP JUMP JUMPDEST PUSH32 0x496E697469616C697A61626C653A20636F6E747261637420697320616C726561 PUSH1 0x0 DUP3 ADD MSTORE PUSH32 0x647920696E697469616C697A6564000000000000000000000000000000000000 PUSH1 0x20 DUP3 ADD MSTORE POP JUMP JUMPDEST PUSH1 0x0 PUSH2 0x45D9 PUSH1 0x2E DUP4 PUSH2 0x3A21 JUMP JUMPDEST SWAP2 POP PUSH2 0x45E4 DUP3 PUSH2 0x457D JUMP JUMPDEST PUSH1 0x40 DUP3 ADD SWAP1 POP SWAP2 SWAP1 POP JUMP JUMPDEST PUSH1 0x0 PUSH1 0x20 DUP3 ADD SWAP1 POP DUP2 DUP2 SUB PUSH1 0x0 DUP4 ADD MSTORE PUSH2 0x4608 DUP2 PUSH2 0x45CC JUMP JUMPDEST SWAP1 POP SWAP2 SWAP1 POP JUMP JUMPDEST PUSH32 0x536F7272792C2074686520456C656374696F6E2068617320656E646564210000 PUSH1 0x0 DUP3 ADD MSTORE POP JUMP JUMPDEST PUSH1 0x0 PUSH2 0x4645 PUSH1 0x1E DUP4 PUSH2 0x3A21 JUMP JUMPDEST SWAP2 POP PUSH2 0x4650 DUP3 PUSH2 0x460F JUMP JUMPDEST PUSH1 0x20 DUP3 ADD SWAP1 POP SWAP2 SWAP1 POP JUMP JUMPDEST PUSH1 0x0 PUSH1 0x20 DUP3 ADD SWAP1 POP DUP2 DUP2 SUB PUSH1 0x0 DUP4 ADD MSTORE PUSH2 0x4674 DUP2 PUSH2 0x4638 JUMP JUMPDEST SWAP1 POP SWAP2 SWAP1 POP JUMP JUMPDEST PUSH32 0x456C656374696F6E20686173206E6F7420626567756E21000000000000000000 PUSH1 0x0 DUP3 ADD MSTORE POP JUMP JUMPDEST PUSH1 0x0 PUSH2 0x46B1 PUSH1 0x17 DUP4 PUSH2 0x3A21 JUMP JUMPDEST SWAP2 POP PUSH2 0x46BC DUP3 PUSH2 0x467B JUMP JUMPDEST PUSH1 0x20 DUP3 ADD SWAP1 POP SWAP2 SWAP1 POP JUMP JUMPDEST PUSH1 0x0 PUSH1 0x20 DUP3 ADD SWAP1 POP DUP2 DUP2 SUB PUSH1 0x0 DUP4 ADD MSTORE PUSH2 0x46E0 DUP2 PUSH2 0x46A4 JUMP JUMPDEST SWAP1 POP SWAP2 SWAP1 POP JUMP JUMPDEST PUSH1 0x0 DUP2 PUSH1 0x60 SHL SWAP1 POP SWAP2 SWAP1 POP JUMP JUMPDEST PUSH1 0x0 PUSH2 0x46FF DUP3 PUSH2 0x46E7 JUMP JUMPDEST SWAP1 POP SWAP2 SWAP1 POP JUMP JUMPDEST PUSH1 0x0 PUSH2 0x4711 DUP3 PUSH2 0x46F4 JUMP JUMPDEST SWAP1 POP SWAP2 SWAP1 POP JUMP JUMPDEST PUSH2 0x4729 PUSH2 0x4724 DUP3 PUSH2 0x3BD0 JUMP JUMPDEST PUSH2 0x4706 JUMP JUMPDEST DUP3 MSTORE POP POP JUMP JUMPDEST PUSH1 0x0 PUSH2 0x473B DUP3 DUP5 PUSH2 0x4718 JUMP JUMPDEST PUSH1 0x14 DUP3 ADD SWAP2 POP DUP2 SWAP1 POP SWAP3 SWAP2 POP POP JUMP JUMPDEST PUSH32 0x736F7272792C206F6E6C79207374616B65686F6C646572732061726520656C69 PUSH1 0x0 DUP3 ADD MSTORE PUSH32 0x6769626C6520746F20766F746500000000000000000000000000000000000000 PUSH1 0x20 DUP3 ADD MSTORE POP JUMP JUMPDEST PUSH1 0x0 PUSH2 0x47A6 PUSH1 0x2D DUP4 PUSH2 0x3A21 JUMP JUMPDEST SWAP2 POP PUSH2 0x47B1 DUP3 PUSH2 0x474A JUMP JUMPDEST PUSH1 0x40 DUP3 ADD SWAP1 POP SWAP2 SWAP1 POP JUMP JUMPDEST PUSH1 0x0 PUSH1 0x20 DUP3 ADD SWAP1 POP DUP2 DUP2 SUB PUSH1 0x0 DUP4 ADD MSTORE PUSH2 0x47D5 DUP2 PUSH2 0x4799 JUMP JUMPDEST SWAP1 POP SWAP2 SWAP1 POP JUMP JUMPDEST PUSH1 0x0 DUP2 MLOAD SWAP1 POP PUSH2 0x47EB DUP2 PUSH2 0x3E60 JUMP JUMPDEST SWAP3 SWAP2 POP POP JUMP JUMPDEST PUSH1 0x0 PUSH1 0x20 DUP3 DUP5 SUB SLT ISZERO PUSH2 0x4807 JUMPI PUSH2 0x4806 PUSH2 0x3B0F JUMP JUMPDEST JUMPDEST PUSH1 0x0 PUSH2 0x4815 DUP5 DUP3 DUP6 ADD PUSH2 0x47DC JUMP JUMPDEST SWAP2 POP POP SWAP3 SWAP2 POP POP JUMP JUMPDEST PUSH32 0x45524331393637557067726164653A206E657720696D706C656D656E74617469 PUSH1 0x0 DUP3 ADD MSTORE PUSH32 0x6F6E206973206E6F742055555053000000000000000000000000000000000000 PUSH1 0x20 DUP3 ADD MSTORE POP JUMP JUMPDEST PUSH1 0x0 PUSH2 0x487A PUSH1 0x2E DUP4 PUSH2 0x3A21 JUMP JUMPDEST SWAP2 POP PUSH2 0x4885 DUP3 PUSH2 0x481E JUMP JUMPDEST PUSH1 0x40 DUP3 ADD SWAP1 POP SWAP2 SWAP1 POP JUMP JUMPDEST PUSH1 0x0 PUSH1 0x20 DUP3 ADD SWAP1 POP DUP2 DUP2 SUB PUSH1 0x0 DUP4 ADD MSTORE PUSH2 0x48A9 DUP2 PUSH2 0x486D JUMP JUMPDEST SWAP1 POP SWAP2 SWAP1 POP JUMP JUMPDEST PUSH32 0x45524331393637557067726164653A20756E737570706F727465642070726F78 PUSH1 0x0 DUP3 ADD MSTORE PUSH32 0x6961626C65555549440000000000000000000000000000000000000000000000 PUSH1 0x20 DUP3 ADD MSTORE POP JUMP JUMPDEST PUSH1 0x0 PUSH2 0x490C PUSH1 0x29 DUP4 PUSH2 0x3A21 JUMP JUMPDEST SWAP2 POP PUSH2 0x4917 DUP3 PUSH2 0x48B0 JUMP JUMPDEST PUSH1 0x40 DUP3 ADD SWAP1 POP SWAP2 SWAP1 POP JUMP JUMPDEST PUSH1 0x0 PUSH1 0x20 DUP3 ADD SWAP1 POP DUP2 DUP2 SUB PUSH1 0x0 DUP4 ADD MSTORE PUSH2 0x493B DUP2 PUSH2 0x48FF JUMP JUMPDEST SWAP1 POP SWAP2 SWAP1 POP JUMP JUMPDEST PUSH32 0x5061757361626C653A206E6F7420706175736564000000000000000000000000 PUSH1 0x0 DUP3 ADD MSTORE POP JUMP JUMPDEST PUSH1 0x0 PUSH2 0x4978 PUSH1 0x14 DUP4 PUSH2 0x3A21 JUMP JUMPDEST SWAP2 POP PUSH2 0x4983 DUP3 PUSH2 0x4942 JUMP JUMPDEST PUSH1 0x20 DUP3 ADD SWAP1 POP SWAP2 SWAP1 POP JUMP JUMPDEST PUSH1 0x0 PUSH1 0x20 DUP3 ADD SWAP1 POP DUP2 DUP2 SUB PUSH1 0x0 DUP4 ADD MSTORE PUSH2 0x49A7 DUP2 PUSH2 0x496B JUMP JUMPDEST SWAP1 POP SWAP2 SWAP1 POP JUMP JUMPDEST PUSH32 0x4E487B7100000000000000000000000000000000000000000000000000000000 PUSH1 0x0 MSTORE PUSH1 0x11 PUSH1 0x4 MSTORE PUSH1 0x24 PUSH1 0x0 REVERT JUMPDEST PUSH1 0x0 PUSH2 0x49E8 DUP3 PUSH2 0x3AD1 JUMP JUMPDEST SWAP2 POP PUSH32 0xFFFFFFFFFFFFFFFFFFFFFFFFFFFFFFFFFFFFFFFFFFFFFFFFFFFFFFFFFFFFFFFF DUP3 EQ ISZERO PUSH2 0x4A1B JUMPI PUSH2 0x4A1A PUSH2 0x49AE JUMP JUMPDEST JUMPDEST PUSH1 0x1 DUP3 ADD SWAP1 POP SWAP2 SWAP1 POP JUMP JUMPDEST PUSH32 0x496E697469616C697A61626C653A20636F6E7472616374206973206E6F742069 PUSH1 0x0 DUP3 ADD MSTORE PUSH32 0x6E697469616C697A696E67000000000000000000000000000000000000000000 PUSH1 0x20 DUP3 ADD MSTORE POP JUMP JUMPDEST PUSH1 0x0 PUSH2 0x4A82 PUSH1 0x2B DUP4 PUSH2 0x3A21 JUMP JUMPDEST SWAP2 POP PUSH2 0x4A8D DUP3 PUSH2 0x4A26 JUMP JUMPDEST PUSH1 0x40 DUP3 ADD SWAP1 POP SWAP2 SWAP1 POP JUMP JUMPDEST PUSH1 0x0 PUSH1 0x20 DUP3 ADD SWAP1 POP DUP2 DUP2 SUB PUSH1 0x0 DUP4 ADD MSTORE PUSH2 0x4AB1 DUP2 PUSH2 0x4A75 JUMP JUMPDEST SWAP1 POP SWAP2 SWAP1 POP JUMP JUMPDEST PUSH32 0x496E76616C69642063616E64696461746520746F20566F746521000000000000 PUSH1 0x0 DUP3 ADD MSTORE POP JUMP JUMPDEST PUSH1 0x0 PUSH2 0x4AEE PUSH1 0x1A DUP4 PUSH2 0x3A21 JUMP JUMPDEST SWAP2 POP PUSH2 0x4AF9 DUP3 PUSH2 0x4AB8 JUMP JUMPDEST PUSH1 0x20 DUP3 ADD SWAP1 POP SWAP2 SWAP1 POP JUMP JUMPDEST PUSH1 0x0 PUSH1 0x20 DUP3 ADD SWAP1 POP DUP2 DUP2 SUB PUSH1 0x0 DUP4 ADD MSTORE PUSH2 0x4B1D DUP2 PUSH2 0x4AE1 JUMP JUMPDEST SWAP1 POP SWAP2 SWAP1 POP JUMP JUMPDEST PUSH32 0x566F7465722068617320616C726561647920566F746564210000000000000000 PUSH1 0x0 DUP3 ADD MSTORE POP JUMP JUMPDEST PUSH1 0x0 PUSH2 0x4B5A PUSH1 0x18 DUP4 PUSH2 0x3A21 JUMP JUMPDEST SWAP2 POP PUSH2 0x4B65 DUP3 PUSH2 0x4B24 JUMP JUMPDEST PUSH1 0x20 DUP3 ADD SWAP1 POP SWAP2 SWAP1 POP JUMP JUMPDEST PUSH1 0x0 PUSH1 0x20 DUP3 ADD SWAP1 POP DUP2 DUP2 SUB PUSH1 0x0 DUP4 ADD MSTORE PUSH2 0x4B89 DUP2 PUSH2 0x4B4D JUMP JUMPDEST SWAP1 POP SWAP2 SWAP1 POP JUMP JUMPDEST PUSH1 0x0 PUSH1 0x40 DUP3 ADD SWAP1 POP PUSH2 0x4BA5 PUSH1 0x0 DUP4 ADD DUP6 PUSH2 0x3ADB JUMP JUMPDEST PUSH2 0x4BB2 PUSH1 0x20 DUP4 ADD DUP5 PUSH2 0x3ADB JUMP JUMPDEST SWAP4 SWAP3 POP POP POP JUMP JUMPDEST PUSH32 0x455243313936373A206E657720696D706C656D656E746174696F6E206973206E PUSH1 0x0 DUP3 ADD MSTORE PUSH32 0x6F74206120636F6E747261637400000000000000000000000000000000000000 PUSH1 0x20 DUP3 ADD MSTORE POP JUMP JUMPDEST PUSH1 0x0 PUSH2 0x4C15 PUSH1 0x2D DUP4 PUSH2 0x3A21 JUMP JUMPDEST SWAP2 POP PUSH2 0x4C20 DUP3 PUSH2 0x4BB9 JUMP JUMPDEST PUSH1 0x40 DUP3 ADD SWAP1 POP SWAP2 SWAP1 POP JUMP JUMPDEST PUSH1 0x0 PUSH1 0x20 DUP3 ADD SWAP1 POP DUP2 DUP2 SUB PUSH1 0x0 DUP4 ADD MSTORE PUSH2 0x4C44 DUP2 PUSH2 0x4C08 JUMP JUMPDEST SWAP1 POP SWAP2 SWAP1 POP JUMP JUMPDEST PUSH32 0x4E487B7100000000000000000000000000000000000000000000000000000000 PUSH1 0x0 MSTORE PUSH1 0x32 PUSH1 0x4 MSTORE PUSH1 0x24 PUSH1 0x0 REVERT JUMPDEST PUSH32 0x416464726573733A2064656C65676174652063616C6C20746F206E6F6E2D636F PUSH1 0x0 DUP3 ADD MSTORE PUSH32 0x6E74726163740000000000000000000000000000000000000000000000000000 PUSH1 0x20 DUP3 ADD MSTORE POP JUMP JUMPDEST PUSH1 0x0 PUSH2 0x4CD6 PUSH1 0x26 DUP4 PUSH2 0x3A21 JUMP JUMPDEST SWAP2 POP PUSH2 0x4CE1 DUP3 PUSH2 0x4C7A JUMP JUMPDEST PUSH1 0x40 DUP3 ADD SWAP1 POP SWAP2 SWAP1 POP JUMP JUMPDEST PUSH1 0x0 PUSH1 0x20 DUP3 ADD SWAP1 POP DUP2 DUP2 SUB PUSH1 0x0 DUP4 ADD MSTORE PUSH2 0x4D05 DUP2 PUSH2 0x4CC9 JUMP JUMPDEST SWAP1 POP SWAP2 SWAP1 POP JUMP JUMPDEST PUSH1 0x0 DUP2 MLOAD SWAP1 POP SWAP2 SWAP1 POP JUMP JUMPDEST PUSH1 0x0 DUP2 SWAP1 POP SWAP3 SWAP2 POP POP JUMP JUMPDEST PUSH1 0x0 PUSH2 0x4D2D DUP3 PUSH2 0x4D0C JUMP JUMPDEST PUSH2 0x4D37 DUP2 DUP6 PUSH2 0x4D17 JUMP JUMPDEST SWAP4 POP PUSH2 0x4D47 DUP2 DUP6 PUSH1 0x20 DUP7 ADD PUSH2 0x3A32 JUMP JUMPDEST DUP1 DUP5 ADD SWAP2 POP POP SWAP3 SWAP2 POP POP JUMP JUMPDEST PUSH1 0x0 PUSH2 0x4D5F DUP3 DUP5 PUSH2 0x4D22 JUMP JUMPDEST SWAP2 POP DUP2 SWAP1 POP SWAP3 SWAP2 POP POP JUMP INVALID COINBASE PUSH5 0x6472657373 GASPRICE KECCAK256 PUSH13 0x6F772D6C6576656C2064656C65 PUSH8 0x6174652063616C6C KECCAK256 PUSH7 0x61696C6564A264 PUSH10 0x70667358221220EC5501 0xD3 0xA5 AND OR 0xAA EXTCODESIZE 0xB7 SIGNEXTEND 0xD4 ADDRESS 0xB0 0x29 SELFBALANCE 0xEB PUSH24 0xBC8F70DF014D85BC34F6AF51422F64736F6C634300080A00 CALLER "
        },
        "methodIdentifiers": {
          "Active()": "c9b0a2a7",
          "Ended()": "477383f3",
          "addTeacher(address)": "3bc6e309",
          "candidates(uint256)": "3477ee2e",
          "candidatesCount()": "2d35a8a2",
          "chairman()": "87f7b975",
          "changeChairman(address)": "e8101869",
          "description()": "7284e416",
          "endElection()": "59f78468",
          "initialize(bytes32)": "9498bd71",
          "isValid(bytes32[],bytes32)": "b8a20ed0",
          "name()": "06fdde03",
          "pause()": "8456cb59",
          "paused()": "5c975abb",
          "proxiableUUID()": "52d1902d",
          "removeTeacher(address)": "52ff6846",
          "root()": "ebf0c717",
          "startElection()": "62d73eb8",
          "teachers(address)": "f0a47f78",
          "unpause()": "3f4ba83a",
          "upgradeTo(address)": "3659cfe6",
          "upgradeToAndCall(address,bytes)": "4f1ef286",
          "vote(uint256,bytes32[])": "fd27419b",
          "voted(address)": "aec2ccae",
          "winnerIds(uint256)": "403d1312",
          "winnerVoteCount()": "2f22850d"
        }
      },
      "storageLayout": {
        "storage": [
          {
            "astId": 395,
            "contract": "contracts/ZuriElection.sol:ZuriElection",
            "label": "_initialized",
            "offset": 0,
            "slot": "0",
            "type": "t_bool"
          },
          {
            "astId": 398,
            "contract": "contracts/ZuriElection.sol:ZuriElection",
            "label": "_initializing",
            "offset": 1,
            "slot": "0",
            "type": "t_bool"
          },
          {
            "astId": 993,
            "contract": "contracts/ZuriElection.sol:ZuriElection",
            "label": "__gap",
            "offset": 0,
            "slot": "1",
            "type": "t_array(t_uint256)50_storage"
          },
          {
            "astId": 619,
            "contract": "contracts/ZuriElection.sol:ZuriElection",
            "label": "_paused",
            "offset": 0,
            "slot": "51",
            "type": "t_bool"
          },
          {
            "astId": 708,
            "contract": "contracts/ZuriElection.sol:ZuriElection",
            "label": "__gap",
            "offset": 0,
            "slot": "52",
            "type": "t_array(t_uint256)49_storage"
          },
          {
            "astId": 377,
            "contract": "contracts/ZuriElection.sol:ZuriElection",
            "label": "__gap",
            "offset": 0,
            "slot": "101",
            "type": "t_array(t_uint256)50_storage"
          },
          {
            "astId": 597,
            "contract": "contracts/ZuriElection.sol:ZuriElection",
            "label": "__gap",
            "offset": 0,
            "slot": "151",
            "type": "t_array(t_uint256)50_storage"
          },
          {
            "astId": 1285,
            "contract": "contracts/ZuriElection.sol:ZuriElection",
            "label": "chairman",
            "offset": 0,
            "slot": "201",
            "type": "t_address"
          },
          {
            "astId": 1288,
            "contract": "contracts/ZuriElection.sol:ZuriElection",
            "label": "name",
            "offset": 0,
            "slot": "202",
            "type": "t_string_storage"
          },
          {
            "astId": 1291,
            "contract": "contracts/ZuriElection.sol:ZuriElection",
            "label": "description",
            "offset": 0,
            "slot": "203",
            "type": "t_string_storage"
          },
          {
            "astId": 1294,
            "contract": "contracts/ZuriElection.sol:ZuriElection",
            "label": "root",
            "offset": 0,
            "slot": "204",
            "type": "t_bytes32"
          },
          {
            "astId": 1297,
            "contract": "contracts/ZuriElection.sol:ZuriElection",
            "label": "candidatesCount",
            "offset": 0,
            "slot": "205",
            "type": "t_uint256"
          },
          {
            "astId": 1302,
            "contract": "contracts/ZuriElection.sol:ZuriElection",
            "label": "teachers",
            "offset": 0,
            "slot": "206",
            "type": "t_mapping(t_address,t_bool)"
          },
          {
            "astId": 1307,
            "contract": "contracts/ZuriElection.sol:ZuriElection",
            "label": "voted",
            "offset": 0,
            "slot": "207",
            "type": "t_mapping(t_address,t_bool)"
          },
          {
            "astId": 1313,
            "contract": "contracts/ZuriElection.sol:ZuriElection",
            "label": "candidates",
            "offset": 0,
            "slot": "208",
            "type": "t_mapping(t_uint256,t_struct(Candidate)1333_storage)"
          },
          {
            "astId": 1317,
            "contract": "contracts/ZuriElection.sol:ZuriElection",
            "label": "winnerIds",
            "offset": 0,
            "slot": "209",
            "type": "t_array(t_uint256)dyn_storage"
          },
          {
            "astId": 1320,
            "contract": "contracts/ZuriElection.sol:ZuriElection",
            "label": "winnerVoteCount",
            "offset": 0,
            "slot": "210",
            "type": "t_uint256"
          },
          {
            "astId": 1323,
            "contract": "contracts/ZuriElection.sol:ZuriElection",
            "label": "Active",
            "offset": 0,
            "slot": "211",
            "type": "t_bool"
          },
          {
            "astId": 1326,
            "contract": "contracts/ZuriElection.sol:ZuriElection",
            "label": "Ended",
            "offset": 1,
            "slot": "211",
            "type": "t_bool"
          }
        ],
        "types": {
          "t_address": {
            "encoding": "inplace",
            "label": "address",
            "numberOfBytes": "20"
          },
          "t_array(t_uint256)49_storage": {
            "base": "t_uint256",
            "encoding": "inplace",
            "label": "uint256[49]",
            "numberOfBytes": "1568"
          },
          "t_array(t_uint256)50_storage": {
            "base": "t_uint256",
            "encoding": "inplace",
            "label": "uint256[50]",
            "numberOfBytes": "1600"
          },
          "t_array(t_uint256)dyn_storage": {
            "base": "t_uint256",
            "encoding": "dynamic_array",
            "label": "uint256[]",
            "numberOfBytes": "32"
          },
          "t_bool": {
            "encoding": "inplace",
            "label": "bool",
            "numberOfBytes": "1"
          },
          "t_bytes32": {
            "encoding": "inplace",
            "label": "bytes32",
            "numberOfBytes": "32"
          },
          "t_mapping(t_address,t_bool)": {
            "encoding": "mapping",
            "key": "t_address",
            "label": "mapping(address => bool)",
            "numberOfBytes": "32",
            "value": "t_bool"
          },
          "t_mapping(t_uint256,t_struct(Candidate)1333_storage)": {
            "encoding": "mapping",
            "key": "t_uint256",
            "label": "mapping(uint256 => struct ZuriElection.Candidate)",
            "numberOfBytes": "32",
            "value": "t_struct(Candidate)1333_storage"
          },
          "t_string_storage": {
            "encoding": "bytes",
            "label": "string",
            "numberOfBytes": "32"
          },
          "t_struct(Candidate)1333_storage": {
            "encoding": "inplace",
            "label": "struct ZuriElection.Candidate",
            "members": [
              {
                "astId": 1328,
                "contract": "contracts/ZuriElection.sol:ZuriElection",
                "label": "id",
                "offset": 0,
                "slot": "0",
                "type": "t_uint256"
              },
              {
                "astId": 1330,
                "contract": "contracts/ZuriElection.sol:ZuriElection",
                "label": "name",
                "offset": 0,
                "slot": "1",
                "type": "t_string_storage"
              },
              {
                "astId": 1332,
                "contract": "contracts/ZuriElection.sol:ZuriElection",
                "label": "voteCount",
                "offset": 0,
                "slot": "2",
                "type": "t_uint256"
              }
            ],
            "numberOfBytes": "96"
          },
          "t_uint256": {
            "encoding": "inplace",
            "label": "uint256",
            "numberOfBytes": "32"
          }
        }
      }
    }
  }
}