{
  "contracts/ZuriElection.sol": {
    "ZuriElection": {
      "abi": [
        {
          "inputs": [
            {
              "internalType": "bytes32",
              "name": "merkleRoot",
              "type": "bytes32"
            }
          ],
          "stateMutability": "nonpayable",
          "type": "constructor"
        },
        {
          "inputs": [],
          "name": "ElectionHasEnded",
          "type": "error"
        },
        {
          "inputs": [],
          "name": "ElectionNotStarted",
          "type": "error"
        },
        {
          "anonymous": false,
          "inputs": [
            {
              "indexed": false,
              "internalType": "uint256",
              "name": "_candidateId",
              "type": "uint256"
            },
            {
              "indexed": false,
              "internalType": "string",
              "name": "_candidateName",
              "type": "string"
            }
          ],
          "name": "CandidateCreated",
          "type": "event"
        },
        {
          "anonymous": false,
          "inputs": [
            {
              "indexed": false,
              "internalType": "uint256[]",
              "name": "_winnerIds",
              "type": "uint256[]"
            },
            {
              "indexed": false,
              "internalType": "uint256",
              "name": "_winnerVoteCount",
              "type": "uint256"
            }
          ],
          "name": "ElectionEnded",
          "type": "event"
        },
        {
          "anonymous": false,
          "inputs": [
            {
              "indexed": false,
              "internalType": "address",
              "name": "account",
              "type": "address"
            }
          ],
          "name": "Paused",
          "type": "event"
        },
        {
          "anonymous": false,
          "inputs": [
            {
              "indexed": false,
              "internalType": "address",
              "name": "account",
              "type": "address"
            }
          ],
          "name": "Unpaused",
          "type": "event"
        },
        {
          "anonymous": false,
          "inputs": [
            {
              "indexed": false,
              "internalType": "uint256",
              "name": "_candidateId",
              "type": "uint256"
            },
            {
              "indexed": false,
              "internalType": "uint256",
              "name": "_candidateVoteCount",
              "type": "uint256"
            }
          ],
          "name": "VoteForCandidate",
          "type": "event"
        },
        {
          "inputs": [],
          "name": "Active",
          "outputs": [
            {
              "internalType": "bool",
              "name": "",
              "type": "bool"
            }
          ],
          "stateMutability": "view",
          "type": "function"
        },
        {
          "inputs": [],
          "name": "Created",
          "outputs": [
            {
              "internalType": "bool",
              "name": "",
              "type": "bool"
            }
          ],
          "stateMutability": "view",
          "type": "function"
        },
        {
          "inputs": [],
          "name": "Ended",
          "outputs": [
            {
              "internalType": "bool",
              "name": "",
              "type": "bool"
            }
          ],
          "stateMutability": "view",
          "type": "function"
        },
        {
          "inputs": [
            {
              "internalType": "string",
              "name": "_name",
              "type": "string"
            },
            {
              "internalType": "string",
              "name": "_candidateHash",
              "type": "string"
            },
            {
              "internalType": "string",
              "name": "_candidateManifesto",
              "type": "string"
            }
          ],
          "name": "addCandidate",
          "outputs": [],
          "stateMutability": "nonpayable",
          "type": "function"
        },
        {
          "inputs": [
            {
              "internalType": "address",
              "name": "_newTeacher",
              "type": "address"
            }
          ],
          "name": "addTeacher",
          "outputs": [],
          "stateMutability": "nonpayable",
          "type": "function"
        },
        {
          "inputs": [
            {
              "internalType": "uint256",
              "name": "",
              "type": "uint256"
            }
          ],
          "name": "candidates",
          "outputs": [
            {
              "internalType": "uint256",
              "name": "id",
              "type": "uint256"
            },
            {
              "internalType": "string",
              "name": "name",
              "type": "string"
            },
            {
              "internalType": "string",
              "name": "candidateHash",
              "type": "string"
            },
            {
              "internalType": "string",
              "name": "candidateManifesto",
              "type": "string"
            },
            {
              "internalType": "uint256",
              "name": "voteCount",
              "type": "uint256"
            }
          ],
          "stateMutability": "view",
          "type": "function"
        },
        {
          "inputs": [],
          "name": "candidatesCount",
          "outputs": [
            {
              "internalType": "uint256",
              "name": "",
              "type": "uint256"
            }
          ],
          "stateMutability": "view",
          "type": "function"
        },
        {
          "inputs": [],
          "name": "chairman",
          "outputs": [
            {
              "internalType": "address",
              "name": "",
              "type": "address"
            }
          ],
          "stateMutability": "view",
          "type": "function"
        },
        {
          "inputs": [
            {
              "internalType": "address",
              "name": "_newChairman",
              "type": "address"
            }
          ],
          "name": "changeChairman",
          "outputs": [],
          "stateMutability": "nonpayable",
          "type": "function"
        },
        {
          "inputs": [],
          "name": "closeElection",
          "outputs": [],
          "stateMutability": "nonpayable",
          "type": "function"
        },
        {
          "inputs": [],
          "name": "description",
          "outputs": [
            {
              "internalType": "string",
              "name": "",
              "type": "string"
            }
          ],
          "stateMutability": "view",
          "type": "function"
        },
        {
          "inputs": [],
          "name": "endElection",
          "outputs": [],
          "stateMutability": "nonpayable",
          "type": "function"
        },
        {
          "inputs": [],
          "name": "getCandidates",
          "outputs": [
            {
              "components": [
                {
                  "internalType": "uint256",
                  "name": "id",
                  "type": "uint256"
                },
                {
                  "internalType": "string",
                  "name": "name",
                  "type": "string"
                },
                {
                  "internalType": "string",
                  "name": "candidateHash",
                  "type": "string"
                },
                {
                  "internalType": "string",
                  "name": "candidateManifesto",
                  "type": "string"
                },
                {
                  "internalType": "uint256",
                  "name": "voteCount",
                  "type": "uint256"
                }
              ],
              "internalType": "struct ZuriElection.Candidate[]",
              "name": "",
              "type": "tuple[]"
            }
          ],
          "stateMutability": "view",
          "type": "function"
        },
        {
          "inputs": [],
          "name": "getWinner",
          "outputs": [
            {
              "internalType": "uint256",
              "name": "",
              "type": "uint256"
            },
            {
              "internalType": "uint256[]",
              "name": "",
              "type": "uint256[]"
            }
          ],
          "stateMutability": "view",
          "type": "function"
        },
        {
          "inputs": [],
          "name": "isChairman",
          "outputs": [
            {
              "internalType": "bool",
              "name": "",
              "type": "bool"
            }
          ],
          "stateMutability": "view",
          "type": "function"
        },
        {
          "inputs": [],
          "name": "isCreated",
          "outputs": [
            {
              "internalType": "bool",
              "name": "",
              "type": "bool"
            }
          ],
          "stateMutability": "view",
          "type": "function"
        },
        {
          "inputs": [],
          "name": "isEnded",
          "outputs": [
            {
              "internalType": "bool",
              "name": "",
              "type": "bool"
            }
          ],
          "stateMutability": "view",
          "type": "function"
        },
        {
          "inputs": [],
          "name": "isStarted",
          "outputs": [
            {
              "internalType": "bool",
              "name": "",
              "type": "bool"
            }
          ],
          "stateMutability": "view",
          "type": "function"
        },
        {
          "inputs": [],
          "name": "isTeacher",
          "outputs": [
            {
              "internalType": "bool",
              "name": "",
              "type": "bool"
            }
          ],
          "stateMutability": "view",
          "type": "function"
        },
        {
          "inputs": [
            {
              "internalType": "bytes32[]",
              "name": "proof",
              "type": "bytes32[]"
            },
            {
              "internalType": "bytes32",
              "name": "leaf",
              "type": "bytes32"
            }
          ],
          "name": "isValid",
          "outputs": [
            {
              "internalType": "bool",
              "name": "",
              "type": "bool"
            }
          ],
          "stateMutability": "view",
          "type": "function"
        },
        {
          "inputs": [],
          "name": "makeResultPublic",
          "outputs": [],
          "stateMutability": "nonpayable",
          "type": "function"
        },
        {
          "inputs": [],
          "name": "pause",
          "outputs": [],
          "stateMutability": "nonpayable",
          "type": "function"
        },
        {
          "inputs": [],
          "name": "paused",
          "outputs": [
            {
              "internalType": "bool",
              "name": "",
              "type": "bool"
            }
          ],
          "stateMutability": "view",
          "type": "function"
        },
        {
          "inputs": [],
          "name": "position",
          "outputs": [
            {
              "internalType": "string",
              "name": "",
              "type": "string"
            }
          ],
          "stateMutability": "view",
          "type": "function"
        },
        {
          "inputs": [
            {
              "internalType": "address",
              "name": "_teacher",
              "type": "address"
            }
          ],
          "name": "removeTeacher",
          "outputs": [],
          "stateMutability": "nonpayable",
          "type": "function"
        },
        {
          "inputs": [],
          "name": "root",
          "outputs": [
            {
              "internalType": "bytes32",
              "name": "",
              "type": "bytes32"
            }
          ],
          "stateMutability": "view",
          "type": "function"
        },
        {
          "inputs": [
            {
              "internalType": "string[]",
              "name": "_prop",
              "type": "string[]"
            }
          ],
          "name": "setUpElection",
          "outputs": [],
          "stateMutability": "nonpayable",
          "type": "function"
        },
        {
          "inputs": [],
          "name": "startElection",
          "outputs": [],
          "stateMutability": "nonpayable",
          "type": "function"
        },
        {
          "inputs": [
            {
              "internalType": "address",
              "name": "",
              "type": "address"
            }
          ],
          "name": "teachers",
          "outputs": [
            {
              "internalType": "bool",
              "name": "",
              "type": "bool"
            }
          ],
          "stateMutability": "view",
          "type": "function"
        },
        {
          "inputs": [],
          "name": "unpause",
          "outputs": [],
          "stateMutability": "nonpayable",
          "type": "function"
        },
        {
          "inputs": [
            {
              "internalType": "uint256",
              "name": "_candidateId",
              "type": "uint256"
            },
            {
              "internalType": "bytes32[]",
              "name": "hexProof",
              "type": "bytes32[]"
            }
          ],
          "name": "vote",
          "outputs": [],
          "stateMutability": "nonpayable",
          "type": "function"
        },
        {
          "inputs": [
            {
              "internalType": "address",
              "name": "",
              "type": "address"
            }
          ],
          "name": "voted",
          "outputs": [
            {
              "internalType": "bool",
              "name": "",
              "type": "bool"
            }
          ],
          "stateMutability": "view",
          "type": "function"
        },
        {
          "inputs": [
            {
              "internalType": "uint256",
              "name": "",
              "type": "uint256"
            }
          ],
          "name": "winnerIds",
          "outputs": [
            {
              "internalType": "uint256",
              "name": "",
              "type": "uint256"
            }
          ],
          "stateMutability": "view",
          "type": "function"
        },
        {
          "inputs": [],
          "name": "winnerVoteCount",
          "outputs": [
            {
              "internalType": "uint256",
              "name": "",
              "type": "uint256"
            }
          ],
          "stateMutability": "view",
          "type": "function"
        }
      ],
      "evm": {
        "bytecode": {
          "linkReferences": {},
          "object": "60806040523480156200001157600080fd5b506040516200659238038062006592833981810160405281019062000037919062000463565b60008060006101000a81548160ff021916908315150217905550620000857fcc6ab5e65d3d801abbceba22c952349e38c72f21bf6e3fba5e84bcff07d7685060001b6200042060201b60201c565b620000b97f1c6a8779b84407cc83edcb95b3f1e139fdab0942e11deebd4f2c8105a086d7f560001b6200042060201b60201c565b620000ed7f24ae89a02eb6a6e2449bd2af4d8722ff056eb0bf26b0f410763ec40c0aac6e5c60001b6200042060201b60201c565b33600060016101000a81548173ffffffffffffffffffffffffffffffffffffffff021916908373ffffffffffffffffffffffffffffffffffffffff160217905550620001627fb52cab833af640969d19da17017d09b4824934e017c732cd31e592eae591bf4a60001b6200042060201b60201c565b620001967f34827e6b7ac6e2d76c137b5fe97959e8ebc11aeb2ebb640339f5aea59ccc799660001b6200042060201b60201c565b6000600a60006101000a81548160ff021916908315150217905550620001e57f64bbf33ccc3f36a0cea4c82385134b8cc526679355da64f7a8c9eccc7431fba160001b6200042060201b60201c565b620002197fb0183e5b6c88c36f543d976c9a16c7c9712c7523e747d17a602c3edd8d5edda760001b6200042060201b60201c565b6000600a60016101000a81548160ff021916908315150217905550620002687f280dbc848dbe59284601f23d58e92ab79adcd87a13f1a18e1ec3543112144c0d60001b6200042060201b60201c565b6200029c7faa6c35dbf56394c60cec493d988dadbcdaacef7d611dd00ecc181ddef68804ed60001b6200042060201b60201c565b6000600a60026101000a81548160ff021916908315150217905550620002eb7ffea81a96d6bd594ae94b23c4b3bccf199e699cf744c5d0a029fb5dd90c34ac0960001b6200042060201b60201c565b6200031f7faee6c747fb244c72f38705bacda22728bc315b5bed9dffbf8a0e9495c73226e460001b6200042060201b60201c565b60006004819055506200035b7f5a29374a0f97f94dd6e09dff38282e43788a31a3ef558813767b4c404a95c9cc60001b6200042060201b60201c565b6200038f7f237bcb4815587ca3c7e0e083b13fd9ffa55f36bd0c88f33bbcbb7304cbd1eae860001b6200042060201b60201c565b80600381905550620003ca7f8fd1bd837e227a1c8f391d320d4a84450640b3e3e018b68845dc8ed0a9d4e35d60001b6200042060201b60201c565b620003fe7f774ab24b7edc2559d3b214ce0aaea1ec161cfe2f46a86cfc2afe0f10c9c1f60f60001b6200042060201b60201c565b6000600a60036101000a81548160ff0219169083151502179055505062000495565b50565b600080fd5b6000819050919050565b6200043d8162000428565b81146200044957600080fd5b50565b6000815190506200045d8162000432565b92915050565b6000602082840312156200047c576200047b62000423565b5b60006200048c848285016200044c565b91505092915050565b6160ed80620004a56000396000f3fe608060405234801561001057600080fd5b50600436106102065760003560e01c8063861743961161011a578063b8a20ed0116100ad578063e81018691161007c578063e81018691461053e578063ebf0c7171461055a578063f0a47f7814610578578063f51b41d2146105a8578063fd27419b146105c657610206565b8063b8a20ed0146104b6578063c64a4bad146104e6578063c9b0a2a714610504578063d1e53b8a1461052257610206565b80639adeddf8116100e95780639adeddf81461042e578063a4fd6f561461044c578063ad71f8dc1461046a578063aec2ccae1461048657610206565b806386174396146103c957806387f7b975146103e75780638e7ea5b21461040557806395adfc5e1461042457610206565b8063477383f31161019d5780635c975abb1161016c5780635c975abb1461036f57806362d73eb81461038d5780636c6c32d0146103975780637284e416146103a15780638456cb59146103bf57610206565b8063477383f31461030d57806352ff68461461032b578063544736e61461034757806359f784681461036557610206565b80633477ee2e116101d95780633477ee2e146102835780633bc6e309146102b75780633f4ba83a146102d3578063403d1312146102dd57610206565b806306a49fce1461020b57806309218e91146102295780632d35a8a2146102475780632f22850d14610265575b600080fd5b6102136105e2565b6040516102209190614e5f565b60405180910390f35b610231610a56565b60405161023e9190614ecb565b60405180910390f35b61024f610ae4565b60405161025c9190614efc565b60405180910390f35b61026d610aea565b60405161027a9190614efc565b60405180910390f35b61029d60048036038101906102989190614f57565b610af0565b6040516102ae959493929190614f84565b60405180910390f35b6102d160048036038101906102cc919061504a565b610cbe565b005b6102db610f80565b005b6102f760048036038101906102f29190614f57565b61123c565b6040516103049190614efc565b60405180910390f35b610315611260565b6040516103229190615092565b60405180910390f35b6103456004803603810190610340919061504a565b611273565b005b61034f611535565b60405161035c9190615092565b60405180910390f35b61036d6115d0565b005b610377611947565b6040516103849190615092565b60405180910390f35b61039561195d565b005b61039f611bde565b005b6103a9612176565b6040516103b69190614ecb565b60405180910390f35b6103c7612204565b005b6103d16124c0565b6040516103de9190615092565b60405180910390f35b6103ef61255b565b6040516103fc91906150bc565b60405180910390f35b61040d612581565b60405161041b929190615186565b60405180910390f35b61042c612767565b005b610436612aa2565b6040516104439190615092565b60405180910390f35b610454612ab5565b6040516104619190615092565b60405180910390f35b610484600480360381019061047f91906152eb565b612b50565b005b6104a0600480360381019061049b919061504a565b613040565b6040516104ad9190615092565b60405180910390f35b6104d060048036038101906104cb9190615490565b613060565b6040516104dd9190615092565b60405180910390f35b6104ee6130fb565b6040516104fb9190615092565b60405180910390f35b61050c6131d3565b6040516105199190615092565b60405180910390f35b61053c600480360381019061053791906155cd565b6131e6565b005b6105586004803603810190610553919061504a565b613773565b005b610562613a1b565b60405161056f9190615625565b60405180910390f35b610592600480360381019061058d919061504a565b613a21565b60405161059f9190615092565b60405180910390f35b6105b0613a41565b6040516105bd9190615092565b60405180910390f35b6105e060048036038101906105db919061569b565b613b1d565b005b60606106107f8a174fb0690d8c434b286029b037d598e9c1b8d69b54e1ec9e6fae4fba8c41e260001b613fbf565b61063c7f65dc83acc97684dbe33a6aaf26fcc2c91fc1ea1c8cfbdc1a6a04fa516a3e2ce760001b613fbf565b6106687f347dd330baa46ddf83c6275ec0b26c44643104e6108cd0a970a84b1aff41602c60001b613fbf565b600060045467ffffffffffffffff811115610686576106856151c0565b5b6040519080825280602002602001820160405280156106bf57816020015b6106ac614b74565b8152602001906001900390816106a45790505b5090506106ee7fa3a1700aa95fdf2c6d389c1b6d459dfacd2e6d2ce1bd9f4a4afba07dc4c2600760001b613fbf565b61071a7fb368053881362e37a66566215410950c5f7cdada683bddbdc873044ba35cbbcb60001b613fbf565b60005b6004548110156109f6576107537f90e558a59d75b07cc82284a09bcc44da30afac247b323a25517a44cacee3622c60001b613fbf565b61077f7fe30501473482d8a441c55fcf4c1969a70e411f1220198409962a4c41b9cd2dff60001b613fbf565b60006007600083815260200190815260200160002090506107c27fd12bddc6b1521066295d1e1bbe63123a1b68e3de8e6fcc308481caab38aab3e260001b613fbf565b6107ee7f85445f414eca5bd876f0e8c8c7e55a0f002cca1d6e422c01caf07277bbb20f6260001b613fbf565b806040518060a0016040529081600082015481526020016001820180546108149061572a565b80601f01602080910402602001604051908101604052809291908181526020018280546108409061572a565b801561088d5780601f106108625761010080835404028352916020019161088d565b820191906000526020600020905b81548152906001019060200180831161087057829003601f168201915b505050505081526020016002820180546108a69061572a565b80601f01602080910402602001604051908101604052809291908181526020018280546108d29061572a565b801561091f5780601f106108f45761010080835404028352916020019161091f565b820191906000526020600020905b81548152906001019060200180831161090257829003601f168201915b505050505081526020016003820180546109389061572a565b80601f01602080910402602001604051908101604052809291908181526020018280546109649061572a565b80156109b15780601f10610986576101008083540402835291602001916109b1565b820191906000526020600020905b81548152906001019060200180831161099457829003601f168201915b505050505081526020016004820154815250508383815181106109d7576109d661575c565b5b60200260200101819052505080806109ee906157ba565b91505061071d565b50610a237f5cbb09994105cfb2d83a4e59780a2e3a6e4fd346bc26906a67085696c211bc1e60001b613fbf565b610a4f7fabfe72b499cbfd8c9b125d105620fe9cd8ea1ac2bd8406d998f6078a9003031e60001b613fbf565b8091505090565b60018054610a639061572a565b80601f0160208091040260200160405190810160405280929190818152602001828054610a8f9061572a565b8015610adc5780601f10610ab157610100808354040283529160200191610adc565b820191906000526020600020905b815481529060010190602001808311610abf57829003601f168201915b505050505081565b60045481565b60095481565b6007602052806000526040600020600091509050806000015490806001018054610b199061572a565b80601f0160208091040260200160405190810160405280929190818152602001828054610b459061572a565b8015610b925780601f10610b6757610100808354040283529160200191610b92565b820191906000526020600020905b815481529060010190602001808311610b7557829003601f168201915b505050505090806002018054610ba79061572a565b80601f0160208091040260200160405190810160405280929190818152602001828054610bd39061572a565b8015610c205780601f10610bf557610100808354040283529160200191610c20565b820191906000526020600020905b815481529060010190602001808311610c0357829003601f168201915b505050505090806003018054610c359061572a565b80601f0160208091040260200160405190810160405280929190818152602001828054610c619061572a565b8015610cae5780601f10610c8357610100808354040283529160200191610cae565b820191906000526020600020905b815481529060010190602001808311610c9157829003601f168201915b5050505050908060040154905085565b610cc6611947565b15610d06576040517f08c379a0000000000000000000000000000000000000000000000000000000008152600401610cfd9061584f565b60405180910390fd5b610d327fd8f11a683391e8ef9aacf21d1e8099e1da819896a80a34ccb5905c0a4372fb3c60001b613fbf565b610d5e7fd926a409dfa6be33c9d7857b8ab42c29afe397106d83743a75f2efe639ff5f8a60001b613fbf565b610d8a7f01dbe1f6f3814d6e9d4b0ebad11be147efaa5893065b90e1bb04f3a24b25b1e860001b613fbf565b610db67fba6157d61e9b30815382d7948370b0966b0cc4967fc9deed9d3635b87fecd52f60001b613fbf565b3373ffffffffffffffffffffffffffffffffffffffff16600060019054906101000a900473ffffffffffffffffffffffffffffffffffffffff1673ffffffffffffffffffffffffffffffffffffffff161480610e62575060011515600560003373ffffffffffffffffffffffffffffffffffffffff1673ffffffffffffffffffffffffffffffffffffffff16815260200190815260200160002060009054906101000a900460ff161515145b610ea1576040517f08c379a0000000000000000000000000000000000000000000000000000000008152600401610e98906158e1565b60405180910390fd5b610ecd7feab754abfb2f39f44972655f49ac7d406c54c2b073adea87b2005d6ed6b8d49360001b613fbf565b610ef97f0f0dec143076cf2a25ae8f6440799b3e1275ea4ef27e2b86df0e72346324524a60001b613fbf565b610f257f99795938260be343f6b98336250ffc513d0ecdcd5ba5287e7d452a259281b26a60001b613fbf565b6001600560008373ffffffffffffffffffffffffffffffffffffffff1673ffffffffffffffffffffffffffffffffffffffff16815260200190815260200160002060006101000a81548160ff02191690831515021790555050565b610fac7fc61365800d58411e7de34c4751bc1f74c39888f765d6dfa6e20f22adcc11cf8760001b613fbf565b610fd87f6c048f714316212051acaaf0cd608a1eb3c0dd30bd6ef6318fbb3bde4d04f79460001b613fbf565b6110047fccb2803da287381692ffe02f4cda42bd99dbb97626de27c1c3e969c3858a7c0460001b613fbf565b6110307fd3fb966da526e6c6b828c3028cd875fe1164fb252981a769497cfb8bad6ce78360001b613fbf565b600060019054906101000a900473ffffffffffffffffffffffffffffffffffffffff1673ffffffffffffffffffffffffffffffffffffffff163373ffffffffffffffffffffffffffffffffffffffff16146110c0576040517f08c379a00000000000000000000000000000000000000000000000000000000081526004016110b790615973565b60405180910390fd5b6110ec7fc9dd64422090a84b4358816725e8f785ededdf052d5dc85d62df01a5113ce48c60001b613fbf565b6111187f9dbfa186a9abe2a7b8aa86036a54fa9cd29dd53437e7f01bee3d7d49593615fb60001b613fbf565b6111447f28788e5c9444ea19062ebb6d9da0dc4133346e2eb9d8a9f9890b03f38c55d92560001b613fbf565b6111707fc1f2f05a72013c155e8db264c5e782ce5fb1332af4ab0a4dbf23ec2d444b5c8d60001b613fbf565b61119c7f8c6601304668a6293b0b348625515c565e1ff373894dcedf25b768fea1a9ccf960001b613fbf565b6111a4613fc2565b6111d07f57641378a2b6662375cb8d9ef33684d81d2cb15b169a498bb5c654a1603a3c8d60001b613fbf565b6111fc7fd6480dbacf21101c8fdee5a8ea516058b615a83929f6388b33685cbb873526c460001b613fbf565b7f5db9ee0a495bf2e6ff9c91a7834c1ba4fdd244a5e8aa4e537bd38aeae4b073aa611225614063565b60405161123291906150bc565b60405180910390a1565b6008818154811061124c57600080fd5b906000526020600020016000915090505481565b600a60019054906101000a900460ff1681565b61127b611947565b156112bb576040517f08c379a00000000000000000000000000000000000000000000000000000000081526004016112b29061584f565b60405180910390fd5b6112e77f52aba296b1a285aab90eef2fe69f0451778e98c9c581f34b245383b39569ac7460001b613fbf565b6113137f4570d64e780b4ea8bbb8e1ea79e858b76c20d9e9127cd9e72bcef9e52239dd5c60001b613fbf565b61133f7f30e3056520e963c3f5c3b9718ca2ff788e709ba541c65a95cdba4cbdc320746a60001b613fbf565b61136b7ff9eaddfbaa1537da6bfab2d79592a29626d651c934fcd102423e672a6249a7d860001b613fbf565b3373ffffffffffffffffffffffffffffffffffffffff16600060019054906101000a900473ffffffffffffffffffffffffffffffffffffffff1673ffffffffffffffffffffffffffffffffffffffff161480611417575060011515600560003373ffffffffffffffffffffffffffffffffffffffff1673ffffffffffffffffffffffffffffffffffffffff16815260200190815260200160002060009054906101000a900460ff161515145b611456576040517f08c379a000000000000000000000000000000000000000000000000000000000815260040161144d906158e1565b60405180910390fd5b6114827fced0160ed6dc24b2a6249c3bd27d8603f06350faa8ae4f285c79bc9834189c1660001b613fbf565b6114ae7f3a2fb4ca7655d1cab0ed5945f1d042f53f1f84d2e2372d720c42dc9df22ae1fc60001b613fbf565b6114da7fef0ced56307a31cd3605705c54430a5ef4483efec947e7f8760115dccc8371c760001b613fbf565b6000600560008373ffffffffffffffffffffffffffffffffffffffff1673ffffffffffffffffffffffffffffffffffffffff16815260200190815260200160002060006101000a81548160ff02191690831515021790555050565b60006115637f67e0f1295d03631725b364e5b7deb02af935254e944c594e31bd35eedb09b50a60001b613fbf565b61158f7fa3c63ef2c6d970ee391e725659543776b9b172cea12bb1d3407f96000bf0809260001b613fbf565b6115bb7f5b1531256f8e22ce8cb2d338e0aa7512f2d192c91151878940b2cde31e19d14e60001b613fbf565b600a60009054906101000a900460ff16905090565b6115d8611947565b15611618576040517f08c379a000000000000000000000000000000000000000000000000000000000815260040161160f9061584f565b60405180910390fd5b6116447fc61365800d58411e7de34c4751bc1f74c39888f765d6dfa6e20f22adcc11cf8760001b613fbf565b6116707f6c048f714316212051acaaf0cd608a1eb3c0dd30bd6ef6318fbb3bde4d04f79460001b613fbf565b61169c7fccb2803da287381692ffe02f4cda42bd99dbb97626de27c1c3e969c3858a7c0460001b613fbf565b6116c87fd3fb966da526e6c6b828c3028cd875fe1164fb252981a769497cfb8bad6ce78360001b613fbf565b600060019054906101000a900473ffffffffffffffffffffffffffffffffffffffff1673ffffffffffffffffffffffffffffffffffffffff163373ffffffffffffffffffffffffffffffffffffffff1614611758576040517f08c379a000000000000000000000000000000000000000000000000000000000815260040161174f90615973565b60405180910390fd5b6117847fc9dd64422090a84b4358816725e8f785ededdf052d5dc85d62df01a5113ce48c60001b613fbf565b6117b07f9dbfa186a9abe2a7b8aa86036a54fa9cd29dd53437e7f01bee3d7d49593615fb60001b613fbf565b6117dc7f539cd77f75f8c4cdb8c091587e43bf9d68186b77e32dac34808d3848dfdcdd2460001b613fbf565b6118087f6d87c34ab0bd0d1542d369171bca0da7dd1d8d5e88f135043cccd09d51e8dd1e60001b613fbf565b6118347f9b37f1587c2a9dbb24dfdd910cdbfb93e64dad566ccf437a0f2b2fad3c11c0ae60001b613fbf565b6001600a60016101000a81548160ff02191690831515021790555061187b7fd98ebbe4b94b741dd89fc3d55f9fd5f649a1381cb210fc61e630b5ddd4cc9ef660001b613fbf565b6118a77fb1c3adeb85f5cd21080c972f9274f803be2914d6155b591068dc3ea262d74e1760001b613fbf565b6118af61406b565b50506118dd7f88a62da9d27120e2c377696d7495b0a577fe8c58ca19858fdd08bde5a28e5ce360001b613fbf565b6119097f2bf93793bb9377ce8f34ee07e3ca2b9e69c11f6f087710032b8a5ff463df9b1060001b613fbf565b7f38d8ebbbb4803f034f19b4cf2f19bfb84cc5dea177696c1f80a19357d5602e04600860095460405161193d929190615a69565b60405180910390a1565b60008060009054906101000a900460ff16905090565b611965611947565b156119a5576040517f08c379a000000000000000000000000000000000000000000000000000000000815260040161199c9061584f565b60405180910390fd5b6119d17fc61365800d58411e7de34c4751bc1f74c39888f765d6dfa6e20f22adcc11cf8760001b613fbf565b6119fd7f6c048f714316212051acaaf0cd608a1eb3c0dd30bd6ef6318fbb3bde4d04f79460001b613fbf565b611a297fccb2803da287381692ffe02f4cda42bd99dbb97626de27c1c3e969c3858a7c0460001b613fbf565b611a557fd3fb966da526e6c6b828c3028cd875fe1164fb252981a769497cfb8bad6ce78360001b613fbf565b600060019054906101000a900473ffffffffffffffffffffffffffffffffffffffff1673ffffffffffffffffffffffffffffffffffffffff163373ffffffffffffffffffffffffffffffffffffffff1614611ae5576040517f08c379a0000000000000000000000000000000000000000000000000000000008152600401611adc90615973565b60405180910390fd5b611b117fc9dd64422090a84b4358816725e8f785ededdf052d5dc85d62df01a5113ce48c60001b613fbf565b611b3d7f9dbfa186a9abe2a7b8aa86036a54fa9cd29dd53437e7f01bee3d7d49593615fb60001b613fbf565b611b697f0509fe1e5e99dc4bb822904e8a3ba520c697b5b577a3996b613bba21e9086dec60001b613fbf565b611b957fd94888d3eac30e7f71353ed0a8b5ed617daed4db88671ecc856a6ac4e224373660001b613fbf565b611bc17f685d0e0940fd8c835e83374ff61d4860975e1347889196ba1810f215ba24787a60001b613fbf565b6001600a60006101000a81548160ff021916908315150217905550565b611c0a7fc61365800d58411e7de34c4751bc1f74c39888f765d6dfa6e20f22adcc11cf8760001b613fbf565b611c367f6c048f714316212051acaaf0cd608a1eb3c0dd30bd6ef6318fbb3bde4d04f79460001b613fbf565b611c627fccb2803da287381692ffe02f4cda42bd99dbb97626de27c1c3e969c3858a7c0460001b613fbf565b611c8e7fd3fb966da526e6c6b828c3028cd875fe1164fb252981a769497cfb8bad6ce78360001b613fbf565b600060019054906101000a900473ffffffffffffffffffffffffffffffffffffffff1673ffffffffffffffffffffffffffffffffffffffff163373ffffffffffffffffffffffffffffffffffffffff1614611d1e576040517f08c379a0000000000000000000000000000000000000000000000000000000008152600401611d1590615973565b60405180910390fd5b611d4a7fc9dd64422090a84b4358816725e8f785ededdf052d5dc85d62df01a5113ce48c60001b613fbf565b611d767f9dbfa186a9abe2a7b8aa86036a54fa9cd29dd53437e7f01bee3d7d49593615fb60001b613fbf565b611da27fc1c4b225ebe7491342da42441a5fa896e9aecad3bfca40bc9979493f60ab7bcb60001b613fbf565b611dce7ff166cb8eb0dccef39b57656388ea6f6021a27060f3424486dd9abfff75d52c8e60001b613fbf565b611dfa7f647f8565636a78af1b1a8b9400032d19db4b57f05b6335876b41002011fe75a460001b613fbf565b6000600a60026101000a81548160ff021916908315150217905550611e417fe4c352d770f91ec3bae11894ac150a32d9a6cb4da8ef0beea2601aca1238d17460001b613fbf565b611e6d7f443abaf965ff378f7f93f7126f8ef7ea116c10a436b40344c5b6664074b5888760001b613fbf565b33600060016101000a81548173ffffffffffffffffffffffffffffffffffffffff021916908373ffffffffffffffffffffffffffffffffffffffff160217905550611eda7ff1d65da40cd7da7cd1d29d0f52b82a06cfdd3f1889285c71aa3c5feaa406241660001b613fbf565b611f067fa00c272cf75a8e59d101b8a4e69e45781bc21011ebe04bddadb1075faf299d8260001b613fbf565b6000600a60006101000a81548160ff021916908315150217905550611f4d7f5ae36ab7e907aa1aeb4ca0251f16c35c417d7b589c774a83f06d1bcc8882b74c60001b613fbf565b611f797f458faf568390ebdcc623372ab15850c6afc5861a1ce2a9a66e1dc8d43e004ca560001b613fbf565b6000600a60016101000a81548160ff021916908315150217905550611fc07f4e682562efcf2b4db1db442268e4f7f62bedb4f9cea17c42904e1fe44d2f0f4560001b613fbf565b611fec7f2c39c8babfadc7095ca6f199222200ab0de89d30c24aabe11552c770fce0620860001b613fbf565b6000600a60026101000a81548160ff0219169083151502179055506120337ff6ae938701626db699221d94f02e273855c88ffa93c2dda398f1621835a0b46e60001b613fbf565b61205f7f72e3c4fa2bdc5c4f20b12839766a54882affff3548d8307fae762780c35c18ba60001b613fbf565b60006004819055506120937ffd14a535a0bbc1c498870db62231018fdbec1c97b0fb4560795f912471f88bda60001b613fbf565b6120bf7f5e167ebe276c8633fea3eca617d845d29aef3ce367def3b48f1de05bd95e589e60001b613fbf565b6000600a60036101000a81548160ff0219169083151502179055506121067f60905a303297992b7dd411b3bc183e501c767b55f7e1d46f0003049b4959a53460001b613fbf565b600860006121149190614ba3565b6121407f0eb11335a755f683bf2199128a7d82f797a901c99ec6fded58e7e75a272accd360001b613fbf565b61216c7f7e2e77ca21aa1b46b9b0aad6729d34129f7d6c650038a359e5a0d7790112444460001b613fbf565b6000600981905550565b600280546121839061572a565b80601f01602080910402602001604051908101604052809291908181526020018280546121af9061572a565b80156121fc5780601f106121d1576101008083540402835291602001916121fc565b820191906000526020600020905b8154815290600101906020018083116121df57829003601f168201915b505050505081565b6122307fc61365800d58411e7de34c4751bc1f74c39888f765d6dfa6e20f22adcc11cf8760001b613fbf565b61225c7f6c048f714316212051acaaf0cd608a1eb3c0dd30bd6ef6318fbb3bde4d04f79460001b613fbf565b6122887fccb2803da287381692ffe02f4cda42bd99dbb97626de27c1c3e969c3858a7c0460001b613fbf565b6122b47fd3fb966da526e6c6b828c3028cd875fe1164fb252981a769497cfb8bad6ce78360001b613fbf565b600060019054906101000a900473ffffffffffffffffffffffffffffffffffffffff1673ffffffffffffffffffffffffffffffffffffffff163373ffffffffffffffffffffffffffffffffffffffff1614612344576040517f08c379a000000000000000000000000000000000000000000000000000000000815260040161233b90615973565b60405180910390fd5b6123707fc9dd64422090a84b4358816725e8f785ededdf052d5dc85d62df01a5113ce48c60001b613fbf565b61239c7f9dbfa186a9abe2a7b8aa86036a54fa9cd29dd53437e7f01bee3d7d49593615fb60001b613fbf565b6123c87feae8e141b4dc5ee1ec3fa9440f45a95be52d6eedbb86206228965bfbb16c6ede60001b613fbf565b6123f47fa2210f6de7f686d7d5ba9944f7b94ccc03a216161bdce2b50697410c562b41aa60001b613fbf565b6124207fc5ec14fb9a2b00f3712cd29de0f531c266c6fc337e4d871847053fc264ae74de60001b613fbf565b612428614570565b6124547f7d6d1a41dcd407c213f1f7622d60f9d9c15f915af936918ae8b3a9cea7fc4cdb60001b613fbf565b6124807f69065ee662199b8c69f2aca7a21d4ce9b5f6d1573c891a6e722d0957f81f022560001b613fbf565b7f62e78cea01bee320cd4e420270b5ea74000d11b0c9f74754ebdbfc544b05a2586124a9614063565b6040516124b691906150bc565b60405180910390a1565b60006124ee7f0fcb49922ecb56b47c45c8be27aeb49621fd0d364c7e88bcc10d4e783067ad0460001b613fbf565b61251a7fb6c18b71270308205508530b9848e075ede2a048ce6cacbc880e97330c19bf5460001b613fbf565b6125467fa92ce9aa72570f37b18f188a2651aa0f0c21f6e2205252be6aafc9a5b22e92ae60001b613fbf565b600a60029054906101000a900460ff16905090565b600060019054906101000a900473ffffffffffffffffffffffffffffffffffffffff1681565b600060606125b17fce92535b45d0b6f01484e9f53faa00df66614acf5cd8cdb5d7f13e83e79fb91760001b613fbf565b6125dd7f18fb7166668e00a41810495dbc6c09040d75e487d8df4257f41a74f633596cd660001b613fbf565b6126097fa02176f0d5cb7e8f6658c494bf64139d5e97b12dbe855eabd48fc0e9be4ab74a60001b613fbf565b6126357f8373dd0064f7d88b7f36eee113c1377fe15eb61fae9dad1dc3d5d414199459ee60001b613fbf565b600a60039054906101000a900460ff16612684576040517f08c379a000000000000000000000000000000000000000000000000000000000815260040161267b90615ae5565b60405180910390fd5b6126b07ffafad7bca76435d2d5eedfc634af02f01f189a3d326910d31a9b0fc4b96b247660001b613fbf565b6126dc7fc148c3416430e495184aa7e5f85fac527c54a366326f87b46b0c9a7aac021b4260001b613fbf565b6127087f9ace2e23f110f2c2476b0d524036c4bf1ec765e5c3cb793462562f5b4e2b86ac60001b613fbf565b60095460088080548060200260200160405190810160405280929190818152602001828054801561275857602002820191906000526020600020905b815481526020019060010190808311612744575b50505050509050915091509091565b6127937fec74d5e9941ea32ac21bed40012c6d0c624a62397164316d0c27a03a6b30f8d760001b613fbf565b6127bf7f420523891afa074e2fd9efb2ce4efac8d2cab154148a840a4dfd7dbdaa685b0960001b613fbf565b6127eb7fc3f68668bf50915f50c07522cbb1f1ae8d86f02ec729ef5b2eae43940f261c0660001b613fbf565b6128177fc211cf234009379d72ed93b8365e460e6e61c55280b9a6bc1e12626b376d8c5560001b613fbf565b600a60019054906101000a900460ff16612866576040517f08c379a000000000000000000000000000000000000000000000000000000000815260040161285d90615b77565b60405180910390fd5b6128927fbb6210a5e77fe68ec8e8c67a33bb2c85f26bf80080423cada6f1a85b91c6a9af60001b613fbf565b6128be7f72d1e71d6c24a00abe8548427d42c3ff581efeffc8ff3c07964b39830aac82e760001b613fbf565b6128ea7fdc8c41a43947cdcc1c256831db51fd00d4bb075ac4a8d90cbc3b942ca60b37d960001b613fbf565b6129167f7843408cf570e0014751b328e0e8a5839a6d75e284332d099e8253614e97708760001b613fbf565b3373ffffffffffffffffffffffffffffffffffffffff16600060019054906101000a900473ffffffffffffffffffffffffffffffffffffffff1673ffffffffffffffffffffffffffffffffffffffff1614806129c2575060011515600560003373ffffffffffffffffffffffffffffffffffffffff1673ffffffffffffffffffffffffffffffffffffffff16815260200190815260200160002060009054906101000a900460ff161515145b612a01576040517f08c379a00000000000000000000000000000000000000000000000000000000081526004016129f890615c09565b60405180910390fd5b612a2d7f8dc851c038f2a75774a510afa62166bad9cdfba1ea9753f623ea284c052aa12060001b613fbf565b612a597ff0dccdb760027f1c7ac2ab28ba5c4319ad78ea2d22bc087c028f46b6cff6582460001b613fbf565b612a857f1026703ff7a4e54cc550db4eb347d690922ac067672fa0bdf5741d3506070b1360001b613fbf565b6001600a60036101000a81548160ff021916908315150217905550565b600a60029054906101000a900460ff1681565b6000612ae37f905397cd83c0a0c8e00ee1cda927ace007910bc92abc3e3102583b275fef7ce560001b613fbf565b612b0f7ff10368458a1e8950f55708f9d928976985fd6a397515e608fbc35721f47bc11160001b613fbf565b612b3b7fd7f1e7c923c834b0cd9f7ae6f2ec5dfded676e8b0c9d801158b264f0d24a8d9a60001b613fbf565b600a60019054906101000a900460ff16905090565b612b58611947565b15612b98576040517f08c379a0000000000000000000000000000000000000000000000000000000008152600401612b8f9061584f565b60405180910390fd5b612bc47f2757f444343bcf165c7c879a1ad14e8184e216f8ae1351feeb45777be5478fc560001b613fbf565b612bf07f051fab2ffd12f89504c5879306ab5485d16310d46507eab23210ce88f0f42fec60001b613fbf565b612c1c7fe0d3a8a961f2a7a18994ab8dfe35d1df998f28b79bcde1a79aae5c48ee71011060001b613fbf565b612c487f5f3483e5530fc89c17f8385258c17b7b9f6fe9d8a0749b06b762e58f8959bdca60001b613fbf565b600a60009054906101000a900460ff1615612c98576040517f08c379a0000000000000000000000000000000000000000000000000000000008152600401612c8f90615c75565b60405180910390fd5b612cc47feee8ad60c650688b85674c06bace49f696fd8855d7b3960bef134c418bcec19e60001b613fbf565b612cf07fe589a0492b5efb3d69c62106c4e489736a5492eebc34447ce9987e0789adf0f360001b613fbf565b612d1c7f3e86f88c4efd3c7866a80f63e83788e775779c1fa9ab59e1adf7eb67c0f9da0c60001b613fbf565b612d487f1d830ed6ab7d9f5a54ad467677b8108137d686e7931b1333e4bbd0c41d42c41960001b613fbf565b3373ffffffffffffffffffffffffffffffffffffffff16600060019054906101000a900473ffffffffffffffffffffffffffffffffffffffff1673ffffffffffffffffffffffffffffffffffffffff161480612df4575060011515600560003373ffffffffffffffffffffffffffffffffffffffff1673ffffffffffffffffffffffffffffffffffffffff16815260200190815260200160002060009054906101000a900460ff161515145b612e33576040517f08c379a0000000000000000000000000000000000000000000000000000000008152600401612e2a906158e1565b60405180910390fd5b612e5f7fe4da5737da703f921c09a16433e4c55b06a02be029c9b6ded6e106fedd91ea3260001b613fbf565b612e8b7fcf2a3fbb94cefa12bd738dd4217306af8bbedd85db691383986c64c0ddfa588f60001b613fbf565b612eb77fafd1f187f5d32eeb6787482fe4956ccc358d762d2be8e9d03d16e9576fd4ab3560001b613fbf565b6040518060a0016040528060045481526020018481526020018381526020018281526020016000815250600760006004548152602001908152602001600020600082015181600001556020820151816001019080519060200190612f1c929190614bc4565b506040820151816002019080519060200190612f39929190614bc4565b506060820151816003019080519060200190612f56929190614bc4565b5060808201518160040155905050612f907fa36cf51c7d8fb9b0d8b6876cfb9cd81f6c9d02c1cf2df89e2dca76993030f25a60001b613fbf565b612fbc7fc3f7e04aecb87a36c82cc72e6472aa3b1159f84dc48f254560a68c5db9c218e260001b613fbf565b7f78d27a3c512303f604b46bc28acc0ca45abe6420172a017c5a6dc585821eb63960045484604051612fef929190615c95565b60405180910390a16130237faf4e5dcf3cc9a94f3d629ad108977ee247c7c9ffc6153ca01c98ec895605c11060001b613fbf565b60046000815480929190613036906157ba565b9190505550505050565b60066020528060005260406000206000915054906101000a900460ff1681565b600061308e7f85099047f48d4f172ea26128c5ad3bacb7c038d1bdcc4a4da06973edb42e31a060001b613fbf565b6130ba7fbdc313912be04859411b4daa50c3be9b4ab6cc059511441edbd0c2a852a2099860001b613fbf565b6130e67f4a6dbb52f1d19f49f1521498189d17e67b23d4a5e656d8ad33f5d108d0d0b5dc60001b613fbf565b6130f38360035484614612565b905092915050565b60006131297f3270b14e1b2239186b3c058ec7dbc5ce62f3adc9f41b6ba75756943bdf2656c460001b613fbf565b6131557fed71637089659f55bf47958140812e02729363e434ee41e08d31d16128ce239360001b613fbf565b6131817f5d967bbf7fe8fcd2f3a4b25c58c6aeb5717ebb43d26b7caffc6ae325de6d497260001b613fbf565b600560003373ffffffffffffffffffffffffffffffffffffffff1673ffffffffffffffffffffffffffffffffffffffff16815260200190815260200160002060009054906101000a900460ff16905090565b600a60009054906101000a900460ff1681565b6131ee611947565b1561322e576040517f08c379a00000000000000000000000000000000000000000000000000000000081526004016132259061584f565b60405180910390fd5b61325a7f72c2d37252859b72258e758cad3d046dbbf6e7d52d3cde26b4c6d69b3a9b9cad60001b613fbf565b6132867faee10ea6d3b32b03a0e99bf9992cb97b62b67e53e151c8be9f078d4753704a9960001b613fbf565b6132b27f11afb7b47f127b8ed300add7baac6e534cdfc245f6d6640c6910521b1389548d60001b613fbf565b6132de7f2452d9fe2836ae0c93eef00b6e11c719792aae0330b6a5931bd7c1b2a728855960001b613fbf565b600a60009054906101000a900460ff161561332e576040517f08c379a000000000000000000000000000000000000000000000000000000000815260040161332590615c75565b60405180910390fd5b61335a7f7b5ce290e2126e4efa1aea78288087f2e46deb3f6c720deb7f7988d6843196cb60001b613fbf565b6133867f8f46ac4700bee3952f5a316871665e3fbfa400bbb6d4c38f8cc961a1aa3c2ff060001b613fbf565b6133b27f5af6065b816343cc187ed5dfe43049e5df712e679f9f5cbc34036c39ac68942360001b613fbf565b6133de7f862a4cc0f23c5fa95f48d618ce0779ed8f5addfd59a7dcbe5dd20b02bc40ba1260001b613fbf565b6000815111613422576040517f08c379a000000000000000000000000000000000000000000000000000000000815260040161341990615d37565b60405180910390fd5b61344e7f1e14111941b018f4a2059be14ec643a6d8b76032a36de716f55b45b498de367860001b613fbf565b61347a7fa09f13fbb6893ddd3307f6db264f94c0805553b71cc20a018ba6d56a3752fcf960001b613fbf565b6134a67f6d7a9ef6bd96f259a50305cf922eaa6b0a7f2f9caca778c9cf055fa64e05563b60001b613fbf565b6134d27f6dd043199322acc8fdd456891cabb69036f55b3071abadfd80191221dac4bef460001b613fbf565b3373ffffffffffffffffffffffffffffffffffffffff16600060019054906101000a900473ffffffffffffffffffffffffffffffffffffffff1673ffffffffffffffffffffffffffffffffffffffff16148061357e575060011515600560003373ffffffffffffffffffffffffffffffffffffffff1673ffffffffffffffffffffffffffffffffffffffff16815260200190815260200160002060009054906101000a900460ff161515145b6135bd576040517f08c379a00000000000000000000000000000000000000000000000000000000081526004016135b4906158e1565b60405180910390fd5b6135e97f99cc24e8b8355609470bf896325c41f0b52cb93d339618d8b4ddfebfead2178660001b613fbf565b6136157f2254559f82f4e559c70aec15f43366bb36861e8300080397d3ebbea8ad451a6860001b613fbf565b6136417f510940e417d4f107070f10f9fcee133b9a984a6bcba5041a00f4f007d28ce8e160001b613fbf565b806000815181106136555761365461575c565b5b602002602001015160019080519060200190613672929190614bc4565b5061369f7f32b338376d870ee033af8e1968a71c8cbee3edc0bf5e943560f2841e19a6774260001b613fbf565b6136cb7f45a910ad6dc9f3baaa05b3ffde7dbb3f487af39cbeecf2d2a2b70a71d87725f160001b613fbf565b806001815181106136df576136de61575c565b5b6020026020010151600290805190602001906136fc929190614bc4565b506137297f0ad9ccfc2b0f9669c1411d732e52f0a8144d69372538eef25f27789221e4537a60001b613fbf565b6137557ffc18598f6656b22c19660f08a6ceb0e64dddc096ef8118cd56a17d112812524060001b613fbf565b6001600a60026101000a81548160ff02191690831515021790555050565b61377b611947565b156137bb576040517f08c379a00000000000000000000000000000000000000000000000000000000081526004016137b29061584f565b60405180910390fd5b6137e77fc61365800d58411e7de34c4751bc1f74c39888f765d6dfa6e20f22adcc11cf8760001b613fbf565b6138137f6c048f714316212051acaaf0cd608a1eb3c0dd30bd6ef6318fbb3bde4d04f79460001b613fbf565b61383f7fccb2803da287381692ffe02f4cda42bd99dbb97626de27c1c3e969c3858a7c0460001b613fbf565b61386b7fd3fb966da526e6c6b828c3028cd875fe1164fb252981a769497cfb8bad6ce78360001b613fbf565b600060019054906101000a900473ffffffffffffffffffffffffffffffffffffffff1673ffffffffffffffffffffffffffffffffffffffff163373ffffffffffffffffffffffffffffffffffffffff16146138fb576040517f08c379a00000000000000000000000000000000000000000000000000000000081526004016138f290615973565b60405180910390fd5b6139277fc9dd64422090a84b4358816725e8f785ededdf052d5dc85d62df01a5113ce48c60001b613fbf565b6139537f9dbfa186a9abe2a7b8aa86036a54fa9cd29dd53437e7f01bee3d7d49593615fb60001b613fbf565b61397f7f9e1bb5315f94c9aa1a1cb57bf207c894244929a9d7b82c90706e828dded6170760001b613fbf565b6139ab7fe317966e63338e812348c7748947cece9d022b929b604f31faaa8b8f39c5ff2060001b613fbf565b6139d77f7ea2f91b44b3471592202a59559efc29bdbd4e67105ea0a7a79354b9fff7c1b960001b613fbf565b80600060016101000a81548173ffffffffffffffffffffffffffffffffffffffff021916908373ffffffffffffffffffffffffffffffffffffffff16021790555050565b60035481565b60056020528060005260406000206000915054906101000a900460ff1681565b6000613a6f7fa8376455167799a5f7783c9a2746fd868015caadded1496a6d3285313dd5824a60001b613fbf565b613a9b7f3d99decd8dc16d966e03cb906537c21473376b91051ddf053214e985effb432c60001b613fbf565b613ac77f9ac8d3a927f4e73e1d754d8ab32f5e300854da6298b98a2f43560d168359746e60001b613fbf565b3373ffffffffffffffffffffffffffffffffffffffff16600060019054906101000a900473ffffffffffffffffffffffffffffffffffffffff1673ffffffffffffffffffffffffffffffffffffffff1614905090565b613b497f127ed3cdc677c3b4df3882a0324ee9814daa9a4594d474ead6861d701351c72d60001b613fbf565b613b757fff62d83e44367c49b2c52660f37ee3c4671b3a81ae1d2c892920ef566ff0e3ae60001b613fbf565b613ba17fadbccd420bd42d67d7af9d01c4cde18692d5dc297d85010bec7a5e7d9709ee5e60001b613fbf565b613bcd7f82fd32ad4f6f90946ac741c3881c887aca20cd82a4fe5f2c46bd57f8e864719d60001b613fbf565b600a60019054906101000a900460ff1615613c1d576040517f08c379a0000000000000000000000000000000000000000000000000000000008152600401613c1490615da3565b60405180910390fd5b613c497faa541832e7c45b1f9cdbe5e11cba12db426dfaaace61adad4b3b7d0e6feec7bd60001b613fbf565b613c757f3cf9fa72d3cc65eb6f163983b402ad9ed5daceabde5e63d0443e7b91dd9fd19860001b613fbf565b613ca17fbc5e837481a62a503f356e17536aaa01dfb927083649dc13e0ef7a8c109ab0dc60001b613fbf565b613ccd7f1a0fb6d0eb0b2ca8ecab5dd8ee2640ca654fa3b5e4bf96ccfa3bc887d2d7cc8d60001b613fbf565b613cf97f2400b544cfa17e229110af76130e00ba3670111d0b816bddbd49ff01cebf902360001b613fbf565b613d257f8290af1050945caa0784190b1bb8285e221df0ace2b47cb2887242956b4932ef60001b613fbf565b600a60009054906101000a900460ff16613d74576040517f08c379a0000000000000000000000000000000000000000000000000000000008152600401613d6b90615e35565b60405180910390fd5b613da07f9105da7c679f65e4eb53af1d078c4a53e6b92a94779edaf83d18b8dbc8a98b5f60001b613fbf565b613dcc7fa4f8ebfa0bcf3c4b117d74552e050fe22086d78c0fdb2c01888b4b4d331127b260001b613fbf565b613df87fc647480530bf1611a22cc371debcf11fe5ab94339ee4c088267dc4e3c33758a460001b613fbf565b613e247f2025db0bb6f4a8f822f3952c8c841474e504accb94a1a00ae922d3caa9809e0f60001b613fbf565b613e507f6d593b45c8394af37f38f40a61a682bcd1a2be9711d0016690c28c46a6c9fb3f60001b613fbf565b613e7c7f7b3e58bca8d27cfdfdd32a7137ed7cff404a4dcba0663040ee3a2940c3d6979260001b613fbf565b613eed828280806020026020016040519081016040528093929190818152602001838360200280828437600081840152601f19601f8201169050808301925050505050505033604051602001613ed29190615e9d565b60405160208183030381529060405280519060200120613060565b613f2c576040517f08c379a0000000000000000000000000000000000000000000000000000000008152600401613f2390615f2a565b60405180910390fd5b613f587fdd7c0fdd58316191f1c22678a5d284af1030d9454b09b1c9bafbcd0b5c73186c60001b613fbf565b613f847fa55e6a8ec9baed4e8ed0921bfa57d17f1a4a399b7774667091d52f68b1eea56760001b613fbf565b613fb07f027e02d85cceb11e4887beada716fb0ccb2cd0d2926f32a400178f24a685f37f60001b613fbf565b613fba8333614629565b505050565b50565b613fca611947565b614009576040517f08c379a000000000000000000000000000000000000000000000000000000000815260040161400090615f96565b60405180910390fd5b60008060006101000a81548160ff0219169083151502179055507f5db9ee0a495bf2e6ff9c91a7834c1ba4fdd244a5e8aa4e537bd38aeae4b073aa61404c614063565b60405161405991906150bc565b60405180910390a1565b600033905090565b60006060614077611947565b156140b7576040517f08c379a00000000000000000000000000000000000000000000000000000000081526004016140ae9061584f565b60405180910390fd5b6140e37fd11fdc5641f7cbe075c8ad980cf89883efdf5b6f91a5a45c7114cf7f7bb5e38d60001b613fbf565b61410f7fdb606ea45577e0be5892ab89a546c8ca9383e085900dd2e1797c80d5b30b8a5560001b613fbf565b61413b7fef7d2e08b9420206ede230affb62d823701d506d59e50f5554cfe35ae320f2b260001b613fbf565b60005b6004548110156144b8576141747fd94e7de7e68105b1fe45e57b563c75534277de43c7e915601e1a359f2292f7cf60001b613fbf565b6141a07f7f7843b569c53a9ac84b94f0a731be611650e6622f042812c0e1829c7ae6562660001b613fbf565b60095460076000838152602001908152602001600020600401541115614337576141ec7f58aa9e500e4bc3a18fa1d8c8a735ce29d8be5c1d025b9efc4a0b28f4a69a6eed60001b613fbf565b6142187f776f85bdd4b681a276cebc60fbca32a5ae97a436113f7aa2fb23ba77ec10aa6760001b613fbf565b6142447fbd8a0f331962852d9eb2c25e7ea53c949cbb7cea27be5aa6a0053a1e2edfc47260001b613fbf565b600760008281526020019081526020016000206004015460098190555061428d7f713573625bbcf64802e44cfa4a93b4b2cabae1e0c119500c608f180c9a30a88c60001b613fbf565b6008600061429b9190614ba3565b6142c77f7761183dadb26d3ef391749c2c80e03b9ac2be392547aa76adc8c973395783f560001b613fbf565b6142f37fe65b0f9fc8e8a705bfecf14204fe594ee1686129c5019f49980d8ef547089c1e60001b613fbf565b6008600760008381526020019081526020016000206000015490806001815401808255809150506001900390600052602060002001600090919091909150556144a5565b6143637fdeb881a30eb04ec04e14262c1122edbd0158c7bee73573217e13df7a6c8422cc60001b613fbf565b61438f7f491c80533d310d9b8e0cca82bc4b553a2a50537315c435d6e3e33e71d4a9780c60001b613fbf565b60095460076000838152602001908152602001600020600401541415614477576143db7f31968501416019c5b26d222909d8a7802849f3aa8c787d56cfa0ae4ee85cca8d60001b613fbf565b6144077fb1b7b6fb493b998da88c06c370b77cfc1f647dcb1c8baba832ba8bc53e89453b60001b613fbf565b6144337fd73bf06c14ec09d5fabfc335b622383807409f0abd5e132c2cffab9de0477f2d60001b613fbf565b6008600760008381526020019081526020016000206000015490806001815401808255809150506001900390600052602060002001600090919091909150556144a4565b6144a37f5906960ee68a3e0166cebbaa0047c9d1c311d754684131aacb69915dd426956060001b613fbf565b5b5b80806144b0906157ba565b91505061413e565b506144e57fd988c72d90b9ba41322a652df8af204a52f491df9c4c83da1dab3b07422d662260001b613fbf565b6145117f7909c796fecfafa9449736b1930efddc3d54278e3237cd955c5df949f6fc349760001b613fbf565b60095460088080548060200260200160405190810160405280929190818152602001828054801561456157602002820191906000526020600020905b81548152602001906001019080831161454d575b50505050509050915091509091565b614578611947565b156145b8576040517f08c379a00000000000000000000000000000000000000000000000000000000081526004016145af9061584f565b60405180910390fd5b60016000806101000a81548160ff0219169083151502179055507f62e78cea01bee320cd4e420270b5ea74000d11b0c9f74754ebdbfc544b05a2586145fb614063565b60405161460891906150bc565b60405180910390a1565b60008261461f8584614ae8565b1490509392505050565b614631611947565b15614671576040517f08c379a00000000000000000000000000000000000000000000000000000000081526004016146689061584f565b60405180910390fd5b8161469e7f5baa34f426a5fd854ac12c565c454f0e035337ed797fb65c8fb0f3ce6ad3dd1060001b613fbf565b6146ca7f729a02e7ea63b14b17257a38e48bf5fb2306e6e6621b1f9ab95eb759dc671c3960001b613fbf565b6146f67f557c7f34d0c37c90d6309150a53bf4c53149e61ce0bb3745ccc153256f49816e60001b613fbf565b6147227fe5df44ebae7e990ba0b6516e80f2aa0e040a792d68447286faffc5ed917bfa8360001b613fbf565b60045481108015614734575060008110155b614773576040517f08c379a000000000000000000000000000000000000000000000000000000000815260040161476a90616002565b60405180910390fd5b61479f7f04414778bbd28a836711f117e56ea632a9642b313567a0ff15732fac3954332360001b613fbf565b6147cb7f37147b97543546b5e9a32b0214d5e37212c75caa0931495c465d59ac04bd2b0760001b613fbf565b6147f77f0975c750226379d8e306b1cb38d23cf769884ad24d4a9239b8420e07289b843060001b613fbf565b6148237f57f5a17dd93d2f433b98d7291ccab2ea3b364f7f2df5a0396e632fb0a7fca96060001b613fbf565b61484f7fe830c0ee140fbbbc436032dc4ce74bd2d88f47070d3b8087f3b8b7c31c8538a860001b613fbf565b61487b7f2e81cca64ca6d6ab4ca06c40af7e18ae6e9cd6a37361c0931afaa89efa28505460001b613fbf565b600660008373ffffffffffffffffffffffffffffffffffffffff1673ffffffffffffffffffffffffffffffffffffffff16815260200190815260200160002060009054906101000a900460ff1615614908576040517f08c379a00000000000000000000000000000000000000000000000000000000081526004016148ff9061606e565b60405180910390fd5b6149347f2e36c2aedf7468fbaaba247f8cafdadfbb4c967f336c17fdab6ec386129c178c60001b613fbf565b6149607fb05fc425ef53341246609de4eb849e0eb5049a64251509c4e358adf537a6b98b60001b613fbf565b61498c7f082c10ba22f146a66f8b226a850dd3314ece4f503137b8b50d93c7dc07b98e0860001b613fbf565b6001600660008473ffffffffffffffffffffffffffffffffffffffff1673ffffffffffffffffffffffffffffffffffffffff16815260200190815260200160002060006101000a81548160ff021916908315150217905550614a107f060dfe5f924a445355811c299be4e1cf7b18a8d116987905341223ffc0d2ebd660001b613fbf565b600760008481526020019081526020016000206004016000815480929190614a37906157ba565b9190505550614a687fe97062e62347a347ce9f89ca4532670ff1ee6c014d411f2f0a2d82d3a9d32e4260001b613fbf565b614a947f579336b80875a4b5d62d2d2dbe5d2b35ece70268c608b84d96234d695065ee0c60001b613fbf565b7fd3ebd88818d034d26c5d98bcef9c7c45207130238e76e8cf0b3ba00e906851bf836007600086815260200190815260200160002060040154604051614adb92919061608e565b60405180910390a1505050565b60008082905060005b8451811015614b52576000858281518110614b0f57614b0e61575c565b5b60200260200101519050808311614b3157614b2a8382614b5d565b9250614b3e565b614b3b8184614b5d565b92505b508080614b4a906157ba565b915050614af1565b508091505092915050565b600082600052816020526040600020905092915050565b6040518060a0016040528060008152602001606081526020016060815260200160608152602001600081525090565b5080546000825590600052602060002090810190614bc19190614c4a565b50565b828054614bd09061572a565b90600052602060002090601f016020900481019282614bf25760008555614c39565b82601f10614c0b57805160ff1916838001178555614c39565b82800160010185558215614c39579182015b82811115614c38578251825591602001919060010190614c1d565b5b509050614c469190614c4a565b5090565b5b80821115614c63576000816000905550600101614c4b565b5090565b600081519050919050565b600082825260208201905092915050565b6000819050602082019050919050565b6000819050919050565b614ca681614c93565b82525050565b600081519050919050565b600082825260208201905092915050565b60005b83811015614ce6578082015181840152602081019050614ccb565b83811115614cf5576000848401525b50505050565b6000601f19601f8301169050919050565b6000614d1782614cac565b614d218185614cb7565b9350614d31818560208601614cc8565b614d3a81614cfb565b840191505092915050565b600060a083016000830151614d5d6000860182614c9d565b5060208301518482036020860152614d758282614d0c565b91505060408301518482036040860152614d8f8282614d0c565b91505060608301518482036060860152614da98282614d0c565b9150506080830151614dbe6080860182614c9d565b508091505092915050565b6000614dd58383614d45565b905092915050565b6000602082019050919050565b6000614df582614c67565b614dff8185614c72565b935083602082028501614e1185614c83565b8060005b85811015614e4d5784840389528151614e2e8582614dc9565b9450614e3983614ddd565b925060208a01995050600181019050614e15565b50829750879550505050505092915050565b60006020820190508181036000830152614e798184614dea565b905092915050565b600082825260208201905092915050565b6000614e9d82614cac565b614ea78185614e81565b9350614eb7818560208601614cc8565b614ec081614cfb565b840191505092915050565b60006020820190508181036000830152614ee58184614e92565b905092915050565b614ef681614c93565b82525050565b6000602082019050614f116000830184614eed565b92915050565b6000604051905090565b600080fd5b600080fd5b614f3481614c93565b8114614f3f57600080fd5b50565b600081359050614f5181614f2b565b92915050565b600060208284031215614f6d57614f6c614f21565b5b6000614f7b84828501614f42565b91505092915050565b600060a082019050614f996000830188614eed565b8181036020830152614fab8187614e92565b90508181036040830152614fbf8186614e92565b90508181036060830152614fd38185614e92565b9050614fe26080830184614eed565b9695505050505050565b600073ffffffffffffffffffffffffffffffffffffffff82169050919050565b600061501782614fec565b9050919050565b6150278161500c565b811461503257600080fd5b50565b6000813590506150448161501e565b92915050565b6000602082840312156150605761505f614f21565b5b600061506e84828501615035565b91505092915050565b60008115159050919050565b61508c81615077565b82525050565b60006020820190506150a76000830184615083565b92915050565b6150b68161500c565b82525050565b60006020820190506150d160008301846150ad565b92915050565b600081519050919050565b600082825260208201905092915050565b6000819050602082019050919050565b600061510f8383614c9d565b60208301905092915050565b6000602082019050919050565b6000615133826150d7565b61513d81856150e2565b9350615148836150f3565b8060005b838110156151795781516151608882615103565b975061516b8361511b565b92505060018101905061514c565b5085935050505092915050565b600060408201905061519b6000830185614eed565b81810360208301526151ad8184615128565b90509392505050565b600080fd5b600080fd5b7f4e487b7100000000000000000000000000000000000000000000000000000000600052604160045260246000fd5b6151f882614cfb565b810181811067ffffffffffffffff82111715615217576152166151c0565b5b80604052505050565b600061522a614f17565b905061523682826151ef565b919050565b600067ffffffffffffffff821115615256576152556151c0565b5b61525f82614cfb565b9050602081019050919050565b82818337600083830152505050565b600061528e6152898461523b565b615220565b9050828152602081018484840111156152aa576152a96151bb565b5b6152b584828561526c565b509392505050565b600082601f8301126152d2576152d16151b6565b5b81356152e284826020860161527b565b91505092915050565b60008060006060848603121561530457615303614f21565b5b600084013567ffffffffffffffff81111561532257615321614f26565b5b61532e868287016152bd565b935050602084013567ffffffffffffffff81111561534f5761534e614f26565b5b61535b868287016152bd565b925050604084013567ffffffffffffffff81111561537c5761537b614f26565b5b615388868287016152bd565b9150509250925092565b600067ffffffffffffffff8211156153ad576153ac6151c0565b5b602082029050602081019050919050565b600080fd5b6000819050919050565b6153d6816153c3565b81146153e157600080fd5b50565b6000813590506153f3816153cd565b92915050565b600061540c61540784615392565b615220565b9050808382526020820190506020840283018581111561542f5761542e6153be565b5b835b81811015615458578061544488826153e4565b845260208401935050602081019050615431565b5050509392505050565b600082601f830112615477576154766151b6565b5b81356154878482602086016153f9565b91505092915050565b600080604083850312156154a7576154a6614f21565b5b600083013567ffffffffffffffff8111156154c5576154c4614f26565b5b6154d185828601615462565b92505060206154e2858286016153e4565b9150509250929050565b600067ffffffffffffffff821115615507576155066151c0565b5b602082029050602081019050919050565b600061552b615526846154ec565b615220565b9050808382526020820190506020840283018581111561554e5761554d6153be565b5b835b8181101561559557803567ffffffffffffffff811115615573576155726151b6565b5b80860161558089826152bd565b85526020850194505050602081019050615550565b5050509392505050565b600082601f8301126155b4576155b36151b6565b5b81356155c4848260208601615518565b91505092915050565b6000602082840312156155e3576155e2614f21565b5b600082013567ffffffffffffffff81111561560157615600614f26565b5b61560d8482850161559f565b91505092915050565b61561f816153c3565b82525050565b600060208201905061563a6000830184615616565b92915050565b600080fd5b60008083601f84011261565b5761565a6151b6565b5b8235905067ffffffffffffffff81111561567857615677615640565b5b602083019150836020820283011115615694576156936153be565b5b9250929050565b6000806000604084860312156156b4576156b3614f21565b5b60006156c286828701614f42565b935050602084013567ffffffffffffffff8111156156e3576156e2614f26565b5b6156ef86828701615645565b92509250509250925092565b7f4e487b7100000000000000000000000000000000000000000000000000000000600052602260045260246000fd5b6000600282049050600182168061574257607f821691505b60208210811415615756576157556156fb565b5b50919050565b7f4e487b7100000000000000000000000000000000000000000000000000000000600052603260045260246000fd5b7f4e487b7100000000000000000000000000000000000000000000000000000000600052601160045260246000fd5b60006157c582614c93565b91507fffffffffffffffffffffffffffffffffffffffffffffffffffffffffffffffff8214156157f8576157f761578b565b5b600182019050919050565b7f5061757361626c653a2070617573656400000000000000000000000000000000600082015250565b6000615839601083614e81565b915061584482615803565b602082019050919050565b600060208201905081810360008301526158688161582c565b9050919050565b7f6f6e6c792074656163686572732f63686169726d616e2063616e2063616c6c2060008201527f746869732066756e6374696f6e00000000000000000000000000000000000000602082015250565b60006158cb602d83614e81565b91506158d68261586f565b604082019050919050565b600060208201905081810360008301526158fa816158be565b9050919050565b7f6f6e6c792063686169726d616e2063616e2063616c6c20746869732066756e6360008201527f74696f6e00000000000000000000000000000000000000000000000000000000602082015250565b600061595d602483614e81565b915061596882615901565b604082019050919050565b6000602082019050818103600083015261598c81615950565b9050919050565b600081549050919050565b60008190508160005260206000209050919050565b60008160001c9050919050565b6000819050919050565b60006159dd6159d8836159b3565b6159c0565b9050919050565b60006159f082546159ca565b9050919050565b6000600182019050919050565b6000615a0f82615993565b615a1981856150e2565b9350615a248361599e565b8060005b83811015615a5c57615a39826159e4565b615a438882615103565b9750615a4e836159f7565b925050600181019050615a28565b5085935050505092915050565b60006040820190508181036000830152615a838185615a04565b9050615a926020830184614eed565b9392505050565b7f54686520526573756c7473206d757374206265206d616465207075626c696300600082015250565b6000615acf601f83614e81565b9150615ada82615a99565b602082019050919050565b60006020820190508181036000830152615afe81615ac2565b9050919050565b7f536f7272792c2074686520456c656374696f6e20686173206e6f7420656e646560008201527f6400000000000000000000000000000000000000000000000000000000000000602082015250565b6000615b61602183614e81565b9150615b6c82615b05565b604082019050919050565b60006020820190508181036000830152615b9081615b54565b9050919050565b7f6f6e6c792074656163686572732f63686169726d616e2063616e206d616b652060008201527f726573756c7473207075626c6963000000000000000000000000000000000000602082015250565b6000615bf3602e83614e81565b9150615bfe82615b97565b604082019050919050565b60006020820190508181036000830152615c2281615be6565b9050919050565b7f456c656374696f6e206973204f6e676f696e6700000000000000000000000000600082015250565b6000615c5f601383614e81565b9150615c6a82615c29565b602082019050919050565b60006020820190508181036000830152615c8e81615c52565b9050919050565b6000604082019050615caa6000830185614eed565b8181036020830152615cbc8184614e92565b90509392505050565b7f61746c65617374206f6e6520706572736f6e2073686f756c6420636f6e74657360008201527f7400000000000000000000000000000000000000000000000000000000000000602082015250565b6000615d21602183614e81565b9150615d2c82615cc5565b604082019050919050565b60006020820190508181036000830152615d5081615d14565b9050919050565b7f536f7272792c2074686520456c656374696f6e2068617320656e646564210000600082015250565b6000615d8d601e83614e81565b9150615d9882615d57565b602082019050919050565b60006020820190508181036000830152615dbc81615d80565b9050919050565b7f506c6561736520636865636b206261636b2c2074686520656c656374696f6e2060008201527f686173206e6f7420737461727465642100000000000000000000000000000000602082015250565b6000615e1f603083614e81565b9150615e2a82615dc3565b604082019050919050565b60006020820190508181036000830152615e4e81615e12565b9050919050565b60008160601b9050919050565b6000615e6d82615e55565b9050919050565b6000615e7f82615e62565b9050919050565b615e97615e928261500c565b615e74565b82525050565b6000615ea98284615e86565b60148201915081905092915050565b7f736f7272792c206f6e6c79207374616b65686f6c646572732061726520656c6960008201527f6769626c6520746f20766f746500000000000000000000000000000000000000602082015250565b6000615f14602d83614e81565b9150615f1f82615eb8565b604082019050919050565b60006020820190508181036000830152615f4381615f07565b9050919050565b7f5061757361626c653a206e6f7420706175736564000000000000000000000000600082015250565b6000615f80601483614e81565b9150615f8b82615f4a565b602082019050919050565b60006020820190508181036000830152615faf81615f73565b9050919050565b7f496e76616c69642063616e64696461746520746f20566f746521000000000000600082015250565b6000615fec601a83614e81565b9150615ff782615fb6565b602082019050919050565b6000602082019050818103600083015261601b81615fdf565b9050919050565b7f566f7465722068617320616c726561647920566f746564210000000000000000600082015250565b6000616058601883614e81565b915061606382616022565b602082019050919050565b600060208201905081810360008301526160878161604b565b9050919050565b60006040820190506160a36000830185614eed565b6160b06020830184614eed565b939250505056fea2646970667358221220a67b3e6e595ffcd6012366bb0bb125f81e3adbffdd0723d6e72af9b482e2dd9864736f6c634300080a0033",
          "opcodes": "PUSH1 0x80 PUSH1 0x40 MSTORE CALLVALUE DUP1 ISZERO PUSH3 0x11 JUMPI PUSH1 0x0 DUP1 REVERT JUMPDEST POP PUSH1 0x40 MLOAD PUSH3 0x6592 CODESIZE SUB DUP1 PUSH3 0x6592 DUP4 CODECOPY DUP2 DUP2 ADD PUSH1 0x40 MSTORE DUP2 ADD SWAP1 PUSH3 0x37 SWAP2 SWAP1 PUSH3 0x463 JUMP JUMPDEST PUSH1 0x0 DUP1 PUSH1 0x0 PUSH2 0x100 EXP DUP2 SLOAD DUP2 PUSH1 0xFF MUL NOT AND SWAP1 DUP4 ISZERO ISZERO MUL OR SWAP1 SSTORE POP PUSH3 0x85 PUSH32 0xCC6AB5E65D3D801ABBCEBA22C952349E38C72F21BF6E3FBA5E84BCFF07D76850 PUSH1 0x0 SHL PUSH3 0x420 PUSH1 0x20 SHL PUSH1 0x20 SHR JUMP JUMPDEST PUSH3 0xB9 PUSH32 0x1C6A8779B84407CC83EDCB95B3F1E139FDAB0942E11DEEBD4F2C8105A086D7F5 PUSH1 0x0 SHL PUSH3 0x420 PUSH1 0x20 SHL PUSH1 0x20 SHR JUMP JUMPDEST PUSH3 0xED PUSH32 0x24AE89A02EB6A6E2449BD2AF4D8722FF056EB0BF26B0F410763EC40C0AAC6E5C PUSH1 0x0 SHL PUSH3 0x420 PUSH1 0x20 SHL PUSH1 0x20 SHR JUMP JUMPDEST CALLER PUSH1 0x0 PUSH1 0x1 PUSH2 0x100 EXP DUP2 SLOAD DUP2 PUSH20 0xFFFFFFFFFFFFFFFFFFFFFFFFFFFFFFFFFFFFFFFF MUL NOT AND SWAP1 DUP4 PUSH20 0xFFFFFFFFFFFFFFFFFFFFFFFFFFFFFFFFFFFFFFFF AND MUL OR SWAP1 SSTORE POP PUSH3 0x162 PUSH32 0xB52CAB833AF640969D19DA17017D09B4824934E017C732CD31E592EAE591BF4A PUSH1 0x0 SHL PUSH3 0x420 PUSH1 0x20 SHL PUSH1 0x20 SHR JUMP JUMPDEST PUSH3 0x196 PUSH32 0x34827E6B7AC6E2D76C137B5FE97959E8EBC11AEB2EBB640339F5AEA59CCC7996 PUSH1 0x0 SHL PUSH3 0x420 PUSH1 0x20 SHL PUSH1 0x20 SHR JUMP JUMPDEST PUSH1 0x0 PUSH1 0xA PUSH1 0x0 PUSH2 0x100 EXP DUP2 SLOAD DUP2 PUSH1 0xFF MUL NOT AND SWAP1 DUP4 ISZERO ISZERO MUL OR SWAP1 SSTORE POP PUSH3 0x1E5 PUSH32 0x64BBF33CCC3F36A0CEA4C82385134B8CC526679355DA64F7A8C9ECCC7431FBA1 PUSH1 0x0 SHL PUSH3 0x420 PUSH1 0x20 SHL PUSH1 0x20 SHR JUMP JUMPDEST PUSH3 0x219 PUSH32 0xB0183E5B6C88C36F543D976C9A16C7C9712C7523E747D17A602C3EDD8D5EDDA7 PUSH1 0x0 SHL PUSH3 0x420 PUSH1 0x20 SHL PUSH1 0x20 SHR JUMP JUMPDEST PUSH1 0x0 PUSH1 0xA PUSH1 0x1 PUSH2 0x100 EXP DUP2 SLOAD DUP2 PUSH1 0xFF MUL NOT AND SWAP1 DUP4 ISZERO ISZERO MUL OR SWAP1 SSTORE POP PUSH3 0x268 PUSH32 0x280DBC848DBE59284601F23D58E92AB79ADCD87A13F1A18E1EC3543112144C0D PUSH1 0x0 SHL PUSH3 0x420 PUSH1 0x20 SHL PUSH1 0x20 SHR JUMP JUMPDEST PUSH3 0x29C PUSH32 0xAA6C35DBF56394C60CEC493D988DADBCDAACEF7D611DD00ECC181DDEF68804ED PUSH1 0x0 SHL PUSH3 0x420 PUSH1 0x20 SHL PUSH1 0x20 SHR JUMP JUMPDEST PUSH1 0x0 PUSH1 0xA PUSH1 0x2 PUSH2 0x100 EXP DUP2 SLOAD DUP2 PUSH1 0xFF MUL NOT AND SWAP1 DUP4 ISZERO ISZERO MUL OR SWAP1 SSTORE POP PUSH3 0x2EB PUSH32 0xFEA81A96D6BD594AE94B23C4B3BCCF199E699CF744C5D0A029FB5DD90C34AC09 PUSH1 0x0 SHL PUSH3 0x420 PUSH1 0x20 SHL PUSH1 0x20 SHR JUMP JUMPDEST PUSH3 0x31F PUSH32 0xAEE6C747FB244C72F38705BACDA22728BC315B5BED9DFFBF8A0E9495C73226E4 PUSH1 0x0 SHL PUSH3 0x420 PUSH1 0x20 SHL PUSH1 0x20 SHR JUMP JUMPDEST PUSH1 0x0 PUSH1 0x4 DUP2 SWAP1 SSTORE POP PUSH3 0x35B PUSH32 0x5A29374A0F97F94DD6E09DFF38282E43788A31A3EF558813767B4C404A95C9CC PUSH1 0x0 SHL PUSH3 0x420 PUSH1 0x20 SHL PUSH1 0x20 SHR JUMP JUMPDEST PUSH3 0x38F PUSH32 0x237BCB4815587CA3C7E0E083B13FD9FFA55F36BD0C88F33BBCBB7304CBD1EAE8 PUSH1 0x0 SHL PUSH3 0x420 PUSH1 0x20 SHL PUSH1 0x20 SHR JUMP JUMPDEST DUP1 PUSH1 0x3 DUP2 SWAP1 SSTORE POP PUSH3 0x3CA PUSH32 0x8FD1BD837E227A1C8F391D320D4A84450640B3E3E018B68845DC8ED0A9D4E35D PUSH1 0x0 SHL PUSH3 0x420 PUSH1 0x20 SHL PUSH1 0x20 SHR JUMP JUMPDEST PUSH3 0x3FE PUSH32 0x774AB24B7EDC2559D3B214CE0AAEA1EC161CFE2F46A86CFC2AFE0F10C9C1F60F PUSH1 0x0 SHL PUSH3 0x420 PUSH1 0x20 SHL PUSH1 0x20 SHR JUMP JUMPDEST PUSH1 0x0 PUSH1 0xA PUSH1 0x3 PUSH2 0x100 EXP DUP2 SLOAD DUP2 PUSH1 0xFF MUL NOT AND SWAP1 DUP4 ISZERO ISZERO MUL OR SWAP1 SSTORE POP POP PUSH3 0x495 JUMP JUMPDEST POP JUMP JUMPDEST PUSH1 0x0 DUP1 REVERT JUMPDEST PUSH1 0x0 DUP2 SWAP1 POP SWAP2 SWAP1 POP JUMP JUMPDEST PUSH3 0x43D DUP2 PUSH3 0x428 JUMP JUMPDEST DUP2 EQ PUSH3 0x449 JUMPI PUSH1 0x0 DUP1 REVERT JUMPDEST POP JUMP JUMPDEST PUSH1 0x0 DUP2 MLOAD SWAP1 POP PUSH3 0x45D DUP2 PUSH3 0x432 JUMP JUMPDEST SWAP3 SWAP2 POP POP JUMP JUMPDEST PUSH1 0x0 PUSH1 0x20 DUP3 DUP5 SUB SLT ISZERO PUSH3 0x47C JUMPI PUSH3 0x47B PUSH3 0x423 JUMP JUMPDEST JUMPDEST PUSH1 0x0 PUSH3 0x48C DUP5 DUP3 DUP6 ADD PUSH3 0x44C JUMP JUMPDEST SWAP2 POP POP SWAP3 SWAP2 POP POP JUMP JUMPDEST PUSH2 0x60ED DUP1 PUSH3 0x4A5 PUSH1 0x0 CODECOPY PUSH1 0x0 RETURN INVALID PUSH1 0x80 PUSH1 0x40 MSTORE CALLVALUE DUP1 ISZERO PUSH2 0x10 JUMPI PUSH1 0x0 DUP1 REVERT JUMPDEST POP PUSH1 0x4 CALLDATASIZE LT PUSH2 0x206 JUMPI PUSH1 0x0 CALLDATALOAD PUSH1 0xE0 SHR DUP1 PUSH4 0x86174396 GT PUSH2 0x11A JUMPI DUP1 PUSH4 0xB8A20ED0 GT PUSH2 0xAD JUMPI DUP1 PUSH4 0xE8101869 GT PUSH2 0x7C JUMPI DUP1 PUSH4 0xE8101869 EQ PUSH2 0x53E JUMPI DUP1 PUSH4 0xEBF0C717 EQ PUSH2 0x55A JUMPI DUP1 PUSH4 0xF0A47F78 EQ PUSH2 0x578 JUMPI DUP1 PUSH4 0xF51B41D2 EQ PUSH2 0x5A8 JUMPI DUP1 PUSH4 0xFD27419B EQ PUSH2 0x5C6 JUMPI PUSH2 0x206 JUMP JUMPDEST DUP1 PUSH4 0xB8A20ED0 EQ PUSH2 0x4B6 JUMPI DUP1 PUSH4 0xC64A4BAD EQ PUSH2 0x4E6 JUMPI DUP1 PUSH4 0xC9B0A2A7 EQ PUSH2 0x504 JUMPI DUP1 PUSH4 0xD1E53B8A EQ PUSH2 0x522 JUMPI PUSH2 0x206 JUMP JUMPDEST DUP1 PUSH4 0x9ADEDDF8 GT PUSH2 0xE9 JUMPI DUP1 PUSH4 0x9ADEDDF8 EQ PUSH2 0x42E JUMPI DUP1 PUSH4 0xA4FD6F56 EQ PUSH2 0x44C JUMPI DUP1 PUSH4 0xAD71F8DC EQ PUSH2 0x46A JUMPI DUP1 PUSH4 0xAEC2CCAE EQ PUSH2 0x486 JUMPI PUSH2 0x206 JUMP JUMPDEST DUP1 PUSH4 0x86174396 EQ PUSH2 0x3C9 JUMPI DUP1 PUSH4 0x87F7B975 EQ PUSH2 0x3E7 JUMPI DUP1 PUSH4 0x8E7EA5B2 EQ PUSH2 0x405 JUMPI DUP1 PUSH4 0x95ADFC5E EQ PUSH2 0x424 JUMPI PUSH2 0x206 JUMP JUMPDEST DUP1 PUSH4 0x477383F3 GT PUSH2 0x19D JUMPI DUP1 PUSH4 0x5C975ABB GT PUSH2 0x16C JUMPI DUP1 PUSH4 0x5C975ABB EQ PUSH2 0x36F JUMPI DUP1 PUSH4 0x62D73EB8 EQ PUSH2 0x38D JUMPI DUP1 PUSH4 0x6C6C32D0 EQ PUSH2 0x397 JUMPI DUP1 PUSH4 0x7284E416 EQ PUSH2 0x3A1 JUMPI DUP1 PUSH4 0x8456CB59 EQ PUSH2 0x3BF JUMPI PUSH2 0x206 JUMP JUMPDEST DUP1 PUSH4 0x477383F3 EQ PUSH2 0x30D JUMPI DUP1 PUSH4 0x52FF6846 EQ PUSH2 0x32B JUMPI DUP1 PUSH4 0x544736E6 EQ PUSH2 0x347 JUMPI DUP1 PUSH4 0x59F78468 EQ PUSH2 0x365 JUMPI PUSH2 0x206 JUMP JUMPDEST DUP1 PUSH4 0x3477EE2E GT PUSH2 0x1D9 JUMPI DUP1 PUSH4 0x3477EE2E EQ PUSH2 0x283 JUMPI DUP1 PUSH4 0x3BC6E309 EQ PUSH2 0x2B7 JUMPI DUP1 PUSH4 0x3F4BA83A EQ PUSH2 0x2D3 JUMPI DUP1 PUSH4 0x403D1312 EQ PUSH2 0x2DD JUMPI PUSH2 0x206 JUMP JUMPDEST DUP1 PUSH4 0x6A49FCE EQ PUSH2 0x20B JUMPI DUP1 PUSH4 0x9218E91 EQ PUSH2 0x229 JUMPI DUP1 PUSH4 0x2D35A8A2 EQ PUSH2 0x247 JUMPI DUP1 PUSH4 0x2F22850D EQ PUSH2 0x265 JUMPI JUMPDEST PUSH1 0x0 DUP1 REVERT JUMPDEST PUSH2 0x213 PUSH2 0x5E2 JUMP JUMPDEST PUSH1 0x40 MLOAD PUSH2 0x220 SWAP2 SWAP1 PUSH2 0x4E5F JUMP JUMPDEST PUSH1 0x40 MLOAD DUP1 SWAP2 SUB SWAP1 RETURN JUMPDEST PUSH2 0x231 PUSH2 0xA56 JUMP JUMPDEST PUSH1 0x40 MLOAD PUSH2 0x23E SWAP2 SWAP1 PUSH2 0x4ECB JUMP JUMPDEST PUSH1 0x40 MLOAD DUP1 SWAP2 SUB SWAP1 RETURN JUMPDEST PUSH2 0x24F PUSH2 0xAE4 JUMP JUMPDEST PUSH1 0x40 MLOAD PUSH2 0x25C SWAP2 SWAP1 PUSH2 0x4EFC JUMP JUMPDEST PUSH1 0x40 MLOAD DUP1 SWAP2 SUB SWAP1 RETURN JUMPDEST PUSH2 0x26D PUSH2 0xAEA JUMP JUMPDEST PUSH1 0x40 MLOAD PUSH2 0x27A SWAP2 SWAP1 PUSH2 0x4EFC JUMP JUMPDEST PUSH1 0x40 MLOAD DUP1 SWAP2 SUB SWAP1 RETURN JUMPDEST PUSH2 0x29D PUSH1 0x4 DUP1 CALLDATASIZE SUB DUP2 ADD SWAP1 PUSH2 0x298 SWAP2 SWAP1 PUSH2 0x4F57 JUMP JUMPDEST PUSH2 0xAF0 JUMP JUMPDEST PUSH1 0x40 MLOAD PUSH2 0x2AE SWAP6 SWAP5 SWAP4 SWAP3 SWAP2 SWAP1 PUSH2 0x4F84 JUMP JUMPDEST PUSH1 0x40 MLOAD DUP1 SWAP2 SUB SWAP1 RETURN JUMPDEST PUSH2 0x2D1 PUSH1 0x4 DUP1 CALLDATASIZE SUB DUP2 ADD SWAP1 PUSH2 0x2CC SWAP2 SWAP1 PUSH2 0x504A JUMP JUMPDEST PUSH2 0xCBE JUMP JUMPDEST STOP JUMPDEST PUSH2 0x2DB PUSH2 0xF80 JUMP JUMPDEST STOP JUMPDEST PUSH2 0x2F7 PUSH1 0x4 DUP1 CALLDATASIZE SUB DUP2 ADD SWAP1 PUSH2 0x2F2 SWAP2 SWAP1 PUSH2 0x4F57 JUMP JUMPDEST PUSH2 0x123C JUMP JUMPDEST PUSH1 0x40 MLOAD PUSH2 0x304 SWAP2 SWAP1 PUSH2 0x4EFC JUMP JUMPDEST PUSH1 0x40 MLOAD DUP1 SWAP2 SUB SWAP1 RETURN JUMPDEST PUSH2 0x315 PUSH2 0x1260 JUMP JUMPDEST PUSH1 0x40 MLOAD PUSH2 0x322 SWAP2 SWAP1 PUSH2 0x5092 JUMP JUMPDEST PUSH1 0x40 MLOAD DUP1 SWAP2 SUB SWAP1 RETURN JUMPDEST PUSH2 0x345 PUSH1 0x4 DUP1 CALLDATASIZE SUB DUP2 ADD SWAP1 PUSH2 0x340 SWAP2 SWAP1 PUSH2 0x504A JUMP JUMPDEST PUSH2 0x1273 JUMP JUMPDEST STOP JUMPDEST PUSH2 0x34F PUSH2 0x1535 JUMP JUMPDEST PUSH1 0x40 MLOAD PUSH2 0x35C SWAP2 SWAP1 PUSH2 0x5092 JUMP JUMPDEST PUSH1 0x40 MLOAD DUP1 SWAP2 SUB SWAP1 RETURN JUMPDEST PUSH2 0x36D PUSH2 0x15D0 JUMP JUMPDEST STOP JUMPDEST PUSH2 0x377 PUSH2 0x1947 JUMP JUMPDEST PUSH1 0x40 MLOAD PUSH2 0x384 SWAP2 SWAP1 PUSH2 0x5092 JUMP JUMPDEST PUSH1 0x40 MLOAD DUP1 SWAP2 SUB SWAP1 RETURN JUMPDEST PUSH2 0x395 PUSH2 0x195D JUMP JUMPDEST STOP JUMPDEST PUSH2 0x39F PUSH2 0x1BDE JUMP JUMPDEST STOP JUMPDEST PUSH2 0x3A9 PUSH2 0x2176 JUMP JUMPDEST PUSH1 0x40 MLOAD PUSH2 0x3B6 SWAP2 SWAP1 PUSH2 0x4ECB JUMP JUMPDEST PUSH1 0x40 MLOAD DUP1 SWAP2 SUB SWAP1 RETURN JUMPDEST PUSH2 0x3C7 PUSH2 0x2204 JUMP JUMPDEST STOP JUMPDEST PUSH2 0x3D1 PUSH2 0x24C0 JUMP JUMPDEST PUSH1 0x40 MLOAD PUSH2 0x3DE SWAP2 SWAP1 PUSH2 0x5092 JUMP JUMPDEST PUSH1 0x40 MLOAD DUP1 SWAP2 SUB SWAP1 RETURN JUMPDEST PUSH2 0x3EF PUSH2 0x255B JUMP JUMPDEST PUSH1 0x40 MLOAD PUSH2 0x3FC SWAP2 SWAP1 PUSH2 0x50BC JUMP JUMPDEST PUSH1 0x40 MLOAD DUP1 SWAP2 SUB SWAP1 RETURN JUMPDEST PUSH2 0x40D PUSH2 0x2581 JUMP JUMPDEST PUSH1 0x40 MLOAD PUSH2 0x41B SWAP3 SWAP2 SWAP1 PUSH2 0x5186 JUMP JUMPDEST PUSH1 0x40 MLOAD DUP1 SWAP2 SUB SWAP1 RETURN JUMPDEST PUSH2 0x42C PUSH2 0x2767 JUMP JUMPDEST STOP JUMPDEST PUSH2 0x436 PUSH2 0x2AA2 JUMP JUMPDEST PUSH1 0x40 MLOAD PUSH2 0x443 SWAP2 SWAP1 PUSH2 0x5092 JUMP JUMPDEST PUSH1 0x40 MLOAD DUP1 SWAP2 SUB SWAP1 RETURN JUMPDEST PUSH2 0x454 PUSH2 0x2AB5 JUMP JUMPDEST PUSH1 0x40 MLOAD PUSH2 0x461 SWAP2 SWAP1 PUSH2 0x5092 JUMP JUMPDEST PUSH1 0x40 MLOAD DUP1 SWAP2 SUB SWAP1 RETURN JUMPDEST PUSH2 0x484 PUSH1 0x4 DUP1 CALLDATASIZE SUB DUP2 ADD SWAP1 PUSH2 0x47F SWAP2 SWAP1 PUSH2 0x52EB JUMP JUMPDEST PUSH2 0x2B50 JUMP JUMPDEST STOP JUMPDEST PUSH2 0x4A0 PUSH1 0x4 DUP1 CALLDATASIZE SUB DUP2 ADD SWAP1 PUSH2 0x49B SWAP2 SWAP1 PUSH2 0x504A JUMP JUMPDEST PUSH2 0x3040 JUMP JUMPDEST PUSH1 0x40 MLOAD PUSH2 0x4AD SWAP2 SWAP1 PUSH2 0x5092 JUMP JUMPDEST PUSH1 0x40 MLOAD DUP1 SWAP2 SUB SWAP1 RETURN JUMPDEST PUSH2 0x4D0 PUSH1 0x4 DUP1 CALLDATASIZE SUB DUP2 ADD SWAP1 PUSH2 0x4CB SWAP2 SWAP1 PUSH2 0x5490 JUMP JUMPDEST PUSH2 0x3060 JUMP JUMPDEST PUSH1 0x40 MLOAD PUSH2 0x4DD SWAP2 SWAP1 PUSH2 0x5092 JUMP JUMPDEST PUSH1 0x40 MLOAD DUP1 SWAP2 SUB SWAP1 RETURN JUMPDEST PUSH2 0x4EE PUSH2 0x30FB JUMP JUMPDEST PUSH1 0x40 MLOAD PUSH2 0x4FB SWAP2 SWAP1 PUSH2 0x5092 JUMP JUMPDEST PUSH1 0x40 MLOAD DUP1 SWAP2 SUB SWAP1 RETURN JUMPDEST PUSH2 0x50C PUSH2 0x31D3 JUMP JUMPDEST PUSH1 0x40 MLOAD PUSH2 0x519 SWAP2 SWAP1 PUSH2 0x5092 JUMP JUMPDEST PUSH1 0x40 MLOAD DUP1 SWAP2 SUB SWAP1 RETURN JUMPDEST PUSH2 0x53C PUSH1 0x4 DUP1 CALLDATASIZE SUB DUP2 ADD SWAP1 PUSH2 0x537 SWAP2 SWAP1 PUSH2 0x55CD JUMP JUMPDEST PUSH2 0x31E6 JUMP JUMPDEST STOP JUMPDEST PUSH2 0x558 PUSH1 0x4 DUP1 CALLDATASIZE SUB DUP2 ADD SWAP1 PUSH2 0x553 SWAP2 SWAP1 PUSH2 0x504A JUMP JUMPDEST PUSH2 0x3773 JUMP JUMPDEST STOP JUMPDEST PUSH2 0x562 PUSH2 0x3A1B JUMP JUMPDEST PUSH1 0x40 MLOAD PUSH2 0x56F SWAP2 SWAP1 PUSH2 0x5625 JUMP JUMPDEST PUSH1 0x40 MLOAD DUP1 SWAP2 SUB SWAP1 RETURN JUMPDEST PUSH2 0x592 PUSH1 0x4 DUP1 CALLDATASIZE SUB DUP2 ADD SWAP1 PUSH2 0x58D SWAP2 SWAP1 PUSH2 0x504A JUMP JUMPDEST PUSH2 0x3A21 JUMP JUMPDEST PUSH1 0x40 MLOAD PUSH2 0x59F SWAP2 SWAP1 PUSH2 0x5092 JUMP JUMPDEST PUSH1 0x40 MLOAD DUP1 SWAP2 SUB SWAP1 RETURN JUMPDEST PUSH2 0x5B0 PUSH2 0x3A41 JUMP JUMPDEST PUSH1 0x40 MLOAD PUSH2 0x5BD SWAP2 SWAP1 PUSH2 0x5092 JUMP JUMPDEST PUSH1 0x40 MLOAD DUP1 SWAP2 SUB SWAP1 RETURN JUMPDEST PUSH2 0x5E0 PUSH1 0x4 DUP1 CALLDATASIZE SUB DUP2 ADD SWAP1 PUSH2 0x5DB SWAP2 SWAP1 PUSH2 0x569B JUMP JUMPDEST PUSH2 0x3B1D JUMP JUMPDEST STOP JUMPDEST PUSH1 0x60 PUSH2 0x610 PUSH32 0x8A174FB0690D8C434B286029B037D598E9C1B8D69B54E1EC9E6FAE4FBA8C41E2 PUSH1 0x0 SHL PUSH2 0x3FBF JUMP JUMPDEST PUSH2 0x63C PUSH32 0x65DC83ACC97684DBE33A6AAF26FCC2C91FC1EA1C8CFBDC1A6A04FA516A3E2CE7 PUSH1 0x0 SHL PUSH2 0x3FBF JUMP JUMPDEST PUSH2 0x668 PUSH32 0x347DD330BAA46DDF83C6275EC0B26C44643104E6108CD0A970A84B1AFF41602C PUSH1 0x0 SHL PUSH2 0x3FBF JUMP JUMPDEST PUSH1 0x0 PUSH1 0x4 SLOAD PUSH8 0xFFFFFFFFFFFFFFFF DUP2 GT ISZERO PUSH2 0x686 JUMPI PUSH2 0x685 PUSH2 0x51C0 JUMP JUMPDEST JUMPDEST PUSH1 0x40 MLOAD SWAP1 DUP1 DUP3 MSTORE DUP1 PUSH1 0x20 MUL PUSH1 0x20 ADD DUP3 ADD PUSH1 0x40 MSTORE DUP1 ISZERO PUSH2 0x6BF JUMPI DUP2 PUSH1 0x20 ADD JUMPDEST PUSH2 0x6AC PUSH2 0x4B74 JUMP JUMPDEST DUP2 MSTORE PUSH1 0x20 ADD SWAP1 PUSH1 0x1 SWAP1 SUB SWAP1 DUP2 PUSH2 0x6A4 JUMPI SWAP1 POP JUMPDEST POP SWAP1 POP PUSH2 0x6EE PUSH32 0xA3A1700AA95FDF2C6D389C1B6D459DFACD2E6D2CE1BD9F4A4AFBA07DC4C26007 PUSH1 0x0 SHL PUSH2 0x3FBF JUMP JUMPDEST PUSH2 0x71A PUSH32 0xB368053881362E37A66566215410950C5F7CDADA683BDDBDC873044BA35CBBCB PUSH1 0x0 SHL PUSH2 0x3FBF JUMP JUMPDEST PUSH1 0x0 JUMPDEST PUSH1 0x4 SLOAD DUP2 LT ISZERO PUSH2 0x9F6 JUMPI PUSH2 0x753 PUSH32 0x90E558A59D75B07CC82284A09BCC44DA30AFAC247B323A25517A44CACEE3622C PUSH1 0x0 SHL PUSH2 0x3FBF JUMP JUMPDEST PUSH2 0x77F PUSH32 0xE30501473482D8A441C55FCF4C1969A70E411F1220198409962A4C41B9CD2DFF PUSH1 0x0 SHL PUSH2 0x3FBF JUMP JUMPDEST PUSH1 0x0 PUSH1 0x7 PUSH1 0x0 DUP4 DUP2 MSTORE PUSH1 0x20 ADD SWAP1 DUP2 MSTORE PUSH1 0x20 ADD PUSH1 0x0 KECCAK256 SWAP1 POP PUSH2 0x7C2 PUSH32 0xD12BDDC6B1521066295D1E1BBE63123A1B68E3DE8E6FCC308481CAAB38AAB3E2 PUSH1 0x0 SHL PUSH2 0x3FBF JUMP JUMPDEST PUSH2 0x7EE PUSH32 0x85445F414ECA5BD876F0E8C8C7E55A0F002CCA1D6E422C01CAF07277BBB20F62 PUSH1 0x0 SHL PUSH2 0x3FBF JUMP JUMPDEST DUP1 PUSH1 0x40 MLOAD DUP1 PUSH1 0xA0 ADD PUSH1 0x40 MSTORE SWAP1 DUP2 PUSH1 0x0 DUP3 ADD SLOAD DUP2 MSTORE PUSH1 0x20 ADD PUSH1 0x1 DUP3 ADD DUP1 SLOAD PUSH2 0x814 SWAP1 PUSH2 0x572A JUMP JUMPDEST DUP1 PUSH1 0x1F ADD PUSH1 0x20 DUP1 SWAP2 DIV MUL PUSH1 0x20 ADD PUSH1 0x40 MLOAD SWAP1 DUP2 ADD PUSH1 0x40 MSTORE DUP1 SWAP3 SWAP2 SWAP1 DUP2 DUP2 MSTORE PUSH1 0x20 ADD DUP3 DUP1 SLOAD PUSH2 0x840 SWAP1 PUSH2 0x572A JUMP JUMPDEST DUP1 ISZERO PUSH2 0x88D JUMPI DUP1 PUSH1 0x1F LT PUSH2 0x862 JUMPI PUSH2 0x100 DUP1 DUP4 SLOAD DIV MUL DUP4 MSTORE SWAP2 PUSH1 0x20 ADD SWAP2 PUSH2 0x88D JUMP JUMPDEST DUP3 ADD SWAP2 SWAP1 PUSH1 0x0 MSTORE PUSH1 0x20 PUSH1 0x0 KECCAK256 SWAP1 JUMPDEST DUP2 SLOAD DUP2 MSTORE SWAP1 PUSH1 0x1 ADD SWAP1 PUSH1 0x20 ADD DUP1 DUP4 GT PUSH2 0x870 JUMPI DUP3 SWAP1 SUB PUSH1 0x1F AND DUP3 ADD SWAP2 JUMPDEST POP POP POP POP POP DUP2 MSTORE PUSH1 0x20 ADD PUSH1 0x2 DUP3 ADD DUP1 SLOAD PUSH2 0x8A6 SWAP1 PUSH2 0x572A JUMP JUMPDEST DUP1 PUSH1 0x1F ADD PUSH1 0x20 DUP1 SWAP2 DIV MUL PUSH1 0x20 ADD PUSH1 0x40 MLOAD SWAP1 DUP2 ADD PUSH1 0x40 MSTORE DUP1 SWAP3 SWAP2 SWAP1 DUP2 DUP2 MSTORE PUSH1 0x20 ADD DUP3 DUP1 SLOAD PUSH2 0x8D2 SWAP1 PUSH2 0x572A JUMP JUMPDEST DUP1 ISZERO PUSH2 0x91F JUMPI DUP1 PUSH1 0x1F LT PUSH2 0x8F4 JUMPI PUSH2 0x100 DUP1 DUP4 SLOAD DIV MUL DUP4 MSTORE SWAP2 PUSH1 0x20 ADD SWAP2 PUSH2 0x91F JUMP JUMPDEST DUP3 ADD SWAP2 SWAP1 PUSH1 0x0 MSTORE PUSH1 0x20 PUSH1 0x0 KECCAK256 SWAP1 JUMPDEST DUP2 SLOAD DUP2 MSTORE SWAP1 PUSH1 0x1 ADD SWAP1 PUSH1 0x20 ADD DUP1 DUP4 GT PUSH2 0x902 JUMPI DUP3 SWAP1 SUB PUSH1 0x1F AND DUP3 ADD SWAP2 JUMPDEST POP POP POP POP POP DUP2 MSTORE PUSH1 0x20 ADD PUSH1 0x3 DUP3 ADD DUP1 SLOAD PUSH2 0x938 SWAP1 PUSH2 0x572A JUMP JUMPDEST DUP1 PUSH1 0x1F ADD PUSH1 0x20 DUP1 SWAP2 DIV MUL PUSH1 0x20 ADD PUSH1 0x40 MLOAD SWAP1 DUP2 ADD PUSH1 0x40 MSTORE DUP1 SWAP3 SWAP2 SWAP1 DUP2 DUP2 MSTORE PUSH1 0x20 ADD DUP3 DUP1 SLOAD PUSH2 0x964 SWAP1 PUSH2 0x572A JUMP JUMPDEST DUP1 ISZERO PUSH2 0x9B1 JUMPI DUP1 PUSH1 0x1F LT PUSH2 0x986 JUMPI PUSH2 0x100 DUP1 DUP4 SLOAD DIV MUL DUP4 MSTORE SWAP2 PUSH1 0x20 ADD SWAP2 PUSH2 0x9B1 JUMP JUMPDEST DUP3 ADD SWAP2 SWAP1 PUSH1 0x0 MSTORE PUSH1 0x20 PUSH1 0x0 KECCAK256 SWAP1 JUMPDEST DUP2 SLOAD DUP2 MSTORE SWAP1 PUSH1 0x1 ADD SWAP1 PUSH1 0x20 ADD DUP1 DUP4 GT PUSH2 0x994 JUMPI DUP3 SWAP1 SUB PUSH1 0x1F AND DUP3 ADD SWAP2 JUMPDEST POP POP POP POP POP DUP2 MSTORE PUSH1 0x20 ADD PUSH1 0x4 DUP3 ADD SLOAD DUP2 MSTORE POP POP DUP4 DUP4 DUP2 MLOAD DUP2 LT PUSH2 0x9D7 JUMPI PUSH2 0x9D6 PUSH2 0x575C JUMP JUMPDEST JUMPDEST PUSH1 0x20 MUL PUSH1 0x20 ADD ADD DUP2 SWAP1 MSTORE POP POP DUP1 DUP1 PUSH2 0x9EE SWAP1 PUSH2 0x57BA JUMP JUMPDEST SWAP2 POP POP PUSH2 0x71D JUMP JUMPDEST POP PUSH2 0xA23 PUSH32 0x5CBB09994105CFB2D83A4E59780A2E3A6E4FD346BC26906A67085696C211BC1E PUSH1 0x0 SHL PUSH2 0x3FBF JUMP JUMPDEST PUSH2 0xA4F PUSH32 0xABFE72B499CBFD8C9B125D105620FE9CD8EA1AC2BD8406D998F6078A9003031E PUSH1 0x0 SHL PUSH2 0x3FBF JUMP JUMPDEST DUP1 SWAP2 POP POP SWAP1 JUMP JUMPDEST PUSH1 0x1 DUP1 SLOAD PUSH2 0xA63 SWAP1 PUSH2 0x572A JUMP JUMPDEST DUP1 PUSH1 0x1F ADD PUSH1 0x20 DUP1 SWAP2 DIV MUL PUSH1 0x20 ADD PUSH1 0x40 MLOAD SWAP1 DUP2 ADD PUSH1 0x40 MSTORE DUP1 SWAP3 SWAP2 SWAP1 DUP2 DUP2 MSTORE PUSH1 0x20 ADD DUP3 DUP1 SLOAD PUSH2 0xA8F SWAP1 PUSH2 0x572A JUMP JUMPDEST DUP1 ISZERO PUSH2 0xADC JUMPI DUP1 PUSH1 0x1F LT PUSH2 0xAB1 JUMPI PUSH2 0x100 DUP1 DUP4 SLOAD DIV MUL DUP4 MSTORE SWAP2 PUSH1 0x20 ADD SWAP2 PUSH2 0xADC JUMP JUMPDEST DUP3 ADD SWAP2 SWAP1 PUSH1 0x0 MSTORE PUSH1 0x20 PUSH1 0x0 KECCAK256 SWAP1 JUMPDEST DUP2 SLOAD DUP2 MSTORE SWAP1 PUSH1 0x1 ADD SWAP1 PUSH1 0x20 ADD DUP1 DUP4 GT PUSH2 0xABF JUMPI DUP3 SWAP1 SUB PUSH1 0x1F AND DUP3 ADD SWAP2 JUMPDEST POP POP POP POP POP DUP2 JUMP JUMPDEST PUSH1 0x4 SLOAD DUP2 JUMP JUMPDEST PUSH1 0x9 SLOAD DUP2 JUMP JUMPDEST PUSH1 0x7 PUSH1 0x20 MSTORE DUP1 PUSH1 0x0 MSTORE PUSH1 0x40 PUSH1 0x0 KECCAK256 PUSH1 0x0 SWAP2 POP SWAP1 POP DUP1 PUSH1 0x0 ADD SLOAD SWAP1 DUP1 PUSH1 0x1 ADD DUP1 SLOAD PUSH2 0xB19 SWAP1 PUSH2 0x572A JUMP JUMPDEST DUP1 PUSH1 0x1F ADD PUSH1 0x20 DUP1 SWAP2 DIV MUL PUSH1 0x20 ADD PUSH1 0x40 MLOAD SWAP1 DUP2 ADD PUSH1 0x40 MSTORE DUP1 SWAP3 SWAP2 SWAP1 DUP2 DUP2 MSTORE PUSH1 0x20 ADD DUP3 DUP1 SLOAD PUSH2 0xB45 SWAP1 PUSH2 0x572A JUMP JUMPDEST DUP1 ISZERO PUSH2 0xB92 JUMPI DUP1 PUSH1 0x1F LT PUSH2 0xB67 JUMPI PUSH2 0x100 DUP1 DUP4 SLOAD DIV MUL DUP4 MSTORE SWAP2 PUSH1 0x20 ADD SWAP2 PUSH2 0xB92 JUMP JUMPDEST DUP3 ADD SWAP2 SWAP1 PUSH1 0x0 MSTORE PUSH1 0x20 PUSH1 0x0 KECCAK256 SWAP1 JUMPDEST DUP2 SLOAD DUP2 MSTORE SWAP1 PUSH1 0x1 ADD SWAP1 PUSH1 0x20 ADD DUP1 DUP4 GT PUSH2 0xB75 JUMPI DUP3 SWAP1 SUB PUSH1 0x1F AND DUP3 ADD SWAP2 JUMPDEST POP POP POP POP POP SWAP1 DUP1 PUSH1 0x2 ADD DUP1 SLOAD PUSH2 0xBA7 SWAP1 PUSH2 0x572A JUMP JUMPDEST DUP1 PUSH1 0x1F ADD PUSH1 0x20 DUP1 SWAP2 DIV MUL PUSH1 0x20 ADD PUSH1 0x40 MLOAD SWAP1 DUP2 ADD PUSH1 0x40 MSTORE DUP1 SWAP3 SWAP2 SWAP1 DUP2 DUP2 MSTORE PUSH1 0x20 ADD DUP3 DUP1 SLOAD PUSH2 0xBD3 SWAP1 PUSH2 0x572A JUMP JUMPDEST DUP1 ISZERO PUSH2 0xC20 JUMPI DUP1 PUSH1 0x1F LT PUSH2 0xBF5 JUMPI PUSH2 0x100 DUP1 DUP4 SLOAD DIV MUL DUP4 MSTORE SWAP2 PUSH1 0x20 ADD SWAP2 PUSH2 0xC20 JUMP JUMPDEST DUP3 ADD SWAP2 SWAP1 PUSH1 0x0 MSTORE PUSH1 0x20 PUSH1 0x0 KECCAK256 SWAP1 JUMPDEST DUP2 SLOAD DUP2 MSTORE SWAP1 PUSH1 0x1 ADD SWAP1 PUSH1 0x20 ADD DUP1 DUP4 GT PUSH2 0xC03 JUMPI DUP3 SWAP1 SUB PUSH1 0x1F AND DUP3 ADD SWAP2 JUMPDEST POP POP POP POP POP SWAP1 DUP1 PUSH1 0x3 ADD DUP1 SLOAD PUSH2 0xC35 SWAP1 PUSH2 0x572A JUMP JUMPDEST DUP1 PUSH1 0x1F ADD PUSH1 0x20 DUP1 SWAP2 DIV MUL PUSH1 0x20 ADD PUSH1 0x40 MLOAD SWAP1 DUP2 ADD PUSH1 0x40 MSTORE DUP1 SWAP3 SWAP2 SWAP1 DUP2 DUP2 MSTORE PUSH1 0x20 ADD DUP3 DUP1 SLOAD PUSH2 0xC61 SWAP1 PUSH2 0x572A JUMP JUMPDEST DUP1 ISZERO PUSH2 0xCAE JUMPI DUP1 PUSH1 0x1F LT PUSH2 0xC83 JUMPI PUSH2 0x100 DUP1 DUP4 SLOAD DIV MUL DUP4 MSTORE SWAP2 PUSH1 0x20 ADD SWAP2 PUSH2 0xCAE JUMP JUMPDEST DUP3 ADD SWAP2 SWAP1 PUSH1 0x0 MSTORE PUSH1 0x20 PUSH1 0x0 KECCAK256 SWAP1 JUMPDEST DUP2 SLOAD DUP2 MSTORE SWAP1 PUSH1 0x1 ADD SWAP1 PUSH1 0x20 ADD DUP1 DUP4 GT PUSH2 0xC91 JUMPI DUP3 SWAP1 SUB PUSH1 0x1F AND DUP3 ADD SWAP2 JUMPDEST POP POP POP POP POP SWAP1 DUP1 PUSH1 0x4 ADD SLOAD SWAP1 POP DUP6 JUMP JUMPDEST PUSH2 0xCC6 PUSH2 0x1947 JUMP JUMPDEST ISZERO PUSH2 0xD06 JUMPI PUSH1 0x40 MLOAD PUSH32 0x8C379A000000000000000000000000000000000000000000000000000000000 DUP2 MSTORE PUSH1 0x4 ADD PUSH2 0xCFD SWAP1 PUSH2 0x584F JUMP JUMPDEST PUSH1 0x40 MLOAD DUP1 SWAP2 SUB SWAP1 REVERT JUMPDEST PUSH2 0xD32 PUSH32 0xD8F11A683391E8EF9AACF21D1E8099E1DA819896A80A34CCB5905C0A4372FB3C PUSH1 0x0 SHL PUSH2 0x3FBF JUMP JUMPDEST PUSH2 0xD5E PUSH32 0xD926A409DFA6BE33C9D7857B8AB42C29AFE397106D83743A75F2EFE639FF5F8A PUSH1 0x0 SHL PUSH2 0x3FBF JUMP JUMPDEST PUSH2 0xD8A PUSH32 0x1DBE1F6F3814D6E9D4B0EBAD11BE147EFAA5893065B90E1BB04F3A24B25B1E8 PUSH1 0x0 SHL PUSH2 0x3FBF JUMP JUMPDEST PUSH2 0xDB6 PUSH32 0xBA6157D61E9B30815382D7948370B0966B0CC4967FC9DEED9D3635B87FECD52F PUSH1 0x0 SHL PUSH2 0x3FBF JUMP JUMPDEST CALLER PUSH20 0xFFFFFFFFFFFFFFFFFFFFFFFFFFFFFFFFFFFFFFFF AND PUSH1 0x0 PUSH1 0x1 SWAP1 SLOAD SWAP1 PUSH2 0x100 EXP SWAP1 DIV PUSH20 0xFFFFFFFFFFFFFFFFFFFFFFFFFFFFFFFFFFFFFFFF AND PUSH20 0xFFFFFFFFFFFFFFFFFFFFFFFFFFFFFFFFFFFFFFFF AND EQ DUP1 PUSH2 0xE62 JUMPI POP PUSH1 0x1 ISZERO ISZERO PUSH1 0x5 PUSH1 0x0 CALLER PUSH20 0xFFFFFFFFFFFFFFFFFFFFFFFFFFFFFFFFFFFFFFFF AND PUSH20 0xFFFFFFFFFFFFFFFFFFFFFFFFFFFFFFFFFFFFFFFF AND DUP2 MSTORE PUSH1 0x20 ADD SWAP1 DUP2 MSTORE PUSH1 0x20 ADD PUSH1 0x0 KECCAK256 PUSH1 0x0 SWAP1 SLOAD SWAP1 PUSH2 0x100 EXP SWAP1 DIV PUSH1 0xFF AND ISZERO ISZERO EQ JUMPDEST PUSH2 0xEA1 JUMPI PUSH1 0x40 MLOAD PUSH32 0x8C379A000000000000000000000000000000000000000000000000000000000 DUP2 MSTORE PUSH1 0x4 ADD PUSH2 0xE98 SWAP1 PUSH2 0x58E1 JUMP JUMPDEST PUSH1 0x40 MLOAD DUP1 SWAP2 SUB SWAP1 REVERT JUMPDEST PUSH2 0xECD PUSH32 0xEAB754ABFB2F39F44972655F49AC7D406C54C2B073ADEA87B2005D6ED6B8D493 PUSH1 0x0 SHL PUSH2 0x3FBF JUMP JUMPDEST PUSH2 0xEF9 PUSH32 0xF0DEC143076CF2A25AE8F6440799B3E1275EA4EF27E2B86DF0E72346324524A PUSH1 0x0 SHL PUSH2 0x3FBF JUMP JUMPDEST PUSH2 0xF25 PUSH32 0x99795938260BE343F6B98336250FFC513D0ECDCD5BA5287E7D452A259281B26A PUSH1 0x0 SHL PUSH2 0x3FBF JUMP JUMPDEST PUSH1 0x1 PUSH1 0x5 PUSH1 0x0 DUP4 PUSH20 0xFFFFFFFFFFFFFFFFFFFFFFFFFFFFFFFFFFFFFFFF AND PUSH20 0xFFFFFFFFFFFFFFFFFFFFFFFFFFFFFFFFFFFFFFFF AND DUP2 MSTORE PUSH1 0x20 ADD SWAP1 DUP2 MSTORE PUSH1 0x20 ADD PUSH1 0x0 KECCAK256 PUSH1 0x0 PUSH2 0x100 EXP DUP2 SLOAD DUP2 PUSH1 0xFF MUL NOT AND SWAP1 DUP4 ISZERO ISZERO MUL OR SWAP1 SSTORE POP POP JUMP JUMPDEST PUSH2 0xFAC PUSH32 0xC61365800D58411E7DE34C4751BC1F74C39888F765D6DFA6E20F22ADCC11CF87 PUSH1 0x0 SHL PUSH2 0x3FBF JUMP JUMPDEST PUSH2 0xFD8 PUSH32 0x6C048F714316212051ACAAF0CD608A1EB3C0DD30BD6EF6318FBB3BDE4D04F794 PUSH1 0x0 SHL PUSH2 0x3FBF JUMP JUMPDEST PUSH2 0x1004 PUSH32 0xCCB2803DA287381692FFE02F4CDA42BD99DBB97626DE27C1C3E969C3858A7C04 PUSH1 0x0 SHL PUSH2 0x3FBF JUMP JUMPDEST PUSH2 0x1030 PUSH32 0xD3FB966DA526E6C6B828C3028CD875FE1164FB252981A769497CFB8BAD6CE783 PUSH1 0x0 SHL PUSH2 0x3FBF JUMP JUMPDEST PUSH1 0x0 PUSH1 0x1 SWAP1 SLOAD SWAP1 PUSH2 0x100 EXP SWAP1 DIV PUSH20 0xFFFFFFFFFFFFFFFFFFFFFFFFFFFFFFFFFFFFFFFF AND PUSH20 0xFFFFFFFFFFFFFFFFFFFFFFFFFFFFFFFFFFFFFFFF AND CALLER PUSH20 0xFFFFFFFFFFFFFFFFFFFFFFFFFFFFFFFFFFFFFFFF AND EQ PUSH2 0x10C0 JUMPI PUSH1 0x40 MLOAD PUSH32 0x8C379A000000000000000000000000000000000000000000000000000000000 DUP2 MSTORE PUSH1 0x4 ADD PUSH2 0x10B7 SWAP1 PUSH2 0x5973 JUMP JUMPDEST PUSH1 0x40 MLOAD DUP1 SWAP2 SUB SWAP1 REVERT JUMPDEST PUSH2 0x10EC PUSH32 0xC9DD64422090A84B4358816725E8F785EDEDDF052D5DC85D62DF01A5113CE48C PUSH1 0x0 SHL PUSH2 0x3FBF JUMP JUMPDEST PUSH2 0x1118 PUSH32 0x9DBFA186A9ABE2A7B8AA86036A54FA9CD29DD53437E7F01BEE3D7D49593615FB PUSH1 0x0 SHL PUSH2 0x3FBF JUMP JUMPDEST PUSH2 0x1144 PUSH32 0x28788E5C9444EA19062EBB6D9DA0DC4133346E2EB9D8A9F9890B03F38C55D925 PUSH1 0x0 SHL PUSH2 0x3FBF JUMP JUMPDEST PUSH2 0x1170 PUSH32 0xC1F2F05A72013C155E8DB264C5E782CE5FB1332AF4AB0A4DBF23EC2D444B5C8D PUSH1 0x0 SHL PUSH2 0x3FBF JUMP JUMPDEST PUSH2 0x119C PUSH32 0x8C6601304668A6293B0B348625515C565E1FF373894DCEDF25B768FEA1A9CCF9 PUSH1 0x0 SHL PUSH2 0x3FBF JUMP JUMPDEST PUSH2 0x11A4 PUSH2 0x3FC2 JUMP JUMPDEST PUSH2 0x11D0 PUSH32 0x57641378A2B6662375CB8D9EF33684D81D2CB15B169A498BB5C654A1603A3C8D PUSH1 0x0 SHL PUSH2 0x3FBF JUMP JUMPDEST PUSH2 0x11FC PUSH32 0xD6480DBACF21101C8FDEE5A8EA516058B615A83929F6388B33685CBB873526C4 PUSH1 0x0 SHL PUSH2 0x3FBF JUMP JUMPDEST PUSH32 0x5DB9EE0A495BF2E6FF9C91A7834C1BA4FDD244A5E8AA4E537BD38AEAE4B073AA PUSH2 0x1225 PUSH2 0x4063 JUMP JUMPDEST PUSH1 0x40 MLOAD PUSH2 0x1232 SWAP2 SWAP1 PUSH2 0x50BC JUMP JUMPDEST PUSH1 0x40 MLOAD DUP1 SWAP2 SUB SWAP1 LOG1 JUMP JUMPDEST PUSH1 0x8 DUP2 DUP2 SLOAD DUP2 LT PUSH2 0x124C JUMPI PUSH1 0x0 DUP1 REVERT JUMPDEST SWAP1 PUSH1 0x0 MSTORE PUSH1 0x20 PUSH1 0x0 KECCAK256 ADD PUSH1 0x0 SWAP2 POP SWAP1 POP SLOAD DUP2 JUMP JUMPDEST PUSH1 0xA PUSH1 0x1 SWAP1 SLOAD SWAP1 PUSH2 0x100 EXP SWAP1 DIV PUSH1 0xFF AND DUP2 JUMP JUMPDEST PUSH2 0x127B PUSH2 0x1947 JUMP JUMPDEST ISZERO PUSH2 0x12BB JUMPI PUSH1 0x40 MLOAD PUSH32 0x8C379A000000000000000000000000000000000000000000000000000000000 DUP2 MSTORE PUSH1 0x4 ADD PUSH2 0x12B2 SWAP1 PUSH2 0x584F JUMP JUMPDEST PUSH1 0x40 MLOAD DUP1 SWAP2 SUB SWAP1 REVERT JUMPDEST PUSH2 0x12E7 PUSH32 0x52ABA296B1A285AAB90EEF2FE69F0451778E98C9C581F34B245383B39569AC74 PUSH1 0x0 SHL PUSH2 0x3FBF JUMP JUMPDEST PUSH2 0x1313 PUSH32 0x4570D64E780B4EA8BBB8E1EA79E858B76C20D9E9127CD9E72BCEF9E52239DD5C PUSH1 0x0 SHL PUSH2 0x3FBF JUMP JUMPDEST PUSH2 0x133F PUSH32 0x30E3056520E963C3F5C3B9718CA2FF788E709BA541C65A95CDBA4CBDC320746A PUSH1 0x0 SHL PUSH2 0x3FBF JUMP JUMPDEST PUSH2 0x136B PUSH32 0xF9EADDFBAA1537DA6BFAB2D79592A29626D651C934FCD102423E672A6249A7D8 PUSH1 0x0 SHL PUSH2 0x3FBF JUMP JUMPDEST CALLER PUSH20 0xFFFFFFFFFFFFFFFFFFFFFFFFFFFFFFFFFFFFFFFF AND PUSH1 0x0 PUSH1 0x1 SWAP1 SLOAD SWAP1 PUSH2 0x100 EXP SWAP1 DIV PUSH20 0xFFFFFFFFFFFFFFFFFFFFFFFFFFFFFFFFFFFFFFFF AND PUSH20 0xFFFFFFFFFFFFFFFFFFFFFFFFFFFFFFFFFFFFFFFF AND EQ DUP1 PUSH2 0x1417 JUMPI POP PUSH1 0x1 ISZERO ISZERO PUSH1 0x5 PUSH1 0x0 CALLER PUSH20 0xFFFFFFFFFFFFFFFFFFFFFFFFFFFFFFFFFFFFFFFF AND PUSH20 0xFFFFFFFFFFFFFFFFFFFFFFFFFFFFFFFFFFFFFFFF AND DUP2 MSTORE PUSH1 0x20 ADD SWAP1 DUP2 MSTORE PUSH1 0x20 ADD PUSH1 0x0 KECCAK256 PUSH1 0x0 SWAP1 SLOAD SWAP1 PUSH2 0x100 EXP SWAP1 DIV PUSH1 0xFF AND ISZERO ISZERO EQ JUMPDEST PUSH2 0x1456 JUMPI PUSH1 0x40 MLOAD PUSH32 0x8C379A000000000000000000000000000000000000000000000000000000000 DUP2 MSTORE PUSH1 0x4 ADD PUSH2 0x144D SWAP1 PUSH2 0x58E1 JUMP JUMPDEST PUSH1 0x40 MLOAD DUP1 SWAP2 SUB SWAP1 REVERT JUMPDEST PUSH2 0x1482 PUSH32 0xCED0160ED6DC24B2A6249C3BD27D8603F06350FAA8AE4F285C79BC9834189C16 PUSH1 0x0 SHL PUSH2 0x3FBF JUMP JUMPDEST PUSH2 0x14AE PUSH32 0x3A2FB4CA7655D1CAB0ED5945F1D042F53F1F84D2E2372D720C42DC9DF22AE1FC PUSH1 0x0 SHL PUSH2 0x3FBF JUMP JUMPDEST PUSH2 0x14DA PUSH32 0xEF0CED56307A31CD3605705C54430A5EF4483EFEC947E7F8760115DCCC8371C7 PUSH1 0x0 SHL PUSH2 0x3FBF JUMP JUMPDEST PUSH1 0x0 PUSH1 0x5 PUSH1 0x0 DUP4 PUSH20 0xFFFFFFFFFFFFFFFFFFFFFFFFFFFFFFFFFFFFFFFF AND PUSH20 0xFFFFFFFFFFFFFFFFFFFFFFFFFFFFFFFFFFFFFFFF AND DUP2 MSTORE PUSH1 0x20 ADD SWAP1 DUP2 MSTORE PUSH1 0x20 ADD PUSH1 0x0 KECCAK256 PUSH1 0x0 PUSH2 0x100 EXP DUP2 SLOAD DUP2 PUSH1 0xFF MUL NOT AND SWAP1 DUP4 ISZERO ISZERO MUL OR SWAP1 SSTORE POP POP JUMP JUMPDEST PUSH1 0x0 PUSH2 0x1563 PUSH32 0x67E0F1295D03631725B364E5B7DEB02AF935254E944C594E31BD35EEDB09B50A PUSH1 0x0 SHL PUSH2 0x3FBF JUMP JUMPDEST PUSH2 0x158F PUSH32 0xA3C63EF2C6D970EE391E725659543776B9B172CEA12BB1D3407F96000BF08092 PUSH1 0x0 SHL PUSH2 0x3FBF JUMP JUMPDEST PUSH2 0x15BB PUSH32 0x5B1531256F8E22CE8CB2D338E0AA7512F2D192C91151878940B2CDE31E19D14E PUSH1 0x0 SHL PUSH2 0x3FBF JUMP JUMPDEST PUSH1 0xA PUSH1 0x0 SWAP1 SLOAD SWAP1 PUSH2 0x100 EXP SWAP1 DIV PUSH1 0xFF AND SWAP1 POP SWAP1 JUMP JUMPDEST PUSH2 0x15D8 PUSH2 0x1947 JUMP JUMPDEST ISZERO PUSH2 0x1618 JUMPI PUSH1 0x40 MLOAD PUSH32 0x8C379A000000000000000000000000000000000000000000000000000000000 DUP2 MSTORE PUSH1 0x4 ADD PUSH2 0x160F SWAP1 PUSH2 0x584F JUMP JUMPDEST PUSH1 0x40 MLOAD DUP1 SWAP2 SUB SWAP1 REVERT JUMPDEST PUSH2 0x1644 PUSH32 0xC61365800D58411E7DE34C4751BC1F74C39888F765D6DFA6E20F22ADCC11CF87 PUSH1 0x0 SHL PUSH2 0x3FBF JUMP JUMPDEST PUSH2 0x1670 PUSH32 0x6C048F714316212051ACAAF0CD608A1EB3C0DD30BD6EF6318FBB3BDE4D04F794 PUSH1 0x0 SHL PUSH2 0x3FBF JUMP JUMPDEST PUSH2 0x169C PUSH32 0xCCB2803DA287381692FFE02F4CDA42BD99DBB97626DE27C1C3E969C3858A7C04 PUSH1 0x0 SHL PUSH2 0x3FBF JUMP JUMPDEST PUSH2 0x16C8 PUSH32 0xD3FB966DA526E6C6B828C3028CD875FE1164FB252981A769497CFB8BAD6CE783 PUSH1 0x0 SHL PUSH2 0x3FBF JUMP JUMPDEST PUSH1 0x0 PUSH1 0x1 SWAP1 SLOAD SWAP1 PUSH2 0x100 EXP SWAP1 DIV PUSH20 0xFFFFFFFFFFFFFFFFFFFFFFFFFFFFFFFFFFFFFFFF AND PUSH20 0xFFFFFFFFFFFFFFFFFFFFFFFFFFFFFFFFFFFFFFFF AND CALLER PUSH20 0xFFFFFFFFFFFFFFFFFFFFFFFFFFFFFFFFFFFFFFFF AND EQ PUSH2 0x1758 JUMPI PUSH1 0x40 MLOAD PUSH32 0x8C379A000000000000000000000000000000000000000000000000000000000 DUP2 MSTORE PUSH1 0x4 ADD PUSH2 0x174F SWAP1 PUSH2 0x5973 JUMP JUMPDEST PUSH1 0x40 MLOAD DUP1 SWAP2 SUB SWAP1 REVERT JUMPDEST PUSH2 0x1784 PUSH32 0xC9DD64422090A84B4358816725E8F785EDEDDF052D5DC85D62DF01A5113CE48C PUSH1 0x0 SHL PUSH2 0x3FBF JUMP JUMPDEST PUSH2 0x17B0 PUSH32 0x9DBFA186A9ABE2A7B8AA86036A54FA9CD29DD53437E7F01BEE3D7D49593615FB PUSH1 0x0 SHL PUSH2 0x3FBF JUMP JUMPDEST PUSH2 0x17DC PUSH32 0x539CD77F75F8C4CDB8C091587E43BF9D68186B77E32DAC34808D3848DFDCDD24 PUSH1 0x0 SHL PUSH2 0x3FBF JUMP JUMPDEST PUSH2 0x1808 PUSH32 0x6D87C34AB0BD0D1542D369171BCA0DA7DD1D8D5E88F135043CCCD09D51E8DD1E PUSH1 0x0 SHL PUSH2 0x3FBF JUMP JUMPDEST PUSH2 0x1834 PUSH32 0x9B37F1587C2A9DBB24DFDD910CDBFB93E64DAD566CCF437A0F2B2FAD3C11C0AE PUSH1 0x0 SHL PUSH2 0x3FBF JUMP JUMPDEST PUSH1 0x1 PUSH1 0xA PUSH1 0x1 PUSH2 0x100 EXP DUP2 SLOAD DUP2 PUSH1 0xFF MUL NOT AND SWAP1 DUP4 ISZERO ISZERO MUL OR SWAP1 SSTORE POP PUSH2 0x187B PUSH32 0xD98EBBE4B94B741DD89FC3D55F9FD5F649A1381CB210FC61E630B5DDD4CC9EF6 PUSH1 0x0 SHL PUSH2 0x3FBF JUMP JUMPDEST PUSH2 0x18A7 PUSH32 0xB1C3ADEB85F5CD21080C972F9274F803BE2914D6155B591068DC3EA262D74E17 PUSH1 0x0 SHL PUSH2 0x3FBF JUMP JUMPDEST PUSH2 0x18AF PUSH2 0x406B JUMP JUMPDEST POP POP PUSH2 0x18DD PUSH32 0x88A62DA9D27120E2C377696D7495B0A577FE8C58CA19858FDD08BDE5A28E5CE3 PUSH1 0x0 SHL PUSH2 0x3FBF JUMP JUMPDEST PUSH2 0x1909 PUSH32 0x2BF93793BB9377CE8F34EE07E3CA2B9E69C11F6F087710032B8A5FF463DF9B10 PUSH1 0x0 SHL PUSH2 0x3FBF JUMP JUMPDEST PUSH32 0x38D8EBBBB4803F034F19B4CF2F19BFB84CC5DEA177696C1F80A19357D5602E04 PUSH1 0x8 PUSH1 0x9 SLOAD PUSH1 0x40 MLOAD PUSH2 0x193D SWAP3 SWAP2 SWAP1 PUSH2 0x5A69 JUMP JUMPDEST PUSH1 0x40 MLOAD DUP1 SWAP2 SUB SWAP1 LOG1 JUMP JUMPDEST PUSH1 0x0 DUP1 PUSH1 0x0 SWAP1 SLOAD SWAP1 PUSH2 0x100 EXP SWAP1 DIV PUSH1 0xFF AND SWAP1 POP SWAP1 JUMP JUMPDEST PUSH2 0x1965 PUSH2 0x1947 JUMP JUMPDEST ISZERO PUSH2 0x19A5 JUMPI PUSH1 0x40 MLOAD PUSH32 0x8C379A000000000000000000000000000000000000000000000000000000000 DUP2 MSTORE PUSH1 0x4 ADD PUSH2 0x199C SWAP1 PUSH2 0x584F JUMP JUMPDEST PUSH1 0x40 MLOAD DUP1 SWAP2 SUB SWAP1 REVERT JUMPDEST PUSH2 0x19D1 PUSH32 0xC61365800D58411E7DE34C4751BC1F74C39888F765D6DFA6E20F22ADCC11CF87 PUSH1 0x0 SHL PUSH2 0x3FBF JUMP JUMPDEST PUSH2 0x19FD PUSH32 0x6C048F714316212051ACAAF0CD608A1EB3C0DD30BD6EF6318FBB3BDE4D04F794 PUSH1 0x0 SHL PUSH2 0x3FBF JUMP JUMPDEST PUSH2 0x1A29 PUSH32 0xCCB2803DA287381692FFE02F4CDA42BD99DBB97626DE27C1C3E969C3858A7C04 PUSH1 0x0 SHL PUSH2 0x3FBF JUMP JUMPDEST PUSH2 0x1A55 PUSH32 0xD3FB966DA526E6C6B828C3028CD875FE1164FB252981A769497CFB8BAD6CE783 PUSH1 0x0 SHL PUSH2 0x3FBF JUMP JUMPDEST PUSH1 0x0 PUSH1 0x1 SWAP1 SLOAD SWAP1 PUSH2 0x100 EXP SWAP1 DIV PUSH20 0xFFFFFFFFFFFFFFFFFFFFFFFFFFFFFFFFFFFFFFFF AND PUSH20 0xFFFFFFFFFFFFFFFFFFFFFFFFFFFFFFFFFFFFFFFF AND CALLER PUSH20 0xFFFFFFFFFFFFFFFFFFFFFFFFFFFFFFFFFFFFFFFF AND EQ PUSH2 0x1AE5 JUMPI PUSH1 0x40 MLOAD PUSH32 0x8C379A000000000000000000000000000000000000000000000000000000000 DUP2 MSTORE PUSH1 0x4 ADD PUSH2 0x1ADC SWAP1 PUSH2 0x5973 JUMP JUMPDEST PUSH1 0x40 MLOAD DUP1 SWAP2 SUB SWAP1 REVERT JUMPDEST PUSH2 0x1B11 PUSH32 0xC9DD64422090A84B4358816725E8F785EDEDDF052D5DC85D62DF01A5113CE48C PUSH1 0x0 SHL PUSH2 0x3FBF JUMP JUMPDEST PUSH2 0x1B3D PUSH32 0x9DBFA186A9ABE2A7B8AA86036A54FA9CD29DD53437E7F01BEE3D7D49593615FB PUSH1 0x0 SHL PUSH2 0x3FBF JUMP JUMPDEST PUSH2 0x1B69 PUSH32 0x509FE1E5E99DC4BB822904E8A3BA520C697B5B577A3996B613BBA21E9086DEC PUSH1 0x0 SHL PUSH2 0x3FBF JUMP JUMPDEST PUSH2 0x1B95 PUSH32 0xD94888D3EAC30E7F71353ED0A8B5ED617DAED4DB88671ECC856A6AC4E2243736 PUSH1 0x0 SHL PUSH2 0x3FBF JUMP JUMPDEST PUSH2 0x1BC1 PUSH32 0x685D0E0940FD8C835E83374FF61D4860975E1347889196BA1810F215BA24787A PUSH1 0x0 SHL PUSH2 0x3FBF JUMP JUMPDEST PUSH1 0x1 PUSH1 0xA PUSH1 0x0 PUSH2 0x100 EXP DUP2 SLOAD DUP2 PUSH1 0xFF MUL NOT AND SWAP1 DUP4 ISZERO ISZERO MUL OR SWAP1 SSTORE POP JUMP JUMPDEST PUSH2 0x1C0A PUSH32 0xC61365800D58411E7DE34C4751BC1F74C39888F765D6DFA6E20F22ADCC11CF87 PUSH1 0x0 SHL PUSH2 0x3FBF JUMP JUMPDEST PUSH2 0x1C36 PUSH32 0x6C048F714316212051ACAAF0CD608A1EB3C0DD30BD6EF6318FBB3BDE4D04F794 PUSH1 0x0 SHL PUSH2 0x3FBF JUMP JUMPDEST PUSH2 0x1C62 PUSH32 0xCCB2803DA287381692FFE02F4CDA42BD99DBB97626DE27C1C3E969C3858A7C04 PUSH1 0x0 SHL PUSH2 0x3FBF JUMP JUMPDEST PUSH2 0x1C8E PUSH32 0xD3FB966DA526E6C6B828C3028CD875FE1164FB252981A769497CFB8BAD6CE783 PUSH1 0x0 SHL PUSH2 0x3FBF JUMP JUMPDEST PUSH1 0x0 PUSH1 0x1 SWAP1 SLOAD SWAP1 PUSH2 0x100 EXP SWAP1 DIV PUSH20 0xFFFFFFFFFFFFFFFFFFFFFFFFFFFFFFFFFFFFFFFF AND PUSH20 0xFFFFFFFFFFFFFFFFFFFFFFFFFFFFFFFFFFFFFFFF AND CALLER PUSH20 0xFFFFFFFFFFFFFFFFFFFFFFFFFFFFFFFFFFFFFFFF AND EQ PUSH2 0x1D1E JUMPI PUSH1 0x40 MLOAD PUSH32 0x8C379A000000000000000000000000000000000000000000000000000000000 DUP2 MSTORE PUSH1 0x4 ADD PUSH2 0x1D15 SWAP1 PUSH2 0x5973 JUMP JUMPDEST PUSH1 0x40 MLOAD DUP1 SWAP2 SUB SWAP1 REVERT JUMPDEST PUSH2 0x1D4A PUSH32 0xC9DD64422090A84B4358816725E8F785EDEDDF052D5DC85D62DF01A5113CE48C PUSH1 0x0 SHL PUSH2 0x3FBF JUMP JUMPDEST PUSH2 0x1D76 PUSH32 0x9DBFA186A9ABE2A7B8AA86036A54FA9CD29DD53437E7F01BEE3D7D49593615FB PUSH1 0x0 SHL PUSH2 0x3FBF JUMP JUMPDEST PUSH2 0x1DA2 PUSH32 0xC1C4B225EBE7491342DA42441A5FA896E9AECAD3BFCA40BC9979493F60AB7BCB PUSH1 0x0 SHL PUSH2 0x3FBF JUMP JUMPDEST PUSH2 0x1DCE PUSH32 0xF166CB8EB0DCCEF39B57656388EA6F6021A27060F3424486DD9ABFFF75D52C8E PUSH1 0x0 SHL PUSH2 0x3FBF JUMP JUMPDEST PUSH2 0x1DFA PUSH32 0x647F8565636A78AF1B1A8B9400032D19DB4B57F05B6335876B41002011FE75A4 PUSH1 0x0 SHL PUSH2 0x3FBF JUMP JUMPDEST PUSH1 0x0 PUSH1 0xA PUSH1 0x2 PUSH2 0x100 EXP DUP2 SLOAD DUP2 PUSH1 0xFF MUL NOT AND SWAP1 DUP4 ISZERO ISZERO MUL OR SWAP1 SSTORE POP PUSH2 0x1E41 PUSH32 0xE4C352D770F91EC3BAE11894AC150A32D9A6CB4DA8EF0BEEA2601ACA1238D174 PUSH1 0x0 SHL PUSH2 0x3FBF JUMP JUMPDEST PUSH2 0x1E6D PUSH32 0x443ABAF965FF378F7F93F7126F8EF7EA116C10A436B40344C5B6664074B58887 PUSH1 0x0 SHL PUSH2 0x3FBF JUMP JUMPDEST CALLER PUSH1 0x0 PUSH1 0x1 PUSH2 0x100 EXP DUP2 SLOAD DUP2 PUSH20 0xFFFFFFFFFFFFFFFFFFFFFFFFFFFFFFFFFFFFFFFF MUL NOT AND SWAP1 DUP4 PUSH20 0xFFFFFFFFFFFFFFFFFFFFFFFFFFFFFFFFFFFFFFFF AND MUL OR SWAP1 SSTORE POP PUSH2 0x1EDA PUSH32 0xF1D65DA40CD7DA7CD1D29D0F52B82A06CFDD3F1889285C71AA3C5FEAA4062416 PUSH1 0x0 SHL PUSH2 0x3FBF JUMP JUMPDEST PUSH2 0x1F06 PUSH32 0xA00C272CF75A8E59D101B8A4E69E45781BC21011EBE04BDDADB1075FAF299D82 PUSH1 0x0 SHL PUSH2 0x3FBF JUMP JUMPDEST PUSH1 0x0 PUSH1 0xA PUSH1 0x0 PUSH2 0x100 EXP DUP2 SLOAD DUP2 PUSH1 0xFF MUL NOT AND SWAP1 DUP4 ISZERO ISZERO MUL OR SWAP1 SSTORE POP PUSH2 0x1F4D PUSH32 0x5AE36AB7E907AA1AEB4CA0251F16C35C417D7B589C774A83F06D1BCC8882B74C PUSH1 0x0 SHL PUSH2 0x3FBF JUMP JUMPDEST PUSH2 0x1F79 PUSH32 0x458FAF568390EBDCC623372AB15850C6AFC5861A1CE2A9A66E1DC8D43E004CA5 PUSH1 0x0 SHL PUSH2 0x3FBF JUMP JUMPDEST PUSH1 0x0 PUSH1 0xA PUSH1 0x1 PUSH2 0x100 EXP DUP2 SLOAD DUP2 PUSH1 0xFF MUL NOT AND SWAP1 DUP4 ISZERO ISZERO MUL OR SWAP1 SSTORE POP PUSH2 0x1FC0 PUSH32 0x4E682562EFCF2B4DB1DB442268E4F7F62BEDB4F9CEA17C42904E1FE44D2F0F45 PUSH1 0x0 SHL PUSH2 0x3FBF JUMP JUMPDEST PUSH2 0x1FEC PUSH32 0x2C39C8BABFADC7095CA6F199222200AB0DE89D30C24AABE11552C770FCE06208 PUSH1 0x0 SHL PUSH2 0x3FBF JUMP JUMPDEST PUSH1 0x0 PUSH1 0xA PUSH1 0x2 PUSH2 0x100 EXP DUP2 SLOAD DUP2 PUSH1 0xFF MUL NOT AND SWAP1 DUP4 ISZERO ISZERO MUL OR SWAP1 SSTORE POP PUSH2 0x2033 PUSH32 0xF6AE938701626DB699221D94F02E273855C88FFA93C2DDA398F1621835A0B46E PUSH1 0x0 SHL PUSH2 0x3FBF JUMP JUMPDEST PUSH2 0x205F PUSH32 0x72E3C4FA2BDC5C4F20B12839766A54882AFFFF3548D8307FAE762780C35C18BA PUSH1 0x0 SHL PUSH2 0x3FBF JUMP JUMPDEST PUSH1 0x0 PUSH1 0x4 DUP2 SWAP1 SSTORE POP PUSH2 0x2093 PUSH32 0xFD14A535A0BBC1C498870DB62231018FDBEC1C97B0FB4560795F912471F88BDA PUSH1 0x0 SHL PUSH2 0x3FBF JUMP JUMPDEST PUSH2 0x20BF PUSH32 0x5E167EBE276C8633FEA3ECA617D845D29AEF3CE367DEF3B48F1DE05BD95E589E PUSH1 0x0 SHL PUSH2 0x3FBF JUMP JUMPDEST PUSH1 0x0 PUSH1 0xA PUSH1 0x3 PUSH2 0x100 EXP DUP2 SLOAD DUP2 PUSH1 0xFF MUL NOT AND SWAP1 DUP4 ISZERO ISZERO MUL OR SWAP1 SSTORE POP PUSH2 0x2106 PUSH32 0x60905A303297992B7DD411B3BC183E501C767B55F7E1D46F0003049B4959A534 PUSH1 0x0 SHL PUSH2 0x3FBF JUMP JUMPDEST PUSH1 0x8 PUSH1 0x0 PUSH2 0x2114 SWAP2 SWAP1 PUSH2 0x4BA3 JUMP JUMPDEST PUSH2 0x2140 PUSH32 0xEB11335A755F683BF2199128A7D82F797A901C99EC6FDED58E7E75A272ACCD3 PUSH1 0x0 SHL PUSH2 0x3FBF JUMP JUMPDEST PUSH2 0x216C PUSH32 0x7E2E77CA21AA1B46B9B0AAD6729D34129F7D6C650038A359E5A0D77901124444 PUSH1 0x0 SHL PUSH2 0x3FBF JUMP JUMPDEST PUSH1 0x0 PUSH1 0x9 DUP2 SWAP1 SSTORE POP JUMP JUMPDEST PUSH1 0x2 DUP1 SLOAD PUSH2 0x2183 SWAP1 PUSH2 0x572A JUMP JUMPDEST DUP1 PUSH1 0x1F ADD PUSH1 0x20 DUP1 SWAP2 DIV MUL PUSH1 0x20 ADD PUSH1 0x40 MLOAD SWAP1 DUP2 ADD PUSH1 0x40 MSTORE DUP1 SWAP3 SWAP2 SWAP1 DUP2 DUP2 MSTORE PUSH1 0x20 ADD DUP3 DUP1 SLOAD PUSH2 0x21AF SWAP1 PUSH2 0x572A JUMP JUMPDEST DUP1 ISZERO PUSH2 0x21FC JUMPI DUP1 PUSH1 0x1F LT PUSH2 0x21D1 JUMPI PUSH2 0x100 DUP1 DUP4 SLOAD DIV MUL DUP4 MSTORE SWAP2 PUSH1 0x20 ADD SWAP2 PUSH2 0x21FC JUMP JUMPDEST DUP3 ADD SWAP2 SWAP1 PUSH1 0x0 MSTORE PUSH1 0x20 PUSH1 0x0 KECCAK256 SWAP1 JUMPDEST DUP2 SLOAD DUP2 MSTORE SWAP1 PUSH1 0x1 ADD SWAP1 PUSH1 0x20 ADD DUP1 DUP4 GT PUSH2 0x21DF JUMPI DUP3 SWAP1 SUB PUSH1 0x1F AND DUP3 ADD SWAP2 JUMPDEST POP POP POP POP POP DUP2 JUMP JUMPDEST PUSH2 0x2230 PUSH32 0xC61365800D58411E7DE34C4751BC1F74C39888F765D6DFA6E20F22ADCC11CF87 PUSH1 0x0 SHL PUSH2 0x3FBF JUMP JUMPDEST PUSH2 0x225C PUSH32 0x6C048F714316212051ACAAF0CD608A1EB3C0DD30BD6EF6318FBB3BDE4D04F794 PUSH1 0x0 SHL PUSH2 0x3FBF JUMP JUMPDEST PUSH2 0x2288 PUSH32 0xCCB2803DA287381692FFE02F4CDA42BD99DBB97626DE27C1C3E969C3858A7C04 PUSH1 0x0 SHL PUSH2 0x3FBF JUMP JUMPDEST PUSH2 0x22B4 PUSH32 0xD3FB966DA526E6C6B828C3028CD875FE1164FB252981A769497CFB8BAD6CE783 PUSH1 0x0 SHL PUSH2 0x3FBF JUMP JUMPDEST PUSH1 0x0 PUSH1 0x1 SWAP1 SLOAD SWAP1 PUSH2 0x100 EXP SWAP1 DIV PUSH20 0xFFFFFFFFFFFFFFFFFFFFFFFFFFFFFFFFFFFFFFFF AND PUSH20 0xFFFFFFFFFFFFFFFFFFFFFFFFFFFFFFFFFFFFFFFF AND CALLER PUSH20 0xFFFFFFFFFFFFFFFFFFFFFFFFFFFFFFFFFFFFFFFF AND EQ PUSH2 0x2344 JUMPI PUSH1 0x40 MLOAD PUSH32 0x8C379A000000000000000000000000000000000000000000000000000000000 DUP2 MSTORE PUSH1 0x4 ADD PUSH2 0x233B SWAP1 PUSH2 0x5973 JUMP JUMPDEST PUSH1 0x40 MLOAD DUP1 SWAP2 SUB SWAP1 REVERT JUMPDEST PUSH2 0x2370 PUSH32 0xC9DD64422090A84B4358816725E8F785EDEDDF052D5DC85D62DF01A5113CE48C PUSH1 0x0 SHL PUSH2 0x3FBF JUMP JUMPDEST PUSH2 0x239C PUSH32 0x9DBFA186A9ABE2A7B8AA86036A54FA9CD29DD53437E7F01BEE3D7D49593615FB PUSH1 0x0 SHL PUSH2 0x3FBF JUMP JUMPDEST PUSH2 0x23C8 PUSH32 0xEAE8E141B4DC5EE1EC3FA9440F45A95BE52D6EEDBB86206228965BFBB16C6EDE PUSH1 0x0 SHL PUSH2 0x3FBF JUMP JUMPDEST PUSH2 0x23F4 PUSH32 0xA2210F6DE7F686D7D5BA9944F7B94CCC03A216161BDCE2B50697410C562B41AA PUSH1 0x0 SHL PUSH2 0x3FBF JUMP JUMPDEST PUSH2 0x2420 PUSH32 0xC5EC14FB9A2B00F3712CD29DE0F531C266C6FC337E4D871847053FC264AE74DE PUSH1 0x0 SHL PUSH2 0x3FBF JUMP JUMPDEST PUSH2 0x2428 PUSH2 0x4570 JUMP JUMPDEST PUSH2 0x2454 PUSH32 0x7D6D1A41DCD407C213F1F7622D60F9D9C15F915AF936918AE8B3A9CEA7FC4CDB PUSH1 0x0 SHL PUSH2 0x3FBF JUMP JUMPDEST PUSH2 0x2480 PUSH32 0x69065EE662199B8C69F2ACA7A21D4CE9B5F6D1573C891A6E722D0957F81F0225 PUSH1 0x0 SHL PUSH2 0x3FBF JUMP JUMPDEST PUSH32 0x62E78CEA01BEE320CD4E420270B5EA74000D11B0C9F74754EBDBFC544B05A258 PUSH2 0x24A9 PUSH2 0x4063 JUMP JUMPDEST PUSH1 0x40 MLOAD PUSH2 0x24B6 SWAP2 SWAP1 PUSH2 0x50BC JUMP JUMPDEST PUSH1 0x40 MLOAD DUP1 SWAP2 SUB SWAP1 LOG1 JUMP JUMPDEST PUSH1 0x0 PUSH2 0x24EE PUSH32 0xFCB49922ECB56B47C45C8BE27AEB49621FD0D364C7E88BCC10D4E783067AD04 PUSH1 0x0 SHL PUSH2 0x3FBF JUMP JUMPDEST PUSH2 0x251A PUSH32 0xB6C18B71270308205508530B9848E075EDE2A048CE6CACBC880E97330C19BF54 PUSH1 0x0 SHL PUSH2 0x3FBF JUMP JUMPDEST PUSH2 0x2546 PUSH32 0xA92CE9AA72570F37B18F188A2651AA0F0C21F6E2205252BE6AAFC9A5B22E92AE PUSH1 0x0 SHL PUSH2 0x3FBF JUMP JUMPDEST PUSH1 0xA PUSH1 0x2 SWAP1 SLOAD SWAP1 PUSH2 0x100 EXP SWAP1 DIV PUSH1 0xFF AND SWAP1 POP SWAP1 JUMP JUMPDEST PUSH1 0x0 PUSH1 0x1 SWAP1 SLOAD SWAP1 PUSH2 0x100 EXP SWAP1 DIV PUSH20 0xFFFFFFFFFFFFFFFFFFFFFFFFFFFFFFFFFFFFFFFF AND DUP2 JUMP JUMPDEST PUSH1 0x0 PUSH1 0x60 PUSH2 0x25B1 PUSH32 0xCE92535B45D0B6F01484E9F53FAA00DF66614ACF5CD8CDB5D7F13E83E79FB917 PUSH1 0x0 SHL PUSH2 0x3FBF JUMP JUMPDEST PUSH2 0x25DD PUSH32 0x18FB7166668E00A41810495DBC6C09040D75E487D8DF4257F41A74F633596CD6 PUSH1 0x0 SHL PUSH2 0x3FBF JUMP JUMPDEST PUSH2 0x2609 PUSH32 0xA02176F0D5CB7E8F6658C494BF64139D5E97B12DBE855EABD48FC0E9BE4AB74A PUSH1 0x0 SHL PUSH2 0x3FBF JUMP JUMPDEST PUSH2 0x2635 PUSH32 0x8373DD0064F7D88B7F36EEE113C1377FE15EB61FAE9DAD1DC3D5D414199459EE PUSH1 0x0 SHL PUSH2 0x3FBF JUMP JUMPDEST PUSH1 0xA PUSH1 0x3 SWAP1 SLOAD SWAP1 PUSH2 0x100 EXP SWAP1 DIV PUSH1 0xFF AND PUSH2 0x2684 JUMPI PUSH1 0x40 MLOAD PUSH32 0x8C379A000000000000000000000000000000000000000000000000000000000 DUP2 MSTORE PUSH1 0x4 ADD PUSH2 0x267B SWAP1 PUSH2 0x5AE5 JUMP JUMPDEST PUSH1 0x40 MLOAD DUP1 SWAP2 SUB SWAP1 REVERT JUMPDEST PUSH2 0x26B0 PUSH32 0xFAFAD7BCA76435D2D5EEDFC634AF02F01F189A3D326910D31A9B0FC4B96B2476 PUSH1 0x0 SHL PUSH2 0x3FBF JUMP JUMPDEST PUSH2 0x26DC PUSH32 0xC148C3416430E495184AA7E5F85FAC527C54A366326F87B46B0C9A7AAC021B42 PUSH1 0x0 SHL PUSH2 0x3FBF JUMP JUMPDEST PUSH2 0x2708 PUSH32 0x9ACE2E23F110F2C2476B0D524036C4BF1EC765E5C3CB793462562F5B4E2B86AC PUSH1 0x0 SHL PUSH2 0x3FBF JUMP JUMPDEST PUSH1 0x9 SLOAD PUSH1 0x8 DUP1 DUP1 SLOAD DUP1 PUSH1 0x20 MUL PUSH1 0x20 ADD PUSH1 0x40 MLOAD SWAP1 DUP2 ADD PUSH1 0x40 MSTORE DUP1 SWAP3 SWAP2 SWAP1 DUP2 DUP2 MSTORE PUSH1 0x20 ADD DUP3 DUP1 SLOAD DUP1 ISZERO PUSH2 0x2758 JUMPI PUSH1 0x20 MUL DUP3 ADD SWAP2 SWAP1 PUSH1 0x0 MSTORE PUSH1 0x20 PUSH1 0x0 KECCAK256 SWAP1 JUMPDEST DUP2 SLOAD DUP2 MSTORE PUSH1 0x20 ADD SWAP1 PUSH1 0x1 ADD SWAP1 DUP1 DUP4 GT PUSH2 0x2744 JUMPI JUMPDEST POP POP POP POP POP SWAP1 POP SWAP2 POP SWAP2 POP SWAP1 SWAP2 JUMP JUMPDEST PUSH2 0x2793 PUSH32 0xEC74D5E9941EA32AC21BED40012C6D0C624A62397164316D0C27A03A6B30F8D7 PUSH1 0x0 SHL PUSH2 0x3FBF JUMP JUMPDEST PUSH2 0x27BF PUSH32 0x420523891AFA074E2FD9EFB2CE4EFAC8D2CAB154148A840A4DFD7DBDAA685B09 PUSH1 0x0 SHL PUSH2 0x3FBF JUMP JUMPDEST PUSH2 0x27EB PUSH32 0xC3F68668BF50915F50C07522CBB1F1AE8D86F02EC729EF5B2EAE43940F261C06 PUSH1 0x0 SHL PUSH2 0x3FBF JUMP JUMPDEST PUSH2 0x2817 PUSH32 0xC211CF234009379D72ED93B8365E460E6E61C55280B9A6BC1E12626B376D8C55 PUSH1 0x0 SHL PUSH2 0x3FBF JUMP JUMPDEST PUSH1 0xA PUSH1 0x1 SWAP1 SLOAD SWAP1 PUSH2 0x100 EXP SWAP1 DIV PUSH1 0xFF AND PUSH2 0x2866 JUMPI PUSH1 0x40 MLOAD PUSH32 0x8C379A000000000000000000000000000000000000000000000000000000000 DUP2 MSTORE PUSH1 0x4 ADD PUSH2 0x285D SWAP1 PUSH2 0x5B77 JUMP JUMPDEST PUSH1 0x40 MLOAD DUP1 SWAP2 SUB SWAP1 REVERT JUMPDEST PUSH2 0x2892 PUSH32 0xBB6210A5E77FE68EC8E8C67A33BB2C85F26BF80080423CADA6F1A85B91C6A9AF PUSH1 0x0 SHL PUSH2 0x3FBF JUMP JUMPDEST PUSH2 0x28BE PUSH32 0x72D1E71D6C24A00ABE8548427D42C3FF581EFEFFC8FF3C07964B39830AAC82E7 PUSH1 0x0 SHL PUSH2 0x3FBF JUMP JUMPDEST PUSH2 0x28EA PUSH32 0xDC8C41A43947CDCC1C256831DB51FD00D4BB075AC4A8D90CBC3B942CA60B37D9 PUSH1 0x0 SHL PUSH2 0x3FBF JUMP JUMPDEST PUSH2 0x2916 PUSH32 0x7843408CF570E0014751B328E0E8A5839A6D75E284332D099E8253614E977087 PUSH1 0x0 SHL PUSH2 0x3FBF JUMP JUMPDEST CALLER PUSH20 0xFFFFFFFFFFFFFFFFFFFFFFFFFFFFFFFFFFFFFFFF AND PUSH1 0x0 PUSH1 0x1 SWAP1 SLOAD SWAP1 PUSH2 0x100 EXP SWAP1 DIV PUSH20 0xFFFFFFFFFFFFFFFFFFFFFFFFFFFFFFFFFFFFFFFF AND PUSH20 0xFFFFFFFFFFFFFFFFFFFFFFFFFFFFFFFFFFFFFFFF AND EQ DUP1 PUSH2 0x29C2 JUMPI POP PUSH1 0x1 ISZERO ISZERO PUSH1 0x5 PUSH1 0x0 CALLER PUSH20 0xFFFFFFFFFFFFFFFFFFFFFFFFFFFFFFFFFFFFFFFF AND PUSH20 0xFFFFFFFFFFFFFFFFFFFFFFFFFFFFFFFFFFFFFFFF AND DUP2 MSTORE PUSH1 0x20 ADD SWAP1 DUP2 MSTORE PUSH1 0x20 ADD PUSH1 0x0 KECCAK256 PUSH1 0x0 SWAP1 SLOAD SWAP1 PUSH2 0x100 EXP SWAP1 DIV PUSH1 0xFF AND ISZERO ISZERO EQ JUMPDEST PUSH2 0x2A01 JUMPI PUSH1 0x40 MLOAD PUSH32 0x8C379A000000000000000000000000000000000000000000000000000000000 DUP2 MSTORE PUSH1 0x4 ADD PUSH2 0x29F8 SWAP1 PUSH2 0x5C09 JUMP JUMPDEST PUSH1 0x40 MLOAD DUP1 SWAP2 SUB SWAP1 REVERT JUMPDEST PUSH2 0x2A2D PUSH32 0x8DC851C038F2A75774A510AFA62166BAD9CDFBA1EA9753F623EA284C052AA120 PUSH1 0x0 SHL PUSH2 0x3FBF JUMP JUMPDEST PUSH2 0x2A59 PUSH32 0xF0DCCDB760027F1C7AC2AB28BA5C4319AD78EA2D22BC087C028F46B6CFF65824 PUSH1 0x0 SHL PUSH2 0x3FBF JUMP JUMPDEST PUSH2 0x2A85 PUSH32 0x1026703FF7A4E54CC550DB4EB347D690922AC067672FA0BDF5741D3506070B13 PUSH1 0x0 SHL PUSH2 0x3FBF JUMP JUMPDEST PUSH1 0x1 PUSH1 0xA PUSH1 0x3 PUSH2 0x100 EXP DUP2 SLOAD DUP2 PUSH1 0xFF MUL NOT AND SWAP1 DUP4 ISZERO ISZERO MUL OR SWAP1 SSTORE POP JUMP JUMPDEST PUSH1 0xA PUSH1 0x2 SWAP1 SLOAD SWAP1 PUSH2 0x100 EXP SWAP1 DIV PUSH1 0xFF AND DUP2 JUMP JUMPDEST PUSH1 0x0 PUSH2 0x2AE3 PUSH32 0x905397CD83C0A0C8E00EE1CDA927ACE007910BC92ABC3E3102583B275FEF7CE5 PUSH1 0x0 SHL PUSH2 0x3FBF JUMP JUMPDEST PUSH2 0x2B0F PUSH32 0xF10368458A1E8950F55708F9D928976985FD6A397515E608FBC35721F47BC111 PUSH1 0x0 SHL PUSH2 0x3FBF JUMP JUMPDEST PUSH2 0x2B3B PUSH32 0xD7F1E7C923C834B0CD9F7AE6F2EC5DFDED676E8B0C9D801158B264F0D24A8D9A PUSH1 0x0 SHL PUSH2 0x3FBF JUMP JUMPDEST PUSH1 0xA PUSH1 0x1 SWAP1 SLOAD SWAP1 PUSH2 0x100 EXP SWAP1 DIV PUSH1 0xFF AND SWAP1 POP SWAP1 JUMP JUMPDEST PUSH2 0x2B58 PUSH2 0x1947 JUMP JUMPDEST ISZERO PUSH2 0x2B98 JUMPI PUSH1 0x40 MLOAD PUSH32 0x8C379A000000000000000000000000000000000000000000000000000000000 DUP2 MSTORE PUSH1 0x4 ADD PUSH2 0x2B8F SWAP1 PUSH2 0x584F JUMP JUMPDEST PUSH1 0x40 MLOAD DUP1 SWAP2 SUB SWAP1 REVERT JUMPDEST PUSH2 0x2BC4 PUSH32 0x2757F444343BCF165C7C879A1AD14E8184E216F8AE1351FEEB45777BE5478FC5 PUSH1 0x0 SHL PUSH2 0x3FBF JUMP JUMPDEST PUSH2 0x2BF0 PUSH32 0x51FAB2FFD12F89504C5879306AB5485D16310D46507EAB23210CE88F0F42FEC PUSH1 0x0 SHL PUSH2 0x3FBF JUMP JUMPDEST PUSH2 0x2C1C PUSH32 0xE0D3A8A961F2A7A18994AB8DFE35D1DF998F28B79BCDE1A79AAE5C48EE710110 PUSH1 0x0 SHL PUSH2 0x3FBF JUMP JUMPDEST PUSH2 0x2C48 PUSH32 0x5F3483E5530FC89C17F8385258C17B7B9F6FE9D8A0749B06B762E58F8959BDCA PUSH1 0x0 SHL PUSH2 0x3FBF JUMP JUMPDEST PUSH1 0xA PUSH1 0x0 SWAP1 SLOAD SWAP1 PUSH2 0x100 EXP SWAP1 DIV PUSH1 0xFF AND ISZERO PUSH2 0x2C98 JUMPI PUSH1 0x40 MLOAD PUSH32 0x8C379A000000000000000000000000000000000000000000000000000000000 DUP2 MSTORE PUSH1 0x4 ADD PUSH2 0x2C8F SWAP1 PUSH2 0x5C75 JUMP JUMPDEST PUSH1 0x40 MLOAD DUP1 SWAP2 SUB SWAP1 REVERT JUMPDEST PUSH2 0x2CC4 PUSH32 0xEEE8AD60C650688B85674C06BACE49F696FD8855D7B3960BEF134C418BCEC19E PUSH1 0x0 SHL PUSH2 0x3FBF JUMP JUMPDEST PUSH2 0x2CF0 PUSH32 0xE589A0492B5EFB3D69C62106C4E489736A5492EEBC34447CE9987E0789ADF0F3 PUSH1 0x0 SHL PUSH2 0x3FBF JUMP JUMPDEST PUSH2 0x2D1C PUSH32 0x3E86F88C4EFD3C7866A80F63E83788E775779C1FA9AB59E1ADF7EB67C0F9DA0C PUSH1 0x0 SHL PUSH2 0x3FBF JUMP JUMPDEST PUSH2 0x2D48 PUSH32 0x1D830ED6AB7D9F5A54AD467677B8108137D686E7931B1333E4BBD0C41D42C419 PUSH1 0x0 SHL PUSH2 0x3FBF JUMP JUMPDEST CALLER PUSH20 0xFFFFFFFFFFFFFFFFFFFFFFFFFFFFFFFFFFFFFFFF AND PUSH1 0x0 PUSH1 0x1 SWAP1 SLOAD SWAP1 PUSH2 0x100 EXP SWAP1 DIV PUSH20 0xFFFFFFFFFFFFFFFFFFFFFFFFFFFFFFFFFFFFFFFF AND PUSH20 0xFFFFFFFFFFFFFFFFFFFFFFFFFFFFFFFFFFFFFFFF AND EQ DUP1 PUSH2 0x2DF4 JUMPI POP PUSH1 0x1 ISZERO ISZERO PUSH1 0x5 PUSH1 0x0 CALLER PUSH20 0xFFFFFFFFFFFFFFFFFFFFFFFFFFFFFFFFFFFFFFFF AND PUSH20 0xFFFFFFFFFFFFFFFFFFFFFFFFFFFFFFFFFFFFFFFF AND DUP2 MSTORE PUSH1 0x20 ADD SWAP1 DUP2 MSTORE PUSH1 0x20 ADD PUSH1 0x0 KECCAK256 PUSH1 0x0 SWAP1 SLOAD SWAP1 PUSH2 0x100 EXP SWAP1 DIV PUSH1 0xFF AND ISZERO ISZERO EQ JUMPDEST PUSH2 0x2E33 JUMPI PUSH1 0x40 MLOAD PUSH32 0x8C379A000000000000000000000000000000000000000000000000000000000 DUP2 MSTORE PUSH1 0x4 ADD PUSH2 0x2E2A SWAP1 PUSH2 0x58E1 JUMP JUMPDEST PUSH1 0x40 MLOAD DUP1 SWAP2 SUB SWAP1 REVERT JUMPDEST PUSH2 0x2E5F PUSH32 0xE4DA5737DA703F921C09A16433E4C55B06A02BE029C9B6DED6E106FEDD91EA32 PUSH1 0x0 SHL PUSH2 0x3FBF JUMP JUMPDEST PUSH2 0x2E8B PUSH32 0xCF2A3FBB94CEFA12BD738DD4217306AF8BBEDD85DB691383986C64C0DDFA588F PUSH1 0x0 SHL PUSH2 0x3FBF JUMP JUMPDEST PUSH2 0x2EB7 PUSH32 0xAFD1F187F5D32EEB6787482FE4956CCC358D762D2BE8E9D03D16E9576FD4AB35 PUSH1 0x0 SHL PUSH2 0x3FBF JUMP JUMPDEST PUSH1 0x40 MLOAD DUP1 PUSH1 0xA0 ADD PUSH1 0x40 MSTORE DUP1 PUSH1 0x4 SLOAD DUP2 MSTORE PUSH1 0x20 ADD DUP5 DUP2 MSTORE PUSH1 0x20 ADD DUP4 DUP2 MSTORE PUSH1 0x20 ADD DUP3 DUP2 MSTORE PUSH1 0x20 ADD PUSH1 0x0 DUP2 MSTORE POP PUSH1 0x7 PUSH1 0x0 PUSH1 0x4 SLOAD DUP2 MSTORE PUSH1 0x20 ADD SWAP1 DUP2 MSTORE PUSH1 0x20 ADD PUSH1 0x0 KECCAK256 PUSH1 0x0 DUP3 ADD MLOAD DUP2 PUSH1 0x0 ADD SSTORE PUSH1 0x20 DUP3 ADD MLOAD DUP2 PUSH1 0x1 ADD SWAP1 DUP1 MLOAD SWAP1 PUSH1 0x20 ADD SWAP1 PUSH2 0x2F1C SWAP3 SWAP2 SWAP1 PUSH2 0x4BC4 JUMP JUMPDEST POP PUSH1 0x40 DUP3 ADD MLOAD DUP2 PUSH1 0x2 ADD SWAP1 DUP1 MLOAD SWAP1 PUSH1 0x20 ADD SWAP1 PUSH2 0x2F39 SWAP3 SWAP2 SWAP1 PUSH2 0x4BC4 JUMP JUMPDEST POP PUSH1 0x60 DUP3 ADD MLOAD DUP2 PUSH1 0x3 ADD SWAP1 DUP1 MLOAD SWAP1 PUSH1 0x20 ADD SWAP1 PUSH2 0x2F56 SWAP3 SWAP2 SWAP1 PUSH2 0x4BC4 JUMP JUMPDEST POP PUSH1 0x80 DUP3 ADD MLOAD DUP2 PUSH1 0x4 ADD SSTORE SWAP1 POP POP PUSH2 0x2F90 PUSH32 0xA36CF51C7D8FB9B0D8B6876CFB9CD81F6C9D02C1CF2DF89E2DCA76993030F25A PUSH1 0x0 SHL PUSH2 0x3FBF JUMP JUMPDEST PUSH2 0x2FBC PUSH32 0xC3F7E04AECB87A36C82CC72E6472AA3B1159F84DC48F254560A68C5DB9C218E2 PUSH1 0x0 SHL PUSH2 0x3FBF JUMP JUMPDEST PUSH32 0x78D27A3C512303F604B46BC28ACC0CA45ABE6420172A017C5A6DC585821EB639 PUSH1 0x4 SLOAD DUP5 PUSH1 0x40 MLOAD PUSH2 0x2FEF SWAP3 SWAP2 SWAP1 PUSH2 0x5C95 JUMP JUMPDEST PUSH1 0x40 MLOAD DUP1 SWAP2 SUB SWAP1 LOG1 PUSH2 0x3023 PUSH32 0xAF4E5DCF3CC9A94F3D629AD108977EE247C7C9FFC6153CA01C98EC895605C110 PUSH1 0x0 SHL PUSH2 0x3FBF JUMP JUMPDEST PUSH1 0x4 PUSH1 0x0 DUP2 SLOAD DUP1 SWAP3 SWAP2 SWAP1 PUSH2 0x3036 SWAP1 PUSH2 0x57BA JUMP JUMPDEST SWAP2 SWAP1 POP SSTORE POP POP POP POP JUMP JUMPDEST PUSH1 0x6 PUSH1 0x20 MSTORE DUP1 PUSH1 0x0 MSTORE PUSH1 0x40 PUSH1 0x0 KECCAK256 PUSH1 0x0 SWAP2 POP SLOAD SWAP1 PUSH2 0x100 EXP SWAP1 DIV PUSH1 0xFF AND DUP2 JUMP JUMPDEST PUSH1 0x0 PUSH2 0x308E PUSH32 0x85099047F48D4F172EA26128C5AD3BACB7C038D1BDCC4A4DA06973EDB42E31A0 PUSH1 0x0 SHL PUSH2 0x3FBF JUMP JUMPDEST PUSH2 0x30BA PUSH32 0xBDC313912BE04859411B4DAA50C3BE9B4AB6CC059511441EDBD0C2A852A20998 PUSH1 0x0 SHL PUSH2 0x3FBF JUMP JUMPDEST PUSH2 0x30E6 PUSH32 0x4A6DBB52F1D19F49F1521498189D17E67B23D4A5E656D8AD33F5D108D0D0B5DC PUSH1 0x0 SHL PUSH2 0x3FBF JUMP JUMPDEST PUSH2 0x30F3 DUP4 PUSH1 0x3 SLOAD DUP5 PUSH2 0x4612 JUMP JUMPDEST SWAP1 POP SWAP3 SWAP2 POP POP JUMP JUMPDEST PUSH1 0x0 PUSH2 0x3129 PUSH32 0x3270B14E1B2239186B3C058EC7DBC5CE62F3ADC9F41B6BA75756943BDF2656C4 PUSH1 0x0 SHL PUSH2 0x3FBF JUMP JUMPDEST PUSH2 0x3155 PUSH32 0xED71637089659F55BF47958140812E02729363E434EE41E08D31D16128CE2393 PUSH1 0x0 SHL PUSH2 0x3FBF JUMP JUMPDEST PUSH2 0x3181 PUSH32 0x5D967BBF7FE8FCD2F3A4B25C58C6AEB5717EBB43D26B7CAFFC6AE325DE6D4972 PUSH1 0x0 SHL PUSH2 0x3FBF JUMP JUMPDEST PUSH1 0x5 PUSH1 0x0 CALLER PUSH20 0xFFFFFFFFFFFFFFFFFFFFFFFFFFFFFFFFFFFFFFFF AND PUSH20 0xFFFFFFFFFFFFFFFFFFFFFFFFFFFFFFFFFFFFFFFF AND DUP2 MSTORE PUSH1 0x20 ADD SWAP1 DUP2 MSTORE PUSH1 0x20 ADD PUSH1 0x0 KECCAK256 PUSH1 0x0 SWAP1 SLOAD SWAP1 PUSH2 0x100 EXP SWAP1 DIV PUSH1 0xFF AND SWAP1 POP SWAP1 JUMP JUMPDEST PUSH1 0xA PUSH1 0x0 SWAP1 SLOAD SWAP1 PUSH2 0x100 EXP SWAP1 DIV PUSH1 0xFF AND DUP2 JUMP JUMPDEST PUSH2 0x31EE PUSH2 0x1947 JUMP JUMPDEST ISZERO PUSH2 0x322E JUMPI PUSH1 0x40 MLOAD PUSH32 0x8C379A000000000000000000000000000000000000000000000000000000000 DUP2 MSTORE PUSH1 0x4 ADD PUSH2 0x3225 SWAP1 PUSH2 0x584F JUMP JUMPDEST PUSH1 0x40 MLOAD DUP1 SWAP2 SUB SWAP1 REVERT JUMPDEST PUSH2 0x325A PUSH32 0x72C2D37252859B72258E758CAD3D046DBBF6E7D52D3CDE26B4C6D69B3A9B9CAD PUSH1 0x0 SHL PUSH2 0x3FBF JUMP JUMPDEST PUSH2 0x3286 PUSH32 0xAEE10EA6D3B32B03A0E99BF9992CB97B62B67E53E151C8BE9F078D4753704A99 PUSH1 0x0 SHL PUSH2 0x3FBF JUMP JUMPDEST PUSH2 0x32B2 PUSH32 0x11AFB7B47F127B8ED300ADD7BAAC6E534CDFC245F6D6640C6910521B1389548D PUSH1 0x0 SHL PUSH2 0x3FBF JUMP JUMPDEST PUSH2 0x32DE PUSH32 0x2452D9FE2836AE0C93EEF00B6E11C719792AAE0330B6A5931BD7C1B2A7288559 PUSH1 0x0 SHL PUSH2 0x3FBF JUMP JUMPDEST PUSH1 0xA PUSH1 0x0 SWAP1 SLOAD SWAP1 PUSH2 0x100 EXP SWAP1 DIV PUSH1 0xFF AND ISZERO PUSH2 0x332E JUMPI PUSH1 0x40 MLOAD PUSH32 0x8C379A000000000000000000000000000000000000000000000000000000000 DUP2 MSTORE PUSH1 0x4 ADD PUSH2 0x3325 SWAP1 PUSH2 0x5C75 JUMP JUMPDEST PUSH1 0x40 MLOAD DUP1 SWAP2 SUB SWAP1 REVERT JUMPDEST PUSH2 0x335A PUSH32 0x7B5CE290E2126E4EFA1AEA78288087F2E46DEB3F6C720DEB7F7988D6843196CB PUSH1 0x0 SHL PUSH2 0x3FBF JUMP JUMPDEST PUSH2 0x3386 PUSH32 0x8F46AC4700BEE3952F5A316871665E3FBFA400BBB6D4C38F8CC961A1AA3C2FF0 PUSH1 0x0 SHL PUSH2 0x3FBF JUMP JUMPDEST PUSH2 0x33B2 PUSH32 0x5AF6065B816343CC187ED5DFE43049E5DF712E679F9F5CBC34036C39AC689423 PUSH1 0x0 SHL PUSH2 0x3FBF JUMP JUMPDEST PUSH2 0x33DE PUSH32 0x862A4CC0F23C5FA95F48D618CE0779ED8F5ADDFD59A7DCBE5DD20B02BC40BA12 PUSH1 0x0 SHL PUSH2 0x3FBF JUMP JUMPDEST PUSH1 0x0 DUP2 MLOAD GT PUSH2 0x3422 JUMPI PUSH1 0x40 MLOAD PUSH32 0x8C379A000000000000000000000000000000000000000000000000000000000 DUP2 MSTORE PUSH1 0x4 ADD PUSH2 0x3419 SWAP1 PUSH2 0x5D37 JUMP JUMPDEST PUSH1 0x40 MLOAD DUP1 SWAP2 SUB SWAP1 REVERT JUMPDEST PUSH2 0x344E PUSH32 0x1E14111941B018F4A2059BE14EC643A6D8B76032A36DE716F55B45B498DE3678 PUSH1 0x0 SHL PUSH2 0x3FBF JUMP JUMPDEST PUSH2 0x347A PUSH32 0xA09F13FBB6893DDD3307F6DB264F94C0805553B71CC20A018BA6D56A3752FCF9 PUSH1 0x0 SHL PUSH2 0x3FBF JUMP JUMPDEST PUSH2 0x34A6 PUSH32 0x6D7A9EF6BD96F259A50305CF922EAA6B0A7F2F9CACA778C9CF055FA64E05563B PUSH1 0x0 SHL PUSH2 0x3FBF JUMP JUMPDEST PUSH2 0x34D2 PUSH32 0x6DD043199322ACC8FDD456891CABB69036F55B3071ABADFD80191221DAC4BEF4 PUSH1 0x0 SHL PUSH2 0x3FBF JUMP JUMPDEST CALLER PUSH20 0xFFFFFFFFFFFFFFFFFFFFFFFFFFFFFFFFFFFFFFFF AND PUSH1 0x0 PUSH1 0x1 SWAP1 SLOAD SWAP1 PUSH2 0x100 EXP SWAP1 DIV PUSH20 0xFFFFFFFFFFFFFFFFFFFFFFFFFFFFFFFFFFFFFFFF AND PUSH20 0xFFFFFFFFFFFFFFFFFFFFFFFFFFFFFFFFFFFFFFFF AND EQ DUP1 PUSH2 0x357E JUMPI POP PUSH1 0x1 ISZERO ISZERO PUSH1 0x5 PUSH1 0x0 CALLER PUSH20 0xFFFFFFFFFFFFFFFFFFFFFFFFFFFFFFFFFFFFFFFF AND PUSH20 0xFFFFFFFFFFFFFFFFFFFFFFFFFFFFFFFFFFFFFFFF AND DUP2 MSTORE PUSH1 0x20 ADD SWAP1 DUP2 MSTORE PUSH1 0x20 ADD PUSH1 0x0 KECCAK256 PUSH1 0x0 SWAP1 SLOAD SWAP1 PUSH2 0x100 EXP SWAP1 DIV PUSH1 0xFF AND ISZERO ISZERO EQ JUMPDEST PUSH2 0x35BD JUMPI PUSH1 0x40 MLOAD PUSH32 0x8C379A000000000000000000000000000000000000000000000000000000000 DUP2 MSTORE PUSH1 0x4 ADD PUSH2 0x35B4 SWAP1 PUSH2 0x58E1 JUMP JUMPDEST PUSH1 0x40 MLOAD DUP1 SWAP2 SUB SWAP1 REVERT JUMPDEST PUSH2 0x35E9 PUSH32 0x99CC24E8B8355609470BF896325C41F0B52CB93D339618D8B4DDFEBFEAD21786 PUSH1 0x0 SHL PUSH2 0x3FBF JUMP JUMPDEST PUSH2 0x3615 PUSH32 0x2254559F82F4E559C70AEC15F43366BB36861E8300080397D3EBBEA8AD451A68 PUSH1 0x0 SHL PUSH2 0x3FBF JUMP JUMPDEST PUSH2 0x3641 PUSH32 0x510940E417D4F107070F10F9FCEE133B9A984A6BCBA5041A00F4F007D28CE8E1 PUSH1 0x0 SHL PUSH2 0x3FBF JUMP JUMPDEST DUP1 PUSH1 0x0 DUP2 MLOAD DUP2 LT PUSH2 0x3655 JUMPI PUSH2 0x3654 PUSH2 0x575C JUMP JUMPDEST JUMPDEST PUSH1 0x20 MUL PUSH1 0x20 ADD ADD MLOAD PUSH1 0x1 SWAP1 DUP1 MLOAD SWAP1 PUSH1 0x20 ADD SWAP1 PUSH2 0x3672 SWAP3 SWAP2 SWAP1 PUSH2 0x4BC4 JUMP JUMPDEST POP PUSH2 0x369F PUSH32 0x32B338376D870EE033AF8E1968A71C8CBEE3EDC0BF5E943560F2841E19A67742 PUSH1 0x0 SHL PUSH2 0x3FBF JUMP JUMPDEST PUSH2 0x36CB PUSH32 0x45A910AD6DC9F3BAAA05B3FFDE7DBB3F487AF39CBEECF2D2A2B70A71D87725F1 PUSH1 0x0 SHL PUSH2 0x3FBF JUMP JUMPDEST DUP1 PUSH1 0x1 DUP2 MLOAD DUP2 LT PUSH2 0x36DF JUMPI PUSH2 0x36DE PUSH2 0x575C JUMP JUMPDEST JUMPDEST PUSH1 0x20 MUL PUSH1 0x20 ADD ADD MLOAD PUSH1 0x2 SWAP1 DUP1 MLOAD SWAP1 PUSH1 0x20 ADD SWAP1 PUSH2 0x36FC SWAP3 SWAP2 SWAP1 PUSH2 0x4BC4 JUMP JUMPDEST POP PUSH2 0x3729 PUSH32 0xAD9CCFC2B0F9669C1411D732E52F0A8144D69372538EEF25F27789221E4537A PUSH1 0x0 SHL PUSH2 0x3FBF JUMP JUMPDEST PUSH2 0x3755 PUSH32 0xFC18598F6656B22C19660F08A6CEB0E64DDDC096EF8118CD56A17D1128125240 PUSH1 0x0 SHL PUSH2 0x3FBF JUMP JUMPDEST PUSH1 0x1 PUSH1 0xA PUSH1 0x2 PUSH2 0x100 EXP DUP2 SLOAD DUP2 PUSH1 0xFF MUL NOT AND SWAP1 DUP4 ISZERO ISZERO MUL OR SWAP1 SSTORE POP POP JUMP JUMPDEST PUSH2 0x377B PUSH2 0x1947 JUMP JUMPDEST ISZERO PUSH2 0x37BB JUMPI PUSH1 0x40 MLOAD PUSH32 0x8C379A000000000000000000000000000000000000000000000000000000000 DUP2 MSTORE PUSH1 0x4 ADD PUSH2 0x37B2 SWAP1 PUSH2 0x584F JUMP JUMPDEST PUSH1 0x40 MLOAD DUP1 SWAP2 SUB SWAP1 REVERT JUMPDEST PUSH2 0x37E7 PUSH32 0xC61365800D58411E7DE34C4751BC1F74C39888F765D6DFA6E20F22ADCC11CF87 PUSH1 0x0 SHL PUSH2 0x3FBF JUMP JUMPDEST PUSH2 0x3813 PUSH32 0x6C048F714316212051ACAAF0CD608A1EB3C0DD30BD6EF6318FBB3BDE4D04F794 PUSH1 0x0 SHL PUSH2 0x3FBF JUMP JUMPDEST PUSH2 0x383F PUSH32 0xCCB2803DA287381692FFE02F4CDA42BD99DBB97626DE27C1C3E969C3858A7C04 PUSH1 0x0 SHL PUSH2 0x3FBF JUMP JUMPDEST PUSH2 0x386B PUSH32 0xD3FB966DA526E6C6B828C3028CD875FE1164FB252981A769497CFB8BAD6CE783 PUSH1 0x0 SHL PUSH2 0x3FBF JUMP JUMPDEST PUSH1 0x0 PUSH1 0x1 SWAP1 SLOAD SWAP1 PUSH2 0x100 EXP SWAP1 DIV PUSH20 0xFFFFFFFFFFFFFFFFFFFFFFFFFFFFFFFFFFFFFFFF AND PUSH20 0xFFFFFFFFFFFFFFFFFFFFFFFFFFFFFFFFFFFFFFFF AND CALLER PUSH20 0xFFFFFFFFFFFFFFFFFFFFFFFFFFFFFFFFFFFFFFFF AND EQ PUSH2 0x38FB JUMPI PUSH1 0x40 MLOAD PUSH32 0x8C379A000000000000000000000000000000000000000000000000000000000 DUP2 MSTORE PUSH1 0x4 ADD PUSH2 0x38F2 SWAP1 PUSH2 0x5973 JUMP JUMPDEST PUSH1 0x40 MLOAD DUP1 SWAP2 SUB SWAP1 REVERT JUMPDEST PUSH2 0x3927 PUSH32 0xC9DD64422090A84B4358816725E8F785EDEDDF052D5DC85D62DF01A5113CE48C PUSH1 0x0 SHL PUSH2 0x3FBF JUMP JUMPDEST PUSH2 0x3953 PUSH32 0x9DBFA186A9ABE2A7B8AA86036A54FA9CD29DD53437E7F01BEE3D7D49593615FB PUSH1 0x0 SHL PUSH2 0x3FBF JUMP JUMPDEST PUSH2 0x397F PUSH32 0x9E1BB5315F94C9AA1A1CB57BF207C894244929A9D7B82C90706E828DDED61707 PUSH1 0x0 SHL PUSH2 0x3FBF JUMP JUMPDEST PUSH2 0x39AB PUSH32 0xE317966E63338E812348C7748947CECE9D022B929B604F31FAAA8B8F39C5FF20 PUSH1 0x0 SHL PUSH2 0x3FBF JUMP JUMPDEST PUSH2 0x39D7 PUSH32 0x7EA2F91B44B3471592202A59559EFC29BDBD4E67105EA0A7A79354B9FFF7C1B9 PUSH1 0x0 SHL PUSH2 0x3FBF JUMP JUMPDEST DUP1 PUSH1 0x0 PUSH1 0x1 PUSH2 0x100 EXP DUP2 SLOAD DUP2 PUSH20 0xFFFFFFFFFFFFFFFFFFFFFFFFFFFFFFFFFFFFFFFF MUL NOT AND SWAP1 DUP4 PUSH20 0xFFFFFFFFFFFFFFFFFFFFFFFFFFFFFFFFFFFFFFFF AND MUL OR SWAP1 SSTORE POP POP JUMP JUMPDEST PUSH1 0x3 SLOAD DUP2 JUMP JUMPDEST PUSH1 0x5 PUSH1 0x20 MSTORE DUP1 PUSH1 0x0 MSTORE PUSH1 0x40 PUSH1 0x0 KECCAK256 PUSH1 0x0 SWAP2 POP SLOAD SWAP1 PUSH2 0x100 EXP SWAP1 DIV PUSH1 0xFF AND DUP2 JUMP JUMPDEST PUSH1 0x0 PUSH2 0x3A6F PUSH32 0xA8376455167799A5F7783C9A2746FD868015CAADDED1496A6D3285313DD5824A PUSH1 0x0 SHL PUSH2 0x3FBF JUMP JUMPDEST PUSH2 0x3A9B PUSH32 0x3D99DECD8DC16D966E03CB906537C21473376B91051DDF053214E985EFFB432C PUSH1 0x0 SHL PUSH2 0x3FBF JUMP JUMPDEST PUSH2 0x3AC7 PUSH32 0x9AC8D3A927F4E73E1D754D8AB32F5E300854DA6298B98A2F43560D168359746E PUSH1 0x0 SHL PUSH2 0x3FBF JUMP JUMPDEST CALLER PUSH20 0xFFFFFFFFFFFFFFFFFFFFFFFFFFFFFFFFFFFFFFFF AND PUSH1 0x0 PUSH1 0x1 SWAP1 SLOAD SWAP1 PUSH2 0x100 EXP SWAP1 DIV PUSH20 0xFFFFFFFFFFFFFFFFFFFFFFFFFFFFFFFFFFFFFFFF AND PUSH20 0xFFFFFFFFFFFFFFFFFFFFFFFFFFFFFFFFFFFFFFFF AND EQ SWAP1 POP SWAP1 JUMP JUMPDEST PUSH2 0x3B49 PUSH32 0x127ED3CDC677C3B4DF3882A0324EE9814DAA9A4594D474EAD6861D701351C72D PUSH1 0x0 SHL PUSH2 0x3FBF JUMP JUMPDEST PUSH2 0x3B75 PUSH32 0xFF62D83E44367C49B2C52660F37EE3C4671B3A81AE1D2C892920EF566FF0E3AE PUSH1 0x0 SHL PUSH2 0x3FBF JUMP JUMPDEST PUSH2 0x3BA1 PUSH32 0xADBCCD420BD42D67D7AF9D01C4CDE18692D5DC297D85010BEC7A5E7D9709EE5E PUSH1 0x0 SHL PUSH2 0x3FBF JUMP JUMPDEST PUSH2 0x3BCD PUSH32 0x82FD32AD4F6F90946AC741C3881C887ACA20CD82A4FE5F2C46BD57F8E864719D PUSH1 0x0 SHL PUSH2 0x3FBF JUMP JUMPDEST PUSH1 0xA PUSH1 0x1 SWAP1 SLOAD SWAP1 PUSH2 0x100 EXP SWAP1 DIV PUSH1 0xFF AND ISZERO PUSH2 0x3C1D JUMPI PUSH1 0x40 MLOAD PUSH32 0x8C379A000000000000000000000000000000000000000000000000000000000 DUP2 MSTORE PUSH1 0x4 ADD PUSH2 0x3C14 SWAP1 PUSH2 0x5DA3 JUMP JUMPDEST PUSH1 0x40 MLOAD DUP1 SWAP2 SUB SWAP1 REVERT JUMPDEST PUSH2 0x3C49 PUSH32 0xAA541832E7C45B1F9CDBE5E11CBA12DB426DFAAACE61ADAD4B3B7D0E6FEEC7BD PUSH1 0x0 SHL PUSH2 0x3FBF JUMP JUMPDEST PUSH2 0x3C75 PUSH32 0x3CF9FA72D3CC65EB6F163983B402AD9ED5DACEABDE5E63D0443E7B91DD9FD198 PUSH1 0x0 SHL PUSH2 0x3FBF JUMP JUMPDEST PUSH2 0x3CA1 PUSH32 0xBC5E837481A62A503F356E17536AAA01DFB927083649DC13E0EF7A8C109AB0DC PUSH1 0x0 SHL PUSH2 0x3FBF JUMP JUMPDEST PUSH2 0x3CCD PUSH32 0x1A0FB6D0EB0B2CA8ECAB5DD8EE2640CA654FA3B5E4BF96CCFA3BC887D2D7CC8D PUSH1 0x0 SHL PUSH2 0x3FBF JUMP JUMPDEST PUSH2 0x3CF9 PUSH32 0x2400B544CFA17E229110AF76130E00BA3670111D0B816BDDBD49FF01CEBF9023 PUSH1 0x0 SHL PUSH2 0x3FBF JUMP JUMPDEST PUSH2 0x3D25 PUSH32 0x8290AF1050945CAA0784190B1BB8285E221DF0ACE2B47CB2887242956B4932EF PUSH1 0x0 SHL PUSH2 0x3FBF JUMP JUMPDEST PUSH1 0xA PUSH1 0x0 SWAP1 SLOAD SWAP1 PUSH2 0x100 EXP SWAP1 DIV PUSH1 0xFF AND PUSH2 0x3D74 JUMPI PUSH1 0x40 MLOAD PUSH32 0x8C379A000000000000000000000000000000000000000000000000000000000 DUP2 MSTORE PUSH1 0x4 ADD PUSH2 0x3D6B SWAP1 PUSH2 0x5E35 JUMP JUMPDEST PUSH1 0x40 MLOAD DUP1 SWAP2 SUB SWAP1 REVERT JUMPDEST PUSH2 0x3DA0 PUSH32 0x9105DA7C679F65E4EB53AF1D078C4A53E6B92A94779EDAF83D18B8DBC8A98B5F PUSH1 0x0 SHL PUSH2 0x3FBF JUMP JUMPDEST PUSH2 0x3DCC PUSH32 0xA4F8EBFA0BCF3C4B117D74552E050FE22086D78C0FDB2C01888B4B4D331127B2 PUSH1 0x0 SHL PUSH2 0x3FBF JUMP JUMPDEST PUSH2 0x3DF8 PUSH32 0xC647480530BF1611A22CC371DEBCF11FE5AB94339EE4C088267DC4E3C33758A4 PUSH1 0x0 SHL PUSH2 0x3FBF JUMP JUMPDEST PUSH2 0x3E24 PUSH32 0x2025DB0BB6F4A8F822F3952C8C841474E504ACCB94A1A00AE922D3CAA9809E0F PUSH1 0x0 SHL PUSH2 0x3FBF JUMP JUMPDEST PUSH2 0x3E50 PUSH32 0x6D593B45C8394AF37F38F40A61A682BCD1A2BE9711D0016690C28C46A6C9FB3F PUSH1 0x0 SHL PUSH2 0x3FBF JUMP JUMPDEST PUSH2 0x3E7C PUSH32 0x7B3E58BCA8D27CFDFDD32A7137ED7CFF404A4DCBA0663040EE3A2940C3D69792 PUSH1 0x0 SHL PUSH2 0x3FBF JUMP JUMPDEST PUSH2 0x3EED DUP3 DUP3 DUP1 DUP1 PUSH1 0x20 MUL PUSH1 0x20 ADD PUSH1 0x40 MLOAD SWAP1 DUP2 ADD PUSH1 0x40 MSTORE DUP1 SWAP4 SWAP3 SWAP2 SWAP1 DUP2 DUP2 MSTORE PUSH1 0x20 ADD DUP4 DUP4 PUSH1 0x20 MUL DUP1 DUP3 DUP5 CALLDATACOPY PUSH1 0x0 DUP2 DUP5 ADD MSTORE PUSH1 0x1F NOT PUSH1 0x1F DUP3 ADD AND SWAP1 POP DUP1 DUP4 ADD SWAP3 POP POP POP POP POP POP POP CALLER PUSH1 0x40 MLOAD PUSH1 0x20 ADD PUSH2 0x3ED2 SWAP2 SWAP1 PUSH2 0x5E9D JUMP JUMPDEST PUSH1 0x40 MLOAD PUSH1 0x20 DUP2 DUP4 SUB SUB DUP2 MSTORE SWAP1 PUSH1 0x40 MSTORE DUP1 MLOAD SWAP1 PUSH1 0x20 ADD KECCAK256 PUSH2 0x3060 JUMP JUMPDEST PUSH2 0x3F2C JUMPI PUSH1 0x40 MLOAD PUSH32 0x8C379A000000000000000000000000000000000000000000000000000000000 DUP2 MSTORE PUSH1 0x4 ADD PUSH2 0x3F23 SWAP1 PUSH2 0x5F2A JUMP JUMPDEST PUSH1 0x40 MLOAD DUP1 SWAP2 SUB SWAP1 REVERT JUMPDEST PUSH2 0x3F58 PUSH32 0xDD7C0FDD58316191F1C22678A5D284AF1030D9454B09B1C9BAFBCD0B5C73186C PUSH1 0x0 SHL PUSH2 0x3FBF JUMP JUMPDEST PUSH2 0x3F84 PUSH32 0xA55E6A8EC9BAED4E8ED0921BFA57D17F1A4A399B7774667091D52F68B1EEA567 PUSH1 0x0 SHL PUSH2 0x3FBF JUMP JUMPDEST PUSH2 0x3FB0 PUSH32 0x27E02D85CCEB11E4887BEADA716FB0CCB2CD0D2926F32A400178F24A685F37F PUSH1 0x0 SHL PUSH2 0x3FBF JUMP JUMPDEST PUSH2 0x3FBA DUP4 CALLER PUSH2 0x4629 JUMP JUMPDEST POP POP POP JUMP JUMPDEST POP JUMP JUMPDEST PUSH2 0x3FCA PUSH2 0x1947 JUMP JUMPDEST PUSH2 0x4009 JUMPI PUSH1 0x40 MLOAD PUSH32 0x8C379A000000000000000000000000000000000000000000000000000000000 DUP2 MSTORE PUSH1 0x4 ADD PUSH2 0x4000 SWAP1 PUSH2 0x5F96 JUMP JUMPDEST PUSH1 0x40 MLOAD DUP1 SWAP2 SUB SWAP1 REVERT JUMPDEST PUSH1 0x0 DUP1 PUSH1 0x0 PUSH2 0x100 EXP DUP2 SLOAD DUP2 PUSH1 0xFF MUL NOT AND SWAP1 DUP4 ISZERO ISZERO MUL OR SWAP1 SSTORE POP PUSH32 0x5DB9EE0A495BF2E6FF9C91A7834C1BA4FDD244A5E8AA4E537BD38AEAE4B073AA PUSH2 0x404C PUSH2 0x4063 JUMP JUMPDEST PUSH1 0x40 MLOAD PUSH2 0x4059 SWAP2 SWAP1 PUSH2 0x50BC JUMP JUMPDEST PUSH1 0x40 MLOAD DUP1 SWAP2 SUB SWAP1 LOG1 JUMP JUMPDEST PUSH1 0x0 CALLER SWAP1 POP SWAP1 JUMP JUMPDEST PUSH1 0x0 PUSH1 0x60 PUSH2 0x4077 PUSH2 0x1947 JUMP JUMPDEST ISZERO PUSH2 0x40B7 JUMPI PUSH1 0x40 MLOAD PUSH32 0x8C379A000000000000000000000000000000000000000000000000000000000 DUP2 MSTORE PUSH1 0x4 ADD PUSH2 0x40AE SWAP1 PUSH2 0x584F JUMP JUMPDEST PUSH1 0x40 MLOAD DUP1 SWAP2 SUB SWAP1 REVERT JUMPDEST PUSH2 0x40E3 PUSH32 0xD11FDC5641F7CBE075C8AD980CF89883EFDF5B6F91A5A45C7114CF7F7BB5E38D PUSH1 0x0 SHL PUSH2 0x3FBF JUMP JUMPDEST PUSH2 0x410F PUSH32 0xDB606EA45577E0BE5892AB89A546C8CA9383E085900DD2E1797C80D5B30B8A55 PUSH1 0x0 SHL PUSH2 0x3FBF JUMP JUMPDEST PUSH2 0x413B PUSH32 0xEF7D2E08B9420206EDE230AFFB62D823701D506D59E50F5554CFE35AE320F2B2 PUSH1 0x0 SHL PUSH2 0x3FBF JUMP JUMPDEST PUSH1 0x0 JUMPDEST PUSH1 0x4 SLOAD DUP2 LT ISZERO PUSH2 0x44B8 JUMPI PUSH2 0x4174 PUSH32 0xD94E7DE7E68105B1FE45E57B563C75534277DE43C7E915601E1A359F2292F7CF PUSH1 0x0 SHL PUSH2 0x3FBF JUMP JUMPDEST PUSH2 0x41A0 PUSH32 0x7F7843B569C53A9AC84B94F0A731BE611650E6622F042812C0E1829C7AE65626 PUSH1 0x0 SHL PUSH2 0x3FBF JUMP JUMPDEST PUSH1 0x9 SLOAD PUSH1 0x7 PUSH1 0x0 DUP4 DUP2 MSTORE PUSH1 0x20 ADD SWAP1 DUP2 MSTORE PUSH1 0x20 ADD PUSH1 0x0 KECCAK256 PUSH1 0x4 ADD SLOAD GT ISZERO PUSH2 0x4337 JUMPI PUSH2 0x41EC PUSH32 0x58AA9E500E4BC3A18FA1D8C8A735CE29D8BE5C1D025B9EFC4A0B28F4A69A6EED PUSH1 0x0 SHL PUSH2 0x3FBF JUMP JUMPDEST PUSH2 0x4218 PUSH32 0x776F85BDD4B681A276CEBC60FBCA32A5AE97A436113F7AA2FB23BA77EC10AA67 PUSH1 0x0 SHL PUSH2 0x3FBF JUMP JUMPDEST PUSH2 0x4244 PUSH32 0xBD8A0F331962852D9EB2C25E7EA53C949CBB7CEA27BE5AA6A0053A1E2EDFC472 PUSH1 0x0 SHL PUSH2 0x3FBF JUMP JUMPDEST PUSH1 0x7 PUSH1 0x0 DUP3 DUP2 MSTORE PUSH1 0x20 ADD SWAP1 DUP2 MSTORE PUSH1 0x20 ADD PUSH1 0x0 KECCAK256 PUSH1 0x4 ADD SLOAD PUSH1 0x9 DUP2 SWAP1 SSTORE POP PUSH2 0x428D PUSH32 0x713573625BBCF64802E44CFA4A93B4B2CABAE1E0C119500C608F180C9A30A88C PUSH1 0x0 SHL PUSH2 0x3FBF JUMP JUMPDEST PUSH1 0x8 PUSH1 0x0 PUSH2 0x429B SWAP2 SWAP1 PUSH2 0x4BA3 JUMP JUMPDEST PUSH2 0x42C7 PUSH32 0x7761183DADB26D3EF391749C2C80E03B9AC2BE392547AA76ADC8C973395783F5 PUSH1 0x0 SHL PUSH2 0x3FBF JUMP JUMPDEST PUSH2 0x42F3 PUSH32 0xE65B0F9FC8E8A705BFECF14204FE594EE1686129C5019F49980D8EF547089C1E PUSH1 0x0 SHL PUSH2 0x3FBF JUMP JUMPDEST PUSH1 0x8 PUSH1 0x7 PUSH1 0x0 DUP4 DUP2 MSTORE PUSH1 0x20 ADD SWAP1 DUP2 MSTORE PUSH1 0x20 ADD PUSH1 0x0 KECCAK256 PUSH1 0x0 ADD SLOAD SWAP1 DUP1 PUSH1 0x1 DUP2 SLOAD ADD DUP1 DUP3 SSTORE DUP1 SWAP2 POP POP PUSH1 0x1 SWAP1 SUB SWAP1 PUSH1 0x0 MSTORE PUSH1 0x20 PUSH1 0x0 KECCAK256 ADD PUSH1 0x0 SWAP1 SWAP2 SWAP1 SWAP2 SWAP1 SWAP2 POP SSTORE PUSH2 0x44A5 JUMP JUMPDEST PUSH2 0x4363 PUSH32 0xDEB881A30EB04EC04E14262C1122EDBD0158C7BEE73573217E13DF7A6C8422CC PUSH1 0x0 SHL PUSH2 0x3FBF JUMP JUMPDEST PUSH2 0x438F PUSH32 0x491C80533D310D9B8E0CCA82BC4B553A2A50537315C435D6E3E33E71D4A9780C PUSH1 0x0 SHL PUSH2 0x3FBF JUMP JUMPDEST PUSH1 0x9 SLOAD PUSH1 0x7 PUSH1 0x0 DUP4 DUP2 MSTORE PUSH1 0x20 ADD SWAP1 DUP2 MSTORE PUSH1 0x20 ADD PUSH1 0x0 KECCAK256 PUSH1 0x4 ADD SLOAD EQ ISZERO PUSH2 0x4477 JUMPI PUSH2 0x43DB PUSH32 0x31968501416019C5B26D222909D8A7802849F3AA8C787D56CFA0AE4EE85CCA8D PUSH1 0x0 SHL PUSH2 0x3FBF JUMP JUMPDEST PUSH2 0x4407 PUSH32 0xB1B7B6FB493B998DA88C06C370B77CFC1F647DCB1C8BABA832BA8BC53E89453B PUSH1 0x0 SHL PUSH2 0x3FBF JUMP JUMPDEST PUSH2 0x4433 PUSH32 0xD73BF06C14EC09D5FABFC335B622383807409F0ABD5E132C2CFFAB9DE0477F2D PUSH1 0x0 SHL PUSH2 0x3FBF JUMP JUMPDEST PUSH1 0x8 PUSH1 0x7 PUSH1 0x0 DUP4 DUP2 MSTORE PUSH1 0x20 ADD SWAP1 DUP2 MSTORE PUSH1 0x20 ADD PUSH1 0x0 KECCAK256 PUSH1 0x0 ADD SLOAD SWAP1 DUP1 PUSH1 0x1 DUP2 SLOAD ADD DUP1 DUP3 SSTORE DUP1 SWAP2 POP POP PUSH1 0x1 SWAP1 SUB SWAP1 PUSH1 0x0 MSTORE PUSH1 0x20 PUSH1 0x0 KECCAK256 ADD PUSH1 0x0 SWAP1 SWAP2 SWAP1 SWAP2 SWAP1 SWAP2 POP SSTORE PUSH2 0x44A4 JUMP JUMPDEST PUSH2 0x44A3 PUSH32 0x5906960EE68A3E0166CEBBAA0047C9D1C311D754684131AACB69915DD4269560 PUSH1 0x0 SHL PUSH2 0x3FBF JUMP JUMPDEST JUMPDEST JUMPDEST DUP1 DUP1 PUSH2 0x44B0 SWAP1 PUSH2 0x57BA JUMP JUMPDEST SWAP2 POP POP PUSH2 0x413E JUMP JUMPDEST POP PUSH2 0x44E5 PUSH32 0xD988C72D90B9BA41322A652DF8AF204A52F491DF9C4C83DA1DAB3B07422D6622 PUSH1 0x0 SHL PUSH2 0x3FBF JUMP JUMPDEST PUSH2 0x4511 PUSH32 0x7909C796FECFAFA9449736B1930EFDDC3D54278E3237CD955C5DF949F6FC3497 PUSH1 0x0 SHL PUSH2 0x3FBF JUMP JUMPDEST PUSH1 0x9 SLOAD PUSH1 0x8 DUP1 DUP1 SLOAD DUP1 PUSH1 0x20 MUL PUSH1 0x20 ADD PUSH1 0x40 MLOAD SWAP1 DUP2 ADD PUSH1 0x40 MSTORE DUP1 SWAP3 SWAP2 SWAP1 DUP2 DUP2 MSTORE PUSH1 0x20 ADD DUP3 DUP1 SLOAD DUP1 ISZERO PUSH2 0x4561 JUMPI PUSH1 0x20 MUL DUP3 ADD SWAP2 SWAP1 PUSH1 0x0 MSTORE PUSH1 0x20 PUSH1 0x0 KECCAK256 SWAP1 JUMPDEST DUP2 SLOAD DUP2 MSTORE PUSH1 0x20 ADD SWAP1 PUSH1 0x1 ADD SWAP1 DUP1 DUP4 GT PUSH2 0x454D JUMPI JUMPDEST POP POP POP POP POP SWAP1 POP SWAP2 POP SWAP2 POP SWAP1 SWAP2 JUMP JUMPDEST PUSH2 0x4578 PUSH2 0x1947 JUMP JUMPDEST ISZERO PUSH2 0x45B8 JUMPI PUSH1 0x40 MLOAD PUSH32 0x8C379A000000000000000000000000000000000000000000000000000000000 DUP2 MSTORE PUSH1 0x4 ADD PUSH2 0x45AF SWAP1 PUSH2 0x584F JUMP JUMPDEST PUSH1 0x40 MLOAD DUP1 SWAP2 SUB SWAP1 REVERT JUMPDEST PUSH1 0x1 PUSH1 0x0 DUP1 PUSH2 0x100 EXP DUP2 SLOAD DUP2 PUSH1 0xFF MUL NOT AND SWAP1 DUP4 ISZERO ISZERO MUL OR SWAP1 SSTORE POP PUSH32 0x62E78CEA01BEE320CD4E420270B5EA74000D11B0C9F74754EBDBFC544B05A258 PUSH2 0x45FB PUSH2 0x4063 JUMP JUMPDEST PUSH1 0x40 MLOAD PUSH2 0x4608 SWAP2 SWAP1 PUSH2 0x50BC JUMP JUMPDEST PUSH1 0x40 MLOAD DUP1 SWAP2 SUB SWAP1 LOG1 JUMP JUMPDEST PUSH1 0x0 DUP3 PUSH2 0x461F DUP6 DUP5 PUSH2 0x4AE8 JUMP JUMPDEST EQ SWAP1 POP SWAP4 SWAP3 POP POP POP JUMP JUMPDEST PUSH2 0x4631 PUSH2 0x1947 JUMP JUMPDEST ISZERO PUSH2 0x4671 JUMPI PUSH1 0x40 MLOAD PUSH32 0x8C379A000000000000000000000000000000000000000000000000000000000 DUP2 MSTORE PUSH1 0x4 ADD PUSH2 0x4668 SWAP1 PUSH2 0x584F JUMP JUMPDEST PUSH1 0x40 MLOAD DUP1 SWAP2 SUB SWAP1 REVERT JUMPDEST DUP2 PUSH2 0x469E PUSH32 0x5BAA34F426A5FD854AC12C565C454F0E035337ED797FB65C8FB0F3CE6AD3DD10 PUSH1 0x0 SHL PUSH2 0x3FBF JUMP JUMPDEST PUSH2 0x46CA PUSH32 0x729A02E7EA63B14B17257A38E48BF5FB2306E6E6621B1F9AB95EB759DC671C39 PUSH1 0x0 SHL PUSH2 0x3FBF JUMP JUMPDEST PUSH2 0x46F6 PUSH32 0x557C7F34D0C37C90D6309150A53BF4C53149E61CE0BB3745CCC153256F49816E PUSH1 0x0 SHL PUSH2 0x3FBF JUMP JUMPDEST PUSH2 0x4722 PUSH32 0xE5DF44EBAE7E990BA0B6516E80F2AA0E040A792D68447286FAFFC5ED917BFA83 PUSH1 0x0 SHL PUSH2 0x3FBF JUMP JUMPDEST PUSH1 0x4 SLOAD DUP2 LT DUP1 ISZERO PUSH2 0x4734 JUMPI POP PUSH1 0x0 DUP2 LT ISZERO JUMPDEST PUSH2 0x4773 JUMPI PUSH1 0x40 MLOAD PUSH32 0x8C379A000000000000000000000000000000000000000000000000000000000 DUP2 MSTORE PUSH1 0x4 ADD PUSH2 0x476A SWAP1 PUSH2 0x6002 JUMP JUMPDEST PUSH1 0x40 MLOAD DUP1 SWAP2 SUB SWAP1 REVERT JUMPDEST PUSH2 0x479F PUSH32 0x4414778BBD28A836711F117E56EA632A9642B313567A0FF15732FAC39543323 PUSH1 0x0 SHL PUSH2 0x3FBF JUMP JUMPDEST PUSH2 0x47CB PUSH32 0x37147B97543546B5E9A32B0214D5E37212C75CAA0931495C465D59AC04BD2B07 PUSH1 0x0 SHL PUSH2 0x3FBF JUMP JUMPDEST PUSH2 0x47F7 PUSH32 0x975C750226379D8E306B1CB38D23CF769884AD24D4A9239B8420E07289B8430 PUSH1 0x0 SHL PUSH2 0x3FBF JUMP JUMPDEST PUSH2 0x4823 PUSH32 0x57F5A17DD93D2F433B98D7291CCAB2EA3B364F7F2DF5A0396E632FB0A7FCA960 PUSH1 0x0 SHL PUSH2 0x3FBF JUMP JUMPDEST PUSH2 0x484F PUSH32 0xE830C0EE140FBBBC436032DC4CE74BD2D88F47070D3B8087F3B8B7C31C8538A8 PUSH1 0x0 SHL PUSH2 0x3FBF JUMP JUMPDEST PUSH2 0x487B PUSH32 0x2E81CCA64CA6D6AB4CA06C40AF7E18AE6E9CD6A37361C0931AFAA89EFA285054 PUSH1 0x0 SHL PUSH2 0x3FBF JUMP JUMPDEST PUSH1 0x6 PUSH1 0x0 DUP4 PUSH20 0xFFFFFFFFFFFFFFFFFFFFFFFFFFFFFFFFFFFFFFFF AND PUSH20 0xFFFFFFFFFFFFFFFFFFFFFFFFFFFFFFFFFFFFFFFF AND DUP2 MSTORE PUSH1 0x20 ADD SWAP1 DUP2 MSTORE PUSH1 0x20 ADD PUSH1 0x0 KECCAK256 PUSH1 0x0 SWAP1 SLOAD SWAP1 PUSH2 0x100 EXP SWAP1 DIV PUSH1 0xFF AND ISZERO PUSH2 0x4908 JUMPI PUSH1 0x40 MLOAD PUSH32 0x8C379A000000000000000000000000000000000000000000000000000000000 DUP2 MSTORE PUSH1 0x4 ADD PUSH2 0x48FF SWAP1 PUSH2 0x606E JUMP JUMPDEST PUSH1 0x40 MLOAD DUP1 SWAP2 SUB SWAP1 REVERT JUMPDEST PUSH2 0x4934 PUSH32 0x2E36C2AEDF7468FBAABA247F8CAFDADFBB4C967F336C17FDAB6EC386129C178C PUSH1 0x0 SHL PUSH2 0x3FBF JUMP JUMPDEST PUSH2 0x4960 PUSH32 0xB05FC425EF53341246609DE4EB849E0EB5049A64251509C4E358ADF537A6B98B PUSH1 0x0 SHL PUSH2 0x3FBF JUMP JUMPDEST PUSH2 0x498C PUSH32 0x82C10BA22F146A66F8B226A850DD3314ECE4F503137B8B50D93C7DC07B98E08 PUSH1 0x0 SHL PUSH2 0x3FBF JUMP JUMPDEST PUSH1 0x1 PUSH1 0x6 PUSH1 0x0 DUP5 PUSH20 0xFFFFFFFFFFFFFFFFFFFFFFFFFFFFFFFFFFFFFFFF AND PUSH20 0xFFFFFFFFFFFFFFFFFFFFFFFFFFFFFFFFFFFFFFFF AND DUP2 MSTORE PUSH1 0x20 ADD SWAP1 DUP2 MSTORE PUSH1 0x20 ADD PUSH1 0x0 KECCAK256 PUSH1 0x0 PUSH2 0x100 EXP DUP2 SLOAD DUP2 PUSH1 0xFF MUL NOT AND SWAP1 DUP4 ISZERO ISZERO MUL OR SWAP1 SSTORE POP PUSH2 0x4A10 PUSH32 0x60DFE5F924A445355811C299BE4E1CF7B18A8D116987905341223FFC0D2EBD6 PUSH1 0x0 SHL PUSH2 0x3FBF JUMP JUMPDEST PUSH1 0x7 PUSH1 0x0 DUP5 DUP2 MSTORE PUSH1 0x20 ADD SWAP1 DUP2 MSTORE PUSH1 0x20 ADD PUSH1 0x0 KECCAK256 PUSH1 0x4 ADD PUSH1 0x0 DUP2 SLOAD DUP1 SWAP3 SWAP2 SWAP1 PUSH2 0x4A37 SWAP1 PUSH2 0x57BA JUMP JUMPDEST SWAP2 SWAP1 POP SSTORE POP PUSH2 0x4A68 PUSH32 0xE97062E62347A347CE9F89CA4532670FF1EE6C014D411F2F0A2D82D3A9D32E42 PUSH1 0x0 SHL PUSH2 0x3FBF JUMP JUMPDEST PUSH2 0x4A94 PUSH32 0x579336B80875A4B5D62D2D2DBE5D2B35ECE70268C608B84D96234D695065EE0C PUSH1 0x0 SHL PUSH2 0x3FBF JUMP JUMPDEST PUSH32 0xD3EBD88818D034D26C5D98BCEF9C7C45207130238E76E8CF0B3BA00E906851BF DUP4 PUSH1 0x7 PUSH1 0x0 DUP7 DUP2 MSTORE PUSH1 0x20 ADD SWAP1 DUP2 MSTORE PUSH1 0x20 ADD PUSH1 0x0 KECCAK256 PUSH1 0x4 ADD SLOAD PUSH1 0x40 MLOAD PUSH2 0x4ADB SWAP3 SWAP2 SWAP1 PUSH2 0x608E JUMP JUMPDEST PUSH1 0x40 MLOAD DUP1 SWAP2 SUB SWAP1 LOG1 POP POP POP JUMP JUMPDEST PUSH1 0x0 DUP1 DUP3 SWAP1 POP PUSH1 0x0 JUMPDEST DUP5 MLOAD DUP2 LT ISZERO PUSH2 0x4B52 JUMPI PUSH1 0x0 DUP6 DUP3 DUP2 MLOAD DUP2 LT PUSH2 0x4B0F JUMPI PUSH2 0x4B0E PUSH2 0x575C JUMP JUMPDEST JUMPDEST PUSH1 0x20 MUL PUSH1 0x20 ADD ADD MLOAD SWAP1 POP DUP1 DUP4 GT PUSH2 0x4B31 JUMPI PUSH2 0x4B2A DUP4 DUP3 PUSH2 0x4B5D JUMP JUMPDEST SWAP3 POP PUSH2 0x4B3E JUMP JUMPDEST PUSH2 0x4B3B DUP2 DUP5 PUSH2 0x4B5D JUMP JUMPDEST SWAP3 POP JUMPDEST POP DUP1 DUP1 PUSH2 0x4B4A SWAP1 PUSH2 0x57BA JUMP JUMPDEST SWAP2 POP POP PUSH2 0x4AF1 JUMP JUMPDEST POP DUP1 SWAP2 POP POP SWAP3 SWAP2 POP POP JUMP JUMPDEST PUSH1 0x0 DUP3 PUSH1 0x0 MSTORE DUP2 PUSH1 0x20 MSTORE PUSH1 0x40 PUSH1 0x0 KECCAK256 SWAP1 POP SWAP3 SWAP2 POP POP JUMP JUMPDEST PUSH1 0x40 MLOAD DUP1 PUSH1 0xA0 ADD PUSH1 0x40 MSTORE DUP1 PUSH1 0x0 DUP2 MSTORE PUSH1 0x20 ADD PUSH1 0x60 DUP2 MSTORE PUSH1 0x20 ADD PUSH1 0x60 DUP2 MSTORE PUSH1 0x20 ADD PUSH1 0x60 DUP2 MSTORE PUSH1 0x20 ADD PUSH1 0x0 DUP2 MSTORE POP SWAP1 JUMP JUMPDEST POP DUP1 SLOAD PUSH1 0x0 DUP3 SSTORE SWAP1 PUSH1 0x0 MSTORE PUSH1 0x20 PUSH1 0x0 KECCAK256 SWAP1 DUP2 ADD SWAP1 PUSH2 0x4BC1 SWAP2 SWAP1 PUSH2 0x4C4A JUMP JUMPDEST POP JUMP JUMPDEST DUP3 DUP1 SLOAD PUSH2 0x4BD0 SWAP1 PUSH2 0x572A JUMP JUMPDEST SWAP1 PUSH1 0x0 MSTORE PUSH1 0x20 PUSH1 0x0 KECCAK256 SWAP1 PUSH1 0x1F ADD PUSH1 0x20 SWAP1 DIV DUP2 ADD SWAP3 DUP3 PUSH2 0x4BF2 JUMPI PUSH1 0x0 DUP6 SSTORE PUSH2 0x4C39 JUMP JUMPDEST DUP3 PUSH1 0x1F LT PUSH2 0x4C0B JUMPI DUP1 MLOAD PUSH1 0xFF NOT AND DUP4 DUP1 ADD OR DUP6 SSTORE PUSH2 0x4C39 JUMP JUMPDEST DUP3 DUP1 ADD PUSH1 0x1 ADD DUP6 SSTORE DUP3 ISZERO PUSH2 0x4C39 JUMPI SWAP2 DUP3 ADD JUMPDEST DUP3 DUP2 GT ISZERO PUSH2 0x4C38 JUMPI DUP3 MLOAD DUP3 SSTORE SWAP2 PUSH1 0x20 ADD SWAP2 SWAP1 PUSH1 0x1 ADD SWAP1 PUSH2 0x4C1D JUMP JUMPDEST JUMPDEST POP SWAP1 POP PUSH2 0x4C46 SWAP2 SWAP1 PUSH2 0x4C4A JUMP JUMPDEST POP SWAP1 JUMP JUMPDEST JUMPDEST DUP1 DUP3 GT ISZERO PUSH2 0x4C63 JUMPI PUSH1 0x0 DUP2 PUSH1 0x0 SWAP1 SSTORE POP PUSH1 0x1 ADD PUSH2 0x4C4B JUMP JUMPDEST POP SWAP1 JUMP JUMPDEST PUSH1 0x0 DUP2 MLOAD SWAP1 POP SWAP2 SWAP1 POP JUMP JUMPDEST PUSH1 0x0 DUP3 DUP3 MSTORE PUSH1 0x20 DUP3 ADD SWAP1 POP SWAP3 SWAP2 POP POP JUMP JUMPDEST PUSH1 0x0 DUP2 SWAP1 POP PUSH1 0x20 DUP3 ADD SWAP1 POP SWAP2 SWAP1 POP JUMP JUMPDEST PUSH1 0x0 DUP2 SWAP1 POP SWAP2 SWAP1 POP JUMP JUMPDEST PUSH2 0x4CA6 DUP2 PUSH2 0x4C93 JUMP JUMPDEST DUP3 MSTORE POP POP JUMP JUMPDEST PUSH1 0x0 DUP2 MLOAD SWAP1 POP SWAP2 SWAP1 POP JUMP JUMPDEST PUSH1 0x0 DUP3 DUP3 MSTORE PUSH1 0x20 DUP3 ADD SWAP1 POP SWAP3 SWAP2 POP POP JUMP JUMPDEST PUSH1 0x0 JUMPDEST DUP4 DUP2 LT ISZERO PUSH2 0x4CE6 JUMPI DUP1 DUP3 ADD MLOAD DUP2 DUP5 ADD MSTORE PUSH1 0x20 DUP2 ADD SWAP1 POP PUSH2 0x4CCB JUMP JUMPDEST DUP4 DUP2 GT ISZERO PUSH2 0x4CF5 JUMPI PUSH1 0x0 DUP5 DUP5 ADD MSTORE JUMPDEST POP POP POP POP JUMP JUMPDEST PUSH1 0x0 PUSH1 0x1F NOT PUSH1 0x1F DUP4 ADD AND SWAP1 POP SWAP2 SWAP1 POP JUMP JUMPDEST PUSH1 0x0 PUSH2 0x4D17 DUP3 PUSH2 0x4CAC JUMP JUMPDEST PUSH2 0x4D21 DUP2 DUP6 PUSH2 0x4CB7 JUMP JUMPDEST SWAP4 POP PUSH2 0x4D31 DUP2 DUP6 PUSH1 0x20 DUP7 ADD PUSH2 0x4CC8 JUMP JUMPDEST PUSH2 0x4D3A DUP2 PUSH2 0x4CFB JUMP JUMPDEST DUP5 ADD SWAP2 POP POP SWAP3 SWAP2 POP POP JUMP JUMPDEST PUSH1 0x0 PUSH1 0xA0 DUP4 ADD PUSH1 0x0 DUP4 ADD MLOAD PUSH2 0x4D5D PUSH1 0x0 DUP7 ADD DUP3 PUSH2 0x4C9D JUMP JUMPDEST POP PUSH1 0x20 DUP4 ADD MLOAD DUP5 DUP3 SUB PUSH1 0x20 DUP7 ADD MSTORE PUSH2 0x4D75 DUP3 DUP3 PUSH2 0x4D0C JUMP JUMPDEST SWAP2 POP POP PUSH1 0x40 DUP4 ADD MLOAD DUP5 DUP3 SUB PUSH1 0x40 DUP7 ADD MSTORE PUSH2 0x4D8F DUP3 DUP3 PUSH2 0x4D0C JUMP JUMPDEST SWAP2 POP POP PUSH1 0x60 DUP4 ADD MLOAD DUP5 DUP3 SUB PUSH1 0x60 DUP7 ADD MSTORE PUSH2 0x4DA9 DUP3 DUP3 PUSH2 0x4D0C JUMP JUMPDEST SWAP2 POP POP PUSH1 0x80 DUP4 ADD MLOAD PUSH2 0x4DBE PUSH1 0x80 DUP7 ADD DUP3 PUSH2 0x4C9D JUMP JUMPDEST POP DUP1 SWAP2 POP POP SWAP3 SWAP2 POP POP JUMP JUMPDEST PUSH1 0x0 PUSH2 0x4DD5 DUP4 DUP4 PUSH2 0x4D45 JUMP JUMPDEST SWAP1 POP SWAP3 SWAP2 POP POP JUMP JUMPDEST PUSH1 0x0 PUSH1 0x20 DUP3 ADD SWAP1 POP SWAP2 SWAP1 POP JUMP JUMPDEST PUSH1 0x0 PUSH2 0x4DF5 DUP3 PUSH2 0x4C67 JUMP JUMPDEST PUSH2 0x4DFF DUP2 DUP6 PUSH2 0x4C72 JUMP JUMPDEST SWAP4 POP DUP4 PUSH1 0x20 DUP3 MUL DUP6 ADD PUSH2 0x4E11 DUP6 PUSH2 0x4C83 JUMP JUMPDEST DUP1 PUSH1 0x0 JUMPDEST DUP6 DUP2 LT ISZERO PUSH2 0x4E4D JUMPI DUP5 DUP5 SUB DUP10 MSTORE DUP2 MLOAD PUSH2 0x4E2E DUP6 DUP3 PUSH2 0x4DC9 JUMP JUMPDEST SWAP5 POP PUSH2 0x4E39 DUP4 PUSH2 0x4DDD JUMP JUMPDEST SWAP3 POP PUSH1 0x20 DUP11 ADD SWAP10 POP POP PUSH1 0x1 DUP2 ADD SWAP1 POP PUSH2 0x4E15 JUMP JUMPDEST POP DUP3 SWAP8 POP DUP8 SWAP6 POP POP POP POP POP POP SWAP3 SWAP2 POP POP JUMP JUMPDEST PUSH1 0x0 PUSH1 0x20 DUP3 ADD SWAP1 POP DUP2 DUP2 SUB PUSH1 0x0 DUP4 ADD MSTORE PUSH2 0x4E79 DUP2 DUP5 PUSH2 0x4DEA JUMP JUMPDEST SWAP1 POP SWAP3 SWAP2 POP POP JUMP JUMPDEST PUSH1 0x0 DUP3 DUP3 MSTORE PUSH1 0x20 DUP3 ADD SWAP1 POP SWAP3 SWAP2 POP POP JUMP JUMPDEST PUSH1 0x0 PUSH2 0x4E9D DUP3 PUSH2 0x4CAC JUMP JUMPDEST PUSH2 0x4EA7 DUP2 DUP6 PUSH2 0x4E81 JUMP JUMPDEST SWAP4 POP PUSH2 0x4EB7 DUP2 DUP6 PUSH1 0x20 DUP7 ADD PUSH2 0x4CC8 JUMP JUMPDEST PUSH2 0x4EC0 DUP2 PUSH2 0x4CFB JUMP JUMPDEST DUP5 ADD SWAP2 POP POP SWAP3 SWAP2 POP POP JUMP JUMPDEST PUSH1 0x0 PUSH1 0x20 DUP3 ADD SWAP1 POP DUP2 DUP2 SUB PUSH1 0x0 DUP4 ADD MSTORE PUSH2 0x4EE5 DUP2 DUP5 PUSH2 0x4E92 JUMP JUMPDEST SWAP1 POP SWAP3 SWAP2 POP POP JUMP JUMPDEST PUSH2 0x4EF6 DUP2 PUSH2 0x4C93 JUMP JUMPDEST DUP3 MSTORE POP POP JUMP JUMPDEST PUSH1 0x0 PUSH1 0x20 DUP3 ADD SWAP1 POP PUSH2 0x4F11 PUSH1 0x0 DUP4 ADD DUP5 PUSH2 0x4EED JUMP JUMPDEST SWAP3 SWAP2 POP POP JUMP JUMPDEST PUSH1 0x0 PUSH1 0x40 MLOAD SWAP1 POP SWAP1 JUMP JUMPDEST PUSH1 0x0 DUP1 REVERT JUMPDEST PUSH1 0x0 DUP1 REVERT JUMPDEST PUSH2 0x4F34 DUP2 PUSH2 0x4C93 JUMP JUMPDEST DUP2 EQ PUSH2 0x4F3F JUMPI PUSH1 0x0 DUP1 REVERT JUMPDEST POP JUMP JUMPDEST PUSH1 0x0 DUP2 CALLDATALOAD SWAP1 POP PUSH2 0x4F51 DUP2 PUSH2 0x4F2B JUMP JUMPDEST SWAP3 SWAP2 POP POP JUMP JUMPDEST PUSH1 0x0 PUSH1 0x20 DUP3 DUP5 SUB SLT ISZERO PUSH2 0x4F6D JUMPI PUSH2 0x4F6C PUSH2 0x4F21 JUMP JUMPDEST JUMPDEST PUSH1 0x0 PUSH2 0x4F7B DUP5 DUP3 DUP6 ADD PUSH2 0x4F42 JUMP JUMPDEST SWAP2 POP POP SWAP3 SWAP2 POP POP JUMP JUMPDEST PUSH1 0x0 PUSH1 0xA0 DUP3 ADD SWAP1 POP PUSH2 0x4F99 PUSH1 0x0 DUP4 ADD DUP9 PUSH2 0x4EED JUMP JUMPDEST DUP2 DUP2 SUB PUSH1 0x20 DUP4 ADD MSTORE PUSH2 0x4FAB DUP2 DUP8 PUSH2 0x4E92 JUMP JUMPDEST SWAP1 POP DUP2 DUP2 SUB PUSH1 0x40 DUP4 ADD MSTORE PUSH2 0x4FBF DUP2 DUP7 PUSH2 0x4E92 JUMP JUMPDEST SWAP1 POP DUP2 DUP2 SUB PUSH1 0x60 DUP4 ADD MSTORE PUSH2 0x4FD3 DUP2 DUP6 PUSH2 0x4E92 JUMP JUMPDEST SWAP1 POP PUSH2 0x4FE2 PUSH1 0x80 DUP4 ADD DUP5 PUSH2 0x4EED JUMP JUMPDEST SWAP7 SWAP6 POP POP POP POP POP POP JUMP JUMPDEST PUSH1 0x0 PUSH20 0xFFFFFFFFFFFFFFFFFFFFFFFFFFFFFFFFFFFFFFFF DUP3 AND SWAP1 POP SWAP2 SWAP1 POP JUMP JUMPDEST PUSH1 0x0 PUSH2 0x5017 DUP3 PUSH2 0x4FEC JUMP JUMPDEST SWAP1 POP SWAP2 SWAP1 POP JUMP JUMPDEST PUSH2 0x5027 DUP2 PUSH2 0x500C JUMP JUMPDEST DUP2 EQ PUSH2 0x5032 JUMPI PUSH1 0x0 DUP1 REVERT JUMPDEST POP JUMP JUMPDEST PUSH1 0x0 DUP2 CALLDATALOAD SWAP1 POP PUSH2 0x5044 DUP2 PUSH2 0x501E JUMP JUMPDEST SWAP3 SWAP2 POP POP JUMP JUMPDEST PUSH1 0x0 PUSH1 0x20 DUP3 DUP5 SUB SLT ISZERO PUSH2 0x5060 JUMPI PUSH2 0x505F PUSH2 0x4F21 JUMP JUMPDEST JUMPDEST PUSH1 0x0 PUSH2 0x506E DUP5 DUP3 DUP6 ADD PUSH2 0x5035 JUMP JUMPDEST SWAP2 POP POP SWAP3 SWAP2 POP POP JUMP JUMPDEST PUSH1 0x0 DUP2 ISZERO ISZERO SWAP1 POP SWAP2 SWAP1 POP JUMP JUMPDEST PUSH2 0x508C DUP2 PUSH2 0x5077 JUMP JUMPDEST DUP3 MSTORE POP POP JUMP JUMPDEST PUSH1 0x0 PUSH1 0x20 DUP3 ADD SWAP1 POP PUSH2 0x50A7 PUSH1 0x0 DUP4 ADD DUP5 PUSH2 0x5083 JUMP JUMPDEST SWAP3 SWAP2 POP POP JUMP JUMPDEST PUSH2 0x50B6 DUP2 PUSH2 0x500C JUMP JUMPDEST DUP3 MSTORE POP POP JUMP JUMPDEST PUSH1 0x0 PUSH1 0x20 DUP3 ADD SWAP1 POP PUSH2 0x50D1 PUSH1 0x0 DUP4 ADD DUP5 PUSH2 0x50AD JUMP JUMPDEST SWAP3 SWAP2 POP POP JUMP JUMPDEST PUSH1 0x0 DUP2 MLOAD SWAP1 POP SWAP2 SWAP1 POP JUMP JUMPDEST PUSH1 0x0 DUP3 DUP3 MSTORE PUSH1 0x20 DUP3 ADD SWAP1 POP SWAP3 SWAP2 POP POP JUMP JUMPDEST PUSH1 0x0 DUP2 SWAP1 POP PUSH1 0x20 DUP3 ADD SWAP1 POP SWAP2 SWAP1 POP JUMP JUMPDEST PUSH1 0x0 PUSH2 0x510F DUP4 DUP4 PUSH2 0x4C9D JUMP JUMPDEST PUSH1 0x20 DUP4 ADD SWAP1 POP SWAP3 SWAP2 POP POP JUMP JUMPDEST PUSH1 0x0 PUSH1 0x20 DUP3 ADD SWAP1 POP SWAP2 SWAP1 POP JUMP JUMPDEST PUSH1 0x0 PUSH2 0x5133 DUP3 PUSH2 0x50D7 JUMP JUMPDEST PUSH2 0x513D DUP2 DUP6 PUSH2 0x50E2 JUMP JUMPDEST SWAP4 POP PUSH2 0x5148 DUP4 PUSH2 0x50F3 JUMP JUMPDEST DUP1 PUSH1 0x0 JUMPDEST DUP4 DUP2 LT ISZERO PUSH2 0x5179 JUMPI DUP2 MLOAD PUSH2 0x5160 DUP9 DUP3 PUSH2 0x5103 JUMP JUMPDEST SWAP8 POP PUSH2 0x516B DUP4 PUSH2 0x511B JUMP JUMPDEST SWAP3 POP POP PUSH1 0x1 DUP2 ADD SWAP1 POP PUSH2 0x514C JUMP JUMPDEST POP DUP6 SWAP4 POP POP POP POP SWAP3 SWAP2 POP POP JUMP JUMPDEST PUSH1 0x0 PUSH1 0x40 DUP3 ADD SWAP1 POP PUSH2 0x519B PUSH1 0x0 DUP4 ADD DUP6 PUSH2 0x4EED JUMP JUMPDEST DUP2 DUP2 SUB PUSH1 0x20 DUP4 ADD MSTORE PUSH2 0x51AD DUP2 DUP5 PUSH2 0x5128 JUMP JUMPDEST SWAP1 POP SWAP4 SWAP3 POP POP POP JUMP JUMPDEST PUSH1 0x0 DUP1 REVERT JUMPDEST PUSH1 0x0 DUP1 REVERT JUMPDEST PUSH32 0x4E487B7100000000000000000000000000000000000000000000000000000000 PUSH1 0x0 MSTORE PUSH1 0x41 PUSH1 0x4 MSTORE PUSH1 0x24 PUSH1 0x0 REVERT JUMPDEST PUSH2 0x51F8 DUP3 PUSH2 0x4CFB JUMP JUMPDEST DUP2 ADD DUP2 DUP2 LT PUSH8 0xFFFFFFFFFFFFFFFF DUP3 GT OR ISZERO PUSH2 0x5217 JUMPI PUSH2 0x5216 PUSH2 0x51C0 JUMP JUMPDEST JUMPDEST DUP1 PUSH1 0x40 MSTORE POP POP POP JUMP JUMPDEST PUSH1 0x0 PUSH2 0x522A PUSH2 0x4F17 JUMP JUMPDEST SWAP1 POP PUSH2 0x5236 DUP3 DUP3 PUSH2 0x51EF JUMP JUMPDEST SWAP2 SWAP1 POP JUMP JUMPDEST PUSH1 0x0 PUSH8 0xFFFFFFFFFFFFFFFF DUP3 GT ISZERO PUSH2 0x5256 JUMPI PUSH2 0x5255 PUSH2 0x51C0 JUMP JUMPDEST JUMPDEST PUSH2 0x525F DUP3 PUSH2 0x4CFB JUMP JUMPDEST SWAP1 POP PUSH1 0x20 DUP2 ADD SWAP1 POP SWAP2 SWAP1 POP JUMP JUMPDEST DUP3 DUP2 DUP4 CALLDATACOPY PUSH1 0x0 DUP4 DUP4 ADD MSTORE POP POP POP JUMP JUMPDEST PUSH1 0x0 PUSH2 0x528E PUSH2 0x5289 DUP5 PUSH2 0x523B JUMP JUMPDEST PUSH2 0x5220 JUMP JUMPDEST SWAP1 POP DUP3 DUP2 MSTORE PUSH1 0x20 DUP2 ADD DUP5 DUP5 DUP5 ADD GT ISZERO PUSH2 0x52AA JUMPI PUSH2 0x52A9 PUSH2 0x51BB JUMP JUMPDEST JUMPDEST PUSH2 0x52B5 DUP5 DUP3 DUP6 PUSH2 0x526C JUMP JUMPDEST POP SWAP4 SWAP3 POP POP POP JUMP JUMPDEST PUSH1 0x0 DUP3 PUSH1 0x1F DUP4 ADD SLT PUSH2 0x52D2 JUMPI PUSH2 0x52D1 PUSH2 0x51B6 JUMP JUMPDEST JUMPDEST DUP2 CALLDATALOAD PUSH2 0x52E2 DUP5 DUP3 PUSH1 0x20 DUP7 ADD PUSH2 0x527B JUMP JUMPDEST SWAP2 POP POP SWAP3 SWAP2 POP POP JUMP JUMPDEST PUSH1 0x0 DUP1 PUSH1 0x0 PUSH1 0x60 DUP5 DUP7 SUB SLT ISZERO PUSH2 0x5304 JUMPI PUSH2 0x5303 PUSH2 0x4F21 JUMP JUMPDEST JUMPDEST PUSH1 0x0 DUP5 ADD CALLDATALOAD PUSH8 0xFFFFFFFFFFFFFFFF DUP2 GT ISZERO PUSH2 0x5322 JUMPI PUSH2 0x5321 PUSH2 0x4F26 JUMP JUMPDEST JUMPDEST PUSH2 0x532E DUP7 DUP3 DUP8 ADD PUSH2 0x52BD JUMP JUMPDEST SWAP4 POP POP PUSH1 0x20 DUP5 ADD CALLDATALOAD PUSH8 0xFFFFFFFFFFFFFFFF DUP2 GT ISZERO PUSH2 0x534F JUMPI PUSH2 0x534E PUSH2 0x4F26 JUMP JUMPDEST JUMPDEST PUSH2 0x535B DUP7 DUP3 DUP8 ADD PUSH2 0x52BD JUMP JUMPDEST SWAP3 POP POP PUSH1 0x40 DUP5 ADD CALLDATALOAD PUSH8 0xFFFFFFFFFFFFFFFF DUP2 GT ISZERO PUSH2 0x537C JUMPI PUSH2 0x537B PUSH2 0x4F26 JUMP JUMPDEST JUMPDEST PUSH2 0x5388 DUP7 DUP3 DUP8 ADD PUSH2 0x52BD JUMP JUMPDEST SWAP2 POP POP SWAP3 POP SWAP3 POP SWAP3 JUMP JUMPDEST PUSH1 0x0 PUSH8 0xFFFFFFFFFFFFFFFF DUP3 GT ISZERO PUSH2 0x53AD JUMPI PUSH2 0x53AC PUSH2 0x51C0 JUMP JUMPDEST JUMPDEST PUSH1 0x20 DUP3 MUL SWAP1 POP PUSH1 0x20 DUP2 ADD SWAP1 POP SWAP2 SWAP1 POP JUMP JUMPDEST PUSH1 0x0 DUP1 REVERT JUMPDEST PUSH1 0x0 DUP2 SWAP1 POP SWAP2 SWAP1 POP JUMP JUMPDEST PUSH2 0x53D6 DUP2 PUSH2 0x53C3 JUMP JUMPDEST DUP2 EQ PUSH2 0x53E1 JUMPI PUSH1 0x0 DUP1 REVERT JUMPDEST POP JUMP JUMPDEST PUSH1 0x0 DUP2 CALLDATALOAD SWAP1 POP PUSH2 0x53F3 DUP2 PUSH2 0x53CD JUMP JUMPDEST SWAP3 SWAP2 POP POP JUMP JUMPDEST PUSH1 0x0 PUSH2 0x540C PUSH2 0x5407 DUP5 PUSH2 0x5392 JUMP JUMPDEST PUSH2 0x5220 JUMP JUMPDEST SWAP1 POP DUP1 DUP4 DUP3 MSTORE PUSH1 0x20 DUP3 ADD SWAP1 POP PUSH1 0x20 DUP5 MUL DUP4 ADD DUP6 DUP2 GT ISZERO PUSH2 0x542F JUMPI PUSH2 0x542E PUSH2 0x53BE JUMP JUMPDEST JUMPDEST DUP4 JUMPDEST DUP2 DUP2 LT ISZERO PUSH2 0x5458 JUMPI DUP1 PUSH2 0x5444 DUP9 DUP3 PUSH2 0x53E4 JUMP JUMPDEST DUP5 MSTORE PUSH1 0x20 DUP5 ADD SWAP4 POP POP PUSH1 0x20 DUP2 ADD SWAP1 POP PUSH2 0x5431 JUMP JUMPDEST POP POP POP SWAP4 SWAP3 POP POP POP JUMP JUMPDEST PUSH1 0x0 DUP3 PUSH1 0x1F DUP4 ADD SLT PUSH2 0x5477 JUMPI PUSH2 0x5476 PUSH2 0x51B6 JUMP JUMPDEST JUMPDEST DUP2 CALLDATALOAD PUSH2 0x5487 DUP5 DUP3 PUSH1 0x20 DUP7 ADD PUSH2 0x53F9 JUMP JUMPDEST SWAP2 POP POP SWAP3 SWAP2 POP POP JUMP JUMPDEST PUSH1 0x0 DUP1 PUSH1 0x40 DUP4 DUP6 SUB SLT ISZERO PUSH2 0x54A7 JUMPI PUSH2 0x54A6 PUSH2 0x4F21 JUMP JUMPDEST JUMPDEST PUSH1 0x0 DUP4 ADD CALLDATALOAD PUSH8 0xFFFFFFFFFFFFFFFF DUP2 GT ISZERO PUSH2 0x54C5 JUMPI PUSH2 0x54C4 PUSH2 0x4F26 JUMP JUMPDEST JUMPDEST PUSH2 0x54D1 DUP6 DUP3 DUP7 ADD PUSH2 0x5462 JUMP JUMPDEST SWAP3 POP POP PUSH1 0x20 PUSH2 0x54E2 DUP6 DUP3 DUP7 ADD PUSH2 0x53E4 JUMP JUMPDEST SWAP2 POP POP SWAP3 POP SWAP3 SWAP1 POP JUMP JUMPDEST PUSH1 0x0 PUSH8 0xFFFFFFFFFFFFFFFF DUP3 GT ISZERO PUSH2 0x5507 JUMPI PUSH2 0x5506 PUSH2 0x51C0 JUMP JUMPDEST JUMPDEST PUSH1 0x20 DUP3 MUL SWAP1 POP PUSH1 0x20 DUP2 ADD SWAP1 POP SWAP2 SWAP1 POP JUMP JUMPDEST PUSH1 0x0 PUSH2 0x552B PUSH2 0x5526 DUP5 PUSH2 0x54EC JUMP JUMPDEST PUSH2 0x5220 JUMP JUMPDEST SWAP1 POP DUP1 DUP4 DUP3 MSTORE PUSH1 0x20 DUP3 ADD SWAP1 POP PUSH1 0x20 DUP5 MUL DUP4 ADD DUP6 DUP2 GT ISZERO PUSH2 0x554E JUMPI PUSH2 0x554D PUSH2 0x53BE JUMP JUMPDEST JUMPDEST DUP4 JUMPDEST DUP2 DUP2 LT ISZERO PUSH2 0x5595 JUMPI DUP1 CALLDATALOAD PUSH8 0xFFFFFFFFFFFFFFFF DUP2 GT ISZERO PUSH2 0x5573 JUMPI PUSH2 0x5572 PUSH2 0x51B6 JUMP JUMPDEST JUMPDEST DUP1 DUP7 ADD PUSH2 0x5580 DUP10 DUP3 PUSH2 0x52BD JUMP JUMPDEST DUP6 MSTORE PUSH1 0x20 DUP6 ADD SWAP5 POP POP POP PUSH1 0x20 DUP2 ADD SWAP1 POP PUSH2 0x5550 JUMP JUMPDEST POP POP POP SWAP4 SWAP3 POP POP POP JUMP JUMPDEST PUSH1 0x0 DUP3 PUSH1 0x1F DUP4 ADD SLT PUSH2 0x55B4 JUMPI PUSH2 0x55B3 PUSH2 0x51B6 JUMP JUMPDEST JUMPDEST DUP2 CALLDATALOAD PUSH2 0x55C4 DUP5 DUP3 PUSH1 0x20 DUP7 ADD PUSH2 0x5518 JUMP JUMPDEST SWAP2 POP POP SWAP3 SWAP2 POP POP JUMP JUMPDEST PUSH1 0x0 PUSH1 0x20 DUP3 DUP5 SUB SLT ISZERO PUSH2 0x55E3 JUMPI PUSH2 0x55E2 PUSH2 0x4F21 JUMP JUMPDEST JUMPDEST PUSH1 0x0 DUP3 ADD CALLDATALOAD PUSH8 0xFFFFFFFFFFFFFFFF DUP2 GT ISZERO PUSH2 0x5601 JUMPI PUSH2 0x5600 PUSH2 0x4F26 JUMP JUMPDEST JUMPDEST PUSH2 0x560D DUP5 DUP3 DUP6 ADD PUSH2 0x559F JUMP JUMPDEST SWAP2 POP POP SWAP3 SWAP2 POP POP JUMP JUMPDEST PUSH2 0x561F DUP2 PUSH2 0x53C3 JUMP JUMPDEST DUP3 MSTORE POP POP JUMP JUMPDEST PUSH1 0x0 PUSH1 0x20 DUP3 ADD SWAP1 POP PUSH2 0x563A PUSH1 0x0 DUP4 ADD DUP5 PUSH2 0x5616 JUMP JUMPDEST SWAP3 SWAP2 POP POP JUMP JUMPDEST PUSH1 0x0 DUP1 REVERT JUMPDEST PUSH1 0x0 DUP1 DUP4 PUSH1 0x1F DUP5 ADD SLT PUSH2 0x565B JUMPI PUSH2 0x565A PUSH2 0x51B6 JUMP JUMPDEST JUMPDEST DUP3 CALLDATALOAD SWAP1 POP PUSH8 0xFFFFFFFFFFFFFFFF DUP2 GT ISZERO PUSH2 0x5678 JUMPI PUSH2 0x5677 PUSH2 0x5640 JUMP JUMPDEST JUMPDEST PUSH1 0x20 DUP4 ADD SWAP2 POP DUP4 PUSH1 0x20 DUP3 MUL DUP4 ADD GT ISZERO PUSH2 0x5694 JUMPI PUSH2 0x5693 PUSH2 0x53BE JUMP JUMPDEST JUMPDEST SWAP3 POP SWAP3 SWAP1 POP JUMP JUMPDEST PUSH1 0x0 DUP1 PUSH1 0x0 PUSH1 0x40 DUP5 DUP7 SUB SLT ISZERO PUSH2 0x56B4 JUMPI PUSH2 0x56B3 PUSH2 0x4F21 JUMP JUMPDEST JUMPDEST PUSH1 0x0 PUSH2 0x56C2 DUP7 DUP3 DUP8 ADD PUSH2 0x4F42 JUMP JUMPDEST SWAP4 POP POP PUSH1 0x20 DUP5 ADD CALLDATALOAD PUSH8 0xFFFFFFFFFFFFFFFF DUP2 GT ISZERO PUSH2 0x56E3 JUMPI PUSH2 0x56E2 PUSH2 0x4F26 JUMP JUMPDEST JUMPDEST PUSH2 0x56EF DUP7 DUP3 DUP8 ADD PUSH2 0x5645 JUMP JUMPDEST SWAP3 POP SWAP3 POP POP SWAP3 POP SWAP3 POP SWAP3 JUMP JUMPDEST PUSH32 0x4E487B7100000000000000000000000000000000000000000000000000000000 PUSH1 0x0 MSTORE PUSH1 0x22 PUSH1 0x4 MSTORE PUSH1 0x24 PUSH1 0x0 REVERT JUMPDEST PUSH1 0x0 PUSH1 0x2 DUP3 DIV SWAP1 POP PUSH1 0x1 DUP3 AND DUP1 PUSH2 0x5742 JUMPI PUSH1 0x7F DUP3 AND SWAP2 POP JUMPDEST PUSH1 0x20 DUP3 LT DUP2 EQ ISZERO PUSH2 0x5756 JUMPI PUSH2 0x5755 PUSH2 0x56FB JUMP JUMPDEST JUMPDEST POP SWAP2 SWAP1 POP JUMP JUMPDEST PUSH32 0x4E487B7100000000000000000000000000000000000000000000000000000000 PUSH1 0x0 MSTORE PUSH1 0x32 PUSH1 0x4 MSTORE PUSH1 0x24 PUSH1 0x0 REVERT JUMPDEST PUSH32 0x4E487B7100000000000000000000000000000000000000000000000000000000 PUSH1 0x0 MSTORE PUSH1 0x11 PUSH1 0x4 MSTORE PUSH1 0x24 PUSH1 0x0 REVERT JUMPDEST PUSH1 0x0 PUSH2 0x57C5 DUP3 PUSH2 0x4C93 JUMP JUMPDEST SWAP2 POP PUSH32 0xFFFFFFFFFFFFFFFFFFFFFFFFFFFFFFFFFFFFFFFFFFFFFFFFFFFFFFFFFFFFFFFF DUP3 EQ ISZERO PUSH2 0x57F8 JUMPI PUSH2 0x57F7 PUSH2 0x578B JUMP JUMPDEST JUMPDEST PUSH1 0x1 DUP3 ADD SWAP1 POP SWAP2 SWAP1 POP JUMP JUMPDEST PUSH32 0x5061757361626C653A2070617573656400000000000000000000000000000000 PUSH1 0x0 DUP3 ADD MSTORE POP JUMP JUMPDEST PUSH1 0x0 PUSH2 0x5839 PUSH1 0x10 DUP4 PUSH2 0x4E81 JUMP JUMPDEST SWAP2 POP PUSH2 0x5844 DUP3 PUSH2 0x5803 JUMP JUMPDEST PUSH1 0x20 DUP3 ADD SWAP1 POP SWAP2 SWAP1 POP JUMP JUMPDEST PUSH1 0x0 PUSH1 0x20 DUP3 ADD SWAP1 POP DUP2 DUP2 SUB PUSH1 0x0 DUP4 ADD MSTORE PUSH2 0x5868 DUP2 PUSH2 0x582C JUMP JUMPDEST SWAP1 POP SWAP2 SWAP1 POP JUMP JUMPDEST PUSH32 0x6F6E6C792074656163686572732F63686169726D616E2063616E2063616C6C20 PUSH1 0x0 DUP3 ADD MSTORE PUSH32 0x746869732066756E6374696F6E00000000000000000000000000000000000000 PUSH1 0x20 DUP3 ADD MSTORE POP JUMP JUMPDEST PUSH1 0x0 PUSH2 0x58CB PUSH1 0x2D DUP4 PUSH2 0x4E81 JUMP JUMPDEST SWAP2 POP PUSH2 0x58D6 DUP3 PUSH2 0x586F JUMP JUMPDEST PUSH1 0x40 DUP3 ADD SWAP1 POP SWAP2 SWAP1 POP JUMP JUMPDEST PUSH1 0x0 PUSH1 0x20 DUP3 ADD SWAP1 POP DUP2 DUP2 SUB PUSH1 0x0 DUP4 ADD MSTORE PUSH2 0x58FA DUP2 PUSH2 0x58BE JUMP JUMPDEST SWAP1 POP SWAP2 SWAP1 POP JUMP JUMPDEST PUSH32 0x6F6E6C792063686169726D616E2063616E2063616C6C20746869732066756E63 PUSH1 0x0 DUP3 ADD MSTORE PUSH32 0x74696F6E00000000000000000000000000000000000000000000000000000000 PUSH1 0x20 DUP3 ADD MSTORE POP JUMP JUMPDEST PUSH1 0x0 PUSH2 0x595D PUSH1 0x24 DUP4 PUSH2 0x4E81 JUMP JUMPDEST SWAP2 POP PUSH2 0x5968 DUP3 PUSH2 0x5901 JUMP JUMPDEST PUSH1 0x40 DUP3 ADD SWAP1 POP SWAP2 SWAP1 POP JUMP JUMPDEST PUSH1 0x0 PUSH1 0x20 DUP3 ADD SWAP1 POP DUP2 DUP2 SUB PUSH1 0x0 DUP4 ADD MSTORE PUSH2 0x598C DUP2 PUSH2 0x5950 JUMP JUMPDEST SWAP1 POP SWAP2 SWAP1 POP JUMP JUMPDEST PUSH1 0x0 DUP2 SLOAD SWAP1 POP SWAP2 SWAP1 POP JUMP JUMPDEST PUSH1 0x0 DUP2 SWAP1 POP DUP2 PUSH1 0x0 MSTORE PUSH1 0x20 PUSH1 0x0 KECCAK256 SWAP1 POP SWAP2 SWAP1 POP JUMP JUMPDEST PUSH1 0x0 DUP2 PUSH1 0x0 SHR SWAP1 POP SWAP2 SWAP1 POP JUMP JUMPDEST PUSH1 0x0 DUP2 SWAP1 POP SWAP2 SWAP1 POP JUMP JUMPDEST PUSH1 0x0 PUSH2 0x59DD PUSH2 0x59D8 DUP4 PUSH2 0x59B3 JUMP JUMPDEST PUSH2 0x59C0 JUMP JUMPDEST SWAP1 POP SWAP2 SWAP1 POP JUMP JUMPDEST PUSH1 0x0 PUSH2 0x59F0 DUP3 SLOAD PUSH2 0x59CA JUMP JUMPDEST SWAP1 POP SWAP2 SWAP1 POP JUMP JUMPDEST PUSH1 0x0 PUSH1 0x1 DUP3 ADD SWAP1 POP SWAP2 SWAP1 POP JUMP JUMPDEST PUSH1 0x0 PUSH2 0x5A0F DUP3 PUSH2 0x5993 JUMP JUMPDEST PUSH2 0x5A19 DUP2 DUP6 PUSH2 0x50E2 JUMP JUMPDEST SWAP4 POP PUSH2 0x5A24 DUP4 PUSH2 0x599E JUMP JUMPDEST DUP1 PUSH1 0x0 JUMPDEST DUP4 DUP2 LT ISZERO PUSH2 0x5A5C JUMPI PUSH2 0x5A39 DUP3 PUSH2 0x59E4 JUMP JUMPDEST PUSH2 0x5A43 DUP9 DUP3 PUSH2 0x5103 JUMP JUMPDEST SWAP8 POP PUSH2 0x5A4E DUP4 PUSH2 0x59F7 JUMP JUMPDEST SWAP3 POP POP PUSH1 0x1 DUP2 ADD SWAP1 POP PUSH2 0x5A28 JUMP JUMPDEST POP DUP6 SWAP4 POP POP POP POP SWAP3 SWAP2 POP POP JUMP JUMPDEST PUSH1 0x0 PUSH1 0x40 DUP3 ADD SWAP1 POP DUP2 DUP2 SUB PUSH1 0x0 DUP4 ADD MSTORE PUSH2 0x5A83 DUP2 DUP6 PUSH2 0x5A04 JUMP JUMPDEST SWAP1 POP PUSH2 0x5A92 PUSH1 0x20 DUP4 ADD DUP5 PUSH2 0x4EED JUMP JUMPDEST SWAP4 SWAP3 POP POP POP JUMP JUMPDEST PUSH32 0x54686520526573756C7473206D757374206265206D616465207075626C696300 PUSH1 0x0 DUP3 ADD MSTORE POP JUMP JUMPDEST PUSH1 0x0 PUSH2 0x5ACF PUSH1 0x1F DUP4 PUSH2 0x4E81 JUMP JUMPDEST SWAP2 POP PUSH2 0x5ADA DUP3 PUSH2 0x5A99 JUMP JUMPDEST PUSH1 0x20 DUP3 ADD SWAP1 POP SWAP2 SWAP1 POP JUMP JUMPDEST PUSH1 0x0 PUSH1 0x20 DUP3 ADD SWAP1 POP DUP2 DUP2 SUB PUSH1 0x0 DUP4 ADD MSTORE PUSH2 0x5AFE DUP2 PUSH2 0x5AC2 JUMP JUMPDEST SWAP1 POP SWAP2 SWAP1 POP JUMP JUMPDEST PUSH32 0x536F7272792C2074686520456C656374696F6E20686173206E6F7420656E6465 PUSH1 0x0 DUP3 ADD MSTORE PUSH32 0x6400000000000000000000000000000000000000000000000000000000000000 PUSH1 0x20 DUP3 ADD MSTORE POP JUMP JUMPDEST PUSH1 0x0 PUSH2 0x5B61 PUSH1 0x21 DUP4 PUSH2 0x4E81 JUMP JUMPDEST SWAP2 POP PUSH2 0x5B6C DUP3 PUSH2 0x5B05 JUMP JUMPDEST PUSH1 0x40 DUP3 ADD SWAP1 POP SWAP2 SWAP1 POP JUMP JUMPDEST PUSH1 0x0 PUSH1 0x20 DUP3 ADD SWAP1 POP DUP2 DUP2 SUB PUSH1 0x0 DUP4 ADD MSTORE PUSH2 0x5B90 DUP2 PUSH2 0x5B54 JUMP JUMPDEST SWAP1 POP SWAP2 SWAP1 POP JUMP JUMPDEST PUSH32 0x6F6E6C792074656163686572732F63686169726D616E2063616E206D616B6520 PUSH1 0x0 DUP3 ADD MSTORE PUSH32 0x726573756C7473207075626C6963000000000000000000000000000000000000 PUSH1 0x20 DUP3 ADD MSTORE POP JUMP JUMPDEST PUSH1 0x0 PUSH2 0x5BF3 PUSH1 0x2E DUP4 PUSH2 0x4E81 JUMP JUMPDEST SWAP2 POP PUSH2 0x5BFE DUP3 PUSH2 0x5B97 JUMP JUMPDEST PUSH1 0x40 DUP3 ADD SWAP1 POP SWAP2 SWAP1 POP JUMP JUMPDEST PUSH1 0x0 PUSH1 0x20 DUP3 ADD SWAP1 POP DUP2 DUP2 SUB PUSH1 0x0 DUP4 ADD MSTORE PUSH2 0x5C22 DUP2 PUSH2 0x5BE6 JUMP JUMPDEST SWAP1 POP SWAP2 SWAP1 POP JUMP JUMPDEST PUSH32 0x456C656374696F6E206973204F6E676F696E6700000000000000000000000000 PUSH1 0x0 DUP3 ADD MSTORE POP JUMP JUMPDEST PUSH1 0x0 PUSH2 0x5C5F PUSH1 0x13 DUP4 PUSH2 0x4E81 JUMP JUMPDEST SWAP2 POP PUSH2 0x5C6A DUP3 PUSH2 0x5C29 JUMP JUMPDEST PUSH1 0x20 DUP3 ADD SWAP1 POP SWAP2 SWAP1 POP JUMP JUMPDEST PUSH1 0x0 PUSH1 0x20 DUP3 ADD SWAP1 POP DUP2 DUP2 SUB PUSH1 0x0 DUP4 ADD MSTORE PUSH2 0x5C8E DUP2 PUSH2 0x5C52 JUMP JUMPDEST SWAP1 POP SWAP2 SWAP1 POP JUMP JUMPDEST PUSH1 0x0 PUSH1 0x40 DUP3 ADD SWAP1 POP PUSH2 0x5CAA PUSH1 0x0 DUP4 ADD DUP6 PUSH2 0x4EED JUMP JUMPDEST DUP2 DUP2 SUB PUSH1 0x20 DUP4 ADD MSTORE PUSH2 0x5CBC DUP2 DUP5 PUSH2 0x4E92 JUMP JUMPDEST SWAP1 POP SWAP4 SWAP3 POP POP POP JUMP JUMPDEST PUSH32 0x61746C65617374206F6E6520706572736F6E2073686F756C6420636F6E746573 PUSH1 0x0 DUP3 ADD MSTORE PUSH32 0x7400000000000000000000000000000000000000000000000000000000000000 PUSH1 0x20 DUP3 ADD MSTORE POP JUMP JUMPDEST PUSH1 0x0 PUSH2 0x5D21 PUSH1 0x21 DUP4 PUSH2 0x4E81 JUMP JUMPDEST SWAP2 POP PUSH2 0x5D2C DUP3 PUSH2 0x5CC5 JUMP JUMPDEST PUSH1 0x40 DUP3 ADD SWAP1 POP SWAP2 SWAP1 POP JUMP JUMPDEST PUSH1 0x0 PUSH1 0x20 DUP3 ADD SWAP1 POP DUP2 DUP2 SUB PUSH1 0x0 DUP4 ADD MSTORE PUSH2 0x5D50 DUP2 PUSH2 0x5D14 JUMP JUMPDEST SWAP1 POP SWAP2 SWAP1 POP JUMP JUMPDEST PUSH32 0x536F7272792C2074686520456C656374696F6E2068617320656E646564210000 PUSH1 0x0 DUP3 ADD MSTORE POP JUMP JUMPDEST PUSH1 0x0 PUSH2 0x5D8D PUSH1 0x1E DUP4 PUSH2 0x4E81 JUMP JUMPDEST SWAP2 POP PUSH2 0x5D98 DUP3 PUSH2 0x5D57 JUMP JUMPDEST PUSH1 0x20 DUP3 ADD SWAP1 POP SWAP2 SWAP1 POP JUMP JUMPDEST PUSH1 0x0 PUSH1 0x20 DUP3 ADD SWAP1 POP DUP2 DUP2 SUB PUSH1 0x0 DUP4 ADD MSTORE PUSH2 0x5DBC DUP2 PUSH2 0x5D80 JUMP JUMPDEST SWAP1 POP SWAP2 SWAP1 POP JUMP JUMPDEST PUSH32 0x506C6561736520636865636B206261636B2C2074686520656C656374696F6E20 PUSH1 0x0 DUP3 ADD MSTORE PUSH32 0x686173206E6F7420737461727465642100000000000000000000000000000000 PUSH1 0x20 DUP3 ADD MSTORE POP JUMP JUMPDEST PUSH1 0x0 PUSH2 0x5E1F PUSH1 0x30 DUP4 PUSH2 0x4E81 JUMP JUMPDEST SWAP2 POP PUSH2 0x5E2A DUP3 PUSH2 0x5DC3 JUMP JUMPDEST PUSH1 0x40 DUP3 ADD SWAP1 POP SWAP2 SWAP1 POP JUMP JUMPDEST PUSH1 0x0 PUSH1 0x20 DUP3 ADD SWAP1 POP DUP2 DUP2 SUB PUSH1 0x0 DUP4 ADD MSTORE PUSH2 0x5E4E DUP2 PUSH2 0x5E12 JUMP JUMPDEST SWAP1 POP SWAP2 SWAP1 POP JUMP JUMPDEST PUSH1 0x0 DUP2 PUSH1 0x60 SHL SWAP1 POP SWAP2 SWAP1 POP JUMP JUMPDEST PUSH1 0x0 PUSH2 0x5E6D DUP3 PUSH2 0x5E55 JUMP JUMPDEST SWAP1 POP SWAP2 SWAP1 POP JUMP JUMPDEST PUSH1 0x0 PUSH2 0x5E7F DUP3 PUSH2 0x5E62 JUMP JUMPDEST SWAP1 POP SWAP2 SWAP1 POP JUMP JUMPDEST PUSH2 0x5E97 PUSH2 0x5E92 DUP3 PUSH2 0x500C JUMP JUMPDEST PUSH2 0x5E74 JUMP JUMPDEST DUP3 MSTORE POP POP JUMP JUMPDEST PUSH1 0x0 PUSH2 0x5EA9 DUP3 DUP5 PUSH2 0x5E86 JUMP JUMPDEST PUSH1 0x14 DUP3 ADD SWAP2 POP DUP2 SWAP1 POP SWAP3 SWAP2 POP POP JUMP JUMPDEST PUSH32 0x736F7272792C206F6E6C79207374616B65686F6C646572732061726520656C69 PUSH1 0x0 DUP3 ADD MSTORE PUSH32 0x6769626C6520746F20766F746500000000000000000000000000000000000000 PUSH1 0x20 DUP3 ADD MSTORE POP JUMP JUMPDEST PUSH1 0x0 PUSH2 0x5F14 PUSH1 0x2D DUP4 PUSH2 0x4E81 JUMP JUMPDEST SWAP2 POP PUSH2 0x5F1F DUP3 PUSH2 0x5EB8 JUMP JUMPDEST PUSH1 0x40 DUP3 ADD SWAP1 POP SWAP2 SWAP1 POP JUMP JUMPDEST PUSH1 0x0 PUSH1 0x20 DUP3 ADD SWAP1 POP DUP2 DUP2 SUB PUSH1 0x0 DUP4 ADD MSTORE PUSH2 0x5F43 DUP2 PUSH2 0x5F07 JUMP JUMPDEST SWAP1 POP SWAP2 SWAP1 POP JUMP JUMPDEST PUSH32 0x5061757361626C653A206E6F7420706175736564000000000000000000000000 PUSH1 0x0 DUP3 ADD MSTORE POP JUMP JUMPDEST PUSH1 0x0 PUSH2 0x5F80 PUSH1 0x14 DUP4 PUSH2 0x4E81 JUMP JUMPDEST SWAP2 POP PUSH2 0x5F8B DUP3 PUSH2 0x5F4A JUMP JUMPDEST PUSH1 0x20 DUP3 ADD SWAP1 POP SWAP2 SWAP1 POP JUMP JUMPDEST PUSH1 0x0 PUSH1 0x20 DUP3 ADD SWAP1 POP DUP2 DUP2 SUB PUSH1 0x0 DUP4 ADD MSTORE PUSH2 0x5FAF DUP2 PUSH2 0x5F73 JUMP JUMPDEST SWAP1 POP SWAP2 SWAP1 POP JUMP JUMPDEST PUSH32 0x496E76616C69642063616E64696461746520746F20566F746521000000000000 PUSH1 0x0 DUP3 ADD MSTORE POP JUMP JUMPDEST PUSH1 0x0 PUSH2 0x5FEC PUSH1 0x1A DUP4 PUSH2 0x4E81 JUMP JUMPDEST SWAP2 POP PUSH2 0x5FF7 DUP3 PUSH2 0x5FB6 JUMP JUMPDEST PUSH1 0x20 DUP3 ADD SWAP1 POP SWAP2 SWAP1 POP JUMP JUMPDEST PUSH1 0x0 PUSH1 0x20 DUP3 ADD SWAP1 POP DUP2 DUP2 SUB PUSH1 0x0 DUP4 ADD MSTORE PUSH2 0x601B DUP2 PUSH2 0x5FDF JUMP JUMPDEST SWAP1 POP SWAP2 SWAP1 POP JUMP JUMPDEST PUSH32 0x566F7465722068617320616C726561647920566F746564210000000000000000 PUSH1 0x0 DUP3 ADD MSTORE POP JUMP JUMPDEST PUSH1 0x0 PUSH2 0x6058 PUSH1 0x18 DUP4 PUSH2 0x4E81 JUMP JUMPDEST SWAP2 POP PUSH2 0x6063 DUP3 PUSH2 0x6022 JUMP JUMPDEST PUSH1 0x20 DUP3 ADD SWAP1 POP SWAP2 SWAP1 POP JUMP JUMPDEST PUSH1 0x0 PUSH1 0x20 DUP3 ADD SWAP1 POP DUP2 DUP2 SUB PUSH1 0x0 DUP4 ADD MSTORE PUSH2 0x6087 DUP2 PUSH2 0x604B JUMP JUMPDEST SWAP1 POP SWAP2 SWAP1 POP JUMP JUMPDEST PUSH1 0x0 PUSH1 0x40 DUP3 ADD SWAP1 POP PUSH2 0x60A3 PUSH1 0x0 DUP4 ADD DUP6 PUSH2 0x4EED JUMP JUMPDEST PUSH2 0x60B0 PUSH1 0x20 DUP4 ADD DUP5 PUSH2 0x4EED JUMP JUMPDEST SWAP4 SWAP3 POP POP POP JUMP INVALID LOG2 PUSH5 0x6970667358 0x22 SLT KECCAK256 0xA6 PUSH28 0x3E6E595FFCD6012366BB0BB125F81E3ADBFFDD0723D6E72AF9B482E2 0xDD SWAP9 PUSH5 0x736F6C6343 STOP ADDMOD EXP STOP CALLER "
        },
        "methodIdentifiers": {
          "Active()": "c9b0a2a7",
          "Created()": "9adeddf8",
          "Ended()": "477383f3",
          "addCandidate(string,string,string)": "ad71f8dc",
          "addTeacher(address)": "3bc6e309",
          "candidates(uint256)": "3477ee2e",
          "candidatesCount()": "2d35a8a2",
          "chairman()": "87f7b975",
          "changeChairman(address)": "e8101869",
          "closeElection()": "6c6c32d0",
          "description()": "7284e416",
          "endElection()": "59f78468",
          "getCandidates()": "06a49fce",
          "getWinner()": "8e7ea5b2",
          "isChairman()": "f51b41d2",
          "isCreated()": "86174396",
          "isEnded()": "a4fd6f56",
          "isStarted()": "544736e6",
          "isTeacher()": "c64a4bad",
          "isValid(bytes32[],bytes32)": "b8a20ed0",
          "makeResultPublic()": "95adfc5e",
          "pause()": "8456cb59",
          "paused()": "5c975abb",
          "position()": "09218e91",
          "removeTeacher(address)": "52ff6846",
          "root()": "ebf0c717",
          "setUpElection(string[])": "d1e53b8a",
          "startElection()": "62d73eb8",
          "teachers(address)": "f0a47f78",
          "unpause()": "3f4ba83a",
          "vote(uint256,bytes32[])": "fd27419b",
          "voted(address)": "aec2ccae",
          "winnerIds(uint256)": "403d1312",
          "winnerVoteCount()": "2f22850d"
        }
      },
      "storageLayout": {
        "storage": [
          {
            "astId": 17,
            "contract": "contracts/ZuriElection.sol:ZuriElection",
            "label": "_paused",
            "offset": 0,
            "slot": "0",
            "type": "t_bool"
          },
          {
            "astId": 324,
            "contract": "contracts/ZuriElection.sol:ZuriElection",
            "label": "chairman",
            "offset": 1,
            "slot": "0",
            "type": "t_address"
          },
          {
            "astId": 327,
            "contract": "contracts/ZuriElection.sol:ZuriElection",
            "label": "position",
            "offset": 0,
            "slot": "1",
            "type": "t_string_storage"
          },
          {
            "astId": 330,
            "contract": "contracts/ZuriElection.sol:ZuriElection",
            "label": "description",
            "offset": 0,
            "slot": "2",
            "type": "t_string_storage"
          },
          {
            "astId": 333,
            "contract": "contracts/ZuriElection.sol:ZuriElection",
            "label": "root",
            "offset": 0,
            "slot": "3",
            "type": "t_bytes32"
          },
          {
            "astId": 336,
            "contract": "contracts/ZuriElection.sol:ZuriElection",
            "label": "candidatesCount",
            "offset": 0,
            "slot": "4",
            "type": "t_uint256"
          },
          {
            "astId": 341,
            "contract": "contracts/ZuriElection.sol:ZuriElection",
            "label": "teachers",
            "offset": 0,
            "slot": "5",
            "type": "t_mapping(t_address,t_bool)"
          },
          {
            "astId": 346,
            "contract": "contracts/ZuriElection.sol:ZuriElection",
            "label": "voted",
            "offset": 0,
            "slot": "6",
            "type": "t_mapping(t_address,t_bool)"
          },
          {
            "astId": 352,
            "contract": "contracts/ZuriElection.sol:ZuriElection",
            "label": "candidates",
            "offset": 0,
            "slot": "7",
            "type": "t_mapping(t_uint256,t_struct(Candidate)382_storage)"
          },
          {
            "astId": 356,
            "contract": "contracts/ZuriElection.sol:ZuriElection",
            "label": "winnerIds",
            "offset": 0,
            "slot": "8",
            "type": "t_array(t_uint256)dyn_storage"
          },
          {
            "astId": 359,
            "contract": "contracts/ZuriElection.sol:ZuriElection",
            "label": "winnerVoteCount",
            "offset": 0,
            "slot": "9",
            "type": "t_uint256"
          },
          {
            "astId": 362,
            "contract": "contracts/ZuriElection.sol:ZuriElection",
            "label": "Active",
            "offset": 0,
            "slot": "10",
            "type": "t_bool"
          },
          {
            "astId": 365,
            "contract": "contracts/ZuriElection.sol:ZuriElection",
            "label": "Ended",
            "offset": 1,
            "slot": "10",
            "type": "t_bool"
          },
          {
            "astId": 368,
            "contract": "contracts/ZuriElection.sol:ZuriElection",
            "label": "Created",
            "offset": 2,
            "slot": "10",
            "type": "t_bool"
          },
          {
            "astId": 371,
            "contract": "contracts/ZuriElection.sol:ZuriElection",
            "label": "publicState",
            "offset": 3,
            "slot": "10",
            "type": "t_bool"
          }
        ],
        "types": {
          "t_address": {
            "encoding": "inplace",
            "label": "address",
            "numberOfBytes": "20"
          },
          "t_array(t_uint256)dyn_storage": {
            "base": "t_uint256",
            "encoding": "dynamic_array",
            "label": "uint256[]",
            "numberOfBytes": "32"
          },
          "t_bool": {
            "encoding": "inplace",
            "label": "bool",
            "numberOfBytes": "1"
          },
          "t_bytes32": {
            "encoding": "inplace",
            "label": "bytes32",
            "numberOfBytes": "32"
          },
          "t_mapping(t_address,t_bool)": {
            "encoding": "mapping",
            "key": "t_address",
            "label": "mapping(address => bool)",
            "numberOfBytes": "32",
            "value": "t_bool"
          },
          "t_mapping(t_uint256,t_struct(Candidate)382_storage)": {
            "encoding": "mapping",
            "key": "t_uint256",
            "label": "mapping(uint256 => struct ZuriElection.Candidate)",
            "numberOfBytes": "32",
            "value": "t_struct(Candidate)382_storage"
          },
          "t_string_storage": {
            "encoding": "bytes",
            "label": "string",
            "numberOfBytes": "32"
          },
          "t_struct(Candidate)382_storage": {
            "encoding": "inplace",
            "label": "struct ZuriElection.Candidate",
            "members": [
              {
                "astId": 373,
                "contract": "contracts/ZuriElection.sol:ZuriElection",
                "label": "id",
                "offset": 0,
                "slot": "0",
                "type": "t_uint256"
              },
              {
                "astId": 375,
                "contract": "contracts/ZuriElection.sol:ZuriElection",
                "label": "name",
                "offset": 0,
                "slot": "1",
                "type": "t_string_storage"
              },
              {
                "astId": 377,
                "contract": "contracts/ZuriElection.sol:ZuriElection",
                "label": "candidateHash",
                "offset": 0,
                "slot": "2",
                "type": "t_string_storage"
              },
              {
                "astId": 379,
                "contract": "contracts/ZuriElection.sol:ZuriElection",
                "label": "candidateManifesto",
                "offset": 0,
                "slot": "3",
                "type": "t_string_storage"
              },
              {
                "astId": 381,
                "contract": "contracts/ZuriElection.sol:ZuriElection",
                "label": "voteCount",
                "offset": 0,
                "slot": "4",
                "type": "t_uint256"
              }
            ],
            "numberOfBytes": "160"
          },
          "t_uint256": {
            "encoding": "inplace",
            "label": "uint256",
            "numberOfBytes": "32"
          }
        }
      }
    }
  }
}