{
  "contracts/ZuriElection.sol": {
    "ZuriElection": {
      "abi": [
        {
          "inputs": [
            {
              "internalType": "bytes32",
              "name": "merkleRoot",
              "type": "bytes32"
            }
          ],
          "stateMutability": "nonpayable",
          "type": "constructor"
        },
        {
          "inputs": [],
          "name": "ElectionHasEnded",
          "type": "error"
        },
        {
          "inputs": [],
          "name": "ElectionNotStarted",
          "type": "error"
        },
        {
          "anonymous": false,
          "inputs": [
            {
              "indexed": false,
              "internalType": "uint256",
              "name": "_candidateId",
              "type": "uint256"
            },
            {
              "indexed": false,
              "internalType": "string",
              "name": "_candidateName",
              "type": "string"
            }
          ],
          "name": "CandidateCreated",
          "type": "event"
        },
        {
          "anonymous": false,
          "inputs": [
            {
              "indexed": false,
              "internalType": "uint256[]",
              "name": "_winnerIds",
              "type": "uint256[]"
            },
            {
              "indexed": false,
              "internalType": "uint256",
              "name": "_winnerVoteCount",
              "type": "uint256"
            }
          ],
          "name": "ElectionEnded",
          "type": "event"
        },
        {
          "anonymous": false,
          "inputs": [
            {
              "indexed": false,
              "internalType": "address",
              "name": "account",
              "type": "address"
            }
          ],
          "name": "Paused",
          "type": "event"
        },
        {
          "anonymous": false,
          "inputs": [
            {
              "indexed": false,
              "internalType": "address",
              "name": "account",
              "type": "address"
            }
          ],
          "name": "Unpaused",
          "type": "event"
        },
        {
          "anonymous": false,
          "inputs": [
            {
              "indexed": false,
              "internalType": "uint256",
              "name": "_candidateId",
              "type": "uint256"
            },
            {
              "indexed": false,
              "internalType": "uint256",
              "name": "_candidateVoteCount",
              "type": "uint256"
            }
          ],
          "name": "VoteForCandidate",
          "type": "event"
        },
        {
          "inputs": [],
          "name": "Active",
          "outputs": [
            {
              "internalType": "bool",
              "name": "",
              "type": "bool"
            }
          ],
          "stateMutability": "view",
          "type": "function"
        },
        {
          "inputs": [],
          "name": "Ended",
          "outputs": [
            {
              "internalType": "bool",
              "name": "",
              "type": "bool"
            }
          ],
          "stateMutability": "view",
          "type": "function"
        },
        {
          "inputs": [
            {
              "internalType": "address",
              "name": "_newTeacher",
              "type": "address"
            }
          ],
          "name": "addTeacher",
          "outputs": [],
          "stateMutability": "nonpayable",
          "type": "function"
        },
        {
          "inputs": [
            {
              "internalType": "uint256",
              "name": "",
              "type": "uint256"
            }
          ],
          "name": "candidates",
          "outputs": [
            {
              "internalType": "uint256",
              "name": "id",
              "type": "uint256"
            },
            {
              "internalType": "string",
              "name": "name",
              "type": "string"
            },
            {
              "internalType": "uint256",
              "name": "voteCount",
              "type": "uint256"
            }
          ],
          "stateMutability": "view",
          "type": "function"
        },
        {
          "inputs": [],
          "name": "candidatesCount",
          "outputs": [
            {
              "internalType": "uint256",
              "name": "",
              "type": "uint256"
            }
          ],
          "stateMutability": "view",
          "type": "function"
        },
        {
          "inputs": [],
          "name": "chairman",
          "outputs": [
            {
              "internalType": "address",
              "name": "",
              "type": "address"
            }
          ],
          "stateMutability": "view",
          "type": "function"
        },
        {
          "inputs": [
            {
              "internalType": "address",
              "name": "_newChairman",
              "type": "address"
            }
          ],
          "name": "changeChairman",
          "outputs": [],
          "stateMutability": "nonpayable",
          "type": "function"
        },
        {
          "inputs": [],
          "name": "description",
          "outputs": [
            {
              "internalType": "string",
              "name": "",
              "type": "string"
            }
          ],
          "stateMutability": "view",
          "type": "function"
        },
        {
          "inputs": [],
          "name": "endElection",
          "outputs": [],
          "stateMutability": "nonpayable",
          "type": "function"
        },
        {
          "inputs": [
            {
              "internalType": "bytes32[]",
              "name": "proof",
              "type": "bytes32[]"
            },
            {
              "internalType": "bytes32",
              "name": "leaf",
              "type": "bytes32"
            }
          ],
          "name": "isValid",
          "outputs": [
            {
              "internalType": "bool",
              "name": "",
              "type": "bool"
            }
          ],
          "stateMutability": "view",
          "type": "function"
        },
        {
          "inputs": [],
          "name": "makeResultPublic",
          "outputs": [
            {
              "internalType": "uint256",
              "name": "",
              "type": "uint256"
            },
            {
              "internalType": "uint256[]",
              "name": "",
              "type": "uint256[]"
            }
          ],
          "stateMutability": "view",
          "type": "function"
        },
        {
          "inputs": [],
          "name": "pause",
          "outputs": [],
          "stateMutability": "nonpayable",
          "type": "function"
        },
        {
          "inputs": [],
          "name": "paused",
          "outputs": [
            {
              "internalType": "bool",
              "name": "",
              "type": "bool"
            }
          ],
          "stateMutability": "view",
          "type": "function"
        },
        {
          "inputs": [],
          "name": "position",
          "outputs": [
            {
              "internalType": "string",
              "name": "",
              "type": "string"
            }
          ],
          "stateMutability": "view",
          "type": "function"
        },
        {
          "inputs": [
            {
              "internalType": "address",
              "name": "_teacher",
              "type": "address"
            }
          ],
          "name": "removeTeacher",
          "outputs": [],
          "stateMutability": "nonpayable",
          "type": "function"
        },
        {
          "inputs": [],
          "name": "root",
          "outputs": [
            {
              "internalType": "bytes32",
              "name": "",
              "type": "bytes32"
            }
          ],
          "stateMutability": "view",
          "type": "function"
        },
        {
          "inputs": [
            {
              "internalType": "string[]",
              "name": "_prop",
              "type": "string[]"
            },
            {
              "internalType": "string[]",
              "name": "_candidates",
              "type": "string[]"
            }
          ],
          "name": "setUpElection",
          "outputs": [],
          "stateMutability": "nonpayable",
          "type": "function"
        },
        {
          "inputs": [],
          "name": "startElection",
          "outputs": [],
          "stateMutability": "nonpayable",
          "type": "function"
        },
        {
          "inputs": [
            {
              "internalType": "address",
              "name": "",
              "type": "address"
            }
          ],
          "name": "teachers",
          "outputs": [
            {
              "internalType": "bool",
              "name": "",
              "type": "bool"
            }
          ],
          "stateMutability": "view",
          "type": "function"
        },
        {
          "inputs": [],
          "name": "unpause",
          "outputs": [],
          "stateMutability": "nonpayable",
          "type": "function"
        },
        {
          "inputs": [
            {
              "internalType": "uint256",
              "name": "_candidateId",
              "type": "uint256"
            },
            {
              "internalType": "bytes32[]",
              "name": "hexProof",
              "type": "bytes32[]"
            }
          ],
          "name": "vote",
          "outputs": [],
          "stateMutability": "nonpayable",
          "type": "function"
        },
        {
          "inputs": [
            {
              "internalType": "address",
              "name": "",
              "type": "address"
            }
          ],
          "name": "voted",
          "outputs": [
            {
              "internalType": "bool",
              "name": "",
              "type": "bool"
            }
          ],
          "stateMutability": "view",
          "type": "function"
        },
        {
          "inputs": [
            {
              "internalType": "uint256",
              "name": "",
              "type": "uint256"
            }
          ],
          "name": "winnerIds",
          "outputs": [
            {
              "internalType": "uint256",
              "name": "",
              "type": "uint256"
            }
          ],
          "stateMutability": "view",
          "type": "function"
        },
        {
          "inputs": [],
          "name": "winnerVoteCount",
          "outputs": [
            {
              "internalType": "uint256",
              "name": "",
              "type": "uint256"
            }
          ],
          "stateMutability": "view",
          "type": "function"
        }
      ],
      "evm": {
        "bytecode": {
          "linkReferences": {},
          "object": "60806040523480156200001157600080fd5b5060405162004b9838038062004b9883398181016040528101906200003791906200035d565b60008060006101000a81548160ff021916908315150217905550620000857f72d1e71d6c24a00abe8548427d42c3ff581efeffc8ff3c07964b39830aac82e760001b6200031a60201b60201c565b620000b97fdc8c41a43947cdcc1c256831db51fd00d4bb075ac4a8d90cbc3b942ca60b37d960001b6200031a60201b60201c565b620000ed7f7843408cf570e0014751b328e0e8a5839a6d75e284332d099e8253614e97708760001b6200031a60201b60201c565b33600060016101000a81548173ffffffffffffffffffffffffffffffffffffffff021916908373ffffffffffffffffffffffffffffffffffffffff160217905550620001627f8dc851c038f2a75774a510afa62166bad9cdfba1ea9753f623ea284c052aa12060001b6200031a60201b60201c565b620001967ff0dccdb760027f1c7ac2ab28ba5c4319ad78ea2d22bc087c028f46b6cff6582460001b6200031a60201b60201c565b6000600a60006101000a81548160ff021916908315150217905550620001e57f1026703ff7a4e54cc550db4eb347d690922ac067672fa0bdf5741d3506070b1360001b6200031a60201b60201c565b620002197fce92535b45d0b6f01484e9f53faa00df66614acf5cd8cdb5d7f13e83e79fb91760001b6200031a60201b60201c565b6000600a60016101000a81548160ff021916908315150217905550620002687f18fb7166668e00a41810495dbc6c09040d75e487d8df4257f41a74f633596cd660001b6200031a60201b60201c565b6200029c7fa02176f0d5cb7e8f6658c494bf64139d5e97b12dbe855eabd48fc0e9be4ab74a60001b6200031a60201b60201c565b6000600481905550620002d87f8373dd0064f7d88b7f36eee113c1377fe15eb61fae9dad1dc3d5d414199459ee60001b6200031a60201b60201c565b6200030c7ffafad7bca76435d2d5eedfc634af02f01f189a3d326910d31a9b0fc4b96b247660001b6200031a60201b60201c565b80600381905550506200038f565b50565b600080fd5b6000819050919050565b620003378162000322565b81146200034357600080fd5b50565b60008151905062000357816200032c565b92915050565b6000602082840312156200037657620003756200031d565b5b6000620003868482850162000346565b91505092915050565b6147f9806200039f6000396000f3fe608060405234801561001057600080fd5b50600436106101585760003560e01c80637284e416116100c3578063b8a20ed01161007c578063b8a20ed01461035c578063c9b0a2a71461038c578063e8101869146103aa578063ebf0c717146103c6578063f0a47f78146103e4578063fd27419b1461041457610158565b80637284e416146102ab57806379bf09ab146102c95780638456cb59146102e557806387f7b975146102ef57806395adfc5e1461030d578063aec2ccae1461032c57610158565b8063403d131211610115578063403d13121461020f578063477383f31461023f57806352ff68461461025d57806359f78468146102795780635c975abb1461028357806362d73eb8146102a157610158565b806309218e911461015d5780632d35a8a21461017b5780632f22850d146101995780633477ee2e146101b75780633bc6e309146101e95780633f4ba83a14610205575b600080fd5b610165610430565b604051610172919061375e565b60405180910390f35b6101836104be565b6040516101909190613799565b60405180910390f35b6101a16104c4565b6040516101ae9190613799565b60405180910390f35b6101d160048036038101906101cc91906137f4565b6104ca565b6040516101e093929190613821565b60405180910390f35b61020360048036038101906101fe91906138bd565b61057c565b005b61020d61083e565b005b610229600480360381019061022491906137f4565b610afa565b6040516102369190613799565b60405180910390f35b610247610b1e565b6040516102549190613905565b60405180910390f35b610277600480360381019061027291906138bd565b610b31565b005b610281610df3565b005b61028b61116a565b6040516102989190613905565b60405180910390f35b6102a9611180565b005b6102b3611401565b6040516102c0919061375e565b60405180910390f35b6102e360048036038101906102de9190613b3b565b61148f565b005b6102ed611a9d565b005b6102f7611d59565b6040516103049190613bc2565b60405180910390f35b610315611d7f565b604051610323929190613c9b565b60405180910390f35b610346600480360381019061034191906138bd565b612001565b6040516103539190613905565b60405180910390f35b61037660048036038101906103719190613dc4565b612021565b6040516103839190613905565b60405180910390f35b6103946120bc565b6040516103a19190613905565b60405180910390f35b6103c460048036038101906103bf91906138bd565b6120cf565b005b6103ce612377565b6040516103db9190613e2f565b60405180910390f35b6103fe60048036038101906103f991906138bd565b61237d565b60405161040b9190613905565b60405180910390f35b61042e60048036038101906104299190613ea5565b61239d565b005b6001805461043d90613f34565b80601f016020809104026020016040519081016040528092919081815260200182805461046990613f34565b80156104b65780601f1061048b576101008083540402835291602001916104b6565b820191906000526020600020905b81548152906001019060200180831161049957829003601f168201915b505050505081565b60045481565b60095481565b60076020528060005260406000206000915090508060000154908060010180546104f390613f34565b80601f016020809104026020016040519081016040528092919081815260200182805461051f90613f34565b801561056c5780601f106105415761010080835404028352916020019161056c565b820191906000526020600020905b81548152906001019060200180831161054f57829003601f168201915b5050505050908060020154905083565b61058461116a565b156105c4576040517f08c379a00000000000000000000000000000000000000000000000000000000081526004016105bb90613fb2565b60405180910390fd5b6105f07fe317966e63338e812348c7748947cece9d022b929b604f31faaa8b8f39c5ff2060001b61283f565b61061c7f7ea2f91b44b3471592202a59559efc29bdbd4e67105ea0a7a79354b9fff7c1b960001b61283f565b6106487fc1c4b225ebe7491342da42441a5fa896e9aecad3bfca40bc9979493f60ab7bcb60001b61283f565b6106747ff166cb8eb0dccef39b57656388ea6f6021a27060f3424486dd9abfff75d52c8e60001b61283f565b3373ffffffffffffffffffffffffffffffffffffffff16600060019054906101000a900473ffffffffffffffffffffffffffffffffffffffff1673ffffffffffffffffffffffffffffffffffffffff161480610720575060011515600560003373ffffffffffffffffffffffffffffffffffffffff1673ffffffffffffffffffffffffffffffffffffffff16815260200190815260200160002060009054906101000a900460ff161515145b61075f576040517f08c379a000000000000000000000000000000000000000000000000000000000815260040161075690614044565b60405180910390fd5b61078b7f647f8565636a78af1b1a8b9400032d19db4b57f05b6335876b41002011fe75a460001b61283f565b6107b77fe4c352d770f91ec3bae11894ac150a32d9a6cb4da8ef0beea2601aca1238d17460001b61283f565b6107e37f443abaf965ff378f7f93f7126f8ef7ea116c10a436b40344c5b6664074b5888760001b61283f565b6001600560008373ffffffffffffffffffffffffffffffffffffffff1673ffffffffffffffffffffffffffffffffffffffff16815260200190815260200160002060006101000a81548160ff02191690831515021790555050565b61086a7ff10368458a1e8950f55708f9d928976985fd6a397515e608fbc35721f47bc11160001b61283f565b6108967fd7f1e7c923c834b0cd9f7ae6f2ec5dfded676e8b0c9d801158b264f0d24a8d9a60001b61283f565b6108c27fa8376455167799a5f7783c9a2746fd868015caadded1496a6d3285313dd5824a60001b61283f565b6108ee7f3d99decd8dc16d966e03cb906537c21473376b91051ddf053214e985effb432c60001b61283f565b600060019054906101000a900473ffffffffffffffffffffffffffffffffffffffff1673ffffffffffffffffffffffffffffffffffffffff163373ffffffffffffffffffffffffffffffffffffffff161461097e576040517f08c379a0000000000000000000000000000000000000000000000000000000008152600401610975906140d6565b60405180910390fd5b6109aa7f9ac8d3a927f4e73e1d754d8ab32f5e300854da6298b98a2f43560d168359746e60001b61283f565b6109d67f3270b14e1b2239186b3c058ec7dbc5ce62f3adc9f41b6ba75756943bdf2656c460001b61283f565b610a027f7e2e77ca21aa1b46b9b0aad6729d34129f7d6c650038a359e5a0d7790112444460001b61283f565b610a2e7f0fcb49922ecb56b47c45c8be27aeb49621fd0d364c7e88bcc10d4e783067ad0460001b61283f565b610a5a7fb6c18b71270308205508530b9848e075ede2a048ce6cacbc880e97330c19bf5460001b61283f565b610a62612842565b610a8e7fa92ce9aa72570f37b18f188a2651aa0f0c21f6e2205252be6aafc9a5b22e92ae60001b61283f565b610aba7f67e0f1295d03631725b364e5b7deb02af935254e944c594e31bd35eedb09b50a60001b61283f565b7f5db9ee0a495bf2e6ff9c91a7834c1ba4fdd244a5e8aa4e537bd38aeae4b073aa610ae36128e3565b604051610af09190613bc2565b60405180910390a1565b60088181548110610b0a57600080fd5b906000526020600020016000915090505481565b600a60019054906101000a900460ff1681565b610b3961116a565b15610b79576040517f08c379a0000000000000000000000000000000000000000000000000000000008152600401610b7090613fb2565b60405180910390fd5b610ba57ff1d65da40cd7da7cd1d29d0f52b82a06cfdd3f1889285c71aa3c5feaa406241660001b61283f565b610bd17fa00c272cf75a8e59d101b8a4e69e45781bc21011ebe04bddadb1075faf299d8260001b61283f565b610bfd7f5ae36ab7e907aa1aeb4ca0251f16c35c417d7b589c774a83f06d1bcc8882b74c60001b61283f565b610c297f458faf568390ebdcc623372ab15850c6afc5861a1ce2a9a66e1dc8d43e004ca560001b61283f565b3373ffffffffffffffffffffffffffffffffffffffff16600060019054906101000a900473ffffffffffffffffffffffffffffffffffffffff1673ffffffffffffffffffffffffffffffffffffffff161480610cd5575060011515600560003373ffffffffffffffffffffffffffffffffffffffff1673ffffffffffffffffffffffffffffffffffffffff16815260200190815260200160002060009054906101000a900460ff161515145b610d14576040517f08c379a0000000000000000000000000000000000000000000000000000000008152600401610d0b90614044565b60405180910390fd5b610d407f4e682562efcf2b4db1db442268e4f7f62bedb4f9cea17c42904e1fe44d2f0f4560001b61283f565b610d6c7f2c39c8babfadc7095ca6f199222200ab0de89d30c24aabe11552c770fce0620860001b61283f565b610d987ff6ae938701626db699221d94f02e273855c88ffa93c2dda398f1621835a0b46e60001b61283f565b6000600560008373ffffffffffffffffffffffffffffffffffffffff1673ffffffffffffffffffffffffffffffffffffffff16815260200190815260200160002060006101000a81548160ff02191690831515021790555050565b610dfb61116a565b15610e3b576040517f08c379a0000000000000000000000000000000000000000000000000000000008152600401610e3290613fb2565b60405180910390fd5b610e677ff10368458a1e8950f55708f9d928976985fd6a397515e608fbc35721f47bc11160001b61283f565b610e937fd7f1e7c923c834b0cd9f7ae6f2ec5dfded676e8b0c9d801158b264f0d24a8d9a60001b61283f565b610ebf7fa8376455167799a5f7783c9a2746fd868015caadded1496a6d3285313dd5824a60001b61283f565b610eeb7f3d99decd8dc16d966e03cb906537c21473376b91051ddf053214e985effb432c60001b61283f565b600060019054906101000a900473ffffffffffffffffffffffffffffffffffffffff1673ffffffffffffffffffffffffffffffffffffffff163373ffffffffffffffffffffffffffffffffffffffff1614610f7b576040517f08c379a0000000000000000000000000000000000000000000000000000000008152600401610f72906140d6565b60405180910390fd5b610fa77f9ac8d3a927f4e73e1d754d8ab32f5e300854da6298b98a2f43560d168359746e60001b61283f565b610fd37f3270b14e1b2239186b3c058ec7dbc5ce62f3adc9f41b6ba75756943bdf2656c460001b61283f565b610fff7fa2210f6de7f686d7d5ba9944f7b94ccc03a216161bdce2b50697410c562b41aa60001b61283f565b61102b7fc5ec14fb9a2b00f3712cd29de0f531c266c6fc337e4d871847053fc264ae74de60001b61283f565b6110577f7d6d1a41dcd407c213f1f7622d60f9d9c15f915af936918ae8b3a9cea7fc4cdb60001b61283f565b6001600a60016101000a81548160ff02191690831515021790555061109e7f69065ee662199b8c69f2aca7a21d4ce9b5f6d1573c891a6e722d0957f81f022560001b61283f565b6110ca7f28788e5c9444ea19062ebb6d9da0dc4133346e2eb9d8a9f9890b03f38c55d92560001b61283f565b6110d26128eb565b50506111007fc1f2f05a72013c155e8db264c5e782ce5fb1332af4ab0a4dbf23ec2d444b5c8d60001b61283f565b61112c7f8c6601304668a6293b0b348625515c565e1ff373894dcedf25b768fea1a9ccf960001b61283f565b7f38d8ebbbb4803f034f19b4cf2f19bfb84cc5dea177696c1f80a19357d5602e0460086009546040516111609291906141cc565b60405180910390a1565b60008060009054906101000a900460ff16905090565b61118861116a565b156111c8576040517f08c379a00000000000000000000000000000000000000000000000000000000081526004016111bf90613fb2565b60405180910390fd5b6111f47ff10368458a1e8950f55708f9d928976985fd6a397515e608fbc35721f47bc11160001b61283f565b6112207fd7f1e7c923c834b0cd9f7ae6f2ec5dfded676e8b0c9d801158b264f0d24a8d9a60001b61283f565b61124c7fa8376455167799a5f7783c9a2746fd868015caadded1496a6d3285313dd5824a60001b61283f565b6112787f3d99decd8dc16d966e03cb906537c21473376b91051ddf053214e985effb432c60001b61283f565b600060019054906101000a900473ffffffffffffffffffffffffffffffffffffffff1673ffffffffffffffffffffffffffffffffffffffff163373ffffffffffffffffffffffffffffffffffffffff1614611308576040517f08c379a00000000000000000000000000000000000000000000000000000000081526004016112ff906140d6565b60405180910390fd5b6113347f9ac8d3a927f4e73e1d754d8ab32f5e300854da6298b98a2f43560d168359746e60001b61283f565b6113607f3270b14e1b2239186b3c058ec7dbc5ce62f3adc9f41b6ba75756943bdf2656c460001b61283f565b61138c7f3a2fb4ca7655d1cab0ed5945f1d042f53f1f84d2e2372d720c42dc9df22ae1fc60001b61283f565b6113b87fef0ced56307a31cd3605705c54430a5ef4483efec947e7f8760115dccc8371c760001b61283f565b6113e47feae8e141b4dc5ee1ec3fa9440f45a95be52d6eedbb86206228965bfbb16c6ede60001b61283f565b6001600a60006101000a81548160ff021916908315150217905550565b6002805461140e90613f34565b80601f016020809104026020016040519081016040528092919081815260200182805461143a90613f34565b80156114875780601f1061145c57610100808354040283529160200191611487565b820191906000526020600020905b81548152906001019060200180831161146a57829003601f168201915b505050505081565b61149761116a565b156114d7576040517f08c379a00000000000000000000000000000000000000000000000000000000081526004016114ce90613fb2565b60405180910390fd5b6115037fb05fc425ef53341246609de4eb849e0eb5049a64251509c4e358adf537a6b98b60001b61283f565b61152f7f082c10ba22f146a66f8b226a850dd3314ece4f503137b8b50d93c7dc07b98e0860001b61283f565b61155b7f060dfe5f924a445355811c299be4e1cf7b18a8d116987905341223ffc0d2ebd660001b61283f565b6115877fe97062e62347a347ce9f89ca4532670ff1ee6c014d411f2f0a2d82d3a9d32e4260001b61283f565b600a60009054906101000a900460ff16156115d7576040517f08c379a00000000000000000000000000000000000000000000000000000000081526004016115ce90614248565b60405180910390fd5b6116037f579336b80875a4b5d62d2d2dbe5d2b35ece70268c608b84d96234d695065ee0c60001b61283f565b61162f7f2757f444343bcf165c7c879a1ad14e8184e216f8ae1351feeb45777be5478fc560001b61283f565b61165b7f051fab2ffd12f89504c5879306ab5485d16310d46507eab23210ce88f0f42fec60001b61283f565b6116877fe0d3a8a961f2a7a18994ab8dfe35d1df998f28b79bcde1a79aae5c48ee71011060001b61283f565b60008151116116cb576040517f08c379a00000000000000000000000000000000000000000000000000000000081526004016116c2906142da565b60405180910390fd5b6116f77f5f3483e5530fc89c17f8385258c17b7b9f6fe9d8a0749b06b762e58f8959bdca60001b61283f565b6117237feee8ad60c650688b85674c06bace49f696fd8855d7b3960bef134c418bcec19e60001b61283f565b61174f7fe589a0492b5efb3d69c62106c4e489736a5492eebc34447ce9987e0789adf0f360001b61283f565b61177b7f3e86f88c4efd3c7866a80f63e83788e775779c1fa9ab59e1adf7eb67c0f9da0c60001b61283f565b3373ffffffffffffffffffffffffffffffffffffffff16600060019054906101000a900473ffffffffffffffffffffffffffffffffffffffff1673ffffffffffffffffffffffffffffffffffffffff161480611827575060011515600560003373ffffffffffffffffffffffffffffffffffffffff1673ffffffffffffffffffffffffffffffffffffffff16815260200190815260200160002060009054906101000a900460ff161515145b611866576040517f08c379a000000000000000000000000000000000000000000000000000000000815260040161185d90614044565b60405180910390fd5b6118927f1d830ed6ab7d9f5a54ad467677b8108137d686e7931b1333e4bbd0c41d42c41960001b61283f565b6118be7fe4da5737da703f921c09a16433e4c55b06a02be029c9b6ded6e106fedd91ea3260001b61283f565b6118ea7fcf2a3fbb94cefa12bd738dd4217306af8bbedd85db691383986c64c0ddfa588f60001b61283f565b816000815181106118fe576118fd6142fa565b5b60200260200101516001908051906020019061191b929190613601565b506119487fafd1f187f5d32eeb6787482fe4956ccc358d762d2be8e9d03d16e9576fd4ab3560001b61283f565b6119747fa36cf51c7d8fb9b0d8b6876cfb9cd81f6c9d02c1cf2df89e2dca76993030f25a60001b61283f565b81600181518110611988576119876142fa565b5b6020026020010151600290805190602001906119a5929190613601565b506119d27fc3f7e04aecb87a36c82cc72e6472aa3b1159f84dc48f254560a68c5db9c218e260001b61283f565b6119fe7faf4e5dcf3cc9a94f3d629ad108977ee247c7c9ffc6153ca01c98ec895605c11060001b61283f565b60005b8151811015611a9857611a367fd11fdc5641f7cbe075c8ad980cf89883efdf5b6f91a5a45c7114cf7f7bb5e38d60001b61283f565b611a627fdb606ea45577e0be5892ab89a546c8ca9383e085900dd2e1797c80d5b30b8a5560001b61283f565b611a85828281518110611a7857611a776142fa565b5b6020026020010151612df0565b8080611a9090614358565b915050611a01565b505050565b611ac97ff10368458a1e8950f55708f9d928976985fd6a397515e608fbc35721f47bc11160001b61283f565b611af57fd7f1e7c923c834b0cd9f7ae6f2ec5dfded676e8b0c9d801158b264f0d24a8d9a60001b61283f565b611b217fa8376455167799a5f7783c9a2746fd868015caadded1496a6d3285313dd5824a60001b61283f565b611b4d7f3d99decd8dc16d966e03cb906537c21473376b91051ddf053214e985effb432c60001b61283f565b600060019054906101000a900473ffffffffffffffffffffffffffffffffffffffff1673ffffffffffffffffffffffffffffffffffffffff163373ffffffffffffffffffffffffffffffffffffffff1614611bdd576040517f08c379a0000000000000000000000000000000000000000000000000000000008152600401611bd4906140d6565b60405180910390fd5b611c097f9ac8d3a927f4e73e1d754d8ab32f5e300854da6298b98a2f43560d168359746e60001b61283f565b611c357f3270b14e1b2239186b3c058ec7dbc5ce62f3adc9f41b6ba75756943bdf2656c460001b61283f565b611c617f72e3c4fa2bdc5c4f20b12839766a54882affff3548d8307fae762780c35c18ba60001b61283f565b611c8d7ffd14a535a0bbc1c498870db62231018fdbec1c97b0fb4560795f912471f88bda60001b61283f565b611cb97f5e167ebe276c8633fea3eca617d845d29aef3ce367def3b48f1de05bd95e589e60001b61283f565b611cc1612ffd565b611ced7f60905a303297992b7dd411b3bc183e501c767b55f7e1d46f0003049b4959a53460001b61283f565b611d197f0eb11335a755f683bf2199128a7d82f797a901c99ec6fded58e7e75a272accd360001b61283f565b7f62e78cea01bee320cd4e420270b5ea74000d11b0c9f74754ebdbfc544b05a258611d426128e3565b604051611d4f9190613bc2565b60405180910390a1565b600060019054906101000a900473ffffffffffffffffffffffffffffffffffffffff1681565b60006060611daf7fef7d2e08b9420206ede230affb62d823701d506d59e50f5554cfe35ae320f2b260001b61283f565b611ddb7fd94e7de7e68105b1fe45e57b563c75534277de43c7e915601e1a359f2292f7cf60001b61283f565b611e077f7f7843b569c53a9ac84b94f0a731be611650e6622f042812c0e1829c7ae6562660001b61283f565b611e337f58aa9e500e4bc3a18fa1d8c8a735ce29d8be5c1d025b9efc4a0b28f4a69a6eed60001b61283f565b3373ffffffffffffffffffffffffffffffffffffffff16600060019054906101000a900473ffffffffffffffffffffffffffffffffffffffff1673ffffffffffffffffffffffffffffffffffffffff161480611edf575060011515600560003373ffffffffffffffffffffffffffffffffffffffff1673ffffffffffffffffffffffffffffffffffffffff16815260200190815260200160002060009054906101000a900460ff161515145b611f1e576040517f08c379a0000000000000000000000000000000000000000000000000000000008152600401611f1590614413565b60405180910390fd5b611f4a7f776f85bdd4b681a276cebc60fbca32a5ae97a436113f7aa2fb23ba77ec10aa6760001b61283f565b611f767fbd8a0f331962852d9eb2c25e7ea53c949cbb7cea27be5aa6a0053a1e2edfc47260001b61283f565b611fa27f713573625bbcf64802e44cfa4a93b4b2cabae1e0c119500c608f180c9a30a88c60001b61283f565b600954600880805480602002602001604051908101604052809291908181526020018280548015611ff257602002820191906000526020600020905b815481526020019060010190808311611fde575b50505050509050915091509091565b60066020528060005260406000206000915054906101000a900460ff1681565b600061204f7f57641378a2b6662375cb8d9ef33684d81d2cb15b169a498bb5c654a1603a3c8d60001b61283f565b61207b7fd6480dbacf21101c8fdee5a8ea516058b615a83929f6388b33685cbb873526c460001b61283f565b6120a77f9e1bb5315f94c9aa1a1cb57bf207c894244929a9d7b82c90706e828dded6170760001b61283f565b6120b4836003548461309f565b905092915050565b600a60009054906101000a900460ff1681565b6120d761116a565b15612117576040517f08c379a000000000000000000000000000000000000000000000000000000000815260040161210e90613fb2565b60405180910390fd5b6121437ff10368458a1e8950f55708f9d928976985fd6a397515e608fbc35721f47bc11160001b61283f565b61216f7fd7f1e7c923c834b0cd9f7ae6f2ec5dfded676e8b0c9d801158b264f0d24a8d9a60001b61283f565b61219b7fa8376455167799a5f7783c9a2746fd868015caadded1496a6d3285313dd5824a60001b61283f565b6121c77f3d99decd8dc16d966e03cb906537c21473376b91051ddf053214e985effb432c60001b61283f565b600060019054906101000a900473ffffffffffffffffffffffffffffffffffffffff1673ffffffffffffffffffffffffffffffffffffffff163373ffffffffffffffffffffffffffffffffffffffff1614612257576040517f08c379a000000000000000000000000000000000000000000000000000000000815260040161224e906140d6565b60405180910390fd5b6122837f9ac8d3a927f4e73e1d754d8ab32f5e300854da6298b98a2f43560d168359746e60001b61283f565b6122af7f3270b14e1b2239186b3c058ec7dbc5ce62f3adc9f41b6ba75756943bdf2656c460001b61283f565b6122db7fa3c63ef2c6d970ee391e725659543776b9b172cea12bb1d3407f96000bf0809260001b61283f565b6123077f5b1531256f8e22ce8cb2d338e0aa7512f2d192c91151878940b2cde31e19d14e60001b61283f565b6123337f905397cd83c0a0c8e00ee1cda927ace007910bc92abc3e3102583b275fef7ce560001b61283f565b80600060016101000a81548173ffffffffffffffffffffffffffffffffffffffff021916908373ffffffffffffffffffffffffffffffffffffffff16021790555050565b60035481565b60056020528060005260406000206000915054906101000a900460ff1681565b6123c97f127ed3cdc677c3b4df3882a0324ee9814daa9a4594d474ead6861d701351c72d60001b61283f565b6123f57fff62d83e44367c49b2c52660f37ee3c4671b3a81ae1d2c892920ef566ff0e3ae60001b61283f565b6124217fadbccd420bd42d67d7af9d01c4cde18692d5dc297d85010bec7a5e7d9709ee5e60001b61283f565b61244d7f82fd32ad4f6f90946ac741c3881c887aca20cd82a4fe5f2c46bd57f8e864719d60001b61283f565b600a60019054906101000a900460ff161561249d576040517f08c379a00000000000000000000000000000000000000000000000000000000081526004016124949061447f565b60405180910390fd5b6124c97faa541832e7c45b1f9cdbe5e11cba12db426dfaaace61adad4b3b7d0e6feec7bd60001b61283f565b6124f57f3cf9fa72d3cc65eb6f163983b402ad9ed5daceabde5e63d0443e7b91dd9fd19860001b61283f565b6125217fbc5e837481a62a503f356e17536aaa01dfb927083649dc13e0ef7a8c109ab0dc60001b61283f565b61254d7f1a0fb6d0eb0b2ca8ecab5dd8ee2640ca654fa3b5e4bf96ccfa3bc887d2d7cc8d60001b61283f565b6125797f2400b544cfa17e229110af76130e00ba3670111d0b816bddbd49ff01cebf902360001b61283f565b6125a57f8290af1050945caa0784190b1bb8285e221df0ace2b47cb2887242956b4932ef60001b61283f565b600a60009054906101000a900460ff166125f4576040517f08c379a00000000000000000000000000000000000000000000000000000000081526004016125eb90614511565b60405180910390fd5b6126207f9105da7c679f65e4eb53af1d078c4a53e6b92a94779edaf83d18b8dbc8a98b5f60001b61283f565b61264c7fa4f8ebfa0bcf3c4b117d74552e050fe22086d78c0fdb2c01888b4b4d331127b260001b61283f565b6126787fc148c3416430e495184aa7e5f85fac527c54a366326f87b46b0c9a7aac021b4260001b61283f565b6126a47f9ace2e23f110f2c2476b0d524036c4bf1ec765e5c3cb793462562f5b4e2b86ac60001b61283f565b6126d07f0975c750226379d8e306b1cb38d23cf769884ad24d4a9239b8420e07289b843060001b61283f565b6126fc7f57f5a17dd93d2f433b98d7291ccab2ea3b364f7f2df5a0396e632fb0a7fca96060001b61283f565b61276d828280806020026020016040519081016040528093929190818152602001838360200280828437600081840152601f19601f82011690508083019250505050505050336040516020016127529190614579565b60405160208183030381529060405280519060200120612021565b6127ac576040517f08c379a00000000000000000000000000000000000000000000000000000000081526004016127a390614606565b60405180910390fd5b6127d87fe830c0ee140fbbbc436032dc4ce74bd2d88f47070d3b8087f3b8b7c31c8538a860001b61283f565b6128047f2e81cca64ca6d6ab4ca06c40af7e18ae6e9cd6a37361c0931afaa89efa28505460001b61283f565b6128307f2e36c2aedf7468fbaaba247f8cafdadfbb4c967f336c17fdab6ec386129c178c60001b61283f565b61283a83336130b6565b505050565b50565b61284a61116a565b612889576040517f08c379a000000000000000000000000000000000000000000000000000000000815260040161288090614672565b60405180910390fd5b60008060006101000a81548160ff0219169083151502179055507f5db9ee0a495bf2e6ff9c91a7834c1ba4fdd244a5e8aa4e537bd38aeae4b073aa6128cc6128e3565b6040516128d99190613bc2565b60405180910390a1565b600033905090565b600060606128f761116a565b15612937576040517f08c379a000000000000000000000000000000000000000000000000000000000815260040161292e90613fb2565b60405180910390fd5b6129637fd98ebbe4b94b741dd89fc3d55f9fd5f649a1381cb210fc61e630b5ddd4cc9ef660001b61283f565b61298f7fb1c3adeb85f5cd21080c972f9274f803be2914d6155b591068dc3ea262d74e1760001b61283f565b6129bb7f88a62da9d27120e2c377696d7495b0a577fe8c58ca19858fdd08bde5a28e5ce360001b61283f565b60005b600454811015612d38576129f47f2bf93793bb9377ce8f34ee07e3ca2b9e69c11f6f087710032b8a5ff463df9b1060001b61283f565b612a207f85099047f48d4f172ea26128c5ad3bacb7c038d1bdcc4a4da06973edb42e31a060001b61283f565b60095460076000838152602001908152602001600020600201541115612bb757612a6c7fbdc313912be04859411b4daa50c3be9b4ab6cc059511441edbd0c2a852a2099860001b61283f565b612a987f4a6dbb52f1d19f49f1521498189d17e67b23d4a5e656d8ad33f5d108d0d0b5dc60001b61283f565b612ac47fd8f11a683391e8ef9aacf21d1e8099e1da819896a80a34ccb5905c0a4372fb3c60001b61283f565b6007600082815260200190815260200160002060020154600981905550612b0d7fd926a409dfa6be33c9d7857b8ab42c29afe397106d83743a75f2efe639ff5f8a60001b61283f565b60086000612b1b9190613687565b612b477f01dbe1f6f3814d6e9d4b0ebad11be147efaa5893065b90e1bb04f3a24b25b1e860001b61283f565b612b737fba6157d61e9b30815382d7948370b0966b0cc4967fc9deed9d3635b87fecd52f60001b61283f565b600860076000838152602001908152602001600020600001549080600181540180825580915050600190039060005260206000200160009091909190915055612d25565b612be37feab754abfb2f39f44972655f49ac7d406c54c2b073adea87b2005d6ed6b8d49360001b61283f565b612c0f7f0f0dec143076cf2a25ae8f6440799b3e1275ea4ef27e2b86df0e72346324524a60001b61283f565b60095460076000838152602001908152602001600020600201541415612cf757612c5b7f99795938260be343f6b98336250ffc513d0ecdcd5ba5287e7d452a259281b26a60001b61283f565b612c877f52aba296b1a285aab90eef2fe69f0451778e98c9c581f34b245383b39569ac7460001b61283f565b612cb37f4570d64e780b4ea8bbb8e1ea79e858b76c20d9e9127cd9e72bcef9e52239dd5c60001b61283f565b600860076000838152602001908152602001600020600001549080600181540180825580915050600190039060005260206000200160009091909190915055612d24565b612d237f30e3056520e963c3f5c3b9718ca2ff788e709ba541c65a95cdba4cbdc320746a60001b61283f565b5b5b8080612d3090614358565b9150506129be565b50612d657ff9eaddfbaa1537da6bfab2d79592a29626d651c934fcd102423e672a6249a7d860001b61283f565b612d917fced0160ed6dc24b2a6249c3bd27d8603f06350faa8ae4f285c79bc9834189c1660001b61283f565b600954600880805480602002602001604051908101604052809291908181526020018280548015612de157602002820191906000526020600020905b815481526020019060010190808311612dcd575b50505050509050915091509091565b612df861116a565b15612e38576040517f08c379a0000000000000000000000000000000000000000000000000000000008152600401612e2f90613fb2565b60405180910390fd5b612e647f0509fe1e5e99dc4bb822904e8a3ba520c697b5b577a3996b613bba21e9086dec60001b61283f565b612e907fd94888d3eac30e7f71353ed0a8b5ed617daed4db88671ecc856a6ac4e224373660001b61283f565b612ebc7f685d0e0940fd8c835e83374ff61d4860975e1347889196ba1810f215ba24787a60001b61283f565b604051806060016040528060045481526020018281526020016000815250600760006004548152602001908152602001600020600082015181600001556020820151816001019080519060200190612f15929190613601565b5060408201518160020155905050612f4f7f539cd77f75f8c4cdb8c091587e43bf9d68186b77e32dac34808d3848dfdcdd2460001b61283f565b612f7b7f6d87c34ab0bd0d1542d369171bca0da7dd1d8d5e88f135043cccd09d51e8dd1e60001b61283f565b7f78d27a3c512303f604b46bc28acc0ca45abe6420172a017c5a6dc585821eb63960045482604051612fae929190614692565b60405180910390a1612fe27f9b37f1587c2a9dbb24dfdd910cdbfb93e64dad566ccf437a0f2b2fad3c11c0ae60001b61283f565b60046000815480929190612ff590614358565b919050555050565b61300561116a565b15613045576040517f08c379a000000000000000000000000000000000000000000000000000000000815260040161303c90613fb2565b60405180910390fd5b60016000806101000a81548160ff0219169083151502179055507f62e78cea01bee320cd4e420270b5ea74000d11b0c9f74754ebdbfc544b05a2586130886128e3565b6040516130959190613bc2565b60405180910390a1565b6000826130ac8584613575565b1490509392505050565b6130be61116a565b156130fe576040517f08c379a00000000000000000000000000000000000000000000000000000000081526004016130f590613fb2565b60405180910390fd5b8161312b7f5baa34f426a5fd854ac12c565c454f0e035337ed797fb65c8fb0f3ce6ad3dd1060001b61283f565b6131577f729a02e7ea63b14b17257a38e48bf5fb2306e6e6621b1f9ab95eb759dc671c3960001b61283f565b6131837f557c7f34d0c37c90d6309150a53bf4c53149e61ce0bb3745ccc153256f49816e60001b61283f565b6131af7fe5df44ebae7e990ba0b6516e80f2aa0e040a792d68447286faffc5ed917bfa8360001b61283f565b600454811080156131c1575060008110155b613200576040517f08c379a00000000000000000000000000000000000000000000000000000000081526004016131f79061470e565b60405180910390fd5b61322c7f04414778bbd28a836711f117e56ea632a9642b313567a0ff15732fac3954332360001b61283f565b6132587f37147b97543546b5e9a32b0214d5e37212c75caa0931495c465d59ac04bd2b0760001b61283f565b6132847f7761183dadb26d3ef391749c2c80e03b9ac2be392547aa76adc8c973395783f560001b61283f565b6132b07fe65b0f9fc8e8a705bfecf14204fe594ee1686129c5019f49980d8ef547089c1e60001b61283f565b6132dc7fdeb881a30eb04ec04e14262c1122edbd0158c7bee73573217e13df7a6c8422cc60001b61283f565b6133087f491c80533d310d9b8e0cca82bc4b553a2a50537315c435d6e3e33e71d4a9780c60001b61283f565b600660008373ffffffffffffffffffffffffffffffffffffffff1673ffffffffffffffffffffffffffffffffffffffff16815260200190815260200160002060009054906101000a900460ff1615613395576040517f08c379a000000000000000000000000000000000000000000000000000000000815260040161338c9061477a565b60405180910390fd5b6133c17f31968501416019c5b26d222909d8a7802849f3aa8c787d56cfa0ae4ee85cca8d60001b61283f565b6133ed7fb1b7b6fb493b998da88c06c370b77cfc1f647dcb1c8baba832ba8bc53e89453b60001b61283f565b6134197fd73bf06c14ec09d5fabfc335b622383807409f0abd5e132c2cffab9de0477f2d60001b61283f565b6001600660008473ffffffffffffffffffffffffffffffffffffffff1673ffffffffffffffffffffffffffffffffffffffff16815260200190815260200160002060006101000a81548160ff02191690831515021790555061349d7f5906960ee68a3e0166cebbaa0047c9d1c311d754684131aacb69915dd426956060001b61283f565b6007600084815260200190815260200160002060020160008154809291906134c490614358565b91905055506134f57fd988c72d90b9ba41322a652df8af204a52f491df9c4c83da1dab3b07422d662260001b61283f565b6135217f7909c796fecfafa9449736b1930efddc3d54278e3237cd955c5df949f6fc349760001b61283f565b7fd3ebd88818d034d26c5d98bcef9c7c45207130238e76e8cf0b3ba00e906851bf83600760008681526020019081526020016000206002015460405161356892919061479a565b60405180910390a1505050565b60008082905060005b84518110156135df57600085828151811061359c5761359b6142fa565b5b602002602001015190508083116135be576135b783826135ea565b92506135cb565b6135c881846135ea565b92505b5080806135d790614358565b91505061357e565b508091505092915050565b600082600052816020526040600020905092915050565b82805461360d90613f34565b90600052602060002090601f01602090048101928261362f5760008555613676565b82601f1061364857805160ff1916838001178555613676565b82800160010185558215613676579182015b8281111561367557825182559160200191906001019061365a565b5b50905061368391906136a8565b5090565b50805460008255906000526020600020908101906136a591906136a8565b50565b5b808211156136c15760008160009055506001016136a9565b5090565b600081519050919050565b600082825260208201905092915050565b60005b838110156136ff5780820151818401526020810190506136e4565b8381111561370e576000848401525b50505050565b6000601f19601f8301169050919050565b6000613730826136c5565b61373a81856136d0565b935061374a8185602086016136e1565b61375381613714565b840191505092915050565b600060208201905081810360008301526137788184613725565b905092915050565b6000819050919050565b61379381613780565b82525050565b60006020820190506137ae600083018461378a565b92915050565b6000604051905090565b600080fd5b600080fd5b6137d181613780565b81146137dc57600080fd5b50565b6000813590506137ee816137c8565b92915050565b60006020828403121561380a576138096137be565b5b6000613818848285016137df565b91505092915050565b6000606082019050613836600083018661378a565b81810360208301526138488185613725565b9050613857604083018461378a565b949350505050565b600073ffffffffffffffffffffffffffffffffffffffff82169050919050565b600061388a8261385f565b9050919050565b61389a8161387f565b81146138a557600080fd5b50565b6000813590506138b781613891565b92915050565b6000602082840312156138d3576138d26137be565b5b60006138e1848285016138a8565b91505092915050565b60008115159050919050565b6138ff816138ea565b82525050565b600060208201905061391a60008301846138f6565b92915050565b600080fd5b7f4e487b7100000000000000000000000000000000000000000000000000000000600052604160045260246000fd5b61395d82613714565b810181811067ffffffffffffffff8211171561397c5761397b613925565b5b80604052505050565b600061398f6137b4565b905061399b8282613954565b919050565b600067ffffffffffffffff8211156139bb576139ba613925565b5b602082029050602081019050919050565b600080fd5b600080fd5b600067ffffffffffffffff8211156139f1576139f0613925565b5b6139fa82613714565b9050602081019050919050565b82818337600083830152505050565b6000613a29613a24846139d6565b613985565b905082815260208101848484011115613a4557613a446139d1565b5b613a50848285613a07565b509392505050565b600082601f830112613a6d57613a6c613920565b5b8135613a7d848260208601613a16565b91505092915050565b6000613a99613a94846139a0565b613985565b90508083825260208201905060208402830185811115613abc57613abb6139cc565b5b835b81811015613b0357803567ffffffffffffffff811115613ae157613ae0613920565b5b808601613aee8982613a58565b85526020850194505050602081019050613abe565b5050509392505050565b600082601f830112613b2257613b21613920565b5b8135613b32848260208601613a86565b91505092915050565b60008060408385031215613b5257613b516137be565b5b600083013567ffffffffffffffff811115613b7057613b6f6137c3565b5b613b7c85828601613b0d565b925050602083013567ffffffffffffffff811115613b9d57613b9c6137c3565b5b613ba985828601613b0d565b9150509250929050565b613bbc8161387f565b82525050565b6000602082019050613bd76000830184613bb3565b92915050565b600081519050919050565b600082825260208201905092915050565b6000819050602082019050919050565b613c1281613780565b82525050565b6000613c248383613c09565b60208301905092915050565b6000602082019050919050565b6000613c4882613bdd565b613c528185613be8565b9350613c5d83613bf9565b8060005b83811015613c8e578151613c758882613c18565b9750613c8083613c30565b925050600181019050613c61565b5085935050505092915050565b6000604082019050613cb0600083018561378a565b8181036020830152613cc28184613c3d565b90509392505050565b600067ffffffffffffffff821115613ce657613ce5613925565b5b602082029050602081019050919050565b6000819050919050565b613d0a81613cf7565b8114613d1557600080fd5b50565b600081359050613d2781613d01565b92915050565b6000613d40613d3b84613ccb565b613985565b90508083825260208201905060208402830185811115613d6357613d626139cc565b5b835b81811015613d8c5780613d788882613d18565b845260208401935050602081019050613d65565b5050509392505050565b600082601f830112613dab57613daa613920565b5b8135613dbb848260208601613d2d565b91505092915050565b60008060408385031215613ddb57613dda6137be565b5b600083013567ffffffffffffffff811115613df957613df86137c3565b5b613e0585828601613d96565b9250506020613e1685828601613d18565b9150509250929050565b613e2981613cf7565b82525050565b6000602082019050613e446000830184613e20565b92915050565b600080fd5b60008083601f840112613e6557613e64613920565b5b8235905067ffffffffffffffff811115613e8257613e81613e4a565b5b602083019150836020820283011115613e9e57613e9d6139cc565b5b9250929050565b600080600060408486031215613ebe57613ebd6137be565b5b6000613ecc868287016137df565b935050602084013567ffffffffffffffff811115613eed57613eec6137c3565b5b613ef986828701613e4f565b92509250509250925092565b7f4e487b7100000000000000000000000000000000000000000000000000000000600052602260045260246000fd5b60006002820490506001821680613f4c57607f821691505b60208210811415613f6057613f5f613f05565b5b50919050565b7f5061757361626c653a2070617573656400000000000000000000000000000000600082015250565b6000613f9c6010836136d0565b9150613fa782613f66565b602082019050919050565b60006020820190508181036000830152613fcb81613f8f565b9050919050565b7f6f6e6c792074656163686572732f63686169726d616e2063616e2063616c6c2060008201527f746869732066756e6374696f6e00000000000000000000000000000000000000602082015250565b600061402e602d836136d0565b915061403982613fd2565b604082019050919050565b6000602082019050818103600083015261405d81614021565b9050919050565b7f6f6e6c792063686169726d616e2063616e2063616c6c20746869732066756e6360008201527f74696f6e00000000000000000000000000000000000000000000000000000000602082015250565b60006140c06024836136d0565b91506140cb82614064565b604082019050919050565b600060208201905081810360008301526140ef816140b3565b9050919050565b600081549050919050565b60008190508160005260206000209050919050565b60008160001c9050919050565b6000819050919050565b600061414061413b83614116565b614123565b9050919050565b6000614153825461412d565b9050919050565b6000600182019050919050565b6000614172826140f6565b61417c8185613be8565b935061418783614101565b8060005b838110156141bf5761419c82614147565b6141a68882613c18565b97506141b18361415a565b92505060018101905061418b565b5085935050505092915050565b600060408201905081810360008301526141e68185614167565b90506141f5602083018461378a565b9392505050565b7f456c656374696f6e206973204f6e676f696e6700000000000000000000000000600082015250565b60006142326013836136d0565b915061423d826141fc565b602082019050919050565b6000602082019050818103600083015261426181614225565b9050919050565b7f61746c65617374206f6e6520706572736f6e2073686f756c6420636f6e74657360008201527f7400000000000000000000000000000000000000000000000000000000000000602082015250565b60006142c46021836136d0565b91506142cf82614268565b604082019050919050565b600060208201905081810360008301526142f3816142b7565b9050919050565b7f4e487b7100000000000000000000000000000000000000000000000000000000600052603260045260246000fd5b7f4e487b7100000000000000000000000000000000000000000000000000000000600052601160045260246000fd5b600061436382613780565b91507fffffffffffffffffffffffffffffffffffffffffffffffffffffffffffffffff82141561439657614395614329565b5b600182019050919050565b7f6f6e6c792074656163686572732f63686169726d616e2063616e206d616b652060008201527f726573756c7473207075626c6963000000000000000000000000000000000000602082015250565b60006143fd602e836136d0565b9150614408826143a1565b604082019050919050565b6000602082019050818103600083015261442c816143f0565b9050919050565b7f536f7272792c2074686520456c656374696f6e2068617320656e646564210000600082015250565b6000614469601e836136d0565b915061447482614433565b602082019050919050565b600060208201905081810360008301526144988161445c565b9050919050565b7f506c6561736520636865636b206261636b2c2074686520656c656374696f6e2060008201527f686173206e6f7420737461727465642100000000000000000000000000000000602082015250565b60006144fb6030836136d0565b91506145068261449f565b604082019050919050565b6000602082019050818103600083015261452a816144ee565b9050919050565b60008160601b9050919050565b600061454982614531565b9050919050565b600061455b8261453e565b9050919050565b61457361456e8261387f565b614550565b82525050565b60006145858284614562565b60148201915081905092915050565b7f736f7272792c206f6e6c79207374616b65686f6c646572732061726520656c6960008201527f6769626c6520746f20766f746500000000000000000000000000000000000000602082015250565b60006145f0602d836136d0565b91506145fb82614594565b604082019050919050565b6000602082019050818103600083015261461f816145e3565b9050919050565b7f5061757361626c653a206e6f7420706175736564000000000000000000000000600082015250565b600061465c6014836136d0565b915061466782614626565b602082019050919050565b6000602082019050818103600083015261468b8161464f565b9050919050565b60006040820190506146a7600083018561378a565b81810360208301526146b98184613725565b90509392505050565b7f496e76616c69642063616e64696461746520746f20566f746521000000000000600082015250565b60006146f8601a836136d0565b9150614703826146c2565b602082019050919050565b60006020820190508181036000830152614727816146eb565b9050919050565b7f566f7465722068617320616c726561647920566f746564210000000000000000600082015250565b60006147646018836136d0565b915061476f8261472e565b602082019050919050565b6000602082019050818103600083015261479381614757565b9050919050565b60006040820190506147af600083018561378a565b6147bc602083018461378a565b939250505056fea2646970667358221220530dad3b31053624599174636ad1214f0eafe8a892ad3ed66e829c06724b3c0264736f6c634300080a0033",
          "opcodes": "PUSH1 0x80 PUSH1 0x40 MSTORE CALLVALUE DUP1 ISZERO PUSH3 0x11 JUMPI PUSH1 0x0 DUP1 REVERT JUMPDEST POP PUSH1 0x40 MLOAD PUSH3 0x4B98 CODESIZE SUB DUP1 PUSH3 0x4B98 DUP4 CODECOPY DUP2 DUP2 ADD PUSH1 0x40 MSTORE DUP2 ADD SWAP1 PUSH3 0x37 SWAP2 SWAP1 PUSH3 0x35D JUMP JUMPDEST PUSH1 0x0 DUP1 PUSH1 0x0 PUSH2 0x100 EXP DUP2 SLOAD DUP2 PUSH1 0xFF MUL NOT AND SWAP1 DUP4 ISZERO ISZERO MUL OR SWAP1 SSTORE POP PUSH3 0x85 PUSH32 0x72D1E71D6C24A00ABE8548427D42C3FF581EFEFFC8FF3C07964B39830AAC82E7 PUSH1 0x0 SHL PUSH3 0x31A PUSH1 0x20 SHL PUSH1 0x20 SHR JUMP JUMPDEST PUSH3 0xB9 PUSH32 0xDC8C41A43947CDCC1C256831DB51FD00D4BB075AC4A8D90CBC3B942CA60B37D9 PUSH1 0x0 SHL PUSH3 0x31A PUSH1 0x20 SHL PUSH1 0x20 SHR JUMP JUMPDEST PUSH3 0xED PUSH32 0x7843408CF570E0014751B328E0E8A5839A6D75E284332D099E8253614E977087 PUSH1 0x0 SHL PUSH3 0x31A PUSH1 0x20 SHL PUSH1 0x20 SHR JUMP JUMPDEST CALLER PUSH1 0x0 PUSH1 0x1 PUSH2 0x100 EXP DUP2 SLOAD DUP2 PUSH20 0xFFFFFFFFFFFFFFFFFFFFFFFFFFFFFFFFFFFFFFFF MUL NOT AND SWAP1 DUP4 PUSH20 0xFFFFFFFFFFFFFFFFFFFFFFFFFFFFFFFFFFFFFFFF AND MUL OR SWAP1 SSTORE POP PUSH3 0x162 PUSH32 0x8DC851C038F2A75774A510AFA62166BAD9CDFBA1EA9753F623EA284C052AA120 PUSH1 0x0 SHL PUSH3 0x31A PUSH1 0x20 SHL PUSH1 0x20 SHR JUMP JUMPDEST PUSH3 0x196 PUSH32 0xF0DCCDB760027F1C7AC2AB28BA5C4319AD78EA2D22BC087C028F46B6CFF65824 PUSH1 0x0 SHL PUSH3 0x31A PUSH1 0x20 SHL PUSH1 0x20 SHR JUMP JUMPDEST PUSH1 0x0 PUSH1 0xA PUSH1 0x0 PUSH2 0x100 EXP DUP2 SLOAD DUP2 PUSH1 0xFF MUL NOT AND SWAP1 DUP4 ISZERO ISZERO MUL OR SWAP1 SSTORE POP PUSH3 0x1E5 PUSH32 0x1026703FF7A4E54CC550DB4EB347D690922AC067672FA0BDF5741D3506070B13 PUSH1 0x0 SHL PUSH3 0x31A PUSH1 0x20 SHL PUSH1 0x20 SHR JUMP JUMPDEST PUSH3 0x219 PUSH32 0xCE92535B45D0B6F01484E9F53FAA00DF66614ACF5CD8CDB5D7F13E83E79FB917 PUSH1 0x0 SHL PUSH3 0x31A PUSH1 0x20 SHL PUSH1 0x20 SHR JUMP JUMPDEST PUSH1 0x0 PUSH1 0xA PUSH1 0x1 PUSH2 0x100 EXP DUP2 SLOAD DUP2 PUSH1 0xFF MUL NOT AND SWAP1 DUP4 ISZERO ISZERO MUL OR SWAP1 SSTORE POP PUSH3 0x268 PUSH32 0x18FB7166668E00A41810495DBC6C09040D75E487D8DF4257F41A74F633596CD6 PUSH1 0x0 SHL PUSH3 0x31A PUSH1 0x20 SHL PUSH1 0x20 SHR JUMP JUMPDEST PUSH3 0x29C PUSH32 0xA02176F0D5CB7E8F6658C494BF64139D5E97B12DBE855EABD48FC0E9BE4AB74A PUSH1 0x0 SHL PUSH3 0x31A PUSH1 0x20 SHL PUSH1 0x20 SHR JUMP JUMPDEST PUSH1 0x0 PUSH1 0x4 DUP2 SWAP1 SSTORE POP PUSH3 0x2D8 PUSH32 0x8373DD0064F7D88B7F36EEE113C1377FE15EB61FAE9DAD1DC3D5D414199459EE PUSH1 0x0 SHL PUSH3 0x31A PUSH1 0x20 SHL PUSH1 0x20 SHR JUMP JUMPDEST PUSH3 0x30C PUSH32 0xFAFAD7BCA76435D2D5EEDFC634AF02F01F189A3D326910D31A9B0FC4B96B2476 PUSH1 0x0 SHL PUSH3 0x31A PUSH1 0x20 SHL PUSH1 0x20 SHR JUMP JUMPDEST DUP1 PUSH1 0x3 DUP2 SWAP1 SSTORE POP POP PUSH3 0x38F JUMP JUMPDEST POP JUMP JUMPDEST PUSH1 0x0 DUP1 REVERT JUMPDEST PUSH1 0x0 DUP2 SWAP1 POP SWAP2 SWAP1 POP JUMP JUMPDEST PUSH3 0x337 DUP2 PUSH3 0x322 JUMP JUMPDEST DUP2 EQ PUSH3 0x343 JUMPI PUSH1 0x0 DUP1 REVERT JUMPDEST POP JUMP JUMPDEST PUSH1 0x0 DUP2 MLOAD SWAP1 POP PUSH3 0x357 DUP2 PUSH3 0x32C JUMP JUMPDEST SWAP3 SWAP2 POP POP JUMP JUMPDEST PUSH1 0x0 PUSH1 0x20 DUP3 DUP5 SUB SLT ISZERO PUSH3 0x376 JUMPI PUSH3 0x375 PUSH3 0x31D JUMP JUMPDEST JUMPDEST PUSH1 0x0 PUSH3 0x386 DUP5 DUP3 DUP6 ADD PUSH3 0x346 JUMP JUMPDEST SWAP2 POP POP SWAP3 SWAP2 POP POP JUMP JUMPDEST PUSH2 0x47F9 DUP1 PUSH3 0x39F PUSH1 0x0 CODECOPY PUSH1 0x0 RETURN INVALID PUSH1 0x80 PUSH1 0x40 MSTORE CALLVALUE DUP1 ISZERO PUSH2 0x10 JUMPI PUSH1 0x0 DUP1 REVERT JUMPDEST POP PUSH1 0x4 CALLDATASIZE LT PUSH2 0x158 JUMPI PUSH1 0x0 CALLDATALOAD PUSH1 0xE0 SHR DUP1 PUSH4 0x7284E416 GT PUSH2 0xC3 JUMPI DUP1 PUSH4 0xB8A20ED0 GT PUSH2 0x7C JUMPI DUP1 PUSH4 0xB8A20ED0 EQ PUSH2 0x35C JUMPI DUP1 PUSH4 0xC9B0A2A7 EQ PUSH2 0x38C JUMPI DUP1 PUSH4 0xE8101869 EQ PUSH2 0x3AA JUMPI DUP1 PUSH4 0xEBF0C717 EQ PUSH2 0x3C6 JUMPI DUP1 PUSH4 0xF0A47F78 EQ PUSH2 0x3E4 JUMPI DUP1 PUSH4 0xFD27419B EQ PUSH2 0x414 JUMPI PUSH2 0x158 JUMP JUMPDEST DUP1 PUSH4 0x7284E416 EQ PUSH2 0x2AB JUMPI DUP1 PUSH4 0x79BF09AB EQ PUSH2 0x2C9 JUMPI DUP1 PUSH4 0x8456CB59 EQ PUSH2 0x2E5 JUMPI DUP1 PUSH4 0x87F7B975 EQ PUSH2 0x2EF JUMPI DUP1 PUSH4 0x95ADFC5E EQ PUSH2 0x30D JUMPI DUP1 PUSH4 0xAEC2CCAE EQ PUSH2 0x32C JUMPI PUSH2 0x158 JUMP JUMPDEST DUP1 PUSH4 0x403D1312 GT PUSH2 0x115 JUMPI DUP1 PUSH4 0x403D1312 EQ PUSH2 0x20F JUMPI DUP1 PUSH4 0x477383F3 EQ PUSH2 0x23F JUMPI DUP1 PUSH4 0x52FF6846 EQ PUSH2 0x25D JUMPI DUP1 PUSH4 0x59F78468 EQ PUSH2 0x279 JUMPI DUP1 PUSH4 0x5C975ABB EQ PUSH2 0x283 JUMPI DUP1 PUSH4 0x62D73EB8 EQ PUSH2 0x2A1 JUMPI PUSH2 0x158 JUMP JUMPDEST DUP1 PUSH4 0x9218E91 EQ PUSH2 0x15D JUMPI DUP1 PUSH4 0x2D35A8A2 EQ PUSH2 0x17B JUMPI DUP1 PUSH4 0x2F22850D EQ PUSH2 0x199 JUMPI DUP1 PUSH4 0x3477EE2E EQ PUSH2 0x1B7 JUMPI DUP1 PUSH4 0x3BC6E309 EQ PUSH2 0x1E9 JUMPI DUP1 PUSH4 0x3F4BA83A EQ PUSH2 0x205 JUMPI JUMPDEST PUSH1 0x0 DUP1 REVERT JUMPDEST PUSH2 0x165 PUSH2 0x430 JUMP JUMPDEST PUSH1 0x40 MLOAD PUSH2 0x172 SWAP2 SWAP1 PUSH2 0x375E JUMP JUMPDEST PUSH1 0x40 MLOAD DUP1 SWAP2 SUB SWAP1 RETURN JUMPDEST PUSH2 0x183 PUSH2 0x4BE JUMP JUMPDEST PUSH1 0x40 MLOAD PUSH2 0x190 SWAP2 SWAP1 PUSH2 0x3799 JUMP JUMPDEST PUSH1 0x40 MLOAD DUP1 SWAP2 SUB SWAP1 RETURN JUMPDEST PUSH2 0x1A1 PUSH2 0x4C4 JUMP JUMPDEST PUSH1 0x40 MLOAD PUSH2 0x1AE SWAP2 SWAP1 PUSH2 0x3799 JUMP JUMPDEST PUSH1 0x40 MLOAD DUP1 SWAP2 SUB SWAP1 RETURN JUMPDEST PUSH2 0x1D1 PUSH1 0x4 DUP1 CALLDATASIZE SUB DUP2 ADD SWAP1 PUSH2 0x1CC SWAP2 SWAP1 PUSH2 0x37F4 JUMP JUMPDEST PUSH2 0x4CA JUMP JUMPDEST PUSH1 0x40 MLOAD PUSH2 0x1E0 SWAP4 SWAP3 SWAP2 SWAP1 PUSH2 0x3821 JUMP JUMPDEST PUSH1 0x40 MLOAD DUP1 SWAP2 SUB SWAP1 RETURN JUMPDEST PUSH2 0x203 PUSH1 0x4 DUP1 CALLDATASIZE SUB DUP2 ADD SWAP1 PUSH2 0x1FE SWAP2 SWAP1 PUSH2 0x38BD JUMP JUMPDEST PUSH2 0x57C JUMP JUMPDEST STOP JUMPDEST PUSH2 0x20D PUSH2 0x83E JUMP JUMPDEST STOP JUMPDEST PUSH2 0x229 PUSH1 0x4 DUP1 CALLDATASIZE SUB DUP2 ADD SWAP1 PUSH2 0x224 SWAP2 SWAP1 PUSH2 0x37F4 JUMP JUMPDEST PUSH2 0xAFA JUMP JUMPDEST PUSH1 0x40 MLOAD PUSH2 0x236 SWAP2 SWAP1 PUSH2 0x3799 JUMP JUMPDEST PUSH1 0x40 MLOAD DUP1 SWAP2 SUB SWAP1 RETURN JUMPDEST PUSH2 0x247 PUSH2 0xB1E JUMP JUMPDEST PUSH1 0x40 MLOAD PUSH2 0x254 SWAP2 SWAP1 PUSH2 0x3905 JUMP JUMPDEST PUSH1 0x40 MLOAD DUP1 SWAP2 SUB SWAP1 RETURN JUMPDEST PUSH2 0x277 PUSH1 0x4 DUP1 CALLDATASIZE SUB DUP2 ADD SWAP1 PUSH2 0x272 SWAP2 SWAP1 PUSH2 0x38BD JUMP JUMPDEST PUSH2 0xB31 JUMP JUMPDEST STOP JUMPDEST PUSH2 0x281 PUSH2 0xDF3 JUMP JUMPDEST STOP JUMPDEST PUSH2 0x28B PUSH2 0x116A JUMP JUMPDEST PUSH1 0x40 MLOAD PUSH2 0x298 SWAP2 SWAP1 PUSH2 0x3905 JUMP JUMPDEST PUSH1 0x40 MLOAD DUP1 SWAP2 SUB SWAP1 RETURN JUMPDEST PUSH2 0x2A9 PUSH2 0x1180 JUMP JUMPDEST STOP JUMPDEST PUSH2 0x2B3 PUSH2 0x1401 JUMP JUMPDEST PUSH1 0x40 MLOAD PUSH2 0x2C0 SWAP2 SWAP1 PUSH2 0x375E JUMP JUMPDEST PUSH1 0x40 MLOAD DUP1 SWAP2 SUB SWAP1 RETURN JUMPDEST PUSH2 0x2E3 PUSH1 0x4 DUP1 CALLDATASIZE SUB DUP2 ADD SWAP1 PUSH2 0x2DE SWAP2 SWAP1 PUSH2 0x3B3B JUMP JUMPDEST PUSH2 0x148F JUMP JUMPDEST STOP JUMPDEST PUSH2 0x2ED PUSH2 0x1A9D JUMP JUMPDEST STOP JUMPDEST PUSH2 0x2F7 PUSH2 0x1D59 JUMP JUMPDEST PUSH1 0x40 MLOAD PUSH2 0x304 SWAP2 SWAP1 PUSH2 0x3BC2 JUMP JUMPDEST PUSH1 0x40 MLOAD DUP1 SWAP2 SUB SWAP1 RETURN JUMPDEST PUSH2 0x315 PUSH2 0x1D7F JUMP JUMPDEST PUSH1 0x40 MLOAD PUSH2 0x323 SWAP3 SWAP2 SWAP1 PUSH2 0x3C9B JUMP JUMPDEST PUSH1 0x40 MLOAD DUP1 SWAP2 SUB SWAP1 RETURN JUMPDEST PUSH2 0x346 PUSH1 0x4 DUP1 CALLDATASIZE SUB DUP2 ADD SWAP1 PUSH2 0x341 SWAP2 SWAP1 PUSH2 0x38BD JUMP JUMPDEST PUSH2 0x2001 JUMP JUMPDEST PUSH1 0x40 MLOAD PUSH2 0x353 SWAP2 SWAP1 PUSH2 0x3905 JUMP JUMPDEST PUSH1 0x40 MLOAD DUP1 SWAP2 SUB SWAP1 RETURN JUMPDEST PUSH2 0x376 PUSH1 0x4 DUP1 CALLDATASIZE SUB DUP2 ADD SWAP1 PUSH2 0x371 SWAP2 SWAP1 PUSH2 0x3DC4 JUMP JUMPDEST PUSH2 0x2021 JUMP JUMPDEST PUSH1 0x40 MLOAD PUSH2 0x383 SWAP2 SWAP1 PUSH2 0x3905 JUMP JUMPDEST PUSH1 0x40 MLOAD DUP1 SWAP2 SUB SWAP1 RETURN JUMPDEST PUSH2 0x394 PUSH2 0x20BC JUMP JUMPDEST PUSH1 0x40 MLOAD PUSH2 0x3A1 SWAP2 SWAP1 PUSH2 0x3905 JUMP JUMPDEST PUSH1 0x40 MLOAD DUP1 SWAP2 SUB SWAP1 RETURN JUMPDEST PUSH2 0x3C4 PUSH1 0x4 DUP1 CALLDATASIZE SUB DUP2 ADD SWAP1 PUSH2 0x3BF SWAP2 SWAP1 PUSH2 0x38BD JUMP JUMPDEST PUSH2 0x20CF JUMP JUMPDEST STOP JUMPDEST PUSH2 0x3CE PUSH2 0x2377 JUMP JUMPDEST PUSH1 0x40 MLOAD PUSH2 0x3DB SWAP2 SWAP1 PUSH2 0x3E2F JUMP JUMPDEST PUSH1 0x40 MLOAD DUP1 SWAP2 SUB SWAP1 RETURN JUMPDEST PUSH2 0x3FE PUSH1 0x4 DUP1 CALLDATASIZE SUB DUP2 ADD SWAP1 PUSH2 0x3F9 SWAP2 SWAP1 PUSH2 0x38BD JUMP JUMPDEST PUSH2 0x237D JUMP JUMPDEST PUSH1 0x40 MLOAD PUSH2 0x40B SWAP2 SWAP1 PUSH2 0x3905 JUMP JUMPDEST PUSH1 0x40 MLOAD DUP1 SWAP2 SUB SWAP1 RETURN JUMPDEST PUSH2 0x42E PUSH1 0x4 DUP1 CALLDATASIZE SUB DUP2 ADD SWAP1 PUSH2 0x429 SWAP2 SWAP1 PUSH2 0x3EA5 JUMP JUMPDEST PUSH2 0x239D JUMP JUMPDEST STOP JUMPDEST PUSH1 0x1 DUP1 SLOAD PUSH2 0x43D SWAP1 PUSH2 0x3F34 JUMP JUMPDEST DUP1 PUSH1 0x1F ADD PUSH1 0x20 DUP1 SWAP2 DIV MUL PUSH1 0x20 ADD PUSH1 0x40 MLOAD SWAP1 DUP2 ADD PUSH1 0x40 MSTORE DUP1 SWAP3 SWAP2 SWAP1 DUP2 DUP2 MSTORE PUSH1 0x20 ADD DUP3 DUP1 SLOAD PUSH2 0x469 SWAP1 PUSH2 0x3F34 JUMP JUMPDEST DUP1 ISZERO PUSH2 0x4B6 JUMPI DUP1 PUSH1 0x1F LT PUSH2 0x48B JUMPI PUSH2 0x100 DUP1 DUP4 SLOAD DIV MUL DUP4 MSTORE SWAP2 PUSH1 0x20 ADD SWAP2 PUSH2 0x4B6 JUMP JUMPDEST DUP3 ADD SWAP2 SWAP1 PUSH1 0x0 MSTORE PUSH1 0x20 PUSH1 0x0 KECCAK256 SWAP1 JUMPDEST DUP2 SLOAD DUP2 MSTORE SWAP1 PUSH1 0x1 ADD SWAP1 PUSH1 0x20 ADD DUP1 DUP4 GT PUSH2 0x499 JUMPI DUP3 SWAP1 SUB PUSH1 0x1F AND DUP3 ADD SWAP2 JUMPDEST POP POP POP POP POP DUP2 JUMP JUMPDEST PUSH1 0x4 SLOAD DUP2 JUMP JUMPDEST PUSH1 0x9 SLOAD DUP2 JUMP JUMPDEST PUSH1 0x7 PUSH1 0x20 MSTORE DUP1 PUSH1 0x0 MSTORE PUSH1 0x40 PUSH1 0x0 KECCAK256 PUSH1 0x0 SWAP2 POP SWAP1 POP DUP1 PUSH1 0x0 ADD SLOAD SWAP1 DUP1 PUSH1 0x1 ADD DUP1 SLOAD PUSH2 0x4F3 SWAP1 PUSH2 0x3F34 JUMP JUMPDEST DUP1 PUSH1 0x1F ADD PUSH1 0x20 DUP1 SWAP2 DIV MUL PUSH1 0x20 ADD PUSH1 0x40 MLOAD SWAP1 DUP2 ADD PUSH1 0x40 MSTORE DUP1 SWAP3 SWAP2 SWAP1 DUP2 DUP2 MSTORE PUSH1 0x20 ADD DUP3 DUP1 SLOAD PUSH2 0x51F SWAP1 PUSH2 0x3F34 JUMP JUMPDEST DUP1 ISZERO PUSH2 0x56C JUMPI DUP1 PUSH1 0x1F LT PUSH2 0x541 JUMPI PUSH2 0x100 DUP1 DUP4 SLOAD DIV MUL DUP4 MSTORE SWAP2 PUSH1 0x20 ADD SWAP2 PUSH2 0x56C JUMP JUMPDEST DUP3 ADD SWAP2 SWAP1 PUSH1 0x0 MSTORE PUSH1 0x20 PUSH1 0x0 KECCAK256 SWAP1 JUMPDEST DUP2 SLOAD DUP2 MSTORE SWAP1 PUSH1 0x1 ADD SWAP1 PUSH1 0x20 ADD DUP1 DUP4 GT PUSH2 0x54F JUMPI DUP3 SWAP1 SUB PUSH1 0x1F AND DUP3 ADD SWAP2 JUMPDEST POP POP POP POP POP SWAP1 DUP1 PUSH1 0x2 ADD SLOAD SWAP1 POP DUP4 JUMP JUMPDEST PUSH2 0x584 PUSH2 0x116A JUMP JUMPDEST ISZERO PUSH2 0x5C4 JUMPI PUSH1 0x40 MLOAD PUSH32 0x8C379A000000000000000000000000000000000000000000000000000000000 DUP2 MSTORE PUSH1 0x4 ADD PUSH2 0x5BB SWAP1 PUSH2 0x3FB2 JUMP JUMPDEST PUSH1 0x40 MLOAD DUP1 SWAP2 SUB SWAP1 REVERT JUMPDEST PUSH2 0x5F0 PUSH32 0xE317966E63338E812348C7748947CECE9D022B929B604F31FAAA8B8F39C5FF20 PUSH1 0x0 SHL PUSH2 0x283F JUMP JUMPDEST PUSH2 0x61C PUSH32 0x7EA2F91B44B3471592202A59559EFC29BDBD4E67105EA0A7A79354B9FFF7C1B9 PUSH1 0x0 SHL PUSH2 0x283F JUMP JUMPDEST PUSH2 0x648 PUSH32 0xC1C4B225EBE7491342DA42441A5FA896E9AECAD3BFCA40BC9979493F60AB7BCB PUSH1 0x0 SHL PUSH2 0x283F JUMP JUMPDEST PUSH2 0x674 PUSH32 0xF166CB8EB0DCCEF39B57656388EA6F6021A27060F3424486DD9ABFFF75D52C8E PUSH1 0x0 SHL PUSH2 0x283F JUMP JUMPDEST CALLER PUSH20 0xFFFFFFFFFFFFFFFFFFFFFFFFFFFFFFFFFFFFFFFF AND PUSH1 0x0 PUSH1 0x1 SWAP1 SLOAD SWAP1 PUSH2 0x100 EXP SWAP1 DIV PUSH20 0xFFFFFFFFFFFFFFFFFFFFFFFFFFFFFFFFFFFFFFFF AND PUSH20 0xFFFFFFFFFFFFFFFFFFFFFFFFFFFFFFFFFFFFFFFF AND EQ DUP1 PUSH2 0x720 JUMPI POP PUSH1 0x1 ISZERO ISZERO PUSH1 0x5 PUSH1 0x0 CALLER PUSH20 0xFFFFFFFFFFFFFFFFFFFFFFFFFFFFFFFFFFFFFFFF AND PUSH20 0xFFFFFFFFFFFFFFFFFFFFFFFFFFFFFFFFFFFFFFFF AND DUP2 MSTORE PUSH1 0x20 ADD SWAP1 DUP2 MSTORE PUSH1 0x20 ADD PUSH1 0x0 KECCAK256 PUSH1 0x0 SWAP1 SLOAD SWAP1 PUSH2 0x100 EXP SWAP1 DIV PUSH1 0xFF AND ISZERO ISZERO EQ JUMPDEST PUSH2 0x75F JUMPI PUSH1 0x40 MLOAD PUSH32 0x8C379A000000000000000000000000000000000000000000000000000000000 DUP2 MSTORE PUSH1 0x4 ADD PUSH2 0x756 SWAP1 PUSH2 0x4044 JUMP JUMPDEST PUSH1 0x40 MLOAD DUP1 SWAP2 SUB SWAP1 REVERT JUMPDEST PUSH2 0x78B PUSH32 0x647F8565636A78AF1B1A8B9400032D19DB4B57F05B6335876B41002011FE75A4 PUSH1 0x0 SHL PUSH2 0x283F JUMP JUMPDEST PUSH2 0x7B7 PUSH32 0xE4C352D770F91EC3BAE11894AC150A32D9A6CB4DA8EF0BEEA2601ACA1238D174 PUSH1 0x0 SHL PUSH2 0x283F JUMP JUMPDEST PUSH2 0x7E3 PUSH32 0x443ABAF965FF378F7F93F7126F8EF7EA116C10A436B40344C5B6664074B58887 PUSH1 0x0 SHL PUSH2 0x283F JUMP JUMPDEST PUSH1 0x1 PUSH1 0x5 PUSH1 0x0 DUP4 PUSH20 0xFFFFFFFFFFFFFFFFFFFFFFFFFFFFFFFFFFFFFFFF AND PUSH20 0xFFFFFFFFFFFFFFFFFFFFFFFFFFFFFFFFFFFFFFFF AND DUP2 MSTORE PUSH1 0x20 ADD SWAP1 DUP2 MSTORE PUSH1 0x20 ADD PUSH1 0x0 KECCAK256 PUSH1 0x0 PUSH2 0x100 EXP DUP2 SLOAD DUP2 PUSH1 0xFF MUL NOT AND SWAP1 DUP4 ISZERO ISZERO MUL OR SWAP1 SSTORE POP POP JUMP JUMPDEST PUSH2 0x86A PUSH32 0xF10368458A1E8950F55708F9D928976985FD6A397515E608FBC35721F47BC111 PUSH1 0x0 SHL PUSH2 0x283F JUMP JUMPDEST PUSH2 0x896 PUSH32 0xD7F1E7C923C834B0CD9F7AE6F2EC5DFDED676E8B0C9D801158B264F0D24A8D9A PUSH1 0x0 SHL PUSH2 0x283F JUMP JUMPDEST PUSH2 0x8C2 PUSH32 0xA8376455167799A5F7783C9A2746FD868015CAADDED1496A6D3285313DD5824A PUSH1 0x0 SHL PUSH2 0x283F JUMP JUMPDEST PUSH2 0x8EE PUSH32 0x3D99DECD8DC16D966E03CB906537C21473376B91051DDF053214E985EFFB432C PUSH1 0x0 SHL PUSH2 0x283F JUMP JUMPDEST PUSH1 0x0 PUSH1 0x1 SWAP1 SLOAD SWAP1 PUSH2 0x100 EXP SWAP1 DIV PUSH20 0xFFFFFFFFFFFFFFFFFFFFFFFFFFFFFFFFFFFFFFFF AND PUSH20 0xFFFFFFFFFFFFFFFFFFFFFFFFFFFFFFFFFFFFFFFF AND CALLER PUSH20 0xFFFFFFFFFFFFFFFFFFFFFFFFFFFFFFFFFFFFFFFF AND EQ PUSH2 0x97E JUMPI PUSH1 0x40 MLOAD PUSH32 0x8C379A000000000000000000000000000000000000000000000000000000000 DUP2 MSTORE PUSH1 0x4 ADD PUSH2 0x975 SWAP1 PUSH2 0x40D6 JUMP JUMPDEST PUSH1 0x40 MLOAD DUP1 SWAP2 SUB SWAP1 REVERT JUMPDEST PUSH2 0x9AA PUSH32 0x9AC8D3A927F4E73E1D754D8AB32F5E300854DA6298B98A2F43560D168359746E PUSH1 0x0 SHL PUSH2 0x283F JUMP JUMPDEST PUSH2 0x9D6 PUSH32 0x3270B14E1B2239186B3C058EC7DBC5CE62F3ADC9F41B6BA75756943BDF2656C4 PUSH1 0x0 SHL PUSH2 0x283F JUMP JUMPDEST PUSH2 0xA02 PUSH32 0x7E2E77CA21AA1B46B9B0AAD6729D34129F7D6C650038A359E5A0D77901124444 PUSH1 0x0 SHL PUSH2 0x283F JUMP JUMPDEST PUSH2 0xA2E PUSH32 0xFCB49922ECB56B47C45C8BE27AEB49621FD0D364C7E88BCC10D4E783067AD04 PUSH1 0x0 SHL PUSH2 0x283F JUMP JUMPDEST PUSH2 0xA5A PUSH32 0xB6C18B71270308205508530B9848E075EDE2A048CE6CACBC880E97330C19BF54 PUSH1 0x0 SHL PUSH2 0x283F JUMP JUMPDEST PUSH2 0xA62 PUSH2 0x2842 JUMP JUMPDEST PUSH2 0xA8E PUSH32 0xA92CE9AA72570F37B18F188A2651AA0F0C21F6E2205252BE6AAFC9A5B22E92AE PUSH1 0x0 SHL PUSH2 0x283F JUMP JUMPDEST PUSH2 0xABA PUSH32 0x67E0F1295D03631725B364E5B7DEB02AF935254E944C594E31BD35EEDB09B50A PUSH1 0x0 SHL PUSH2 0x283F JUMP JUMPDEST PUSH32 0x5DB9EE0A495BF2E6FF9C91A7834C1BA4FDD244A5E8AA4E537BD38AEAE4B073AA PUSH2 0xAE3 PUSH2 0x28E3 JUMP JUMPDEST PUSH1 0x40 MLOAD PUSH2 0xAF0 SWAP2 SWAP1 PUSH2 0x3BC2 JUMP JUMPDEST PUSH1 0x40 MLOAD DUP1 SWAP2 SUB SWAP1 LOG1 JUMP JUMPDEST PUSH1 0x8 DUP2 DUP2 SLOAD DUP2 LT PUSH2 0xB0A JUMPI PUSH1 0x0 DUP1 REVERT JUMPDEST SWAP1 PUSH1 0x0 MSTORE PUSH1 0x20 PUSH1 0x0 KECCAK256 ADD PUSH1 0x0 SWAP2 POP SWAP1 POP SLOAD DUP2 JUMP JUMPDEST PUSH1 0xA PUSH1 0x1 SWAP1 SLOAD SWAP1 PUSH2 0x100 EXP SWAP1 DIV PUSH1 0xFF AND DUP2 JUMP JUMPDEST PUSH2 0xB39 PUSH2 0x116A JUMP JUMPDEST ISZERO PUSH2 0xB79 JUMPI PUSH1 0x40 MLOAD PUSH32 0x8C379A000000000000000000000000000000000000000000000000000000000 DUP2 MSTORE PUSH1 0x4 ADD PUSH2 0xB70 SWAP1 PUSH2 0x3FB2 JUMP JUMPDEST PUSH1 0x40 MLOAD DUP1 SWAP2 SUB SWAP1 REVERT JUMPDEST PUSH2 0xBA5 PUSH32 0xF1D65DA40CD7DA7CD1D29D0F52B82A06CFDD3F1889285C71AA3C5FEAA4062416 PUSH1 0x0 SHL PUSH2 0x283F JUMP JUMPDEST PUSH2 0xBD1 PUSH32 0xA00C272CF75A8E59D101B8A4E69E45781BC21011EBE04BDDADB1075FAF299D82 PUSH1 0x0 SHL PUSH2 0x283F JUMP JUMPDEST PUSH2 0xBFD PUSH32 0x5AE36AB7E907AA1AEB4CA0251F16C35C417D7B589C774A83F06D1BCC8882B74C PUSH1 0x0 SHL PUSH2 0x283F JUMP JUMPDEST PUSH2 0xC29 PUSH32 0x458FAF568390EBDCC623372AB15850C6AFC5861A1CE2A9A66E1DC8D43E004CA5 PUSH1 0x0 SHL PUSH2 0x283F JUMP JUMPDEST CALLER PUSH20 0xFFFFFFFFFFFFFFFFFFFFFFFFFFFFFFFFFFFFFFFF AND PUSH1 0x0 PUSH1 0x1 SWAP1 SLOAD SWAP1 PUSH2 0x100 EXP SWAP1 DIV PUSH20 0xFFFFFFFFFFFFFFFFFFFFFFFFFFFFFFFFFFFFFFFF AND PUSH20 0xFFFFFFFFFFFFFFFFFFFFFFFFFFFFFFFFFFFFFFFF AND EQ DUP1 PUSH2 0xCD5 JUMPI POP PUSH1 0x1 ISZERO ISZERO PUSH1 0x5 PUSH1 0x0 CALLER PUSH20 0xFFFFFFFFFFFFFFFFFFFFFFFFFFFFFFFFFFFFFFFF AND PUSH20 0xFFFFFFFFFFFFFFFFFFFFFFFFFFFFFFFFFFFFFFFF AND DUP2 MSTORE PUSH1 0x20 ADD SWAP1 DUP2 MSTORE PUSH1 0x20 ADD PUSH1 0x0 KECCAK256 PUSH1 0x0 SWAP1 SLOAD SWAP1 PUSH2 0x100 EXP SWAP1 DIV PUSH1 0xFF AND ISZERO ISZERO EQ JUMPDEST PUSH2 0xD14 JUMPI PUSH1 0x40 MLOAD PUSH32 0x8C379A000000000000000000000000000000000000000000000000000000000 DUP2 MSTORE PUSH1 0x4 ADD PUSH2 0xD0B SWAP1 PUSH2 0x4044 JUMP JUMPDEST PUSH1 0x40 MLOAD DUP1 SWAP2 SUB SWAP1 REVERT JUMPDEST PUSH2 0xD40 PUSH32 0x4E682562EFCF2B4DB1DB442268E4F7F62BEDB4F9CEA17C42904E1FE44D2F0F45 PUSH1 0x0 SHL PUSH2 0x283F JUMP JUMPDEST PUSH2 0xD6C PUSH32 0x2C39C8BABFADC7095CA6F199222200AB0DE89D30C24AABE11552C770FCE06208 PUSH1 0x0 SHL PUSH2 0x283F JUMP JUMPDEST PUSH2 0xD98 PUSH32 0xF6AE938701626DB699221D94F02E273855C88FFA93C2DDA398F1621835A0B46E PUSH1 0x0 SHL PUSH2 0x283F JUMP JUMPDEST PUSH1 0x0 PUSH1 0x5 PUSH1 0x0 DUP4 PUSH20 0xFFFFFFFFFFFFFFFFFFFFFFFFFFFFFFFFFFFFFFFF AND PUSH20 0xFFFFFFFFFFFFFFFFFFFFFFFFFFFFFFFFFFFFFFFF AND DUP2 MSTORE PUSH1 0x20 ADD SWAP1 DUP2 MSTORE PUSH1 0x20 ADD PUSH1 0x0 KECCAK256 PUSH1 0x0 PUSH2 0x100 EXP DUP2 SLOAD DUP2 PUSH1 0xFF MUL NOT AND SWAP1 DUP4 ISZERO ISZERO MUL OR SWAP1 SSTORE POP POP JUMP JUMPDEST PUSH2 0xDFB PUSH2 0x116A JUMP JUMPDEST ISZERO PUSH2 0xE3B JUMPI PUSH1 0x40 MLOAD PUSH32 0x8C379A000000000000000000000000000000000000000000000000000000000 DUP2 MSTORE PUSH1 0x4 ADD PUSH2 0xE32 SWAP1 PUSH2 0x3FB2 JUMP JUMPDEST PUSH1 0x40 MLOAD DUP1 SWAP2 SUB SWAP1 REVERT JUMPDEST PUSH2 0xE67 PUSH32 0xF10368458A1E8950F55708F9D928976985FD6A397515E608FBC35721F47BC111 PUSH1 0x0 SHL PUSH2 0x283F JUMP JUMPDEST PUSH2 0xE93 PUSH32 0xD7F1E7C923C834B0CD9F7AE6F2EC5DFDED676E8B0C9D801158B264F0D24A8D9A PUSH1 0x0 SHL PUSH2 0x283F JUMP JUMPDEST PUSH2 0xEBF PUSH32 0xA8376455167799A5F7783C9A2746FD868015CAADDED1496A6D3285313DD5824A PUSH1 0x0 SHL PUSH2 0x283F JUMP JUMPDEST PUSH2 0xEEB PUSH32 0x3D99DECD8DC16D966E03CB906537C21473376B91051DDF053214E985EFFB432C PUSH1 0x0 SHL PUSH2 0x283F JUMP JUMPDEST PUSH1 0x0 PUSH1 0x1 SWAP1 SLOAD SWAP1 PUSH2 0x100 EXP SWAP1 DIV PUSH20 0xFFFFFFFFFFFFFFFFFFFFFFFFFFFFFFFFFFFFFFFF AND PUSH20 0xFFFFFFFFFFFFFFFFFFFFFFFFFFFFFFFFFFFFFFFF AND CALLER PUSH20 0xFFFFFFFFFFFFFFFFFFFFFFFFFFFFFFFFFFFFFFFF AND EQ PUSH2 0xF7B JUMPI PUSH1 0x40 MLOAD PUSH32 0x8C379A000000000000000000000000000000000000000000000000000000000 DUP2 MSTORE PUSH1 0x4 ADD PUSH2 0xF72 SWAP1 PUSH2 0x40D6 JUMP JUMPDEST PUSH1 0x40 MLOAD DUP1 SWAP2 SUB SWAP1 REVERT JUMPDEST PUSH2 0xFA7 PUSH32 0x9AC8D3A927F4E73E1D754D8AB32F5E300854DA6298B98A2F43560D168359746E PUSH1 0x0 SHL PUSH2 0x283F JUMP JUMPDEST PUSH2 0xFD3 PUSH32 0x3270B14E1B2239186B3C058EC7DBC5CE62F3ADC9F41B6BA75756943BDF2656C4 PUSH1 0x0 SHL PUSH2 0x283F JUMP JUMPDEST PUSH2 0xFFF PUSH32 0xA2210F6DE7F686D7D5BA9944F7B94CCC03A216161BDCE2B50697410C562B41AA PUSH1 0x0 SHL PUSH2 0x283F JUMP JUMPDEST PUSH2 0x102B PUSH32 0xC5EC14FB9A2B00F3712CD29DE0F531C266C6FC337E4D871847053FC264AE74DE PUSH1 0x0 SHL PUSH2 0x283F JUMP JUMPDEST PUSH2 0x1057 PUSH32 0x7D6D1A41DCD407C213F1F7622D60F9D9C15F915AF936918AE8B3A9CEA7FC4CDB PUSH1 0x0 SHL PUSH2 0x283F JUMP JUMPDEST PUSH1 0x1 PUSH1 0xA PUSH1 0x1 PUSH2 0x100 EXP DUP2 SLOAD DUP2 PUSH1 0xFF MUL NOT AND SWAP1 DUP4 ISZERO ISZERO MUL OR SWAP1 SSTORE POP PUSH2 0x109E PUSH32 0x69065EE662199B8C69F2ACA7A21D4CE9B5F6D1573C891A6E722D0957F81F0225 PUSH1 0x0 SHL PUSH2 0x283F JUMP JUMPDEST PUSH2 0x10CA PUSH32 0x28788E5C9444EA19062EBB6D9DA0DC4133346E2EB9D8A9F9890B03F38C55D925 PUSH1 0x0 SHL PUSH2 0x283F JUMP JUMPDEST PUSH2 0x10D2 PUSH2 0x28EB JUMP JUMPDEST POP POP PUSH2 0x1100 PUSH32 0xC1F2F05A72013C155E8DB264C5E782CE5FB1332AF4AB0A4DBF23EC2D444B5C8D PUSH1 0x0 SHL PUSH2 0x283F JUMP JUMPDEST PUSH2 0x112C PUSH32 0x8C6601304668A6293B0B348625515C565E1FF373894DCEDF25B768FEA1A9CCF9 PUSH1 0x0 SHL PUSH2 0x283F JUMP JUMPDEST PUSH32 0x38D8EBBBB4803F034F19B4CF2F19BFB84CC5DEA177696C1F80A19357D5602E04 PUSH1 0x8 PUSH1 0x9 SLOAD PUSH1 0x40 MLOAD PUSH2 0x1160 SWAP3 SWAP2 SWAP1 PUSH2 0x41CC JUMP JUMPDEST PUSH1 0x40 MLOAD DUP1 SWAP2 SUB SWAP1 LOG1 JUMP JUMPDEST PUSH1 0x0 DUP1 PUSH1 0x0 SWAP1 SLOAD SWAP1 PUSH2 0x100 EXP SWAP1 DIV PUSH1 0xFF AND SWAP1 POP SWAP1 JUMP JUMPDEST PUSH2 0x1188 PUSH2 0x116A JUMP JUMPDEST ISZERO PUSH2 0x11C8 JUMPI PUSH1 0x40 MLOAD PUSH32 0x8C379A000000000000000000000000000000000000000000000000000000000 DUP2 MSTORE PUSH1 0x4 ADD PUSH2 0x11BF SWAP1 PUSH2 0x3FB2 JUMP JUMPDEST PUSH1 0x40 MLOAD DUP1 SWAP2 SUB SWAP1 REVERT JUMPDEST PUSH2 0x11F4 PUSH32 0xF10368458A1E8950F55708F9D928976985FD6A397515E608FBC35721F47BC111 PUSH1 0x0 SHL PUSH2 0x283F JUMP JUMPDEST PUSH2 0x1220 PUSH32 0xD7F1E7C923C834B0CD9F7AE6F2EC5DFDED676E8B0C9D801158B264F0D24A8D9A PUSH1 0x0 SHL PUSH2 0x283F JUMP JUMPDEST PUSH2 0x124C PUSH32 0xA8376455167799A5F7783C9A2746FD868015CAADDED1496A6D3285313DD5824A PUSH1 0x0 SHL PUSH2 0x283F JUMP JUMPDEST PUSH2 0x1278 PUSH32 0x3D99DECD8DC16D966E03CB906537C21473376B91051DDF053214E985EFFB432C PUSH1 0x0 SHL PUSH2 0x283F JUMP JUMPDEST PUSH1 0x0 PUSH1 0x1 SWAP1 SLOAD SWAP1 PUSH2 0x100 EXP SWAP1 DIV PUSH20 0xFFFFFFFFFFFFFFFFFFFFFFFFFFFFFFFFFFFFFFFF AND PUSH20 0xFFFFFFFFFFFFFFFFFFFFFFFFFFFFFFFFFFFFFFFF AND CALLER PUSH20 0xFFFFFFFFFFFFFFFFFFFFFFFFFFFFFFFFFFFFFFFF AND EQ PUSH2 0x1308 JUMPI PUSH1 0x40 MLOAD PUSH32 0x8C379A000000000000000000000000000000000000000000000000000000000 DUP2 MSTORE PUSH1 0x4 ADD PUSH2 0x12FF SWAP1 PUSH2 0x40D6 JUMP JUMPDEST PUSH1 0x40 MLOAD DUP1 SWAP2 SUB SWAP1 REVERT JUMPDEST PUSH2 0x1334 PUSH32 0x9AC8D3A927F4E73E1D754D8AB32F5E300854DA6298B98A2F43560D168359746E PUSH1 0x0 SHL PUSH2 0x283F JUMP JUMPDEST PUSH2 0x1360 PUSH32 0x3270B14E1B2239186B3C058EC7DBC5CE62F3ADC9F41B6BA75756943BDF2656C4 PUSH1 0x0 SHL PUSH2 0x283F JUMP JUMPDEST PUSH2 0x138C PUSH32 0x3A2FB4CA7655D1CAB0ED5945F1D042F53F1F84D2E2372D720C42DC9DF22AE1FC PUSH1 0x0 SHL PUSH2 0x283F JUMP JUMPDEST PUSH2 0x13B8 PUSH32 0xEF0CED56307A31CD3605705C54430A5EF4483EFEC947E7F8760115DCCC8371C7 PUSH1 0x0 SHL PUSH2 0x283F JUMP JUMPDEST PUSH2 0x13E4 PUSH32 0xEAE8E141B4DC5EE1EC3FA9440F45A95BE52D6EEDBB86206228965BFBB16C6EDE PUSH1 0x0 SHL PUSH2 0x283F JUMP JUMPDEST PUSH1 0x1 PUSH1 0xA PUSH1 0x0 PUSH2 0x100 EXP DUP2 SLOAD DUP2 PUSH1 0xFF MUL NOT AND SWAP1 DUP4 ISZERO ISZERO MUL OR SWAP1 SSTORE POP JUMP JUMPDEST PUSH1 0x2 DUP1 SLOAD PUSH2 0x140E SWAP1 PUSH2 0x3F34 JUMP JUMPDEST DUP1 PUSH1 0x1F ADD PUSH1 0x20 DUP1 SWAP2 DIV MUL PUSH1 0x20 ADD PUSH1 0x40 MLOAD SWAP1 DUP2 ADD PUSH1 0x40 MSTORE DUP1 SWAP3 SWAP2 SWAP1 DUP2 DUP2 MSTORE PUSH1 0x20 ADD DUP3 DUP1 SLOAD PUSH2 0x143A SWAP1 PUSH2 0x3F34 JUMP JUMPDEST DUP1 ISZERO PUSH2 0x1487 JUMPI DUP1 PUSH1 0x1F LT PUSH2 0x145C JUMPI PUSH2 0x100 DUP1 DUP4 SLOAD DIV MUL DUP4 MSTORE SWAP2 PUSH1 0x20 ADD SWAP2 PUSH2 0x1487 JUMP JUMPDEST DUP3 ADD SWAP2 SWAP1 PUSH1 0x0 MSTORE PUSH1 0x20 PUSH1 0x0 KECCAK256 SWAP1 JUMPDEST DUP2 SLOAD DUP2 MSTORE SWAP1 PUSH1 0x1 ADD SWAP1 PUSH1 0x20 ADD DUP1 DUP4 GT PUSH2 0x146A JUMPI DUP3 SWAP1 SUB PUSH1 0x1F AND DUP3 ADD SWAP2 JUMPDEST POP POP POP POP POP DUP2 JUMP JUMPDEST PUSH2 0x1497 PUSH2 0x116A JUMP JUMPDEST ISZERO PUSH2 0x14D7 JUMPI PUSH1 0x40 MLOAD PUSH32 0x8C379A000000000000000000000000000000000000000000000000000000000 DUP2 MSTORE PUSH1 0x4 ADD PUSH2 0x14CE SWAP1 PUSH2 0x3FB2 JUMP JUMPDEST PUSH1 0x40 MLOAD DUP1 SWAP2 SUB SWAP1 REVERT JUMPDEST PUSH2 0x1503 PUSH32 0xB05FC425EF53341246609DE4EB849E0EB5049A64251509C4E358ADF537A6B98B PUSH1 0x0 SHL PUSH2 0x283F JUMP JUMPDEST PUSH2 0x152F PUSH32 0x82C10BA22F146A66F8B226A850DD3314ECE4F503137B8B50D93C7DC07B98E08 PUSH1 0x0 SHL PUSH2 0x283F JUMP JUMPDEST PUSH2 0x155B PUSH32 0x60DFE5F924A445355811C299BE4E1CF7B18A8D116987905341223FFC0D2EBD6 PUSH1 0x0 SHL PUSH2 0x283F JUMP JUMPDEST PUSH2 0x1587 PUSH32 0xE97062E62347A347CE9F89CA4532670FF1EE6C014D411F2F0A2D82D3A9D32E42 PUSH1 0x0 SHL PUSH2 0x283F JUMP JUMPDEST PUSH1 0xA PUSH1 0x0 SWAP1 SLOAD SWAP1 PUSH2 0x100 EXP SWAP1 DIV PUSH1 0xFF AND ISZERO PUSH2 0x15D7 JUMPI PUSH1 0x40 MLOAD PUSH32 0x8C379A000000000000000000000000000000000000000000000000000000000 DUP2 MSTORE PUSH1 0x4 ADD PUSH2 0x15CE SWAP1 PUSH2 0x4248 JUMP JUMPDEST PUSH1 0x40 MLOAD DUP1 SWAP2 SUB SWAP1 REVERT JUMPDEST PUSH2 0x1603 PUSH32 0x579336B80875A4B5D62D2D2DBE5D2B35ECE70268C608B84D96234D695065EE0C PUSH1 0x0 SHL PUSH2 0x283F JUMP JUMPDEST PUSH2 0x162F PUSH32 0x2757F444343BCF165C7C879A1AD14E8184E216F8AE1351FEEB45777BE5478FC5 PUSH1 0x0 SHL PUSH2 0x283F JUMP JUMPDEST PUSH2 0x165B PUSH32 0x51FAB2FFD12F89504C5879306AB5485D16310D46507EAB23210CE88F0F42FEC PUSH1 0x0 SHL PUSH2 0x283F JUMP JUMPDEST PUSH2 0x1687 PUSH32 0xE0D3A8A961F2A7A18994AB8DFE35D1DF998F28B79BCDE1A79AAE5C48EE710110 PUSH1 0x0 SHL PUSH2 0x283F JUMP JUMPDEST PUSH1 0x0 DUP2 MLOAD GT PUSH2 0x16CB JUMPI PUSH1 0x40 MLOAD PUSH32 0x8C379A000000000000000000000000000000000000000000000000000000000 DUP2 MSTORE PUSH1 0x4 ADD PUSH2 0x16C2 SWAP1 PUSH2 0x42DA JUMP JUMPDEST PUSH1 0x40 MLOAD DUP1 SWAP2 SUB SWAP1 REVERT JUMPDEST PUSH2 0x16F7 PUSH32 0x5F3483E5530FC89C17F8385258C17B7B9F6FE9D8A0749B06B762E58F8959BDCA PUSH1 0x0 SHL PUSH2 0x283F JUMP JUMPDEST PUSH2 0x1723 PUSH32 0xEEE8AD60C650688B85674C06BACE49F696FD8855D7B3960BEF134C418BCEC19E PUSH1 0x0 SHL PUSH2 0x283F JUMP JUMPDEST PUSH2 0x174F PUSH32 0xE589A0492B5EFB3D69C62106C4E489736A5492EEBC34447CE9987E0789ADF0F3 PUSH1 0x0 SHL PUSH2 0x283F JUMP JUMPDEST PUSH2 0x177B PUSH32 0x3E86F88C4EFD3C7866A80F63E83788E775779C1FA9AB59E1ADF7EB67C0F9DA0C PUSH1 0x0 SHL PUSH2 0x283F JUMP JUMPDEST CALLER PUSH20 0xFFFFFFFFFFFFFFFFFFFFFFFFFFFFFFFFFFFFFFFF AND PUSH1 0x0 PUSH1 0x1 SWAP1 SLOAD SWAP1 PUSH2 0x100 EXP SWAP1 DIV PUSH20 0xFFFFFFFFFFFFFFFFFFFFFFFFFFFFFFFFFFFFFFFF AND PUSH20 0xFFFFFFFFFFFFFFFFFFFFFFFFFFFFFFFFFFFFFFFF AND EQ DUP1 PUSH2 0x1827 JUMPI POP PUSH1 0x1 ISZERO ISZERO PUSH1 0x5 PUSH1 0x0 CALLER PUSH20 0xFFFFFFFFFFFFFFFFFFFFFFFFFFFFFFFFFFFFFFFF AND PUSH20 0xFFFFFFFFFFFFFFFFFFFFFFFFFFFFFFFFFFFFFFFF AND DUP2 MSTORE PUSH1 0x20 ADD SWAP1 DUP2 MSTORE PUSH1 0x20 ADD PUSH1 0x0 KECCAK256 PUSH1 0x0 SWAP1 SLOAD SWAP1 PUSH2 0x100 EXP SWAP1 DIV PUSH1 0xFF AND ISZERO ISZERO EQ JUMPDEST PUSH2 0x1866 JUMPI PUSH1 0x40 MLOAD PUSH32 0x8C379A000000000000000000000000000000000000000000000000000000000 DUP2 MSTORE PUSH1 0x4 ADD PUSH2 0x185D SWAP1 PUSH2 0x4044 JUMP JUMPDEST PUSH1 0x40 MLOAD DUP1 SWAP2 SUB SWAP1 REVERT JUMPDEST PUSH2 0x1892 PUSH32 0x1D830ED6AB7D9F5A54AD467677B8108137D686E7931B1333E4BBD0C41D42C419 PUSH1 0x0 SHL PUSH2 0x283F JUMP JUMPDEST PUSH2 0x18BE PUSH32 0xE4DA5737DA703F921C09A16433E4C55B06A02BE029C9B6DED6E106FEDD91EA32 PUSH1 0x0 SHL PUSH2 0x283F JUMP JUMPDEST PUSH2 0x18EA PUSH32 0xCF2A3FBB94CEFA12BD738DD4217306AF8BBEDD85DB691383986C64C0DDFA588F PUSH1 0x0 SHL PUSH2 0x283F JUMP JUMPDEST DUP2 PUSH1 0x0 DUP2 MLOAD DUP2 LT PUSH2 0x18FE JUMPI PUSH2 0x18FD PUSH2 0x42FA JUMP JUMPDEST JUMPDEST PUSH1 0x20 MUL PUSH1 0x20 ADD ADD MLOAD PUSH1 0x1 SWAP1 DUP1 MLOAD SWAP1 PUSH1 0x20 ADD SWAP1 PUSH2 0x191B SWAP3 SWAP2 SWAP1 PUSH2 0x3601 JUMP JUMPDEST POP PUSH2 0x1948 PUSH32 0xAFD1F187F5D32EEB6787482FE4956CCC358D762D2BE8E9D03D16E9576FD4AB35 PUSH1 0x0 SHL PUSH2 0x283F JUMP JUMPDEST PUSH2 0x1974 PUSH32 0xA36CF51C7D8FB9B0D8B6876CFB9CD81F6C9D02C1CF2DF89E2DCA76993030F25A PUSH1 0x0 SHL PUSH2 0x283F JUMP JUMPDEST DUP2 PUSH1 0x1 DUP2 MLOAD DUP2 LT PUSH2 0x1988 JUMPI PUSH2 0x1987 PUSH2 0x42FA JUMP JUMPDEST JUMPDEST PUSH1 0x20 MUL PUSH1 0x20 ADD ADD MLOAD PUSH1 0x2 SWAP1 DUP1 MLOAD SWAP1 PUSH1 0x20 ADD SWAP1 PUSH2 0x19A5 SWAP3 SWAP2 SWAP1 PUSH2 0x3601 JUMP JUMPDEST POP PUSH2 0x19D2 PUSH32 0xC3F7E04AECB87A36C82CC72E6472AA3B1159F84DC48F254560A68C5DB9C218E2 PUSH1 0x0 SHL PUSH2 0x283F JUMP JUMPDEST PUSH2 0x19FE PUSH32 0xAF4E5DCF3CC9A94F3D629AD108977EE247C7C9FFC6153CA01C98EC895605C110 PUSH1 0x0 SHL PUSH2 0x283F JUMP JUMPDEST PUSH1 0x0 JUMPDEST DUP2 MLOAD DUP2 LT ISZERO PUSH2 0x1A98 JUMPI PUSH2 0x1A36 PUSH32 0xD11FDC5641F7CBE075C8AD980CF89883EFDF5B6F91A5A45C7114CF7F7BB5E38D PUSH1 0x0 SHL PUSH2 0x283F JUMP JUMPDEST PUSH2 0x1A62 PUSH32 0xDB606EA45577E0BE5892AB89A546C8CA9383E085900DD2E1797C80D5B30B8A55 PUSH1 0x0 SHL PUSH2 0x283F JUMP JUMPDEST PUSH2 0x1A85 DUP3 DUP3 DUP2 MLOAD DUP2 LT PUSH2 0x1A78 JUMPI PUSH2 0x1A77 PUSH2 0x42FA JUMP JUMPDEST JUMPDEST PUSH1 0x20 MUL PUSH1 0x20 ADD ADD MLOAD PUSH2 0x2DF0 JUMP JUMPDEST DUP1 DUP1 PUSH2 0x1A90 SWAP1 PUSH2 0x4358 JUMP JUMPDEST SWAP2 POP POP PUSH2 0x1A01 JUMP JUMPDEST POP POP POP JUMP JUMPDEST PUSH2 0x1AC9 PUSH32 0xF10368458A1E8950F55708F9D928976985FD6A397515E608FBC35721F47BC111 PUSH1 0x0 SHL PUSH2 0x283F JUMP JUMPDEST PUSH2 0x1AF5 PUSH32 0xD7F1E7C923C834B0CD9F7AE6F2EC5DFDED676E8B0C9D801158B264F0D24A8D9A PUSH1 0x0 SHL PUSH2 0x283F JUMP JUMPDEST PUSH2 0x1B21 PUSH32 0xA8376455167799A5F7783C9A2746FD868015CAADDED1496A6D3285313DD5824A PUSH1 0x0 SHL PUSH2 0x283F JUMP JUMPDEST PUSH2 0x1B4D PUSH32 0x3D99DECD8DC16D966E03CB906537C21473376B91051DDF053214E985EFFB432C PUSH1 0x0 SHL PUSH2 0x283F JUMP JUMPDEST PUSH1 0x0 PUSH1 0x1 SWAP1 SLOAD SWAP1 PUSH2 0x100 EXP SWAP1 DIV PUSH20 0xFFFFFFFFFFFFFFFFFFFFFFFFFFFFFFFFFFFFFFFF AND PUSH20 0xFFFFFFFFFFFFFFFFFFFFFFFFFFFFFFFFFFFFFFFF AND CALLER PUSH20 0xFFFFFFFFFFFFFFFFFFFFFFFFFFFFFFFFFFFFFFFF AND EQ PUSH2 0x1BDD JUMPI PUSH1 0x40 MLOAD PUSH32 0x8C379A000000000000000000000000000000000000000000000000000000000 DUP2 MSTORE PUSH1 0x4 ADD PUSH2 0x1BD4 SWAP1 PUSH2 0x40D6 JUMP JUMPDEST PUSH1 0x40 MLOAD DUP1 SWAP2 SUB SWAP1 REVERT JUMPDEST PUSH2 0x1C09 PUSH32 0x9AC8D3A927F4E73E1D754D8AB32F5E300854DA6298B98A2F43560D168359746E PUSH1 0x0 SHL PUSH2 0x283F JUMP JUMPDEST PUSH2 0x1C35 PUSH32 0x3270B14E1B2239186B3C058EC7DBC5CE62F3ADC9F41B6BA75756943BDF2656C4 PUSH1 0x0 SHL PUSH2 0x283F JUMP JUMPDEST PUSH2 0x1C61 PUSH32 0x72E3C4FA2BDC5C4F20B12839766A54882AFFFF3548D8307FAE762780C35C18BA PUSH1 0x0 SHL PUSH2 0x283F JUMP JUMPDEST PUSH2 0x1C8D PUSH32 0xFD14A535A0BBC1C498870DB62231018FDBEC1C97B0FB4560795F912471F88BDA PUSH1 0x0 SHL PUSH2 0x283F JUMP JUMPDEST PUSH2 0x1CB9 PUSH32 0x5E167EBE276C8633FEA3ECA617D845D29AEF3CE367DEF3B48F1DE05BD95E589E PUSH1 0x0 SHL PUSH2 0x283F JUMP JUMPDEST PUSH2 0x1CC1 PUSH2 0x2FFD JUMP JUMPDEST PUSH2 0x1CED PUSH32 0x60905A303297992B7DD411B3BC183E501C767B55F7E1D46F0003049B4959A534 PUSH1 0x0 SHL PUSH2 0x283F JUMP JUMPDEST PUSH2 0x1D19 PUSH32 0xEB11335A755F683BF2199128A7D82F797A901C99EC6FDED58E7E75A272ACCD3 PUSH1 0x0 SHL PUSH2 0x283F JUMP JUMPDEST PUSH32 0x62E78CEA01BEE320CD4E420270B5EA74000D11B0C9F74754EBDBFC544B05A258 PUSH2 0x1D42 PUSH2 0x28E3 JUMP JUMPDEST PUSH1 0x40 MLOAD PUSH2 0x1D4F SWAP2 SWAP1 PUSH2 0x3BC2 JUMP JUMPDEST PUSH1 0x40 MLOAD DUP1 SWAP2 SUB SWAP1 LOG1 JUMP JUMPDEST PUSH1 0x0 PUSH1 0x1 SWAP1 SLOAD SWAP1 PUSH2 0x100 EXP SWAP1 DIV PUSH20 0xFFFFFFFFFFFFFFFFFFFFFFFFFFFFFFFFFFFFFFFF AND DUP2 JUMP JUMPDEST PUSH1 0x0 PUSH1 0x60 PUSH2 0x1DAF PUSH32 0xEF7D2E08B9420206EDE230AFFB62D823701D506D59E50F5554CFE35AE320F2B2 PUSH1 0x0 SHL PUSH2 0x283F JUMP JUMPDEST PUSH2 0x1DDB PUSH32 0xD94E7DE7E68105B1FE45E57B563C75534277DE43C7E915601E1A359F2292F7CF PUSH1 0x0 SHL PUSH2 0x283F JUMP JUMPDEST PUSH2 0x1E07 PUSH32 0x7F7843B569C53A9AC84B94F0A731BE611650E6622F042812C0E1829C7AE65626 PUSH1 0x0 SHL PUSH2 0x283F JUMP JUMPDEST PUSH2 0x1E33 PUSH32 0x58AA9E500E4BC3A18FA1D8C8A735CE29D8BE5C1D025B9EFC4A0B28F4A69A6EED PUSH1 0x0 SHL PUSH2 0x283F JUMP JUMPDEST CALLER PUSH20 0xFFFFFFFFFFFFFFFFFFFFFFFFFFFFFFFFFFFFFFFF AND PUSH1 0x0 PUSH1 0x1 SWAP1 SLOAD SWAP1 PUSH2 0x100 EXP SWAP1 DIV PUSH20 0xFFFFFFFFFFFFFFFFFFFFFFFFFFFFFFFFFFFFFFFF AND PUSH20 0xFFFFFFFFFFFFFFFFFFFFFFFFFFFFFFFFFFFFFFFF AND EQ DUP1 PUSH2 0x1EDF JUMPI POP PUSH1 0x1 ISZERO ISZERO PUSH1 0x5 PUSH1 0x0 CALLER PUSH20 0xFFFFFFFFFFFFFFFFFFFFFFFFFFFFFFFFFFFFFFFF AND PUSH20 0xFFFFFFFFFFFFFFFFFFFFFFFFFFFFFFFFFFFFFFFF AND DUP2 MSTORE PUSH1 0x20 ADD SWAP1 DUP2 MSTORE PUSH1 0x20 ADD PUSH1 0x0 KECCAK256 PUSH1 0x0 SWAP1 SLOAD SWAP1 PUSH2 0x100 EXP SWAP1 DIV PUSH1 0xFF AND ISZERO ISZERO EQ JUMPDEST PUSH2 0x1F1E JUMPI PUSH1 0x40 MLOAD PUSH32 0x8C379A000000000000000000000000000000000000000000000000000000000 DUP2 MSTORE PUSH1 0x4 ADD PUSH2 0x1F15 SWAP1 PUSH2 0x4413 JUMP JUMPDEST PUSH1 0x40 MLOAD DUP1 SWAP2 SUB SWAP1 REVERT JUMPDEST PUSH2 0x1F4A PUSH32 0x776F85BDD4B681A276CEBC60FBCA32A5AE97A436113F7AA2FB23BA77EC10AA67 PUSH1 0x0 SHL PUSH2 0x283F JUMP JUMPDEST PUSH2 0x1F76 PUSH32 0xBD8A0F331962852D9EB2C25E7EA53C949CBB7CEA27BE5AA6A0053A1E2EDFC472 PUSH1 0x0 SHL PUSH2 0x283F JUMP JUMPDEST PUSH2 0x1FA2 PUSH32 0x713573625BBCF64802E44CFA4A93B4B2CABAE1E0C119500C608F180C9A30A88C PUSH1 0x0 SHL PUSH2 0x283F JUMP JUMPDEST PUSH1 0x9 SLOAD PUSH1 0x8 DUP1 DUP1 SLOAD DUP1 PUSH1 0x20 MUL PUSH1 0x20 ADD PUSH1 0x40 MLOAD SWAP1 DUP2 ADD PUSH1 0x40 MSTORE DUP1 SWAP3 SWAP2 SWAP1 DUP2 DUP2 MSTORE PUSH1 0x20 ADD DUP3 DUP1 SLOAD DUP1 ISZERO PUSH2 0x1FF2 JUMPI PUSH1 0x20 MUL DUP3 ADD SWAP2 SWAP1 PUSH1 0x0 MSTORE PUSH1 0x20 PUSH1 0x0 KECCAK256 SWAP1 JUMPDEST DUP2 SLOAD DUP2 MSTORE PUSH1 0x20 ADD SWAP1 PUSH1 0x1 ADD SWAP1 DUP1 DUP4 GT PUSH2 0x1FDE JUMPI JUMPDEST POP POP POP POP POP SWAP1 POP SWAP2 POP SWAP2 POP SWAP1 SWAP2 JUMP JUMPDEST PUSH1 0x6 PUSH1 0x20 MSTORE DUP1 PUSH1 0x0 MSTORE PUSH1 0x40 PUSH1 0x0 KECCAK256 PUSH1 0x0 SWAP2 POP SLOAD SWAP1 PUSH2 0x100 EXP SWAP1 DIV PUSH1 0xFF AND DUP2 JUMP JUMPDEST PUSH1 0x0 PUSH2 0x204F PUSH32 0x57641378A2B6662375CB8D9EF33684D81D2CB15B169A498BB5C654A1603A3C8D PUSH1 0x0 SHL PUSH2 0x283F JUMP JUMPDEST PUSH2 0x207B PUSH32 0xD6480DBACF21101C8FDEE5A8EA516058B615A83929F6388B33685CBB873526C4 PUSH1 0x0 SHL PUSH2 0x283F JUMP JUMPDEST PUSH2 0x20A7 PUSH32 0x9E1BB5315F94C9AA1A1CB57BF207C894244929A9D7B82C90706E828DDED61707 PUSH1 0x0 SHL PUSH2 0x283F JUMP JUMPDEST PUSH2 0x20B4 DUP4 PUSH1 0x3 SLOAD DUP5 PUSH2 0x309F JUMP JUMPDEST SWAP1 POP SWAP3 SWAP2 POP POP JUMP JUMPDEST PUSH1 0xA PUSH1 0x0 SWAP1 SLOAD SWAP1 PUSH2 0x100 EXP SWAP1 DIV PUSH1 0xFF AND DUP2 JUMP JUMPDEST PUSH2 0x20D7 PUSH2 0x116A JUMP JUMPDEST ISZERO PUSH2 0x2117 JUMPI PUSH1 0x40 MLOAD PUSH32 0x8C379A000000000000000000000000000000000000000000000000000000000 DUP2 MSTORE PUSH1 0x4 ADD PUSH2 0x210E SWAP1 PUSH2 0x3FB2 JUMP JUMPDEST PUSH1 0x40 MLOAD DUP1 SWAP2 SUB SWAP1 REVERT JUMPDEST PUSH2 0x2143 PUSH32 0xF10368458A1E8950F55708F9D928976985FD6A397515E608FBC35721F47BC111 PUSH1 0x0 SHL PUSH2 0x283F JUMP JUMPDEST PUSH2 0x216F PUSH32 0xD7F1E7C923C834B0CD9F7AE6F2EC5DFDED676E8B0C9D801158B264F0D24A8D9A PUSH1 0x0 SHL PUSH2 0x283F JUMP JUMPDEST PUSH2 0x219B PUSH32 0xA8376455167799A5F7783C9A2746FD868015CAADDED1496A6D3285313DD5824A PUSH1 0x0 SHL PUSH2 0x283F JUMP JUMPDEST PUSH2 0x21C7 PUSH32 0x3D99DECD8DC16D966E03CB906537C21473376B91051DDF053214E985EFFB432C PUSH1 0x0 SHL PUSH2 0x283F JUMP JUMPDEST PUSH1 0x0 PUSH1 0x1 SWAP1 SLOAD SWAP1 PUSH2 0x100 EXP SWAP1 DIV PUSH20 0xFFFFFFFFFFFFFFFFFFFFFFFFFFFFFFFFFFFFFFFF AND PUSH20 0xFFFFFFFFFFFFFFFFFFFFFFFFFFFFFFFFFFFFFFFF AND CALLER PUSH20 0xFFFFFFFFFFFFFFFFFFFFFFFFFFFFFFFFFFFFFFFF AND EQ PUSH2 0x2257 JUMPI PUSH1 0x40 MLOAD PUSH32 0x8C379A000000000000000000000000000000000000000000000000000000000 DUP2 MSTORE PUSH1 0x4 ADD PUSH2 0x224E SWAP1 PUSH2 0x40D6 JUMP JUMPDEST PUSH1 0x40 MLOAD DUP1 SWAP2 SUB SWAP1 REVERT JUMPDEST PUSH2 0x2283 PUSH32 0x9AC8D3A927F4E73E1D754D8AB32F5E300854DA6298B98A2F43560D168359746E PUSH1 0x0 SHL PUSH2 0x283F JUMP JUMPDEST PUSH2 0x22AF PUSH32 0x3270B14E1B2239186B3C058EC7DBC5CE62F3ADC9F41B6BA75756943BDF2656C4 PUSH1 0x0 SHL PUSH2 0x283F JUMP JUMPDEST PUSH2 0x22DB PUSH32 0xA3C63EF2C6D970EE391E725659543776B9B172CEA12BB1D3407F96000BF08092 PUSH1 0x0 SHL PUSH2 0x283F JUMP JUMPDEST PUSH2 0x2307 PUSH32 0x5B1531256F8E22CE8CB2D338E0AA7512F2D192C91151878940B2CDE31E19D14E PUSH1 0x0 SHL PUSH2 0x283F JUMP JUMPDEST PUSH2 0x2333 PUSH32 0x905397CD83C0A0C8E00EE1CDA927ACE007910BC92ABC3E3102583B275FEF7CE5 PUSH1 0x0 SHL PUSH2 0x283F JUMP JUMPDEST DUP1 PUSH1 0x0 PUSH1 0x1 PUSH2 0x100 EXP DUP2 SLOAD DUP2 PUSH20 0xFFFFFFFFFFFFFFFFFFFFFFFFFFFFFFFFFFFFFFFF MUL NOT AND SWAP1 DUP4 PUSH20 0xFFFFFFFFFFFFFFFFFFFFFFFFFFFFFFFFFFFFFFFF AND MUL OR SWAP1 SSTORE POP POP JUMP JUMPDEST PUSH1 0x3 SLOAD DUP2 JUMP JUMPDEST PUSH1 0x5 PUSH1 0x20 MSTORE DUP1 PUSH1 0x0 MSTORE PUSH1 0x40 PUSH1 0x0 KECCAK256 PUSH1 0x0 SWAP2 POP SLOAD SWAP1 PUSH2 0x100 EXP SWAP1 DIV PUSH1 0xFF AND DUP2 JUMP JUMPDEST PUSH2 0x23C9 PUSH32 0x127ED3CDC677C3B4DF3882A0324EE9814DAA9A4594D474EAD6861D701351C72D PUSH1 0x0 SHL PUSH2 0x283F JUMP JUMPDEST PUSH2 0x23F5 PUSH32 0xFF62D83E44367C49B2C52660F37EE3C4671B3A81AE1D2C892920EF566FF0E3AE PUSH1 0x0 SHL PUSH2 0x283F JUMP JUMPDEST PUSH2 0x2421 PUSH32 0xADBCCD420BD42D67D7AF9D01C4CDE18692D5DC297D85010BEC7A5E7D9709EE5E PUSH1 0x0 SHL PUSH2 0x283F JUMP JUMPDEST PUSH2 0x244D PUSH32 0x82FD32AD4F6F90946AC741C3881C887ACA20CD82A4FE5F2C46BD57F8E864719D PUSH1 0x0 SHL PUSH2 0x283F JUMP JUMPDEST PUSH1 0xA PUSH1 0x1 SWAP1 SLOAD SWAP1 PUSH2 0x100 EXP SWAP1 DIV PUSH1 0xFF AND ISZERO PUSH2 0x249D JUMPI PUSH1 0x40 MLOAD PUSH32 0x8C379A000000000000000000000000000000000000000000000000000000000 DUP2 MSTORE PUSH1 0x4 ADD PUSH2 0x2494 SWAP1 PUSH2 0x447F JUMP JUMPDEST PUSH1 0x40 MLOAD DUP1 SWAP2 SUB SWAP1 REVERT JUMPDEST PUSH2 0x24C9 PUSH32 0xAA541832E7C45B1F9CDBE5E11CBA12DB426DFAAACE61ADAD4B3B7D0E6FEEC7BD PUSH1 0x0 SHL PUSH2 0x283F JUMP JUMPDEST PUSH2 0x24F5 PUSH32 0x3CF9FA72D3CC65EB6F163983B402AD9ED5DACEABDE5E63D0443E7B91DD9FD198 PUSH1 0x0 SHL PUSH2 0x283F JUMP JUMPDEST PUSH2 0x2521 PUSH32 0xBC5E837481A62A503F356E17536AAA01DFB927083649DC13E0EF7A8C109AB0DC PUSH1 0x0 SHL PUSH2 0x283F JUMP JUMPDEST PUSH2 0x254D PUSH32 0x1A0FB6D0EB0B2CA8ECAB5DD8EE2640CA654FA3B5E4BF96CCFA3BC887D2D7CC8D PUSH1 0x0 SHL PUSH2 0x283F JUMP JUMPDEST PUSH2 0x2579 PUSH32 0x2400B544CFA17E229110AF76130E00BA3670111D0B816BDDBD49FF01CEBF9023 PUSH1 0x0 SHL PUSH2 0x283F JUMP JUMPDEST PUSH2 0x25A5 PUSH32 0x8290AF1050945CAA0784190B1BB8285E221DF0ACE2B47CB2887242956B4932EF PUSH1 0x0 SHL PUSH2 0x283F JUMP JUMPDEST PUSH1 0xA PUSH1 0x0 SWAP1 SLOAD SWAP1 PUSH2 0x100 EXP SWAP1 DIV PUSH1 0xFF AND PUSH2 0x25F4 JUMPI PUSH1 0x40 MLOAD PUSH32 0x8C379A000000000000000000000000000000000000000000000000000000000 DUP2 MSTORE PUSH1 0x4 ADD PUSH2 0x25EB SWAP1 PUSH2 0x4511 JUMP JUMPDEST PUSH1 0x40 MLOAD DUP1 SWAP2 SUB SWAP1 REVERT JUMPDEST PUSH2 0x2620 PUSH32 0x9105DA7C679F65E4EB53AF1D078C4A53E6B92A94779EDAF83D18B8DBC8A98B5F PUSH1 0x0 SHL PUSH2 0x283F JUMP JUMPDEST PUSH2 0x264C PUSH32 0xA4F8EBFA0BCF3C4B117D74552E050FE22086D78C0FDB2C01888B4B4D331127B2 PUSH1 0x0 SHL PUSH2 0x283F JUMP JUMPDEST PUSH2 0x2678 PUSH32 0xC148C3416430E495184AA7E5F85FAC527C54A366326F87B46B0C9A7AAC021B42 PUSH1 0x0 SHL PUSH2 0x283F JUMP JUMPDEST PUSH2 0x26A4 PUSH32 0x9ACE2E23F110F2C2476B0D524036C4BF1EC765E5C3CB793462562F5B4E2B86AC PUSH1 0x0 SHL PUSH2 0x283F JUMP JUMPDEST PUSH2 0x26D0 PUSH32 0x975C750226379D8E306B1CB38D23CF769884AD24D4A9239B8420E07289B8430 PUSH1 0x0 SHL PUSH2 0x283F JUMP JUMPDEST PUSH2 0x26FC PUSH32 0x57F5A17DD93D2F433B98D7291CCAB2EA3B364F7F2DF5A0396E632FB0A7FCA960 PUSH1 0x0 SHL PUSH2 0x283F JUMP JUMPDEST PUSH2 0x276D DUP3 DUP3 DUP1 DUP1 PUSH1 0x20 MUL PUSH1 0x20 ADD PUSH1 0x40 MLOAD SWAP1 DUP2 ADD PUSH1 0x40 MSTORE DUP1 SWAP4 SWAP3 SWAP2 SWAP1 DUP2 DUP2 MSTORE PUSH1 0x20 ADD DUP4 DUP4 PUSH1 0x20 MUL DUP1 DUP3 DUP5 CALLDATACOPY PUSH1 0x0 DUP2 DUP5 ADD MSTORE PUSH1 0x1F NOT PUSH1 0x1F DUP3 ADD AND SWAP1 POP DUP1 DUP4 ADD SWAP3 POP POP POP POP POP POP POP CALLER PUSH1 0x40 MLOAD PUSH1 0x20 ADD PUSH2 0x2752 SWAP2 SWAP1 PUSH2 0x4579 JUMP JUMPDEST PUSH1 0x40 MLOAD PUSH1 0x20 DUP2 DUP4 SUB SUB DUP2 MSTORE SWAP1 PUSH1 0x40 MSTORE DUP1 MLOAD SWAP1 PUSH1 0x20 ADD KECCAK256 PUSH2 0x2021 JUMP JUMPDEST PUSH2 0x27AC JUMPI PUSH1 0x40 MLOAD PUSH32 0x8C379A000000000000000000000000000000000000000000000000000000000 DUP2 MSTORE PUSH1 0x4 ADD PUSH2 0x27A3 SWAP1 PUSH2 0x4606 JUMP JUMPDEST PUSH1 0x40 MLOAD DUP1 SWAP2 SUB SWAP1 REVERT JUMPDEST PUSH2 0x27D8 PUSH32 0xE830C0EE140FBBBC436032DC4CE74BD2D88F47070D3B8087F3B8B7C31C8538A8 PUSH1 0x0 SHL PUSH2 0x283F JUMP JUMPDEST PUSH2 0x2804 PUSH32 0x2E81CCA64CA6D6AB4CA06C40AF7E18AE6E9CD6A37361C0931AFAA89EFA285054 PUSH1 0x0 SHL PUSH2 0x283F JUMP JUMPDEST PUSH2 0x2830 PUSH32 0x2E36C2AEDF7468FBAABA247F8CAFDADFBB4C967F336C17FDAB6EC386129C178C PUSH1 0x0 SHL PUSH2 0x283F JUMP JUMPDEST PUSH2 0x283A DUP4 CALLER PUSH2 0x30B6 JUMP JUMPDEST POP POP POP JUMP JUMPDEST POP JUMP JUMPDEST PUSH2 0x284A PUSH2 0x116A JUMP JUMPDEST PUSH2 0x2889 JUMPI PUSH1 0x40 MLOAD PUSH32 0x8C379A000000000000000000000000000000000000000000000000000000000 DUP2 MSTORE PUSH1 0x4 ADD PUSH2 0x2880 SWAP1 PUSH2 0x4672 JUMP JUMPDEST PUSH1 0x40 MLOAD DUP1 SWAP2 SUB SWAP1 REVERT JUMPDEST PUSH1 0x0 DUP1 PUSH1 0x0 PUSH2 0x100 EXP DUP2 SLOAD DUP2 PUSH1 0xFF MUL NOT AND SWAP1 DUP4 ISZERO ISZERO MUL OR SWAP1 SSTORE POP PUSH32 0x5DB9EE0A495BF2E6FF9C91A7834C1BA4FDD244A5E8AA4E537BD38AEAE4B073AA PUSH2 0x28CC PUSH2 0x28E3 JUMP JUMPDEST PUSH1 0x40 MLOAD PUSH2 0x28D9 SWAP2 SWAP1 PUSH2 0x3BC2 JUMP JUMPDEST PUSH1 0x40 MLOAD DUP1 SWAP2 SUB SWAP1 LOG1 JUMP JUMPDEST PUSH1 0x0 CALLER SWAP1 POP SWAP1 JUMP JUMPDEST PUSH1 0x0 PUSH1 0x60 PUSH2 0x28F7 PUSH2 0x116A JUMP JUMPDEST ISZERO PUSH2 0x2937 JUMPI PUSH1 0x40 MLOAD PUSH32 0x8C379A000000000000000000000000000000000000000000000000000000000 DUP2 MSTORE PUSH1 0x4 ADD PUSH2 0x292E SWAP1 PUSH2 0x3FB2 JUMP JUMPDEST PUSH1 0x40 MLOAD DUP1 SWAP2 SUB SWAP1 REVERT JUMPDEST PUSH2 0x2963 PUSH32 0xD98EBBE4B94B741DD89FC3D55F9FD5F649A1381CB210FC61E630B5DDD4CC9EF6 PUSH1 0x0 SHL PUSH2 0x283F JUMP JUMPDEST PUSH2 0x298F PUSH32 0xB1C3ADEB85F5CD21080C972F9274F803BE2914D6155B591068DC3EA262D74E17 PUSH1 0x0 SHL PUSH2 0x283F JUMP JUMPDEST PUSH2 0x29BB PUSH32 0x88A62DA9D27120E2C377696D7495B0A577FE8C58CA19858FDD08BDE5A28E5CE3 PUSH1 0x0 SHL PUSH2 0x283F JUMP JUMPDEST PUSH1 0x0 JUMPDEST PUSH1 0x4 SLOAD DUP2 LT ISZERO PUSH2 0x2D38 JUMPI PUSH2 0x29F4 PUSH32 0x2BF93793BB9377CE8F34EE07E3CA2B9E69C11F6F087710032B8A5FF463DF9B10 PUSH1 0x0 SHL PUSH2 0x283F JUMP JUMPDEST PUSH2 0x2A20 PUSH32 0x85099047F48D4F172EA26128C5AD3BACB7C038D1BDCC4A4DA06973EDB42E31A0 PUSH1 0x0 SHL PUSH2 0x283F JUMP JUMPDEST PUSH1 0x9 SLOAD PUSH1 0x7 PUSH1 0x0 DUP4 DUP2 MSTORE PUSH1 0x20 ADD SWAP1 DUP2 MSTORE PUSH1 0x20 ADD PUSH1 0x0 KECCAK256 PUSH1 0x2 ADD SLOAD GT ISZERO PUSH2 0x2BB7 JUMPI PUSH2 0x2A6C PUSH32 0xBDC313912BE04859411B4DAA50C3BE9B4AB6CC059511441EDBD0C2A852A20998 PUSH1 0x0 SHL PUSH2 0x283F JUMP JUMPDEST PUSH2 0x2A98 PUSH32 0x4A6DBB52F1D19F49F1521498189D17E67B23D4A5E656D8AD33F5D108D0D0B5DC PUSH1 0x0 SHL PUSH2 0x283F JUMP JUMPDEST PUSH2 0x2AC4 PUSH32 0xD8F11A683391E8EF9AACF21D1E8099E1DA819896A80A34CCB5905C0A4372FB3C PUSH1 0x0 SHL PUSH2 0x283F JUMP JUMPDEST PUSH1 0x7 PUSH1 0x0 DUP3 DUP2 MSTORE PUSH1 0x20 ADD SWAP1 DUP2 MSTORE PUSH1 0x20 ADD PUSH1 0x0 KECCAK256 PUSH1 0x2 ADD SLOAD PUSH1 0x9 DUP2 SWAP1 SSTORE POP PUSH2 0x2B0D PUSH32 0xD926A409DFA6BE33C9D7857B8AB42C29AFE397106D83743A75F2EFE639FF5F8A PUSH1 0x0 SHL PUSH2 0x283F JUMP JUMPDEST PUSH1 0x8 PUSH1 0x0 PUSH2 0x2B1B SWAP2 SWAP1 PUSH2 0x3687 JUMP JUMPDEST PUSH2 0x2B47 PUSH32 0x1DBE1F6F3814D6E9D4B0EBAD11BE147EFAA5893065B90E1BB04F3A24B25B1E8 PUSH1 0x0 SHL PUSH2 0x283F JUMP JUMPDEST PUSH2 0x2B73 PUSH32 0xBA6157D61E9B30815382D7948370B0966B0CC4967FC9DEED9D3635B87FECD52F PUSH1 0x0 SHL PUSH2 0x283F JUMP JUMPDEST PUSH1 0x8 PUSH1 0x7 PUSH1 0x0 DUP4 DUP2 MSTORE PUSH1 0x20 ADD SWAP1 DUP2 MSTORE PUSH1 0x20 ADD PUSH1 0x0 KECCAK256 PUSH1 0x0 ADD SLOAD SWAP1 DUP1 PUSH1 0x1 DUP2 SLOAD ADD DUP1 DUP3 SSTORE DUP1 SWAP2 POP POP PUSH1 0x1 SWAP1 SUB SWAP1 PUSH1 0x0 MSTORE PUSH1 0x20 PUSH1 0x0 KECCAK256 ADD PUSH1 0x0 SWAP1 SWAP2 SWAP1 SWAP2 SWAP1 SWAP2 POP SSTORE PUSH2 0x2D25 JUMP JUMPDEST PUSH2 0x2BE3 PUSH32 0xEAB754ABFB2F39F44972655F49AC7D406C54C2B073ADEA87B2005D6ED6B8D493 PUSH1 0x0 SHL PUSH2 0x283F JUMP JUMPDEST PUSH2 0x2C0F PUSH32 0xF0DEC143076CF2A25AE8F6440799B3E1275EA4EF27E2B86DF0E72346324524A PUSH1 0x0 SHL PUSH2 0x283F JUMP JUMPDEST PUSH1 0x9 SLOAD PUSH1 0x7 PUSH1 0x0 DUP4 DUP2 MSTORE PUSH1 0x20 ADD SWAP1 DUP2 MSTORE PUSH1 0x20 ADD PUSH1 0x0 KECCAK256 PUSH1 0x2 ADD SLOAD EQ ISZERO PUSH2 0x2CF7 JUMPI PUSH2 0x2C5B PUSH32 0x99795938260BE343F6B98336250FFC513D0ECDCD5BA5287E7D452A259281B26A PUSH1 0x0 SHL PUSH2 0x283F JUMP JUMPDEST PUSH2 0x2C87 PUSH32 0x52ABA296B1A285AAB90EEF2FE69F0451778E98C9C581F34B245383B39569AC74 PUSH1 0x0 SHL PUSH2 0x283F JUMP JUMPDEST PUSH2 0x2CB3 PUSH32 0x4570D64E780B4EA8BBB8E1EA79E858B76C20D9E9127CD9E72BCEF9E52239DD5C PUSH1 0x0 SHL PUSH2 0x283F JUMP JUMPDEST PUSH1 0x8 PUSH1 0x7 PUSH1 0x0 DUP4 DUP2 MSTORE PUSH1 0x20 ADD SWAP1 DUP2 MSTORE PUSH1 0x20 ADD PUSH1 0x0 KECCAK256 PUSH1 0x0 ADD SLOAD SWAP1 DUP1 PUSH1 0x1 DUP2 SLOAD ADD DUP1 DUP3 SSTORE DUP1 SWAP2 POP POP PUSH1 0x1 SWAP1 SUB SWAP1 PUSH1 0x0 MSTORE PUSH1 0x20 PUSH1 0x0 KECCAK256 ADD PUSH1 0x0 SWAP1 SWAP2 SWAP1 SWAP2 SWAP1 SWAP2 POP SSTORE PUSH2 0x2D24 JUMP JUMPDEST PUSH2 0x2D23 PUSH32 0x30E3056520E963C3F5C3B9718CA2FF788E709BA541C65A95CDBA4CBDC320746A PUSH1 0x0 SHL PUSH2 0x283F JUMP JUMPDEST JUMPDEST JUMPDEST DUP1 DUP1 PUSH2 0x2D30 SWAP1 PUSH2 0x4358 JUMP JUMPDEST SWAP2 POP POP PUSH2 0x29BE JUMP JUMPDEST POP PUSH2 0x2D65 PUSH32 0xF9EADDFBAA1537DA6BFAB2D79592A29626D651C934FCD102423E672A6249A7D8 PUSH1 0x0 SHL PUSH2 0x283F JUMP JUMPDEST PUSH2 0x2D91 PUSH32 0xCED0160ED6DC24B2A6249C3BD27D8603F06350FAA8AE4F285C79BC9834189C16 PUSH1 0x0 SHL PUSH2 0x283F JUMP JUMPDEST PUSH1 0x9 SLOAD PUSH1 0x8 DUP1 DUP1 SLOAD DUP1 PUSH1 0x20 MUL PUSH1 0x20 ADD PUSH1 0x40 MLOAD SWAP1 DUP2 ADD PUSH1 0x40 MSTORE DUP1 SWAP3 SWAP2 SWAP1 DUP2 DUP2 MSTORE PUSH1 0x20 ADD DUP3 DUP1 SLOAD DUP1 ISZERO PUSH2 0x2DE1 JUMPI PUSH1 0x20 MUL DUP3 ADD SWAP2 SWAP1 PUSH1 0x0 MSTORE PUSH1 0x20 PUSH1 0x0 KECCAK256 SWAP1 JUMPDEST DUP2 SLOAD DUP2 MSTORE PUSH1 0x20 ADD SWAP1 PUSH1 0x1 ADD SWAP1 DUP1 DUP4 GT PUSH2 0x2DCD JUMPI JUMPDEST POP POP POP POP POP SWAP1 POP SWAP2 POP SWAP2 POP SWAP1 SWAP2 JUMP JUMPDEST PUSH2 0x2DF8 PUSH2 0x116A JUMP JUMPDEST ISZERO PUSH2 0x2E38 JUMPI PUSH1 0x40 MLOAD PUSH32 0x8C379A000000000000000000000000000000000000000000000000000000000 DUP2 MSTORE PUSH1 0x4 ADD PUSH2 0x2E2F SWAP1 PUSH2 0x3FB2 JUMP JUMPDEST PUSH1 0x40 MLOAD DUP1 SWAP2 SUB SWAP1 REVERT JUMPDEST PUSH2 0x2E64 PUSH32 0x509FE1E5E99DC4BB822904E8A3BA520C697B5B577A3996B613BBA21E9086DEC PUSH1 0x0 SHL PUSH2 0x283F JUMP JUMPDEST PUSH2 0x2E90 PUSH32 0xD94888D3EAC30E7F71353ED0A8B5ED617DAED4DB88671ECC856A6AC4E2243736 PUSH1 0x0 SHL PUSH2 0x283F JUMP JUMPDEST PUSH2 0x2EBC PUSH32 0x685D0E0940FD8C835E83374FF61D4860975E1347889196BA1810F215BA24787A PUSH1 0x0 SHL PUSH2 0x283F JUMP JUMPDEST PUSH1 0x40 MLOAD DUP1 PUSH1 0x60 ADD PUSH1 0x40 MSTORE DUP1 PUSH1 0x4 SLOAD DUP2 MSTORE PUSH1 0x20 ADD DUP3 DUP2 MSTORE PUSH1 0x20 ADD PUSH1 0x0 DUP2 MSTORE POP PUSH1 0x7 PUSH1 0x0 PUSH1 0x4 SLOAD DUP2 MSTORE PUSH1 0x20 ADD SWAP1 DUP2 MSTORE PUSH1 0x20 ADD PUSH1 0x0 KECCAK256 PUSH1 0x0 DUP3 ADD MLOAD DUP2 PUSH1 0x0 ADD SSTORE PUSH1 0x20 DUP3 ADD MLOAD DUP2 PUSH1 0x1 ADD SWAP1 DUP1 MLOAD SWAP1 PUSH1 0x20 ADD SWAP1 PUSH2 0x2F15 SWAP3 SWAP2 SWAP1 PUSH2 0x3601 JUMP JUMPDEST POP PUSH1 0x40 DUP3 ADD MLOAD DUP2 PUSH1 0x2 ADD SSTORE SWAP1 POP POP PUSH2 0x2F4F PUSH32 0x539CD77F75F8C4CDB8C091587E43BF9D68186B77E32DAC34808D3848DFDCDD24 PUSH1 0x0 SHL PUSH2 0x283F JUMP JUMPDEST PUSH2 0x2F7B PUSH32 0x6D87C34AB0BD0D1542D369171BCA0DA7DD1D8D5E88F135043CCCD09D51E8DD1E PUSH1 0x0 SHL PUSH2 0x283F JUMP JUMPDEST PUSH32 0x78D27A3C512303F604B46BC28ACC0CA45ABE6420172A017C5A6DC585821EB639 PUSH1 0x4 SLOAD DUP3 PUSH1 0x40 MLOAD PUSH2 0x2FAE SWAP3 SWAP2 SWAP1 PUSH2 0x4692 JUMP JUMPDEST PUSH1 0x40 MLOAD DUP1 SWAP2 SUB SWAP1 LOG1 PUSH2 0x2FE2 PUSH32 0x9B37F1587C2A9DBB24DFDD910CDBFB93E64DAD566CCF437A0F2B2FAD3C11C0AE PUSH1 0x0 SHL PUSH2 0x283F JUMP JUMPDEST PUSH1 0x4 PUSH1 0x0 DUP2 SLOAD DUP1 SWAP3 SWAP2 SWAP1 PUSH2 0x2FF5 SWAP1 PUSH2 0x4358 JUMP JUMPDEST SWAP2 SWAP1 POP SSTORE POP POP JUMP JUMPDEST PUSH2 0x3005 PUSH2 0x116A JUMP JUMPDEST ISZERO PUSH2 0x3045 JUMPI PUSH1 0x40 MLOAD PUSH32 0x8C379A000000000000000000000000000000000000000000000000000000000 DUP2 MSTORE PUSH1 0x4 ADD PUSH2 0x303C SWAP1 PUSH2 0x3FB2 JUMP JUMPDEST PUSH1 0x40 MLOAD DUP1 SWAP2 SUB SWAP1 REVERT JUMPDEST PUSH1 0x1 PUSH1 0x0 DUP1 PUSH2 0x100 EXP DUP2 SLOAD DUP2 PUSH1 0xFF MUL NOT AND SWAP1 DUP4 ISZERO ISZERO MUL OR SWAP1 SSTORE POP PUSH32 0x62E78CEA01BEE320CD4E420270B5EA74000D11B0C9F74754EBDBFC544B05A258 PUSH2 0x3088 PUSH2 0x28E3 JUMP JUMPDEST PUSH1 0x40 MLOAD PUSH2 0x3095 SWAP2 SWAP1 PUSH2 0x3BC2 JUMP JUMPDEST PUSH1 0x40 MLOAD DUP1 SWAP2 SUB SWAP1 LOG1 JUMP JUMPDEST PUSH1 0x0 DUP3 PUSH2 0x30AC DUP6 DUP5 PUSH2 0x3575 JUMP JUMPDEST EQ SWAP1 POP SWAP4 SWAP3 POP POP POP JUMP JUMPDEST PUSH2 0x30BE PUSH2 0x116A JUMP JUMPDEST ISZERO PUSH2 0x30FE JUMPI PUSH1 0x40 MLOAD PUSH32 0x8C379A000000000000000000000000000000000000000000000000000000000 DUP2 MSTORE PUSH1 0x4 ADD PUSH2 0x30F5 SWAP1 PUSH2 0x3FB2 JUMP JUMPDEST PUSH1 0x40 MLOAD DUP1 SWAP2 SUB SWAP1 REVERT JUMPDEST DUP2 PUSH2 0x312B PUSH32 0x5BAA34F426A5FD854AC12C565C454F0E035337ED797FB65C8FB0F3CE6AD3DD10 PUSH1 0x0 SHL PUSH2 0x283F JUMP JUMPDEST PUSH2 0x3157 PUSH32 0x729A02E7EA63B14B17257A38E48BF5FB2306E6E6621B1F9AB95EB759DC671C39 PUSH1 0x0 SHL PUSH2 0x283F JUMP JUMPDEST PUSH2 0x3183 PUSH32 0x557C7F34D0C37C90D6309150A53BF4C53149E61CE0BB3745CCC153256F49816E PUSH1 0x0 SHL PUSH2 0x283F JUMP JUMPDEST PUSH2 0x31AF PUSH32 0xE5DF44EBAE7E990BA0B6516E80F2AA0E040A792D68447286FAFFC5ED917BFA83 PUSH1 0x0 SHL PUSH2 0x283F JUMP JUMPDEST PUSH1 0x4 SLOAD DUP2 LT DUP1 ISZERO PUSH2 0x31C1 JUMPI POP PUSH1 0x0 DUP2 LT ISZERO JUMPDEST PUSH2 0x3200 JUMPI PUSH1 0x40 MLOAD PUSH32 0x8C379A000000000000000000000000000000000000000000000000000000000 DUP2 MSTORE PUSH1 0x4 ADD PUSH2 0x31F7 SWAP1 PUSH2 0x470E JUMP JUMPDEST PUSH1 0x40 MLOAD DUP1 SWAP2 SUB SWAP1 REVERT JUMPDEST PUSH2 0x322C PUSH32 0x4414778BBD28A836711F117E56EA632A9642B313567A0FF15732FAC39543323 PUSH1 0x0 SHL PUSH2 0x283F JUMP JUMPDEST PUSH2 0x3258 PUSH32 0x37147B97543546B5E9A32B0214D5E37212C75CAA0931495C465D59AC04BD2B07 PUSH1 0x0 SHL PUSH2 0x283F JUMP JUMPDEST PUSH2 0x3284 PUSH32 0x7761183DADB26D3EF391749C2C80E03B9AC2BE392547AA76ADC8C973395783F5 PUSH1 0x0 SHL PUSH2 0x283F JUMP JUMPDEST PUSH2 0x32B0 PUSH32 0xE65B0F9FC8E8A705BFECF14204FE594EE1686129C5019F49980D8EF547089C1E PUSH1 0x0 SHL PUSH2 0x283F JUMP JUMPDEST PUSH2 0x32DC PUSH32 0xDEB881A30EB04EC04E14262C1122EDBD0158C7BEE73573217E13DF7A6C8422CC PUSH1 0x0 SHL PUSH2 0x283F JUMP JUMPDEST PUSH2 0x3308 PUSH32 0x491C80533D310D9B8E0CCA82BC4B553A2A50537315C435D6E3E33E71D4A9780C PUSH1 0x0 SHL PUSH2 0x283F JUMP JUMPDEST PUSH1 0x6 PUSH1 0x0 DUP4 PUSH20 0xFFFFFFFFFFFFFFFFFFFFFFFFFFFFFFFFFFFFFFFF AND PUSH20 0xFFFFFFFFFFFFFFFFFFFFFFFFFFFFFFFFFFFFFFFF AND DUP2 MSTORE PUSH1 0x20 ADD SWAP1 DUP2 MSTORE PUSH1 0x20 ADD PUSH1 0x0 KECCAK256 PUSH1 0x0 SWAP1 SLOAD SWAP1 PUSH2 0x100 EXP SWAP1 DIV PUSH1 0xFF AND ISZERO PUSH2 0x3395 JUMPI PUSH1 0x40 MLOAD PUSH32 0x8C379A000000000000000000000000000000000000000000000000000000000 DUP2 MSTORE PUSH1 0x4 ADD PUSH2 0x338C SWAP1 PUSH2 0x477A JUMP JUMPDEST PUSH1 0x40 MLOAD DUP1 SWAP2 SUB SWAP1 REVERT JUMPDEST PUSH2 0x33C1 PUSH32 0x31968501416019C5B26D222909D8A7802849F3AA8C787D56CFA0AE4EE85CCA8D PUSH1 0x0 SHL PUSH2 0x283F JUMP JUMPDEST PUSH2 0x33ED PUSH32 0xB1B7B6FB493B998DA88C06C370B77CFC1F647DCB1C8BABA832BA8BC53E89453B PUSH1 0x0 SHL PUSH2 0x283F JUMP JUMPDEST PUSH2 0x3419 PUSH32 0xD73BF06C14EC09D5FABFC335B622383807409F0ABD5E132C2CFFAB9DE0477F2D PUSH1 0x0 SHL PUSH2 0x283F JUMP JUMPDEST PUSH1 0x1 PUSH1 0x6 PUSH1 0x0 DUP5 PUSH20 0xFFFFFFFFFFFFFFFFFFFFFFFFFFFFFFFFFFFFFFFF AND PUSH20 0xFFFFFFFFFFFFFFFFFFFFFFFFFFFFFFFFFFFFFFFF AND DUP2 MSTORE PUSH1 0x20 ADD SWAP1 DUP2 MSTORE PUSH1 0x20 ADD PUSH1 0x0 KECCAK256 PUSH1 0x0 PUSH2 0x100 EXP DUP2 SLOAD DUP2 PUSH1 0xFF MUL NOT AND SWAP1 DUP4 ISZERO ISZERO MUL OR SWAP1 SSTORE POP PUSH2 0x349D PUSH32 0x5906960EE68A3E0166CEBBAA0047C9D1C311D754684131AACB69915DD4269560 PUSH1 0x0 SHL PUSH2 0x283F JUMP JUMPDEST PUSH1 0x7 PUSH1 0x0 DUP5 DUP2 MSTORE PUSH1 0x20 ADD SWAP1 DUP2 MSTORE PUSH1 0x20 ADD PUSH1 0x0 KECCAK256 PUSH1 0x2 ADD PUSH1 0x0 DUP2 SLOAD DUP1 SWAP3 SWAP2 SWAP1 PUSH2 0x34C4 SWAP1 PUSH2 0x4358 JUMP JUMPDEST SWAP2 SWAP1 POP SSTORE POP PUSH2 0x34F5 PUSH32 0xD988C72D90B9BA41322A652DF8AF204A52F491DF9C4C83DA1DAB3B07422D6622 PUSH1 0x0 SHL PUSH2 0x283F JUMP JUMPDEST PUSH2 0x3521 PUSH32 0x7909C796FECFAFA9449736B1930EFDDC3D54278E3237CD955C5DF949F6FC3497 PUSH1 0x0 SHL PUSH2 0x283F JUMP JUMPDEST PUSH32 0xD3EBD88818D034D26C5D98BCEF9C7C45207130238E76E8CF0B3BA00E906851BF DUP4 PUSH1 0x7 PUSH1 0x0 DUP7 DUP2 MSTORE PUSH1 0x20 ADD SWAP1 DUP2 MSTORE PUSH1 0x20 ADD PUSH1 0x0 KECCAK256 PUSH1 0x2 ADD SLOAD PUSH1 0x40 MLOAD PUSH2 0x3568 SWAP3 SWAP2 SWAP1 PUSH2 0x479A JUMP JUMPDEST PUSH1 0x40 MLOAD DUP1 SWAP2 SUB SWAP1 LOG1 POP POP POP JUMP JUMPDEST PUSH1 0x0 DUP1 DUP3 SWAP1 POP PUSH1 0x0 JUMPDEST DUP5 MLOAD DUP2 LT ISZERO PUSH2 0x35DF JUMPI PUSH1 0x0 DUP6 DUP3 DUP2 MLOAD DUP2 LT PUSH2 0x359C JUMPI PUSH2 0x359B PUSH2 0x42FA JUMP JUMPDEST JUMPDEST PUSH1 0x20 MUL PUSH1 0x20 ADD ADD MLOAD SWAP1 POP DUP1 DUP4 GT PUSH2 0x35BE JUMPI PUSH2 0x35B7 DUP4 DUP3 PUSH2 0x35EA JUMP JUMPDEST SWAP3 POP PUSH2 0x35CB JUMP JUMPDEST PUSH2 0x35C8 DUP2 DUP5 PUSH2 0x35EA JUMP JUMPDEST SWAP3 POP JUMPDEST POP DUP1 DUP1 PUSH2 0x35D7 SWAP1 PUSH2 0x4358 JUMP JUMPDEST SWAP2 POP POP PUSH2 0x357E JUMP JUMPDEST POP DUP1 SWAP2 POP POP SWAP3 SWAP2 POP POP JUMP JUMPDEST PUSH1 0x0 DUP3 PUSH1 0x0 MSTORE DUP2 PUSH1 0x20 MSTORE PUSH1 0x40 PUSH1 0x0 KECCAK256 SWAP1 POP SWAP3 SWAP2 POP POP JUMP JUMPDEST DUP3 DUP1 SLOAD PUSH2 0x360D SWAP1 PUSH2 0x3F34 JUMP JUMPDEST SWAP1 PUSH1 0x0 MSTORE PUSH1 0x20 PUSH1 0x0 KECCAK256 SWAP1 PUSH1 0x1F ADD PUSH1 0x20 SWAP1 DIV DUP2 ADD SWAP3 DUP3 PUSH2 0x362F JUMPI PUSH1 0x0 DUP6 SSTORE PUSH2 0x3676 JUMP JUMPDEST DUP3 PUSH1 0x1F LT PUSH2 0x3648 JUMPI DUP1 MLOAD PUSH1 0xFF NOT AND DUP4 DUP1 ADD OR DUP6 SSTORE PUSH2 0x3676 JUMP JUMPDEST DUP3 DUP1 ADD PUSH1 0x1 ADD DUP6 SSTORE DUP3 ISZERO PUSH2 0x3676 JUMPI SWAP2 DUP3 ADD JUMPDEST DUP3 DUP2 GT ISZERO PUSH2 0x3675 JUMPI DUP3 MLOAD DUP3 SSTORE SWAP2 PUSH1 0x20 ADD SWAP2 SWAP1 PUSH1 0x1 ADD SWAP1 PUSH2 0x365A JUMP JUMPDEST JUMPDEST POP SWAP1 POP PUSH2 0x3683 SWAP2 SWAP1 PUSH2 0x36A8 JUMP JUMPDEST POP SWAP1 JUMP JUMPDEST POP DUP1 SLOAD PUSH1 0x0 DUP3 SSTORE SWAP1 PUSH1 0x0 MSTORE PUSH1 0x20 PUSH1 0x0 KECCAK256 SWAP1 DUP2 ADD SWAP1 PUSH2 0x36A5 SWAP2 SWAP1 PUSH2 0x36A8 JUMP JUMPDEST POP JUMP JUMPDEST JUMPDEST DUP1 DUP3 GT ISZERO PUSH2 0x36C1 JUMPI PUSH1 0x0 DUP2 PUSH1 0x0 SWAP1 SSTORE POP PUSH1 0x1 ADD PUSH2 0x36A9 JUMP JUMPDEST POP SWAP1 JUMP JUMPDEST PUSH1 0x0 DUP2 MLOAD SWAP1 POP SWAP2 SWAP1 POP JUMP JUMPDEST PUSH1 0x0 DUP3 DUP3 MSTORE PUSH1 0x20 DUP3 ADD SWAP1 POP SWAP3 SWAP2 POP POP JUMP JUMPDEST PUSH1 0x0 JUMPDEST DUP4 DUP2 LT ISZERO PUSH2 0x36FF JUMPI DUP1 DUP3 ADD MLOAD DUP2 DUP5 ADD MSTORE PUSH1 0x20 DUP2 ADD SWAP1 POP PUSH2 0x36E4 JUMP JUMPDEST DUP4 DUP2 GT ISZERO PUSH2 0x370E JUMPI PUSH1 0x0 DUP5 DUP5 ADD MSTORE JUMPDEST POP POP POP POP JUMP JUMPDEST PUSH1 0x0 PUSH1 0x1F NOT PUSH1 0x1F DUP4 ADD AND SWAP1 POP SWAP2 SWAP1 POP JUMP JUMPDEST PUSH1 0x0 PUSH2 0x3730 DUP3 PUSH2 0x36C5 JUMP JUMPDEST PUSH2 0x373A DUP2 DUP6 PUSH2 0x36D0 JUMP JUMPDEST SWAP4 POP PUSH2 0x374A DUP2 DUP6 PUSH1 0x20 DUP7 ADD PUSH2 0x36E1 JUMP JUMPDEST PUSH2 0x3753 DUP2 PUSH2 0x3714 JUMP JUMPDEST DUP5 ADD SWAP2 POP POP SWAP3 SWAP2 POP POP JUMP JUMPDEST PUSH1 0x0 PUSH1 0x20 DUP3 ADD SWAP1 POP DUP2 DUP2 SUB PUSH1 0x0 DUP4 ADD MSTORE PUSH2 0x3778 DUP2 DUP5 PUSH2 0x3725 JUMP JUMPDEST SWAP1 POP SWAP3 SWAP2 POP POP JUMP JUMPDEST PUSH1 0x0 DUP2 SWAP1 POP SWAP2 SWAP1 POP JUMP JUMPDEST PUSH2 0x3793 DUP2 PUSH2 0x3780 JUMP JUMPDEST DUP3 MSTORE POP POP JUMP JUMPDEST PUSH1 0x0 PUSH1 0x20 DUP3 ADD SWAP1 POP PUSH2 0x37AE PUSH1 0x0 DUP4 ADD DUP5 PUSH2 0x378A JUMP JUMPDEST SWAP3 SWAP2 POP POP JUMP JUMPDEST PUSH1 0x0 PUSH1 0x40 MLOAD SWAP1 POP SWAP1 JUMP JUMPDEST PUSH1 0x0 DUP1 REVERT JUMPDEST PUSH1 0x0 DUP1 REVERT JUMPDEST PUSH2 0x37D1 DUP2 PUSH2 0x3780 JUMP JUMPDEST DUP2 EQ PUSH2 0x37DC JUMPI PUSH1 0x0 DUP1 REVERT JUMPDEST POP JUMP JUMPDEST PUSH1 0x0 DUP2 CALLDATALOAD SWAP1 POP PUSH2 0x37EE DUP2 PUSH2 0x37C8 JUMP JUMPDEST SWAP3 SWAP2 POP POP JUMP JUMPDEST PUSH1 0x0 PUSH1 0x20 DUP3 DUP5 SUB SLT ISZERO PUSH2 0x380A JUMPI PUSH2 0x3809 PUSH2 0x37BE JUMP JUMPDEST JUMPDEST PUSH1 0x0 PUSH2 0x3818 DUP5 DUP3 DUP6 ADD PUSH2 0x37DF JUMP JUMPDEST SWAP2 POP POP SWAP3 SWAP2 POP POP JUMP JUMPDEST PUSH1 0x0 PUSH1 0x60 DUP3 ADD SWAP1 POP PUSH2 0x3836 PUSH1 0x0 DUP4 ADD DUP7 PUSH2 0x378A JUMP JUMPDEST DUP2 DUP2 SUB PUSH1 0x20 DUP4 ADD MSTORE PUSH2 0x3848 DUP2 DUP6 PUSH2 0x3725 JUMP JUMPDEST SWAP1 POP PUSH2 0x3857 PUSH1 0x40 DUP4 ADD DUP5 PUSH2 0x378A JUMP JUMPDEST SWAP5 SWAP4 POP POP POP POP JUMP JUMPDEST PUSH1 0x0 PUSH20 0xFFFFFFFFFFFFFFFFFFFFFFFFFFFFFFFFFFFFFFFF DUP3 AND SWAP1 POP SWAP2 SWAP1 POP JUMP JUMPDEST PUSH1 0x0 PUSH2 0x388A DUP3 PUSH2 0x385F JUMP JUMPDEST SWAP1 POP SWAP2 SWAP1 POP JUMP JUMPDEST PUSH2 0x389A DUP2 PUSH2 0x387F JUMP JUMPDEST DUP2 EQ PUSH2 0x38A5 JUMPI PUSH1 0x0 DUP1 REVERT JUMPDEST POP JUMP JUMPDEST PUSH1 0x0 DUP2 CALLDATALOAD SWAP1 POP PUSH2 0x38B7 DUP2 PUSH2 0x3891 JUMP JUMPDEST SWAP3 SWAP2 POP POP JUMP JUMPDEST PUSH1 0x0 PUSH1 0x20 DUP3 DUP5 SUB SLT ISZERO PUSH2 0x38D3 JUMPI PUSH2 0x38D2 PUSH2 0x37BE JUMP JUMPDEST JUMPDEST PUSH1 0x0 PUSH2 0x38E1 DUP5 DUP3 DUP6 ADD PUSH2 0x38A8 JUMP JUMPDEST SWAP2 POP POP SWAP3 SWAP2 POP POP JUMP JUMPDEST PUSH1 0x0 DUP2 ISZERO ISZERO SWAP1 POP SWAP2 SWAP1 POP JUMP JUMPDEST PUSH2 0x38FF DUP2 PUSH2 0x38EA JUMP JUMPDEST DUP3 MSTORE POP POP JUMP JUMPDEST PUSH1 0x0 PUSH1 0x20 DUP3 ADD SWAP1 POP PUSH2 0x391A PUSH1 0x0 DUP4 ADD DUP5 PUSH2 0x38F6 JUMP JUMPDEST SWAP3 SWAP2 POP POP JUMP JUMPDEST PUSH1 0x0 DUP1 REVERT JUMPDEST PUSH32 0x4E487B7100000000000000000000000000000000000000000000000000000000 PUSH1 0x0 MSTORE PUSH1 0x41 PUSH1 0x4 MSTORE PUSH1 0x24 PUSH1 0x0 REVERT JUMPDEST PUSH2 0x395D DUP3 PUSH2 0x3714 JUMP JUMPDEST DUP2 ADD DUP2 DUP2 LT PUSH8 0xFFFFFFFFFFFFFFFF DUP3 GT OR ISZERO PUSH2 0x397C JUMPI PUSH2 0x397B PUSH2 0x3925 JUMP JUMPDEST JUMPDEST DUP1 PUSH1 0x40 MSTORE POP POP POP JUMP JUMPDEST PUSH1 0x0 PUSH2 0x398F PUSH2 0x37B4 JUMP JUMPDEST SWAP1 POP PUSH2 0x399B DUP3 DUP3 PUSH2 0x3954 JUMP JUMPDEST SWAP2 SWAP1 POP JUMP JUMPDEST PUSH1 0x0 PUSH8 0xFFFFFFFFFFFFFFFF DUP3 GT ISZERO PUSH2 0x39BB JUMPI PUSH2 0x39BA PUSH2 0x3925 JUMP JUMPDEST JUMPDEST PUSH1 0x20 DUP3 MUL SWAP1 POP PUSH1 0x20 DUP2 ADD SWAP1 POP SWAP2 SWAP1 POP JUMP JUMPDEST PUSH1 0x0 DUP1 REVERT JUMPDEST PUSH1 0x0 DUP1 REVERT JUMPDEST PUSH1 0x0 PUSH8 0xFFFFFFFFFFFFFFFF DUP3 GT ISZERO PUSH2 0x39F1 JUMPI PUSH2 0x39F0 PUSH2 0x3925 JUMP JUMPDEST JUMPDEST PUSH2 0x39FA DUP3 PUSH2 0x3714 JUMP JUMPDEST SWAP1 POP PUSH1 0x20 DUP2 ADD SWAP1 POP SWAP2 SWAP1 POP JUMP JUMPDEST DUP3 DUP2 DUP4 CALLDATACOPY PUSH1 0x0 DUP4 DUP4 ADD MSTORE POP POP POP JUMP JUMPDEST PUSH1 0x0 PUSH2 0x3A29 PUSH2 0x3A24 DUP5 PUSH2 0x39D6 JUMP JUMPDEST PUSH2 0x3985 JUMP JUMPDEST SWAP1 POP DUP3 DUP2 MSTORE PUSH1 0x20 DUP2 ADD DUP5 DUP5 DUP5 ADD GT ISZERO PUSH2 0x3A45 JUMPI PUSH2 0x3A44 PUSH2 0x39D1 JUMP JUMPDEST JUMPDEST PUSH2 0x3A50 DUP5 DUP3 DUP6 PUSH2 0x3A07 JUMP JUMPDEST POP SWAP4 SWAP3 POP POP POP JUMP JUMPDEST PUSH1 0x0 DUP3 PUSH1 0x1F DUP4 ADD SLT PUSH2 0x3A6D JUMPI PUSH2 0x3A6C PUSH2 0x3920 JUMP JUMPDEST JUMPDEST DUP2 CALLDATALOAD PUSH2 0x3A7D DUP5 DUP3 PUSH1 0x20 DUP7 ADD PUSH2 0x3A16 JUMP JUMPDEST SWAP2 POP POP SWAP3 SWAP2 POP POP JUMP JUMPDEST PUSH1 0x0 PUSH2 0x3A99 PUSH2 0x3A94 DUP5 PUSH2 0x39A0 JUMP JUMPDEST PUSH2 0x3985 JUMP JUMPDEST SWAP1 POP DUP1 DUP4 DUP3 MSTORE PUSH1 0x20 DUP3 ADD SWAP1 POP PUSH1 0x20 DUP5 MUL DUP4 ADD DUP6 DUP2 GT ISZERO PUSH2 0x3ABC JUMPI PUSH2 0x3ABB PUSH2 0x39CC JUMP JUMPDEST JUMPDEST DUP4 JUMPDEST DUP2 DUP2 LT ISZERO PUSH2 0x3B03 JUMPI DUP1 CALLDATALOAD PUSH8 0xFFFFFFFFFFFFFFFF DUP2 GT ISZERO PUSH2 0x3AE1 JUMPI PUSH2 0x3AE0 PUSH2 0x3920 JUMP JUMPDEST JUMPDEST DUP1 DUP7 ADD PUSH2 0x3AEE DUP10 DUP3 PUSH2 0x3A58 JUMP JUMPDEST DUP6 MSTORE PUSH1 0x20 DUP6 ADD SWAP5 POP POP POP PUSH1 0x20 DUP2 ADD SWAP1 POP PUSH2 0x3ABE JUMP JUMPDEST POP POP POP SWAP4 SWAP3 POP POP POP JUMP JUMPDEST PUSH1 0x0 DUP3 PUSH1 0x1F DUP4 ADD SLT PUSH2 0x3B22 JUMPI PUSH2 0x3B21 PUSH2 0x3920 JUMP JUMPDEST JUMPDEST DUP2 CALLDATALOAD PUSH2 0x3B32 DUP5 DUP3 PUSH1 0x20 DUP7 ADD PUSH2 0x3A86 JUMP JUMPDEST SWAP2 POP POP SWAP3 SWAP2 POP POP JUMP JUMPDEST PUSH1 0x0 DUP1 PUSH1 0x40 DUP4 DUP6 SUB SLT ISZERO PUSH2 0x3B52 JUMPI PUSH2 0x3B51 PUSH2 0x37BE JUMP JUMPDEST JUMPDEST PUSH1 0x0 DUP4 ADD CALLDATALOAD PUSH8 0xFFFFFFFFFFFFFFFF DUP2 GT ISZERO PUSH2 0x3B70 JUMPI PUSH2 0x3B6F PUSH2 0x37C3 JUMP JUMPDEST JUMPDEST PUSH2 0x3B7C DUP6 DUP3 DUP7 ADD PUSH2 0x3B0D JUMP JUMPDEST SWAP3 POP POP PUSH1 0x20 DUP4 ADD CALLDATALOAD PUSH8 0xFFFFFFFFFFFFFFFF DUP2 GT ISZERO PUSH2 0x3B9D JUMPI PUSH2 0x3B9C PUSH2 0x37C3 JUMP JUMPDEST JUMPDEST PUSH2 0x3BA9 DUP6 DUP3 DUP7 ADD PUSH2 0x3B0D JUMP JUMPDEST SWAP2 POP POP SWAP3 POP SWAP3 SWAP1 POP JUMP JUMPDEST PUSH2 0x3BBC DUP2 PUSH2 0x387F JUMP JUMPDEST DUP3 MSTORE POP POP JUMP JUMPDEST PUSH1 0x0 PUSH1 0x20 DUP3 ADD SWAP1 POP PUSH2 0x3BD7 PUSH1 0x0 DUP4 ADD DUP5 PUSH2 0x3BB3 JUMP JUMPDEST SWAP3 SWAP2 POP POP JUMP JUMPDEST PUSH1 0x0 DUP2 MLOAD SWAP1 POP SWAP2 SWAP1 POP JUMP JUMPDEST PUSH1 0x0 DUP3 DUP3 MSTORE PUSH1 0x20 DUP3 ADD SWAP1 POP SWAP3 SWAP2 POP POP JUMP JUMPDEST PUSH1 0x0 DUP2 SWAP1 POP PUSH1 0x20 DUP3 ADD SWAP1 POP SWAP2 SWAP1 POP JUMP JUMPDEST PUSH2 0x3C12 DUP2 PUSH2 0x3780 JUMP JUMPDEST DUP3 MSTORE POP POP JUMP JUMPDEST PUSH1 0x0 PUSH2 0x3C24 DUP4 DUP4 PUSH2 0x3C09 JUMP JUMPDEST PUSH1 0x20 DUP4 ADD SWAP1 POP SWAP3 SWAP2 POP POP JUMP JUMPDEST PUSH1 0x0 PUSH1 0x20 DUP3 ADD SWAP1 POP SWAP2 SWAP1 POP JUMP JUMPDEST PUSH1 0x0 PUSH2 0x3C48 DUP3 PUSH2 0x3BDD JUMP JUMPDEST PUSH2 0x3C52 DUP2 DUP6 PUSH2 0x3BE8 JUMP JUMPDEST SWAP4 POP PUSH2 0x3C5D DUP4 PUSH2 0x3BF9 JUMP JUMPDEST DUP1 PUSH1 0x0 JUMPDEST DUP4 DUP2 LT ISZERO PUSH2 0x3C8E JUMPI DUP2 MLOAD PUSH2 0x3C75 DUP9 DUP3 PUSH2 0x3C18 JUMP JUMPDEST SWAP8 POP PUSH2 0x3C80 DUP4 PUSH2 0x3C30 JUMP JUMPDEST SWAP3 POP POP PUSH1 0x1 DUP2 ADD SWAP1 POP PUSH2 0x3C61 JUMP JUMPDEST POP DUP6 SWAP4 POP POP POP POP SWAP3 SWAP2 POP POP JUMP JUMPDEST PUSH1 0x0 PUSH1 0x40 DUP3 ADD SWAP1 POP PUSH2 0x3CB0 PUSH1 0x0 DUP4 ADD DUP6 PUSH2 0x378A JUMP JUMPDEST DUP2 DUP2 SUB PUSH1 0x20 DUP4 ADD MSTORE PUSH2 0x3CC2 DUP2 DUP5 PUSH2 0x3C3D JUMP JUMPDEST SWAP1 POP SWAP4 SWAP3 POP POP POP JUMP JUMPDEST PUSH1 0x0 PUSH8 0xFFFFFFFFFFFFFFFF DUP3 GT ISZERO PUSH2 0x3CE6 JUMPI PUSH2 0x3CE5 PUSH2 0x3925 JUMP JUMPDEST JUMPDEST PUSH1 0x20 DUP3 MUL SWAP1 POP PUSH1 0x20 DUP2 ADD SWAP1 POP SWAP2 SWAP1 POP JUMP JUMPDEST PUSH1 0x0 DUP2 SWAP1 POP SWAP2 SWAP1 POP JUMP JUMPDEST PUSH2 0x3D0A DUP2 PUSH2 0x3CF7 JUMP JUMPDEST DUP2 EQ PUSH2 0x3D15 JUMPI PUSH1 0x0 DUP1 REVERT JUMPDEST POP JUMP JUMPDEST PUSH1 0x0 DUP2 CALLDATALOAD SWAP1 POP PUSH2 0x3D27 DUP2 PUSH2 0x3D01 JUMP JUMPDEST SWAP3 SWAP2 POP POP JUMP JUMPDEST PUSH1 0x0 PUSH2 0x3D40 PUSH2 0x3D3B DUP5 PUSH2 0x3CCB JUMP JUMPDEST PUSH2 0x3985 JUMP JUMPDEST SWAP1 POP DUP1 DUP4 DUP3 MSTORE PUSH1 0x20 DUP3 ADD SWAP1 POP PUSH1 0x20 DUP5 MUL DUP4 ADD DUP6 DUP2 GT ISZERO PUSH2 0x3D63 JUMPI PUSH2 0x3D62 PUSH2 0x39CC JUMP JUMPDEST JUMPDEST DUP4 JUMPDEST DUP2 DUP2 LT ISZERO PUSH2 0x3D8C JUMPI DUP1 PUSH2 0x3D78 DUP9 DUP3 PUSH2 0x3D18 JUMP JUMPDEST DUP5 MSTORE PUSH1 0x20 DUP5 ADD SWAP4 POP POP PUSH1 0x20 DUP2 ADD SWAP1 POP PUSH2 0x3D65 JUMP JUMPDEST POP POP POP SWAP4 SWAP3 POP POP POP JUMP JUMPDEST PUSH1 0x0 DUP3 PUSH1 0x1F DUP4 ADD SLT PUSH2 0x3DAB JUMPI PUSH2 0x3DAA PUSH2 0x3920 JUMP JUMPDEST JUMPDEST DUP2 CALLDATALOAD PUSH2 0x3DBB DUP5 DUP3 PUSH1 0x20 DUP7 ADD PUSH2 0x3D2D JUMP JUMPDEST SWAP2 POP POP SWAP3 SWAP2 POP POP JUMP JUMPDEST PUSH1 0x0 DUP1 PUSH1 0x40 DUP4 DUP6 SUB SLT ISZERO PUSH2 0x3DDB JUMPI PUSH2 0x3DDA PUSH2 0x37BE JUMP JUMPDEST JUMPDEST PUSH1 0x0 DUP4 ADD CALLDATALOAD PUSH8 0xFFFFFFFFFFFFFFFF DUP2 GT ISZERO PUSH2 0x3DF9 JUMPI PUSH2 0x3DF8 PUSH2 0x37C3 JUMP JUMPDEST JUMPDEST PUSH2 0x3E05 DUP6 DUP3 DUP7 ADD PUSH2 0x3D96 JUMP JUMPDEST SWAP3 POP POP PUSH1 0x20 PUSH2 0x3E16 DUP6 DUP3 DUP7 ADD PUSH2 0x3D18 JUMP JUMPDEST SWAP2 POP POP SWAP3 POP SWAP3 SWAP1 POP JUMP JUMPDEST PUSH2 0x3E29 DUP2 PUSH2 0x3CF7 JUMP JUMPDEST DUP3 MSTORE POP POP JUMP JUMPDEST PUSH1 0x0 PUSH1 0x20 DUP3 ADD SWAP1 POP PUSH2 0x3E44 PUSH1 0x0 DUP4 ADD DUP5 PUSH2 0x3E20 JUMP JUMPDEST SWAP3 SWAP2 POP POP JUMP JUMPDEST PUSH1 0x0 DUP1 REVERT JUMPDEST PUSH1 0x0 DUP1 DUP4 PUSH1 0x1F DUP5 ADD SLT PUSH2 0x3E65 JUMPI PUSH2 0x3E64 PUSH2 0x3920 JUMP JUMPDEST JUMPDEST DUP3 CALLDATALOAD SWAP1 POP PUSH8 0xFFFFFFFFFFFFFFFF DUP2 GT ISZERO PUSH2 0x3E82 JUMPI PUSH2 0x3E81 PUSH2 0x3E4A JUMP JUMPDEST JUMPDEST PUSH1 0x20 DUP4 ADD SWAP2 POP DUP4 PUSH1 0x20 DUP3 MUL DUP4 ADD GT ISZERO PUSH2 0x3E9E JUMPI PUSH2 0x3E9D PUSH2 0x39CC JUMP JUMPDEST JUMPDEST SWAP3 POP SWAP3 SWAP1 POP JUMP JUMPDEST PUSH1 0x0 DUP1 PUSH1 0x0 PUSH1 0x40 DUP5 DUP7 SUB SLT ISZERO PUSH2 0x3EBE JUMPI PUSH2 0x3EBD PUSH2 0x37BE JUMP JUMPDEST JUMPDEST PUSH1 0x0 PUSH2 0x3ECC DUP7 DUP3 DUP8 ADD PUSH2 0x37DF JUMP JUMPDEST SWAP4 POP POP PUSH1 0x20 DUP5 ADD CALLDATALOAD PUSH8 0xFFFFFFFFFFFFFFFF DUP2 GT ISZERO PUSH2 0x3EED JUMPI PUSH2 0x3EEC PUSH2 0x37C3 JUMP JUMPDEST JUMPDEST PUSH2 0x3EF9 DUP7 DUP3 DUP8 ADD PUSH2 0x3E4F JUMP JUMPDEST SWAP3 POP SWAP3 POP POP SWAP3 POP SWAP3 POP SWAP3 JUMP JUMPDEST PUSH32 0x4E487B7100000000000000000000000000000000000000000000000000000000 PUSH1 0x0 MSTORE PUSH1 0x22 PUSH1 0x4 MSTORE PUSH1 0x24 PUSH1 0x0 REVERT JUMPDEST PUSH1 0x0 PUSH1 0x2 DUP3 DIV SWAP1 POP PUSH1 0x1 DUP3 AND DUP1 PUSH2 0x3F4C JUMPI PUSH1 0x7F DUP3 AND SWAP2 POP JUMPDEST PUSH1 0x20 DUP3 LT DUP2 EQ ISZERO PUSH2 0x3F60 JUMPI PUSH2 0x3F5F PUSH2 0x3F05 JUMP JUMPDEST JUMPDEST POP SWAP2 SWAP1 POP JUMP JUMPDEST PUSH32 0x5061757361626C653A2070617573656400000000000000000000000000000000 PUSH1 0x0 DUP3 ADD MSTORE POP JUMP JUMPDEST PUSH1 0x0 PUSH2 0x3F9C PUSH1 0x10 DUP4 PUSH2 0x36D0 JUMP JUMPDEST SWAP2 POP PUSH2 0x3FA7 DUP3 PUSH2 0x3F66 JUMP JUMPDEST PUSH1 0x20 DUP3 ADD SWAP1 POP SWAP2 SWAP1 POP JUMP JUMPDEST PUSH1 0x0 PUSH1 0x20 DUP3 ADD SWAP1 POP DUP2 DUP2 SUB PUSH1 0x0 DUP4 ADD MSTORE PUSH2 0x3FCB DUP2 PUSH2 0x3F8F JUMP JUMPDEST SWAP1 POP SWAP2 SWAP1 POP JUMP JUMPDEST PUSH32 0x6F6E6C792074656163686572732F63686169726D616E2063616E2063616C6C20 PUSH1 0x0 DUP3 ADD MSTORE PUSH32 0x746869732066756E6374696F6E00000000000000000000000000000000000000 PUSH1 0x20 DUP3 ADD MSTORE POP JUMP JUMPDEST PUSH1 0x0 PUSH2 0x402E PUSH1 0x2D DUP4 PUSH2 0x36D0 JUMP JUMPDEST SWAP2 POP PUSH2 0x4039 DUP3 PUSH2 0x3FD2 JUMP JUMPDEST PUSH1 0x40 DUP3 ADD SWAP1 POP SWAP2 SWAP1 POP JUMP JUMPDEST PUSH1 0x0 PUSH1 0x20 DUP3 ADD SWAP1 POP DUP2 DUP2 SUB PUSH1 0x0 DUP4 ADD MSTORE PUSH2 0x405D DUP2 PUSH2 0x4021 JUMP JUMPDEST SWAP1 POP SWAP2 SWAP1 POP JUMP JUMPDEST PUSH32 0x6F6E6C792063686169726D616E2063616E2063616C6C20746869732066756E63 PUSH1 0x0 DUP3 ADD MSTORE PUSH32 0x74696F6E00000000000000000000000000000000000000000000000000000000 PUSH1 0x20 DUP3 ADD MSTORE POP JUMP JUMPDEST PUSH1 0x0 PUSH2 0x40C0 PUSH1 0x24 DUP4 PUSH2 0x36D0 JUMP JUMPDEST SWAP2 POP PUSH2 0x40CB DUP3 PUSH2 0x4064 JUMP JUMPDEST PUSH1 0x40 DUP3 ADD SWAP1 POP SWAP2 SWAP1 POP JUMP JUMPDEST PUSH1 0x0 PUSH1 0x20 DUP3 ADD SWAP1 POP DUP2 DUP2 SUB PUSH1 0x0 DUP4 ADD MSTORE PUSH2 0x40EF DUP2 PUSH2 0x40B3 JUMP JUMPDEST SWAP1 POP SWAP2 SWAP1 POP JUMP JUMPDEST PUSH1 0x0 DUP2 SLOAD SWAP1 POP SWAP2 SWAP1 POP JUMP JUMPDEST PUSH1 0x0 DUP2 SWAP1 POP DUP2 PUSH1 0x0 MSTORE PUSH1 0x20 PUSH1 0x0 KECCAK256 SWAP1 POP SWAP2 SWAP1 POP JUMP JUMPDEST PUSH1 0x0 DUP2 PUSH1 0x0 SHR SWAP1 POP SWAP2 SWAP1 POP JUMP JUMPDEST PUSH1 0x0 DUP2 SWAP1 POP SWAP2 SWAP1 POP JUMP JUMPDEST PUSH1 0x0 PUSH2 0x4140 PUSH2 0x413B DUP4 PUSH2 0x4116 JUMP JUMPDEST PUSH2 0x4123 JUMP JUMPDEST SWAP1 POP SWAP2 SWAP1 POP JUMP JUMPDEST PUSH1 0x0 PUSH2 0x4153 DUP3 SLOAD PUSH2 0x412D JUMP JUMPDEST SWAP1 POP SWAP2 SWAP1 POP JUMP JUMPDEST PUSH1 0x0 PUSH1 0x1 DUP3 ADD SWAP1 POP SWAP2 SWAP1 POP JUMP JUMPDEST PUSH1 0x0 PUSH2 0x4172 DUP3 PUSH2 0x40F6 JUMP JUMPDEST PUSH2 0x417C DUP2 DUP6 PUSH2 0x3BE8 JUMP JUMPDEST SWAP4 POP PUSH2 0x4187 DUP4 PUSH2 0x4101 JUMP JUMPDEST DUP1 PUSH1 0x0 JUMPDEST DUP4 DUP2 LT ISZERO PUSH2 0x41BF JUMPI PUSH2 0x419C DUP3 PUSH2 0x4147 JUMP JUMPDEST PUSH2 0x41A6 DUP9 DUP3 PUSH2 0x3C18 JUMP JUMPDEST SWAP8 POP PUSH2 0x41B1 DUP4 PUSH2 0x415A JUMP JUMPDEST SWAP3 POP POP PUSH1 0x1 DUP2 ADD SWAP1 POP PUSH2 0x418B JUMP JUMPDEST POP DUP6 SWAP4 POP POP POP POP SWAP3 SWAP2 POP POP JUMP JUMPDEST PUSH1 0x0 PUSH1 0x40 DUP3 ADD SWAP1 POP DUP2 DUP2 SUB PUSH1 0x0 DUP4 ADD MSTORE PUSH2 0x41E6 DUP2 DUP6 PUSH2 0x4167 JUMP JUMPDEST SWAP1 POP PUSH2 0x41F5 PUSH1 0x20 DUP4 ADD DUP5 PUSH2 0x378A JUMP JUMPDEST SWAP4 SWAP3 POP POP POP JUMP JUMPDEST PUSH32 0x456C656374696F6E206973204F6E676F696E6700000000000000000000000000 PUSH1 0x0 DUP3 ADD MSTORE POP JUMP JUMPDEST PUSH1 0x0 PUSH2 0x4232 PUSH1 0x13 DUP4 PUSH2 0x36D0 JUMP JUMPDEST SWAP2 POP PUSH2 0x423D DUP3 PUSH2 0x41FC JUMP JUMPDEST PUSH1 0x20 DUP3 ADD SWAP1 POP SWAP2 SWAP1 POP JUMP JUMPDEST PUSH1 0x0 PUSH1 0x20 DUP3 ADD SWAP1 POP DUP2 DUP2 SUB PUSH1 0x0 DUP4 ADD MSTORE PUSH2 0x4261 DUP2 PUSH2 0x4225 JUMP JUMPDEST SWAP1 POP SWAP2 SWAP1 POP JUMP JUMPDEST PUSH32 0x61746C65617374206F6E6520706572736F6E2073686F756C6420636F6E746573 PUSH1 0x0 DUP3 ADD MSTORE PUSH32 0x7400000000000000000000000000000000000000000000000000000000000000 PUSH1 0x20 DUP3 ADD MSTORE POP JUMP JUMPDEST PUSH1 0x0 PUSH2 0x42C4 PUSH1 0x21 DUP4 PUSH2 0x36D0 JUMP JUMPDEST SWAP2 POP PUSH2 0x42CF DUP3 PUSH2 0x4268 JUMP JUMPDEST PUSH1 0x40 DUP3 ADD SWAP1 POP SWAP2 SWAP1 POP JUMP JUMPDEST PUSH1 0x0 PUSH1 0x20 DUP3 ADD SWAP1 POP DUP2 DUP2 SUB PUSH1 0x0 DUP4 ADD MSTORE PUSH2 0x42F3 DUP2 PUSH2 0x42B7 JUMP JUMPDEST SWAP1 POP SWAP2 SWAP1 POP JUMP JUMPDEST PUSH32 0x4E487B7100000000000000000000000000000000000000000000000000000000 PUSH1 0x0 MSTORE PUSH1 0x32 PUSH1 0x4 MSTORE PUSH1 0x24 PUSH1 0x0 REVERT JUMPDEST PUSH32 0x4E487B7100000000000000000000000000000000000000000000000000000000 PUSH1 0x0 MSTORE PUSH1 0x11 PUSH1 0x4 MSTORE PUSH1 0x24 PUSH1 0x0 REVERT JUMPDEST PUSH1 0x0 PUSH2 0x4363 DUP3 PUSH2 0x3780 JUMP JUMPDEST SWAP2 POP PUSH32 0xFFFFFFFFFFFFFFFFFFFFFFFFFFFFFFFFFFFFFFFFFFFFFFFFFFFFFFFFFFFFFFFF DUP3 EQ ISZERO PUSH2 0x4396 JUMPI PUSH2 0x4395 PUSH2 0x4329 JUMP JUMPDEST JUMPDEST PUSH1 0x1 DUP3 ADD SWAP1 POP SWAP2 SWAP1 POP JUMP JUMPDEST PUSH32 0x6F6E6C792074656163686572732F63686169726D616E2063616E206D616B6520 PUSH1 0x0 DUP3 ADD MSTORE PUSH32 0x726573756C7473207075626C6963000000000000000000000000000000000000 PUSH1 0x20 DUP3 ADD MSTORE POP JUMP JUMPDEST PUSH1 0x0 PUSH2 0x43FD PUSH1 0x2E DUP4 PUSH2 0x36D0 JUMP JUMPDEST SWAP2 POP PUSH2 0x4408 DUP3 PUSH2 0x43A1 JUMP JUMPDEST PUSH1 0x40 DUP3 ADD SWAP1 POP SWAP2 SWAP1 POP JUMP JUMPDEST PUSH1 0x0 PUSH1 0x20 DUP3 ADD SWAP1 POP DUP2 DUP2 SUB PUSH1 0x0 DUP4 ADD MSTORE PUSH2 0x442C DUP2 PUSH2 0x43F0 JUMP JUMPDEST SWAP1 POP SWAP2 SWAP1 POP JUMP JUMPDEST PUSH32 0x536F7272792C2074686520456C656374696F6E2068617320656E646564210000 PUSH1 0x0 DUP3 ADD MSTORE POP JUMP JUMPDEST PUSH1 0x0 PUSH2 0x4469 PUSH1 0x1E DUP4 PUSH2 0x36D0 JUMP JUMPDEST SWAP2 POP PUSH2 0x4474 DUP3 PUSH2 0x4433 JUMP JUMPDEST PUSH1 0x20 DUP3 ADD SWAP1 POP SWAP2 SWAP1 POP JUMP JUMPDEST PUSH1 0x0 PUSH1 0x20 DUP3 ADD SWAP1 POP DUP2 DUP2 SUB PUSH1 0x0 DUP4 ADD MSTORE PUSH2 0x4498 DUP2 PUSH2 0x445C JUMP JUMPDEST SWAP1 POP SWAP2 SWAP1 POP JUMP JUMPDEST PUSH32 0x506C6561736520636865636B206261636B2C2074686520656C656374696F6E20 PUSH1 0x0 DUP3 ADD MSTORE PUSH32 0x686173206E6F7420737461727465642100000000000000000000000000000000 PUSH1 0x20 DUP3 ADD MSTORE POP JUMP JUMPDEST PUSH1 0x0 PUSH2 0x44FB PUSH1 0x30 DUP4 PUSH2 0x36D0 JUMP JUMPDEST SWAP2 POP PUSH2 0x4506 DUP3 PUSH2 0x449F JUMP JUMPDEST PUSH1 0x40 DUP3 ADD SWAP1 POP SWAP2 SWAP1 POP JUMP JUMPDEST PUSH1 0x0 PUSH1 0x20 DUP3 ADD SWAP1 POP DUP2 DUP2 SUB PUSH1 0x0 DUP4 ADD MSTORE PUSH2 0x452A DUP2 PUSH2 0x44EE JUMP JUMPDEST SWAP1 POP SWAP2 SWAP1 POP JUMP JUMPDEST PUSH1 0x0 DUP2 PUSH1 0x60 SHL SWAP1 POP SWAP2 SWAP1 POP JUMP JUMPDEST PUSH1 0x0 PUSH2 0x4549 DUP3 PUSH2 0x4531 JUMP JUMPDEST SWAP1 POP SWAP2 SWAP1 POP JUMP JUMPDEST PUSH1 0x0 PUSH2 0x455B DUP3 PUSH2 0x453E JUMP JUMPDEST SWAP1 POP SWAP2 SWAP1 POP JUMP JUMPDEST PUSH2 0x4573 PUSH2 0x456E DUP3 PUSH2 0x387F JUMP JUMPDEST PUSH2 0x4550 JUMP JUMPDEST DUP3 MSTORE POP POP JUMP JUMPDEST PUSH1 0x0 PUSH2 0x4585 DUP3 DUP5 PUSH2 0x4562 JUMP JUMPDEST PUSH1 0x14 DUP3 ADD SWAP2 POP DUP2 SWAP1 POP SWAP3 SWAP2 POP POP JUMP JUMPDEST PUSH32 0x736F7272792C206F6E6C79207374616B65686F6C646572732061726520656C69 PUSH1 0x0 DUP3 ADD MSTORE PUSH32 0x6769626C6520746F20766F746500000000000000000000000000000000000000 PUSH1 0x20 DUP3 ADD MSTORE POP JUMP JUMPDEST PUSH1 0x0 PUSH2 0x45F0 PUSH1 0x2D DUP4 PUSH2 0x36D0 JUMP JUMPDEST SWAP2 POP PUSH2 0x45FB DUP3 PUSH2 0x4594 JUMP JUMPDEST PUSH1 0x40 DUP3 ADD SWAP1 POP SWAP2 SWAP1 POP JUMP JUMPDEST PUSH1 0x0 PUSH1 0x20 DUP3 ADD SWAP1 POP DUP2 DUP2 SUB PUSH1 0x0 DUP4 ADD MSTORE PUSH2 0x461F DUP2 PUSH2 0x45E3 JUMP JUMPDEST SWAP1 POP SWAP2 SWAP1 POP JUMP JUMPDEST PUSH32 0x5061757361626C653A206E6F7420706175736564000000000000000000000000 PUSH1 0x0 DUP3 ADD MSTORE POP JUMP JUMPDEST PUSH1 0x0 PUSH2 0x465C PUSH1 0x14 DUP4 PUSH2 0x36D0 JUMP JUMPDEST SWAP2 POP PUSH2 0x4667 DUP3 PUSH2 0x4626 JUMP JUMPDEST PUSH1 0x20 DUP3 ADD SWAP1 POP SWAP2 SWAP1 POP JUMP JUMPDEST PUSH1 0x0 PUSH1 0x20 DUP3 ADD SWAP1 POP DUP2 DUP2 SUB PUSH1 0x0 DUP4 ADD MSTORE PUSH2 0x468B DUP2 PUSH2 0x464F JUMP JUMPDEST SWAP1 POP SWAP2 SWAP1 POP JUMP JUMPDEST PUSH1 0x0 PUSH1 0x40 DUP3 ADD SWAP1 POP PUSH2 0x46A7 PUSH1 0x0 DUP4 ADD DUP6 PUSH2 0x378A JUMP JUMPDEST DUP2 DUP2 SUB PUSH1 0x20 DUP4 ADD MSTORE PUSH2 0x46B9 DUP2 DUP5 PUSH2 0x3725 JUMP JUMPDEST SWAP1 POP SWAP4 SWAP3 POP POP POP JUMP JUMPDEST PUSH32 0x496E76616C69642063616E64696461746520746F20566F746521000000000000 PUSH1 0x0 DUP3 ADD MSTORE POP JUMP JUMPDEST PUSH1 0x0 PUSH2 0x46F8 PUSH1 0x1A DUP4 PUSH2 0x36D0 JUMP JUMPDEST SWAP2 POP PUSH2 0x4703 DUP3 PUSH2 0x46C2 JUMP JUMPDEST PUSH1 0x20 DUP3 ADD SWAP1 POP SWAP2 SWAP1 POP JUMP JUMPDEST PUSH1 0x0 PUSH1 0x20 DUP3 ADD SWAP1 POP DUP2 DUP2 SUB PUSH1 0x0 DUP4 ADD MSTORE PUSH2 0x4727 DUP2 PUSH2 0x46EB JUMP JUMPDEST SWAP1 POP SWAP2 SWAP1 POP JUMP JUMPDEST PUSH32 0x566F7465722068617320616C726561647920566F746564210000000000000000 PUSH1 0x0 DUP3 ADD MSTORE POP JUMP JUMPDEST PUSH1 0x0 PUSH2 0x4764 PUSH1 0x18 DUP4 PUSH2 0x36D0 JUMP JUMPDEST SWAP2 POP PUSH2 0x476F DUP3 PUSH2 0x472E JUMP JUMPDEST PUSH1 0x20 DUP3 ADD SWAP1 POP SWAP2 SWAP1 POP JUMP JUMPDEST PUSH1 0x0 PUSH1 0x20 DUP3 ADD SWAP1 POP DUP2 DUP2 SUB PUSH1 0x0 DUP4 ADD MSTORE PUSH2 0x4793 DUP2 PUSH2 0x4757 JUMP JUMPDEST SWAP1 POP SWAP2 SWAP1 POP JUMP JUMPDEST PUSH1 0x0 PUSH1 0x40 DUP3 ADD SWAP1 POP PUSH2 0x47AF PUSH1 0x0 DUP4 ADD DUP6 PUSH2 0x378A JUMP JUMPDEST PUSH2 0x47BC PUSH1 0x20 DUP4 ADD DUP5 PUSH2 0x378A JUMP JUMPDEST SWAP4 SWAP3 POP POP POP JUMP INVALID LOG2 PUSH5 0x6970667358 0x22 SLT KECCAK256 MSTORE8 0xD 0xAD EXTCODESIZE BALANCE SDIV CALLDATASIZE 0x24 MSIZE SWAP2 PUSH21 0x636AD1214F0EAFE8A892AD3ED66E829C06724B3C02 PUSH5 0x736F6C6343 STOP ADDMOD EXP STOP CALLER "
        },
        "methodIdentifiers": {
          "Active()": "c9b0a2a7",
          "Ended()": "477383f3",
          "addTeacher(address)": "3bc6e309",
          "candidates(uint256)": "3477ee2e",
          "candidatesCount()": "2d35a8a2",
          "chairman()": "87f7b975",
          "changeChairman(address)": "e8101869",
          "description()": "7284e416",
          "endElection()": "59f78468",
          "isValid(bytes32[],bytes32)": "b8a20ed0",
          "makeResultPublic()": "95adfc5e",
          "pause()": "8456cb59",
          "paused()": "5c975abb",
          "position()": "09218e91",
          "removeTeacher(address)": "52ff6846",
          "root()": "ebf0c717",
          "setUpElection(string[],string[])": "79bf09ab",
          "startElection()": "62d73eb8",
          "teachers(address)": "f0a47f78",
          "unpause()": "3f4ba83a",
          "vote(uint256,bytes32[])": "fd27419b",
          "voted(address)": "aec2ccae",
          "winnerIds(uint256)": "403d1312",
          "winnerVoteCount()": "2f22850d"
        }
      },
      "storageLayout": {
        "storage": [
          {
            "astId": 17,
            "contract": "contracts/ZuriElection.sol:ZuriElection",
            "label": "_paused",
            "offset": 0,
            "slot": "0",
            "type": "t_bool"
          },
          {
            "astId": 300,
            "contract": "contracts/ZuriElection.sol:ZuriElection",
            "label": "chairman",
            "offset": 1,
            "slot": "0",
            "type": "t_address"
          },
          {
            "astId": 303,
            "contract": "contracts/ZuriElection.sol:ZuriElection",
            "label": "position",
            "offset": 0,
            "slot": "1",
            "type": "t_string_storage"
          },
          {
            "astId": 306,
            "contract": "contracts/ZuriElection.sol:ZuriElection",
            "label": "description",
            "offset": 0,
            "slot": "2",
            "type": "t_string_storage"
          },
          {
            "astId": 309,
            "contract": "contracts/ZuriElection.sol:ZuriElection",
            "label": "root",
            "offset": 0,
            "slot": "3",
            "type": "t_bytes32"
          },
          {
            "astId": 312,
            "contract": "contracts/ZuriElection.sol:ZuriElection",
            "label": "candidatesCount",
            "offset": 0,
            "slot": "4",
            "type": "t_uint256"
          },
          {
            "astId": 317,
            "contract": "contracts/ZuriElection.sol:ZuriElection",
            "label": "teachers",
            "offset": 0,
            "slot": "5",
            "type": "t_mapping(t_address,t_bool)"
          },
          {
            "astId": 322,
            "contract": "contracts/ZuriElection.sol:ZuriElection",
            "label": "voted",
            "offset": 0,
            "slot": "6",
            "type": "t_mapping(t_address,t_bool)"
          },
          {
            "astId": 328,
            "contract": "contracts/ZuriElection.sol:ZuriElection",
            "label": "candidates",
            "offset": 0,
            "slot": "7",
            "type": "t_mapping(t_uint256,t_struct(Candidate)348_storage)"
          },
          {
            "astId": 332,
            "contract": "contracts/ZuriElection.sol:ZuriElection",
            "label": "winnerIds",
            "offset": 0,
            "slot": "8",
            "type": "t_array(t_uint256)dyn_storage"
          },
          {
            "astId": 335,
            "contract": "contracts/ZuriElection.sol:ZuriElection",
            "label": "winnerVoteCount",
            "offset": 0,
            "slot": "9",
            "type": "t_uint256"
          },
          {
            "astId": 338,
            "contract": "contracts/ZuriElection.sol:ZuriElection",
            "label": "Active",
            "offset": 0,
            "slot": "10",
            "type": "t_bool"
          },
          {
            "astId": 341,
            "contract": "contracts/ZuriElection.sol:ZuriElection",
            "label": "Ended",
            "offset": 1,
            "slot": "10",
            "type": "t_bool"
          }
        ],
        "types": {
          "t_address": {
            "encoding": "inplace",
            "label": "address",
            "numberOfBytes": "20"
          },
          "t_array(t_uint256)dyn_storage": {
            "base": "t_uint256",
            "encoding": "dynamic_array",
            "label": "uint256[]",
            "numberOfBytes": "32"
          },
          "t_bool": {
            "encoding": "inplace",
            "label": "bool",
            "numberOfBytes": "1"
          },
          "t_bytes32": {
            "encoding": "inplace",
            "label": "bytes32",
            "numberOfBytes": "32"
          },
          "t_mapping(t_address,t_bool)": {
            "encoding": "mapping",
            "key": "t_address",
            "label": "mapping(address => bool)",
            "numberOfBytes": "32",
            "value": "t_bool"
          },
          "t_mapping(t_uint256,t_struct(Candidate)348_storage)": {
            "encoding": "mapping",
            "key": "t_uint256",
            "label": "mapping(uint256 => struct ZuriElection.Candidate)",
            "numberOfBytes": "32",
            "value": "t_struct(Candidate)348_storage"
          },
          "t_string_storage": {
            "encoding": "bytes",
            "label": "string",
            "numberOfBytes": "32"
          },
          "t_struct(Candidate)348_storage": {
            "encoding": "inplace",
            "label": "struct ZuriElection.Candidate",
            "members": [
              {
                "astId": 343,
                "contract": "contracts/ZuriElection.sol:ZuriElection",
                "label": "id",
                "offset": 0,
                "slot": "0",
                "type": "t_uint256"
              },
              {
                "astId": 345,
                "contract": "contracts/ZuriElection.sol:ZuriElection",
                "label": "name",
                "offset": 0,
                "slot": "1",
                "type": "t_string_storage"
              },
              {
                "astId": 347,
                "contract": "contracts/ZuriElection.sol:ZuriElection",
                "label": "voteCount",
                "offset": 0,
                "slot": "2",
                "type": "t_uint256"
              }
            ],
            "numberOfBytes": "96"
          },
          "t_uint256": {
            "encoding": "inplace",
            "label": "uint256",
            "numberOfBytes": "32"
          }
        }
      }
    }
  }
}