{
  "_format": "hh-sol-artifact-1",
  "contractName": "ZuriElection",
  "sourceName": "contracts/ZuriElection.sol",
  "abi": [
    {
      "inputs": [
        {
          "internalType": "bytes32",
          "name": "merkleRoot",
          "type": "bytes32"
        }
      ],
      "stateMutability": "nonpayable",
      "type": "constructor"
    },
    {
      "inputs": [],
      "name": "ElectionHasEnded",
      "type": "error"
    },
    {
      "inputs": [],
      "name": "ElectionNotStarted",
      "type": "error"
    },
    {
      "anonymous": false,
      "inputs": [
        {
          "indexed": false,
          "internalType": "uint256",
          "name": "_candidateId",
          "type": "uint256"
        },
        {
          "indexed": false,
          "internalType": "string",
          "name": "_candidateName",
          "type": "string"
        }
      ],
      "name": "CandidateCreated",
      "type": "event"
    },
    {
      "anonymous": false,
      "inputs": [
        {
          "indexed": false,
          "internalType": "uint256[]",
          "name": "_winnerIds",
          "type": "uint256[]"
        },
        {
          "indexed": false,
          "internalType": "uint256",
          "name": "_winnerVoteCount",
          "type": "uint256"
        }
      ],
      "name": "ElectionEnded",
      "type": "event"
    },
    {
      "anonymous": false,
      "inputs": [
        {
          "indexed": false,
          "internalType": "address",
          "name": "account",
          "type": "address"
        }
      ],
      "name": "Paused",
      "type": "event"
    },
    {
      "anonymous": false,
      "inputs": [
        {
          "indexed": false,
          "internalType": "address",
          "name": "account",
          "type": "address"
        }
      ],
      "name": "Unpaused",
      "type": "event"
    },
    {
      "anonymous": false,
      "inputs": [
        {
          "indexed": false,
          "internalType": "uint256",
          "name": "_candidateId",
          "type": "uint256"
        },
        {
          "indexed": false,
          "internalType": "uint256",
          "name": "_candidateVoteCount",
          "type": "uint256"
        }
      ],
      "name": "VoteForCandidate",
      "type": "event"
    },
    {
      "inputs": [],
      "name": "Active",
      "outputs": [
        {
          "internalType": "bool",
          "name": "",
          "type": "bool"
        }
      ],
      "stateMutability": "view",
      "type": "function"
    },
    {
      "inputs": [],
      "name": "Ended",
      "outputs": [
        {
          "internalType": "bool",
          "name": "",
          "type": "bool"
        }
      ],
      "stateMutability": "view",
      "type": "function"
    },
    {
      "inputs": [
        {
          "internalType": "address",
          "name": "_newTeacher",
          "type": "address"
        }
      ],
      "name": "addTeacher",
      "outputs": [],
      "stateMutability": "nonpayable",
      "type": "function"
    },
    {
      "inputs": [
        {
          "internalType": "uint256",
          "name": "",
          "type": "uint256"
        }
      ],
      "name": "candidates",
      "outputs": [
        {
          "internalType": "uint256",
          "name": "id",
          "type": "uint256"
        },
        {
          "internalType": "string",
          "name": "name",
          "type": "string"
        },
        {
          "internalType": "uint256",
          "name": "voteCount",
          "type": "uint256"
        }
      ],
      "stateMutability": "view",
      "type": "function"
    },
    {
      "inputs": [],
      "name": "candidatesCount",
      "outputs": [
        {
          "internalType": "uint256",
          "name": "",
          "type": "uint256"
        }
      ],
      "stateMutability": "view",
      "type": "function"
    },
    {
      "inputs": [],
      "name": "chairman",
      "outputs": [
        {
          "internalType": "address",
          "name": "",
          "type": "address"
        }
      ],
      "stateMutability": "view",
      "type": "function"
    },
    {
      "inputs": [
        {
          "internalType": "address",
          "name": "_newChairman",
          "type": "address"
        }
      ],
      "name": "changeChairman",
      "outputs": [],
      "stateMutability": "nonpayable",
      "type": "function"
    },
    {
      "inputs": [],
      "name": "description",
      "outputs": [
        {
          "internalType": "string",
          "name": "",
          "type": "string"
        }
      ],
      "stateMutability": "view",
      "type": "function"
    },
    {
      "inputs": [],
      "name": "endElection",
      "outputs": [],
      "stateMutability": "nonpayable",
      "type": "function"
    },
    {
      "inputs": [
        {
          "internalType": "bytes32[]",
          "name": "proof",
          "type": "bytes32[]"
        },
        {
          "internalType": "bytes32",
          "name": "leaf",
          "type": "bytes32"
        }
      ],
      "name": "isValid",
      "outputs": [
        {
          "internalType": "bool",
          "name": "",
          "type": "bool"
        }
      ],
      "stateMutability": "view",
      "type": "function"
    },
    {
      "inputs": [],
      "name": "makeResultPublic",
      "outputs": [
        {
          "internalType": "uint256",
          "name": "",
          "type": "uint256"
        },
        {
          "internalType": "uint256[]",
          "name": "",
          "type": "uint256[]"
        }
      ],
      "stateMutability": "view",
      "type": "function"
    },
    {
      "inputs": [],
      "name": "pause",
      "outputs": [],
      "stateMutability": "nonpayable",
      "type": "function"
    },
    {
      "inputs": [],
      "name": "paused",
      "outputs": [
        {
          "internalType": "bool",
          "name": "",
          "type": "bool"
        }
      ],
      "stateMutability": "view",
      "type": "function"
    },
    {
      "inputs": [],
      "name": "position",
      "outputs": [
        {
          "internalType": "string",
          "name": "",
          "type": "string"
        }
      ],
      "stateMutability": "view",
      "type": "function"
    },
    {
      "inputs": [
        {
          "internalType": "address",
          "name": "_teacher",
          "type": "address"
        }
      ],
      "name": "removeTeacher",
      "outputs": [],
      "stateMutability": "nonpayable",
      "type": "function"
    },
    {
      "inputs": [],
      "name": "root",
      "outputs": [
        {
          "internalType": "bytes32",
          "name": "",
          "type": "bytes32"
        }
      ],
      "stateMutability": "view",
      "type": "function"
    },
    {
      "inputs": [
        {
          "internalType": "string[]",
          "name": "_prop",
          "type": "string[]"
        },
        {
          "internalType": "string[]",
          "name": "_candidates",
          "type": "string[]"
        }
      ],
      "name": "setUpElection",
      "outputs": [],
      "stateMutability": "nonpayable",
      "type": "function"
    },
    {
      "inputs": [],
      "name": "startElection",
      "outputs": [],
      "stateMutability": "nonpayable",
      "type": "function"
    },
    {
      "inputs": [
        {
          "internalType": "address",
          "name": "",
          "type": "address"
        }
      ],
      "name": "teachers",
      "outputs": [
        {
          "internalType": "bool",
          "name": "",
          "type": "bool"
        }
      ],
      "stateMutability": "view",
      "type": "function"
    },
    {
      "inputs": [],
      "name": "unpause",
      "outputs": [],
      "stateMutability": "nonpayable",
      "type": "function"
    },
    {
      "inputs": [
        {
          "internalType": "uint256",
          "name": "_candidateId",
          "type": "uint256"
        },
        {
          "internalType": "bytes32[]",
          "name": "hexProof",
          "type": "bytes32[]"
        }
      ],
      "name": "vote",
      "outputs": [],
      "stateMutability": "nonpayable",
      "type": "function"
    },
    {
      "inputs": [
        {
          "internalType": "address",
          "name": "",
          "type": "address"
        }
      ],
      "name": "voted",
      "outputs": [
        {
          "internalType": "bool",
          "name": "",
          "type": "bool"
        }
      ],
      "stateMutability": "view",
      "type": "function"
    },
    {
      "inputs": [
        {
          "internalType": "uint256",
          "name": "",
          "type": "uint256"
        }
      ],
      "name": "winnerIds",
      "outputs": [
        {
          "internalType": "uint256",
          "name": "",
          "type": "uint256"
        }
      ],
      "stateMutability": "view",
      "type": "function"
    },
    {
      "inputs": [],
      "name": "winnerVoteCount",
      "outputs": [
        {
          "internalType": "uint256",
          "name": "",
          "type": "uint256"
        }
      ],
      "stateMutability": "view",
      "type": "function"
    }
  ],
  "bytecode": "0x60806040523480156200001157600080fd5b5060405162002d6f38038062002d6f8339818101604052810190620000379190620000f5565b60008060006101000a81548160ff02191690831515021790555033600060016101000a81548173ffffffffffffffffffffffffffffffffffffffff021916908373ffffffffffffffffffffffffffffffffffffffff1602179055506000600a60006101000a81548160ff0219169083151502179055506000600a60016101000a81548160ff0219169083151502179055506000600481905550806003819055505062000145565b600081519050620000ef816200012b565b92915050565b6000602082840312156200010857600080fd5b60006200011884828501620000de565b91505092915050565b6000819050919050565b620001368162000121565b81146200014257600080fd5b50565b612c1a80620001556000396000f3fe608060405234801561001057600080fd5b50600436106101585760003560e01c80637284e416116100c3578063b8a20ed01161007c578063b8a20ed01461035c578063c9b0a2a71461038c578063e8101869146103aa578063ebf0c717146103c6578063f0a47f78146103e4578063fd27419b1461041457610158565b80637284e416146102ab57806379bf09ab146102c95780638456cb59146102e557806387f7b975146102ef57806395adfc5e1461030d578063aec2ccae1461032c57610158565b8063403d131211610115578063403d13121461020f578063477383f31461023f57806352ff68461461025d57806359f78468146102795780635c975abb1461028357806362d73eb8146102a157610158565b806309218e911461015d5780632d35a8a21461017b5780632f22850d146101995780633477ee2e146101b75780633bc6e309146101e95780633f4ba83a14610205575b600080fd5b610165610430565b6040516101729190612311565b60405180910390f35b6101836104be565b6040516101909190612493565b60405180910390f35b6101a16104c4565b6040516101ae9190612493565b60405180910390f35b6101d160048036038101906101cc9190611efd565b6104ca565b6040516101e09392919061250e565b60405180910390f35b61020360048036038101906101fe9190611e14565b61057c565b005b61020d61070a565b005b61022960048036038101906102249190611efd565b6107e2565b6040516102369190612493565b60405180910390f35b610247610806565b60405161025491906122db565b60405180910390f35b61027760048036038101906102729190611e14565b610819565b005b6102816109a7565b005b61028b610ae2565b60405161029891906122db565b60405180910390f35b6102a9610af8565b005b6102b3610bed565b6040516102c09190612311565b60405180910390f35b6102e360048036038101906102de9190611e91565b610c7b565b005b6102ed610f0f565b005b6102f7610fe7565b6040516103049190612290565b60405180910390f35b61031561100d565b6040516103239291906124ae565b60405180910390f35b61034660048036038101906103419190611e14565b61115b565b60405161035391906122db565b60405180910390f35b61037660048036038101906103719190611e3d565b61117b565b60405161038391906122db565b60405180910390f35b610394611192565b6040516103a191906122db565b60405180910390f35b6103c460048036038101906103bf9190611e14565b6111a5565b005b6103ce6112c1565b6040516103db91906122f6565b60405180910390f35b6103fe60048036038101906103f99190611e14565b6112c7565b60405161040b91906122db565b60405180910390f35b61042e60048036038101906104299190611f26565b6112e7565b005b6001805461043d90612743565b80601f016020809104026020016040519081016040528092919081815260200182805461046990612743565b80156104b65780601f1061048b576101008083540402835291602001916104b6565b820191906000526020600020905b81548152906001019060200180831161049957829003601f168201915b505050505081565b60045481565b60095481565b60076020528060005260406000206000915090508060000154908060010180546104f390612743565b80601f016020809104026020016040519081016040528092919081815260200182805461051f90612743565b801561056c5780601f106105415761010080835404028352916020019161056c565b820191906000526020600020905b81548152906001019060200180831161054f57829003601f168201915b5050505050908060020154905083565b610584610ae2565b156105c4576040517f08c379a00000000000000000000000000000000000000000000000000000000081526004016105bb90612393565b60405180910390fd5b3373ffffffffffffffffffffffffffffffffffffffff16600060019054906101000a900473ffffffffffffffffffffffffffffffffffffffff1673ffffffffffffffffffffffffffffffffffffffff161480610670575060011515600560003373ffffffffffffffffffffffffffffffffffffffff1673ffffffffffffffffffffffffffffffffffffffff16815260200190815260200160002060009054906101000a900460ff161515145b6106af576040517f08c379a00000000000000000000000000000000000000000000000000000000081526004016106a690612373565b60405180910390fd5b6001600560008373ffffffffffffffffffffffffffffffffffffffff1673ffffffffffffffffffffffffffffffffffffffff16815260200190815260200160002060006101000a81548160ff02191690831515021790555050565b600060019054906101000a900473ffffffffffffffffffffffffffffffffffffffff1673ffffffffffffffffffffffffffffffffffffffff163373ffffffffffffffffffffffffffffffffffffffff161461079a576040517f08c379a000000000000000000000000000000000000000000000000000000000815260040161079190612433565b60405180910390fd5b6107a2611445565b7f5db9ee0a495bf2e6ff9c91a7834c1ba4fdd244a5e8aa4e537bd38aeae4b073aa6107cb6114e6565b6040516107d89190612290565b60405180910390a1565b600881815481106107f257600080fd5b906000526020600020016000915090505481565b600a60019054906101000a900460ff1681565b610821610ae2565b15610861576040517f08c379a000000000000000000000000000000000000000000000000000000000815260040161085890612393565b60405180910390fd5b3373ffffffffffffffffffffffffffffffffffffffff16600060019054906101000a900473ffffffffffffffffffffffffffffffffffffffff1673ffffffffffffffffffffffffffffffffffffffff16148061090d575060011515600560003373ffffffffffffffffffffffffffffffffffffffff1673ffffffffffffffffffffffffffffffffffffffff16815260200190815260200160002060009054906101000a900460ff161515145b61094c576040517f08c379a000000000000000000000000000000000000000000000000000000000815260040161094390612373565b60405180910390fd5b6000600560008373ffffffffffffffffffffffffffffffffffffffff1673ffffffffffffffffffffffffffffffffffffffff16815260200190815260200160002060006101000a81548160ff02191690831515021790555050565b6109af610ae2565b156109ef576040517f08c379a00000000000000000000000000000000000000000000000000000000081526004016109e690612393565b60405180910390fd5b600060019054906101000a900473ffffffffffffffffffffffffffffffffffffffff1673ffffffffffffffffffffffffffffffffffffffff163373ffffffffffffffffffffffffffffffffffffffff1614610a7f576040517f08c379a0000000000000000000000000000000000000000000000000000000008152600401610a7690612433565b60405180910390fd5b6001600a60016101000a81548160ff021916908315150217905550610aa26114ee565b50507f38d8ebbbb4803f034f19b4cf2f19bfb84cc5dea177696c1f80a19357d5602e046008600954604051610ad89291906122ab565b60405180910390a1565b60008060009054906101000a900460ff16905090565b610b00610ae2565b15610b40576040517f08c379a0000000000000000000000000000000000000000000000000000000008152600401610b3790612393565b60405180910390fd5b600060019054906101000a900473ffffffffffffffffffffffffffffffffffffffff1673ffffffffffffffffffffffffffffffffffffffff163373ffffffffffffffffffffffffffffffffffffffff1614610bd0576040517f08c379a0000000000000000000000000000000000000000000000000000000008152600401610bc790612433565b60405180910390fd5b6001600a60006101000a81548160ff021916908315150217905550565b60028054610bfa90612743565b80601f0160208091040260200160405190810160405280929190818152602001828054610c2690612743565b8015610c735780601f10610c4857610100808354040283529160200191610c73565b820191906000526020600020905b815481529060010190602001808311610c5657829003601f168201915b505050505081565b610c83610ae2565b15610cc3576040517f08c379a0000000000000000000000000000000000000000000000000000000008152600401610cba90612393565b60405180910390fd5b6000815111610d07576040517f08c379a0000000000000000000000000000000000000000000000000000000008152600401610cfe906123d3565b60405180910390fd5b3373ffffffffffffffffffffffffffffffffffffffff16600060019054906101000a900473ffffffffffffffffffffffffffffffffffffffff1673ffffffffffffffffffffffffffffffffffffffff161480610db3575060011515600560003373ffffffffffffffffffffffffffffffffffffffff1673ffffffffffffffffffffffffffffffffffffffff16815260200190815260200160002060009054906101000a900460ff161515145b610df2576040517f08c379a0000000000000000000000000000000000000000000000000000000008152600401610de990612373565b60405180910390fd5b81600081518110610e2c577f4e487b7100000000000000000000000000000000000000000000000000000000600052603260045260246000fd5b602002602001015160019080519060200190610e49929190611b19565b5081600181518110610e84577f4e487b7100000000000000000000000000000000000000000000000000000000600052603260045260246000fd5b602002602001015160029080519060200190610ea1929190611b19565b5060005b8151811015610f0a57610ef7828281518110610eea577f4e487b7100000000000000000000000000000000000000000000000000000000600052603260045260246000fd5b60200260200101516116aa565b8080610f02906127c0565b915050610ea5565b505050565b600060019054906101000a900473ffffffffffffffffffffffffffffffffffffffff1673ffffffffffffffffffffffffffffffffffffffff163373ffffffffffffffffffffffffffffffffffffffff1614610f9f576040517f08c379a0000000000000000000000000000000000000000000000000000000008152600401610f9690612433565b60405180910390fd5b610fa76117af565b7f62e78cea01bee320cd4e420270b5ea74000d11b0c9f74754ebdbfc544b05a258610fd06114e6565b604051610fdd9190612290565b60405180910390a1565b600060019054906101000a900473ffffffffffffffffffffffffffffffffffffffff1681565b600060603373ffffffffffffffffffffffffffffffffffffffff16600060019054906101000a900473ffffffffffffffffffffffffffffffffffffffff1673ffffffffffffffffffffffffffffffffffffffff1614806110bd575060011515600560003373ffffffffffffffffffffffffffffffffffffffff1673ffffffffffffffffffffffffffffffffffffffff16815260200190815260200160002060009054906101000a900460ff161515145b6110fc576040517f08c379a00000000000000000000000000000000000000000000000000000000081526004016110f390612353565b60405180910390fd5b60095460088080548060200260200160405190810160405280929190818152602001828054801561114c57602002820191906000526020600020905b815481526020019060010190808311611138575b50505050509050915091509091565b60066020528060005260406000206000915054906101000a900460ff1681565b600061118a8360035484611851565b905092915050565b600a60009054906101000a900460ff1681565b6111ad610ae2565b156111ed576040517f08c379a00000000000000000000000000000000000000000000000000000000081526004016111e490612393565b60405180910390fd5b600060019054906101000a900473ffffffffffffffffffffffffffffffffffffffff1673ffffffffffffffffffffffffffffffffffffffff163373ffffffffffffffffffffffffffffffffffffffff161461127d576040517f08c379a000000000000000000000000000000000000000000000000000000000815260040161127490612433565b60405180910390fd5b80600060016101000a81548173ffffffffffffffffffffffffffffffffffffffff021916908373ffffffffffffffffffffffffffffffffffffffff16021790555050565b60035481565b60056020528060005260406000206000915054906101000a900460ff1681565b600a60019054906101000a900460ff1615611337576040517f08c379a000000000000000000000000000000000000000000000000000000000815260040161132e906123f3565b60405180910390fd5b600a60009054906101000a900460ff16611386576040517f08c379a000000000000000000000000000000000000000000000000000000000815260040161137d906123b3565b60405180910390fd5b6113f7828280806020026020016040519081016040528093929190818152602001838360200280828437600081840152601f19601f82011690508083019250505050505050336040516020016113dc9190612275565b6040516020818303038152906040528051906020012061117b565b611436576040517f08c379a000000000000000000000000000000000000000000000000000000000815260040161142d90612473565b60405180910390fd5b6114408333611868565b505050565b61144d610ae2565b61148c576040517f08c379a000000000000000000000000000000000000000000000000000000000815260040161148390612333565b60405180910390fd5b60008060006101000a81548160ff0219169083151502179055507f5db9ee0a495bf2e6ff9c91a7834c1ba4fdd244a5e8aa4e537bd38aeae4b073aa6114cf6114e6565b6040516114dc9190612290565b60405180910390a1565b600033905090565b600060606114fa610ae2565b1561153a576040517f08c379a000000000000000000000000000000000000000000000000000000000815260040161153190612393565b60405180910390fd5b60005b60045481101561164a57600954600760008381526020019081526020016000206002015411156115d6576007600082815260200190815260200160002060020154600981905550600860006115929190611b9f565b600860076000838152602001908152602001600020600001549080600181540180825580915050600190039060005260206000200160009091909190915055611637565b60095460076000838152602001908152602001600020600201541415611636576008600760008381526020019081526020016000206000015490806001815401808255809150506001900390600052602060002001600090919091909150555b5b8080611642906127c0565b91505061153d565b5060095460088080548060200260200160405190810160405280929190818152602001828054801561169b57602002820191906000526020600020905b815481526020019060010190808311611687575b50505050509050915091509091565b6116b2610ae2565b156116f2576040517f08c379a00000000000000000000000000000000000000000000000000000000081526004016116e990612393565b60405180910390fd5b60405180606001604052806004548152602001828152602001600081525060076000600454815260200190815260200160002060008201518160000155602082015181600101908051906020019061174b929190611b19565b50604082015181600201559050507f78d27a3c512303f604b46bc28acc0ca45abe6420172a017c5a6dc585821eb6396004548260405161178c9291906124de565b60405180910390a1600460008154809291906117a7906127c0565b919050555050565b6117b7610ae2565b156117f7576040517f08c379a00000000000000000000000000000000000000000000000000000000081526004016117ee90612393565b60405180910390fd5b60016000806101000a81548160ff0219169083151502179055507f62e78cea01bee320cd4e420270b5ea74000d11b0c9f74754ebdbfc544b05a25861183a6114e6565b6040516118479190612290565b60405180910390a1565b60008261185e8584611a67565b1490509392505050565b611870610ae2565b156118b0576040517f08c379a00000000000000000000000000000000000000000000000000000000081526004016118a790612393565b60405180910390fd5b81600454811080156118c3575060008110155b611902576040517f08c379a00000000000000000000000000000000000000000000000000000000081526004016118f990612413565b60405180910390fd5b600660008373ffffffffffffffffffffffffffffffffffffffff1673ffffffffffffffffffffffffffffffffffffffff16815260200190815260200160002060009054906101000a900460ff161561198f576040517f08c379a000000000000000000000000000000000000000000000000000000000815260040161198690612453565b60405180910390fd5b6001600660008473ffffffffffffffffffffffffffffffffffffffff1673ffffffffffffffffffffffffffffffffffffffff16815260200190815260200160002060006101000a81548160ff021916908315150217905550600760008481526020019081526020016000206002016000815480929190611a0e906127c0565b91905055507fd3ebd88818d034d26c5d98bcef9c7c45207130238e76e8cf0b3ba00e906851bf836007600086815260200190815260200160002060020154604051611a5a92919061254c565b60405180910390a1505050565b60008082905060005b8451811015611af7576000858281518110611ab4577f4e487b7100000000000000000000000000000000000000000000000000000000600052603260045260246000fd5b60200260200101519050808311611ad657611acf8382611b02565b9250611ae3565b611ae08184611b02565b92505b508080611aef906127c0565b915050611a70565b508091505092915050565b600082600052816020526040600020905092915050565b828054611b2590612743565b90600052602060002090601f016020900481019282611b475760008555611b8e565b82601f10611b6057805160ff1916838001178555611b8e565b82800160010185558215611b8e579182015b82811115611b8d578251825591602001919060010190611b72565b5b509050611b9b9190611bc0565b5090565b5080546000825590600052602060002090810190611bbd9190611bc0565b50565b5b80821115611bd9576000816000905550600101611bc1565b5090565b6000611bf0611beb8461259a565b612575565b90508083825260208201905082856020860282011115611c0f57600080fd5b60005b85811015611c3f5781611c258882611dc0565b845260208401935060208301925050600181019050611c12565b5050509392505050565b6000611c5c611c57846125c6565b612575565b90508083825260208201905082856020860282011115611c7b57600080fd5b60005b85811015611cc557813567ffffffffffffffff811115611c9d57600080fd5b808601611caa8982611dd5565b85526020850194506020840193505050600181019050611c7e565b5050509392505050565b6000611ce2611cdd846125f2565b612575565b905082815260208101848484011115611cfa57600080fd5b611d05848285612701565b509392505050565b600081359050611d1c81612b9f565b92915050565b60008083601f840112611d3457600080fd5b8235905067ffffffffffffffff811115611d4d57600080fd5b602083019150836020820283011115611d6557600080fd5b9250929050565b600082601f830112611d7d57600080fd5b8135611d8d848260208601611bdd565b91505092915050565b600082601f830112611da757600080fd5b8135611db7848260208601611c49565b91505092915050565b600081359050611dcf81612bb6565b92915050565b600082601f830112611de657600080fd5b8135611df6848260208601611ccf565b91505092915050565b600081359050611e0e81612bcd565b92915050565b600060208284031215611e2657600080fd5b6000611e3484828501611d0d565b91505092915050565b60008060408385031215611e5057600080fd5b600083013567ffffffffffffffff811115611e6a57600080fd5b611e7685828601611d6c565b9250506020611e8785828601611dc0565b9150509250929050565b60008060408385031215611ea457600080fd5b600083013567ffffffffffffffff811115611ebe57600080fd5b611eca85828601611d96565b925050602083013567ffffffffffffffff811115611ee757600080fd5b611ef385828601611d96565b9150509250929050565b600060208284031215611f0f57600080fd5b6000611f1d84828501611dff565b91505092915050565b600080600060408486031215611f3b57600080fd5b6000611f4986828701611dff565b935050602084013567ffffffffffffffff811115611f6657600080fd5b611f7286828701611d22565b92509250509250925092565b6000611f8a8383612257565b60208301905092915050565b611f9f816126af565b82525050565b611fb6611fb1826126af565b612809565b82525050565b6000611fc782612648565b611fd18185612683565b9350611fdc83612623565b8060005b8381101561200d578151611ff48882611f7e565b9750611fff83612669565b925050600181019050611fe0565b5085935050505092915050565b600061202582612653565b61202f8185612683565b935061203a83612633565b8060005b838110156120725761204f826128ba565b6120598882611f7e565b975061206483612676565b92505060018101905061203e565b5085935050505092915050565b612088816126c1565b82525050565b612097816126cd565b82525050565b60006120a88261265e565b6120b28185612694565b93506120c2818560208601612710565b6120cb816128cd565b840191505092915050565b60006120e3601483612694565b91506120ee826128f8565b602082019050919050565b6000612106602e83612694565b915061211182612921565b604082019050919050565b6000612129602d83612694565b915061213482612970565b604082019050919050565b600061214c601083612694565b9150612157826129bf565b602082019050919050565b600061216f603083612694565b915061217a826129e8565b604082019050919050565b6000612192602183612694565b915061219d82612a37565b604082019050919050565b60006121b5601e83612694565b91506121c082612a86565b602082019050919050565b60006121d8601a83612694565b91506121e382612aaf565b602082019050919050565b60006121fb602483612694565b915061220682612ad8565b604082019050919050565b600061221e601883612694565b915061222982612b27565b602082019050919050565b6000612241602d83612694565b915061224c82612b50565b604082019050919050565b612260816126f7565b82525050565b61226f816126f7565b82525050565b60006122818284611fa5565b60148201915081905092915050565b60006020820190506122a56000830184611f96565b92915050565b600060408201905081810360008301526122c5818561201a565b90506122d46020830184612266565b9392505050565b60006020820190506122f0600083018461207f565b92915050565b600060208201905061230b600083018461208e565b92915050565b6000602082019050818103600083015261232b818461209d565b905092915050565b6000602082019050818103600083015261234c816120d6565b9050919050565b6000602082019050818103600083015261236c816120f9565b9050919050565b6000602082019050818103600083015261238c8161211c565b9050919050565b600060208201905081810360008301526123ac8161213f565b9050919050565b600060208201905081810360008301526123cc81612162565b9050919050565b600060208201905081810360008301526123ec81612185565b9050919050565b6000602082019050818103600083015261240c816121a8565b9050919050565b6000602082019050818103600083015261242c816121cb565b9050919050565b6000602082019050818103600083015261244c816121ee565b9050919050565b6000602082019050818103600083015261246c81612211565b9050919050565b6000602082019050818103600083015261248c81612234565b9050919050565b60006020820190506124a86000830184612266565b92915050565b60006040820190506124c36000830185612266565b81810360208301526124d58184611fbc565b90509392505050565b60006040820190506124f36000830185612266565b8181036020830152612505818461209d565b90509392505050565b60006060820190506125236000830186612266565b8181036020830152612535818561209d565b90506125446040830184612266565b949350505050565b60006040820190506125616000830185612266565b61256e6020830184612266565b9392505050565b600061257f612590565b905061258b828261278f565b919050565b6000604051905090565b600067ffffffffffffffff8211156125b5576125b461288b565b5b602082029050602081019050919050565b600067ffffffffffffffff8211156125e1576125e061288b565b5b602082029050602081019050919050565b600067ffffffffffffffff82111561260d5761260c61288b565b5b612616826128cd565b9050602081019050919050565b6000819050602082019050919050565b60008190508160005260206000209050919050565b600081519050919050565b600081549050919050565b600081519050919050565b6000602082019050919050565b6000600182019050919050565b600082825260208201905092915050565b600082825260208201905092915050565b6000819050919050565b60006126ba826126d7565b9050919050565b60008115159050919050565b6000819050919050565b600073ffffffffffffffffffffffffffffffffffffffff82169050919050565b6000819050919050565b82818337600083830152505050565b60005b8381101561272e578082015181840152602081019050612713565b8381111561273d576000848401525b50505050565b6000600282049050600182168061275b57607f821691505b6020821081141561276f5761276e61285c565b5b50919050565b6000612788612783836128eb565b6126a5565b9050919050565b612798826128cd565b810181811067ffffffffffffffff821117156127b7576127b661288b565b5b80604052505050565b60006127cb826126f7565b91507fffffffffffffffffffffffffffffffffffffffffffffffffffffffffffffffff8214156127fe576127fd61282d565b5b600182019050919050565b60006128148261281b565b9050919050565b6000612826826128de565b9050919050565b7f4e487b7100000000000000000000000000000000000000000000000000000000600052601160045260246000fd5b7f4e487b7100000000000000000000000000000000000000000000000000000000600052602260045260246000fd5b7f4e487b7100000000000000000000000000000000000000000000000000000000600052604160045260246000fd5b60006128c68254612775565b9050919050565b6000601f19601f8301169050919050565b60008160601b9050919050565b60008160001c9050919050565b7f5061757361626c653a206e6f7420706175736564000000000000000000000000600082015250565b7f6f6e6c792074656163686572732f63686169726d616e2063616e206d616b652060008201527f726573756c7473207075626c6963000000000000000000000000000000000000602082015250565b7f6f6e6c792074656163686572732f63686169726d616e2063616e2063616c6c2060008201527f746869732066756e6374696f6e00000000000000000000000000000000000000602082015250565b7f5061757361626c653a2070617573656400000000000000000000000000000000600082015250565b7f506c6561736520636865636b206261636b2c2074686520656c656374696f6e2060008201527f686173206e6f7420737461727465642100000000000000000000000000000000602082015250565b7f61746c65617374206f6e6520706572736f6e2073686f756c6420636f6e74657360008201527f7400000000000000000000000000000000000000000000000000000000000000602082015250565b7f536f7272792c2074686520456c656374696f6e2068617320656e646564210000600082015250565b7f496e76616c69642063616e64696461746520746f20566f746521000000000000600082015250565b7f6f6e6c792063686169726d616e2063616e2063616c6c20746869732066756e6360008201527f74696f6e00000000000000000000000000000000000000000000000000000000602082015250565b7f566f7465722068617320616c726561647920566f746564210000000000000000600082015250565b7f736f7272792c206f6e6c79207374616b65686f6c646572732061726520656c6960008201527f6769626c6520746f20766f746500000000000000000000000000000000000000602082015250565b612ba8816126af565b8114612bb357600080fd5b50565b612bbf816126cd565b8114612bca57600080fd5b50565b612bd6816126f7565b8114612be157600080fd5b5056fea264697066735822122033c2e5fe36be4ce9c932497f4b23328a9a16d32b8ba1b1d04825d7df6688c2db64736f6c63430008040033",
  "linkReferences": {},
  "deployedLinkReferences": {}
}