{
  "_format": "hh-sol-artifact-1",
  "contractName": "ZuriElection",
  "sourceName": "contracts/ZuriElection.sol",
  "abi": [
    {
      "inputs": [],
      "stateMutability": "nonpayable",
      "type": "constructor"
    },
    {
      "inputs": [],
      "name": "ElectionHasEnded",
      "type": "error"
    },
    {
      "inputs": [],
      "name": "ElectionNotStarted",
      "type": "error"
    },
    {
      "anonymous": false,
      "inputs": [
        {
          "indexed": false,
          "internalType": "address",
          "name": "previousAdmin",
          "type": "address"
        },
        {
          "indexed": false,
          "internalType": "address",
          "name": "newAdmin",
          "type": "address"
        }
      ],
      "name": "AdminChanged",
      "type": "event"
    },
    {
      "anonymous": false,
      "inputs": [
        {
          "indexed": true,
          "internalType": "address",
          "name": "beacon",
          "type": "address"
        }
      ],
      "name": "BeaconUpgraded",
      "type": "event"
    },
    {
      "anonymous": false,
      "inputs": [
        {
          "indexed": false,
          "internalType": "uint256",
          "name": "_candidateId",
          "type": "uint256"
        },
        {
          "indexed": false,
          "internalType": "string",
          "name": "_candidateName",
          "type": "string"
        }
      ],
      "name": "CandidateCreated",
      "type": "event"
    },
    {
      "anonymous": false,
      "inputs": [
        {
          "indexed": false,
          "internalType": "uint256[]",
          "name": "_winnerIds",
          "type": "uint256[]"
        },
        {
          "indexed": false,
          "internalType": "uint256",
          "name": "_winnerVoteCount",
          "type": "uint256"
        }
      ],
      "name": "ElectionEnded",
      "type": "event"
    },
    {
      "anonymous": false,
      "inputs": [
        {
          "indexed": false,
          "internalType": "address",
          "name": "account",
          "type": "address"
        }
      ],
      "name": "Paused",
      "type": "event"
    },
    {
      "anonymous": false,
      "inputs": [
        {
          "indexed": false,
          "internalType": "address",
          "name": "account",
          "type": "address"
        }
      ],
      "name": "Unpaused",
      "type": "event"
    },
    {
      "anonymous": false,
      "inputs": [
        {
          "indexed": true,
          "internalType": "address",
          "name": "implementation",
          "type": "address"
        }
      ],
      "name": "Upgraded",
      "type": "event"
    },
    {
      "anonymous": false,
      "inputs": [
        {
          "indexed": false,
          "internalType": "uint256",
          "name": "_candidateId",
          "type": "uint256"
        },
        {
          "indexed": false,
          "internalType": "uint256",
          "name": "_candidateVoteCount",
          "type": "uint256"
        }
      ],
      "name": "VoteForCandidate",
      "type": "event"
    },
    {
      "inputs": [],
      "name": "Active",
      "outputs": [
        {
          "internalType": "bool",
          "name": "",
          "type": "bool"
        }
      ],
      "stateMutability": "view",
      "type": "function"
    },
    {
      "inputs": [],
      "name": "Ended",
      "outputs": [
        {
          "internalType": "bool",
          "name": "",
          "type": "bool"
        }
      ],
      "stateMutability": "view",
      "type": "function"
    },
    {
      "inputs": [
        {
          "internalType": "address",
          "name": "_newTeacher",
          "type": "address"
        }
      ],
      "name": "addTeacher",
      "outputs": [],
      "stateMutability": "nonpayable",
      "type": "function"
    },
    {
      "inputs": [
        {
          "internalType": "uint256",
          "name": "",
          "type": "uint256"
        }
      ],
      "name": "candidates",
      "outputs": [
        {
          "internalType": "uint256",
          "name": "id",
          "type": "uint256"
        },
        {
          "internalType": "string",
          "name": "name",
          "type": "string"
        },
        {
          "internalType": "uint256",
          "name": "voteCount",
          "type": "uint256"
        }
      ],
      "stateMutability": "view",
      "type": "function"
    },
    {
      "inputs": [],
      "name": "candidatesCount",
      "outputs": [
        {
          "internalType": "uint256",
          "name": "",
          "type": "uint256"
        }
      ],
      "stateMutability": "view",
      "type": "function"
    },
    {
      "inputs": [],
      "name": "chairman",
      "outputs": [
        {
          "internalType": "address",
          "name": "",
          "type": "address"
        }
      ],
      "stateMutability": "view",
      "type": "function"
    },
    {
      "inputs": [
        {
          "internalType": "address",
          "name": "_newChairman",
          "type": "address"
        }
      ],
      "name": "changeChairman",
      "outputs": [],
      "stateMutability": "nonpayable",
      "type": "function"
    },
    {
      "inputs": [],
      "name": "description",
      "outputs": [
        {
          "internalType": "string",
          "name": "",
          "type": "string"
        }
      ],
      "stateMutability": "view",
      "type": "function"
    },
    {
      "inputs": [],
      "name": "endElection",
      "outputs": [],
      "stateMutability": "nonpayable",
      "type": "function"
    },
    {
      "inputs": [
        {
          "internalType": "bytes32",
          "name": "merkleRoot",
          "type": "bytes32"
        }
      ],
      "name": "initialize",
      "outputs": [],
      "stateMutability": "nonpayable",
      "type": "function"
    },
    {
      "inputs": [
        {
          "internalType": "bytes32[]",
          "name": "proof",
          "type": "bytes32[]"
        },
        {
          "internalType": "bytes32",
          "name": "leaf",
          "type": "bytes32"
        }
      ],
      "name": "isValid",
      "outputs": [
        {
          "internalType": "bool",
          "name": "",
          "type": "bool"
        }
      ],
      "stateMutability": "view",
      "type": "function"
    },
    {
      "inputs": [],
      "name": "pause",
      "outputs": [],
      "stateMutability": "nonpayable",
      "type": "function"
    },
    {
      "inputs": [],
      "name": "paused",
      "outputs": [
        {
          "internalType": "bool",
          "name": "",
          "type": "bool"
        }
      ],
      "stateMutability": "view",
      "type": "function"
    },
    {
      "inputs": [],
      "name": "position",
      "outputs": [
        {
          "internalType": "string",
          "name": "",
          "type": "string"
        }
      ],
      "stateMutability": "view",
      "type": "function"
    },
    {
      "inputs": [],
      "name": "proxiableUUID",
      "outputs": [
        {
          "internalType": "bytes32",
          "name": "",
          "type": "bytes32"
        }
      ],
      "stateMutability": "view",
      "type": "function"
    },
    {
      "inputs": [
        {
          "internalType": "address",
          "name": "_teacher",
          "type": "address"
        }
      ],
      "name": "removeTeacher",
      "outputs": [],
      "stateMutability": "nonpayable",
      "type": "function"
    },
    {
      "inputs": [],
      "name": "root",
      "outputs": [
        {
          "internalType": "bytes32",
          "name": "",
          "type": "bytes32"
        }
      ],
      "stateMutability": "view",
      "type": "function"
    },
    {
      "inputs": [],
      "name": "startElection",
      "outputs": [],
      "stateMutability": "nonpayable",
      "type": "function"
    },
    {
      "inputs": [
        {
          "internalType": "address",
          "name": "",
          "type": "address"
        }
      ],
      "name": "teachers",
      "outputs": [
        {
          "internalType": "bool",
          "name": "",
          "type": "bool"
        }
      ],
      "stateMutability": "view",
      "type": "function"
    },
    {
      "inputs": [],
      "name": "unpause",
      "outputs": [],
      "stateMutability": "nonpayable",
      "type": "function"
    },
    {
      "inputs": [
        {
          "internalType": "address",
          "name": "newImplementation",
          "type": "address"
        }
      ],
      "name": "upgradeTo",
      "outputs": [],
      "stateMutability": "nonpayable",
      "type": "function"
    },
    {
      "inputs": [
        {
          "internalType": "address",
          "name": "newImplementation",
          "type": "address"
        },
        {
          "internalType": "bytes",
          "name": "data",
          "type": "bytes"
        }
      ],
      "name": "upgradeToAndCall",
      "outputs": [],
      "stateMutability": "payable",
      "type": "function"
    },
    {
      "inputs": [
        {
          "internalType": "uint256",
          "name": "_candidateId",
          "type": "uint256"
        },
        {
          "internalType": "bytes32[]",
          "name": "hexProof",
          "type": "bytes32[]"
        }
      ],
      "name": "vote",
      "outputs": [],
      "stateMutability": "nonpayable",
      "type": "function"
    },
    {
      "inputs": [
        {
          "internalType": "address",
          "name": "",
          "type": "address"
        }
      ],
      "name": "voted",
      "outputs": [
        {
          "internalType": "bool",
          "name": "",
          "type": "bool"
        }
      ],
      "stateMutability": "view",
      "type": "function"
    },
    {
      "inputs": [
        {
          "internalType": "uint256",
          "name": "",
          "type": "uint256"
        }
      ],
      "name": "winnerIds",
      "outputs": [
        {
          "internalType": "uint256",
          "name": "",
          "type": "uint256"
        }
      ],
      "stateMutability": "view",
      "type": "function"
    },
    {
      "inputs": [],
      "name": "winnerVoteCount",
      "outputs": [
        {
          "internalType": "uint256",
          "name": "",
          "type": "uint256"
        }
      ],
      "stateMutability": "view",
      "type": "function"
    }
  ],
  "bytecode": "0x60a06040523073ffffffffffffffffffffffffffffffffffffffff1660809073ffffffffffffffffffffffffffffffffffffffff168152503480156200004457600080fd5b50600060019054906101000a900460ff166200006f5760008054906101000a900460ff161562000080565b6200007f6200013c60201b60201c565b5b620000c2576040517f08c379a0000000000000000000000000000000000000000000000000000000008152600401620000b99062000204565b60405180910390fd5b60008060019054906101000a900460ff16159050801562000113576001600060016101000a81548160ff02191690831515021790555060016000806101000a81548160ff0219169083151502179055505b8015620001355760008060016101000a81548160ff0219169083151502179055505b5062000226565b600062000154306200015a60201b620016e11760201c565b15905090565b6000808273ffffffffffffffffffffffffffffffffffffffff163b119050919050565b600082825260208201905092915050565b7f496e697469616c697a61626c653a20636f6e747261637420697320616c72656160008201527f647920696e697469616c697a6564000000000000000000000000000000000000602082015250565b6000620001ec602e836200017d565b9150620001f9826200018e565b604082019050919050565b600060208201905081810360008301526200021f81620001dd565b9050919050565b60805161371e6200025e60003960008181610723015281816107b201528181610b4901528181610bd80152610c88015261371e6000f3fe6080604052600436106101815760003560e01c80635c975abb116100d1578063aec2ccae1161008a578063e810186911610064578063e81018691461051b578063ebf0c71714610544578063f0a47f781461056f578063fd27419b146105ac57610181565b8063aec2ccae14610476578063b8a20ed0146104b3578063c9b0a2a7146104f057610181565b80635c975abb1461039e57806362d73eb8146103c95780637284e416146103e05780638456cb591461040b57806387f7b975146104225780639498bd711461044d57610181565b80633f4ba83a1161013e5780634f1ef286116101185780634f1ef2861461031757806352d1902d1461033357806352ff68461461035e57806359f784681461038757610181565b80633f4ba83a14610298578063403d1312146102af578063477383f3146102ec57610181565b806309218e91146101865780632d35a8a2146101b15780632f22850d146101dc5780633477ee2e146102075780633659cfe6146102465780633bc6e3091461026f575b600080fd5b34801561019257600080fd5b5061019b6105d5565b6040516101a891906123e0565b60405180910390f35b3480156101bd57600080fd5b506101c6610663565b6040516101d3919061241b565b60405180910390f35b3480156101e857600080fd5b506101f1610669565b6040516101fe919061241b565b60405180910390f35b34801561021357600080fd5b5061022e60048036038101906102299190612476565b61066f565b60405161023d939291906124a3565b60405180910390f35b34801561025257600080fd5b5061026d6004803603810190610268919061253f565b610721565b005b34801561027b57600080fd5b506102966004803603810190610291919061253f565b6108aa565b005b3480156102a457600080fd5b506102ad610a38565b005b3480156102bb57600080fd5b506102d660048036038101906102d19190612476565b610b10565b6040516102e3919061241b565b60405180910390f35b3480156102f857600080fd5b50610301610b34565b60405161030e9190612587565b60405180910390f35b610331600480360381019061032c91906126d7565b610b47565b005b34801561033f57600080fd5b50610348610c84565b604051610355919061274c565b60405180910390f35b34801561036a57600080fd5b506103856004803603810190610380919061253f565b610d3d565b005b34801561039357600080fd5b5061039c610ecb565b005b3480156103aa57600080fd5b506103b3611006565b6040516103c09190612587565b60405180910390f35b3480156103d557600080fd5b506103de61101d565b005b3480156103ec57600080fd5b506103f5611112565b60405161040291906123e0565b60405180910390f35b34801561041757600080fd5b506104206111a0565b005b34801561042e57600080fd5b50610437611278565b6040516104449190612776565b60405180910390f35b34801561045957600080fd5b50610474600480360381019061046f91906127bd565b61129e565b005b34801561048257600080fd5b5061049d6004803603810190610498919061253f565b6113f7565b6040516104aa9190612587565b60405180910390f35b3480156104bf57600080fd5b506104da60048036038101906104d591906128b2565b611417565b6040516104e79190612587565b60405180910390f35b3480156104fc57600080fd5b5061050561142e565b6040516105129190612587565b60405180910390f35b34801561052757600080fd5b50610542600480360381019061053d919061253f565b611441565b005b34801561055057600080fd5b5061055961155d565b604051610566919061274c565b60405180910390f35b34801561057b57600080fd5b506105966004803603810190610591919061253f565b611563565b6040516105a39190612587565b60405180910390f35b3480156105b857600080fd5b506105d360048036038101906105ce9190612969565b611583565b005b60ca80546105e2906129f8565b80601f016020809104026020016040519081016040528092919081815260200182805461060e906129f8565b801561065b5780601f106106305761010080835404028352916020019161065b565b820191906000526020600020905b81548152906001019060200180831161063e57829003601f168201915b505050505081565b60cd5481565b60d25481565b60d0602052806000526040600020600091509050806000015490806001018054610698906129f8565b80601f01602080910402602001604051908101604052809291908181526020018280546106c4906129f8565b80156107115780601f106106e657610100808354040283529160200191610711565b820191906000526020600020905b8154815290600101906020018083116106f457829003601f168201915b5050505050908060020154905083565b7f000000000000000000000000000000000000000000000000000000000000000073ffffffffffffffffffffffffffffffffffffffff163073ffffffffffffffffffffffffffffffffffffffff1614156107b0576040517f08c379a00000000000000000000000000000000000000000000000000000000081526004016107a790612a9c565b60405180910390fd5b7f000000000000000000000000000000000000000000000000000000000000000073ffffffffffffffffffffffffffffffffffffffff166107ef611704565b73ffffffffffffffffffffffffffffffffffffffff1614610845576040517f08c379a000000000000000000000000000000000000000000000000000000000815260040161083c90612b2e565b60405180910390fd5b61084e8161175b565b6108a781600067ffffffffffffffff81111561086d5761086c6125ac565b5b6040519080825280601f01601f19166020018201604052801561089f5781602001600182028036833780820191505090505b506000611836565b50565b6108b2611006565b156108f2576040517f08c379a00000000000000000000000000000000000000000000000000000000081526004016108e990612b9a565b60405180910390fd5b3373ffffffffffffffffffffffffffffffffffffffff1660c960009054906101000a900473ffffffffffffffffffffffffffffffffffffffff1673ffffffffffffffffffffffffffffffffffffffff16148061099e57506001151560ce60003373ffffffffffffffffffffffffffffffffffffffff1673ffffffffffffffffffffffffffffffffffffffff16815260200190815260200160002060009054906101000a900460ff161515145b6109dd576040517f08c379a00000000000000000000000000000000000000000000000000000000081526004016109d490612c2c565b60405180910390fd5b600160ce60008373ffffffffffffffffffffffffffffffffffffffff1673ffffffffffffffffffffffffffffffffffffffff16815260200190815260200160002060006101000a81548160ff02191690831515021790555050565b60c960009054906101000a900473ffffffffffffffffffffffffffffffffffffffff1673ffffffffffffffffffffffffffffffffffffffff163373ffffffffffffffffffffffffffffffffffffffff1614610ac8576040517f08c379a0000000000000000000000000000000000000000000000000000000008152600401610abf90612cbe565b60405180910390fd5b610ad06119a4565b7f5db9ee0a495bf2e6ff9c91a7834c1ba4fdd244a5e8aa4e537bd38aeae4b073aa610af9611a46565b604051610b069190612776565b60405180910390a1565b60d18181548110610b2057600080fd5b906000526020600020016000915090505481565b60d360019054906101000a900460ff1681565b7f000000000000000000000000000000000000000000000000000000000000000073ffffffffffffffffffffffffffffffffffffffff163073ffffffffffffffffffffffffffffffffffffffff161415610bd6576040517f08c379a0000000000000000000000000000000000000000000000000000000008152600401610bcd90612a9c565b60405180910390fd5b7f000000000000000000000000000000000000000000000000000000000000000073ffffffffffffffffffffffffffffffffffffffff16610c15611704565b73ffffffffffffffffffffffffffffffffffffffff1614610c6b576040517f08c379a0000000000000000000000000000000000000000000000000000000008152600401610c6290612b2e565b60405180910390fd5b610c748261175b565b610c8082826001611836565b5050565b60007f000000000000000000000000000000000000000000000000000000000000000073ffffffffffffffffffffffffffffffffffffffff163073ffffffffffffffffffffffffffffffffffffffff1614610d14576040517f08c379a0000000000000000000000000000000000000000000000000000000008152600401610d0b90612d50565b60405180910390fd5b7f360894a13ba1a3210667c828492db98dca3e2076cc3735a920a3ca505d382bbc60001b905090565b610d45611006565b15610d85576040517f08c379a0000000000000000000000000000000000000000000000000000000008152600401610d7c90612b9a565b60405180910390fd5b3373ffffffffffffffffffffffffffffffffffffffff1660c960009054906101000a900473ffffffffffffffffffffffffffffffffffffffff1673ffffffffffffffffffffffffffffffffffffffff161480610e3157506001151560ce60003373ffffffffffffffffffffffffffffffffffffffff1673ffffffffffffffffffffffffffffffffffffffff16815260200190815260200160002060009054906101000a900460ff161515145b610e70576040517f08c379a0000000000000000000000000000000000000000000000000000000008152600401610e6790612c2c565b60405180910390fd5b600060ce60008373ffffffffffffffffffffffffffffffffffffffff1673ffffffffffffffffffffffffffffffffffffffff16815260200190815260200160002060006101000a81548160ff02191690831515021790555050565b610ed3611006565b15610f13576040517f08c379a0000000000000000000000000000000000000000000000000000000008152600401610f0a90612b9a565b60405180910390fd5b60c960009054906101000a900473ffffffffffffffffffffffffffffffffffffffff1673ffffffffffffffffffffffffffffffffffffffff163373ffffffffffffffffffffffffffffffffffffffff1614610fa3576040517f08c379a0000000000000000000000000000000000000000000000000000000008152600401610f9a90612cbe565b60405180910390fd5b600160d360016101000a81548160ff021916908315150217905550610fc6611a4e565b50507f38d8ebbbb4803f034f19b4cf2f19bfb84cc5dea177696c1f80a19357d5602e0460d160d254604051610ffc929190612e7e565b60405180910390a1565b6000603360009054906101000a900460ff16905090565b611025611006565b15611065576040517f08c379a000000000000000000000000000000000000000000000000000000000815260040161105c90612b9a565b60405180910390fd5b60c960009054906101000a900473ffffffffffffffffffffffffffffffffffffffff1673ffffffffffffffffffffffffffffffffffffffff163373ffffffffffffffffffffffffffffffffffffffff16146110f5576040517f08c379a00000000000000000000000000000000000000000000000000000000081526004016110ec90612cbe565b60405180910390fd5b600160d360006101000a81548160ff021916908315150217905550565b60cb805461111f906129f8565b80601f016020809104026020016040519081016040528092919081815260200182805461114b906129f8565b80156111985780601f1061116d57610100808354040283529160200191611198565b820191906000526020600020905b81548152906001019060200180831161117b57829003601f168201915b505050505081565b60c960009054906101000a900473ffffffffffffffffffffffffffffffffffffffff1673ffffffffffffffffffffffffffffffffffffffff163373ffffffffffffffffffffffffffffffffffffffff1614611230576040517f08c379a000000000000000000000000000000000000000000000000000000000815260040161122790612cbe565b60405180910390fd5b611238611c0a565b7f62e78cea01bee320cd4e420270b5ea74000d11b0c9f74754ebdbfc544b05a258611261611a46565b60405161126e9190612776565b60405180910390a1565b60c960009054906101000a900473ffffffffffffffffffffffffffffffffffffffff1681565b600060019054906101000a900460ff166112c65760008054906101000a900460ff16156112cf565b6112ce611cad565b5b61130e576040517f08c379a000000000000000000000000000000000000000000000000000000000815260040161130590612f20565b60405180910390fd5b60008060019054906101000a900460ff16159050801561135e576001600060016101000a81548160ff02191690831515021790555060016000806101000a81548160ff0219169083151502179055505b3373ffffffffffffffffffffffffffffffffffffffff1660c960009054906101000a90505050600060d360006101000a81548160ff021916908315150217905550600060d360016101000a81548160ff021916908315150217905550600060cd819055506113ca611cbe565b6113d2611d0f565b80156113f35760008060016101000a81548160ff0219169083151502179055505b5050565b60cf6020528060005260406000206000915054906101000a900460ff1681565b60006114268360cc5484611d68565b905092915050565b60d360009054906101000a900460ff1681565b611449611006565b15611489576040517f08c379a000000000000000000000000000000000000000000000000000000000815260040161148090612b9a565b60405180910390fd5b60c960009054906101000a900473ffffffffffffffffffffffffffffffffffffffff1673ffffffffffffffffffffffffffffffffffffffff163373ffffffffffffffffffffffffffffffffffffffff1614611519576040517f08c379a000000000000000000000000000000000000000000000000000000000815260040161151090612cbe565b60405180910390fd5b8060c960006101000a81548173ffffffffffffffffffffffffffffffffffffffff021916908373ffffffffffffffffffffffffffffffffffffffff16021790555050565b60cc5481565b60ce6020528060005260406000206000915054906101000a900460ff1681565b60d360019054906101000a900460ff16156115d3576040517f08c379a00000000000000000000000000000000000000000000000000000000081526004016115ca90612f8c565b60405180910390fd5b60d360009054906101000a900460ff16611622576040517f08c379a00000000000000000000000000000000000000000000000000000000081526004016116199061301e565b60405180910390fd5b611693828280806020026020016040519081016040528093929190818152602001838360200280828437600081840152601f19601f82011690508083019250505050505050336040516020016116789190613086565b60405160208183030381529060405280519060200120611417565b6116d2576040517f08c379a00000000000000000000000000000000000000000000000000000000081526004016116c990613113565b60405180910390fd5b6116dc8333611d7f565b505050565b6000808273ffffffffffffffffffffffffffffffffffffffff163b119050919050565b60006117327f360894a13ba1a3210667c828492db98dca3e2076cc3735a920a3ca505d382bbc60001b611f7e565b60000160009054906101000a900473ffffffffffffffffffffffffffffffffffffffff16905090565b60c960009054906101000a900473ffffffffffffffffffffffffffffffffffffffff1673ffffffffffffffffffffffffffffffffffffffff163373ffffffffffffffffffffffffffffffffffffffff16146117eb576040517f08c379a00000000000000000000000000000000000000000000000000000000081526004016117e290612cbe565b60405180910390fd5b6117f3611006565b15611833576040517f08c379a000000000000000000000000000000000000000000000000000000000815260040161182a90612b9a565b60405180910390fd5b50565b6118627f4910fdfa16fed3260ed0e7147f7cc6da11a60208b5b9406d12a635614ffd914360001b611f88565b60000160009054906101000a900460ff16156118865761188183611f92565b61199f565b8273ffffffffffffffffffffffffffffffffffffffff166352d1902d6040518163ffffffff1660e01b8152600401602060405180830381865afa9250505080156118ee57506040513d601f19601f820116820180604052508101906118eb9190613148565b60015b61192d576040517f08c379a0000000000000000000000000000000000000000000000000000000008152600401611924906131e7565b60405180910390fd5b7f360894a13ba1a3210667c828492db98dca3e2076cc3735a920a3ca505d382bbc60001b8114611992576040517f08c379a000000000000000000000000000000000000000000000000000000000815260040161198990613279565b60405180910390fd5b5061199e83838361204b565b5b505050565b6119ac611006565b6119eb576040517f08c379a00000000000000000000000000000000000000000000000000000000081526004016119e2906132e5565b60405180910390fd5b6000603360006101000a81548160ff0219169083151502179055507f5db9ee0a495bf2e6ff9c91a7834c1ba4fdd244a5e8aa4e537bd38aeae4b073aa611a2f611a46565b604051611a3c9190612776565b60405180910390a1565b600033905090565b60006060611a5a611006565b15611a9a576040517f08c379a0000000000000000000000000000000000000000000000000000000008152600401611a9190612b9a565b60405180910390fd5b60005b60cd54811015611baa5760d25460d06000838152602001908152602001600020600201541115611b365760d060008281526020019081526020016000206002015460d28190555060d16000611af29190612309565b60d160d06000838152602001908152602001600020600001549080600181540180825580915050600190039060005260206000200160009091909190915055611b97565b60d25460d06000838152602001908152602001600020600201541415611b965760d160d060008381526020019081526020016000206000015490806001815401808255809150506001900390600052602060002001600090919091909150555b5b8080611ba290613334565b915050611a9d565b5060d25460d180805480602002602001604051908101604052809291908181526020018280548015611bfb57602002820191906000526020600020905b815481526020019060010190808311611be7575b50505050509050915091509091565b611c12611006565b15611c52576040517f08c379a0000000000000000000000000000000000000000000000000000000008152600401611c4990612b9a565b60405180910390fd5b6001603360006101000a81548160ff0219169083151502179055507f62e78cea01bee320cd4e420270b5ea74000d11b0c9f74754ebdbfc544b05a258611c96611a46565b604051611ca39190612776565b60405180910390a1565b6000611cb8306116e1565b15905090565b600060019054906101000a900460ff16611d0d576040517f08c379a0000000000000000000000000000000000000000000000000000000008152600401611d04906133ef565b60405180910390fd5b565b600060019054906101000a900460ff16611d5e576040517f08c379a0000000000000000000000000000000000000000000000000000000008152600401611d55906133ef565b60405180910390fd5b611d66612077565b565b600082611d7585846120e3565b1490509392505050565b611d87611006565b15611dc7576040517f08c379a0000000000000000000000000000000000000000000000000000000008152600401611dbe90612b9a565b60405180910390fd5b8160cd5481108015611dda575060008110155b611e19576040517f08c379a0000000000000000000000000000000000000000000000000000000008152600401611e109061345b565b60405180910390fd5b60cf60008373ffffffffffffffffffffffffffffffffffffffff1673ffffffffffffffffffffffffffffffffffffffff16815260200190815260200160002060009054906101000a900460ff1615611ea6576040517f08c379a0000000000000000000000000000000000000000000000000000000008152600401611e9d906134c7565b60405180910390fd5b600160cf60008473ffffffffffffffffffffffffffffffffffffffff1673ffffffffffffffffffffffffffffffffffffffff16815260200190815260200160002060006101000a81548160ff02191690831515021790555060d060008481526020019081526020016000206002016000815480929190611f2590613334565b91905055507fd3ebd88818d034d26c5d98bcef9c7c45207130238e76e8cf0b3ba00e906851bf8360d0600086815260200190815260200160002060020154604051611f719291906134e7565b60405180910390a1505050565b6000819050919050565b6000819050919050565b611f9b816116e1565b611fda576040517f08c379a0000000000000000000000000000000000000000000000000000000008152600401611fd190613582565b60405180910390fd5b806120077f360894a13ba1a3210667c828492db98dca3e2076cc3735a920a3ca505d382bbc60001b611f7e565b60000160006101000a81548173ffffffffffffffffffffffffffffffffffffffff021916908373ffffffffffffffffffffffffffffffffffffffff16021790555050565b61205483612158565b6000825111806120615750805b156120725761207083836121a7565b505b505050565b600060019054906101000a900460ff166120c6576040517f08c379a00000000000000000000000000000000000000000000000000000000081526004016120bd906133ef565b60405180910390fd5b6000603360006101000a81548160ff021916908315150217905550565b60008082905060005b845181101561214d57600085828151811061210a576121096135a2565b5b6020026020010151905080831161212c57612125838261228b565b9250612139565b612136818461228b565b92505b50808061214590613334565b9150506120ec565b508091505092915050565b61216181611f92565b8073ffffffffffffffffffffffffffffffffffffffff167fbc7cd75a20ee27fd9adebab32041f755214dbc6bffa90cc0225b39da2e5c2d3b60405160405180910390a250565b60606121b2836116e1565b6121f1576040517f08c379a00000000000000000000000000000000000000000000000000000000081526004016121e890613643565b60405180910390fd5b6000808473ffffffffffffffffffffffffffffffffffffffff168460405161221991906136aa565b600060405180830381855af49150503d8060008114612254576040519150601f19603f3d011682016040523d82523d6000602084013e612259565b606091505b509150915061228182826040518060600160405280602781526020016136c2602791396122a2565b9250505092915050565b600082600052816020526040600020905092915050565b606083156122b257829050612302565b6000835111156122c55782518084602001fd5b816040517f08c379a00000000000000000000000000000000000000000000000000000000081526004016122f991906123e0565b60405180910390fd5b9392505050565b5080546000825590600052602060002090810190612327919061232a565b50565b5b8082111561234357600081600090555060010161232b565b5090565b600081519050919050565b600082825260208201905092915050565b60005b83811015612381578082015181840152602081019050612366565b83811115612390576000848401525b50505050565b6000601f19601f8301169050919050565b60006123b282612347565b6123bc8185612352565b93506123cc818560208601612363565b6123d581612396565b840191505092915050565b600060208201905081810360008301526123fa81846123a7565b905092915050565b6000819050919050565b61241581612402565b82525050565b6000602082019050612430600083018461240c565b92915050565b6000604051905090565b600080fd5b600080fd5b61245381612402565b811461245e57600080fd5b50565b6000813590506124708161244a565b92915050565b60006020828403121561248c5761248b612440565b5b600061249a84828501612461565b91505092915050565b60006060820190506124b8600083018661240c565b81810360208301526124ca81856123a7565b90506124d9604083018461240c565b949350505050565b600073ffffffffffffffffffffffffffffffffffffffff82169050919050565b600061250c826124e1565b9050919050565b61251c81612501565b811461252757600080fd5b50565b60008135905061253981612513565b92915050565b60006020828403121561255557612554612440565b5b60006125638482850161252a565b91505092915050565b60008115159050919050565b6125818161256c565b82525050565b600060208201905061259c6000830184612578565b92915050565b600080fd5b600080fd5b7f4e487b7100000000000000000000000000000000000000000000000000000000600052604160045260246000fd5b6125e482612396565b810181811067ffffffffffffffff82111715612603576126026125ac565b5b80604052505050565b6000612616612436565b905061262282826125db565b919050565b600067ffffffffffffffff821115612642576126416125ac565b5b61264b82612396565b9050602081019050919050565b82818337600083830152505050565b600061267a61267584612627565b61260c565b905082815260208101848484011115612696576126956125a7565b5b6126a1848285612658565b509392505050565b600082601f8301126126be576126bd6125a2565b5b81356126ce848260208601612667565b91505092915050565b600080604083850312156126ee576126ed612440565b5b60006126fc8582860161252a565b925050602083013567ffffffffffffffff81111561271d5761271c612445565b5b612729858286016126a9565b9150509250929050565b6000819050919050565b61274681612733565b82525050565b6000602082019050612761600083018461273d565b92915050565b61277081612501565b82525050565b600060208201905061278b6000830184612767565b92915050565b61279a81612733565b81146127a557600080fd5b50565b6000813590506127b781612791565b92915050565b6000602082840312156127d3576127d2612440565b5b60006127e1848285016127a8565b91505092915050565b600067ffffffffffffffff821115612805576128046125ac565b5b602082029050602081019050919050565b600080fd5b600061282e612829846127ea565b61260c565b9050808382526020820190506020840283018581111561285157612850612816565b5b835b8181101561287a578061286688826127a8565b845260208401935050602081019050612853565b5050509392505050565b600082601f830112612899576128986125a2565b5b81356128a984826020860161281b565b91505092915050565b600080604083850312156128c9576128c8612440565b5b600083013567ffffffffffffffff8111156128e7576128e6612445565b5b6128f385828601612884565b9250506020612904858286016127a8565b9150509250929050565b600080fd5b60008083601f840112612929576129286125a2565b5b8235905067ffffffffffffffff8111156129465761294561290e565b5b60208301915083602082028301111561296257612961612816565b5b9250929050565b60008060006040848603121561298257612981612440565b5b600061299086828701612461565b935050602084013567ffffffffffffffff8111156129b1576129b0612445565b5b6129bd86828701612913565b92509250509250925092565b7f4e487b7100000000000000000000000000000000000000000000000000000000600052602260045260246000fd5b60006002820490506001821680612a1057607f821691505b60208210811415612a2457612a236129c9565b5b50919050565b7f46756e6374696f6e206d7573742062652063616c6c6564207468726f7567682060008201527f64656c656761746563616c6c0000000000000000000000000000000000000000602082015250565b6000612a86602c83612352565b9150612a9182612a2a565b604082019050919050565b60006020820190508181036000830152612ab581612a79565b9050919050565b7f46756e6374696f6e206d7573742062652063616c6c6564207468726f7567682060008201527f6163746976652070726f78790000000000000000000000000000000000000000602082015250565b6000612b18602c83612352565b9150612b2382612abc565b604082019050919050565b60006020820190508181036000830152612b4781612b0b565b9050919050565b7f5061757361626c653a2070617573656400000000000000000000000000000000600082015250565b6000612b84601083612352565b9150612b8f82612b4e565b602082019050919050565b60006020820190508181036000830152612bb381612b77565b9050919050565b7f6f6e6c792074656163686572732f63686169726d616e2063616e2063616c6c2060008201527f746869732066756e6374696f6e00000000000000000000000000000000000000602082015250565b6000612c16602d83612352565b9150612c2182612bba565b604082019050919050565b60006020820190508181036000830152612c4581612c09565b9050919050565b7f6f6e6c792063686169726d616e2063616e2063616c6c20746869732066756e6360008201527f74696f6e00000000000000000000000000000000000000000000000000000000602082015250565b6000612ca8602483612352565b9150612cb382612c4c565b604082019050919050565b60006020820190508181036000830152612cd781612c9b565b9050919050565b7f555550535570677261646561626c653a206d757374206e6f742062652063616c60008201527f6c6564207468726f7567682064656c656761746563616c6c0000000000000000602082015250565b6000612d3a603883612352565b9150612d4582612cde565b604082019050919050565b60006020820190508181036000830152612d6981612d2d565b9050919050565b600081549050919050565b600082825260208201905092915050565b60008190508160005260206000209050919050565b612daa81612402565b82525050565b6000612dbc8383612da1565b60208301905092915050565b60008160001c9050919050565b6000819050919050565b6000612df2612ded83612dc8565b612dd5565b9050919050565b6000612e058254612ddf565b9050919050565b6000600182019050919050565b6000612e2482612d70565b612e2e8185612d7b565b9350612e3983612d8c565b8060005b83811015612e7157612e4e82612df9565b612e588882612db0565b9750612e6383612e0c565b925050600181019050612e3d565b5085935050505092915050565b60006040820190508181036000830152612e988185612e19565b9050612ea7602083018461240c565b9392505050565b7f496e697469616c697a61626c653a20636f6e747261637420697320616c72656160008201527f647920696e697469616c697a6564000000000000000000000000000000000000602082015250565b6000612f0a602e83612352565b9150612f1582612eae565b604082019050919050565b60006020820190508181036000830152612f3981612efd565b9050919050565b7f536f7272792c2074686520456c656374696f6e2068617320656e646564210000600082015250565b6000612f76601e83612352565b9150612f8182612f40565b602082019050919050565b60006020820190508181036000830152612fa581612f69565b9050919050565b7f506c6561736520636865636b206261636b2c2074686520656c656374696f6e2060008201527f686173206e6f7420737461727465642100000000000000000000000000000000602082015250565b6000613008603083612352565b915061301382612fac565b604082019050919050565b6000602082019050818103600083015261303781612ffb565b9050919050565b60008160601b9050919050565b60006130568261303e565b9050919050565b60006130688261304b565b9050919050565b61308061307b82612501565b61305d565b82525050565b6000613092828461306f565b60148201915081905092915050565b7f736f7272792c206f6e6c79207374616b65686f6c646572732061726520656c6960008201527f6769626c6520746f20766f746500000000000000000000000000000000000000602082015250565b60006130fd602d83612352565b9150613108826130a1565b604082019050919050565b6000602082019050818103600083015261312c816130f0565b9050919050565b60008151905061314281612791565b92915050565b60006020828403121561315e5761315d612440565b5b600061316c84828501613133565b91505092915050565b7f45524331393637557067726164653a206e657720696d706c656d656e7461746960008201527f6f6e206973206e6f742055555053000000000000000000000000000000000000602082015250565b60006131d1602e83612352565b91506131dc82613175565b604082019050919050565b60006020820190508181036000830152613200816131c4565b9050919050565b7f45524331393637557067726164653a20756e737570706f727465642070726f7860008201527f6961626c65555549440000000000000000000000000000000000000000000000602082015250565b6000613263602983612352565b915061326e82613207565b604082019050919050565b6000602082019050818103600083015261329281613256565b9050919050565b7f5061757361626c653a206e6f7420706175736564000000000000000000000000600082015250565b60006132cf601483612352565b91506132da82613299565b602082019050919050565b600060208201905081810360008301526132fe816132c2565b9050919050565b7f4e487b7100000000000000000000000000000000000000000000000000000000600052601160045260246000fd5b600061333f82612402565b91507fffffffffffffffffffffffffffffffffffffffffffffffffffffffffffffffff82141561337257613371613305565b5b600182019050919050565b7f496e697469616c697a61626c653a20636f6e7472616374206973206e6f74206960008201527f6e697469616c697a696e67000000000000000000000000000000000000000000602082015250565b60006133d9602b83612352565b91506133e48261337d565b604082019050919050565b60006020820190508181036000830152613408816133cc565b9050919050565b7f496e76616c69642063616e64696461746520746f20566f746521000000000000600082015250565b6000613445601a83612352565b91506134508261340f565b602082019050919050565b6000602082019050818103600083015261347481613438565b9050919050565b7f566f7465722068617320616c726561647920566f746564210000000000000000600082015250565b60006134b1601883612352565b91506134bc8261347b565b602082019050919050565b600060208201905081810360008301526134e0816134a4565b9050919050565b60006040820190506134fc600083018561240c565b613509602083018461240c565b9392505050565b7f455243313936373a206e657720696d706c656d656e746174696f6e206973206e60008201527f6f74206120636f6e747261637400000000000000000000000000000000000000602082015250565b600061356c602d83612352565b915061357782613510565b604082019050919050565b6000602082019050818103600083015261359b8161355f565b9050919050565b7f4e487b7100000000000000000000000000000000000000000000000000000000600052603260045260246000fd5b7f416464726573733a2064656c65676174652063616c6c20746f206e6f6e2d636f60008201527f6e74726163740000000000000000000000000000000000000000000000000000602082015250565b600061362d602683612352565b9150613638826135d1565b604082019050919050565b6000602082019050818103600083015261365c81613620565b9050919050565b600081519050919050565b600081905092915050565b600061368482613663565b61368e818561366e565b935061369e818560208601612363565b80840191505092915050565b60006136b68284613679565b91508190509291505056fe416464726573733a206c6f772d6c6576656c2064656c65676174652063616c6c206661696c6564a26469706673582212205bae0589552ec9dc6de1c22e20d382d1d5bc5e6ef1c385dadbf1a3d095bc9e1c64736f6c634300080a0033",
  "linkReferences": {},
  "deployedLinkReferences": {}
}