{
  "_format": "hh-sol-artifact-1",
  "contractName": "ZuriElection",
  "sourceName": "contracts/ZuriElection.sol",
  "abi": [
    {
      "inputs": [
        {
          "internalType": "bytes32",
          "name": "merkleRoot",
          "type": "bytes32"
        }
      ],
      "stateMutability": "nonpayable",
      "type": "constructor"
    },
    {
      "inputs": [],
      "name": "ElectionHasEnded",
      "type": "error"
    },
    {
      "inputs": [],
      "name": "ElectionNotStarted",
      "type": "error"
    },
    {
      "anonymous": false,
      "inputs": [
        {
          "indexed": false,
          "internalType": "uint256",
          "name": "_candidateId",
          "type": "uint256"
        },
        {
          "indexed": false,
          "internalType": "string",
          "name": "_candidateName",
          "type": "string"
        }
      ],
      "name": "CandidateCreated",
      "type": "event"
    },
    {
      "anonymous": false,
      "inputs": [
        {
          "indexed": false,
          "internalType": "uint256",
          "name": "_winnerId",
          "type": "uint256"
        },
        {
          "indexed": false,
          "internalType": "uint256",
          "name": "_winnerVoteCount",
          "type": "uint256"
        }
      ],
      "name": "ElectionEnded",
      "type": "event"
    },
    {
      "anonymous": false,
      "inputs": [
        {
          "indexed": false,
          "internalType": "address",
          "name": "account",
          "type": "address"
        }
      ],
      "name": "Paused",
      "type": "event"
    },
    {
      "anonymous": false,
      "inputs": [
        {
          "indexed": false,
          "internalType": "address",
          "name": "account",
          "type": "address"
        }
      ],
      "name": "Unpaused",
      "type": "event"
    },
    {
      "anonymous": false,
      "inputs": [
        {
          "indexed": false,
          "internalType": "uint256",
          "name": "_candidateId",
          "type": "uint256"
        },
        {
          "indexed": false,
          "internalType": "uint256",
          "name": "_candidateVoteCount",
          "type": "uint256"
        }
      ],
      "name": "VoteForCandidate",
      "type": "event"
    },
    {
      "inputs": [],
      "name": "Active",
      "outputs": [
        {
          "internalType": "bool",
          "name": "",
          "type": "bool"
        }
      ],
      "stateMutability": "view",
      "type": "function"
    },
    {
      "inputs": [],
      "name": "Created",
      "outputs": [
        {
          "internalType": "bool",
          "name": "",
          "type": "bool"
        }
      ],
      "stateMutability": "view",
      "type": "function"
    },
    {
      "inputs": [],
      "name": "Ended",
      "outputs": [
        {
          "internalType": "bool",
          "name": "",
          "type": "bool"
        }
      ],
      "stateMutability": "view",
      "type": "function"
    },
    {
      "inputs": [
        {
          "internalType": "string",
          "name": "_name",
          "type": "string"
        },
        {
          "internalType": "string",
          "name": "_candidateHash",
          "type": "string"
        },
        {
          "internalType": "string",
          "name": "_candidateManifesto",
          "type": "string"
        }
      ],
      "name": "addCandidate",
      "outputs": [],
      "stateMutability": "nonpayable",
      "type": "function"
    },
    {
      "inputs": [
        {
          "internalType": "address",
          "name": "_newTeacher",
          "type": "address"
        }
      ],
      "name": "addTeacher",
      "outputs": [],
      "stateMutability": "nonpayable",
      "type": "function"
    },
    {
      "inputs": [
        {
          "internalType": "uint256",
          "name": "",
          "type": "uint256"
        }
      ],
      "name": "candidates",
      "outputs": [
        {
          "internalType": "uint256",
          "name": "id",
          "type": "uint256"
        },
        {
          "internalType": "string",
          "name": "name",
          "type": "string"
        },
        {
          "internalType": "string",
          "name": "candidateHash",
          "type": "string"
        },
        {
          "internalType": "string",
          "name": "candidateManifesto",
          "type": "string"
        },
        {
          "internalType": "uint256",
          "name": "voteCount",
          "type": "uint256"
        }
      ],
      "stateMutability": "view",
      "type": "function"
    },
    {
      "inputs": [],
      "name": "candidatesCount",
      "outputs": [
        {
          "internalType": "uint256",
          "name": "",
          "type": "uint256"
        }
      ],
      "stateMutability": "view",
      "type": "function"
    },
    {
      "inputs": [],
      "name": "chairman",
      "outputs": [
        {
          "internalType": "address",
          "name": "",
          "type": "address"
        }
      ],
      "stateMutability": "view",
      "type": "function"
    },
    {
      "inputs": [
        {
          "internalType": "address",
          "name": "_newChairman",
          "type": "address"
        }
      ],
      "name": "changeChairman",
      "outputs": [],
      "stateMutability": "nonpayable",
      "type": "function"
    },
    {
      "inputs": [],
      "name": "closeElection",
      "outputs": [],
      "stateMutability": "nonpayable",
      "type": "function"
    },
    {
      "inputs": [],
      "name": "description",
      "outputs": [
        {
          "internalType": "string",
          "name": "",
          "type": "string"
        }
      ],
      "stateMutability": "view",
      "type": "function"
    },
    {
      "inputs": [],
      "name": "endElection",
      "outputs": [],
      "stateMutability": "nonpayable",
      "type": "function"
    },
    {
      "inputs": [],
      "name": "getCandidates",
      "outputs": [
        {
          "components": [
            {
              "internalType": "uint256",
              "name": "id",
              "type": "uint256"
            },
            {
              "internalType": "string",
              "name": "name",
              "type": "string"
            },
            {
              "internalType": "string",
              "name": "candidateHash",
              "type": "string"
            },
            {
              "internalType": "string",
              "name": "candidateManifesto",
              "type": "string"
            },
            {
              "internalType": "uint256",
              "name": "voteCount",
              "type": "uint256"
            }
          ],
          "internalType": "struct ZuriElection.Candidate[]",
          "name": "",
          "type": "tuple[]"
        }
      ],
      "stateMutability": "view",
      "type": "function"
    },
    {
      "inputs": [],
      "name": "getWinner",
      "outputs": [
        {
          "internalType": "uint256",
          "name": "",
          "type": "uint256"
        },
        {
          "internalType": "uint256",
          "name": "",
          "type": "uint256"
        }
      ],
      "stateMutability": "view",
      "type": "function"
    },
    {
      "inputs": [],
      "name": "getWinners",
      "outputs": [
        {
          "components": [
            {
              "internalType": "string",
              "name": "position",
              "type": "string"
            },
            {
              "internalType": "string",
              "name": "description",
              "type": "string"
            },
            {
              "components": [
                {
                  "internalType": "uint256",
                  "name": "id",
                  "type": "uint256"
                },
                {
                  "internalType": "string",
                  "name": "name",
                  "type": "string"
                },
                {
                  "internalType": "string",
                  "name": "candidateHash",
                  "type": "string"
                },
                {
                  "internalType": "string",
                  "name": "candidateManifesto",
                  "type": "string"
                },
                {
                  "internalType": "uint256",
                  "name": "voteCount",
                  "type": "uint256"
                }
              ],
              "internalType": "struct ZuriElection.Candidate",
              "name": "winner",
              "type": "tuple"
            }
          ],
          "internalType": "struct ZuriElection.Election[]",
          "name": "",
          "type": "tuple[]"
        }
      ],
      "stateMutability": "view",
      "type": "function"
    },
    {
      "inputs": [],
      "name": "isChairman",
      "outputs": [
        {
          "internalType": "bool",
          "name": "",
          "type": "bool"
        }
      ],
      "stateMutability": "view",
      "type": "function"
    },
    {
      "inputs": [],
      "name": "isCreated",
      "outputs": [
        {
          "internalType": "bool",
          "name": "",
          "type": "bool"
        }
      ],
      "stateMutability": "view",
      "type": "function"
    },
    {
      "inputs": [],
      "name": "isEnded",
      "outputs": [
        {
          "internalType": "bool",
          "name": "",
          "type": "bool"
        }
      ],
      "stateMutability": "view",
      "type": "function"
    },
    {
      "inputs": [],
      "name": "isStarted",
      "outputs": [
        {
          "internalType": "bool",
          "name": "",
          "type": "bool"
        }
      ],
      "stateMutability": "view",
      "type": "function"
    },
    {
      "inputs": [],
      "name": "isTeacher",
      "outputs": [
        {
          "internalType": "bool",
          "name": "",
          "type": "bool"
        }
      ],
      "stateMutability": "view",
      "type": "function"
    },
    {
      "inputs": [
        {
          "internalType": "bytes32[]",
          "name": "proof",
          "type": "bytes32[]"
        },
        {
          "internalType": "bytes32",
          "name": "leaf",
          "type": "bytes32"
        }
      ],
      "name": "isValid",
      "outputs": [
        {
          "internalType": "bool",
          "name": "",
          "type": "bool"
        }
      ],
      "stateMutability": "view",
      "type": "function"
    },
    {
      "inputs": [],
      "name": "makeResultPublic",
      "outputs": [],
      "stateMutability": "nonpayable",
      "type": "function"
    },
    {
      "inputs": [],
      "name": "pause",
      "outputs": [],
      "stateMutability": "nonpayable",
      "type": "function"
    },
    {
      "inputs": [],
      "name": "paused",
      "outputs": [
        {
          "internalType": "bool",
          "name": "",
          "type": "bool"
        }
      ],
      "stateMutability": "view",
      "type": "function"
    },
    {
      "inputs": [],
      "name": "position",
      "outputs": [
        {
          "internalType": "string",
          "name": "",
          "type": "string"
        }
      ],
      "stateMutability": "view",
      "type": "function"
    },
    {
      "inputs": [
        {
          "internalType": "address",
          "name": "_teacher",
          "type": "address"
        }
      ],
      "name": "removeTeacher",
      "outputs": [],
      "stateMutability": "nonpayable",
      "type": "function"
    },
    {
      "inputs": [],
      "name": "root",
      "outputs": [
        {
          "internalType": "bytes32",
          "name": "",
          "type": "bytes32"
        }
      ],
      "stateMutability": "view",
      "type": "function"
    },
    {
      "inputs": [
        {
          "internalType": "string[]",
          "name": "_prop",
          "type": "string[]"
        }
      ],
      "name": "setUpElection",
      "outputs": [],
      "stateMutability": "nonpayable",
      "type": "function"
    },
    {
      "inputs": [],
      "name": "startElection",
      "outputs": [],
      "stateMutability": "nonpayable",
      "type": "function"
    },
    {
      "inputs": [],
      "name": "startTimer",
      "outputs": [
        {
          "internalType": "uint256",
          "name": "",
          "type": "uint256"
        }
      ],
      "stateMutability": "view",
      "type": "function"
    },
    {
      "inputs": [
        {
          "internalType": "address",
          "name": "",
          "type": "address"
        }
      ],
      "name": "teachers",
      "outputs": [
        {
          "internalType": "bool",
          "name": "",
          "type": "bool"
        }
      ],
      "stateMutability": "view",
      "type": "function"
    },
    {
      "inputs": [],
      "name": "unpause",
      "outputs": [],
      "stateMutability": "nonpayable",
      "type": "function"
    },
    {
      "inputs": [
        {
          "internalType": "uint256",
          "name": "_candidateId",
          "type": "uint256"
        }
      ],
      "name": "vote",
      "outputs": [],
      "stateMutability": "nonpayable",
      "type": "function"
    },
    {
      "inputs": [
        {
          "internalType": "address",
          "name": "",
          "type": "address"
        }
      ],
      "name": "voted",
      "outputs": [
        {
          "internalType": "bool",
          "name": "",
          "type": "bool"
        }
      ],
      "stateMutability": "view",
      "type": "function"
    },
    {
      "inputs": [],
      "name": "winnerId",
      "outputs": [
        {
          "internalType": "uint256",
          "name": "",
          "type": "uint256"
        }
      ],
      "stateMutability": "view",
      "type": "function"
    },
    {
      "inputs": [],
      "name": "winnerVoteCount",
      "outputs": [
        {
          "internalType": "uint256",
          "name": "",
          "type": "uint256"
        }
      ],
      "stateMutability": "view",
      "type": "function"
    },
    {
      "inputs": [
        {
          "internalType": "uint256",
          "name": "",
          "type": "uint256"
        }
      ],
      "name": "winners",
      "outputs": [
        {
          "internalType": "string",
          "name": "position",
          "type": "string"
        },
        {
          "internalType": "string",
          "name": "description",
          "type": "string"
        },
        {
          "components": [
            {
              "internalType": "uint256",
              "name": "id",
              "type": "uint256"
            },
            {
              "internalType": "string",
              "name": "name",
              "type": "string"
            },
            {
              "internalType": "string",
              "name": "candidateHash",
              "type": "string"
            },
            {
              "internalType": "string",
              "name": "candidateManifesto",
              "type": "string"
            },
            {
              "internalType": "uint256",
              "name": "voteCount",
              "type": "uint256"
            }
          ],
          "internalType": "struct ZuriElection.Candidate",
          "name": "winner",
          "type": "tuple"
        }
      ],
      "stateMutability": "view",
      "type": "function"
    }
  ],
  "bytecode": "0x60806040523480156200001157600080fd5b506040516200440d3803806200440d83398181016040528101906200003791906200012b565b60008060006101000a81548160ff02191690831515021790555033600060016101000a81548173ffffffffffffffffffffffffffffffffffffffff021916908373ffffffffffffffffffffffffffffffffffffffff1602179055506000600d60006101000a81548160ff0219169083151502179055506000600d60016101000a81548160ff0219169083151502179055506000600d60026101000a81548160ff0219169083151502179055506000600481905550806003819055506000600d60036101000a81548160ff021916908315150217905550506200017b565b600081519050620001258162000161565b92915050565b6000602082840312156200013e57600080fd5b60006200014e8482850162000114565b91505092915050565b6000819050919050565b6200016c8162000157565b81146200017857600080fd5b50565b614282806200018b6000396000f3fe608060405234801561001057600080fd5b50600436106102275760003560e01c806387f7b97511610130578063aec2ccae116100b8578063df15c37e1161007c578063df15c37e146105b9578063e8101869146105d7578063ebf0c717146105f3578063f0a47f7814610611578063f51b41d21461064157610227565b8063aec2ccae14610501578063b8a20ed014610531578063c64a4bad14610561578063c9b0a2a71461057f578063d1e53b8a1461059d57610227565b80639adeddf8116100ff5780639adeddf814610459578063a2fb117514610477578063a39f7449146104a9578063a4fd6f56146104c7578063ad71f8dc146104e557610227565b806387f7b975146103f45780638e7ea5b21461041257806391e0d5931461043157806395adfc5e1461044f57610227565b806352ff6846116101b357806362d73eb81161018257806362d73eb81461039a5780636c6c32d0146103a45780637284e416146103ae5780638456cb59146103cc57806386174396146103d657610227565b806352ff684614610338578063544736e61461035457806359f78468146103725780635c975abb1461037c57610227565b80632f22850d116101fa5780632f22850d146102a25780633477ee2e146102c05780633bc6e309146102f45780633f4ba83a14610310578063477383f31461031a57610227565b80630121b93f1461022c57806306a49fce1461024857806309218e91146102665780632d35a8a214610284575b600080fd5b6102466004803603810190610241919061333f565b61065f565b005b61025061070b565b60405161025d919061387f565b60405180910390f35b61026e6109e7565b60405161027b91906138f9565b60405180910390f35b61028c610a75565b6040516102999190613b07565b60405180910390f35b6102aa610a7b565b6040516102b79190613b07565b60405180910390f35b6102da60048036038101906102d5919061333f565b610a81565b6040516102eb959493929190613b52565b60405180910390f35b61030e600480360381019061030991906131ea565b610c4f565b005b610318610ddd565b005b610322610eb5565b60405161032f91906138c3565b60405180910390f35b610352600480360381019061034d91906131ea565b610ec8565b005b61035c611056565b60405161036991906138c3565b60405180910390f35b61037a61106d565b005b6103846111a9565b60405161039191906138c3565b60405180910390f35b6103a26111bf565b005b6103ac6112b4565b005b6103b661141e565b6040516103c391906138f9565b60405180910390f35b6103d46114ac565b005b6103de611584565b6040516103eb91906138c3565b60405180910390f35b6103fc61159b565b6040516104099190613864565b60405180910390f35b61041a6115c1565b604051610428929190613bba565b60405180910390f35b610439611621565b6040516104469190613b07565b60405180910390f35b610457611627565b005b61046161177e565b60405161046e91906138c3565b60405180910390f35b610491600480360381019061048c919061333f565b611791565b6040516104a09392919061391b565b60405180910390f35b6104b1611a9f565b6040516104be9190613b07565b60405180910390f35b6104cf611aa5565b6040516104dc91906138c3565b60405180910390f35b6104ff60048036038101906104fa91906132a8565b611abc565b005b61051b600480360381019061051691906131ea565b611d44565b60405161052891906138c3565b60405180910390f35b61054b60048036038101906105469190613213565b611d64565b60405161055891906138c3565b60405180910390f35b610569611d7b565b60405161057691906138c3565b60405180910390f35b610587611dcf565b60405161059491906138c3565b60405180910390f35b6105b760048036038101906105b29190613267565b611de2565b005b6105c161208f565b6040516105ce91906138a1565b60405180910390f35b6105f160048036038101906105ec91906131ea565b6124a3565b005b6105fb6125bf565b60405161060891906138de565b60405180910390f35b61062b600480360381019061062691906131ea565b6125c5565b60405161063891906138c3565b60405180910390f35b6106496125e5565b60405161065691906138c3565b60405180910390f35b600d60019054906101000a900460ff16156106af576040517f08c379a00000000000000000000000000000000000000000000000000000000081526004016106a690613a67565b60405180910390fd5b600d60009054906101000a900460ff166106fe576040517f08c379a00000000000000000000000000000000000000000000000000000000081526004016106f590613a27565b60405180910390fd5b610708813361263d565b50565b6060600060045467ffffffffffffffff811115610751577f4e487b7100000000000000000000000000000000000000000000000000000000600052604160045260246000fd5b60405190808252806020026020018201604052801561078a57816020015b610777612f04565b81526020019060019003908161076f5790505b50905060005b6004548110156109df576000600960008381526020019081526020016000209050806040518060a0016040529081600082015481526020016001820180546107d790613dc4565b80601f016020809104026020016040519081016040528092919081815260200182805461080390613dc4565b80156108505780601f1061082557610100808354040283529160200191610850565b820191906000526020600020905b81548152906001019060200180831161083357829003601f168201915b5050505050815260200160028201805461086990613dc4565b80601f016020809104026020016040519081016040528092919081815260200182805461089590613dc4565b80156108e25780601f106108b7576101008083540402835291602001916108e2565b820191906000526020600020905b8154815290600101906020018083116108c557829003601f168201915b505050505081526020016003820180546108fb90613dc4565b80601f016020809104026020016040519081016040528092919081815260200182805461092790613dc4565b80156109745780601f1061094957610100808354040283529160200191610974565b820191906000526020600020905b81548152906001019060200180831161095757829003601f168201915b505050505081526020016004820154815250508383815181106109c0577f4e487b7100000000000000000000000000000000000000000000000000000000600052603260045260246000fd5b60200260200101819052505080806109d790613e27565b915050610790565b508091505090565b600180546109f490613dc4565b80601f0160208091040260200160405190810160405280929190818152602001828054610a2090613dc4565b8015610a6d5780601f10610a4257610100808354040283529160200191610a6d565b820191906000526020600020905b815481529060010190602001808311610a5057829003601f168201915b505050505081565b60045481565b600c5481565b6009602052806000526040600020600091509050806000015490806001018054610aaa90613dc4565b80601f0160208091040260200160405190810160405280929190818152602001828054610ad690613dc4565b8015610b235780601f10610af857610100808354040283529160200191610b23565b820191906000526020600020905b815481529060010190602001808311610b0657829003601f168201915b505050505090806002018054610b3890613dc4565b80601f0160208091040260200160405190810160405280929190818152602001828054610b6490613dc4565b8015610bb15780601f10610b8657610100808354040283529160200191610bb1565b820191906000526020600020905b815481529060010190602001808311610b9457829003601f168201915b505050505090806003018054610bc690613dc4565b80601f0160208091040260200160405190810160405280929190818152602001828054610bf290613dc4565b8015610c3f5780601f10610c1457610100808354040283529160200191610c3f565b820191906000526020600020905b815481529060010190602001808311610c2257829003601f168201915b5050505050908060040154905085565b610c576111a9565b15610c97576040517f08c379a0000000000000000000000000000000000000000000000000000000008152600401610c8e90613a07565b60405180910390fd5b3373ffffffffffffffffffffffffffffffffffffffff16600060019054906101000a900473ffffffffffffffffffffffffffffffffffffffff1673ffffffffffffffffffffffffffffffffffffffff161480610d43575060011515600760003373ffffffffffffffffffffffffffffffffffffffff1673ffffffffffffffffffffffffffffffffffffffff16815260200190815260200160002060009054906101000a900460ff161515145b610d82576040517f08c379a0000000000000000000000000000000000000000000000000000000008152600401610d79906139e7565b60405180910390fd5b6001600760008373ffffffffffffffffffffffffffffffffffffffff1673ffffffffffffffffffffffffffffffffffffffff16815260200190815260200160002060006101000a81548160ff02191690831515021790555050565b600060019054906101000a900473ffffffffffffffffffffffffffffffffffffffff1673ffffffffffffffffffffffffffffffffffffffff163373ffffffffffffffffffffffffffffffffffffffff1614610e6d576040517f08c379a0000000000000000000000000000000000000000000000000000000008152600401610e6490613aa7565b60405180910390fd5b610e7561283c565b7f5db9ee0a495bf2e6ff9c91a7834c1ba4fdd244a5e8aa4e537bd38aeae4b073aa610e9e6128dd565b604051610eab9190613864565b60405180910390a1565b600d60019054906101000a900460ff1681565b610ed06111a9565b15610f10576040517f08c379a0000000000000000000000000000000000000000000000000000000008152600401610f0790613a07565b60405180910390fd5b3373ffffffffffffffffffffffffffffffffffffffff16600060019054906101000a900473ffffffffffffffffffffffffffffffffffffffff1673ffffffffffffffffffffffffffffffffffffffff161480610fbc575060011515600760003373ffffffffffffffffffffffffffffffffffffffff1673ffffffffffffffffffffffffffffffffffffffff16815260200190815260200160002060009054906101000a900460ff161515145b610ffb576040517f08c379a0000000000000000000000000000000000000000000000000000000008152600401610ff2906139e7565b60405180910390fd5b6000600760008373ffffffffffffffffffffffffffffffffffffffff1673ffffffffffffffffffffffffffffffffffffffff16815260200190815260200160002060006101000a81548160ff02191690831515021790555050565b6000600d60009054906101000a900460ff16905090565b6110756111a9565b156110b5576040517f08c379a00000000000000000000000000000000000000000000000000000000081526004016110ac90613a07565b60405180910390fd5b600060019054906101000a900473ffffffffffffffffffffffffffffffffffffffff1673ffffffffffffffffffffffffffffffffffffffff163373ffffffffffffffffffffffffffffffffffffffff1614611145576040517f08c379a000000000000000000000000000000000000000000000000000000000815260040161113c90613aa7565b60405180910390fd5b6001600d60016101000a81548160ff0219169083151502179055506111686128e5565b50507f32e2c12037f9600b91a766ce53eab6909f3bdb865851cd9a8c7fafbdf249a9ce600a54600c5460405161119f929190613bba565b60405180910390a1565b60008060009054906101000a900460ff16905090565b6111c76111a9565b15611207576040517f08c379a00000000000000000000000000000000000000000000000000000000081526004016111fe90613a07565b60405180910390fd5b600060019054906101000a900473ffffffffffffffffffffffffffffffffffffffff1673ffffffffffffffffffffffffffffffffffffffff163373ffffffffffffffffffffffffffffffffffffffff1614611297576040517f08c379a000000000000000000000000000000000000000000000000000000000815260040161128e90613aa7565b60405180910390fd5b6001600d60006101000a81548160ff021916908315150217905550565b600060019054906101000a900473ffffffffffffffffffffffffffffffffffffffff1673ffffffffffffffffffffffffffffffffffffffff163373ffffffffffffffffffffffffffffffffffffffff1614611344576040517f08c379a000000000000000000000000000000000000000000000000000000000815260040161133b90613aa7565b60405180910390fd5b6000600d60026101000a81548160ff02191690831515021790555033600060016101000a81548173ffffffffffffffffffffffffffffffffffffffff021916908373ffffffffffffffffffffffffffffffffffffffff1602179055506000600d60006101000a81548160ff0219169083151502179055506000600d60016101000a81548160ff0219169083151502179055506000600d60026101000a81548160ff02191690831515021790555060006004819055506000600d60036101000a81548160ff0219169083151502179055506000600c81905550565b6002805461142b90613dc4565b80601f016020809104026020016040519081016040528092919081815260200182805461145790613dc4565b80156114a45780601f10611479576101008083540402835291602001916114a4565b820191906000526020600020905b81548152906001019060200180831161148757829003601f168201915b505050505081565b600060019054906101000a900473ffffffffffffffffffffffffffffffffffffffff1673ffffffffffffffffffffffffffffffffffffffff163373ffffffffffffffffffffffffffffffffffffffff161461153c576040517f08c379a000000000000000000000000000000000000000000000000000000000815260040161153390613aa7565b60405180910390fd5b611544612d99565b7f62e78cea01bee320cd4e420270b5ea74000d11b0c9f74754ebdbfc544b05a25861156d6128dd565b60405161157a9190613864565b60405180910390a1565b6000600d60029054906101000a900460ff16905090565b600060019054906101000a900473ffffffffffffffffffffffffffffffffffffffff1681565b600080600d60039054906101000a900460ff16611613576040517f08c379a000000000000000000000000000000000000000000000000000000000815260040161160a90613ae7565b60405180910390fd5b600c54600a54915091509091565b600a5481565b600d60019054906101000a900460ff16611676576040517f08c379a000000000000000000000000000000000000000000000000000000000815260040161166d90613987565b60405180910390fd5b3373ffffffffffffffffffffffffffffffffffffffff16600060019054906101000a900473ffffffffffffffffffffffffffffffffffffffff1673ffffffffffffffffffffffffffffffffffffffff161480611722575060011515600760003373ffffffffffffffffffffffffffffffffffffffff1673ffffffffffffffffffffffffffffffffffffffff16815260200190815260200160002060009054906101000a900460ff161515145b611761576040517f08c379a0000000000000000000000000000000000000000000000000000000008152600401611758906139c7565b60405180910390fd5b6001600d60036101000a81548160ff021916908315150217905550565b600d60029054906101000a900460ff1681565b600b6020528060005260406000206000915090508060000180546117b490613dc4565b80601f01602080910402602001604051908101604052809291908181526020018280546117e090613dc4565b801561182d5780601f106118025761010080835404028352916020019161182d565b820191906000526020600020905b81548152906001019060200180831161181057829003601f168201915b50505050509080600101805461184290613dc4565b80601f016020809104026020016040519081016040528092919081815260200182805461186e90613dc4565b80156118bb5780601f10611890576101008083540402835291602001916118bb565b820191906000526020600020905b81548152906001019060200180831161189e57829003601f168201915b505050505090806002016040518060a0016040529081600082015481526020016001820180546118ea90613dc4565b80601f016020809104026020016040519081016040528092919081815260200182805461191690613dc4565b80156119635780601f1061193857610100808354040283529160200191611963565b820191906000526020600020905b81548152906001019060200180831161194657829003601f168201915b5050505050815260200160028201805461197c90613dc4565b80601f01602080910402602001604051908101604052809291908181526020018280546119a890613dc4565b80156119f55780601f106119ca576101008083540402835291602001916119f5565b820191906000526020600020905b8154815290600101906020018083116119d857829003601f168201915b50505050508152602001600382018054611a0e90613dc4565b80601f0160208091040260200160405190810160405280929190818152602001828054611a3a90613dc4565b8015611a875780601f10611a5c57610100808354040283529160200191611a87565b820191906000526020600020905b815481529060010190602001808311611a6a57829003601f168201915b50505050508152602001600482015481525050905083565b60065481565b6000600d60019054906101000a900460ff16905090565b611ac46111a9565b15611b04576040517f08c379a0000000000000000000000000000000000000000000000000000000008152600401611afb90613a07565b60405180910390fd5b600d60009054906101000a900460ff1615611b54576040517f08c379a0000000000000000000000000000000000000000000000000000000008152600401611b4b906139a7565b60405180910390fd5b3373ffffffffffffffffffffffffffffffffffffffff16600060019054906101000a900473ffffffffffffffffffffffffffffffffffffffff1673ffffffffffffffffffffffffffffffffffffffff161480611c00575060011515600760003373ffffffffffffffffffffffffffffffffffffffff1673ffffffffffffffffffffffffffffffffffffffff16815260200190815260200160002060009054906101000a900460ff161515145b611c3f576040517f08c379a0000000000000000000000000000000000000000000000000000000008152600401611c36906139e7565b60405180910390fd5b6040518060a0016040528060045481526020018481526020018381526020018281526020016000815250600960006004548152602001908152602001600020600082015181600001556020820151816001019080519060200190611ca4929190612f33565b506040820151816002019080519060200190611cc1929190612f33565b506060820151816003019080519060200190611cde929190612f33565b50608082015181600401559050507f78d27a3c512303f604b46bc28acc0ca45abe6420172a017c5a6dc585821eb63960045484604051611d1f929190613b22565b60405180910390a160046000815480929190611d3a90613e27565b9190505550505050565b60086020528060005260406000206000915054906101000a900460ff1681565b6000611d738360035484612e3b565b905092915050565b6000600760003373ffffffffffffffffffffffffffffffffffffffff1673ffffffffffffffffffffffffffffffffffffffff16815260200190815260200160002060009054906101000a900460ff16905090565b600d60009054906101000a900460ff1681565b611dea6111a9565b15611e2a576040517f08c379a0000000000000000000000000000000000000000000000000000000008152600401611e2190613a07565b60405180910390fd5b600d60009054906101000a900460ff1615611e7a576040517f08c379a0000000000000000000000000000000000000000000000000000000008152600401611e71906139a7565b60405180910390fd5b6000815111611ebe576040517f08c379a0000000000000000000000000000000000000000000000000000000008152600401611eb590613a47565b60405180910390fd5b3373ffffffffffffffffffffffffffffffffffffffff16600060019054906101000a900473ffffffffffffffffffffffffffffffffffffffff1673ffffffffffffffffffffffffffffffffffffffff161480611f6a575060011515600760003373ffffffffffffffffffffffffffffffffffffffff1673ffffffffffffffffffffffffffffffffffffffff16815260200190815260200160002060009054906101000a900460ff161515145b611fa9576040517f08c379a0000000000000000000000000000000000000000000000000000000008152600401611fa0906139e7565b60405180910390fd5b80600081518110611fe3577f4e487b7100000000000000000000000000000000000000000000000000000000600052603260045260246000fd5b602002602001015160019080519060200190612000929190612f33565b508060018151811061203b577f4e487b7100000000000000000000000000000000000000000000000000000000600052603260045260246000fd5b602002602001015160029080519060200190612058929190612f33565b506001600d60026101000a81548160ff0219169083151502179055506005600081548092919061208790613e27565b919050555050565b6060600060055467ffffffffffffffff8111156120d5577f4e487b7100000000000000000000000000000000000000000000000000000000600052604160045260246000fd5b60405190808252806020026020018201604052801561210e57816020015b6120fb612fb9565b8152602001906001900390816120f35790505b50905060005b60055481101561249b576000600b600083815260200190815260200160002090508060405180606001604052908160008201805461215190613dc4565b80601f016020809104026020016040519081016040528092919081815260200182805461217d90613dc4565b80156121ca5780601f1061219f576101008083540402835291602001916121ca565b820191906000526020600020905b8154815290600101906020018083116121ad57829003601f168201915b505050505081526020016001820180546121e390613dc4565b80601f016020809104026020016040519081016040528092919081815260200182805461220f90613dc4565b801561225c5780601f106122315761010080835404028352916020019161225c565b820191906000526020600020905b81548152906001019060200180831161223f57829003601f168201915b50505050508152602001600282016040518060a00160405290816000820154815260200160018201805461228f90613dc4565b80601f01602080910402602001604051908101604052809291908181526020018280546122bb90613dc4565b80156123085780601f106122dd57610100808354040283529160200191612308565b820191906000526020600020905b8154815290600101906020018083116122eb57829003601f168201915b5050505050815260200160028201805461232190613dc4565b80601f016020809104026020016040519081016040528092919081815260200182805461234d90613dc4565b801561239a5780601f1061236f5761010080835404028352916020019161239a565b820191906000526020600020905b81548152906001019060200180831161237d57829003601f168201915b505050505081526020016003820180546123b390613dc4565b80601f01602080910402602001604051908101604052809291908181526020018280546123df90613dc4565b801561242c5780601f106124015761010080835404028352916020019161242c565b820191906000526020600020905b81548152906001019060200180831161240f57829003601f168201915b505050505081526020016004820154815250508152505083838151811061247c577f4e487b7100000000000000000000000000000000000000000000000000000000600052603260045260246000fd5b602002602001018190525050808061249390613e27565b915050612114565b508091505090565b6124ab6111a9565b156124eb576040517f08c379a00000000000000000000000000000000000000000000000000000000081526004016124e290613a07565b60405180910390fd5b600060019054906101000a900473ffffffffffffffffffffffffffffffffffffffff1673ffffffffffffffffffffffffffffffffffffffff163373ffffffffffffffffffffffffffffffffffffffff161461257b576040517f08c379a000000000000000000000000000000000000000000000000000000000815260040161257290613aa7565b60405180910390fd5b80600060016101000a81548173ffffffffffffffffffffffffffffffffffffffff021916908373ffffffffffffffffffffffffffffffffffffffff16021790555050565b60035481565b60076020528060005260406000206000915054906101000a900460ff1681565b60003373ffffffffffffffffffffffffffffffffffffffff16600060019054906101000a900473ffffffffffffffffffffffffffffffffffffffff1673ffffffffffffffffffffffffffffffffffffffff1614905090565b6126456111a9565b15612685576040517f08c379a000000000000000000000000000000000000000000000000000000000815260040161267c90613a07565b60405180910390fd5b8160045481108015612698575060008110155b6126d7576040517f08c379a00000000000000000000000000000000000000000000000000000000081526004016126ce90613a87565b60405180910390fd5b600860008373ffffffffffffffffffffffffffffffffffffffff1673ffffffffffffffffffffffffffffffffffffffff16815260200190815260200160002060009054906101000a900460ff1615612764576040517f08c379a000000000000000000000000000000000000000000000000000000000815260040161275b90613ac7565b60405180910390fd5b6001600860008473ffffffffffffffffffffffffffffffffffffffff1673ffffffffffffffffffffffffffffffffffffffff16815260200190815260200160002060006101000a81548160ff0219169083151502179055506009600084815260200190815260200160002060040160008154809291906127e390613e27565b91905055507fd3ebd88818d034d26c5d98bcef9c7c45207130238e76e8cf0b3ba00e906851bf83600960008681526020019081526020016000206004015460405161282f929190613bba565b60405180910390a1505050565b6128446111a9565b612883576040517f08c379a000000000000000000000000000000000000000000000000000000000815260040161287a90613967565b60405180910390fd5b60008060006101000a81548160ff0219169083151502179055507f5db9ee0a495bf2e6ff9c91a7834c1ba4fdd244a5e8aa4e537bd38aeae4b073aa6128c66128dd565b6040516128d39190613864565b60405180910390a1565b600033905090565b6000806128f06111a9565b15612930576040517f08c379a000000000000000000000000000000000000000000000000000000000815260040161292790613a07565b60405180910390fd5b60005b6004548110156129aa57600c54600960008381526020019081526020016000206004015410612997576009600082815260200190815260200160002060040154600c819055506009600082815260200190815260200160002060000154600a819055505b80806129a290613e27565b915050612933565b506040518060600160405280600180546129c390613dc4565b80601f01602080910402602001604051908101604052809291908181526020018280546129ef90613dc4565b8015612a3c5780601f10612a1157610100808354040283529160200191612a3c565b820191906000526020600020905b815481529060010190602001808311612a1f57829003601f168201915b5050505050815260200160028054612a5390613dc4565b80601f0160208091040260200160405190810160405280929190818152602001828054612a7f90613dc4565b8015612acc5780601f10612aa157610100808354040283529160200191612acc565b820191906000526020600020905b815481529060010190602001808311612aaf57829003601f168201915b5050505050815260200160096000600a5481526020019081526020016000206040518060a001604052908160008201548152602001600182018054612b1090613dc4565b80601f0160208091040260200160405190810160405280929190818152602001828054612b3c90613dc4565b8015612b895780601f10612b5e57610100808354040283529160200191612b89565b820191906000526020600020905b815481529060010190602001808311612b6c57829003601f168201915b50505050508152602001600282018054612ba290613dc4565b80601f0160208091040260200160405190810160405280929190818152602001828054612bce90613dc4565b8015612c1b5780601f10612bf057610100808354040283529160200191612c1b565b820191906000526020600020905b815481529060010190602001808311612bfe57829003601f168201915b50505050508152602001600382018054612c3490613dc4565b80601f0160208091040260200160405190810160405280929190818152602001828054612c6090613dc4565b8015612cad5780601f10612c8257610100808354040283529160200191612cad565b820191906000526020600020905b815481529060010190602001808311612c9057829003601f168201915b50505050508152602001600482015481525050815250600b600060055481526020019081526020016000206000820151816000019080519060200190612cf4929190612f33565b506020820151816001019080519060200190612d11929190612f33565b50604082015181600201600082015181600001556020820151816001019080519060200190612d41929190612f33565b506040820151816002019080519060200190612d5e929190612f33565b506060820151816003019080519060200190612d7b929190612f33565b50608082015181600401555050905050600c54600a54915091509091565b612da16111a9565b15612de1576040517f08c379a0000000000000000000000000000000000000000000000000000000008152600401612dd890613a07565b60405180910390fd5b60016000806101000a81548160ff0219169083151502179055507f62e78cea01bee320cd4e420270b5ea74000d11b0c9f74754ebdbfc544b05a258612e246128dd565b604051612e319190613864565b60405180910390a1565b600082612e488584612e52565b1490509392505050565b60008082905060005b8451811015612ee2576000858281518110612e9f577f4e487b7100000000000000000000000000000000000000000000000000000000600052603260045260246000fd5b60200260200101519050808311612ec157612eba8382612eed565b9250612ece565b612ecb8184612eed565b92505b508080612eda90613e27565b915050612e5b565b508091505092915050565b600082600052816020526040600020905092915050565b6040518060a0016040528060008152602001606081526020016060815260200160608152602001600081525090565b828054612f3f90613dc4565b90600052602060002090601f016020900481019282612f615760008555612fa8565b82601f10612f7a57805160ff1916838001178555612fa8565b82800160010185558215612fa8579182015b82811115612fa7578251825591602001919060010190612f8c565b5b509050612fb59190612fe0565b5090565b60405180606001604052806060815260200160608152602001612fda612f04565b81525090565b5b80821115612ff9576000816000905550600101612fe1565b5090565b600061301061300b84613c08565b613be3565b9050808382526020820190508285602086028201111561302f57600080fd5b60005b8581101561305f57816130458882613196565b845260208401935060208301925050600181019050613032565b5050509392505050565b600061307c61307784613c34565b613be3565b9050808382526020820190508285602086028201111561309b57600080fd5b60005b858110156130e557813567ffffffffffffffff8111156130bd57600080fd5b8086016130ca89826131ab565b8552602085019450602084019350505060018101905061309e565b5050509392505050565b60006131026130fd84613c60565b613be3565b90508281526020810184848401111561311a57600080fd5b613125848285613d82565b509392505050565b60008135905061313c81614207565b92915050565b600082601f83011261315357600080fd5b8135613163848260208601612ffd565b91505092915050565b600082601f83011261317d57600080fd5b813561318d848260208601613069565b91505092915050565b6000813590506131a58161421e565b92915050565b600082601f8301126131bc57600080fd5b81356131cc8482602086016130ef565b91505092915050565b6000813590506131e481614235565b92915050565b6000602082840312156131fc57600080fd5b600061320a8482850161312d565b91505092915050565b6000806040838503121561322657600080fd5b600083013567ffffffffffffffff81111561324057600080fd5b61324c85828601613142565b925050602061325d85828601613196565b9150509250929050565b60006020828403121561327957600080fd5b600082013567ffffffffffffffff81111561329357600080fd5b61329f8482850161316c565b91505092915050565b6000806000606084860312156132bd57600080fd5b600084013567ffffffffffffffff8111156132d757600080fd5b6132e3868287016131ab565b935050602084013567ffffffffffffffff81111561330057600080fd5b61330c868287016131ab565b925050604084013567ffffffffffffffff81111561332957600080fd5b613335868287016131ab565b9150509250925092565b60006020828403121561335157600080fd5b600061335f848285016131d5565b91505092915050565b600061337483836136e0565b905092915050565b600061338883836137e8565b905092915050565b61339981613d30565b82525050565b60006133aa82613cb1565b6133b48185613cec565b9350836020820285016133c685613c91565b8060005b8581101561340257848403895281516133e38582613368565b94506133ee83613cd2565b925060208a019950506001810190506133ca565b50829750879550505050505092915050565b600061341f82613cbc565b6134298185613cfd565b93508360208202850161343b85613ca1565b8060005b858110156134775784840389528151613458858261337c565b945061346383613cdf565b925060208a0199505060018101905061343f565b50829750879550505050505092915050565b61349281613d42565b82525050565b6134a181613d4e565b82525050565b60006134b282613cc7565b6134bc8185613d0e565b93506134cc818560208601613d91565b6134d581613efd565b840191505092915050565b60006134eb82613cc7565b6134f58185613d1f565b9350613505818560208601613d91565b61350e81613efd565b840191505092915050565b6000613526601483613d1f565b915061353182613f0e565b602082019050919050565b6000613549602183613d1f565b915061355482613f37565b604082019050919050565b600061356c601383613d1f565b915061357782613f86565b602082019050919050565b600061358f602e83613d1f565b915061359a82613faf565b604082019050919050565b60006135b2602d83613d1f565b91506135bd82613ffe565b604082019050919050565b60006135d5601083613d1f565b91506135e08261404d565b602082019050919050565b60006135f8603083613d1f565b915061360382614076565b604082019050919050565b600061361b602183613d1f565b9150613626826140c5565b604082019050919050565b600061363e601e83613d1f565b915061364982614114565b602082019050919050565b6000613661601a83613d1f565b915061366c8261413d565b602082019050919050565b6000613684602483613d1f565b915061368f82614166565b604082019050919050565b60006136a7601883613d1f565b91506136b2826141b5565b602082019050919050565b60006136ca601f83613d1f565b91506136d5826141de565b602082019050919050565b600060a0830160008301516136f86000860182613846565b506020830151848203602086015261371082826134a7565b9150506040830151848203604086015261372a82826134a7565b9150506060830151848203606086015261374482826134a7565b91505060808301516137596080860182613846565b508091505092915050565b600060a08301600083015161377c6000860182613846565b506020830151848203602086015261379482826134a7565b915050604083015184820360408601526137ae82826134a7565b915050606083015184820360608601526137c882826134a7565b91505060808301516137dd6080860182613846565b508091505092915050565b6000606083016000830151848203600086015261380582826134a7565b9150506020830151848203602086015261381f82826134a7565b9150506040830151848203604086015261383982826136e0565b9150508091505092915050565b61384f81613d78565b82525050565b61385e81613d78565b82525050565b60006020820190506138796000830184613390565b92915050565b60006020820190508181036000830152613899818461339f565b905092915050565b600060208201905081810360008301526138bb8184613414565b905092915050565b60006020820190506138d86000830184613489565b92915050565b60006020820190506138f36000830184613498565b92915050565b6000602082019050818103600083015261391381846134e0565b905092915050565b6000606082019050818103600083015261393581866134e0565b9050818103602083015261394981856134e0565b9050818103604083015261395d8184613764565b9050949350505050565b6000602082019050818103600083015261398081613519565b9050919050565b600060208201905081810360008301526139a08161353c565b9050919050565b600060208201905081810360008301526139c08161355f565b9050919050565b600060208201905081810360008301526139e081613582565b9050919050565b60006020820190508181036000830152613a00816135a5565b9050919050565b60006020820190508181036000830152613a20816135c8565b9050919050565b60006020820190508181036000830152613a40816135eb565b9050919050565b60006020820190508181036000830152613a608161360e565b9050919050565b60006020820190508181036000830152613a8081613631565b9050919050565b60006020820190508181036000830152613aa081613654565b9050919050565b60006020820190508181036000830152613ac081613677565b9050919050565b60006020820190508181036000830152613ae08161369a565b9050919050565b60006020820190508181036000830152613b00816136bd565b9050919050565b6000602082019050613b1c6000830184613855565b92915050565b6000604082019050613b376000830185613855565b8181036020830152613b4981846134e0565b90509392505050565b600060a082019050613b676000830188613855565b8181036020830152613b7981876134e0565b90508181036040830152613b8d81866134e0565b90508181036060830152613ba181856134e0565b9050613bb06080830184613855565b9695505050505050565b6000604082019050613bcf6000830185613855565b613bdc6020830184613855565b9392505050565b6000613bed613bfe565b9050613bf98282613df6565b919050565b6000604051905090565b600067ffffffffffffffff821115613c2357613c22613ece565b5b602082029050602081019050919050565b600067ffffffffffffffff821115613c4f57613c4e613ece565b5b602082029050602081019050919050565b600067ffffffffffffffff821115613c7b57613c7a613ece565b5b613c8482613efd565b9050602081019050919050565b6000819050602082019050919050565b6000819050602082019050919050565b600081519050919050565b600081519050919050565b600081519050919050565b6000602082019050919050565b6000602082019050919050565b600082825260208201905092915050565b600082825260208201905092915050565b600082825260208201905092915050565b600082825260208201905092915050565b6000613d3b82613d58565b9050919050565b60008115159050919050565b6000819050919050565b600073ffffffffffffffffffffffffffffffffffffffff82169050919050565b6000819050919050565b82818337600083830152505050565b60005b83811015613daf578082015181840152602081019050613d94565b83811115613dbe576000848401525b50505050565b60006002820490506001821680613ddc57607f821691505b60208210811415613df057613def613e9f565b5b50919050565b613dff82613efd565b810181811067ffffffffffffffff82111715613e1e57613e1d613ece565b5b80604052505050565b6000613e3282613d78565b91507fffffffffffffffffffffffffffffffffffffffffffffffffffffffffffffffff821415613e6557613e64613e70565b5b600182019050919050565b7f4e487b7100000000000000000000000000000000000000000000000000000000600052601160045260246000fd5b7f4e487b7100000000000000000000000000000000000000000000000000000000600052602260045260246000fd5b7f4e487b7100000000000000000000000000000000000000000000000000000000600052604160045260246000fd5b6000601f19601f8301169050919050565b7f5061757361626c653a206e6f7420706175736564000000000000000000000000600082015250565b7f536f7272792c2074686520456c656374696f6e20686173206e6f7420656e646560008201527f6400000000000000000000000000000000000000000000000000000000000000602082015250565b7f456c656374696f6e206973204f6e676f696e6700000000000000000000000000600082015250565b7f6f6e6c792074656163686572732f63686169726d616e2063616e206d616b652060008201527f726573756c7473207075626c6963000000000000000000000000000000000000602082015250565b7f6f6e6c792074656163686572732f63686169726d616e2063616e2063616c6c2060008201527f746869732066756e6374696f6e00000000000000000000000000000000000000602082015250565b7f5061757361626c653a2070617573656400000000000000000000000000000000600082015250565b7f506c6561736520636865636b206261636b2c2074686520656c656374696f6e2060008201527f686173206e6f7420737461727465642100000000000000000000000000000000602082015250565b7f61746c65617374206f6e6520706572736f6e2073686f756c6420636f6e74657360008201527f7400000000000000000000000000000000000000000000000000000000000000602082015250565b7f536f7272792c2074686520456c656374696f6e2068617320656e646564210000600082015250565b7f496e76616c69642063616e64696461746520746f20566f746521000000000000600082015250565b7f6f6e6c792063686169726d616e2063616e2063616c6c20746869732066756e6360008201527f74696f6e00000000000000000000000000000000000000000000000000000000602082015250565b7f566f7465722068617320616c726561647920566f746564210000000000000000600082015250565b7f54686520526573756c7473206d757374206265206d616465207075626c696300600082015250565b61421081613d30565b811461421b57600080fd5b50565b61422781613d4e565b811461423257600080fd5b50565b61423e81613d78565b811461424957600080fd5b5056fea2646970667358221220a9ab6783fcf885a6192b709be5d68482102f884c5fd8485ebe86944b7aa36e9b64736f6c63430008040033",
  "linkReferences": {},
  "deployedLinkReferences": {}
}