{
  "_format": "hh-sol-artifact-1",
  "contractName": "ZuriElection",
  "sourceName": "contracts/ZuriElection.sol",
  "abi": [
    {
      "inputs": [],
      "stateMutability": "nonpayable",
      "type": "constructor"
    },
    {
      "inputs": [],
      "name": "ElectionHasEnded",
      "type": "error"
    },
    {
      "inputs": [],
      "name": "ElectionNotStarted",
      "type": "error"
    },
    {
      "anonymous": false,
      "inputs": [
        {
          "indexed": false,
          "internalType": "address",
          "name": "previousAdmin",
          "type": "address"
        },
        {
          "indexed": false,
          "internalType": "address",
          "name": "newAdmin",
          "type": "address"
        }
      ],
      "name": "AdminChanged",
      "type": "event"
    },
    {
      "anonymous": false,
      "inputs": [
        {
          "indexed": true,
          "internalType": "address",
          "name": "beacon",
          "type": "address"
        }
      ],
      "name": "BeaconUpgraded",
      "type": "event"
    },
    {
      "anonymous": false,
      "inputs": [
        {
          "indexed": false,
          "internalType": "uint256",
          "name": "_candidateId",
          "type": "uint256"
        },
        {
          "indexed": false,
          "internalType": "string",
          "name": "_candidateName",
          "type": "string"
        }
      ],
      "name": "CandidateCreated",
      "type": "event"
    },
    {
      "anonymous": false,
      "inputs": [
        {
          "indexed": false,
          "internalType": "uint256[]",
          "name": "_winnerIds",
          "type": "uint256[]"
        },
        {
          "indexed": false,
          "internalType": "uint256",
          "name": "_winnerVoteCount",
          "type": "uint256"
        }
      ],
      "name": "ElectionEnded",
      "type": "event"
    },
    {
      "anonymous": false,
      "inputs": [
        {
          "indexed": false,
          "internalType": "address",
          "name": "account",
          "type": "address"
        }
      ],
      "name": "Paused",
      "type": "event"
    },
    {
      "anonymous": false,
      "inputs": [
        {
          "indexed": false,
          "internalType": "address",
          "name": "account",
          "type": "address"
        }
      ],
      "name": "Unpaused",
      "type": "event"
    },
    {
      "anonymous": false,
      "inputs": [
        {
          "indexed": true,
          "internalType": "address",
          "name": "implementation",
          "type": "address"
        }
      ],
      "name": "Upgraded",
      "type": "event"
    },
    {
      "anonymous": false,
      "inputs": [
        {
          "indexed": false,
          "internalType": "uint256",
          "name": "_candidateId",
          "type": "uint256"
        },
        {
          "indexed": false,
          "internalType": "uint256",
          "name": "_candidateVoteCount",
          "type": "uint256"
        }
      ],
      "name": "VoteForCandidate",
      "type": "event"
    },
    {
      "inputs": [],
      "name": "Active",
      "outputs": [
        {
          "internalType": "bool",
          "name": "",
          "type": "bool"
        }
      ],
      "stateMutability": "view",
      "type": "function"
    },
    {
      "inputs": [],
      "name": "Ended",
      "outputs": [
        {
          "internalType": "bool",
          "name": "",
          "type": "bool"
        }
      ],
      "stateMutability": "view",
      "type": "function"
    },
    {
      "inputs": [
        {
          "internalType": "address",
          "name": "_newTeacher",
          "type": "address"
        }
      ],
      "name": "addTeacher",
      "outputs": [],
      "stateMutability": "nonpayable",
      "type": "function"
    },
    {
      "inputs": [
        {
          "internalType": "uint256",
          "name": "",
          "type": "uint256"
        }
      ],
      "name": "candidates",
      "outputs": [
        {
          "internalType": "uint256",
          "name": "id",
          "type": "uint256"
        },
        {
          "internalType": "string",
          "name": "name",
          "type": "string"
        },
        {
          "internalType": "uint256",
          "name": "voteCount",
          "type": "uint256"
        }
      ],
      "stateMutability": "view",
      "type": "function"
    },
    {
      "inputs": [],
      "name": "candidatesCount",
      "outputs": [
        {
          "internalType": "uint256",
          "name": "",
          "type": "uint256"
        }
      ],
      "stateMutability": "view",
      "type": "function"
    },
    {
      "inputs": [],
      "name": "chairman",
      "outputs": [
        {
          "internalType": "address",
          "name": "",
          "type": "address"
        }
      ],
      "stateMutability": "view",
      "type": "function"
    },
    {
      "inputs": [
        {
          "internalType": "address",
          "name": "_newChairman",
          "type": "address"
        }
      ],
      "name": "changeChairman",
      "outputs": [],
      "stateMutability": "nonpayable",
      "type": "function"
    },
    {
      "inputs": [],
      "name": "description",
      "outputs": [
        {
          "internalType": "string",
          "name": "",
          "type": "string"
        }
      ],
      "stateMutability": "view",
      "type": "function"
    },
    {
      "inputs": [],
      "name": "endElection",
      "outputs": [],
      "stateMutability": "nonpayable",
      "type": "function"
    },
    {
      "inputs": [
        {
          "internalType": "bytes32",
          "name": "merkleRoot",
          "type": "bytes32"
        }
      ],
      "name": "initialize",
      "outputs": [],
      "stateMutability": "nonpayable",
      "type": "function"
    },
    {
      "inputs": [
        {
          "internalType": "bytes32[]",
          "name": "proof",
          "type": "bytes32[]"
        },
        {
          "internalType": "bytes32",
          "name": "leaf",
          "type": "bytes32"
        }
      ],
      "name": "isValid",
      "outputs": [
        {
          "internalType": "bool",
          "name": "",
          "type": "bool"
        }
      ],
      "stateMutability": "view",
      "type": "function"
    },
    {
      "inputs": [],
      "name": "name",
      "outputs": [
        {
          "internalType": "string",
          "name": "",
          "type": "string"
        }
      ],
      "stateMutability": "view",
      "type": "function"
    },
    {
      "inputs": [],
      "name": "pause",
      "outputs": [],
      "stateMutability": "nonpayable",
      "type": "function"
    },
    {
      "inputs": [],
      "name": "paused",
      "outputs": [
        {
          "internalType": "bool",
          "name": "",
          "type": "bool"
        }
      ],
      "stateMutability": "view",
      "type": "function"
    },
    {
      "inputs": [],
      "name": "proxiableUUID",
      "outputs": [
        {
          "internalType": "bytes32",
          "name": "",
          "type": "bytes32"
        }
      ],
      "stateMutability": "view",
      "type": "function"
    },
    {
      "inputs": [
        {
          "internalType": "address",
          "name": "_teacher",
          "type": "address"
        }
      ],
      "name": "removeTeacher",
      "outputs": [],
      "stateMutability": "nonpayable",
      "type": "function"
    },
    {
      "inputs": [],
      "name": "root",
      "outputs": [
        {
          "internalType": "bytes32",
          "name": "",
          "type": "bytes32"
        }
      ],
      "stateMutability": "view",
      "type": "function"
    },
    {
      "inputs": [],
      "name": "startElection",
      "outputs": [],
      "stateMutability": "nonpayable",
      "type": "function"
    },
    {
      "inputs": [
        {
          "internalType": "address",
          "name": "",
          "type": "address"
        }
      ],
      "name": "teachers",
      "outputs": [
        {
          "internalType": "bool",
          "name": "",
          "type": "bool"
        }
      ],
      "stateMutability": "view",
      "type": "function"
    },
    {
      "inputs": [],
      "name": "unpause",
      "outputs": [],
      "stateMutability": "nonpayable",
      "type": "function"
    },
    {
      "inputs": [
        {
          "internalType": "address",
          "name": "newImplementation",
          "type": "address"
        }
      ],
      "name": "upgradeTo",
      "outputs": [],
      "stateMutability": "nonpayable",
      "type": "function"
    },
    {
      "inputs": [
        {
          "internalType": "address",
          "name": "newImplementation",
          "type": "address"
        },
        {
          "internalType": "bytes",
          "name": "data",
          "type": "bytes"
        }
      ],
      "name": "upgradeToAndCall",
      "outputs": [],
      "stateMutability": "payable",
      "type": "function"
    },
    {
      "inputs": [
        {
          "internalType": "uint256",
          "name": "_candidateId",
          "type": "uint256"
        },
        {
          "internalType": "bytes32[]",
          "name": "hexProof",
          "type": "bytes32[]"
        }
      ],
      "name": "vote",
      "outputs": [],
      "stateMutability": "nonpayable",
      "type": "function"
    },
    {
      "inputs": [
        {
          "internalType": "address",
          "name": "",
          "type": "address"
        }
      ],
      "name": "voted",
      "outputs": [
        {
          "internalType": "bool",
          "name": "",
          "type": "bool"
        }
      ],
      "stateMutability": "view",
      "type": "function"
    },
    {
      "inputs": [
        {
          "internalType": "uint256",
          "name": "",
          "type": "uint256"
        }
      ],
      "name": "winnerIds",
      "outputs": [
        {
          "internalType": "uint256",
          "name": "",
          "type": "uint256"
        }
      ],
      "stateMutability": "view",
      "type": "function"
    },
    {
      "inputs": [],
      "name": "winnerVoteCount",
      "outputs": [
        {
          "internalType": "uint256",
          "name": "",
          "type": "uint256"
        }
      ],
      "stateMutability": "view",
      "type": "function"
    }
  ],
  "bytecode": "0x60a06040523073ffffffffffffffffffffffffffffffffffffffff1660809073ffffffffffffffffffffffffffffffffffffffff168152503480156200004457600080fd5b50600060019054906101000a900460ff166200006f5760008054906101000a900460ff161562000080565b6200007f6200017060201b60201c565b5b620000c2576040517f08c379a0000000000000000000000000000000000000000000000000000000008152600401620000b9906200023b565b60405180910390fd5b60008060019054906101000a900460ff16159050801562000113576001600060016101000a81548160ff02191690831515021790555060016000806101000a81548160ff0219169083151502179055505b620001477fc148c3416430e495184aa7e5f85fac527c54a366326f87b46b0c9a7aac021b4260001b6200018e60201b60201c565b8015620001695760008060016101000a81548160ff0219169083151502179055505b506200025d565b600062000188306200019160201b620027351760201c565b15905090565b50565b6000808273ffffffffffffffffffffffffffffffffffffffff163b119050919050565b600082825260208201905092915050565b7f496e697469616c697a61626c653a20636f6e747261637420697320616c72656160008201527f647920696e697469616c697a6564000000000000000000000000000000000000602082015250565b600062000223602e83620001b4565b91506200023082620001c5565b604082019050919050565b60006020820190508181036000830152620002568162000214565b9050919050565b608051614dc76200029560003960008181610723015281816107b201528181610dcb01528181610e5a0152610f0a0152614dc76000f3fe6080604052600436106101815760003560e01c80635c975abb116100d1578063aec2ccae1161008a578063e810186911610064578063e81018691461051b578063ebf0c71714610544578063f0a47f781461056f578063fd27419b146105ac57610181565b8063aec2ccae14610476578063b8a20ed0146104b3578063c9b0a2a7146104f057610181565b80635c975abb1461039e57806362d73eb8146103c95780637284e416146103e05780638456cb591461040b57806387f7b975146104225780639498bd711461044d57610181565b80633f4ba83a1161013e5780634f1ef286116101185780634f1ef2861461031757806352d1902d1461033357806352ff68461461035e57806359f784681461038757610181565b80633f4ba83a14610298578063403d1312146102af578063477383f3146102ec57610181565b806306fdde03146101865780632d35a8a2146101b15780632f22850d146101dc5780633477ee2e146102075780633659cfe6146102465780633bc6e3091461026f575b600080fd5b34801561019257600080fd5b5061019b6105d5565b6040516101a89190613aaf565b60405180910390f35b3480156101bd57600080fd5b506101c6610663565b6040516101d39190613aea565b60405180910390f35b3480156101e857600080fd5b506101f1610669565b6040516101fe9190613aea565b60405180910390f35b34801561021357600080fd5b5061022e60048036038101906102299190613b45565b61066f565b60405161023d93929190613b72565b60405180910390f35b34801561025257600080fd5b5061026d60048036038101906102689190613c0e565b610721565b005b34801561027b57600080fd5b5061029660048036038101906102919190613c0e565b6108aa565b005b3480156102a457600080fd5b506102ad610b6c565b005b3480156102bb57600080fd5b506102d660048036038101906102d19190613b45565b610d92565b6040516102e39190613aea565b60405180910390f35b3480156102f857600080fd5b50610301610db6565b60405161030e9190613c56565b60405180910390f35b610331600480360381019061032c9190613da6565b610dc9565b005b34801561033f57600080fd5b50610348610f06565b6040516103559190613e1b565b60405180910390f35b34801561036a57600080fd5b5061038560048036038101906103809190613c0e565b610fbf565b005b34801561039357600080fd5b5061039c611281565b005b3480156103aa57600080fd5b506103b36115f8565b6040516103c09190613c56565b60405180910390f35b3480156103d557600080fd5b506103de61160f565b005b3480156103ec57600080fd5b506103f5611890565b6040516104029190613aaf565b60405180910390f35b34801561041757600080fd5b5061042061191e565b005b34801561042e57600080fd5b50610437611b44565b6040516104449190613e45565b60405180910390f35b34801561045957600080fd5b50610474600480360381019061046f9190613e8c565b611b6a565b005b34801561048257600080fd5b5061049d60048036038101906104989190613c0e565b611ef7565b6040516104aa9190613c56565b60405180910390f35b3480156104bf57600080fd5b506104da60048036038101906104d59190613f81565b611f17565b6040516104e79190613c56565b60405180910390f35b3480156104fc57600080fd5b50610505611fb2565b6040516105129190613c56565b60405180910390f35b34801561052757600080fd5b50610542600480360381019061053d9190613c0e565b611fc5565b005b34801561055057600080fd5b5061055961226d565b6040516105669190613e1b565b60405180910390f35b34801561057b57600080fd5b5061059660048036038101906105919190613c0e565b612273565b6040516105a39190613c56565b60405180910390f35b3480156105b857600080fd5b506105d360048036038101906105ce9190614038565b612293565b005b60ca80546105e2906140c7565b80601f016020809104026020016040519081016040528092919081815260200182805461060e906140c7565b801561065b5780601f106106305761010080835404028352916020019161065b565b820191906000526020600020905b81548152906001019060200180831161063e57829003601f168201915b505050505081565b60cd5481565b60d25481565b60d0602052806000526040600020600091509050806000015490806001018054610698906140c7565b80601f01602080910402602001604051908101604052809291908181526020018280546106c4906140c7565b80156107115780601f106106e657610100808354040283529160200191610711565b820191906000526020600020905b8154815290600101906020018083116106f457829003601f168201915b5050505050908060020154905083565b7f000000000000000000000000000000000000000000000000000000000000000073ffffffffffffffffffffffffffffffffffffffff163073ffffffffffffffffffffffffffffffffffffffff1614156107b0576040517f08c379a00000000000000000000000000000000000000000000000000000000081526004016107a79061416b565b60405180910390fd5b7f000000000000000000000000000000000000000000000000000000000000000073ffffffffffffffffffffffffffffffffffffffff166107ef612758565b73ffffffffffffffffffffffffffffffffffffffff1614610845576040517f08c379a000000000000000000000000000000000000000000000000000000000815260040161083c906141fd565b60405180910390fd5b61084e816127af565b6108a781600067ffffffffffffffff81111561086d5761086c613c7b565b5b6040519080825280601f01601f19166020018201604052801561089f5781602001600182028036833780820191505090505b5060006129be565b50565b6108b26115f8565b156108f2576040517f08c379a00000000000000000000000000000000000000000000000000000000081526004016108e990614269565b60405180910390fd5b61091e7f647f8565636a78af1b1a8b9400032d19db4b57f05b6335876b41002011fe75a460001b612b2c565b61094a7fe4c352d770f91ec3bae11894ac150a32d9a6cb4da8ef0beea2601aca1238d17460001b612b2c565b6109767f443abaf965ff378f7f93f7126f8ef7ea116c10a436b40344c5b6664074b5888760001b612b2c565b6109a27ff1d65da40cd7da7cd1d29d0f52b82a06cfdd3f1889285c71aa3c5feaa406241660001b612b2c565b3373ffffffffffffffffffffffffffffffffffffffff1660c960009054906101000a900473ffffffffffffffffffffffffffffffffffffffff1673ffffffffffffffffffffffffffffffffffffffff161480610a4e57506001151560ce60003373ffffffffffffffffffffffffffffffffffffffff1673ffffffffffffffffffffffffffffffffffffffff16815260200190815260200160002060009054906101000a900460ff161515145b610a8d576040517f08c379a0000000000000000000000000000000000000000000000000000000008152600401610a84906142fb565b60405180910390fd5b610ab97fa00c272cf75a8e59d101b8a4e69e45781bc21011ebe04bddadb1075faf299d8260001b612b2c565b610ae57f5ae36ab7e907aa1aeb4ca0251f16c35c417d7b589c774a83f06d1bcc8882b74c60001b612b2c565b610b117f458faf568390ebdcc623372ab15850c6afc5861a1ce2a9a66e1dc8d43e004ca560001b612b2c565b600160ce60008373ffffffffffffffffffffffffffffffffffffffff1673ffffffffffffffffffffffffffffffffffffffff16815260200190815260200160002060006101000a81548160ff02191690831515021790555050565b610b987ff10368458a1e8950f55708f9d928976985fd6a397515e608fbc35721f47bc11160001b612b2c565b610bc47fd7f1e7c923c834b0cd9f7ae6f2ec5dfded676e8b0c9d801158b264f0d24a8d9a60001b612b2c565b610bf07fa8376455167799a5f7783c9a2746fd868015caadded1496a6d3285313dd5824a60001b612b2c565b610c1c7f3d99decd8dc16d966e03cb906537c21473376b91051ddf053214e985effb432c60001b612b2c565b60c960009054906101000a900473ffffffffffffffffffffffffffffffffffffffff1673ffffffffffffffffffffffffffffffffffffffff163373ffffffffffffffffffffffffffffffffffffffff1614610cac576040517f08c379a0000000000000000000000000000000000000000000000000000000008152600401610ca39061438d565b60405180910390fd5b610cd87f9ac8d3a927f4e73e1d754d8ab32f5e300854da6298b98a2f43560d168359746e60001b612b2c565b610d047f3270b14e1b2239186b3c058ec7dbc5ce62f3adc9f41b6ba75756943bdf2656c460001b612b2c565b610d307fb6c18b71270308205508530b9848e075ede2a048ce6cacbc880e97330c19bf5460001b612b2c565b610d5c7fa92ce9aa72570f37b18f188a2651aa0f0c21f6e2205252be6aafc9a5b22e92ae60001b612b2c565b610d887f67e0f1295d03631725b364e5b7deb02af935254e944c594e31bd35eedb09b50a60001b612b2c565b610d90612b2f565b565b60d18181548110610da257600080fd5b906000526020600020016000915090505481565b60d360019054906101000a900460ff1681565b7f000000000000000000000000000000000000000000000000000000000000000073ffffffffffffffffffffffffffffffffffffffff163073ffffffffffffffffffffffffffffffffffffffff161415610e58576040517f08c379a0000000000000000000000000000000000000000000000000000000008152600401610e4f9061416b565b60405180910390fd5b7f000000000000000000000000000000000000000000000000000000000000000073ffffffffffffffffffffffffffffffffffffffff16610e97612758565b73ffffffffffffffffffffffffffffffffffffffff1614610eed576040517f08c379a0000000000000000000000000000000000000000000000000000000008152600401610ee4906141fd565b60405180910390fd5b610ef6826127af565b610f02828260016129be565b5050565b60007f000000000000000000000000000000000000000000000000000000000000000073ffffffffffffffffffffffffffffffffffffffff163073ffffffffffffffffffffffffffffffffffffffff1614610f96576040517f08c379a0000000000000000000000000000000000000000000000000000000008152600401610f8d9061441f565b60405180910390fd5b7f360894a13ba1a3210667c828492db98dca3e2076cc3735a920a3ca505d382bbc60001b905090565b610fc76115f8565b15611007576040517f08c379a0000000000000000000000000000000000000000000000000000000008152600401610ffe90614269565b60405180910390fd5b6110337f4e682562efcf2b4db1db442268e4f7f62bedb4f9cea17c42904e1fe44d2f0f4560001b612b2c565b61105f7f2c39c8babfadc7095ca6f199222200ab0de89d30c24aabe11552c770fce0620860001b612b2c565b61108b7ff6ae938701626db699221d94f02e273855c88ffa93c2dda398f1621835a0b46e60001b612b2c565b6110b77f72e3c4fa2bdc5c4f20b12839766a54882affff3548d8307fae762780c35c18ba60001b612b2c565b3373ffffffffffffffffffffffffffffffffffffffff1660c960009054906101000a900473ffffffffffffffffffffffffffffffffffffffff1673ffffffffffffffffffffffffffffffffffffffff16148061116357506001151560ce60003373ffffffffffffffffffffffffffffffffffffffff1673ffffffffffffffffffffffffffffffffffffffff16815260200190815260200160002060009054906101000a900460ff161515145b6111a2576040517f08c379a0000000000000000000000000000000000000000000000000000000008152600401611199906142fb565b60405180910390fd5b6111ce7ffd14a535a0bbc1c498870db62231018fdbec1c97b0fb4560795f912471f88bda60001b612b2c565b6111fa7f5e167ebe276c8633fea3eca617d845d29aef3ce367def3b48f1de05bd95e589e60001b612b2c565b6112267f60905a303297992b7dd411b3bc183e501c767b55f7e1d46f0003049b4959a53460001b612b2c565b600060ce60008373ffffffffffffffffffffffffffffffffffffffff1673ffffffffffffffffffffffffffffffffffffffff16815260200190815260200160002060006101000a81548160ff02191690831515021790555050565b6112896115f8565b156112c9576040517f08c379a00000000000000000000000000000000000000000000000000000000081526004016112c090614269565b60405180910390fd5b6112f57ff10368458a1e8950f55708f9d928976985fd6a397515e608fbc35721f47bc11160001b612b2c565b6113217fd7f1e7c923c834b0cd9f7ae6f2ec5dfded676e8b0c9d801158b264f0d24a8d9a60001b612b2c565b61134d7fa8376455167799a5f7783c9a2746fd868015caadded1496a6d3285313dd5824a60001b612b2c565b6113797f3d99decd8dc16d966e03cb906537c21473376b91051ddf053214e985effb432c60001b612b2c565b60c960009054906101000a900473ffffffffffffffffffffffffffffffffffffffff1673ffffffffffffffffffffffffffffffffffffffff163373ffffffffffffffffffffffffffffffffffffffff1614611409576040517f08c379a00000000000000000000000000000000000000000000000000000000081526004016114009061438d565b60405180910390fd5b6114357f9ac8d3a927f4e73e1d754d8ab32f5e300854da6298b98a2f43560d168359746e60001b612b2c565b6114617f3270b14e1b2239186b3c058ec7dbc5ce62f3adc9f41b6ba75756943bdf2656c460001b612b2c565b61148d7f28788e5c9444ea19062ebb6d9da0dc4133346e2eb9d8a9f9890b03f38c55d92560001b612b2c565b6114b97fc1f2f05a72013c155e8db264c5e782ce5fb1332af4ab0a4dbf23ec2d444b5c8d60001b612b2c565b6114e57f8c6601304668a6293b0b348625515c565e1ff373894dcedf25b768fea1a9ccf960001b612b2c565b600160d360016101000a81548160ff02191690831515021790555061152c7f57641378a2b6662375cb8d9ef33684d81d2cb15b169a498bb5c654a1603a3c8d60001b612b2c565b6115587fd6480dbacf21101c8fdee5a8ea516058b615a83929f6388b33685cbb873526c460001b612b2c565b611560612bd1565b505061158e7f9e1bb5315f94c9aa1a1cb57bf207c894244929a9d7b82c90706e828dded6170760001b612b2c565b6115ba7fe317966e63338e812348c7748947cece9d022b929b604f31faaa8b8f39c5ff2060001b612b2c565b7f38d8ebbbb4803f034f19b4cf2f19bfb84cc5dea177696c1f80a19357d5602e0460d160d2546040516115ee92919061454d565b60405180910390a1565b6000603360009054906101000a900460ff16905090565b6116176115f8565b15611657576040517f08c379a000000000000000000000000000000000000000000000000000000000815260040161164e90614269565b60405180910390fd5b6116837ff10368458a1e8950f55708f9d928976985fd6a397515e608fbc35721f47bc11160001b612b2c565b6116af7fd7f1e7c923c834b0cd9f7ae6f2ec5dfded676e8b0c9d801158b264f0d24a8d9a60001b612b2c565b6116db7fa8376455167799a5f7783c9a2746fd868015caadded1496a6d3285313dd5824a60001b612b2c565b6117077f3d99decd8dc16d966e03cb906537c21473376b91051ddf053214e985effb432c60001b612b2c565b60c960009054906101000a900473ffffffffffffffffffffffffffffffffffffffff1673ffffffffffffffffffffffffffffffffffffffff163373ffffffffffffffffffffffffffffffffffffffff1614611797576040517f08c379a000000000000000000000000000000000000000000000000000000000815260040161178e9061438d565b60405180910390fd5b6117c37f9ac8d3a927f4e73e1d754d8ab32f5e300854da6298b98a2f43560d168359746e60001b612b2c565b6117ef7f3270b14e1b2239186b3c058ec7dbc5ce62f3adc9f41b6ba75756943bdf2656c460001b612b2c565b61181b7fc5ec14fb9a2b00f3712cd29de0f531c266c6fc337e4d871847053fc264ae74de60001b612b2c565b6118477f7d6d1a41dcd407c213f1f7622d60f9d9c15f915af936918ae8b3a9cea7fc4cdb60001b612b2c565b6118737f69065ee662199b8c69f2aca7a21d4ce9b5f6d1573c891a6e722d0957f81f022560001b612b2c565b600160d360006101000a81548160ff021916908315150217905550565b60cb805461189d906140c7565b80601f01602080910402602001604051908101604052809291908181526020018280546118c9906140c7565b80156119165780601f106118eb57610100808354040283529160200191611916565b820191906000526020600020905b8154815290600101906020018083116118f957829003601f168201915b505050505081565b61194a7ff10368458a1e8950f55708f9d928976985fd6a397515e608fbc35721f47bc11160001b612b2c565b6119767fd7f1e7c923c834b0cd9f7ae6f2ec5dfded676e8b0c9d801158b264f0d24a8d9a60001b612b2c565b6119a27fa8376455167799a5f7783c9a2746fd868015caadded1496a6d3285313dd5824a60001b612b2c565b6119ce7f3d99decd8dc16d966e03cb906537c21473376b91051ddf053214e985effb432c60001b612b2c565b60c960009054906101000a900473ffffffffffffffffffffffffffffffffffffffff1673ffffffffffffffffffffffffffffffffffffffff163373ffffffffffffffffffffffffffffffffffffffff1614611a5e576040517f08c379a0000000000000000000000000000000000000000000000000000000008152600401611a559061438d565b60405180910390fd5b611a8a7f9ac8d3a927f4e73e1d754d8ab32f5e300854da6298b98a2f43560d168359746e60001b612b2c565b611ab67f3270b14e1b2239186b3c058ec7dbc5ce62f3adc9f41b6ba75756943bdf2656c460001b612b2c565b611ae27f0eb11335a755f683bf2199128a7d82f797a901c99ec6fded58e7e75a272accd360001b612b2c565b611b0e7f7e2e77ca21aa1b46b9b0aad6729d34129f7d6c650038a359e5a0d7790112444460001b612b2c565b611b3a7f0fcb49922ecb56b47c45c8be27aeb49621fd0d364c7e88bcc10d4e783067ad0460001b612b2c565b611b426130d6565b565b60c960009054906101000a900473ffffffffffffffffffffffffffffffffffffffff1681565b600060019054906101000a900460ff16611b925760008054906101000a900460ff1615611b9b565b611b9a613179565b5b611bda576040517f08c379a0000000000000000000000000000000000000000000000000000000008152600401611bd1906145ef565b60405180910390fd5b60008060019054906101000a900460ff161590508015611c2a576001600060016101000a81548160ff02191690831515021790555060016000806101000a81548160ff0219169083151502179055505b611c567f9ace2e23f110f2c2476b0d524036c4bf1ec765e5c3cb793462562f5b4e2b86ac60001b612b2c565b611c827f0975c750226379d8e306b1cb38d23cf769884ad24d4a9239b8420e07289b843060001b612b2c565b611cae7f57f5a17dd93d2f433b98d7291ccab2ea3b364f7f2df5a0396e632fb0a7fca96060001b612b2c565b3373ffffffffffffffffffffffffffffffffffffffff1660c960009054906101000a90505050611d007fe830c0ee140fbbbc436032dc4ce74bd2d88f47070d3b8087f3b8b7c31c8538a860001b612b2c565b611d2c7f2e81cca64ca6d6ab4ca06c40af7e18ae6e9cd6a37361c0931afaa89efa28505460001b612b2c565b611d587f2e36c2aedf7468fbaaba247f8cafdadfbb4c967f336c17fdab6ec386129c178c60001b612b2c565b611d847fb05fc425ef53341246609de4eb849e0eb5049a64251509c4e358adf537a6b98b60001b612b2c565b600060d360006101000a81548160ff021916908315150217905550611dcb7f082c10ba22f146a66f8b226a850dd3314ece4f503137b8b50d93c7dc07b98e0860001b612b2c565b611df77f060dfe5f924a445355811c299be4e1cf7b18a8d116987905341223ffc0d2ebd660001b612b2c565b600060d360016101000a81548160ff021916908315150217905550611e3e7fe97062e62347a347ce9f89ca4532670ff1ee6c014d411f2f0a2d82d3a9d32e4260001b612b2c565b611e6a7f579336b80875a4b5d62d2d2dbe5d2b35ece70268c608b84d96234d695065ee0c60001b612b2c565b600060cd81905550611e9e7f2757f444343bcf165c7c879a1ad14e8184e216f8ae1351feeb45777be5478fc560001b612b2c565b611eca7f051fab2ffd12f89504c5879306ab5485d16310d46507eab23210ce88f0f42fec60001b612b2c565b611ed261318a565b8015611ef35760008060016101000a81548160ff0219169083151502179055505b5050565b60cf6020528060005260406000206000915054906101000a900460ff1681565b6000611f457f7ea2f91b44b3471592202a59559efc29bdbd4e67105ea0a7a79354b9fff7c1b960001b612b2c565b611f717fc1c4b225ebe7491342da42441a5fa896e9aecad3bfca40bc9979493f60ab7bcb60001b612b2c565b611f9d7ff166cb8eb0dccef39b57656388ea6f6021a27060f3424486dd9abfff75d52c8e60001b612b2c565b611faa8360cc54846131db565b905092915050565b60d360009054906101000a900460ff1681565b611fcd6115f8565b1561200d576040517f08c379a000000000000000000000000000000000000000000000000000000000815260040161200490614269565b60405180910390fd5b6120397ff10368458a1e8950f55708f9d928976985fd6a397515e608fbc35721f47bc11160001b612b2c565b6120657fd7f1e7c923c834b0cd9f7ae6f2ec5dfded676e8b0c9d801158b264f0d24a8d9a60001b612b2c565b6120917fa8376455167799a5f7783c9a2746fd868015caadded1496a6d3285313dd5824a60001b612b2c565b6120bd7f3d99decd8dc16d966e03cb906537c21473376b91051ddf053214e985effb432c60001b612b2c565b60c960009054906101000a900473ffffffffffffffffffffffffffffffffffffffff1673ffffffffffffffffffffffffffffffffffffffff163373ffffffffffffffffffffffffffffffffffffffff161461214d576040517f08c379a00000000000000000000000000000000000000000000000000000000081526004016121449061438d565b60405180910390fd5b6121797f9ac8d3a927f4e73e1d754d8ab32f5e300854da6298b98a2f43560d168359746e60001b612b2c565b6121a57f3270b14e1b2239186b3c058ec7dbc5ce62f3adc9f41b6ba75756943bdf2656c460001b612b2c565b6121d17fa3c63ef2c6d970ee391e725659543776b9b172cea12bb1d3407f96000bf0809260001b612b2c565b6121fd7f5b1531256f8e22ce8cb2d338e0aa7512f2d192c91151878940b2cde31e19d14e60001b612b2c565b6122297f905397cd83c0a0c8e00ee1cda927ace007910bc92abc3e3102583b275fef7ce560001b612b2c565b8060c960006101000a81548173ffffffffffffffffffffffffffffffffffffffff021916908373ffffffffffffffffffffffffffffffffffffffff16021790555050565b60cc5481565b60ce6020528060005260406000206000915054906101000a900460ff1681565b6122bf7f127ed3cdc677c3b4df3882a0324ee9814daa9a4594d474ead6861d701351c72d60001b612b2c565b6122eb7fff62d83e44367c49b2c52660f37ee3c4671b3a81ae1d2c892920ef566ff0e3ae60001b612b2c565b6123177fadbccd420bd42d67d7af9d01c4cde18692d5dc297d85010bec7a5e7d9709ee5e60001b612b2c565b6123437f82fd32ad4f6f90946ac741c3881c887aca20cd82a4fe5f2c46bd57f8e864719d60001b612b2c565b60d360019054906101000a900460ff1615612393576040517f08c379a000000000000000000000000000000000000000000000000000000000815260040161238a9061465b565b60405180910390fd5b6123bf7faa541832e7c45b1f9cdbe5e11cba12db426dfaaace61adad4b3b7d0e6feec7bd60001b612b2c565b6123eb7f3cf9fa72d3cc65eb6f163983b402ad9ed5daceabde5e63d0443e7b91dd9fd19860001b612b2c565b6124177fbc5e837481a62a503f356e17536aaa01dfb927083649dc13e0ef7a8c109ab0dc60001b612b2c565b6124437f1a0fb6d0eb0b2ca8ecab5dd8ee2640ca654fa3b5e4bf96ccfa3bc887d2d7cc8d60001b612b2c565b61246f7f2400b544cfa17e229110af76130e00ba3670111d0b816bddbd49ff01cebf902360001b612b2c565b61249b7f8290af1050945caa0784190b1bb8285e221df0ace2b47cb2887242956b4932ef60001b612b2c565b60d360009054906101000a900460ff166124ea576040517f08c379a00000000000000000000000000000000000000000000000000000000081526004016124e1906146c7565b60405180910390fd5b6125167f9105da7c679f65e4eb53af1d078c4a53e6b92a94779edaf83d18b8dbc8a98b5f60001b612b2c565b6125427fa4f8ebfa0bcf3c4b117d74552e050fe22086d78c0fdb2c01888b4b4d331127b260001b612b2c565b61256e7f5f3483e5530fc89c17f8385258c17b7b9f6fe9d8a0749b06b762e58f8959bdca60001b612b2c565b61259a7feee8ad60c650688b85674c06bace49f696fd8855d7b3960bef134c418bcec19e60001b612b2c565b6125c67fe589a0492b5efb3d69c62106c4e489736a5492eebc34447ce9987e0789adf0f360001b612b2c565b6125f27f3e86f88c4efd3c7866a80f63e83788e775779c1fa9ab59e1adf7eb67c0f9da0c60001b612b2c565b612663828280806020026020016040519081016040528093929190818152602001838360200280828437600081840152601f19601f8201169050808301925050505050505033604051602001612648919061472f565b60405160208183030381529060405280519060200120611f17565b6126a2576040517f08c379a0000000000000000000000000000000000000000000000000000000008152600401612699906147bc565b60405180910390fd5b6126ce7f1d830ed6ab7d9f5a54ad467677b8108137d686e7931b1333e4bbd0c41d42c41960001b612b2c565b6126fa7fe4da5737da703f921c09a16433e4c55b06a02be029c9b6ded6e106fedd91ea3260001b612b2c565b6127267fcf2a3fbb94cefa12bd738dd4217306af8bbedd85db691383986c64c0ddfa588f60001b612b2c565b61273083336131f2565b505050565b6000808273ffffffffffffffffffffffffffffffffffffffff163b119050919050565b60006127867f360894a13ba1a3210667c828492db98dca3e2076cc3735a920a3ca505d382bbc60001b6136b1565b60000160009054906101000a900473ffffffffffffffffffffffffffffffffffffffff16905090565b6127db7ff10368458a1e8950f55708f9d928976985fd6a397515e608fbc35721f47bc11160001b612b2c565b6128077fd7f1e7c923c834b0cd9f7ae6f2ec5dfded676e8b0c9d801158b264f0d24a8d9a60001b612b2c565b6128337fa8376455167799a5f7783c9a2746fd868015caadded1496a6d3285313dd5824a60001b612b2c565b61285f7f3d99decd8dc16d966e03cb906537c21473376b91051ddf053214e985effb432c60001b612b2c565b60c960009054906101000a900473ffffffffffffffffffffffffffffffffffffffff1673ffffffffffffffffffffffffffffffffffffffff163373ffffffffffffffffffffffffffffffffffffffff16146128ef576040517f08c379a00000000000000000000000000000000000000000000000000000000081526004016128e69061438d565b60405180910390fd5b61291b7f9ac8d3a927f4e73e1d754d8ab32f5e300854da6298b98a2f43560d168359746e60001b612b2c565b6129477f3270b14e1b2239186b3c058ec7dbc5ce62f3adc9f41b6ba75756943bdf2656c460001b612b2c565b61294f6115f8565b1561298f576040517f08c379a000000000000000000000000000000000000000000000000000000000815260040161298690614269565b60405180910390fd5b6129bb7fe0d3a8a961f2a7a18994ab8dfe35d1df998f28b79bcde1a79aae5c48ee71011060001b612b2c565b50565b6129ea7f4910fdfa16fed3260ed0e7147f7cc6da11a60208b5b9406d12a635614ffd914360001b6136bb565b60000160009054906101000a900460ff1615612a0e57612a09836136c5565b612b27565b8273ffffffffffffffffffffffffffffffffffffffff166352d1902d6040518163ffffffff1660e01b8152600401602060405180830381865afa925050508015612a7657506040513d601f19601f82011682018060405250810190612a7391906147f1565b60015b612ab5576040517f08c379a0000000000000000000000000000000000000000000000000000000008152600401612aac90614890565b60405180910390fd5b7f360894a13ba1a3210667c828492db98dca3e2076cc3735a920a3ca505d382bbc60001b8114612b1a576040517f08c379a0000000000000000000000000000000000000000000000000000000008152600401612b1190614922565b60405180910390fd5b50612b2683838361377e565b5b505050565b50565b612b376115f8565b612b76576040517f08c379a0000000000000000000000000000000000000000000000000000000008152600401612b6d9061498e565b60405180910390fd5b6000603360006101000a81548160ff0219169083151502179055507f5db9ee0a495bf2e6ff9c91a7834c1ba4fdd244a5e8aa4e537bd38aeae4b073aa612bba6137aa565b604051612bc79190613e45565b60405180910390a1565b60006060612bdd6115f8565b15612c1d576040517f08c379a0000000000000000000000000000000000000000000000000000000008152600401612c1490614269565b60405180910390fd5b612c497f85099047f48d4f172ea26128c5ad3bacb7c038d1bdcc4a4da06973edb42e31a060001b612b2c565b612c757fbdc313912be04859411b4daa50c3be9b4ab6cc059511441edbd0c2a852a2099860001b612b2c565b612ca17f4a6dbb52f1d19f49f1521498189d17e67b23d4a5e656d8ad33f5d108d0d0b5dc60001b612b2c565b60005b60cd5481101561301e57612cda7fd8f11a683391e8ef9aacf21d1e8099e1da819896a80a34ccb5905c0a4372fb3c60001b612b2c565b612d067fd926a409dfa6be33c9d7857b8ab42c29afe397106d83743a75f2efe639ff5f8a60001b612b2c565b60d25460d06000838152602001908152602001600020600201541115612e9d57612d527f01dbe1f6f3814d6e9d4b0ebad11be147efaa5893065b90e1bb04f3a24b25b1e860001b612b2c565b612d7e7fba6157d61e9b30815382d7948370b0966b0cc4967fc9deed9d3635b87fecd52f60001b612b2c565b612daa7feab754abfb2f39f44972655f49ac7d406c54c2b073adea87b2005d6ed6b8d49360001b612b2c565b60d060008281526020019081526020016000206002015460d281905550612df37f0f0dec143076cf2a25ae8f6440799b3e1275ea4ef27e2b86df0e72346324524a60001b612b2c565b60d16000612e0191906139d8565b612e2d7f99795938260be343f6b98336250ffc513d0ecdcd5ba5287e7d452a259281b26a60001b612b2c565b612e597f52aba296b1a285aab90eef2fe69f0451778e98c9c581f34b245383b39569ac7460001b612b2c565b60d160d0600083815260200190815260200160002060000154908060018154018082558091505060019003906000526020600020016000909190919091505561300b565b612ec97f4570d64e780b4ea8bbb8e1ea79e858b76c20d9e9127cd9e72bcef9e52239dd5c60001b612b2c565b612ef57f30e3056520e963c3f5c3b9718ca2ff788e709ba541c65a95cdba4cbdc320746a60001b612b2c565b60d25460d06000838152602001908152602001600020600201541415612fdd57612f417ff9eaddfbaa1537da6bfab2d79592a29626d651c934fcd102423e672a6249a7d860001b612b2c565b612f6d7fced0160ed6dc24b2a6249c3bd27d8603f06350faa8ae4f285c79bc9834189c1660001b612b2c565b612f997f3a2fb4ca7655d1cab0ed5945f1d042f53f1f84d2e2372d720c42dc9df22ae1fc60001b612b2c565b60d160d0600083815260200190815260200160002060000154908060018154018082558091505060019003906000526020600020016000909190919091505561300a565b6130097fef0ced56307a31cd3605705c54430a5ef4483efec947e7f8760115dccc8371c760001b612b2c565b5b5b8080613016906149dd565b915050612ca4565b5061304b7feae8e141b4dc5ee1ec3fa9440f45a95be52d6eedbb86206228965bfbb16c6ede60001b612b2c565b6130777fa2210f6de7f686d7d5ba9944f7b94ccc03a216161bdce2b50697410c562b41aa60001b612b2c565b60d25460d1808054806020026020016040519081016040528092919081815260200182805480156130c757602002820191906000526020600020905b8154815260200190600101908083116130b3575b50505050509050915091509091565b6130de6115f8565b1561311e576040517f08c379a000000000000000000000000000000000000000000000000000000000815260040161311590614269565b60405180910390fd5b6001603360006101000a81548160ff0219169083151502179055507f62e78cea01bee320cd4e420270b5ea74000d11b0c9f74754ebdbfc544b05a2586131626137aa565b60405161316f9190613e45565b60405180910390a1565b600061318430612735565b15905090565b600060019054906101000a900460ff166131d9576040517f08c379a00000000000000000000000000000000000000000000000000000000081526004016131d090614a98565b60405180910390fd5b565b6000826131e885846137b2565b1490509392505050565b6131fa6115f8565b1561323a576040517f08c379a000000000000000000000000000000000000000000000000000000000815260040161323190614269565b60405180910390fd5b816132677f5baa34f426a5fd854ac12c565c454f0e035337ed797fb65c8fb0f3ce6ad3dd1060001b612b2c565b6132937f729a02e7ea63b14b17257a38e48bf5fb2306e6e6621b1f9ab95eb759dc671c3960001b612b2c565b6132bf7f557c7f34d0c37c90d6309150a53bf4c53149e61ce0bb3745ccc153256f49816e60001b612b2c565b6132eb7fe5df44ebae7e990ba0b6516e80f2aa0e040a792d68447286faffc5ed917bfa8360001b612b2c565b60cd54811080156132fd575060008110155b61333c576040517f08c379a000000000000000000000000000000000000000000000000000000000815260040161333390614b04565b60405180910390fd5b6133687f04414778bbd28a836711f117e56ea632a9642b313567a0ff15732fac3954332360001b612b2c565b6133947f37147b97543546b5e9a32b0214d5e37212c75caa0931495c465d59ac04bd2b0760001b612b2c565b6133c07f31968501416019c5b26d222909d8a7802849f3aa8c787d56cfa0ae4ee85cca8d60001b612b2c565b6133ec7fb1b7b6fb493b998da88c06c370b77cfc1f647dcb1c8baba832ba8bc53e89453b60001b612b2c565b6134187fd73bf06c14ec09d5fabfc335b622383807409f0abd5e132c2cffab9de0477f2d60001b612b2c565b6134447f5906960ee68a3e0166cebbaa0047c9d1c311d754684131aacb69915dd426956060001b612b2c565b60cf60008373ffffffffffffffffffffffffffffffffffffffff1673ffffffffffffffffffffffffffffffffffffffff16815260200190815260200160002060009054906101000a900460ff16156134d1576040517f08c379a00000000000000000000000000000000000000000000000000000000081526004016134c890614b70565b60405180910390fd5b6134fd7fd988c72d90b9ba41322a652df8af204a52f491df9c4c83da1dab3b07422d662260001b612b2c565b6135297f7909c796fecfafa9449736b1930efddc3d54278e3237cd955c5df949f6fc349760001b612b2c565b6135557f0509fe1e5e99dc4bb822904e8a3ba520c697b5b577a3996b613bba21e9086dec60001b612b2c565b600160cf60008473ffffffffffffffffffffffffffffffffffffffff1673ffffffffffffffffffffffffffffffffffffffff16815260200190815260200160002060006101000a81548160ff0219169083151502179055506135d97fd94888d3eac30e7f71353ed0a8b5ed617daed4db88671ecc856a6ac4e224373660001b612b2c565b60d060008481526020019081526020016000206002016000815480929190613600906149dd565b91905055506136317f685d0e0940fd8c835e83374ff61d4860975e1347889196ba1810f215ba24787a60001b612b2c565b61365d7f539cd77f75f8c4cdb8c091587e43bf9d68186b77e32dac34808d3848dfdcdd2460001b612b2c565b7fd3ebd88818d034d26c5d98bcef9c7c45207130238e76e8cf0b3ba00e906851bf8360d06000868152602001908152602001600020600201546040516136a4929190614b90565b60405180910390a1505050565b6000819050919050565b6000819050919050565b6136ce81612735565b61370d576040517f08c379a000000000000000000000000000000000000000000000000000000000815260040161370490614c2b565b60405180910390fd5b8061373a7f360894a13ba1a3210667c828492db98dca3e2076cc3735a920a3ca505d382bbc60001b6136b1565b60000160006101000a81548173ffffffffffffffffffffffffffffffffffffffff021916908373ffffffffffffffffffffffffffffffffffffffff16021790555050565b61378783613827565b6000825111806137945750805b156137a5576137a38383613876565b505b505050565b600033905090565b60008082905060005b845181101561381c5760008582815181106137d9576137d8614c4b565b5b602002602001015190508083116137fb576137f4838261395a565b9250613808565b613805818461395a565b92505b508080613814906149dd565b9150506137bb565b508091505092915050565b613830816136c5565b8073ffffffffffffffffffffffffffffffffffffffff167fbc7cd75a20ee27fd9adebab32041f755214dbc6bffa90cc0225b39da2e5c2d3b60405160405180910390a250565b606061388183612735565b6138c0576040517f08c379a00000000000000000000000000000000000000000000000000000000081526004016138b790614cec565b60405180910390fd5b6000808473ffffffffffffffffffffffffffffffffffffffff16846040516138e89190614d53565b600060405180830381855af49150503d8060008114613923576040519150601f19603f3d011682016040523d82523d6000602084013e613928565b606091505b50915091506139508282604051806060016040528060278152602001614d6b60279139613971565b9250505092915050565b600082600052816020526040600020905092915050565b60608315613981578290506139d1565b6000835111156139945782518084602001fd5b816040517f08c379a00000000000000000000000000000000000000000000000000000000081526004016139c89190613aaf565b60405180910390fd5b9392505050565b50805460008255906000526020600020908101906139f691906139f9565b50565b5b80821115613a125760008160009055506001016139fa565b5090565b600081519050919050565b600082825260208201905092915050565b60005b83811015613a50578082015181840152602081019050613a35565b83811115613a5f576000848401525b50505050565b6000601f19601f8301169050919050565b6000613a8182613a16565b613a8b8185613a21565b9350613a9b818560208601613a32565b613aa481613a65565b840191505092915050565b60006020820190508181036000830152613ac98184613a76565b905092915050565b6000819050919050565b613ae481613ad1565b82525050565b6000602082019050613aff6000830184613adb565b92915050565b6000604051905090565b600080fd5b600080fd5b613b2281613ad1565b8114613b2d57600080fd5b50565b600081359050613b3f81613b19565b92915050565b600060208284031215613b5b57613b5a613b0f565b5b6000613b6984828501613b30565b91505092915050565b6000606082019050613b876000830186613adb565b8181036020830152613b998185613a76565b9050613ba86040830184613adb565b949350505050565b600073ffffffffffffffffffffffffffffffffffffffff82169050919050565b6000613bdb82613bb0565b9050919050565b613beb81613bd0565b8114613bf657600080fd5b50565b600081359050613c0881613be2565b92915050565b600060208284031215613c2457613c23613b0f565b5b6000613c3284828501613bf9565b91505092915050565b60008115159050919050565b613c5081613c3b565b82525050565b6000602082019050613c6b6000830184613c47565b92915050565b600080fd5b600080fd5b7f4e487b7100000000000000000000000000000000000000000000000000000000600052604160045260246000fd5b613cb382613a65565b810181811067ffffffffffffffff82111715613cd257613cd1613c7b565b5b80604052505050565b6000613ce5613b05565b9050613cf18282613caa565b919050565b600067ffffffffffffffff821115613d1157613d10613c7b565b5b613d1a82613a65565b9050602081019050919050565b82818337600083830152505050565b6000613d49613d4484613cf6565b613cdb565b905082815260208101848484011115613d6557613d64613c76565b5b613d70848285613d27565b509392505050565b600082601f830112613d8d57613d8c613c71565b5b8135613d9d848260208601613d36565b91505092915050565b60008060408385031215613dbd57613dbc613b0f565b5b6000613dcb85828601613bf9565b925050602083013567ffffffffffffffff811115613dec57613deb613b14565b5b613df885828601613d78565b9150509250929050565b6000819050919050565b613e1581613e02565b82525050565b6000602082019050613e306000830184613e0c565b92915050565b613e3f81613bd0565b82525050565b6000602082019050613e5a6000830184613e36565b92915050565b613e6981613e02565b8114613e7457600080fd5b50565b600081359050613e8681613e60565b92915050565b600060208284031215613ea257613ea1613b0f565b5b6000613eb084828501613e77565b91505092915050565b600067ffffffffffffffff821115613ed457613ed3613c7b565b5b602082029050602081019050919050565b600080fd5b6000613efd613ef884613eb9565b613cdb565b90508083825260208201905060208402830185811115613f2057613f1f613ee5565b5b835b81811015613f495780613f358882613e77565b845260208401935050602081019050613f22565b5050509392505050565b600082601f830112613f6857613f67613c71565b5b8135613f78848260208601613eea565b91505092915050565b60008060408385031215613f9857613f97613b0f565b5b600083013567ffffffffffffffff811115613fb657613fb5613b14565b5b613fc285828601613f53565b9250506020613fd385828601613e77565b9150509250929050565b600080fd5b60008083601f840112613ff857613ff7613c71565b5b8235905067ffffffffffffffff81111561401557614014613fdd565b5b60208301915083602082028301111561403157614030613ee5565b5b9250929050565b60008060006040848603121561405157614050613b0f565b5b600061405f86828701613b30565b935050602084013567ffffffffffffffff8111156140805761407f613b14565b5b61408c86828701613fe2565b92509250509250925092565b7f4e487b7100000000000000000000000000000000000000000000000000000000600052602260045260246000fd5b600060028204905060018216806140df57607f821691505b602082108114156140f3576140f2614098565b5b50919050565b7f46756e6374696f6e206d7573742062652063616c6c6564207468726f7567682060008201527f64656c656761746563616c6c0000000000000000000000000000000000000000602082015250565b6000614155602c83613a21565b9150614160826140f9565b604082019050919050565b6000602082019050818103600083015261418481614148565b9050919050565b7f46756e6374696f6e206d7573742062652063616c6c6564207468726f7567682060008201527f6163746976652070726f78790000000000000000000000000000000000000000602082015250565b60006141e7602c83613a21565b91506141f28261418b565b604082019050919050565b60006020820190508181036000830152614216816141da565b9050919050565b7f5061757361626c653a2070617573656400000000000000000000000000000000600082015250565b6000614253601083613a21565b915061425e8261421d565b602082019050919050565b6000602082019050818103600083015261428281614246565b9050919050565b7f6f6e6c792074656163686572732f63686169726d616e2063616e2063616c6c2060008201527f746869732066756e6374696f6e00000000000000000000000000000000000000602082015250565b60006142e5602d83613a21565b91506142f082614289565b604082019050919050565b60006020820190508181036000830152614314816142d8565b9050919050565b7f6f6e6c792063686169726d616e2063616e2063616c6c20746869732066756e6360008201527f74696f6e00000000000000000000000000000000000000000000000000000000602082015250565b6000614377602483613a21565b91506143828261431b565b604082019050919050565b600060208201905081810360008301526143a68161436a565b9050919050565b7f555550535570677261646561626c653a206d757374206e6f742062652063616c60008201527f6c6564207468726f7567682064656c656761746563616c6c0000000000000000602082015250565b6000614409603883613a21565b9150614414826143ad565b604082019050919050565b60006020820190508181036000830152614438816143fc565b9050919050565b600081549050919050565b600082825260208201905092915050565b60008190508160005260206000209050919050565b61447981613ad1565b82525050565b600061448b8383614470565b60208301905092915050565b60008160001c9050919050565b6000819050919050565b60006144c16144bc83614497565b6144a4565b9050919050565b60006144d482546144ae565b9050919050565b6000600182019050919050565b60006144f38261443f565b6144fd818561444a565b93506145088361445b565b8060005b838110156145405761451d826144c8565b614527888261447f565b9750614532836144db565b92505060018101905061450c565b5085935050505092915050565b6000604082019050818103600083015261456781856144e8565b90506145766020830184613adb565b9392505050565b7f496e697469616c697a61626c653a20636f6e747261637420697320616c72656160008201527f647920696e697469616c697a6564000000000000000000000000000000000000602082015250565b60006145d9602e83613a21565b91506145e48261457d565b604082019050919050565b60006020820190508181036000830152614608816145cc565b9050919050565b7f536f7272792c2074686520456c656374696f6e2068617320656e646564210000600082015250565b6000614645601e83613a21565b91506146508261460f565b602082019050919050565b6000602082019050818103600083015261467481614638565b9050919050565b7f456c656374696f6e20686173206e6f7420626567756e21000000000000000000600082015250565b60006146b1601783613a21565b91506146bc8261467b565b602082019050919050565b600060208201905081810360008301526146e0816146a4565b9050919050565b60008160601b9050919050565b60006146ff826146e7565b9050919050565b6000614711826146f4565b9050919050565b61472961472482613bd0565b614706565b82525050565b600061473b8284614718565b60148201915081905092915050565b7f736f7272792c206f6e6c79207374616b65686f6c646572732061726520656c6960008201527f6769626c6520746f20766f746500000000000000000000000000000000000000602082015250565b60006147a6602d83613a21565b91506147b18261474a565b604082019050919050565b600060208201905081810360008301526147d581614799565b9050919050565b6000815190506147eb81613e60565b92915050565b60006020828403121561480757614806613b0f565b5b6000614815848285016147dc565b91505092915050565b7f45524331393637557067726164653a206e657720696d706c656d656e7461746960008201527f6f6e206973206e6f742055555053000000000000000000000000000000000000602082015250565b600061487a602e83613a21565b91506148858261481e565b604082019050919050565b600060208201905081810360008301526148a98161486d565b9050919050565b7f45524331393637557067726164653a20756e737570706f727465642070726f7860008201527f6961626c65555549440000000000000000000000000000000000000000000000602082015250565b600061490c602983613a21565b9150614917826148b0565b604082019050919050565b6000602082019050818103600083015261493b816148ff565b9050919050565b7f5061757361626c653a206e6f7420706175736564000000000000000000000000600082015250565b6000614978601483613a21565b915061498382614942565b602082019050919050565b600060208201905081810360008301526149a78161496b565b9050919050565b7f4e487b7100000000000000000000000000000000000000000000000000000000600052601160045260246000fd5b60006149e882613ad1565b91507fffffffffffffffffffffffffffffffffffffffffffffffffffffffffffffffff821415614a1b57614a1a6149ae565b5b600182019050919050565b7f496e697469616c697a61626c653a20636f6e7472616374206973206e6f74206960008201527f6e697469616c697a696e67000000000000000000000000000000000000000000602082015250565b6000614a82602b83613a21565b9150614a8d82614a26565b604082019050919050565b60006020820190508181036000830152614ab181614a75565b9050919050565b7f496e76616c69642063616e64696461746520746f20566f746521000000000000600082015250565b6000614aee601a83613a21565b9150614af982614ab8565b602082019050919050565b60006020820190508181036000830152614b1d81614ae1565b9050919050565b7f566f7465722068617320616c726561647920566f746564210000000000000000600082015250565b6000614b5a601883613a21565b9150614b6582614b24565b602082019050919050565b60006020820190508181036000830152614b8981614b4d565b9050919050565b6000604082019050614ba56000830185613adb565b614bb26020830184613adb565b9392505050565b7f455243313936373a206e657720696d706c656d656e746174696f6e206973206e60008201527f6f74206120636f6e747261637400000000000000000000000000000000000000602082015250565b6000614c15602d83613a21565b9150614c2082614bb9565b604082019050919050565b60006020820190508181036000830152614c4481614c08565b9050919050565b7f4e487b7100000000000000000000000000000000000000000000000000000000600052603260045260246000fd5b7f416464726573733a2064656c65676174652063616c6c20746f206e6f6e2d636f60008201527f6e74726163740000000000000000000000000000000000000000000000000000602082015250565b6000614cd6602683613a21565b9150614ce182614c7a565b604082019050919050565b60006020820190508181036000830152614d0581614cc9565b9050919050565b600081519050919050565b600081905092915050565b6000614d2d82614d0c565b614d378185614d17565b9350614d47818560208601613a32565b80840191505092915050565b6000614d5f8284614d22565b91508190509291505056fe416464726573733a206c6f772d6c6576656c2064656c65676174652063616c6c206661696c6564a2646970667358221220ec5501d3a51617aa3bb70bd430b02947eb77bc8f70df014d85bc34f6af51422f64736f6c634300080a0033",
  "linkReferences": {},
  "deployedLinkReferences": {}
}