{
  "_format": "hh-sol-artifact-1",
  "contractName": "ZuriElection",
  "sourceName": "contracts/ZuriElection.sol",
  "abi": [
    {
      "inputs": [
        {
          "internalType": "bytes32",
          "name": "merkleRoot",
          "type": "bytes32"
        }
      ],
      "stateMutability": "nonpayable",
      "type": "constructor"
    },
    {
      "inputs": [],
      "name": "ElectionHasEnded",
      "type": "error"
    },
    {
      "inputs": [],
      "name": "ElectionNotStarted",
      "type": "error"
    },
    {
      "anonymous": false,
      "inputs": [
        {
          "indexed": false,
          "internalType": "uint256",
          "name": "_candidateId",
          "type": "uint256"
        },
        {
          "indexed": false,
          "internalType": "string",
          "name": "_candidateName",
          "type": "string"
        }
      ],
      "name": "CandidateCreated",
      "type": "event"
    },
    {
      "anonymous": false,
      "inputs": [
        {
          "indexed": false,
          "internalType": "uint256[]",
          "name": "_winnerIds",
          "type": "uint256[]"
        },
        {
          "indexed": false,
          "internalType": "uint256",
          "name": "_winnerVoteCount",
          "type": "uint256"
        }
      ],
      "name": "ElectionEnded",
      "type": "event"
    },
    {
      "anonymous": false,
      "inputs": [
        {
          "indexed": false,
          "internalType": "address",
          "name": "account",
          "type": "address"
        }
      ],
      "name": "Paused",
      "type": "event"
    },
    {
      "anonymous": false,
      "inputs": [
        {
          "indexed": false,
          "internalType": "address",
          "name": "account",
          "type": "address"
        }
      ],
      "name": "Unpaused",
      "type": "event"
    },
    {
      "anonymous": false,
      "inputs": [
        {
          "indexed": false,
          "internalType": "uint256",
          "name": "_candidateId",
          "type": "uint256"
        },
        {
          "indexed": false,
          "internalType": "uint256",
          "name": "_candidateVoteCount",
          "type": "uint256"
        }
      ],
      "name": "VoteForCandidate",
      "type": "event"
    },
    {
      "inputs": [],
      "name": "Active",
      "outputs": [
        {
          "internalType": "bool",
          "name": "",
          "type": "bool"
        }
      ],
      "stateMutability": "view",
      "type": "function"
    },
    {
      "inputs": [],
      "name": "Created",
      "outputs": [
        {
          "internalType": "bool",
          "name": "",
          "type": "bool"
        }
      ],
      "stateMutability": "view",
      "type": "function"
    },
    {
      "inputs": [],
      "name": "Ended",
      "outputs": [
        {
          "internalType": "bool",
          "name": "",
          "type": "bool"
        }
      ],
      "stateMutability": "view",
      "type": "function"
    },
    {
      "inputs": [
        {
          "internalType": "string",
          "name": "_name",
          "type": "string"
        },
        {
          "internalType": "string",
          "name": "_candidateHash",
          "type": "string"
        },
        {
          "internalType": "string",
          "name": "_candidateManifesto",
          "type": "string"
        }
      ],
      "name": "addCandidate",
      "outputs": [],
      "stateMutability": "nonpayable",
      "type": "function"
    },
    {
      "inputs": [
        {
          "internalType": "address",
          "name": "_newTeacher",
          "type": "address"
        }
      ],
      "name": "addTeacher",
      "outputs": [],
      "stateMutability": "nonpayable",
      "type": "function"
    },
    {
      "inputs": [
        {
          "internalType": "uint256",
          "name": "",
          "type": "uint256"
        }
      ],
      "name": "candidates",
      "outputs": [
        {
          "internalType": "uint256",
          "name": "id",
          "type": "uint256"
        },
        {
          "internalType": "string",
          "name": "name",
          "type": "string"
        },
        {
          "internalType": "string",
          "name": "candidateHash",
          "type": "string"
        },
        {
          "internalType": "string",
          "name": "candidateManifesto",
          "type": "string"
        },
        {
          "internalType": "uint256",
          "name": "voteCount",
          "type": "uint256"
        }
      ],
      "stateMutability": "view",
      "type": "function"
    },
    {
      "inputs": [],
      "name": "candidatesCount",
      "outputs": [
        {
          "internalType": "uint256",
          "name": "",
          "type": "uint256"
        }
      ],
      "stateMutability": "view",
      "type": "function"
    },
    {
      "inputs": [],
      "name": "chairman",
      "outputs": [
        {
          "internalType": "address",
          "name": "",
          "type": "address"
        }
      ],
      "stateMutability": "view",
      "type": "function"
    },
    {
      "inputs": [
        {
          "internalType": "address",
          "name": "_newChairman",
          "type": "address"
        }
      ],
      "name": "changeChairman",
      "outputs": [],
      "stateMutability": "nonpayable",
      "type": "function"
    },
    {
      "inputs": [],
      "name": "closeElection",
      "outputs": [],
      "stateMutability": "nonpayable",
      "type": "function"
    },
    {
      "inputs": [],
      "name": "description",
      "outputs": [
        {
          "internalType": "string",
          "name": "",
          "type": "string"
        }
      ],
      "stateMutability": "view",
      "type": "function"
    },
    {
      "inputs": [],
      "name": "endElection",
      "outputs": [],
      "stateMutability": "nonpayable",
      "type": "function"
    },
    {
      "inputs": [],
      "name": "getCandidates",
      "outputs": [
        {
          "components": [
            {
              "internalType": "uint256",
              "name": "id",
              "type": "uint256"
            },
            {
              "internalType": "string",
              "name": "name",
              "type": "string"
            },
            {
              "internalType": "string",
              "name": "candidateHash",
              "type": "string"
            },
            {
              "internalType": "string",
              "name": "candidateManifesto",
              "type": "string"
            },
            {
              "internalType": "uint256",
              "name": "voteCount",
              "type": "uint256"
            }
          ],
          "internalType": "struct ZuriElection.Candidate[]",
          "name": "",
          "type": "tuple[]"
        }
      ],
      "stateMutability": "view",
      "type": "function"
    },
    {
      "inputs": [],
      "name": "getWinner",
      "outputs": [
        {
          "internalType": "uint256",
          "name": "",
          "type": "uint256"
        },
        {
          "internalType": "uint256[]",
          "name": "",
          "type": "uint256[]"
        }
      ],
      "stateMutability": "view",
      "type": "function"
    },
    {
      "inputs": [],
      "name": "isChairman",
      "outputs": [
        {
          "internalType": "bool",
          "name": "",
          "type": "bool"
        }
      ],
      "stateMutability": "view",
      "type": "function"
    },
    {
      "inputs": [],
      "name": "isCreated",
      "outputs": [
        {
          "internalType": "bool",
          "name": "",
          "type": "bool"
        }
      ],
      "stateMutability": "view",
      "type": "function"
    },
    {
      "inputs": [],
      "name": "isEnded",
      "outputs": [
        {
          "internalType": "bool",
          "name": "",
          "type": "bool"
        }
      ],
      "stateMutability": "view",
      "type": "function"
    },
    {
      "inputs": [],
      "name": "isStarted",
      "outputs": [
        {
          "internalType": "bool",
          "name": "",
          "type": "bool"
        }
      ],
      "stateMutability": "view",
      "type": "function"
    },
    {
      "inputs": [],
      "name": "isTeacher",
      "outputs": [
        {
          "internalType": "bool",
          "name": "",
          "type": "bool"
        }
      ],
      "stateMutability": "view",
      "type": "function"
    },
    {
      "inputs": [
        {
          "internalType": "bytes32[]",
          "name": "proof",
          "type": "bytes32[]"
        },
        {
          "internalType": "bytes32",
          "name": "leaf",
          "type": "bytes32"
        }
      ],
      "name": "isValid",
      "outputs": [
        {
          "internalType": "bool",
          "name": "",
          "type": "bool"
        }
      ],
      "stateMutability": "view",
      "type": "function"
    },
    {
      "inputs": [],
      "name": "makeResultPublic",
      "outputs": [],
      "stateMutability": "nonpayable",
      "type": "function"
    },
    {
      "inputs": [],
      "name": "pause",
      "outputs": [],
      "stateMutability": "nonpayable",
      "type": "function"
    },
    {
      "inputs": [],
      "name": "paused",
      "outputs": [
        {
          "internalType": "bool",
          "name": "",
          "type": "bool"
        }
      ],
      "stateMutability": "view",
      "type": "function"
    },
    {
      "inputs": [],
      "name": "position",
      "outputs": [
        {
          "internalType": "string",
          "name": "",
          "type": "string"
        }
      ],
      "stateMutability": "view",
      "type": "function"
    },
    {
      "inputs": [
        {
          "internalType": "address",
          "name": "_teacher",
          "type": "address"
        }
      ],
      "name": "removeTeacher",
      "outputs": [],
      "stateMutability": "nonpayable",
      "type": "function"
    },
    {
      "inputs": [],
      "name": "root",
      "outputs": [
        {
          "internalType": "bytes32",
          "name": "",
          "type": "bytes32"
        }
      ],
      "stateMutability": "view",
      "type": "function"
    },
    {
      "inputs": [
        {
          "internalType": "string[]",
          "name": "_prop",
          "type": "string[]"
        }
      ],
      "name": "setUpElection",
      "outputs": [],
      "stateMutability": "nonpayable",
      "type": "function"
    },
    {
      "inputs": [],
      "name": "startElection",
      "outputs": [],
      "stateMutability": "nonpayable",
      "type": "function"
    },
    {
      "inputs": [
        {
          "internalType": "address",
          "name": "",
          "type": "address"
        }
      ],
      "name": "teachers",
      "outputs": [
        {
          "internalType": "bool",
          "name": "",
          "type": "bool"
        }
      ],
      "stateMutability": "view",
      "type": "function"
    },
    {
      "inputs": [],
      "name": "unpause",
      "outputs": [],
      "stateMutability": "nonpayable",
      "type": "function"
    },
    {
      "inputs": [
        {
          "internalType": "uint256",
          "name": "_candidateId",
          "type": "uint256"
        },
        {
          "internalType": "bytes32[]",
          "name": "hexProof",
          "type": "bytes32[]"
        }
      ],
      "name": "vote",
      "outputs": [],
      "stateMutability": "nonpayable",
      "type": "function"
    },
    {
      "inputs": [
        {
          "internalType": "address",
          "name": "",
          "type": "address"
        }
      ],
      "name": "voted",
      "outputs": [
        {
          "internalType": "bool",
          "name": "",
          "type": "bool"
        }
      ],
      "stateMutability": "view",
      "type": "function"
    },
    {
      "inputs": [
        {
          "internalType": "uint256",
          "name": "",
          "type": "uint256"
        }
      ],
      "name": "winnerIds",
      "outputs": [
        {
          "internalType": "uint256",
          "name": "",
          "type": "uint256"
        }
      ],
      "stateMutability": "view",
      "type": "function"
    },
    {
      "inputs": [],
      "name": "winnerVoteCount",
      "outputs": [
        {
          "internalType": "uint256",
          "name": "",
          "type": "uint256"
        }
      ],
      "stateMutability": "view",
      "type": "function"
    }
  ],
  "bytecode": "0x60806040523480156200001157600080fd5b5060405162003beb38038062003beb83398181016040528101906200003791906200012b565b60008060006101000a81548160ff02191690831515021790555033600060016101000a81548173ffffffffffffffffffffffffffffffffffffffff021916908373ffffffffffffffffffffffffffffffffffffffff1602179055506000600a60006101000a81548160ff0219169083151502179055506000600a60016101000a81548160ff0219169083151502179055506000600a60026101000a81548160ff0219169083151502179055506000600481905550806003819055506000600a60036101000a81548160ff021916908315150217905550506200017b565b600081519050620001258162000161565b92915050565b6000602082840312156200013e57600080fd5b60006200014e8482850162000114565b91505092915050565b6000819050919050565b6200016c8162000157565b81146200017857600080fd5b50565b613a60806200018b6000396000f3fe608060405234801561001057600080fd5b50600436106102065760003560e01c8063861743961161011a578063b8a20ed0116100ad578063e81018691161007c578063e81018691461053e578063ebf0c7171461055a578063f0a47f7814610578578063f51b41d2146105a8578063fd27419b146105c657610206565b8063b8a20ed0146104b6578063c64a4bad146104e6578063c9b0a2a714610504578063d1e53b8a1461052257610206565b80639adeddf8116100e95780639adeddf81461042e578063a4fd6f561461044c578063ad71f8dc1461046a578063aec2ccae1461048657610206565b806386174396146103c957806387f7b975146103e75780638e7ea5b21461040557806395adfc5e1461042457610206565b8063477383f31161019d5780635c975abb1161016c5780635c975abb1461036f57806362d73eb81461038d5780636c6c32d0146103975780637284e416146103a15780638456cb59146103bf57610206565b8063477383f31461030d57806352ff68461461032b578063544736e61461034757806359f784681461036557610206565b80633477ee2e116101d95780633477ee2e146102835780633bc6e309146102b75780633f4ba83a146102d3578063403d1312146102dd57610206565b806306a49fce1461020b57806309218e91146102295780632d35a8a2146102475780632f22850d14610265575b600080fd5b6102136105e2565b6040516102209190612f5a565b60405180910390f35b6102316108be565b60405161023e9190612fe2565b60405180910390f35b61024f61094c565b60405161025c91906131c4565b60405180910390f35b61026d610952565b60405161027a91906131c4565b60405180910390f35b61029d600480360381019061029891906129fd565b610958565b6040516102ae95949392919061323f565b60405180910390f35b6102d160048036038101906102cc91906128a8565b610b26565b005b6102db610cb4565b005b6102f760048036038101906102f291906129fd565b610d8c565b60405161030491906131c4565b60405180910390f35b610315610db0565b6040516103229190612fac565b60405180910390f35b610345600480360381019061034091906128a8565b610dc3565b005b61034f610f51565b60405161035c9190612fac565b60405180910390f35b61036d610f68565b005b6103776110a3565b6040516103849190612fac565b60405180910390f35b6103956110b9565b005b61039f6111ae565b005b6103a9611326565b6040516103b69190612fe2565b60405180910390f35b6103c76113b4565b005b6103d161148c565b6040516103de9190612fac565b60405180910390f35b6103ef6114a3565b6040516103fc9190612f3f565b60405180910390f35b61040d6114c9565b60405161041b9291906131df565b60405180910390f35b61042c61157b565b005b6104366116d2565b6040516104439190612fac565b60405180910390f35b6104546116e5565b6040516104619190612fac565b60405180910390f35b610484600480360381019061047f9190612966565b6116fc565b005b6104a0600480360381019061049b91906128a8565b611984565b6040516104ad9190612fac565b60405180910390f35b6104d060048036038101906104cb91906128d1565b6119a4565b6040516104dd9190612fac565b60405180910390f35b6104ee6119bb565b6040516104fb9190612fac565b60405180910390f35b61050c611a0f565b6040516105199190612fac565b60405180910390f35b61053c60048036038101906105379190612925565b611a22565b005b610558600480360381019061055391906128a8565b611cb7565b005b610562611dd3565b60405161056f9190612fc7565b60405180910390f35b610592600480360381019061058d91906128a8565b611dd9565b60405161059f9190612fac565b60405180910390f35b6105b0611df9565b6040516105bd9190612fac565b60405180910390f35b6105e060048036038101906105db9190612a26565b611e51565b005b6060600060045467ffffffffffffffff811115610628577f4e487b7100000000000000000000000000000000000000000000000000000000600052604160045260246000fd5b60405190808252806020026020018201604052801561066157816020015b61064e61257e565b8152602001906001900390816106465790505b50905060005b6004548110156108b6576000600760008381526020019081526020016000209050806040518060a0016040529081600082015481526020016001820180546106ae906134e8565b80601f01602080910402602001604051908101604052809291908181526020018280546106da906134e8565b80156107275780601f106106fc57610100808354040283529160200191610727565b820191906000526020600020905b81548152906001019060200180831161070a57829003601f168201915b50505050508152602001600282018054610740906134e8565b80601f016020809104026020016040519081016040528092919081815260200182805461076c906134e8565b80156107b95780601f1061078e576101008083540402835291602001916107b9565b820191906000526020600020905b81548152906001019060200180831161079c57829003601f168201915b505050505081526020016003820180546107d2906134e8565b80601f01602080910402602001604051908101604052809291908181526020018280546107fe906134e8565b801561084b5780601f106108205761010080835404028352916020019161084b565b820191906000526020600020905b81548152906001019060200180831161082e57829003601f168201915b50505050508152602001600482015481525050838381518110610897577f4e487b7100000000000000000000000000000000000000000000000000000000600052603260045260246000fd5b60200260200101819052505080806108ae90613565565b915050610667565b508091505090565b600180546108cb906134e8565b80601f01602080910402602001604051908101604052809291908181526020018280546108f7906134e8565b80156109445780601f1061091957610100808354040283529160200191610944565b820191906000526020600020905b81548152906001019060200180831161092757829003601f168201915b505050505081565b60045481565b60095481565b6007602052806000526040600020600091509050806000015490806001018054610981906134e8565b80601f01602080910402602001604051908101604052809291908181526020018280546109ad906134e8565b80156109fa5780601f106109cf576101008083540402835291602001916109fa565b820191906000526020600020905b8154815290600101906020018083116109dd57829003601f168201915b505050505090806002018054610a0f906134e8565b80601f0160208091040260200160405190810160405280929190818152602001828054610a3b906134e8565b8015610a885780601f10610a5d57610100808354040283529160200191610a88565b820191906000526020600020905b815481529060010190602001808311610a6b57829003601f168201915b505050505090806003018054610a9d906134e8565b80601f0160208091040260200160405190810160405280929190818152602001828054610ac9906134e8565b8015610b165780601f10610aeb57610100808354040283529160200191610b16565b820191906000526020600020905b815481529060010190602001808311610af957829003601f168201915b5050505050908060040154905085565b610b2e6110a3565b15610b6e576040517f08c379a0000000000000000000000000000000000000000000000000000000008152600401610b65906130a4565b60405180910390fd5b3373ffffffffffffffffffffffffffffffffffffffff16600060019054906101000a900473ffffffffffffffffffffffffffffffffffffffff1673ffffffffffffffffffffffffffffffffffffffff161480610c1a575060011515600560003373ffffffffffffffffffffffffffffffffffffffff1673ffffffffffffffffffffffffffffffffffffffff16815260200190815260200160002060009054906101000a900460ff161515145b610c59576040517f08c379a0000000000000000000000000000000000000000000000000000000008152600401610c5090613084565b60405180910390fd5b6001600560008373ffffffffffffffffffffffffffffffffffffffff1673ffffffffffffffffffffffffffffffffffffffff16815260200190815260200160002060006101000a81548160ff02191690831515021790555050565b600060019054906101000a900473ffffffffffffffffffffffffffffffffffffffff1673ffffffffffffffffffffffffffffffffffffffff163373ffffffffffffffffffffffffffffffffffffffff1614610d44576040517f08c379a0000000000000000000000000000000000000000000000000000000008152600401610d3b90613144565b60405180910390fd5b610d4c611faf565b7f5db9ee0a495bf2e6ff9c91a7834c1ba4fdd244a5e8aa4e537bd38aeae4b073aa610d75612050565b604051610d829190612f3f565b60405180910390a1565b60088181548110610d9c57600080fd5b906000526020600020016000915090505481565b600a60019054906101000a900460ff1681565b610dcb6110a3565b15610e0b576040517f08c379a0000000000000000000000000000000000000000000000000000000008152600401610e02906130a4565b60405180910390fd5b3373ffffffffffffffffffffffffffffffffffffffff16600060019054906101000a900473ffffffffffffffffffffffffffffffffffffffff1673ffffffffffffffffffffffffffffffffffffffff161480610eb7575060011515600560003373ffffffffffffffffffffffffffffffffffffffff1673ffffffffffffffffffffffffffffffffffffffff16815260200190815260200160002060009054906101000a900460ff161515145b610ef6576040517f08c379a0000000000000000000000000000000000000000000000000000000008152600401610eed90613084565b60405180910390fd5b6000600560008373ffffffffffffffffffffffffffffffffffffffff1673ffffffffffffffffffffffffffffffffffffffff16815260200190815260200160002060006101000a81548160ff02191690831515021790555050565b6000600a60009054906101000a900460ff16905090565b610f706110a3565b15610fb0576040517f08c379a0000000000000000000000000000000000000000000000000000000008152600401610fa7906130a4565b60405180910390fd5b600060019054906101000a900473ffffffffffffffffffffffffffffffffffffffff1673ffffffffffffffffffffffffffffffffffffffff163373ffffffffffffffffffffffffffffffffffffffff1614611040576040517f08c379a000000000000000000000000000000000000000000000000000000000815260040161103790613144565b60405180910390fd5b6001600a60016101000a81548160ff021916908315150217905550611063612058565b50507f38d8ebbbb4803f034f19b4cf2f19bfb84cc5dea177696c1f80a19357d5602e046008600954604051611099929190612f7c565b60405180910390a1565b60008060009054906101000a900460ff16905090565b6110c16110a3565b15611101576040517f08c379a00000000000000000000000000000000000000000000000000000000081526004016110f8906130a4565b60405180910390fd5b600060019054906101000a900473ffffffffffffffffffffffffffffffffffffffff1673ffffffffffffffffffffffffffffffffffffffff163373ffffffffffffffffffffffffffffffffffffffff1614611191576040517f08c379a000000000000000000000000000000000000000000000000000000000815260040161118890613144565b60405180910390fd5b6001600a60006101000a81548160ff021916908315150217905550565b600060019054906101000a900473ffffffffffffffffffffffffffffffffffffffff1673ffffffffffffffffffffffffffffffffffffffff163373ffffffffffffffffffffffffffffffffffffffff161461123e576040517f08c379a000000000000000000000000000000000000000000000000000000000815260040161123590613144565b60405180910390fd5b6000600a60026101000a81548160ff02191690831515021790555033600060016101000a81548173ffffffffffffffffffffffffffffffffffffffff021916908373ffffffffffffffffffffffffffffffffffffffff1602179055506000600a60006101000a81548160ff0219169083151502179055506000600a60016101000a81548160ff0219169083151502179055506000600a60026101000a81548160ff02191690831515021790555060006004819055506000600a60036101000a81548160ff0219169083151502179055506008600061131c91906125ad565b6000600981905550565b60028054611333906134e8565b80601f016020809104026020016040519081016040528092919081815260200182805461135f906134e8565b80156113ac5780601f10611381576101008083540402835291602001916113ac565b820191906000526020600020905b81548152906001019060200180831161138f57829003601f168201915b505050505081565b600060019054906101000a900473ffffffffffffffffffffffffffffffffffffffff1673ffffffffffffffffffffffffffffffffffffffff163373ffffffffffffffffffffffffffffffffffffffff1614611444576040517f08c379a000000000000000000000000000000000000000000000000000000000815260040161143b90613144565b60405180910390fd5b61144c612214565b7f62e78cea01bee320cd4e420270b5ea74000d11b0c9f74754ebdbfc544b05a258611475612050565b6040516114829190612f3f565b60405180910390a1565b6000600a60029054906101000a900460ff16905090565b600060019054906101000a900473ffffffffffffffffffffffffffffffffffffffff1681565b60006060600a60039054906101000a900460ff1661151c576040517f08c379a000000000000000000000000000000000000000000000000000000000815260040161151390613184565b60405180910390fd5b60095460088080548060200260200160405190810160405280929190818152602001828054801561156c57602002820191906000526020600020905b815481526020019060010190808311611558575b50505050509050915091509091565b600a60019054906101000a900460ff166115ca576040517f08c379a00000000000000000000000000000000000000000000000000000000081526004016115c190613024565b60405180910390fd5b3373ffffffffffffffffffffffffffffffffffffffff16600060019054906101000a900473ffffffffffffffffffffffffffffffffffffffff1673ffffffffffffffffffffffffffffffffffffffff161480611676575060011515600560003373ffffffffffffffffffffffffffffffffffffffff1673ffffffffffffffffffffffffffffffffffffffff16815260200190815260200160002060009054906101000a900460ff161515145b6116b5576040517f08c379a00000000000000000000000000000000000000000000000000000000081526004016116ac90613064565b60405180910390fd5b6001600a60036101000a81548160ff021916908315150217905550565b600a60029054906101000a900460ff1681565b6000600a60019054906101000a900460ff16905090565b6117046110a3565b15611744576040517f08c379a000000000000000000000000000000000000000000000000000000000815260040161173b906130a4565b60405180910390fd5b600a60009054906101000a900460ff1615611794576040517f08c379a000000000000000000000000000000000000000000000000000000000815260040161178b90613044565b60405180910390fd5b3373ffffffffffffffffffffffffffffffffffffffff16600060019054906101000a900473ffffffffffffffffffffffffffffffffffffffff1673ffffffffffffffffffffffffffffffffffffffff161480611840575060011515600560003373ffffffffffffffffffffffffffffffffffffffff1673ffffffffffffffffffffffffffffffffffffffff16815260200190815260200160002060009054906101000a900460ff161515145b61187f576040517f08c379a000000000000000000000000000000000000000000000000000000000815260040161187690613084565b60405180910390fd5b6040518060a00160405280600454815260200184815260200183815260200182815260200160008152506007600060045481526020019081526020016000206000820151816000015560208201518160010190805190602001906118e49291906125ce565b5060408201518160020190805190602001906119019291906125ce565b50606082015181600301908051906020019061191e9291906125ce565b50608082015181600401559050507f78d27a3c512303f604b46bc28acc0ca45abe6420172a017c5a6dc585821eb6396004548460405161195f92919061320f565b60405180910390a16004600081548092919061197a90613565565b9190505550505050565b60066020528060005260406000206000915054906101000a900460ff1681565b60006119b383600354846122b6565b905092915050565b6000600560003373ffffffffffffffffffffffffffffffffffffffff1673ffffffffffffffffffffffffffffffffffffffff16815260200190815260200160002060009054906101000a900460ff16905090565b600a60009054906101000a900460ff1681565b611a2a6110a3565b15611a6a576040517f08c379a0000000000000000000000000000000000000000000000000000000008152600401611a61906130a4565b60405180910390fd5b600a60009054906101000a900460ff1615611aba576040517f08c379a0000000000000000000000000000000000000000000000000000000008152600401611ab190613044565b60405180910390fd5b6000815111611afe576040517f08c379a0000000000000000000000000000000000000000000000000000000008152600401611af5906130e4565b60405180910390fd5b3373ffffffffffffffffffffffffffffffffffffffff16600060019054906101000a900473ffffffffffffffffffffffffffffffffffffffff1673ffffffffffffffffffffffffffffffffffffffff161480611baa575060011515600560003373ffffffffffffffffffffffffffffffffffffffff1673ffffffffffffffffffffffffffffffffffffffff16815260200190815260200160002060009054906101000a900460ff161515145b611be9576040517f08c379a0000000000000000000000000000000000000000000000000000000008152600401611be090613084565b60405180910390fd5b80600081518110611c23577f4e487b7100000000000000000000000000000000000000000000000000000000600052603260045260246000fd5b602002602001015160019080519060200190611c409291906125ce565b5080600181518110611c7b577f4e487b7100000000000000000000000000000000000000000000000000000000600052603260045260246000fd5b602002602001015160029080519060200190611c989291906125ce565b506001600a60026101000a81548160ff02191690831515021790555050565b611cbf6110a3565b15611cff576040517f08c379a0000000000000000000000000000000000000000000000000000000008152600401611cf6906130a4565b60405180910390fd5b600060019054906101000a900473ffffffffffffffffffffffffffffffffffffffff1673ffffffffffffffffffffffffffffffffffffffff163373ffffffffffffffffffffffffffffffffffffffff1614611d8f576040517f08c379a0000000000000000000000000000000000000000000000000000000008152600401611d8690613144565b60405180910390fd5b80600060016101000a81548173ffffffffffffffffffffffffffffffffffffffff021916908373ffffffffffffffffffffffffffffffffffffffff16021790555050565b60035481565b60056020528060005260406000206000915054906101000a900460ff1681565b60003373ffffffffffffffffffffffffffffffffffffffff16600060019054906101000a900473ffffffffffffffffffffffffffffffffffffffff1673ffffffffffffffffffffffffffffffffffffffff1614905090565b600a60019054906101000a900460ff1615611ea1576040517f08c379a0000000000000000000000000000000000000000000000000000000008152600401611e9890613104565b60405180910390fd5b600a60009054906101000a900460ff16611ef0576040517f08c379a0000000000000000000000000000000000000000000000000000000008152600401611ee7906130c4565b60405180910390fd5b611f61828280806020026020016040519081016040528093929190818152602001838360200280828437600081840152601f19601f8201169050808301925050505050505033604051602001611f469190612f24565b604051602081830303815290604052805190602001206119a4565b611fa0576040517f08c379a0000000000000000000000000000000000000000000000000000000008152600401611f97906131a4565b60405180910390fd5b611faa83336122cd565b505050565b611fb76110a3565b611ff6576040517f08c379a0000000000000000000000000000000000000000000000000000000008152600401611fed90613004565b60405180910390fd5b60008060006101000a81548160ff0219169083151502179055507f5db9ee0a495bf2e6ff9c91a7834c1ba4fdd244a5e8aa4e537bd38aeae4b073aa612039612050565b6040516120469190612f3f565b60405180910390a1565b600033905090565b600060606120646110a3565b156120a4576040517f08c379a000000000000000000000000000000000000000000000000000000000815260040161209b906130a4565b60405180910390fd5b60005b6004548110156121b45760095460076000838152602001908152602001600020600401541115612140576007600082815260200190815260200160002060040154600981905550600860006120fc91906125ad565b6008600760008381526020019081526020016000206000015490806001815401808255809150506001900390600052602060002001600090919091909150556121a1565b600954600760008381526020019081526020016000206004015414156121a0576008600760008381526020019081526020016000206000015490806001815401808255809150506001900390600052602060002001600090919091909150555b5b80806121ac90613565565b9150506120a7565b5060095460088080548060200260200160405190810160405280929190818152602001828054801561220557602002820191906000526020600020905b8154815260200190600101908083116121f1575b50505050509050915091509091565b61221c6110a3565b1561225c576040517f08c379a0000000000000000000000000000000000000000000000000000000008152600401612253906130a4565b60405180910390fd5b60016000806101000a81548160ff0219169083151502179055507f62e78cea01bee320cd4e420270b5ea74000d11b0c9f74754ebdbfc544b05a25861229f612050565b6040516122ac9190612f3f565b60405180910390a1565b6000826122c385846124cc565b1490509392505050565b6122d56110a3565b15612315576040517f08c379a000000000000000000000000000000000000000000000000000000000815260040161230c906130a4565b60405180910390fd5b8160045481108015612328575060008110155b612367576040517f08c379a000000000000000000000000000000000000000000000000000000000815260040161235e90613124565b60405180910390fd5b600660008373ffffffffffffffffffffffffffffffffffffffff1673ffffffffffffffffffffffffffffffffffffffff16815260200190815260200160002060009054906101000a900460ff16156123f4576040517f08c379a00000000000000000000000000000000000000000000000000000000081526004016123eb90613164565b60405180910390fd5b6001600660008473ffffffffffffffffffffffffffffffffffffffff1673ffffffffffffffffffffffffffffffffffffffff16815260200190815260200160002060006101000a81548160ff02191690831515021790555060076000848152602001908152602001600020600401600081548092919061247390613565565b91905055507fd3ebd88818d034d26c5d98bcef9c7c45207130238e76e8cf0b3ba00e906851bf8360076000868152602001908152602001600020600401546040516124bf9291906132a7565b60405180910390a1505050565b60008082905060005b845181101561255c576000858281518110612519577f4e487b7100000000000000000000000000000000000000000000000000000000600052603260045260246000fd5b6020026020010151905080831161253b576125348382612567565b9250612548565b6125458184612567565b92505b50808061255490613565565b9150506124d5565b508091505092915050565b600082600052816020526040600020905092915050565b6040518060a0016040528060008152602001606081526020016060815260200160608152602001600081525090565b50805460008255906000526020600020908101906125cb9190612654565b50565b8280546125da906134e8565b90600052602060002090601f0160209004810192826125fc5760008555612643565b82601f1061261557805160ff1916838001178555612643565b82800160010185558215612643579182015b82811115612642578251825591602001919060010190612627565b5b5090506126509190612654565b5090565b5b8082111561266d576000816000905550600101612655565b5090565b600061268461267f846132f5565b6132d0565b905080838252602082019050828560208602820111156126a357600080fd5b60005b858110156126d357816126b98882612854565b8452602084019350602083019250506001810190506126a6565b5050509392505050565b60006126f06126eb84613321565b6132d0565b9050808382526020820190508285602086028201111561270f57600080fd5b60005b8581101561275957813567ffffffffffffffff81111561273157600080fd5b80860161273e8982612869565b85526020850194506020840193505050600181019050612712565b5050509392505050565b60006127766127718461334d565b6132d0565b90508281526020810184848401111561278e57600080fd5b6127998482856134a6565b509392505050565b6000813590506127b0816139e5565b92915050565b60008083601f8401126127c857600080fd5b8235905067ffffffffffffffff8111156127e157600080fd5b6020830191508360208202830111156127f957600080fd5b9250929050565b600082601f83011261281157600080fd5b8135612821848260208601612671565b91505092915050565b600082601f83011261283b57600080fd5b813561284b8482602086016126dd565b91505092915050565b600081359050612863816139fc565b92915050565b600082601f83011261287a57600080fd5b813561288a848260208601612763565b91505092915050565b6000813590506128a281613a13565b92915050565b6000602082840312156128ba57600080fd5b60006128c8848285016127a1565b91505092915050565b600080604083850312156128e457600080fd5b600083013567ffffffffffffffff8111156128fe57600080fd5b61290a85828601612800565b925050602061291b85828601612854565b9150509250929050565b60006020828403121561293757600080fd5b600082013567ffffffffffffffff81111561295157600080fd5b61295d8482850161282a565b91505092915050565b60008060006060848603121561297b57600080fd5b600084013567ffffffffffffffff81111561299557600080fd5b6129a186828701612869565b935050602084013567ffffffffffffffff8111156129be57600080fd5b6129ca86828701612869565b925050604084013567ffffffffffffffff8111156129e757600080fd5b6129f386828701612869565b9150509250925092565b600060208284031215612a0f57600080fd5b6000612a1d84828501612893565b91505092915050565b600080600060408486031215612a3b57600080fd5b6000612a4986828701612893565b935050602084013567ffffffffffffffff811115612a6657600080fd5b612a72868287016127b6565b92509250509250925092565b6000612a8a8383612e82565b905092915050565b6000612a9e8383612f06565b60208301905092915050565b612ab381613454565b82525050565b612aca612ac582613454565b6135ae565b82525050565b6000612adb826133b3565b612ae58185613406565b935083602082028501612af78561337e565b8060005b85811015612b335784840389528151612b148582612a7e565b9450612b1f836133df565b925060208a01995050600181019050612afb565b50829750879550505050505092915050565b6000612b50826133be565b612b5a8185613417565b9350612b658361338e565b8060005b83811015612b96578151612b7d8882612a92565b9750612b88836133ec565b925050600181019050612b69565b5085935050505092915050565b6000612bae826133c9565b612bb88185613417565b9350612bc38361339e565b8060005b83811015612bfb57612bd88261365f565b612be28882612a92565b9750612bed836133f9565b925050600181019050612bc7565b5085935050505092915050565b612c1181613466565b82525050565b612c2081613472565b82525050565b6000612c31826133d4565b612c3b8185613428565b9350612c4b8185602086016134b5565b612c5481613672565b840191505092915050565b6000612c6a826133d4565b612c748185613439565b9350612c848185602086016134b5565b612c8d81613672565b840191505092915050565b6000612ca5601483613439565b9150612cb08261369d565b602082019050919050565b6000612cc8602183613439565b9150612cd3826136c6565b604082019050919050565b6000612ceb601383613439565b9150612cf682613715565b602082019050919050565b6000612d0e602e83613439565b9150612d198261373e565b604082019050919050565b6000612d31602d83613439565b9150612d3c8261378d565b604082019050919050565b6000612d54601083613439565b9150612d5f826137dc565b602082019050919050565b6000612d77603083613439565b9150612d8282613805565b604082019050919050565b6000612d9a602183613439565b9150612da582613854565b604082019050919050565b6000612dbd601e83613439565b9150612dc8826138a3565b602082019050919050565b6000612de0601a83613439565b9150612deb826138cc565b602082019050919050565b6000612e03602483613439565b9150612e0e826138f5565b604082019050919050565b6000612e26601883613439565b9150612e3182613944565b602082019050919050565b6000612e49601f83613439565b9150612e548261396d565b602082019050919050565b6000612e6c602d83613439565b9150612e7782613996565b604082019050919050565b600060a083016000830151612e9a6000860182612f06565b5060208301518482036020860152612eb28282612c26565b91505060408301518482036040860152612ecc8282612c26565b91505060608301518482036060860152612ee68282612c26565b9150506080830151612efb6080860182612f06565b508091505092915050565b612f0f8161349c565b82525050565b612f1e8161349c565b82525050565b6000612f308284612ab9565b60148201915081905092915050565b6000602082019050612f546000830184612aaa565b92915050565b60006020820190508181036000830152612f748184612ad0565b905092915050565b60006040820190508181036000830152612f968185612ba3565b9050612fa56020830184612f15565b9392505050565b6000602082019050612fc16000830184612c08565b92915050565b6000602082019050612fdc6000830184612c17565b92915050565b60006020820190508181036000830152612ffc8184612c5f565b905092915050565b6000602082019050818103600083015261301d81612c98565b9050919050565b6000602082019050818103600083015261303d81612cbb565b9050919050565b6000602082019050818103600083015261305d81612cde565b9050919050565b6000602082019050818103600083015261307d81612d01565b9050919050565b6000602082019050818103600083015261309d81612d24565b9050919050565b600060208201905081810360008301526130bd81612d47565b9050919050565b600060208201905081810360008301526130dd81612d6a565b9050919050565b600060208201905081810360008301526130fd81612d8d565b9050919050565b6000602082019050818103600083015261311d81612db0565b9050919050565b6000602082019050818103600083015261313d81612dd3565b9050919050565b6000602082019050818103600083015261315d81612df6565b9050919050565b6000602082019050818103600083015261317d81612e19565b9050919050565b6000602082019050818103600083015261319d81612e3c565b9050919050565b600060208201905081810360008301526131bd81612e5f565b9050919050565b60006020820190506131d96000830184612f15565b92915050565b60006040820190506131f46000830185612f15565b81810360208301526132068184612b45565b90509392505050565b60006040820190506132246000830185612f15565b81810360208301526132368184612c5f565b90509392505050565b600060a0820190506132546000830188612f15565b81810360208301526132668187612c5f565b9050818103604083015261327a8186612c5f565b9050818103606083015261328e8185612c5f565b905061329d6080830184612f15565b9695505050505050565b60006040820190506132bc6000830185612f15565b6132c96020830184612f15565b9392505050565b60006132da6132eb565b90506132e68282613534565b919050565b6000604051905090565b600067ffffffffffffffff8211156133105761330f613630565b5b602082029050602081019050919050565b600067ffffffffffffffff82111561333c5761333b613630565b5b602082029050602081019050919050565b600067ffffffffffffffff82111561336857613367613630565b5b61337182613672565b9050602081019050919050565b6000819050602082019050919050565b6000819050602082019050919050565b60008190508160005260206000209050919050565b600081519050919050565b600081519050919050565b600081549050919050565b600081519050919050565b6000602082019050919050565b6000602082019050919050565b6000600182019050919050565b600082825260208201905092915050565b600082825260208201905092915050565b600082825260208201905092915050565b600082825260208201905092915050565b6000819050919050565b600061345f8261347c565b9050919050565b60008115159050919050565b6000819050919050565b600073ffffffffffffffffffffffffffffffffffffffff82169050919050565b6000819050919050565b82818337600083830152505050565b60005b838110156134d35780820151818401526020810190506134b8565b838111156134e2576000848401525b50505050565b6000600282049050600182168061350057607f821691505b6020821081141561351457613513613601565b5b50919050565b600061352d61352883613690565b61344a565b9050919050565b61353d82613672565b810181811067ffffffffffffffff8211171561355c5761355b613630565b5b80604052505050565b60006135708261349c565b91507fffffffffffffffffffffffffffffffffffffffffffffffffffffffffffffffff8214156135a3576135a26135d2565b5b600182019050919050565b60006135b9826135c0565b9050919050565b60006135cb82613683565b9050919050565b7f4e487b7100000000000000000000000000000000000000000000000000000000600052601160045260246000fd5b7f4e487b7100000000000000000000000000000000000000000000000000000000600052602260045260246000fd5b7f4e487b7100000000000000000000000000000000000000000000000000000000600052604160045260246000fd5b600061366b825461351a565b9050919050565b6000601f19601f8301169050919050565b60008160601b9050919050565b60008160001c9050919050565b7f5061757361626c653a206e6f7420706175736564000000000000000000000000600082015250565b7f536f7272792c2074686520456c656374696f6e20686173206e6f7420656e646560008201527f6400000000000000000000000000000000000000000000000000000000000000602082015250565b7f456c656374696f6e206973204f6e676f696e6700000000000000000000000000600082015250565b7f6f6e6c792074656163686572732f63686169726d616e2063616e206d616b652060008201527f726573756c7473207075626c6963000000000000000000000000000000000000602082015250565b7f6f6e6c792074656163686572732f63686169726d616e2063616e2063616c6c2060008201527f746869732066756e6374696f6e00000000000000000000000000000000000000602082015250565b7f5061757361626c653a2070617573656400000000000000000000000000000000600082015250565b7f506c6561736520636865636b206261636b2c2074686520656c656374696f6e2060008201527f686173206e6f7420737461727465642100000000000000000000000000000000602082015250565b7f61746c65617374206f6e6520706572736f6e2073686f756c6420636f6e74657360008201527f7400000000000000000000000000000000000000000000000000000000000000602082015250565b7f536f7272792c2074686520456c656374696f6e2068617320656e646564210000600082015250565b7f496e76616c69642063616e64696461746520746f20566f746521000000000000600082015250565b7f6f6e6c792063686169726d616e2063616e2063616c6c20746869732066756e6360008201527f74696f6e00000000000000000000000000000000000000000000000000000000602082015250565b7f566f7465722068617320616c726561647920566f746564210000000000000000600082015250565b7f54686520526573756c7473206d757374206265206d616465207075626c696300600082015250565b7f736f7272792c206f6e6c79207374616b65686f6c646572732061726520656c6960008201527f6769626c6520746f20766f746500000000000000000000000000000000000000602082015250565b6139ee81613454565b81146139f957600080fd5b50565b613a0581613472565b8114613a1057600080fd5b50565b613a1c8161349c565b8114613a2757600080fd5b5056fea2646970667358221220f19c27e3e3d09e93033209d724f0f7b9eac3a45720d53f1709bf4dd2b66fb92564736f6c63430008040033",
  "linkReferences": {},
  "deployedLinkReferences": {}
}