{
  "_format": "hh-sol-artifact-1",
  "contractName": "ZuriElection",
  "sourceName": "contracts/ZuriElection.sol",
  "abi": [
    {
      "inputs": [
        {
          "internalType": "bytes32",
          "name": "merkleRoot",
          "type": "bytes32"
        }
      ],
      "stateMutability": "nonpayable",
      "type": "constructor"
    },
    {
      "inputs": [],
      "name": "ElectionHasEnded",
      "type": "error"
    },
    {
      "inputs": [],
      "name": "ElectionNotStarted",
      "type": "error"
    },
    {
      "anonymous": false,
      "inputs": [
        {
          "indexed": false,
          "internalType": "uint256",
          "name": "_candidateId",
          "type": "uint256"
        },
        {
          "indexed": false,
          "internalType": "string",
          "name": "_candidateName",
          "type": "string"
        }
      ],
      "name": "CandidateCreated",
      "type": "event"
    },
    {
      "anonymous": false,
      "inputs": [
        {
          "indexed": false,
          "internalType": "uint256[]",
          "name": "_winnerIds",
          "type": "uint256[]"
        },
        {
          "indexed": false,
          "internalType": "uint256",
          "name": "_winnerVoteCount",
          "type": "uint256"
        }
      ],
      "name": "ElectionEnded",
      "type": "event"
    },
    {
      "anonymous": false,
      "inputs": [
        {
          "indexed": false,
          "internalType": "address",
          "name": "account",
          "type": "address"
        }
      ],
      "name": "Paused",
      "type": "event"
    },
    {
      "anonymous": false,
      "inputs": [
        {
          "indexed": false,
          "internalType": "address",
          "name": "account",
          "type": "address"
        }
      ],
      "name": "Unpaused",
      "type": "event"
    },
    {
      "anonymous": false,
      "inputs": [
        {
          "indexed": false,
          "internalType": "uint256",
          "name": "_candidateId",
          "type": "uint256"
        },
        {
          "indexed": false,
          "internalType": "uint256",
          "name": "_candidateVoteCount",
          "type": "uint256"
        }
      ],
      "name": "VoteForCandidate",
      "type": "event"
    },
    {
      "inputs": [],
      "name": "Active",
      "outputs": [
        {
          "internalType": "bool",
          "name": "",
          "type": "bool"
        }
      ],
      "stateMutability": "view",
      "type": "function"
    },
    {
      "inputs": [],
      "name": "Created",
      "outputs": [
        {
          "internalType": "bool",
          "name": "",
          "type": "bool"
        }
      ],
      "stateMutability": "view",
      "type": "function"
    },
    {
      "inputs": [],
      "name": "Ended",
      "outputs": [
        {
          "internalType": "bool",
          "name": "",
          "type": "bool"
        }
      ],
      "stateMutability": "view",
      "type": "function"
    },
    {
      "inputs": [
        {
          "internalType": "string",
          "name": "_name",
          "type": "string"
        },
        {
          "internalType": "string",
          "name": "_candidateHash",
          "type": "string"
        },
        {
          "internalType": "string",
          "name": "_candidateManifesto",
          "type": "string"
        }
      ],
      "name": "addCandidate",
      "outputs": [],
      "stateMutability": "nonpayable",
      "type": "function"
    },
    {
      "inputs": [
        {
          "internalType": "address",
          "name": "_newTeacher",
          "type": "address"
        }
      ],
      "name": "addTeacher",
      "outputs": [],
      "stateMutability": "nonpayable",
      "type": "function"
    },
    {
      "inputs": [
        {
          "internalType": "uint256",
          "name": "",
          "type": "uint256"
        }
      ],
      "name": "candidates",
      "outputs": [
        {
          "internalType": "uint256",
          "name": "id",
          "type": "uint256"
        },
        {
          "internalType": "string",
          "name": "name",
          "type": "string"
        },
        {
          "internalType": "string",
          "name": "candidateHash",
          "type": "string"
        },
        {
          "internalType": "string",
          "name": "candidateManifesto",
          "type": "string"
        },
        {
          "internalType": "uint256",
          "name": "voteCount",
          "type": "uint256"
        }
      ],
      "stateMutability": "view",
      "type": "function"
    },
    {
      "inputs": [],
      "name": "candidatesCount",
      "outputs": [
        {
          "internalType": "uint256",
          "name": "",
          "type": "uint256"
        }
      ],
      "stateMutability": "view",
      "type": "function"
    },
    {
      "inputs": [],
      "name": "chairman",
      "outputs": [
        {
          "internalType": "address",
          "name": "",
          "type": "address"
        }
      ],
      "stateMutability": "view",
      "type": "function"
    },
    {
      "inputs": [
        {
          "internalType": "address",
          "name": "_newChairman",
          "type": "address"
        }
      ],
      "name": "changeChairman",
      "outputs": [],
      "stateMutability": "nonpayable",
      "type": "function"
    },
    {
      "inputs": [],
      "name": "closeElection",
      "outputs": [],
      "stateMutability": "nonpayable",
      "type": "function"
    },
    {
      "inputs": [],
      "name": "description",
      "outputs": [
        {
          "internalType": "string",
          "name": "",
          "type": "string"
        }
      ],
      "stateMutability": "view",
      "type": "function"
    },
    {
      "inputs": [],
      "name": "endElection",
      "outputs": [],
      "stateMutability": "nonpayable",
      "type": "function"
    },
    {
      "inputs": [],
      "name": "getCandidates",
      "outputs": [
        {
          "components": [
            {
              "internalType": "uint256",
              "name": "id",
              "type": "uint256"
            },
            {
              "internalType": "string",
              "name": "name",
              "type": "string"
            },
            {
              "internalType": "string",
              "name": "candidateHash",
              "type": "string"
            },
            {
              "internalType": "string",
              "name": "candidateManifesto",
              "type": "string"
            },
            {
              "internalType": "uint256",
              "name": "voteCount",
              "type": "uint256"
            }
          ],
          "internalType": "struct ZuriElection.Candidate[]",
          "name": "",
          "type": "tuple[]"
        }
      ],
      "stateMutability": "view",
      "type": "function"
    },
    {
      "inputs": [],
      "name": "getWinner",
      "outputs": [
        {
          "internalType": "uint256",
          "name": "",
          "type": "uint256"
        },
        {
          "internalType": "uint256[]",
          "name": "",
          "type": "uint256[]"
        }
      ],
      "stateMutability": "view",
      "type": "function"
    },
    {
      "inputs": [],
      "name": "isChairman",
      "outputs": [
        {
          "internalType": "bool",
          "name": "",
          "type": "bool"
        }
      ],
      "stateMutability": "view",
      "type": "function"
    },
    {
      "inputs": [],
      "name": "isCreated",
      "outputs": [
        {
          "internalType": "bool",
          "name": "",
          "type": "bool"
        }
      ],
      "stateMutability": "view",
      "type": "function"
    },
    {
      "inputs": [],
      "name": "isEnded",
      "outputs": [
        {
          "internalType": "bool",
          "name": "",
          "type": "bool"
        }
      ],
      "stateMutability": "view",
      "type": "function"
    },
    {
      "inputs": [],
      "name": "isStarted",
      "outputs": [
        {
          "internalType": "bool",
          "name": "",
          "type": "bool"
        }
      ],
      "stateMutability": "view",
      "type": "function"
    },
    {
      "inputs": [],
      "name": "isTeacher",
      "outputs": [
        {
          "internalType": "bool",
          "name": "",
          "type": "bool"
        }
      ],
      "stateMutability": "view",
      "type": "function"
    },
    {
      "inputs": [
        {
          "internalType": "bytes32[]",
          "name": "proof",
          "type": "bytes32[]"
        },
        {
          "internalType": "bytes32",
          "name": "leaf",
          "type": "bytes32"
        }
      ],
      "name": "isValid",
      "outputs": [
        {
          "internalType": "bool",
          "name": "",
          "type": "bool"
        }
      ],
      "stateMutability": "view",
      "type": "function"
    },
    {
      "inputs": [],
      "name": "makeResultPublic",
      "outputs": [],
      "stateMutability": "nonpayable",
      "type": "function"
    },
    {
      "inputs": [],
      "name": "pause",
      "outputs": [],
      "stateMutability": "nonpayable",
      "type": "function"
    },
    {
      "inputs": [],
      "name": "paused",
      "outputs": [
        {
          "internalType": "bool",
          "name": "",
          "type": "bool"
        }
      ],
      "stateMutability": "view",
      "type": "function"
    },
    {
      "inputs": [],
      "name": "position",
      "outputs": [
        {
          "internalType": "string",
          "name": "",
          "type": "string"
        }
      ],
      "stateMutability": "view",
      "type": "function"
    },
    {
      "inputs": [
        {
          "internalType": "address",
          "name": "_teacher",
          "type": "address"
        }
      ],
      "name": "removeTeacher",
      "outputs": [],
      "stateMutability": "nonpayable",
      "type": "function"
    },
    {
      "inputs": [],
      "name": "root",
      "outputs": [
        {
          "internalType": "bytes32",
          "name": "",
          "type": "bytes32"
        }
      ],
      "stateMutability": "view",
      "type": "function"
    },
    {
      "inputs": [
        {
          "internalType": "string[]",
          "name": "_prop",
          "type": "string[]"
        }
      ],
      "name": "setUpElection",
      "outputs": [],
      "stateMutability": "nonpayable",
      "type": "function"
    },
    {
      "inputs": [],
      "name": "startElection",
      "outputs": [],
      "stateMutability": "nonpayable",
      "type": "function"
    },
    {
      "inputs": [
        {
          "internalType": "address",
          "name": "",
          "type": "address"
        }
      ],
      "name": "teachers",
      "outputs": [
        {
          "internalType": "bool",
          "name": "",
          "type": "bool"
        }
      ],
      "stateMutability": "view",
      "type": "function"
    },
    {
      "inputs": [],
      "name": "unpause",
      "outputs": [],
      "stateMutability": "nonpayable",
      "type": "function"
    },
    {
      "inputs": [
        {
          "internalType": "uint256",
          "name": "_candidateId",
          "type": "uint256"
        },
        {
          "internalType": "bytes32[]",
          "name": "hexProof",
          "type": "bytes32[]"
        }
      ],
      "name": "vote",
      "outputs": [],
      "stateMutability": "nonpayable",
      "type": "function"
    },
    {
      "inputs": [
        {
          "internalType": "address",
          "name": "",
          "type": "address"
        }
      ],
      "name": "voted",
      "outputs": [
        {
          "internalType": "bool",
          "name": "",
          "type": "bool"
        }
      ],
      "stateMutability": "view",
      "type": "function"
    },
    {
      "inputs": [
        {
          "internalType": "uint256",
          "name": "",
          "type": "uint256"
        }
      ],
      "name": "winnerIds",
      "outputs": [
        {
          "internalType": "uint256",
          "name": "",
          "type": "uint256"
        }
      ],
      "stateMutability": "view",
      "type": "function"
    },
    {
      "inputs": [],
      "name": "winnerVoteCount",
      "outputs": [
        {
          "internalType": "uint256",
          "name": "",
          "type": "uint256"
        }
      ],
      "stateMutability": "view",
      "type": "function"
    }
  ],
  "bytecode": "0x60806040523480156200001157600080fd5b506040516200659238038062006592833981810160405281019062000037919062000463565b60008060006101000a81548160ff021916908315150217905550620000857fcc6ab5e65d3d801abbceba22c952349e38c72f21bf6e3fba5e84bcff07d7685060001b6200042060201b60201c565b620000b97f1c6a8779b84407cc83edcb95b3f1e139fdab0942e11deebd4f2c8105a086d7f560001b6200042060201b60201c565b620000ed7f24ae89a02eb6a6e2449bd2af4d8722ff056eb0bf26b0f410763ec40c0aac6e5c60001b6200042060201b60201c565b33600060016101000a81548173ffffffffffffffffffffffffffffffffffffffff021916908373ffffffffffffffffffffffffffffffffffffffff160217905550620001627fb52cab833af640969d19da17017d09b4824934e017c732cd31e592eae591bf4a60001b6200042060201b60201c565b620001967f34827e6b7ac6e2d76c137b5fe97959e8ebc11aeb2ebb640339f5aea59ccc799660001b6200042060201b60201c565b6000600a60006101000a81548160ff021916908315150217905550620001e57f64bbf33ccc3f36a0cea4c82385134b8cc526679355da64f7a8c9eccc7431fba160001b6200042060201b60201c565b620002197fb0183e5b6c88c36f543d976c9a16c7c9712c7523e747d17a602c3edd8d5edda760001b6200042060201b60201c565b6000600a60016101000a81548160ff021916908315150217905550620002687f280dbc848dbe59284601f23d58e92ab79adcd87a13f1a18e1ec3543112144c0d60001b6200042060201b60201c565b6200029c7faa6c35dbf56394c60cec493d988dadbcdaacef7d611dd00ecc181ddef68804ed60001b6200042060201b60201c565b6000600a60026101000a81548160ff021916908315150217905550620002eb7ffea81a96d6bd594ae94b23c4b3bccf199e699cf744c5d0a029fb5dd90c34ac0960001b6200042060201b60201c565b6200031f7faee6c747fb244c72f38705bacda22728bc315b5bed9dffbf8a0e9495c73226e460001b6200042060201b60201c565b60006004819055506200035b7f5a29374a0f97f94dd6e09dff38282e43788a31a3ef558813767b4c404a95c9cc60001b6200042060201b60201c565b6200038f7f237bcb4815587ca3c7e0e083b13fd9ffa55f36bd0c88f33bbcbb7304cbd1eae860001b6200042060201b60201c565b80600381905550620003ca7f8fd1bd837e227a1c8f391d320d4a84450640b3e3e018b68845dc8ed0a9d4e35d60001b6200042060201b60201c565b620003fe7f774ab24b7edc2559d3b214ce0aaea1ec161cfe2f46a86cfc2afe0f10c9c1f60f60001b6200042060201b60201c565b6000600a60036101000a81548160ff0219169083151502179055505062000495565b50565b600080fd5b6000819050919050565b6200043d8162000428565b81146200044957600080fd5b50565b6000815190506200045d8162000432565b92915050565b6000602082840312156200047c576200047b62000423565b5b60006200048c848285016200044c565b91505092915050565b6160ed80620004a56000396000f3fe608060405234801561001057600080fd5b50600436106102065760003560e01c8063861743961161011a578063b8a20ed0116100ad578063e81018691161007c578063e81018691461053e578063ebf0c7171461055a578063f0a47f7814610578578063f51b41d2146105a8578063fd27419b146105c657610206565b8063b8a20ed0146104b6578063c64a4bad146104e6578063c9b0a2a714610504578063d1e53b8a1461052257610206565b80639adeddf8116100e95780639adeddf81461042e578063a4fd6f561461044c578063ad71f8dc1461046a578063aec2ccae1461048657610206565b806386174396146103c957806387f7b975146103e75780638e7ea5b21461040557806395adfc5e1461042457610206565b8063477383f31161019d5780635c975abb1161016c5780635c975abb1461036f57806362d73eb81461038d5780636c6c32d0146103975780637284e416146103a15780638456cb59146103bf57610206565b8063477383f31461030d57806352ff68461461032b578063544736e61461034757806359f784681461036557610206565b80633477ee2e116101d95780633477ee2e146102835780633bc6e309146102b75780633f4ba83a146102d3578063403d1312146102dd57610206565b806306a49fce1461020b57806309218e91146102295780632d35a8a2146102475780632f22850d14610265575b600080fd5b6102136105e2565b6040516102209190614e5f565b60405180910390f35b610231610a56565b60405161023e9190614ecb565b60405180910390f35b61024f610ae4565b60405161025c9190614efc565b60405180910390f35b61026d610aea565b60405161027a9190614efc565b60405180910390f35b61029d60048036038101906102989190614f57565b610af0565b6040516102ae959493929190614f84565b60405180910390f35b6102d160048036038101906102cc919061504a565b610cbe565b005b6102db610f80565b005b6102f760048036038101906102f29190614f57565b61123c565b6040516103049190614efc565b60405180910390f35b610315611260565b6040516103229190615092565b60405180910390f35b6103456004803603810190610340919061504a565b611273565b005b61034f611535565b60405161035c9190615092565b60405180910390f35b61036d6115d0565b005b610377611947565b6040516103849190615092565b60405180910390f35b61039561195d565b005b61039f611bde565b005b6103a9612176565b6040516103b69190614ecb565b60405180910390f35b6103c7612204565b005b6103d16124c0565b6040516103de9190615092565b60405180910390f35b6103ef61255b565b6040516103fc91906150bc565b60405180910390f35b61040d612581565b60405161041b929190615186565b60405180910390f35b61042c612767565b005b610436612aa2565b6040516104439190615092565b60405180910390f35b610454612ab5565b6040516104619190615092565b60405180910390f35b610484600480360381019061047f91906152eb565b612b50565b005b6104a0600480360381019061049b919061504a565b613040565b6040516104ad9190615092565b60405180910390f35b6104d060048036038101906104cb9190615490565b613060565b6040516104dd9190615092565b60405180910390f35b6104ee6130fb565b6040516104fb9190615092565b60405180910390f35b61050c6131d3565b6040516105199190615092565b60405180910390f35b61053c600480360381019061053791906155cd565b6131e6565b005b6105586004803603810190610553919061504a565b613773565b005b610562613a1b565b60405161056f9190615625565b60405180910390f35b610592600480360381019061058d919061504a565b613a21565b60405161059f9190615092565b60405180910390f35b6105b0613a41565b6040516105bd9190615092565b60405180910390f35b6105e060048036038101906105db919061569b565b613b1d565b005b60606106107f8a174fb0690d8c434b286029b037d598e9c1b8d69b54e1ec9e6fae4fba8c41e260001b613fbf565b61063c7f65dc83acc97684dbe33a6aaf26fcc2c91fc1ea1c8cfbdc1a6a04fa516a3e2ce760001b613fbf565b6106687f347dd330baa46ddf83c6275ec0b26c44643104e6108cd0a970a84b1aff41602c60001b613fbf565b600060045467ffffffffffffffff811115610686576106856151c0565b5b6040519080825280602002602001820160405280156106bf57816020015b6106ac614b74565b8152602001906001900390816106a45790505b5090506106ee7fa3a1700aa95fdf2c6d389c1b6d459dfacd2e6d2ce1bd9f4a4afba07dc4c2600760001b613fbf565b61071a7fb368053881362e37a66566215410950c5f7cdada683bddbdc873044ba35cbbcb60001b613fbf565b60005b6004548110156109f6576107537f90e558a59d75b07cc82284a09bcc44da30afac247b323a25517a44cacee3622c60001b613fbf565b61077f7fe30501473482d8a441c55fcf4c1969a70e411f1220198409962a4c41b9cd2dff60001b613fbf565b60006007600083815260200190815260200160002090506107c27fd12bddc6b1521066295d1e1bbe63123a1b68e3de8e6fcc308481caab38aab3e260001b613fbf565b6107ee7f85445f414eca5bd876f0e8c8c7e55a0f002cca1d6e422c01caf07277bbb20f6260001b613fbf565b806040518060a0016040529081600082015481526020016001820180546108149061572a565b80601f01602080910402602001604051908101604052809291908181526020018280546108409061572a565b801561088d5780601f106108625761010080835404028352916020019161088d565b820191906000526020600020905b81548152906001019060200180831161087057829003601f168201915b505050505081526020016002820180546108a69061572a565b80601f01602080910402602001604051908101604052809291908181526020018280546108d29061572a565b801561091f5780601f106108f45761010080835404028352916020019161091f565b820191906000526020600020905b81548152906001019060200180831161090257829003601f168201915b505050505081526020016003820180546109389061572a565b80601f01602080910402602001604051908101604052809291908181526020018280546109649061572a565b80156109b15780601f10610986576101008083540402835291602001916109b1565b820191906000526020600020905b81548152906001019060200180831161099457829003601f168201915b505050505081526020016004820154815250508383815181106109d7576109d661575c565b5b60200260200101819052505080806109ee906157ba565b91505061071d565b50610a237f5cbb09994105cfb2d83a4e59780a2e3a6e4fd346bc26906a67085696c211bc1e60001b613fbf565b610a4f7fabfe72b499cbfd8c9b125d105620fe9cd8ea1ac2bd8406d998f6078a9003031e60001b613fbf565b8091505090565b60018054610a639061572a565b80601f0160208091040260200160405190810160405280929190818152602001828054610a8f9061572a565b8015610adc5780601f10610ab157610100808354040283529160200191610adc565b820191906000526020600020905b815481529060010190602001808311610abf57829003601f168201915b505050505081565b60045481565b60095481565b6007602052806000526040600020600091509050806000015490806001018054610b199061572a565b80601f0160208091040260200160405190810160405280929190818152602001828054610b459061572a565b8015610b925780601f10610b6757610100808354040283529160200191610b92565b820191906000526020600020905b815481529060010190602001808311610b7557829003601f168201915b505050505090806002018054610ba79061572a565b80601f0160208091040260200160405190810160405280929190818152602001828054610bd39061572a565b8015610c205780601f10610bf557610100808354040283529160200191610c20565b820191906000526020600020905b815481529060010190602001808311610c0357829003601f168201915b505050505090806003018054610c359061572a565b80601f0160208091040260200160405190810160405280929190818152602001828054610c619061572a565b8015610cae5780601f10610c8357610100808354040283529160200191610cae565b820191906000526020600020905b815481529060010190602001808311610c9157829003601f168201915b5050505050908060040154905085565b610cc6611947565b15610d06576040517f08c379a0000000000000000000000000000000000000000000000000000000008152600401610cfd9061584f565b60405180910390fd5b610d327fd8f11a683391e8ef9aacf21d1e8099e1da819896a80a34ccb5905c0a4372fb3c60001b613fbf565b610d5e7fd926a409dfa6be33c9d7857b8ab42c29afe397106d83743a75f2efe639ff5f8a60001b613fbf565b610d8a7f01dbe1f6f3814d6e9d4b0ebad11be147efaa5893065b90e1bb04f3a24b25b1e860001b613fbf565b610db67fba6157d61e9b30815382d7948370b0966b0cc4967fc9deed9d3635b87fecd52f60001b613fbf565b3373ffffffffffffffffffffffffffffffffffffffff16600060019054906101000a900473ffffffffffffffffffffffffffffffffffffffff1673ffffffffffffffffffffffffffffffffffffffff161480610e62575060011515600560003373ffffffffffffffffffffffffffffffffffffffff1673ffffffffffffffffffffffffffffffffffffffff16815260200190815260200160002060009054906101000a900460ff161515145b610ea1576040517f08c379a0000000000000000000000000000000000000000000000000000000008152600401610e98906158e1565b60405180910390fd5b610ecd7feab754abfb2f39f44972655f49ac7d406c54c2b073adea87b2005d6ed6b8d49360001b613fbf565b610ef97f0f0dec143076cf2a25ae8f6440799b3e1275ea4ef27e2b86df0e72346324524a60001b613fbf565b610f257f99795938260be343f6b98336250ffc513d0ecdcd5ba5287e7d452a259281b26a60001b613fbf565b6001600560008373ffffffffffffffffffffffffffffffffffffffff1673ffffffffffffffffffffffffffffffffffffffff16815260200190815260200160002060006101000a81548160ff02191690831515021790555050565b610fac7fc61365800d58411e7de34c4751bc1f74c39888f765d6dfa6e20f22adcc11cf8760001b613fbf565b610fd87f6c048f714316212051acaaf0cd608a1eb3c0dd30bd6ef6318fbb3bde4d04f79460001b613fbf565b6110047fccb2803da287381692ffe02f4cda42bd99dbb97626de27c1c3e969c3858a7c0460001b613fbf565b6110307fd3fb966da526e6c6b828c3028cd875fe1164fb252981a769497cfb8bad6ce78360001b613fbf565b600060019054906101000a900473ffffffffffffffffffffffffffffffffffffffff1673ffffffffffffffffffffffffffffffffffffffff163373ffffffffffffffffffffffffffffffffffffffff16146110c0576040517f08c379a00000000000000000000000000000000000000000000000000000000081526004016110b790615973565b60405180910390fd5b6110ec7fc9dd64422090a84b4358816725e8f785ededdf052d5dc85d62df01a5113ce48c60001b613fbf565b6111187f9dbfa186a9abe2a7b8aa86036a54fa9cd29dd53437e7f01bee3d7d49593615fb60001b613fbf565b6111447f28788e5c9444ea19062ebb6d9da0dc4133346e2eb9d8a9f9890b03f38c55d92560001b613fbf565b6111707fc1f2f05a72013c155e8db264c5e782ce5fb1332af4ab0a4dbf23ec2d444b5c8d60001b613fbf565b61119c7f8c6601304668a6293b0b348625515c565e1ff373894dcedf25b768fea1a9ccf960001b613fbf565b6111a4613fc2565b6111d07f57641378a2b6662375cb8d9ef33684d81d2cb15b169a498bb5c654a1603a3c8d60001b613fbf565b6111fc7fd6480dbacf21101c8fdee5a8ea516058b615a83929f6388b33685cbb873526c460001b613fbf565b7f5db9ee0a495bf2e6ff9c91a7834c1ba4fdd244a5e8aa4e537bd38aeae4b073aa611225614063565b60405161123291906150bc565b60405180910390a1565b6008818154811061124c57600080fd5b906000526020600020016000915090505481565b600a60019054906101000a900460ff1681565b61127b611947565b156112bb576040517f08c379a00000000000000000000000000000000000000000000000000000000081526004016112b29061584f565b60405180910390fd5b6112e77f52aba296b1a285aab90eef2fe69f0451778e98c9c581f34b245383b39569ac7460001b613fbf565b6113137f4570d64e780b4ea8bbb8e1ea79e858b76c20d9e9127cd9e72bcef9e52239dd5c60001b613fbf565b61133f7f30e3056520e963c3f5c3b9718ca2ff788e709ba541c65a95cdba4cbdc320746a60001b613fbf565b61136b7ff9eaddfbaa1537da6bfab2d79592a29626d651c934fcd102423e672a6249a7d860001b613fbf565b3373ffffffffffffffffffffffffffffffffffffffff16600060019054906101000a900473ffffffffffffffffffffffffffffffffffffffff1673ffffffffffffffffffffffffffffffffffffffff161480611417575060011515600560003373ffffffffffffffffffffffffffffffffffffffff1673ffffffffffffffffffffffffffffffffffffffff16815260200190815260200160002060009054906101000a900460ff161515145b611456576040517f08c379a000000000000000000000000000000000000000000000000000000000815260040161144d906158e1565b60405180910390fd5b6114827fced0160ed6dc24b2a6249c3bd27d8603f06350faa8ae4f285c79bc9834189c1660001b613fbf565b6114ae7f3a2fb4ca7655d1cab0ed5945f1d042f53f1f84d2e2372d720c42dc9df22ae1fc60001b613fbf565b6114da7fef0ced56307a31cd3605705c54430a5ef4483efec947e7f8760115dccc8371c760001b613fbf565b6000600560008373ffffffffffffffffffffffffffffffffffffffff1673ffffffffffffffffffffffffffffffffffffffff16815260200190815260200160002060006101000a81548160ff02191690831515021790555050565b60006115637f67e0f1295d03631725b364e5b7deb02af935254e944c594e31bd35eedb09b50a60001b613fbf565b61158f7fa3c63ef2c6d970ee391e725659543776b9b172cea12bb1d3407f96000bf0809260001b613fbf565b6115bb7f5b1531256f8e22ce8cb2d338e0aa7512f2d192c91151878940b2cde31e19d14e60001b613fbf565b600a60009054906101000a900460ff16905090565b6115d8611947565b15611618576040517f08c379a000000000000000000000000000000000000000000000000000000000815260040161160f9061584f565b60405180910390fd5b6116447fc61365800d58411e7de34c4751bc1f74c39888f765d6dfa6e20f22adcc11cf8760001b613fbf565b6116707f6c048f714316212051acaaf0cd608a1eb3c0dd30bd6ef6318fbb3bde4d04f79460001b613fbf565b61169c7fccb2803da287381692ffe02f4cda42bd99dbb97626de27c1c3e969c3858a7c0460001b613fbf565b6116c87fd3fb966da526e6c6b828c3028cd875fe1164fb252981a769497cfb8bad6ce78360001b613fbf565b600060019054906101000a900473ffffffffffffffffffffffffffffffffffffffff1673ffffffffffffffffffffffffffffffffffffffff163373ffffffffffffffffffffffffffffffffffffffff1614611758576040517f08c379a000000000000000000000000000000000000000000000000000000000815260040161174f90615973565b60405180910390fd5b6117847fc9dd64422090a84b4358816725e8f785ededdf052d5dc85d62df01a5113ce48c60001b613fbf565b6117b07f9dbfa186a9abe2a7b8aa86036a54fa9cd29dd53437e7f01bee3d7d49593615fb60001b613fbf565b6117dc7f539cd77f75f8c4cdb8c091587e43bf9d68186b77e32dac34808d3848dfdcdd2460001b613fbf565b6118087f6d87c34ab0bd0d1542d369171bca0da7dd1d8d5e88f135043cccd09d51e8dd1e60001b613fbf565b6118347f9b37f1587c2a9dbb24dfdd910cdbfb93e64dad566ccf437a0f2b2fad3c11c0ae60001b613fbf565b6001600a60016101000a81548160ff02191690831515021790555061187b7fd98ebbe4b94b741dd89fc3d55f9fd5f649a1381cb210fc61e630b5ddd4cc9ef660001b613fbf565b6118a77fb1c3adeb85f5cd21080c972f9274f803be2914d6155b591068dc3ea262d74e1760001b613fbf565b6118af61406b565b50506118dd7f88a62da9d27120e2c377696d7495b0a577fe8c58ca19858fdd08bde5a28e5ce360001b613fbf565b6119097f2bf93793bb9377ce8f34ee07e3ca2b9e69c11f6f087710032b8a5ff463df9b1060001b613fbf565b7f38d8ebbbb4803f034f19b4cf2f19bfb84cc5dea177696c1f80a19357d5602e04600860095460405161193d929190615a69565b60405180910390a1565b60008060009054906101000a900460ff16905090565b611965611947565b156119a5576040517f08c379a000000000000000000000000000000000000000000000000000000000815260040161199c9061584f565b60405180910390fd5b6119d17fc61365800d58411e7de34c4751bc1f74c39888f765d6dfa6e20f22adcc11cf8760001b613fbf565b6119fd7f6c048f714316212051acaaf0cd608a1eb3c0dd30bd6ef6318fbb3bde4d04f79460001b613fbf565b611a297fccb2803da287381692ffe02f4cda42bd99dbb97626de27c1c3e969c3858a7c0460001b613fbf565b611a557fd3fb966da526e6c6b828c3028cd875fe1164fb252981a769497cfb8bad6ce78360001b613fbf565b600060019054906101000a900473ffffffffffffffffffffffffffffffffffffffff1673ffffffffffffffffffffffffffffffffffffffff163373ffffffffffffffffffffffffffffffffffffffff1614611ae5576040517f08c379a0000000000000000000000000000000000000000000000000000000008152600401611adc90615973565b60405180910390fd5b611b117fc9dd64422090a84b4358816725e8f785ededdf052d5dc85d62df01a5113ce48c60001b613fbf565b611b3d7f9dbfa186a9abe2a7b8aa86036a54fa9cd29dd53437e7f01bee3d7d49593615fb60001b613fbf565b611b697f0509fe1e5e99dc4bb822904e8a3ba520c697b5b577a3996b613bba21e9086dec60001b613fbf565b611b957fd94888d3eac30e7f71353ed0a8b5ed617daed4db88671ecc856a6ac4e224373660001b613fbf565b611bc17f685d0e0940fd8c835e83374ff61d4860975e1347889196ba1810f215ba24787a60001b613fbf565b6001600a60006101000a81548160ff021916908315150217905550565b611c0a7fc61365800d58411e7de34c4751bc1f74c39888f765d6dfa6e20f22adcc11cf8760001b613fbf565b611c367f6c048f714316212051acaaf0cd608a1eb3c0dd30bd6ef6318fbb3bde4d04f79460001b613fbf565b611c627fccb2803da287381692ffe02f4cda42bd99dbb97626de27c1c3e969c3858a7c0460001b613fbf565b611c8e7fd3fb966da526e6c6b828c3028cd875fe1164fb252981a769497cfb8bad6ce78360001b613fbf565b600060019054906101000a900473ffffffffffffffffffffffffffffffffffffffff1673ffffffffffffffffffffffffffffffffffffffff163373ffffffffffffffffffffffffffffffffffffffff1614611d1e576040517f08c379a0000000000000000000000000000000000000000000000000000000008152600401611d1590615973565b60405180910390fd5b611d4a7fc9dd64422090a84b4358816725e8f785ededdf052d5dc85d62df01a5113ce48c60001b613fbf565b611d767f9dbfa186a9abe2a7b8aa86036a54fa9cd29dd53437e7f01bee3d7d49593615fb60001b613fbf565b611da27fc1c4b225ebe7491342da42441a5fa896e9aecad3bfca40bc9979493f60ab7bcb60001b613fbf565b611dce7ff166cb8eb0dccef39b57656388ea6f6021a27060f3424486dd9abfff75d52c8e60001b613fbf565b611dfa7f647f8565636a78af1b1a8b9400032d19db4b57f05b6335876b41002011fe75a460001b613fbf565b6000600a60026101000a81548160ff021916908315150217905550611e417fe4c352d770f91ec3bae11894ac150a32d9a6cb4da8ef0beea2601aca1238d17460001b613fbf565b611e6d7f443abaf965ff378f7f93f7126f8ef7ea116c10a436b40344c5b6664074b5888760001b613fbf565b33600060016101000a81548173ffffffffffffffffffffffffffffffffffffffff021916908373ffffffffffffffffffffffffffffffffffffffff160217905550611eda7ff1d65da40cd7da7cd1d29d0f52b82a06cfdd3f1889285c71aa3c5feaa406241660001b613fbf565b611f067fa00c272cf75a8e59d101b8a4e69e45781bc21011ebe04bddadb1075faf299d8260001b613fbf565b6000600a60006101000a81548160ff021916908315150217905550611f4d7f5ae36ab7e907aa1aeb4ca0251f16c35c417d7b589c774a83f06d1bcc8882b74c60001b613fbf565b611f797f458faf568390ebdcc623372ab15850c6afc5861a1ce2a9a66e1dc8d43e004ca560001b613fbf565b6000600a60016101000a81548160ff021916908315150217905550611fc07f4e682562efcf2b4db1db442268e4f7f62bedb4f9cea17c42904e1fe44d2f0f4560001b613fbf565b611fec7f2c39c8babfadc7095ca6f199222200ab0de89d30c24aabe11552c770fce0620860001b613fbf565b6000600a60026101000a81548160ff0219169083151502179055506120337ff6ae938701626db699221d94f02e273855c88ffa93c2dda398f1621835a0b46e60001b613fbf565b61205f7f72e3c4fa2bdc5c4f20b12839766a54882affff3548d8307fae762780c35c18ba60001b613fbf565b60006004819055506120937ffd14a535a0bbc1c498870db62231018fdbec1c97b0fb4560795f912471f88bda60001b613fbf565b6120bf7f5e167ebe276c8633fea3eca617d845d29aef3ce367def3b48f1de05bd95e589e60001b613fbf565b6000600a60036101000a81548160ff0219169083151502179055506121067f60905a303297992b7dd411b3bc183e501c767b55f7e1d46f0003049b4959a53460001b613fbf565b600860006121149190614ba3565b6121407f0eb11335a755f683bf2199128a7d82f797a901c99ec6fded58e7e75a272accd360001b613fbf565b61216c7f7e2e77ca21aa1b46b9b0aad6729d34129f7d6c650038a359e5a0d7790112444460001b613fbf565b6000600981905550565b600280546121839061572a565b80601f01602080910402602001604051908101604052809291908181526020018280546121af9061572a565b80156121fc5780601f106121d1576101008083540402835291602001916121fc565b820191906000526020600020905b8154815290600101906020018083116121df57829003601f168201915b505050505081565b6122307fc61365800d58411e7de34c4751bc1f74c39888f765d6dfa6e20f22adcc11cf8760001b613fbf565b61225c7f6c048f714316212051acaaf0cd608a1eb3c0dd30bd6ef6318fbb3bde4d04f79460001b613fbf565b6122887fccb2803da287381692ffe02f4cda42bd99dbb97626de27c1c3e969c3858a7c0460001b613fbf565b6122b47fd3fb966da526e6c6b828c3028cd875fe1164fb252981a769497cfb8bad6ce78360001b613fbf565b600060019054906101000a900473ffffffffffffffffffffffffffffffffffffffff1673ffffffffffffffffffffffffffffffffffffffff163373ffffffffffffffffffffffffffffffffffffffff1614612344576040517f08c379a000000000000000000000000000000000000000000000000000000000815260040161233b90615973565b60405180910390fd5b6123707fc9dd64422090a84b4358816725e8f785ededdf052d5dc85d62df01a5113ce48c60001b613fbf565b61239c7f9dbfa186a9abe2a7b8aa86036a54fa9cd29dd53437e7f01bee3d7d49593615fb60001b613fbf565b6123c87feae8e141b4dc5ee1ec3fa9440f45a95be52d6eedbb86206228965bfbb16c6ede60001b613fbf565b6123f47fa2210f6de7f686d7d5ba9944f7b94ccc03a216161bdce2b50697410c562b41aa60001b613fbf565b6124207fc5ec14fb9a2b00f3712cd29de0f531c266c6fc337e4d871847053fc264ae74de60001b613fbf565b612428614570565b6124547f7d6d1a41dcd407c213f1f7622d60f9d9c15f915af936918ae8b3a9cea7fc4cdb60001b613fbf565b6124807f69065ee662199b8c69f2aca7a21d4ce9b5f6d1573c891a6e722d0957f81f022560001b613fbf565b7f62e78cea01bee320cd4e420270b5ea74000d11b0c9f74754ebdbfc544b05a2586124a9614063565b6040516124b691906150bc565b60405180910390a1565b60006124ee7f0fcb49922ecb56b47c45c8be27aeb49621fd0d364c7e88bcc10d4e783067ad0460001b613fbf565b61251a7fb6c18b71270308205508530b9848e075ede2a048ce6cacbc880e97330c19bf5460001b613fbf565b6125467fa92ce9aa72570f37b18f188a2651aa0f0c21f6e2205252be6aafc9a5b22e92ae60001b613fbf565b600a60029054906101000a900460ff16905090565b600060019054906101000a900473ffffffffffffffffffffffffffffffffffffffff1681565b600060606125b17fce92535b45d0b6f01484e9f53faa00df66614acf5cd8cdb5d7f13e83e79fb91760001b613fbf565b6125dd7f18fb7166668e00a41810495dbc6c09040d75e487d8df4257f41a74f633596cd660001b613fbf565b6126097fa02176f0d5cb7e8f6658c494bf64139d5e97b12dbe855eabd48fc0e9be4ab74a60001b613fbf565b6126357f8373dd0064f7d88b7f36eee113c1377fe15eb61fae9dad1dc3d5d414199459ee60001b613fbf565b600a60039054906101000a900460ff16612684576040517f08c379a000000000000000000000000000000000000000000000000000000000815260040161267b90615ae5565b60405180910390fd5b6126b07ffafad7bca76435d2d5eedfc634af02f01f189a3d326910d31a9b0fc4b96b247660001b613fbf565b6126dc7fc148c3416430e495184aa7e5f85fac527c54a366326f87b46b0c9a7aac021b4260001b613fbf565b6127087f9ace2e23f110f2c2476b0d524036c4bf1ec765e5c3cb793462562f5b4e2b86ac60001b613fbf565b60095460088080548060200260200160405190810160405280929190818152602001828054801561275857602002820191906000526020600020905b815481526020019060010190808311612744575b50505050509050915091509091565b6127937fec74d5e9941ea32ac21bed40012c6d0c624a62397164316d0c27a03a6b30f8d760001b613fbf565b6127bf7f420523891afa074e2fd9efb2ce4efac8d2cab154148a840a4dfd7dbdaa685b0960001b613fbf565b6127eb7fc3f68668bf50915f50c07522cbb1f1ae8d86f02ec729ef5b2eae43940f261c0660001b613fbf565b6128177fc211cf234009379d72ed93b8365e460e6e61c55280b9a6bc1e12626b376d8c5560001b613fbf565b600a60019054906101000a900460ff16612866576040517f08c379a000000000000000000000000000000000000000000000000000000000815260040161285d90615b77565b60405180910390fd5b6128927fbb6210a5e77fe68ec8e8c67a33bb2c85f26bf80080423cada6f1a85b91c6a9af60001b613fbf565b6128be7f72d1e71d6c24a00abe8548427d42c3ff581efeffc8ff3c07964b39830aac82e760001b613fbf565b6128ea7fdc8c41a43947cdcc1c256831db51fd00d4bb075ac4a8d90cbc3b942ca60b37d960001b613fbf565b6129167f7843408cf570e0014751b328e0e8a5839a6d75e284332d099e8253614e97708760001b613fbf565b3373ffffffffffffffffffffffffffffffffffffffff16600060019054906101000a900473ffffffffffffffffffffffffffffffffffffffff1673ffffffffffffffffffffffffffffffffffffffff1614806129c2575060011515600560003373ffffffffffffffffffffffffffffffffffffffff1673ffffffffffffffffffffffffffffffffffffffff16815260200190815260200160002060009054906101000a900460ff161515145b612a01576040517f08c379a00000000000000000000000000000000000000000000000000000000081526004016129f890615c09565b60405180910390fd5b612a2d7f8dc851c038f2a75774a510afa62166bad9cdfba1ea9753f623ea284c052aa12060001b613fbf565b612a597ff0dccdb760027f1c7ac2ab28ba5c4319ad78ea2d22bc087c028f46b6cff6582460001b613fbf565b612a857f1026703ff7a4e54cc550db4eb347d690922ac067672fa0bdf5741d3506070b1360001b613fbf565b6001600a60036101000a81548160ff021916908315150217905550565b600a60029054906101000a900460ff1681565b6000612ae37f905397cd83c0a0c8e00ee1cda927ace007910bc92abc3e3102583b275fef7ce560001b613fbf565b612b0f7ff10368458a1e8950f55708f9d928976985fd6a397515e608fbc35721f47bc11160001b613fbf565b612b3b7fd7f1e7c923c834b0cd9f7ae6f2ec5dfded676e8b0c9d801158b264f0d24a8d9a60001b613fbf565b600a60019054906101000a900460ff16905090565b612b58611947565b15612b98576040517f08c379a0000000000000000000000000000000000000000000000000000000008152600401612b8f9061584f565b60405180910390fd5b612bc47f2757f444343bcf165c7c879a1ad14e8184e216f8ae1351feeb45777be5478fc560001b613fbf565b612bf07f051fab2ffd12f89504c5879306ab5485d16310d46507eab23210ce88f0f42fec60001b613fbf565b612c1c7fe0d3a8a961f2a7a18994ab8dfe35d1df998f28b79bcde1a79aae5c48ee71011060001b613fbf565b612c487f5f3483e5530fc89c17f8385258c17b7b9f6fe9d8a0749b06b762e58f8959bdca60001b613fbf565b600a60009054906101000a900460ff1615612c98576040517f08c379a0000000000000000000000000000000000000000000000000000000008152600401612c8f90615c75565b60405180910390fd5b612cc47feee8ad60c650688b85674c06bace49f696fd8855d7b3960bef134c418bcec19e60001b613fbf565b612cf07fe589a0492b5efb3d69c62106c4e489736a5492eebc34447ce9987e0789adf0f360001b613fbf565b612d1c7f3e86f88c4efd3c7866a80f63e83788e775779c1fa9ab59e1adf7eb67c0f9da0c60001b613fbf565b612d487f1d830ed6ab7d9f5a54ad467677b8108137d686e7931b1333e4bbd0c41d42c41960001b613fbf565b3373ffffffffffffffffffffffffffffffffffffffff16600060019054906101000a900473ffffffffffffffffffffffffffffffffffffffff1673ffffffffffffffffffffffffffffffffffffffff161480612df4575060011515600560003373ffffffffffffffffffffffffffffffffffffffff1673ffffffffffffffffffffffffffffffffffffffff16815260200190815260200160002060009054906101000a900460ff161515145b612e33576040517f08c379a0000000000000000000000000000000000000000000000000000000008152600401612e2a906158e1565b60405180910390fd5b612e5f7fe4da5737da703f921c09a16433e4c55b06a02be029c9b6ded6e106fedd91ea3260001b613fbf565b612e8b7fcf2a3fbb94cefa12bd738dd4217306af8bbedd85db691383986c64c0ddfa588f60001b613fbf565b612eb77fafd1f187f5d32eeb6787482fe4956ccc358d762d2be8e9d03d16e9576fd4ab3560001b613fbf565b6040518060a0016040528060045481526020018481526020018381526020018281526020016000815250600760006004548152602001908152602001600020600082015181600001556020820151816001019080519060200190612f1c929190614bc4565b506040820151816002019080519060200190612f39929190614bc4565b506060820151816003019080519060200190612f56929190614bc4565b5060808201518160040155905050612f907fa36cf51c7d8fb9b0d8b6876cfb9cd81f6c9d02c1cf2df89e2dca76993030f25a60001b613fbf565b612fbc7fc3f7e04aecb87a36c82cc72e6472aa3b1159f84dc48f254560a68c5db9c218e260001b613fbf565b7f78d27a3c512303f604b46bc28acc0ca45abe6420172a017c5a6dc585821eb63960045484604051612fef929190615c95565b60405180910390a16130237faf4e5dcf3cc9a94f3d629ad108977ee247c7c9ffc6153ca01c98ec895605c11060001b613fbf565b60046000815480929190613036906157ba565b9190505550505050565b60066020528060005260406000206000915054906101000a900460ff1681565b600061308e7f85099047f48d4f172ea26128c5ad3bacb7c038d1bdcc4a4da06973edb42e31a060001b613fbf565b6130ba7fbdc313912be04859411b4daa50c3be9b4ab6cc059511441edbd0c2a852a2099860001b613fbf565b6130e67f4a6dbb52f1d19f49f1521498189d17e67b23d4a5e656d8ad33f5d108d0d0b5dc60001b613fbf565b6130f38360035484614612565b905092915050565b60006131297f3270b14e1b2239186b3c058ec7dbc5ce62f3adc9f41b6ba75756943bdf2656c460001b613fbf565b6131557fed71637089659f55bf47958140812e02729363e434ee41e08d31d16128ce239360001b613fbf565b6131817f5d967bbf7fe8fcd2f3a4b25c58c6aeb5717ebb43d26b7caffc6ae325de6d497260001b613fbf565b600560003373ffffffffffffffffffffffffffffffffffffffff1673ffffffffffffffffffffffffffffffffffffffff16815260200190815260200160002060009054906101000a900460ff16905090565b600a60009054906101000a900460ff1681565b6131ee611947565b1561322e576040517f08c379a00000000000000000000000000000000000000000000000000000000081526004016132259061584f565b60405180910390fd5b61325a7f72c2d37252859b72258e758cad3d046dbbf6e7d52d3cde26b4c6d69b3a9b9cad60001b613fbf565b6132867faee10ea6d3b32b03a0e99bf9992cb97b62b67e53e151c8be9f078d4753704a9960001b613fbf565b6132b27f11afb7b47f127b8ed300add7baac6e534cdfc245f6d6640c6910521b1389548d60001b613fbf565b6132de7f2452d9fe2836ae0c93eef00b6e11c719792aae0330b6a5931bd7c1b2a728855960001b613fbf565b600a60009054906101000a900460ff161561332e576040517f08c379a000000000000000000000000000000000000000000000000000000000815260040161332590615c75565b60405180910390fd5b61335a7f7b5ce290e2126e4efa1aea78288087f2e46deb3f6c720deb7f7988d6843196cb60001b613fbf565b6133867f8f46ac4700bee3952f5a316871665e3fbfa400bbb6d4c38f8cc961a1aa3c2ff060001b613fbf565b6133b27f5af6065b816343cc187ed5dfe43049e5df712e679f9f5cbc34036c39ac68942360001b613fbf565b6133de7f862a4cc0f23c5fa95f48d618ce0779ed8f5addfd59a7dcbe5dd20b02bc40ba1260001b613fbf565b6000815111613422576040517f08c379a000000000000000000000000000000000000000000000000000000000815260040161341990615d37565b60405180910390fd5b61344e7f1e14111941b018f4a2059be14ec643a6d8b76032a36de716f55b45b498de367860001b613fbf565b61347a7fa09f13fbb6893ddd3307f6db264f94c0805553b71cc20a018ba6d56a3752fcf960001b613fbf565b6134a67f6d7a9ef6bd96f259a50305cf922eaa6b0a7f2f9caca778c9cf055fa64e05563b60001b613fbf565b6134d27f6dd043199322acc8fdd456891cabb69036f55b3071abadfd80191221dac4bef460001b613fbf565b3373ffffffffffffffffffffffffffffffffffffffff16600060019054906101000a900473ffffffffffffffffffffffffffffffffffffffff1673ffffffffffffffffffffffffffffffffffffffff16148061357e575060011515600560003373ffffffffffffffffffffffffffffffffffffffff1673ffffffffffffffffffffffffffffffffffffffff16815260200190815260200160002060009054906101000a900460ff161515145b6135bd576040517f08c379a00000000000000000000000000000000000000000000000000000000081526004016135b4906158e1565b60405180910390fd5b6135e97f99cc24e8b8355609470bf896325c41f0b52cb93d339618d8b4ddfebfead2178660001b613fbf565b6136157f2254559f82f4e559c70aec15f43366bb36861e8300080397d3ebbea8ad451a6860001b613fbf565b6136417f510940e417d4f107070f10f9fcee133b9a984a6bcba5041a00f4f007d28ce8e160001b613fbf565b806000815181106136555761365461575c565b5b602002602001015160019080519060200190613672929190614bc4565b5061369f7f32b338376d870ee033af8e1968a71c8cbee3edc0bf5e943560f2841e19a6774260001b613fbf565b6136cb7f45a910ad6dc9f3baaa05b3ffde7dbb3f487af39cbeecf2d2a2b70a71d87725f160001b613fbf565b806001815181106136df576136de61575c565b5b6020026020010151600290805190602001906136fc929190614bc4565b506137297f0ad9ccfc2b0f9669c1411d732e52f0a8144d69372538eef25f27789221e4537a60001b613fbf565b6137557ffc18598f6656b22c19660f08a6ceb0e64dddc096ef8118cd56a17d112812524060001b613fbf565b6001600a60026101000a81548160ff02191690831515021790555050565b61377b611947565b156137bb576040517f08c379a00000000000000000000000000000000000000000000000000000000081526004016137b29061584f565b60405180910390fd5b6137e77fc61365800d58411e7de34c4751bc1f74c39888f765d6dfa6e20f22adcc11cf8760001b613fbf565b6138137f6c048f714316212051acaaf0cd608a1eb3c0dd30bd6ef6318fbb3bde4d04f79460001b613fbf565b61383f7fccb2803da287381692ffe02f4cda42bd99dbb97626de27c1c3e969c3858a7c0460001b613fbf565b61386b7fd3fb966da526e6c6b828c3028cd875fe1164fb252981a769497cfb8bad6ce78360001b613fbf565b600060019054906101000a900473ffffffffffffffffffffffffffffffffffffffff1673ffffffffffffffffffffffffffffffffffffffff163373ffffffffffffffffffffffffffffffffffffffff16146138fb576040517f08c379a00000000000000000000000000000000000000000000000000000000081526004016138f290615973565b60405180910390fd5b6139277fc9dd64422090a84b4358816725e8f785ededdf052d5dc85d62df01a5113ce48c60001b613fbf565b6139537f9dbfa186a9abe2a7b8aa86036a54fa9cd29dd53437e7f01bee3d7d49593615fb60001b613fbf565b61397f7f9e1bb5315f94c9aa1a1cb57bf207c894244929a9d7b82c90706e828dded6170760001b613fbf565b6139ab7fe317966e63338e812348c7748947cece9d022b929b604f31faaa8b8f39c5ff2060001b613fbf565b6139d77f7ea2f91b44b3471592202a59559efc29bdbd4e67105ea0a7a79354b9fff7c1b960001b613fbf565b80600060016101000a81548173ffffffffffffffffffffffffffffffffffffffff021916908373ffffffffffffffffffffffffffffffffffffffff16021790555050565b60035481565b60056020528060005260406000206000915054906101000a900460ff1681565b6000613a6f7fa8376455167799a5f7783c9a2746fd868015caadded1496a6d3285313dd5824a60001b613fbf565b613a9b7f3d99decd8dc16d966e03cb906537c21473376b91051ddf053214e985effb432c60001b613fbf565b613ac77f9ac8d3a927f4e73e1d754d8ab32f5e300854da6298b98a2f43560d168359746e60001b613fbf565b3373ffffffffffffffffffffffffffffffffffffffff16600060019054906101000a900473ffffffffffffffffffffffffffffffffffffffff1673ffffffffffffffffffffffffffffffffffffffff1614905090565b613b497f127ed3cdc677c3b4df3882a0324ee9814daa9a4594d474ead6861d701351c72d60001b613fbf565b613b757fff62d83e44367c49b2c52660f37ee3c4671b3a81ae1d2c892920ef566ff0e3ae60001b613fbf565b613ba17fadbccd420bd42d67d7af9d01c4cde18692d5dc297d85010bec7a5e7d9709ee5e60001b613fbf565b613bcd7f82fd32ad4f6f90946ac741c3881c887aca20cd82a4fe5f2c46bd57f8e864719d60001b613fbf565b600a60019054906101000a900460ff1615613c1d576040517f08c379a0000000000000000000000000000000000000000000000000000000008152600401613c1490615da3565b60405180910390fd5b613c497faa541832e7c45b1f9cdbe5e11cba12db426dfaaace61adad4b3b7d0e6feec7bd60001b613fbf565b613c757f3cf9fa72d3cc65eb6f163983b402ad9ed5daceabde5e63d0443e7b91dd9fd19860001b613fbf565b613ca17fbc5e837481a62a503f356e17536aaa01dfb927083649dc13e0ef7a8c109ab0dc60001b613fbf565b613ccd7f1a0fb6d0eb0b2ca8ecab5dd8ee2640ca654fa3b5e4bf96ccfa3bc887d2d7cc8d60001b613fbf565b613cf97f2400b544cfa17e229110af76130e00ba3670111d0b816bddbd49ff01cebf902360001b613fbf565b613d257f8290af1050945caa0784190b1bb8285e221df0ace2b47cb2887242956b4932ef60001b613fbf565b600a60009054906101000a900460ff16613d74576040517f08c379a0000000000000000000000000000000000000000000000000000000008152600401613d6b90615e35565b60405180910390fd5b613da07f9105da7c679f65e4eb53af1d078c4a53e6b92a94779edaf83d18b8dbc8a98b5f60001b613fbf565b613dcc7fa4f8ebfa0bcf3c4b117d74552e050fe22086d78c0fdb2c01888b4b4d331127b260001b613fbf565b613df87fc647480530bf1611a22cc371debcf11fe5ab94339ee4c088267dc4e3c33758a460001b613fbf565b613e247f2025db0bb6f4a8f822f3952c8c841474e504accb94a1a00ae922d3caa9809e0f60001b613fbf565b613e507f6d593b45c8394af37f38f40a61a682bcd1a2be9711d0016690c28c46a6c9fb3f60001b613fbf565b613e7c7f7b3e58bca8d27cfdfdd32a7137ed7cff404a4dcba0663040ee3a2940c3d6979260001b613fbf565b613eed828280806020026020016040519081016040528093929190818152602001838360200280828437600081840152601f19601f8201169050808301925050505050505033604051602001613ed29190615e9d565b60405160208183030381529060405280519060200120613060565b613f2c576040517f08c379a0000000000000000000000000000000000000000000000000000000008152600401613f2390615f2a565b60405180910390fd5b613f587fdd7c0fdd58316191f1c22678a5d284af1030d9454b09b1c9bafbcd0b5c73186c60001b613fbf565b613f847fa55e6a8ec9baed4e8ed0921bfa57d17f1a4a399b7774667091d52f68b1eea56760001b613fbf565b613fb07f027e02d85cceb11e4887beada716fb0ccb2cd0d2926f32a400178f24a685f37f60001b613fbf565b613fba8333614629565b505050565b50565b613fca611947565b614009576040517f08c379a000000000000000000000000000000000000000000000000000000000815260040161400090615f96565b60405180910390fd5b60008060006101000a81548160ff0219169083151502179055507f5db9ee0a495bf2e6ff9c91a7834c1ba4fdd244a5e8aa4e537bd38aeae4b073aa61404c614063565b60405161405991906150bc565b60405180910390a1565b600033905090565b60006060614077611947565b156140b7576040517f08c379a00000000000000000000000000000000000000000000000000000000081526004016140ae9061584f565b60405180910390fd5b6140e37fd11fdc5641f7cbe075c8ad980cf89883efdf5b6f91a5a45c7114cf7f7bb5e38d60001b613fbf565b61410f7fdb606ea45577e0be5892ab89a546c8ca9383e085900dd2e1797c80d5b30b8a5560001b613fbf565b61413b7fef7d2e08b9420206ede230affb62d823701d506d59e50f5554cfe35ae320f2b260001b613fbf565b60005b6004548110156144b8576141747fd94e7de7e68105b1fe45e57b563c75534277de43c7e915601e1a359f2292f7cf60001b613fbf565b6141a07f7f7843b569c53a9ac84b94f0a731be611650e6622f042812c0e1829c7ae6562660001b613fbf565b60095460076000838152602001908152602001600020600401541115614337576141ec7f58aa9e500e4bc3a18fa1d8c8a735ce29d8be5c1d025b9efc4a0b28f4a69a6eed60001b613fbf565b6142187f776f85bdd4b681a276cebc60fbca32a5ae97a436113f7aa2fb23ba77ec10aa6760001b613fbf565b6142447fbd8a0f331962852d9eb2c25e7ea53c949cbb7cea27be5aa6a0053a1e2edfc47260001b613fbf565b600760008281526020019081526020016000206004015460098190555061428d7f713573625bbcf64802e44cfa4a93b4b2cabae1e0c119500c608f180c9a30a88c60001b613fbf565b6008600061429b9190614ba3565b6142c77f7761183dadb26d3ef391749c2c80e03b9ac2be392547aa76adc8c973395783f560001b613fbf565b6142f37fe65b0f9fc8e8a705bfecf14204fe594ee1686129c5019f49980d8ef547089c1e60001b613fbf565b6008600760008381526020019081526020016000206000015490806001815401808255809150506001900390600052602060002001600090919091909150556144a5565b6143637fdeb881a30eb04ec04e14262c1122edbd0158c7bee73573217e13df7a6c8422cc60001b613fbf565b61438f7f491c80533d310d9b8e0cca82bc4b553a2a50537315c435d6e3e33e71d4a9780c60001b613fbf565b60095460076000838152602001908152602001600020600401541415614477576143db7f31968501416019c5b26d222909d8a7802849f3aa8c787d56cfa0ae4ee85cca8d60001b613fbf565b6144077fb1b7b6fb493b998da88c06c370b77cfc1f647dcb1c8baba832ba8bc53e89453b60001b613fbf565b6144337fd73bf06c14ec09d5fabfc335b622383807409f0abd5e132c2cffab9de0477f2d60001b613fbf565b6008600760008381526020019081526020016000206000015490806001815401808255809150506001900390600052602060002001600090919091909150556144a4565b6144a37f5906960ee68a3e0166cebbaa0047c9d1c311d754684131aacb69915dd426956060001b613fbf565b5b5b80806144b0906157ba565b91505061413e565b506144e57fd988c72d90b9ba41322a652df8af204a52f491df9c4c83da1dab3b07422d662260001b613fbf565b6145117f7909c796fecfafa9449736b1930efddc3d54278e3237cd955c5df949f6fc349760001b613fbf565b60095460088080548060200260200160405190810160405280929190818152602001828054801561456157602002820191906000526020600020905b81548152602001906001019080831161454d575b50505050509050915091509091565b614578611947565b156145b8576040517f08c379a00000000000000000000000000000000000000000000000000000000081526004016145af9061584f565b60405180910390fd5b60016000806101000a81548160ff0219169083151502179055507f62e78cea01bee320cd4e420270b5ea74000d11b0c9f74754ebdbfc544b05a2586145fb614063565b60405161460891906150bc565b60405180910390a1565b60008261461f8584614ae8565b1490509392505050565b614631611947565b15614671576040517f08c379a00000000000000000000000000000000000000000000000000000000081526004016146689061584f565b60405180910390fd5b8161469e7f5baa34f426a5fd854ac12c565c454f0e035337ed797fb65c8fb0f3ce6ad3dd1060001b613fbf565b6146ca7f729a02e7ea63b14b17257a38e48bf5fb2306e6e6621b1f9ab95eb759dc671c3960001b613fbf565b6146f67f557c7f34d0c37c90d6309150a53bf4c53149e61ce0bb3745ccc153256f49816e60001b613fbf565b6147227fe5df44ebae7e990ba0b6516e80f2aa0e040a792d68447286faffc5ed917bfa8360001b613fbf565b60045481108015614734575060008110155b614773576040517f08c379a000000000000000000000000000000000000000000000000000000000815260040161476a90616002565b60405180910390fd5b61479f7f04414778bbd28a836711f117e56ea632a9642b313567a0ff15732fac3954332360001b613fbf565b6147cb7f37147b97543546b5e9a32b0214d5e37212c75caa0931495c465d59ac04bd2b0760001b613fbf565b6147f77f0975c750226379d8e306b1cb38d23cf769884ad24d4a9239b8420e07289b843060001b613fbf565b6148237f57f5a17dd93d2f433b98d7291ccab2ea3b364f7f2df5a0396e632fb0a7fca96060001b613fbf565b61484f7fe830c0ee140fbbbc436032dc4ce74bd2d88f47070d3b8087f3b8b7c31c8538a860001b613fbf565b61487b7f2e81cca64ca6d6ab4ca06c40af7e18ae6e9cd6a37361c0931afaa89efa28505460001b613fbf565b600660008373ffffffffffffffffffffffffffffffffffffffff1673ffffffffffffffffffffffffffffffffffffffff16815260200190815260200160002060009054906101000a900460ff1615614908576040517f08c379a00000000000000000000000000000000000000000000000000000000081526004016148ff9061606e565b60405180910390fd5b6149347f2e36c2aedf7468fbaaba247f8cafdadfbb4c967f336c17fdab6ec386129c178c60001b613fbf565b6149607fb05fc425ef53341246609de4eb849e0eb5049a64251509c4e358adf537a6b98b60001b613fbf565b61498c7f082c10ba22f146a66f8b226a850dd3314ece4f503137b8b50d93c7dc07b98e0860001b613fbf565b6001600660008473ffffffffffffffffffffffffffffffffffffffff1673ffffffffffffffffffffffffffffffffffffffff16815260200190815260200160002060006101000a81548160ff021916908315150217905550614a107f060dfe5f924a445355811c299be4e1cf7b18a8d116987905341223ffc0d2ebd660001b613fbf565b600760008481526020019081526020016000206004016000815480929190614a37906157ba565b9190505550614a687fe97062e62347a347ce9f89ca4532670ff1ee6c014d411f2f0a2d82d3a9d32e4260001b613fbf565b614a947f579336b80875a4b5d62d2d2dbe5d2b35ece70268c608b84d96234d695065ee0c60001b613fbf565b7fd3ebd88818d034d26c5d98bcef9c7c45207130238e76e8cf0b3ba00e906851bf836007600086815260200190815260200160002060040154604051614adb92919061608e565b60405180910390a1505050565b60008082905060005b8451811015614b52576000858281518110614b0f57614b0e61575c565b5b60200260200101519050808311614b3157614b2a8382614b5d565b9250614b3e565b614b3b8184614b5d565b92505b508080614b4a906157ba565b915050614af1565b508091505092915050565b600082600052816020526040600020905092915050565b6040518060a0016040528060008152602001606081526020016060815260200160608152602001600081525090565b5080546000825590600052602060002090810190614bc19190614c4a565b50565b828054614bd09061572a565b90600052602060002090601f016020900481019282614bf25760008555614c39565b82601f10614c0b57805160ff1916838001178555614c39565b82800160010185558215614c39579182015b82811115614c38578251825591602001919060010190614c1d565b5b509050614c469190614c4a565b5090565b5b80821115614c63576000816000905550600101614c4b565b5090565b600081519050919050565b600082825260208201905092915050565b6000819050602082019050919050565b6000819050919050565b614ca681614c93565b82525050565b600081519050919050565b600082825260208201905092915050565b60005b83811015614ce6578082015181840152602081019050614ccb565b83811115614cf5576000848401525b50505050565b6000601f19601f8301169050919050565b6000614d1782614cac565b614d218185614cb7565b9350614d31818560208601614cc8565b614d3a81614cfb565b840191505092915050565b600060a083016000830151614d5d6000860182614c9d565b5060208301518482036020860152614d758282614d0c565b91505060408301518482036040860152614d8f8282614d0c565b91505060608301518482036060860152614da98282614d0c565b9150506080830151614dbe6080860182614c9d565b508091505092915050565b6000614dd58383614d45565b905092915050565b6000602082019050919050565b6000614df582614c67565b614dff8185614c72565b935083602082028501614e1185614c83565b8060005b85811015614e4d5784840389528151614e2e8582614dc9565b9450614e3983614ddd565b925060208a01995050600181019050614e15565b50829750879550505050505092915050565b60006020820190508181036000830152614e798184614dea565b905092915050565b600082825260208201905092915050565b6000614e9d82614cac565b614ea78185614e81565b9350614eb7818560208601614cc8565b614ec081614cfb565b840191505092915050565b60006020820190508181036000830152614ee58184614e92565b905092915050565b614ef681614c93565b82525050565b6000602082019050614f116000830184614eed565b92915050565b6000604051905090565b600080fd5b600080fd5b614f3481614c93565b8114614f3f57600080fd5b50565b600081359050614f5181614f2b565b92915050565b600060208284031215614f6d57614f6c614f21565b5b6000614f7b84828501614f42565b91505092915050565b600060a082019050614f996000830188614eed565b8181036020830152614fab8187614e92565b90508181036040830152614fbf8186614e92565b90508181036060830152614fd38185614e92565b9050614fe26080830184614eed565b9695505050505050565b600073ffffffffffffffffffffffffffffffffffffffff82169050919050565b600061501782614fec565b9050919050565b6150278161500c565b811461503257600080fd5b50565b6000813590506150448161501e565b92915050565b6000602082840312156150605761505f614f21565b5b600061506e84828501615035565b91505092915050565b60008115159050919050565b61508c81615077565b82525050565b60006020820190506150a76000830184615083565b92915050565b6150b68161500c565b82525050565b60006020820190506150d160008301846150ad565b92915050565b600081519050919050565b600082825260208201905092915050565b6000819050602082019050919050565b600061510f8383614c9d565b60208301905092915050565b6000602082019050919050565b6000615133826150d7565b61513d81856150e2565b9350615148836150f3565b8060005b838110156151795781516151608882615103565b975061516b8361511b565b92505060018101905061514c565b5085935050505092915050565b600060408201905061519b6000830185614eed565b81810360208301526151ad8184615128565b90509392505050565b600080fd5b600080fd5b7f4e487b7100000000000000000000000000000000000000000000000000000000600052604160045260246000fd5b6151f882614cfb565b810181811067ffffffffffffffff82111715615217576152166151c0565b5b80604052505050565b600061522a614f17565b905061523682826151ef565b919050565b600067ffffffffffffffff821115615256576152556151c0565b5b61525f82614cfb565b9050602081019050919050565b82818337600083830152505050565b600061528e6152898461523b565b615220565b9050828152602081018484840111156152aa576152a96151bb565b5b6152b584828561526c565b509392505050565b600082601f8301126152d2576152d16151b6565b5b81356152e284826020860161527b565b91505092915050565b60008060006060848603121561530457615303614f21565b5b600084013567ffffffffffffffff81111561532257615321614f26565b5b61532e868287016152bd565b935050602084013567ffffffffffffffff81111561534f5761534e614f26565b5b61535b868287016152bd565b925050604084013567ffffffffffffffff81111561537c5761537b614f26565b5b615388868287016152bd565b9150509250925092565b600067ffffffffffffffff8211156153ad576153ac6151c0565b5b602082029050602081019050919050565b600080fd5b6000819050919050565b6153d6816153c3565b81146153e157600080fd5b50565b6000813590506153f3816153cd565b92915050565b600061540c61540784615392565b615220565b9050808382526020820190506020840283018581111561542f5761542e6153be565b5b835b81811015615458578061544488826153e4565b845260208401935050602081019050615431565b5050509392505050565b600082601f830112615477576154766151b6565b5b81356154878482602086016153f9565b91505092915050565b600080604083850312156154a7576154a6614f21565b5b600083013567ffffffffffffffff8111156154c5576154c4614f26565b5b6154d185828601615462565b92505060206154e2858286016153e4565b9150509250929050565b600067ffffffffffffffff821115615507576155066151c0565b5b602082029050602081019050919050565b600061552b615526846154ec565b615220565b9050808382526020820190506020840283018581111561554e5761554d6153be565b5b835b8181101561559557803567ffffffffffffffff811115615573576155726151b6565b5b80860161558089826152bd565b85526020850194505050602081019050615550565b5050509392505050565b600082601f8301126155b4576155b36151b6565b5b81356155c4848260208601615518565b91505092915050565b6000602082840312156155e3576155e2614f21565b5b600082013567ffffffffffffffff81111561560157615600614f26565b5b61560d8482850161559f565b91505092915050565b61561f816153c3565b82525050565b600060208201905061563a6000830184615616565b92915050565b600080fd5b60008083601f84011261565b5761565a6151b6565b5b8235905067ffffffffffffffff81111561567857615677615640565b5b602083019150836020820283011115615694576156936153be565b5b9250929050565b6000806000604084860312156156b4576156b3614f21565b5b60006156c286828701614f42565b935050602084013567ffffffffffffffff8111156156e3576156e2614f26565b5b6156ef86828701615645565b92509250509250925092565b7f4e487b7100000000000000000000000000000000000000000000000000000000600052602260045260246000fd5b6000600282049050600182168061574257607f821691505b60208210811415615756576157556156fb565b5b50919050565b7f4e487b7100000000000000000000000000000000000000000000000000000000600052603260045260246000fd5b7f4e487b7100000000000000000000000000000000000000000000000000000000600052601160045260246000fd5b60006157c582614c93565b91507fffffffffffffffffffffffffffffffffffffffffffffffffffffffffffffffff8214156157f8576157f761578b565b5b600182019050919050565b7f5061757361626c653a2070617573656400000000000000000000000000000000600082015250565b6000615839601083614e81565b915061584482615803565b602082019050919050565b600060208201905081810360008301526158688161582c565b9050919050565b7f6f6e6c792074656163686572732f63686169726d616e2063616e2063616c6c2060008201527f746869732066756e6374696f6e00000000000000000000000000000000000000602082015250565b60006158cb602d83614e81565b91506158d68261586f565b604082019050919050565b600060208201905081810360008301526158fa816158be565b9050919050565b7f6f6e6c792063686169726d616e2063616e2063616c6c20746869732066756e6360008201527f74696f6e00000000000000000000000000000000000000000000000000000000602082015250565b600061595d602483614e81565b915061596882615901565b604082019050919050565b6000602082019050818103600083015261598c81615950565b9050919050565b600081549050919050565b60008190508160005260206000209050919050565b60008160001c9050919050565b6000819050919050565b60006159dd6159d8836159b3565b6159c0565b9050919050565b60006159f082546159ca565b9050919050565b6000600182019050919050565b6000615a0f82615993565b615a1981856150e2565b9350615a248361599e565b8060005b83811015615a5c57615a39826159e4565b615a438882615103565b9750615a4e836159f7565b925050600181019050615a28565b5085935050505092915050565b60006040820190508181036000830152615a838185615a04565b9050615a926020830184614eed565b9392505050565b7f54686520526573756c7473206d757374206265206d616465207075626c696300600082015250565b6000615acf601f83614e81565b9150615ada82615a99565b602082019050919050565b60006020820190508181036000830152615afe81615ac2565b9050919050565b7f536f7272792c2074686520456c656374696f6e20686173206e6f7420656e646560008201527f6400000000000000000000000000000000000000000000000000000000000000602082015250565b6000615b61602183614e81565b9150615b6c82615b05565b604082019050919050565b60006020820190508181036000830152615b9081615b54565b9050919050565b7f6f6e6c792074656163686572732f63686169726d616e2063616e206d616b652060008201527f726573756c7473207075626c6963000000000000000000000000000000000000602082015250565b6000615bf3602e83614e81565b9150615bfe82615b97565b604082019050919050565b60006020820190508181036000830152615c2281615be6565b9050919050565b7f456c656374696f6e206973204f6e676f696e6700000000000000000000000000600082015250565b6000615c5f601383614e81565b9150615c6a82615c29565b602082019050919050565b60006020820190508181036000830152615c8e81615c52565b9050919050565b6000604082019050615caa6000830185614eed565b8181036020830152615cbc8184614e92565b90509392505050565b7f61746c65617374206f6e6520706572736f6e2073686f756c6420636f6e74657360008201527f7400000000000000000000000000000000000000000000000000000000000000602082015250565b6000615d21602183614e81565b9150615d2c82615cc5565b604082019050919050565b60006020820190508181036000830152615d5081615d14565b9050919050565b7f536f7272792c2074686520456c656374696f6e2068617320656e646564210000600082015250565b6000615d8d601e83614e81565b9150615d9882615d57565b602082019050919050565b60006020820190508181036000830152615dbc81615d80565b9050919050565b7f506c6561736520636865636b206261636b2c2074686520656c656374696f6e2060008201527f686173206e6f7420737461727465642100000000000000000000000000000000602082015250565b6000615e1f603083614e81565b9150615e2a82615dc3565b604082019050919050565b60006020820190508181036000830152615e4e81615e12565b9050919050565b60008160601b9050919050565b6000615e6d82615e55565b9050919050565b6000615e7f82615e62565b9050919050565b615e97615e928261500c565b615e74565b82525050565b6000615ea98284615e86565b60148201915081905092915050565b7f736f7272792c206f6e6c79207374616b65686f6c646572732061726520656c6960008201527f6769626c6520746f20766f746500000000000000000000000000000000000000602082015250565b6000615f14602d83614e81565b9150615f1f82615eb8565b604082019050919050565b60006020820190508181036000830152615f4381615f07565b9050919050565b7f5061757361626c653a206e6f7420706175736564000000000000000000000000600082015250565b6000615f80601483614e81565b9150615f8b82615f4a565b602082019050919050565b60006020820190508181036000830152615faf81615f73565b9050919050565b7f496e76616c69642063616e64696461746520746f20566f746521000000000000600082015250565b6000615fec601a83614e81565b9150615ff782615fb6565b602082019050919050565b6000602082019050818103600083015261601b81615fdf565b9050919050565b7f566f7465722068617320616c726561647920566f746564210000000000000000600082015250565b6000616058601883614e81565b915061606382616022565b602082019050919050565b600060208201905081810360008301526160878161604b565b9050919050565b60006040820190506160a36000830185614eed565b6160b06020830184614eed565b939250505056fea2646970667358221220a67b3e6e595ffcd6012366bb0bb125f81e3adbffdd0723d6e72af9b482e2dd9864736f6c634300080a0033",
  "linkReferences": {},
  "deployedLinkReferences": {}
}