{
  "_format": "hh-sol-artifact-1",
  "contractName": "ZuriElection",
  "sourceName": "contracts/ZuriElection.sol",
  "abi": [
    {
      "inputs": [],
      "stateMutability": "nonpayable",
      "type": "constructor"
    },
    {
      "inputs": [],
      "name": "ElectionHasEnded",
      "type": "error"
    },
    {
      "inputs": [],
      "name": "ElectionNotStarted",
      "type": "error"
    },
    {
      "anonymous": false,
      "inputs": [
        {
          "indexed": false,
          "internalType": "uint256",
          "name": "_candidateId",
          "type": "uint256"
        },
        {
          "indexed": false,
          "internalType": "string",
          "name": "_candidateName",
          "type": "string"
        }
      ],
      "name": "CandidateCreated",
      "type": "event"
    },
    {
      "anonymous": false,
      "inputs": [
        {
          "indexed": false,
          "internalType": "uint256[]",
          "name": "_winnerIds",
          "type": "uint256[]"
        },
        {
          "indexed": false,
          "internalType": "uint256",
          "name": "_winnerVoteCount",
          "type": "uint256"
        }
      ],
      "name": "ElectionEnded",
      "type": "event"
    },
    {
      "anonymous": false,
      "inputs": [
        {
          "indexed": false,
          "internalType": "address",
          "name": "account",
          "type": "address"
        }
      ],
      "name": "Paused",
      "type": "event"
    },
    {
      "anonymous": false,
      "inputs": [
        {
          "indexed": false,
          "internalType": "address",
          "name": "account",
          "type": "address"
        }
      ],
      "name": "Unpaused",
      "type": "event"
    },
    {
      "anonymous": false,
      "inputs": [
        {
          "indexed": false,
          "internalType": "uint256",
          "name": "_candidateId",
          "type": "uint256"
        },
        {
          "indexed": false,
          "internalType": "uint256",
          "name": "_candidateVoteCount",
          "type": "uint256"
        }
      ],
      "name": "VoteForCandidate",
      "type": "event"
    },
    {
      "inputs": [],
      "name": "Active",
      "outputs": [
        {
          "internalType": "bool",
          "name": "",
          "type": "bool"
        }
      ],
      "stateMutability": "view",
      "type": "function"
    },
    {
      "inputs": [],
      "name": "Ended",
      "outputs": [
        {
          "internalType": "bool",
          "name": "",
          "type": "bool"
        }
      ],
      "stateMutability": "view",
      "type": "function"
    },
    {
      "inputs": [
        {
          "internalType": "address",
          "name": "_newTeachers",
          "type": "address"
        }
      ],
      "name": "addTeacher",
      "outputs": [],
      "stateMutability": "nonpayable",
      "type": "function"
    },
    {
      "inputs": [
        {
          "internalType": "uint256",
          "name": "",
          "type": "uint256"
        }
      ],
      "name": "candidates",
      "outputs": [
        {
          "internalType": "uint256",
          "name": "id",
          "type": "uint256"
        },
        {
          "internalType": "string",
          "name": "name",
          "type": "string"
        },
        {
          "internalType": "uint256",
          "name": "voteCount",
          "type": "uint256"
        }
      ],
      "stateMutability": "view",
      "type": "function"
    },
    {
      "inputs": [],
      "name": "candidatesCount",
      "outputs": [
        {
          "internalType": "uint256",
          "name": "",
          "type": "uint256"
        }
      ],
      "stateMutability": "view",
      "type": "function"
    },
    {
      "inputs": [],
      "name": "chairman",
      "outputs": [
        {
          "internalType": "address",
          "name": "",
          "type": "address"
        }
      ],
      "stateMutability": "view",
      "type": "function"
    },
    {
      "inputs": [],
      "name": "description",
      "outputs": [
        {
          "internalType": "string",
          "name": "",
          "type": "string"
        }
      ],
      "stateMutability": "view",
      "type": "function"
    },
    {
      "inputs": [],
      "name": "endElection",
      "outputs": [],
      "stateMutability": "nonpayable",
      "type": "function"
    },
    {
      "inputs": [
        {
          "internalType": "bytes32[]",
          "name": "proof",
          "type": "bytes32[]"
        },
        {
          "internalType": "bytes32",
          "name": "leaf",
          "type": "bytes32"
        }
      ],
      "name": "isValid",
      "outputs": [
        {
          "internalType": "bool",
          "name": "",
          "type": "bool"
        }
      ],
      "stateMutability": "view",
      "type": "function"
    },
    {
      "inputs": [],
      "name": "name",
      "outputs": [
        {
          "internalType": "string",
          "name": "",
          "type": "string"
        }
      ],
      "stateMutability": "view",
      "type": "function"
    },
    {
      "inputs": [],
      "name": "paused",
      "outputs": [
        {
          "internalType": "bool",
          "name": "",
          "type": "bool"
        }
      ],
      "stateMutability": "view",
      "type": "function"
    },
    {
      "inputs": [
        {
          "internalType": "address",
          "name": "_teacher",
          "type": "address"
        }
      ],
      "name": "removeTeacher",
      "outputs": [],
      "stateMutability": "nonpayable",
      "type": "function"
    },
    {
      "inputs": [],
      "name": "root",
      "outputs": [
        {
          "internalType": "bytes32",
          "name": "",
          "type": "bytes32"
        }
      ],
      "stateMutability": "view",
      "type": "function"
    },
    {
      "inputs": [],
      "name": "startElection",
      "outputs": [],
      "stateMutability": "nonpayable",
      "type": "function"
    },
    {
      "inputs": [
        {
          "internalType": "address",
          "name": "",
          "type": "address"
        }
      ],
      "name": "teachers",
      "outputs": [
        {
          "internalType": "bool",
          "name": "",
          "type": "bool"
        }
      ],
      "stateMutability": "view",
      "type": "function"
    },
    {
      "inputs": [
        {
          "internalType": "uint256",
          "name": "_candidateId",
          "type": "uint256"
        },
        {
          "internalType": "bytes32[]",
          "name": "hexProof",
          "type": "bytes32[]"
        }
      ],
      "name": "vote",
      "outputs": [],
      "stateMutability": "nonpayable",
      "type": "function"
    },
    {
      "inputs": [
        {
          "internalType": "address",
          "name": "",
          "type": "address"
        }
      ],
      "name": "voted",
      "outputs": [
        {
          "internalType": "bool",
          "name": "",
          "type": "bool"
        }
      ],
      "stateMutability": "view",
      "type": "function"
    },
    {
      "inputs": [
        {
          "internalType": "uint256",
          "name": "",
          "type": "uint256"
        }
      ],
      "name": "winnerIds",
      "outputs": [
        {
          "internalType": "uint256",
          "name": "",
          "type": "uint256"
        }
      ],
      "stateMutability": "view",
      "type": "function"
    },
    {
      "inputs": [],
      "name": "winnerVoteCount",
      "outputs": [
        {
          "internalType": "uint256",
          "name": "",
          "type": "uint256"
        }
      ],
      "stateMutability": "view",
      "type": "function"
    }
  ],
  "bytecode": "0x60806040527f4c29915a50ec868ab99f5844b969c0ad438aec20e61efe2541dbcaf674cc635660001b60035560006004556000600a60006101000a81548160ff0219169083151502179055506000600a60016101000a81548160ff02191690831515021790555034801561007257600080fd5b5060008060006101000a81548160ff02191690831515021790555033600060016101000a81548173ffffffffffffffffffffffffffffffffffffffff021916908373ffffffffffffffffffffffffffffffffffffffff160217905550611a99806100dd6000396000f3fe608060405234801561001057600080fd5b50600436106101215760003560e01c80635c975abb116100ad578063b8a20ed011610071578063b8a20ed0146102d6578063c9b0a2a714610306578063ebf0c71714610324578063f0a47f7814610342578063fd27419b1461037257610121565b80635c975abb1461024257806362d73eb8146102605780637284e4161461026a57806387f7b97514610288578063aec2ccae146102a657610121565b80633bc6e309116100f45780633bc6e309146101b2578063403d1312146101ce578063477383f3146101fe57806352ff68461461021c57806359f784681461023857610121565b806306fdde03146101265780632d35a8a2146101445780632f22850d146101625780633477ee2e14610180575b600080fd5b61012e61038e565b60405161013b9190610fcc565b60405180910390f35b61014c61041c565b6040516101599190611007565b60405180910390f35b61016a610422565b6040516101779190611007565b60405180910390f35b61019a60048036038101906101959190611062565b610428565b6040516101a99392919061108f565b60405180910390f35b6101cc60048036038101906101c7919061112b565b6104da565b005b6101e860048036038101906101e39190611062565b6105c9565b6040516101f59190611007565b60405180910390f35b6102066105ed565b6040516102139190611173565b60405180910390f35b6102366004803603810190610231919061112b565b610600565b005b6102406106ef565b005b61024a6107e2565b6040516102579190611173565b60405180910390f35b6102686107f8565b005b6102726108a5565b60405161027f9190610fcc565b60405180910390f35b610290610933565b60405161029d919061119d565b60405180910390f35b6102c060048036038101906102bb919061112b565b610959565b6040516102cd9190611173565b60405180910390f35b6102f060048036038101906102eb9190611336565b610979565b6040516102fd9190611173565b60405180910390f35b61030e610990565b60405161031b9190611173565b60405180910390f35b61032c6109a3565b60405161033991906113a1565b60405180910390f35b61035c6004803603810190610357919061112b565b6109a9565b6040516103699190611173565b60405180910390f35b61038c60048036038101906103879190611417565b6109c9565b005b6001805461039b906114a6565b80601f01602080910402602001604051908101604052809291908181526020018280546103c7906114a6565b80156104145780601f106103e957610100808354040283529160200191610414565b820191906000526020600020905b8154815290600101906020018083116103f757829003601f168201915b505050505081565b60045481565b60095481565b6007602052806000526040600020600091509050806000015490806001018054610451906114a6565b80601f016020809104026020016040519081016040528092919081815260200182805461047d906114a6565b80156104ca5780601f1061049f576101008083540402835291602001916104ca565b820191906000526020600020905b8154815290600101906020018083116104ad57829003601f168201915b5050505050908060020154905083565b336000600560008373ffffffffffffffffffffffffffffffffffffffff1673ffffffffffffffffffffffffffffffffffffffff16815260200190815260200160002060009054906101000a900460ff1690508061056c576040517f08c379a000000000000000000000000000000000000000000000000000000000815260040161056390611524565b60405180910390fd5b6001600560008573ffffffffffffffffffffffffffffffffffffffff1673ffffffffffffffffffffffffffffffffffffffff16815260200190815260200160002060006101000a81548160ff021916908315150217905550505050565b600881815481106105d957600080fd5b906000526020600020016000915090505481565b600a60019054906101000a900460ff1681565b336000600560008373ffffffffffffffffffffffffffffffffffffffff1673ffffffffffffffffffffffffffffffffffffffff16815260200190815260200160002060009054906101000a900460ff16905080610692576040517f08c379a000000000000000000000000000000000000000000000000000000000815260040161068990611524565b60405180910390fd5b6000600560008573ffffffffffffffffffffffffffffffffffffffff1673ffffffffffffffffffffffffffffffffffffffff16815260200190815260200160002060006101000a81548160ff021916908315150217905550505050565b600060019054906101000a900473ffffffffffffffffffffffffffffffffffffffff1673ffffffffffffffffffffffffffffffffffffffff163373ffffffffffffffffffffffffffffffffffffffff161461077f576040517f08c379a0000000000000000000000000000000000000000000000000000000008152600401610776906115b6565b60405180910390fd5b6001600a60016101000a81548160ff0219169083151502179055506107a2610b27565b50507f38d8ebbbb4803f034f19b4cf2f19bfb84cc5dea177696c1f80a19357d5602e0460086009546040516107d89291906116e4565b60405180910390a1565b60008060009054906101000a900460ff16905090565b600060019054906101000a900473ffffffffffffffffffffffffffffffffffffffff1673ffffffffffffffffffffffffffffffffffffffff163373ffffffffffffffffffffffffffffffffffffffff1614610888576040517f08c379a000000000000000000000000000000000000000000000000000000000815260040161087f906115b6565b60405180910390fd5b6001600a60006101000a81548160ff021916908315150217905550565b600280546108b2906114a6565b80601f01602080910402602001604051908101604052809291908181526020018280546108de906114a6565b801561092b5780601f106109005761010080835404028352916020019161092b565b820191906000526020600020905b81548152906001019060200180831161090e57829003601f168201915b505050505081565b600060019054906101000a900473ffffffffffffffffffffffffffffffffffffffff1681565b60066020528060005260406000206000915054906101000a900460ff1681565b60006109888360035484610c9b565b905092915050565b600a60009054906101000a900460ff1681565b60035481565b60056020528060005260406000206000915054906101000a900460ff1681565b600a60019054906101000a900460ff1615610a19576040517f08c379a0000000000000000000000000000000000000000000000000000000008152600401610a1090611760565b60405180910390fd5b600a60009054906101000a900460ff16610a68576040517f08c379a0000000000000000000000000000000000000000000000000000000008152600401610a5f906117cc565b60405180910390fd5b610ad9828280806020026020016040519081016040528093929190818152602001838360200280828437600081840152601f19601f8201169050808301925050505050505033604051602001610abe9190611834565b60405160208183030381529060405280519060200120610979565b610b18576040517f08c379a0000000000000000000000000000000000000000000000000000000008152600401610b0f9061189b565b60405180910390fd5b610b228333610cb2565b505050565b6000606060005b600454811015610c3b5760095460076000838152602001908152602001600020600201541115610bc757600760008281526020019081526020016000206002015460098190555060086000610b839190610ef5565b600860076000838152602001908152602001600020600001549080600181540180825580915050600190039060005260206000200160009091909190915055610c28565b60095460076000838152602001908152602001600020600201541415610c27576008600760008381526020019081526020016000206000015490806001815401808255809150506001900390600052602060002001600090919091909150555b5b8080610c33906118ea565b915050610b2e565b50600954600880805480602002602001604051908101604052809291908181526020018280548015610c8c57602002820191906000526020600020905b815481526020019060010190808311610c78575b50505050509050915091509091565b600082610ca88584610e69565b1490509392505050565b8160045481108015610cc5575060008110155b610d04576040517f08c379a0000000000000000000000000000000000000000000000000000000008152600401610cfb9061197f565b60405180910390fd5b600660008373ffffffffffffffffffffffffffffffffffffffff1673ffffffffffffffffffffffffffffffffffffffff16815260200190815260200160002060009054906101000a900460ff1615610d91576040517f08c379a0000000000000000000000000000000000000000000000000000000008152600401610d88906119eb565b60405180910390fd5b6001600660008473ffffffffffffffffffffffffffffffffffffffff1673ffffffffffffffffffffffffffffffffffffffff16815260200190815260200160002060006101000a81548160ff021916908315150217905550600760008481526020019081526020016000206002016000815480929190610e10906118ea565b91905055507fd3ebd88818d034d26c5d98bcef9c7c45207130238e76e8cf0b3ba00e906851bf836007600086815260200190815260200160002060020154604051610e5c929190611a0b565b60405180910390a1505050565b60008082905060005b8451811015610ed3576000858281518110610e9057610e8f611a34565b5b60200260200101519050808311610eb257610eab8382610ede565b9250610ebf565b610ebc8184610ede565b92505b508080610ecb906118ea565b915050610e72565b508091505092915050565b600082600052816020526040600020905092915050565b5080546000825590600052602060002090810190610f139190610f16565b50565b5b80821115610f2f576000816000905550600101610f17565b5090565b600081519050919050565b600082825260208201905092915050565b60005b83811015610f6d578082015181840152602081019050610f52565b83811115610f7c576000848401525b50505050565b6000601f19601f8301169050919050565b6000610f9e82610f33565b610fa88185610f3e565b9350610fb8818560208601610f4f565b610fc181610f82565b840191505092915050565b60006020820190508181036000830152610fe68184610f93565b905092915050565b6000819050919050565b61100181610fee565b82525050565b600060208201905061101c6000830184610ff8565b92915050565b6000604051905090565b600080fd5b600080fd5b61103f81610fee565b811461104a57600080fd5b50565b60008135905061105c81611036565b92915050565b6000602082840312156110785761107761102c565b5b60006110868482850161104d565b91505092915050565b60006060820190506110a46000830186610ff8565b81810360208301526110b68185610f93565b90506110c56040830184610ff8565b949350505050565b600073ffffffffffffffffffffffffffffffffffffffff82169050919050565b60006110f8826110cd565b9050919050565b611108816110ed565b811461111357600080fd5b50565b600081359050611125816110ff565b92915050565b6000602082840312156111415761114061102c565b5b600061114f84828501611116565b91505092915050565b60008115159050919050565b61116d81611158565b82525050565b60006020820190506111886000830184611164565b92915050565b611197816110ed565b82525050565b60006020820190506111b2600083018461118e565b92915050565b600080fd5b7f4e487b7100000000000000000000000000000000000000000000000000000000600052604160045260246000fd5b6111f582610f82565b810181811067ffffffffffffffff82111715611214576112136111bd565b5b80604052505050565b6000611227611022565b905061123382826111ec565b919050565b600067ffffffffffffffff821115611253576112526111bd565b5b602082029050602081019050919050565b600080fd5b6000819050919050565b61127c81611269565b811461128757600080fd5b50565b60008135905061129981611273565b92915050565b60006112b26112ad84611238565b61121d565b905080838252602082019050602084028301858111156112d5576112d4611264565b5b835b818110156112fe57806112ea888261128a565b8452602084019350506020810190506112d7565b5050509392505050565b600082601f83011261131d5761131c6111b8565b5b813561132d84826020860161129f565b91505092915050565b6000806040838503121561134d5761134c61102c565b5b600083013567ffffffffffffffff81111561136b5761136a611031565b5b61137785828601611308565b92505060206113888582860161128a565b9150509250929050565b61139b81611269565b82525050565b60006020820190506113b66000830184611392565b92915050565b600080fd5b60008083601f8401126113d7576113d66111b8565b5b8235905067ffffffffffffffff8111156113f4576113f36113bc565b5b6020830191508360208202830111156114105761140f611264565b5b9250929050565b6000806000604084860312156114305761142f61102c565b5b600061143e8682870161104d565b935050602084013567ffffffffffffffff81111561145f5761145e611031565b5b61146b868287016113c1565b92509250509250925092565b7f4e487b7100000000000000000000000000000000000000000000000000000000600052602260045260246000fd5b600060028204905060018216806114be57607f821691505b602082108114156114d2576114d1611477565b5b50919050565b7f4f6e6c79204d6f64657261746f72732048617665204163636573732100000000600082015250565b600061150e601c83610f3e565b9150611519826114d8565b602082019050919050565b6000602082019050818103600083015261153d81611501565b9050919050565b7f6f6e6c792063686169726d616e2063616e2063616c6c20746869732066756e6360008201527f74696f6e00000000000000000000000000000000000000000000000000000000602082015250565b60006115a0602483610f3e565b91506115ab82611544565b604082019050919050565b600060208201905081810360008301526115cf81611593565b9050919050565b600081549050919050565b600082825260208201905092915050565b60008190508160005260206000209050919050565b61161081610fee565b82525050565b60006116228383611607565b60208301905092915050565b60008160001c9050919050565b6000819050919050565b60006116586116538361162e565b61163b565b9050919050565b600061166b8254611645565b9050919050565b6000600182019050919050565b600061168a826115d6565b61169481856115e1565b935061169f836115f2565b8060005b838110156116d7576116b48261165f565b6116be8882611616565b97506116c983611672565b9250506001810190506116a3565b5085935050505092915050565b600060408201905081810360008301526116fe818561167f565b905061170d6020830184610ff8565b9392505050565b7f456c656374696f6e2068617320656e6465642100000000000000000000000000600082015250565b600061174a601383610f3e565b915061175582611714565b602082019050919050565b600060208201905081810360008301526117798161173d565b9050919050565b7f456c656374696f6e20686173206e6f7420626567756e21000000000000000000600082015250565b60006117b6601783610f3e565b91506117c182611780565b602082019050919050565b600060208201905081810360008301526117e5816117a9565b9050919050565b60008160601b9050919050565b6000611804826117ec565b9050919050565b6000611816826117f9565b9050919050565b61182e611829826110ed565b61180b565b82525050565b6000611840828461181d565b60148201915081905092915050565b7f4e6f7420612070617274206f6620416c6c6f776c697374000000000000000000600082015250565b6000611885601783610f3e565b91506118908261184f565b602082019050919050565b600060208201905081810360008301526118b481611878565b9050919050565b7f4e487b7100000000000000000000000000000000000000000000000000000000600052601160045260246000fd5b60006118f582610fee565b91507fffffffffffffffffffffffffffffffffffffffffffffffffffffffffffffffff821415611928576119276118bb565b5b600182019050919050565b7f496e76616c69642063616e64696461746520746f20566f746521000000000000600082015250565b6000611969601a83610f3e565b915061197482611933565b602082019050919050565b600060208201905081810360008301526119988161195c565b9050919050565b7f566f7465722068617320616c726561647920566f746564210000000000000000600082015250565b60006119d5601883610f3e565b91506119e08261199f565b602082019050919050565b60006020820190508181036000830152611a04816119c8565b9050919050565b6000604082019050611a206000830185610ff8565b611a2d6020830184610ff8565b9392505050565b7f4e487b7100000000000000000000000000000000000000000000000000000000600052603260045260246000fdfea2646970667358221220b340337bc69a7fde1849a6ca1fc7152e953fc09caf00f406ccbea59b725de7dd64736f6c634300080a0033",
  "linkReferences": {},
  "deployedLinkReferences": {}
}