{
  "_format": "hh-sol-artifact-1",
  "contractName": "ZuriElection",
  "sourceName": "contracts/ZuriElection.sol",
  "abi": [
    {
      "inputs": [],
      "stateMutability": "nonpayable",
      "type": "constructor"
    },
    {
      "inputs": [],
      "name": "ElectionHasEnded",
      "type": "error"
    },
    {
      "inputs": [],
      "name": "ElectionNotStarted",
      "type": "error"
    },
    {
      "anonymous": false,
      "inputs": [
        {
          "indexed": false,
          "internalType": "address",
          "name": "previousAdmin",
          "type": "address"
        },
        {
          "indexed": false,
          "internalType": "address",
          "name": "newAdmin",
          "type": "address"
        }
      ],
      "name": "AdminChanged",
      "type": "event"
    },
    {
      "anonymous": false,
      "inputs": [
        {
          "indexed": true,
          "internalType": "address",
          "name": "beacon",
          "type": "address"
        }
      ],
      "name": "BeaconUpgraded",
      "type": "event"
    },
    {
      "anonymous": false,
      "inputs": [
        {
          "indexed": false,
          "internalType": "uint256",
          "name": "_candidateId",
          "type": "uint256"
        },
        {
          "indexed": false,
          "internalType": "string",
          "name": "_candidateName",
          "type": "string"
        }
      ],
      "name": "CandidateCreated",
      "type": "event"
    },
    {
      "anonymous": false,
      "inputs": [
        {
          "indexed": false,
          "internalType": "uint256[]",
          "name": "_winnerIds",
          "type": "uint256[]"
        },
        {
          "indexed": false,
          "internalType": "uint256",
          "name": "_winnerVoteCount",
          "type": "uint256"
        }
      ],
      "name": "ElectionEnded",
      "type": "event"
    },
    {
      "anonymous": false,
      "inputs": [
        {
          "indexed": false,
          "internalType": "address",
          "name": "account",
          "type": "address"
        }
      ],
      "name": "Paused",
      "type": "event"
    },
    {
      "anonymous": false,
      "inputs": [
        {
          "indexed": false,
          "internalType": "address",
          "name": "account",
          "type": "address"
        }
      ],
      "name": "Unpaused",
      "type": "event"
    },
    {
      "anonymous": false,
      "inputs": [
        {
          "indexed": true,
          "internalType": "address",
          "name": "implementation",
          "type": "address"
        }
      ],
      "name": "Upgraded",
      "type": "event"
    },
    {
      "anonymous": false,
      "inputs": [
        {
          "indexed": false,
          "internalType": "uint256",
          "name": "_candidateId",
          "type": "uint256"
        },
        {
          "indexed": false,
          "internalType": "uint256",
          "name": "_candidateVoteCount",
          "type": "uint256"
        }
      ],
      "name": "VoteForCandidate",
      "type": "event"
    },
    {
      "inputs": [],
      "name": "Active",
      "outputs": [
        {
          "internalType": "bool",
          "name": "",
          "type": "bool"
        }
      ],
      "stateMutability": "view",
      "type": "function"
    },
    {
      "inputs": [],
      "name": "Created",
      "outputs": [
        {
          "internalType": "bool",
          "name": "",
          "type": "bool"
        }
      ],
      "stateMutability": "view",
      "type": "function"
    },
    {
      "inputs": [],
      "name": "Ended",
      "outputs": [
        {
          "internalType": "bool",
          "name": "",
          "type": "bool"
        }
      ],
      "stateMutability": "view",
      "type": "function"
    },
    {
      "inputs": [
        {
          "internalType": "string",
          "name": "_name",
          "type": "string"
        },
        {
          "internalType": "string",
          "name": "_candidateHash",
          "type": "string"
        },
        {
          "internalType": "string",
          "name": "_candidateManifesto",
          "type": "string"
        }
      ],
      "name": "addCandidate",
      "outputs": [],
      "stateMutability": "nonpayable",
      "type": "function"
    },
    {
      "inputs": [
        {
          "internalType": "address",
          "name": "_newTeacher",
          "type": "address"
        }
      ],
      "name": "addTeacher",
      "outputs": [],
      "stateMutability": "nonpayable",
      "type": "function"
    },
    {
      "inputs": [
        {
          "internalType": "uint256",
          "name": "",
          "type": "uint256"
        }
      ],
      "name": "candidates",
      "outputs": [
        {
          "internalType": "uint256",
          "name": "electionId",
          "type": "uint256"
        },
        {
          "internalType": "uint256",
          "name": "id",
          "type": "uint256"
        },
        {
          "internalType": "string",
          "name": "name",
          "type": "string"
        },
        {
          "internalType": "string",
          "name": "candidateHash",
          "type": "string"
        },
        {
          "internalType": "string",
          "name": "candidateManifesto",
          "type": "string"
        },
        {
          "internalType": "uint256",
          "name": "voteCount",
          "type": "uint256"
        }
      ],
      "stateMutability": "view",
      "type": "function"
    },
    {
      "inputs": [],
      "name": "candidatesCount",
      "outputs": [
        {
          "internalType": "uint256",
          "name": "",
          "type": "uint256"
        }
      ],
      "stateMutability": "view",
      "type": "function"
    },
    {
      "inputs": [],
      "name": "chairman",
      "outputs": [
        {
          "internalType": "address",
          "name": "",
          "type": "address"
        }
      ],
      "stateMutability": "view",
      "type": "function"
    },
    {
      "inputs": [
        {
          "internalType": "address",
          "name": "_newChairman",
          "type": "address"
        }
      ],
      "name": "changeChairman",
      "outputs": [],
      "stateMutability": "nonpayable",
      "type": "function"
    },
    {
      "inputs": [],
      "name": "description",
      "outputs": [
        {
          "internalType": "string",
          "name": "",
          "type": "string"
        }
      ],
      "stateMutability": "view",
      "type": "function"
    },
    {
      "inputs": [],
      "name": "electionCount",
      "outputs": [
        {
          "internalType": "uint256",
          "name": "",
          "type": "uint256"
        }
      ],
      "stateMutability": "view",
      "type": "function"
    },
    {
      "inputs": [],
      "name": "endElection",
      "outputs": [],
      "stateMutability": "nonpayable",
      "type": "function"
    },
    {
      "inputs": [
        {
          "internalType": "uint256",
          "name": "_electionId",
          "type": "uint256"
        }
      ],
      "name": "getCandidates",
      "outputs": [
        {
          "components": [
            {
              "internalType": "uint256",
              "name": "electionId",
              "type": "uint256"
            },
            {
              "internalType": "uint256",
              "name": "id",
              "type": "uint256"
            },
            {
              "internalType": "string",
              "name": "name",
              "type": "string"
            },
            {
              "internalType": "string",
              "name": "candidateHash",
              "type": "string"
            },
            {
              "internalType": "string",
              "name": "candidateManifesto",
              "type": "string"
            },
            {
              "internalType": "uint256",
              "name": "voteCount",
              "type": "uint256"
            }
          ],
          "internalType": "struct ZuriElection.Candidate[]",
          "name": "",
          "type": "tuple[]"
        }
      ],
      "stateMutability": "view",
      "type": "function"
    },
    {
      "inputs": [],
      "name": "getWinner",
      "outputs": [
        {
          "internalType": "uint256",
          "name": "",
          "type": "uint256"
        },
        {
          "internalType": "uint256[]",
          "name": "",
          "type": "uint256[]"
        }
      ],
      "stateMutability": "view",
      "type": "function"
    },
    {
      "inputs": [
        {
          "internalType": "bytes32",
          "name": "merkleRoot",
          "type": "bytes32"
        }
      ],
      "name": "initialize",
      "outputs": [],
      "stateMutability": "nonpayable",
      "type": "function"
    },
    {
      "inputs": [
        {
          "internalType": "bytes32[]",
          "name": "proof",
          "type": "bytes32[]"
        },
        {
          "internalType": "bytes32",
          "name": "leaf",
          "type": "bytes32"
        }
      ],
      "name": "isValid",
      "outputs": [
        {
          "internalType": "bool",
          "name": "",
          "type": "bool"
        }
      ],
      "stateMutability": "view",
      "type": "function"
    },
    {
      "inputs": [],
      "name": "makeResultPublic",
      "outputs": [],
      "stateMutability": "nonpayable",
      "type": "function"
    },
    {
      "inputs": [],
      "name": "pause",
      "outputs": [],
      "stateMutability": "nonpayable",
      "type": "function"
    },
    {
      "inputs": [],
      "name": "paused",
      "outputs": [
        {
          "internalType": "bool",
          "name": "",
          "type": "bool"
        }
      ],
      "stateMutability": "view",
      "type": "function"
    },
    {
      "inputs": [],
      "name": "position",
      "outputs": [
        {
          "internalType": "string",
          "name": "",
          "type": "string"
        }
      ],
      "stateMutability": "view",
      "type": "function"
    },
    {
      "inputs": [],
      "name": "proxiableUUID",
      "outputs": [
        {
          "internalType": "bytes32",
          "name": "",
          "type": "bytes32"
        }
      ],
      "stateMutability": "view",
      "type": "function"
    },
    {
      "inputs": [
        {
          "internalType": "address",
          "name": "_teacher",
          "type": "address"
        }
      ],
      "name": "removeTeacher",
      "outputs": [],
      "stateMutability": "nonpayable",
      "type": "function"
    },
    {
      "inputs": [],
      "name": "root",
      "outputs": [
        {
          "internalType": "bytes32",
          "name": "",
          "type": "bytes32"
        }
      ],
      "stateMutability": "view",
      "type": "function"
    },
    {
      "inputs": [
        {
          "internalType": "string[]",
          "name": "_prop",
          "type": "string[]"
        }
      ],
      "name": "setUpElection",
      "outputs": [],
      "stateMutability": "nonpayable",
      "type": "function"
    },
    {
      "inputs": [],
      "name": "startElection",
      "outputs": [],
      "stateMutability": "nonpayable",
      "type": "function"
    },
    {
      "inputs": [],
      "name": "startTimer",
      "outputs": [
        {
          "internalType": "uint256",
          "name": "",
          "type": "uint256"
        }
      ],
      "stateMutability": "view",
      "type": "function"
    },
    {
      "inputs": [
        {
          "internalType": "address",
          "name": "",
          "type": "address"
        }
      ],
      "name": "teachers",
      "outputs": [
        {
          "internalType": "bool",
          "name": "",
          "type": "bool"
        }
      ],
      "stateMutability": "view",
      "type": "function"
    },
    {
      "inputs": [],
      "name": "unpause",
      "outputs": [],
      "stateMutability": "nonpayable",
      "type": "function"
    },
    {
      "inputs": [
        {
          "internalType": "address",
          "name": "newImplementation",
          "type": "address"
        }
      ],
      "name": "upgradeTo",
      "outputs": [],
      "stateMutability": "nonpayable",
      "type": "function"
    },
    {
      "inputs": [
        {
          "internalType": "address",
          "name": "newImplementation",
          "type": "address"
        },
        {
          "internalType": "bytes",
          "name": "data",
          "type": "bytes"
        }
      ],
      "name": "upgradeToAndCall",
      "outputs": [],
      "stateMutability": "payable",
      "type": "function"
    },
    {
      "inputs": [
        {
          "internalType": "uint256",
          "name": "_candidateId",
          "type": "uint256"
        },
        {
          "internalType": "bytes32[]",
          "name": "hexProof",
          "type": "bytes32[]"
        }
      ],
      "name": "vote",
      "outputs": [],
      "stateMutability": "nonpayable",
      "type": "function"
    },
    {
      "inputs": [
        {
          "internalType": "address",
          "name": "",
          "type": "address"
        }
      ],
      "name": "voted",
      "outputs": [
        {
          "internalType": "bool",
          "name": "",
          "type": "bool"
        }
      ],
      "stateMutability": "view",
      "type": "function"
    },
    {
      "inputs": [
        {
          "internalType": "uint256",
          "name": "",
          "type": "uint256"
        }
      ],
      "name": "winnerIds",
      "outputs": [
        {
          "internalType": "uint256",
          "name": "",
          "type": "uint256"
        }
      ],
      "stateMutability": "view",
      "type": "function"
    },
    {
      "inputs": [],
      "name": "winnerVoteCount",
      "outputs": [
        {
          "internalType": "uint256",
          "name": "",
          "type": "uint256"
        }
      ],
      "stateMutability": "view",
      "type": "function"
    }
  ],
  "bytecode": "0x60a06040523073ffffffffffffffffffffffffffffffffffffffff1660809073ffffffffffffffffffffffffffffffffffffffff1660601b8152503480156200004757600080fd5b50600060019054906101000a900460ff16620000725760008054906101000a900460ff161562000083565b620000826200013f60201b60201c565b5b620000c5576040517f08c379a0000000000000000000000000000000000000000000000000000000008152600401620000bc90620001a7565b60405180910390fd5b60008060019054906101000a900460ff16159050801562000116576001600060016101000a81548160ff02191690831515021790555060016000806101000a81548160ff0219169083151502179055505b8015620001385760008060016101000a81548160ff0219169083151502179055505b5062000229565b600062000157306200015d60201b620024d81760201c565b15905090565b6000808273ffffffffffffffffffffffffffffffffffffffff163b119050919050565b60006200018f602e83620001c9565b91506200019c82620001da565b604082019050919050565b60006020820190508181036000830152620001c28162000180565b9050919050565b600082825260208201905092915050565b7f496e697469616c697a61626c653a20636f6e747261637420697320616c72656160008201527f647920696e697469616c697a6564000000000000000000000000000000000000602082015250565b60805160601c614d786200026460003960008181610a1301528181610aa2015281816111720152818161120101526112b10152614d786000f3fe6080604052600436106101f95760003560e01c80638456cb591161010d578063ad71f8dc116100a0578063d1e53b8a1161006f578063d1e53b8a146106c0578063e8101869146106e9578063ebf0c71714610712578063f0a47f781461073d578063fd27419b1461077a576101f9565b8063ad71f8dc146105f2578063aec2ccae1461061b578063b8a20ed014610658578063c9b0a2a714610695576101f9565b806395adfc5e116100dc57806395adfc5e1461055a578063997d2830146105715780639adeddf81461059c578063a39f7449146105c7576101f9565b80638456cb59146104c357806387f7b975146104da5780638e7ea5b2146105055780639498bd7114610531576101f9565b8063403d13121161019057806352ff68461161015f57806352ff68461461041657806359f784681461043f5780635c975abb1461045657806362d73eb8146104815780637284e41614610498576101f9565b8063403d131214610367578063477383f3146103a45780634f1ef286146103cf57806352d1902d146103eb576101f9565b80633659cfe6116101cc5780633659cfe6146102c15780633bc6e309146102ea5780633e39a7a5146103135780633f4ba83a14610350576101f9565b806309218e91146101fe5780632d35a8a2146102295780632f22850d146102545780633477ee2e1461027f575b600080fd5b34801561020a57600080fd5b506102136107a3565b6040516102209190613e41565b60405180910390f35b34801561023557600080fd5b5061023e610831565b60405161024b9190614143565b60405180910390f35b34801561026057600080fd5b50610269610837565b6040516102769190614143565b60405180910390f35b34801561028b57600080fd5b506102a660048036038101906102a191906136c6565b61083d565b6040516102b8969594939291906141e7565b60405180910390f35b3480156102cd57600080fd5b506102e860048036038101906102e391906134cb565b610a11565b005b3480156102f657600080fd5b50610311600480360381019061030c91906134cb565b610bc0565b005b34801561031f57600080fd5b5061033a600480360381019061033591906136c6565b610d4e565b6040516103479190613db9565b60405180910390f35b34801561035c57600080fd5b50610365611061565b005b34801561037357600080fd5b5061038e600480360381019061038991906136c6565b611139565b60405161039b9190614143565b60405180910390f35b3480156103b057600080fd5b506103b961115d565b6040516103c69190613e0b565b60405180910390f35b6103e960048036038101906103e491906134f4565b611170565b005b3480156103f757600080fd5b506104006112ad565b60405161040d9190613e26565b60405180910390f35b34801561042257600080fd5b5061043d600480360381019061043891906134cb565b611366565b005b34801561044b57600080fd5b506104546114f4565b005b34801561046257600080fd5b5061046b61162f565b6040516104789190613e0b565b60405180910390f35b34801561048d57600080fd5b50610496611646565b005b3480156104a457600080fd5b506104ad611742565b6040516104ba9190613e41565b60405180910390f35b3480156104cf57600080fd5b506104d86117d0565b005b3480156104e657600080fd5b506104ef6118a8565b6040516104fc9190613d9e565b60405180910390f35b34801561051157600080fd5b5061051a6118ce565b60405161052892919061415e565b60405180910390f35b34801561053d57600080fd5b50610558600480360381019061055391906135dd565b611980565b005b34801561056657600080fd5b5061056f611b31565b005b34801561057d57600080fd5b50610586611c88565b6040516105939190614143565b60405180910390f35b3480156105a857600080fd5b506105b1611c8e565b6040516105be9190613e0b565b60405180910390f35b3480156105d357600080fd5b506105dc611ca1565b6040516105e99190614143565b60405180910390f35b3480156105fe57600080fd5b506106196004803603810190610614919061362f565b611ca7565b005b34801561062757600080fd5b50610642600480360381019061063d91906134cb565b611f41565b60405161064f9190613e0b565b60405180910390f35b34801561066457600080fd5b5061067f600480360381019061067a9190613548565b611f61565b60405161068c9190613e0b565b60405180910390f35b3480156106a157600080fd5b506106aa611f78565b6040516106b79190613e0b565b60405180910390f35b3480156106cc57600080fd5b506106e760048036038101906106e2919061359c565b611f8b565b005b3480156106f557600080fd5b50610710600480360381019061070b91906134cb565b612238565b005b34801561071e57600080fd5b50610727612354565b6040516107349190613e26565b60405180910390f35b34801561074957600080fd5b50610764600480360381019061075f91906134cb565b61235a565b6040516107719190613e0b565b60405180910390f35b34801561078657600080fd5b506107a1600480360381019061079c91906136ef565b61237a565b005b60ca80546107b090614512565b80601f01602080910402602001604051908101604052809291908181526020018280546107dc90614512565b80156108295780601f106107fe57610100808354040283529160200191610829565b820191906000526020600020905b81548152906001019060200180831161080c57829003601f168201915b505050505081565b60cd5481565b60d55481565b60d360205280600052604060002060009150905080600001549080600101549080600201805461086c90614512565b80601f016020809104026020016040519081016040528092919081815260200182805461089890614512565b80156108e55780601f106108ba576101008083540402835291602001916108e5565b820191906000526020600020905b8154815290600101906020018083116108c857829003601f168201915b5050505050908060030180546108fa90614512565b80601f016020809104026020016040519081016040528092919081815260200182805461092690614512565b80156109735780601f1061094857610100808354040283529160200191610973565b820191906000526020600020905b81548152906001019060200180831161095657829003601f168201915b50505050509080600401805461098890614512565b80601f01602080910402602001604051908101604052809291908181526020018280546109b490614512565b8015610a015780601f106109d657610100808354040283529160200191610a01565b820191906000526020600020905b8154815290600101906020018083116109e457829003601f168201915b5050505050908060050154905086565b7f000000000000000000000000000000000000000000000000000000000000000073ffffffffffffffffffffffffffffffffffffffff163073ffffffffffffffffffffffffffffffffffffffff161415610aa0576040517f08c379a0000000000000000000000000000000000000000000000000000000008152600401610a9790613ea3565b60405180910390fd5b7f000000000000000000000000000000000000000000000000000000000000000073ffffffffffffffffffffffffffffffffffffffff16610adf6124fb565b73ffffffffffffffffffffffffffffffffffffffff1614610b35576040517f08c379a0000000000000000000000000000000000000000000000000000000008152600401610b2c90613f03565b60405180910390fd5b610b3e81612552565b610bbd81600067ffffffffffffffff811115610b83577f4e487b7100000000000000000000000000000000000000000000000000000000600052604160045260246000fd5b6040519080825280601f01601f191660200182016040528015610bb55781602001600182028036833780820191505090505b5060006125e5565b50565b610bc861162f565b15610c08576040517f08c379a0000000000000000000000000000000000000000000000000000000008152600401610bff90613f63565b60405180910390fd5b3373ffffffffffffffffffffffffffffffffffffffff1660c960009054906101000a900473ffffffffffffffffffffffffffffffffffffffff1673ffffffffffffffffffffffffffffffffffffffff161480610cb457506001151560d060003373ffffffffffffffffffffffffffffffffffffffff1673ffffffffffffffffffffffffffffffffffffffff16815260200190815260200160002060009054906101000a900460ff161515145b610cf3576040517f08c379a0000000000000000000000000000000000000000000000000000000008152600401610cea90613f23565b60405180910390fd5b600160d060008373ffffffffffffffffffffffffffffffffffffffff1673ffffffffffffffffffffffffffffffffffffffff16815260200190815260200160002060006101000a81548160ff02191690831515021790555050565b6060600060cd5467ffffffffffffffff811115610d94577f4e487b7100000000000000000000000000000000000000000000000000000000600052604160045260246000fd5b604051908082528060200260200182016040528015610dcd57816020015b610dba61311d565b815260200190600190039081610db25790505b50905060005b60cd54811015611057578360d36000600184610def919061441e565b815260200190815260200160002060000154141561104457600060d360008381526020019081526020016000209050806040518060c00160405290816000820154815260200160018201548152602001600282018054610e4e90614512565b80601f0160208091040260200160405190810160405280929190818152602001828054610e7a90614512565b8015610ec75780601f10610e9c57610100808354040283529160200191610ec7565b820191906000526020600020905b815481529060010190602001808311610eaa57829003601f168201915b50505050508152602001600382018054610ee090614512565b80601f0160208091040260200160405190810160405280929190818152602001828054610f0c90614512565b8015610f595780601f10610f2e57610100808354040283529160200191610f59565b820191906000526020600020905b815481529060010190602001808311610f3c57829003601f168201915b50505050508152602001600482018054610f7290614512565b80601f0160208091040260200160405190810160405280929190818152602001828054610f9e90614512565b8015610feb5780601f10610fc057610100808354040283529160200191610feb565b820191906000526020600020905b815481529060010190602001808311610fce57829003601f168201915b50505050508152602001600582015481525050838381518110611037577f4e487b7100000000000000000000000000000000000000000000000000000000600052603260045260246000fd5b6020026020010181905250505b808061104f9061458f565b915050610dd3565b5080915050919050565b60c960009054906101000a900473ffffffffffffffffffffffffffffffffffffffff1673ffffffffffffffffffffffffffffffffffffffff163373ffffffffffffffffffffffffffffffffffffffff16146110f1576040517f08c379a00000000000000000000000000000000000000000000000000000000081526004016110e890614083565b60405180910390fd5b6110f9612762565b7f5db9ee0a495bf2e6ff9c91a7834c1ba4fdd244a5e8aa4e537bd38aeae4b073aa611122612804565b60405161112f9190613d9e565b60405180910390a1565b60d4818154811061114957600080fd5b906000526020600020016000915090505481565b60d660019054906101000a900460ff1681565b7f000000000000000000000000000000000000000000000000000000000000000073ffffffffffffffffffffffffffffffffffffffff163073ffffffffffffffffffffffffffffffffffffffff1614156111ff576040517f08c379a00000000000000000000000000000000000000000000000000000000081526004016111f690613ea3565b60405180910390fd5b7f000000000000000000000000000000000000000000000000000000000000000073ffffffffffffffffffffffffffffffffffffffff1661123e6124fb565b73ffffffffffffffffffffffffffffffffffffffff1614611294576040517f08c379a000000000000000000000000000000000000000000000000000000000815260040161128b90613f03565b60405180910390fd5b61129d82612552565b6112a9828260016125e5565b5050565b60007f000000000000000000000000000000000000000000000000000000000000000073ffffffffffffffffffffffffffffffffffffffff163073ffffffffffffffffffffffffffffffffffffffff161461133d576040517f08c379a000000000000000000000000000000000000000000000000000000000815260040161133490613f43565b60405180910390fd5b7f360894a13ba1a3210667c828492db98dca3e2076cc3735a920a3ca505d382bbc60001b905090565b61136e61162f565b156113ae576040517f08c379a00000000000000000000000000000000000000000000000000000000081526004016113a590613f63565b60405180910390fd5b3373ffffffffffffffffffffffffffffffffffffffff1660c960009054906101000a900473ffffffffffffffffffffffffffffffffffffffff1673ffffffffffffffffffffffffffffffffffffffff16148061145a57506001151560d060003373ffffffffffffffffffffffffffffffffffffffff1673ffffffffffffffffffffffffffffffffffffffff16815260200190815260200160002060009054906101000a900460ff161515145b611499576040517f08c379a000000000000000000000000000000000000000000000000000000000815260040161149090613f23565b60405180910390fd5b600060d060008373ffffffffffffffffffffffffffffffffffffffff1673ffffffffffffffffffffffffffffffffffffffff16815260200190815260200160002060006101000a81548160ff02191690831515021790555050565b6114fc61162f565b1561153c576040517f08c379a000000000000000000000000000000000000000000000000000000000815260040161153390613f63565b60405180910390fd5b60c960009054906101000a900473ffffffffffffffffffffffffffffffffffffffff1673ffffffffffffffffffffffffffffffffffffffff163373ffffffffffffffffffffffffffffffffffffffff16146115cc576040517f08c379a00000000000000000000000000000000000000000000000000000000081526004016115c390614083565b60405180910390fd5b600160d660016101000a81548160ff0219169083151502179055506115ef61280c565b50507f38d8ebbbb4803f034f19b4cf2f19bfb84cc5dea177696c1f80a19357d5602e0460d460d554604051611625929190613ddb565b60405180910390a1565b6000603360009054906101000a900460ff16905090565b61164e61162f565b1561168e576040517f08c379a000000000000000000000000000000000000000000000000000000000815260040161168590613f63565b60405180910390fd5b60c960009054906101000a900473ffffffffffffffffffffffffffffffffffffffff1673ffffffffffffffffffffffffffffffffffffffff163373ffffffffffffffffffffffffffffffffffffffff161461171e576040517f08c379a000000000000000000000000000000000000000000000000000000000815260040161171590614083565b60405180910390fd5b600160d660006101000a81548160ff0219169083151502179055504260cf81905550565b60cb805461174f90614512565b80601f016020809104026020016040519081016040528092919081815260200182805461177b90614512565b80156117c85780601f1061179d576101008083540402835291602001916117c8565b820191906000526020600020905b8154815290600101906020018083116117ab57829003601f168201915b505050505081565b60c960009054906101000a900473ffffffffffffffffffffffffffffffffffffffff1673ffffffffffffffffffffffffffffffffffffffff163373ffffffffffffffffffffffffffffffffffffffff1614611860576040517f08c379a000000000000000000000000000000000000000000000000000000000815260040161185790614083565b60405180910390fd5b6118686129f8565b7f62e78cea01bee320cd4e420270b5ea74000d11b0c9f74754ebdbfc544b05a258611891612804565b60405161189e9190613d9e565b60405180910390a1565b60c960009054906101000a900473ffffffffffffffffffffffffffffffffffffffff1681565b6000606060d660039054906101000a900460ff16611921576040517f08c379a000000000000000000000000000000000000000000000000000000000815260040161191890614103565b60405180910390fd5b60d55460d48080548060200260200160405190810160405280929190818152602001828054801561197157602002820191906000526020600020905b81548152602001906001019080831161195d575b50505050509050915091509091565b600060019054906101000a900460ff166119a85760008054906101000a900460ff16156119b1565b6119b0612a9b565b5b6119f0576040517f08c379a00000000000000000000000000000000000000000000000000000000081526004016119e790613fc3565b60405180910390fd5b60008060019054906101000a900460ff161590508015611a40576001600060016101000a81548160ff02191690831515021790555060016000806101000a81548160ff0219169083151502179055505b3360c960006101000a81548173ffffffffffffffffffffffffffffffffffffffff021916908373ffffffffffffffffffffffffffffffffffffffff160217905550600060d660006101000a81548160ff021916908315150217905550600060d660016101000a81548160ff021916908315150217905550600060d660026101000a81548160ff021916908315150217905550600060cd819055508160cc81905550600060d660036101000a81548160ff021916908315150217905550611b04612aac565b611b0c612afd565b8015611b2d5760008060016101000a81548160ff0219169083151502179055505b5050565b60d660019054906101000a900460ff16611b80576040517f08c379a0000000000000000000000000000000000000000000000000000000008152600401611b7790613e83565b60405180910390fd5b3373ffffffffffffffffffffffffffffffffffffffff1660c960009054906101000a900473ffffffffffffffffffffffffffffffffffffffff1673ffffffffffffffffffffffffffffffffffffffff161480611c2c57506001151560d060003373ffffffffffffffffffffffffffffffffffffffff1673ffffffffffffffffffffffffffffffffffffffff16815260200190815260200160002060009054906101000a900460ff161515145b611c6b576040517f08c379a0000000000000000000000000000000000000000000000000000000008152600401611c6290613ee3565b60405180910390fd5b600160d660036101000a81548160ff021916908315150217905550565b60ce5481565b60d660029054906101000a900460ff1681565b60cf5481565b611caf61162f565b15611cef576040517f08c379a0000000000000000000000000000000000000000000000000000000008152600401611ce690613f63565b60405180910390fd5b60d660009054906101000a900460ff1615611d3f576040517f08c379a0000000000000000000000000000000000000000000000000000000008152600401611d3690613ec3565b60405180910390fd5b3373ffffffffffffffffffffffffffffffffffffffff1660c960009054906101000a900473ffffffffffffffffffffffffffffffffffffffff1673ffffffffffffffffffffffffffffffffffffffff161480611deb57506001151560d060003373ffffffffffffffffffffffffffffffffffffffff1673ffffffffffffffffffffffffffffffffffffffff16815260200190815260200160002060009054906101000a900460ff161515145b611e2a576040517f08c379a0000000000000000000000000000000000000000000000000000000008152600401611e2190613f23565b60405180910390fd5b6040518060c0016040528060ce54815260200160cd548152602001848152602001838152602001828152602001600081525060d3600060cd54815260200190815260200160002060008201518160000155602082015181600101556040820151816002019080519060200190611ea1929190613153565b506060820151816003019080519060200190611ebe929190613153565b506080820151816004019080519060200190611edb929190613153565b5060a082015181600501559050507f78d27a3c512303f604b46bc28acc0ca45abe6420172a017c5a6dc585821eb63960cd5484604051611f1c92919061418e565b60405180910390a160cd6000815480929190611f379061458f565b9190505550505050565b60d16020528060005260406000206000915054906101000a900460ff1681565b6000611f708360cc5484612b56565b905092915050565b60d660009054906101000a900460ff1681565b611f9361162f565b15611fd3576040517f08c379a0000000000000000000000000000000000000000000000000000000008152600401611fca90613f63565b60405180910390fd5b60d660009054906101000a900460ff1615612023576040517f08c379a000000000000000000000000000000000000000000000000000000000815260040161201a90613ec3565b60405180910390fd5b6000815111612067576040517f08c379a000000000000000000000000000000000000000000000000000000000815260040161205e90613fe3565b60405180910390fd5b3373ffffffffffffffffffffffffffffffffffffffff1660c960009054906101000a900473ffffffffffffffffffffffffffffffffffffffff1673ffffffffffffffffffffffffffffffffffffffff16148061211357506001151560d060003373ffffffffffffffffffffffffffffffffffffffff1673ffffffffffffffffffffffffffffffffffffffff16815260200190815260200160002060009054906101000a900460ff161515145b612152576040517f08c379a000000000000000000000000000000000000000000000000000000000815260040161214990613f23565b60405180910390fd5b8060008151811061218c577f4e487b7100000000000000000000000000000000000000000000000000000000600052603260045260246000fd5b602002602001015160ca90805190602001906121a9929190613153565b50806001815181106121e4577f4e487b7100000000000000000000000000000000000000000000000000000000600052603260045260246000fd5b602002602001015160cb9080519060200190612201929190613153565b50600160d660026101000a81548160ff02191690831515021790555060ce60008154809291906122309061458f565b919050555050565b61224061162f565b15612280576040517f08c379a000000000000000000000000000000000000000000000000000000000815260040161227790613f63565b60405180910390fd5b60c960009054906101000a900473ffffffffffffffffffffffffffffffffffffffff1673ffffffffffffffffffffffffffffffffffffffff163373ffffffffffffffffffffffffffffffffffffffff1614612310576040517f08c379a000000000000000000000000000000000000000000000000000000000815260040161230790614083565b60405180910390fd5b8060c960006101000a81548173ffffffffffffffffffffffffffffffffffffffff021916908373ffffffffffffffffffffffffffffffffffffffff16021790555050565b60cc5481565b60d06020528060005260406000206000915054906101000a900460ff1681565b60d660019054906101000a900460ff16156123ca576040517f08c379a00000000000000000000000000000000000000000000000000000000081526004016123c190614043565b60405180910390fd5b60d660009054906101000a900460ff16612419576040517f08c379a000000000000000000000000000000000000000000000000000000000815260040161241090613fa3565b60405180910390fd5b61248a828280806020026020016040519081016040528093929190818152602001838360200280828437600081840152601f19601f820116905080830192505050505050503360405160200161246f9190613d6c565b60405160208183030381529060405280519060200120611f61565b6124c9576040517f08c379a00000000000000000000000000000000000000000000000000000000081526004016124c090614123565b60405180910390fd5b6124d38333612b6d565b505050565b6000808273ffffffffffffffffffffffffffffffffffffffff163b119050919050565b60006125297f360894a13ba1a3210667c828492db98dca3e2076cc3735a920a3ca505d382bbc60001b612d6c565b60000160009054906101000a900473ffffffffffffffffffffffffffffffffffffffff16905090565b60c960009054906101000a900473ffffffffffffffffffffffffffffffffffffffff1673ffffffffffffffffffffffffffffffffffffffff163373ffffffffffffffffffffffffffffffffffffffff16146125e2576040517f08c379a00000000000000000000000000000000000000000000000000000000081526004016125d990614083565b60405180910390fd5b50565b6126117f4910fdfa16fed3260ed0e7147f7cc6da11a60208b5b9406d12a635614ffd914360001b612d76565b60000160009054906101000a900460ff16156126355761263083612d80565b61275d565b8273ffffffffffffffffffffffffffffffffffffffff166352d1902d6040518163ffffffff1660e01b815260040160206040518083038186803b15801561267b57600080fd5b505afa9250505080156126ac57506040513d601f19601f820116820180604052508101906126a99190613606565b60015b6126eb576040517f08c379a00000000000000000000000000000000000000000000000000000000081526004016126e290614003565b60405180910390fd5b7f360894a13ba1a3210667c828492db98dca3e2076cc3735a920a3ca505d382bbc60001b8114612750576040517f08c379a000000000000000000000000000000000000000000000000000000000815260040161274790613f83565b60405180910390fd5b5061275c838383612e39565b5b505050565b61276a61162f565b6127a9576040517f08c379a00000000000000000000000000000000000000000000000000000000081526004016127a090613e63565b60405180910390fd5b6000603360006101000a81548160ff0219169083151502179055507f5db9ee0a495bf2e6ff9c91a7834c1ba4fdd244a5e8aa4e537bd38aeae4b073aa6127ed612804565b6040516127fa9190613d9e565b60405180910390a1565b600033905090565b6000606061281861162f565b15612858576040517f08c379a000000000000000000000000000000000000000000000000000000000815260040161284f90613f63565b60405180910390fd5b60005b60cd548110156129985760d55460d360008381526020019081526020016000206005015411156129245760d360008281526020019081526020016000206005015460d58190555060d460006128b091906131d9565b60d460d3600083815260200190815260200160002060010154908060018154018082558091505060019003906000526020600020016000909190919091505560d360008281526020019081526020016000206001015460d2600060ce54815260200190815260200160002081905550612985565b60d55460d360008381526020019081526020016000206005015414156129845760d460d360008381526020019081526020016000206001015490806001815401808255809150506001900390600052602060002001600090919091909150555b5b80806129909061458f565b91505061285b565b5060d55460d4808054806020026020016040519081016040528092919081815260200182805480156129e957602002820191906000526020600020905b8154815260200190600101908083116129d5575b50505050509050915091509091565b612a0061162f565b15612a40576040517f08c379a0000000000000000000000000000000000000000000000000000000008152600401612a3790613f63565b60405180910390fd5b6001603360006101000a81548160ff0219169083151502179055507f62e78cea01bee320cd4e420270b5ea74000d11b0c9f74754ebdbfc544b05a258612a84612804565b604051612a919190613d9e565b60405180910390a1565b6000612aa6306124d8565b15905090565b600060019054906101000a900460ff16612afb576040517f08c379a0000000000000000000000000000000000000000000000000000000008152600401612af2906140e3565b60405180910390fd5b565b600060019054906101000a900460ff16612b4c576040517f08c379a0000000000000000000000000000000000000000000000000000000008152600401612b43906140e3565b60405180910390fd5b612b54612e65565b565b600082612b638584612ed1565b1490509392505050565b612b7561162f565b15612bb5576040517f08c379a0000000000000000000000000000000000000000000000000000000008152600401612bac90613f63565b60405180910390fd5b8160cd5481108015612bc8575060008110155b612c07576040517f08c379a0000000000000000000000000000000000000000000000000000000008152600401612bfe90614063565b60405180910390fd5b60d160008373ffffffffffffffffffffffffffffffffffffffff1673ffffffffffffffffffffffffffffffffffffffff16815260200190815260200160002060009054906101000a900460ff1615612c94576040517f08c379a0000000000000000000000000000000000000000000000000000000008152600401612c8b906140c3565b60405180910390fd5b600160d160008473ffffffffffffffffffffffffffffffffffffffff1673ffffffffffffffffffffffffffffffffffffffff16815260200190815260200160002060006101000a81548160ff02191690831515021790555060d360008481526020019081526020016000206005016000815480929190612d139061458f565b91905055507fd3ebd88818d034d26c5d98bcef9c7c45207130238e76e8cf0b3ba00e906851bf8360d3600086815260200190815260200160002060050154604051612d5f9291906141be565b60405180910390a1505050565b6000819050919050565b6000819050919050565b612d89816124d8565b612dc8576040517f08c379a0000000000000000000000000000000000000000000000000000000008152600401612dbf90614023565b60405180910390fd5b80612df57f360894a13ba1a3210667c828492db98dca3e2076cc3735a920a3ca505d382bbc60001b612d6c565b60000160006101000a81548173ffffffffffffffffffffffffffffffffffffffff021916908373ffffffffffffffffffffffffffffffffffffffff16021790555050565b612e4283612f6c565b600082511180612e4f5750805b15612e6057612e5e8383612fbb565b505b505050565b600060019054906101000a900460ff16612eb4576040517f08c379a0000000000000000000000000000000000000000000000000000000008152600401612eab906140e3565b60405180910390fd5b6000603360006101000a81548160ff021916908315150217905550565b60008082905060005b8451811015612f61576000858281518110612f1e577f4e487b7100000000000000000000000000000000000000000000000000000000600052603260045260246000fd5b60200260200101519050808311612f4057612f39838261309f565b9250612f4d565b612f4a818461309f565b92505b508080612f599061458f565b915050612eda565b508091505092915050565b612f7581612d80565b8073ffffffffffffffffffffffffffffffffffffffff167fbc7cd75a20ee27fd9adebab32041f755214dbc6bffa90cc0225b39da2e5c2d3b60405160405180910390a250565b6060612fc6836124d8565b613005576040517f08c379a0000000000000000000000000000000000000000000000000000000008152600401612ffc906140a3565b60405180910390fd5b6000808473ffffffffffffffffffffffffffffffffffffffff168460405161302d9190613d87565b600060405180830381855af49150503d8060008114613068576040519150601f19603f3d011682016040523d82523d6000602084013e61306d565b606091505b50915091506130958282604051806060016040528060278152602001614d1c602791396130b6565b9250505092915050565b600082600052816020526040600020905092915050565b606083156130c657829050613116565b6000835111156130d95782518084602001fd5b816040517f08c379a000000000000000000000000000000000000000000000000000000000815260040161310d9190613e41565b60405180910390fd5b9392505050565b6040518060c001604052806000815260200160008152602001606081526020016060815260200160608152602001600081525090565b82805461315f90614512565b90600052602060002090601f01602090048101928261318157600085556131c8565b82601f1061319a57805160ff19168380011785556131c8565b828001600101855582156131c8579182015b828111156131c75782518255916020019190600101906131ac565b5b5090506131d591906131fa565b5090565b50805460008255906000526020600020908101906131f791906131fa565b50565b5b808211156132135760008160009055506001016131fb565b5090565b600061322a61322584614282565b61425d565b9050808382526020820190508285602086028201111561324957600080fd5b60005b85811015613279578161325f8882613438565b84526020840193506020830192505060018101905061324c565b5050509392505050565b6000613296613291846142ae565b61425d565b905080838252602082019050828560208602820111156132b557600080fd5b60005b858110156132ff57813567ffffffffffffffff8111156132d757600080fd5b8086016132e4898261348c565b855260208501945060208401935050506001810190506132b8565b5050509392505050565b600061331c613317846142da565b61425d565b90508281526020810184848401111561333457600080fd5b61333f8482856144d0565b509392505050565b600061335a6133558461430b565b61425d565b90508281526020810184848401111561337257600080fd5b61337d8482856144d0565b509392505050565b60008135905061339481614cd6565b92915050565b60008083601f8401126133ac57600080fd5b8235905067ffffffffffffffff8111156133c557600080fd5b6020830191508360208202830111156133dd57600080fd5b9250929050565b600082601f8301126133f557600080fd5b8135613405848260208601613217565b91505092915050565b600082601f83011261341f57600080fd5b813561342f848260208601613283565b91505092915050565b60008135905061344781614ced565b92915050565b60008151905061345c81614ced565b92915050565b600082601f83011261347357600080fd5b8135613483848260208601613309565b91505092915050565b600082601f83011261349d57600080fd5b81356134ad848260208601613347565b91505092915050565b6000813590506134c581614d04565b92915050565b6000602082840312156134dd57600080fd5b60006134eb84828501613385565b91505092915050565b6000806040838503121561350757600080fd5b600061351585828601613385565b925050602083013567ffffffffffffffff81111561353257600080fd5b61353e85828601613462565b9150509250929050565b6000806040838503121561355b57600080fd5b600083013567ffffffffffffffff81111561357557600080fd5b613581858286016133e4565b925050602061359285828601613438565b9150509250929050565b6000602082840312156135ae57600080fd5b600082013567ffffffffffffffff8111156135c857600080fd5b6135d48482850161340e565b91505092915050565b6000602082840312156135ef57600080fd5b60006135fd84828501613438565b91505092915050565b60006020828403121561361857600080fd5b60006136268482850161344d565b91505092915050565b60008060006060848603121561364457600080fd5b600084013567ffffffffffffffff81111561365e57600080fd5b61366a8682870161348c565b935050602084013567ffffffffffffffff81111561368757600080fd5b6136938682870161348c565b925050604084013567ffffffffffffffff8111156136b057600080fd5b6136bc8682870161348c565b9150509250925092565b6000602082840312156136d857600080fd5b60006136e6848285016134b6565b91505092915050565b60008060006040848603121561370457600080fd5b6000613712868287016134b6565b935050602084013567ffffffffffffffff81111561372f57600080fd5b61373b8682870161339a565b92509250509250925092565b60006137538383613cb7565b905092915050565b60006137678383613d4e565b60208301905092915050565b61377c8161447e565b82525050565b61379361378e8261447e565b6145d8565b82525050565b60006137a482614371565b6137ae81856143cf565b9350836020820285016137c08561433c565b8060005b858110156137fc57848403895281516137dd8582613747565b94506137e8836143a8565b925060208a019950506001810190506137c4565b50829750879550505050505092915050565b60006138198261437c565b61382381856143e0565b935061382e8361434c565b8060005b8381101561385f578151613846888261375b565b9750613851836143b5565b925050600181019050613832565b5085935050505092915050565b600061387782614387565b61388181856143e0565b935061388c8361435c565b8060005b838110156138c4576138a182614689565b6138ab888261375b565b97506138b6836143c2565b925050600181019050613890565b5085935050505092915050565b6138da81614490565b82525050565b6138e98161449c565b82525050565b60006138fa82614392565b61390481856143f1565b93506139148185602086016144df565b80840191505092915050565b600061392b8261439d565b61393581856143fc565b93506139458185602086016144df565b61394e8161469c565b840191505092915050565b60006139648261439d565b61396e818561440d565b935061397e8185602086016144df565b6139878161469c565b840191505092915050565b600061399f60148361440d565b91506139aa826146c7565b602082019050919050565b60006139c260218361440d565b91506139cd826146f0565b604082019050919050565b60006139e5602c8361440d565b91506139f08261473f565b604082019050919050565b6000613a0860138361440d565b9150613a138261478e565b602082019050919050565b6000613a2b602e8361440d565b9150613a36826147b7565b604082019050919050565b6000613a4e602c8361440d565b9150613a5982614806565b604082019050919050565b6000613a71602d8361440d565b9150613a7c82614855565b604082019050919050565b6000613a9460388361440d565b9150613a9f826148a4565b604082019050919050565b6000613ab760108361440d565b9150613ac2826148f3565b602082019050919050565b6000613ada60298361440d565b9150613ae58261491c565b604082019050919050565b6000613afd60308361440d565b9150613b088261496b565b604082019050919050565b6000613b20602e8361440d565b9150613b2b826149ba565b604082019050919050565b6000613b4360218361440d565b9150613b4e82614a09565b604082019050919050565b6000613b66602e8361440d565b9150613b7182614a58565b604082019050919050565b6000613b89602d8361440d565b9150613b9482614aa7565b604082019050919050565b6000613bac601e8361440d565b9150613bb782614af6565b602082019050919050565b6000613bcf601a8361440d565b9150613bda82614b1f565b602082019050919050565b6000613bf260248361440d565b9150613bfd82614b48565b604082019050919050565b6000613c1560268361440d565b9150613c2082614b97565b604082019050919050565b6000613c3860188361440d565b9150613c4382614be6565b602082019050919050565b6000613c5b602b8361440d565b9150613c6682614c0f565b604082019050919050565b6000613c7e601f8361440d565b9150613c8982614c5e565b602082019050919050565b6000613ca1602d8361440d565b9150613cac82614c87565b604082019050919050565b600060c083016000830151613ccf6000860182613d4e565b506020830151613ce26020860182613d4e565b5060408301518482036040860152613cfa8282613920565b91505060608301518482036060860152613d148282613920565b91505060808301518482036080860152613d2e8282613920565b91505060a0830151613d4360a0860182613d4e565b508091505092915050565b613d57816144c6565b82525050565b613d66816144c6565b82525050565b6000613d788284613782565b60148201915081905092915050565b6000613d9382846138ef565b915081905092915050565b6000602082019050613db36000830184613773565b92915050565b60006020820190508181036000830152613dd38184613799565b905092915050565b60006040820190508181036000830152613df5818561386c565b9050613e046020830184613d5d565b9392505050565b6000602082019050613e2060008301846138d1565b92915050565b6000602082019050613e3b60008301846138e0565b92915050565b60006020820190508181036000830152613e5b8184613959565b905092915050565b60006020820190508181036000830152613e7c81613992565b9050919050565b60006020820190508181036000830152613e9c816139b5565b9050919050565b60006020820190508181036000830152613ebc816139d8565b9050919050565b60006020820190508181036000830152613edc816139fb565b9050919050565b60006020820190508181036000830152613efc81613a1e565b9050919050565b60006020820190508181036000830152613f1c81613a41565b9050919050565b60006020820190508181036000830152613f3c81613a64565b9050919050565b60006020820190508181036000830152613f5c81613a87565b9050919050565b60006020820190508181036000830152613f7c81613aaa565b9050919050565b60006020820190508181036000830152613f9c81613acd565b9050919050565b60006020820190508181036000830152613fbc81613af0565b9050919050565b60006020820190508181036000830152613fdc81613b13565b9050919050565b60006020820190508181036000830152613ffc81613b36565b9050919050565b6000602082019050818103600083015261401c81613b59565b9050919050565b6000602082019050818103600083015261403c81613b7c565b9050919050565b6000602082019050818103600083015261405c81613b9f565b9050919050565b6000602082019050818103600083015261407c81613bc2565b9050919050565b6000602082019050818103600083015261409c81613be5565b9050919050565b600060208201905081810360008301526140bc81613c08565b9050919050565b600060208201905081810360008301526140dc81613c2b565b9050919050565b600060208201905081810360008301526140fc81613c4e565b9050919050565b6000602082019050818103600083015261411c81613c71565b9050919050565b6000602082019050818103600083015261413c81613c94565b9050919050565b60006020820190506141586000830184613d5d565b92915050565b60006040820190506141736000830185613d5d565b8181036020830152614185818461380e565b90509392505050565b60006040820190506141a36000830185613d5d565b81810360208301526141b58184613959565b90509392505050565b60006040820190506141d36000830185613d5d565b6141e06020830184613d5d565b9392505050565b600060c0820190506141fc6000830189613d5d565b6142096020830188613d5d565b818103604083015261421b8187613959565b9050818103606083015261422f8186613959565b905081810360808301526142438185613959565b905061425260a0830184613d5d565b979650505050505050565b6000614267614278565b9050614273828261455e565b919050565b6000604051905090565b600067ffffffffffffffff82111561429d5761429c61465a565b5b602082029050602081019050919050565b600067ffffffffffffffff8211156142c9576142c861465a565b5b602082029050602081019050919050565b600067ffffffffffffffff8211156142f5576142f461465a565b5b6142fe8261469c565b9050602081019050919050565b600067ffffffffffffffff8211156143265761432561465a565b5b61432f8261469c565b9050602081019050919050565b6000819050602082019050919050565b6000819050602082019050919050565b60008190508160005260206000209050919050565b600081519050919050565b600081519050919050565b600081549050919050565b600081519050919050565b600081519050919050565b6000602082019050919050565b6000602082019050919050565b6000600182019050919050565b600082825260208201905092915050565b600082825260208201905092915050565b600081905092915050565b600082825260208201905092915050565b600082825260208201905092915050565b6000614429826144c6565b9150614434836144c6565b9250827fffffffffffffffffffffffffffffffffffffffffffffffffffffffffffffffff03821115614469576144686145fc565b5b828201905092915050565b6000819050919050565b6000614489826144a6565b9050919050565b60008115159050919050565b6000819050919050565b600073ffffffffffffffffffffffffffffffffffffffff82169050919050565b6000819050919050565b82818337600083830152505050565b60005b838110156144fd5780820151818401526020810190506144e2565b8381111561450c576000848401525b50505050565b6000600282049050600182168061452a57607f821691505b6020821081141561453e5761453d61462b565b5b50919050565b6000614557614552836146ba565b614474565b9050919050565b6145678261469c565b810181811067ffffffffffffffff821117156145865761458561465a565b5b80604052505050565b600061459a826144c6565b91507fffffffffffffffffffffffffffffffffffffffffffffffffffffffffffffffff8214156145cd576145cc6145fc565b5b600182019050919050565b60006145e3826145ea565b9050919050565b60006145f5826146ad565b9050919050565b7f4e487b7100000000000000000000000000000000000000000000000000000000600052601160045260246000fd5b7f4e487b7100000000000000000000000000000000000000000000000000000000600052602260045260246000fd5b7f4e487b7100000000000000000000000000000000000000000000000000000000600052604160045260246000fd5b60006146958254614544565b9050919050565b6000601f19601f8301169050919050565b60008160601b9050919050565b60008160001c9050919050565b7f5061757361626c653a206e6f7420706175736564000000000000000000000000600082015250565b7f536f7272792c2074686520456c656374696f6e20686173206e6f7420656e646560008201527f6400000000000000000000000000000000000000000000000000000000000000602082015250565b7f46756e6374696f6e206d7573742062652063616c6c6564207468726f7567682060008201527f64656c656761746563616c6c0000000000000000000000000000000000000000602082015250565b7f456c656374696f6e206973204f6e676f696e6700000000000000000000000000600082015250565b7f6f6e6c792074656163686572732f63686169726d616e2063616e206d616b652060008201527f726573756c7473207075626c6963000000000000000000000000000000000000602082015250565b7f46756e6374696f6e206d7573742062652063616c6c6564207468726f7567682060008201527f6163746976652070726f78790000000000000000000000000000000000000000602082015250565b7f6f6e6c792074656163686572732f63686169726d616e2063616e2063616c6c2060008201527f746869732066756e6374696f6e00000000000000000000000000000000000000602082015250565b7f555550535570677261646561626c653a206d757374206e6f742062652063616c60008201527f6c6564207468726f7567682064656c656761746563616c6c0000000000000000602082015250565b7f5061757361626c653a2070617573656400000000000000000000000000000000600082015250565b7f45524331393637557067726164653a20756e737570706f727465642070726f7860008201527f6961626c65555549440000000000000000000000000000000000000000000000602082015250565b7f506c6561736520636865636b206261636b2c2074686520656c656374696f6e2060008201527f686173206e6f7420737461727465642100000000000000000000000000000000602082015250565b7f496e697469616c697a61626c653a20636f6e747261637420697320616c72656160008201527f647920696e697469616c697a6564000000000000000000000000000000000000602082015250565b7f61746c65617374206f6e6520706572736f6e2073686f756c6420636f6e74657360008201527f7400000000000000000000000000000000000000000000000000000000000000602082015250565b7f45524331393637557067726164653a206e657720696d706c656d656e7461746960008201527f6f6e206973206e6f742055555053000000000000000000000000000000000000602082015250565b7f455243313936373a206e657720696d706c656d656e746174696f6e206973206e60008201527f6f74206120636f6e747261637400000000000000000000000000000000000000602082015250565b7f536f7272792c2074686520456c656374696f6e2068617320656e646564210000600082015250565b7f496e76616c69642063616e64696461746520746f20566f746521000000000000600082015250565b7f6f6e6c792063686169726d616e2063616e2063616c6c20746869732066756e6360008201527f74696f6e00000000000000000000000000000000000000000000000000000000602082015250565b7f416464726573733a2064656c65676174652063616c6c20746f206e6f6e2d636f60008201527f6e74726163740000000000000000000000000000000000000000000000000000602082015250565b7f566f7465722068617320616c726561647920566f746564210000000000000000600082015250565b7f496e697469616c697a61626c653a20636f6e7472616374206973206e6f74206960008201527f6e697469616c697a696e67000000000000000000000000000000000000000000602082015250565b7f54686520526573756c7473206d757374206265206d616465207075626c696300600082015250565b7f736f7272792c206f6e6c79207374616b65686f6c646572732061726520656c6960008201527f6769626c6520746f20766f746500000000000000000000000000000000000000602082015250565b614cdf8161447e565b8114614cea57600080fd5b50565b614cf68161449c565b8114614d0157600080fd5b50565b614d0d816144c6565b8114614d1857600080fd5b5056fe416464726573733a206c6f772d6c6576656c2064656c65676174652063616c6c206661696c6564a2646970667358221220e5a65660586436526cf1bfd43daaa881399e1d493e3cf5a98fc9f660d081068b64736f6c63430008040033",
  "linkReferences": {},
  "deployedLinkReferences": {}
}