{
  "_format": "hh-sol-artifact-1",
  "contractName": "ZuriElection",
  "sourceName": "contracts/ZuriElection.sol",
  "abi": [
    {
      "inputs": [],
      "stateMutability": "nonpayable",
      "type": "constructor"
    },
    {
      "inputs": [],
      "name": "ElectionHasEnded",
      "type": "error"
    },
    {
      "inputs": [],
      "name": "ElectionNotStarted",
      "type": "error"
    },
    {
      "anonymous": false,
      "inputs": [
        {
          "indexed": false,
          "internalType": "uint256",
          "name": "_candidateId",
          "type": "uint256"
        },
        {
          "indexed": false,
          "internalType": "string",
          "name": "_candidateName",
          "type": "string"
        }
      ],
      "name": "CandidateCreated",
      "type": "event"
    },
    {
      "anonymous": false,
      "inputs": [
        {
          "indexed": false,
          "internalType": "uint256[]",
          "name": "_winnerIds",
          "type": "uint256[]"
        },
        {
          "indexed": false,
          "internalType": "uint256",
          "name": "_winnerVoteCount",
          "type": "uint256"
        }
      ],
      "name": "ElectionEnded",
      "type": "event"
    },
    {
      "anonymous": false,
      "inputs": [
        {
          "indexed": false,
          "internalType": "address",
          "name": "account",
          "type": "address"
        }
      ],
      "name": "Paused",
      "type": "event"
    },
    {
      "anonymous": false,
      "inputs": [
        {
          "indexed": false,
          "internalType": "address",
          "name": "account",
          "type": "address"
        }
      ],
      "name": "Unpaused",
      "type": "event"
    },
    {
      "anonymous": false,
      "inputs": [
        {
          "indexed": false,
          "internalType": "uint256",
          "name": "_candidateId",
          "type": "uint256"
        },
        {
          "indexed": false,
          "internalType": "uint256",
          "name": "_candidateVoteCount",
          "type": "uint256"
        }
      ],
      "name": "VoteForCandidate",
      "type": "event"
    },
    {
      "inputs": [],
      "name": "Active",
      "outputs": [
        {
          "internalType": "bool",
          "name": "",
          "type": "bool"
        }
      ],
      "stateMutability": "view",
      "type": "function"
    },
    {
      "inputs": [],
      "name": "Ended",
      "outputs": [
        {
          "internalType": "bool",
          "name": "",
          "type": "bool"
        }
      ],
      "stateMutability": "view",
      "type": "function"
    },
    {
      "inputs": [
        {
          "internalType": "address",
          "name": "_newTeacher",
          "type": "address"
        }
      ],
      "name": "addTeacher",
      "outputs": [],
      "stateMutability": "nonpayable",
      "type": "function"
    },
    {
      "inputs": [
        {
          "internalType": "uint256",
          "name": "",
          "type": "uint256"
        }
      ],
      "name": "candidates",
      "outputs": [
        {
          "internalType": "uint256",
          "name": "id",
          "type": "uint256"
        },
        {
          "internalType": "string",
          "name": "name",
          "type": "string"
        },
        {
          "internalType": "uint256",
          "name": "voteCount",
          "type": "uint256"
        }
      ],
      "stateMutability": "view",
      "type": "function"
    },
    {
      "inputs": [],
      "name": "candidatesCount",
      "outputs": [
        {
          "internalType": "uint256",
          "name": "",
          "type": "uint256"
        }
      ],
      "stateMutability": "view",
      "type": "function"
    },
    {
      "inputs": [],
      "name": "chairman",
      "outputs": [
        {
          "internalType": "address",
          "name": "",
          "type": "address"
        }
      ],
      "stateMutability": "view",
      "type": "function"
    },
    {
      "inputs": [
        {
          "internalType": "address",
          "name": "_newChairman",
          "type": "address"
        }
      ],
      "name": "changeChairman",
      "outputs": [],
      "stateMutability": "nonpayable",
      "type": "function"
    },
    {
      "inputs": [],
      "name": "description",
      "outputs": [
        {
          "internalType": "string",
          "name": "",
          "type": "string"
        }
      ],
      "stateMutability": "view",
      "type": "function"
    },
    {
      "inputs": [],
      "name": "endElection",
      "outputs": [],
      "stateMutability": "nonpayable",
      "type": "function"
    },
    {
      "inputs": [
        {
          "internalType": "bytes32[]",
          "name": "proof",
          "type": "bytes32[]"
        },
        {
          "internalType": "bytes32",
          "name": "leaf",
          "type": "bytes32"
        }
      ],
      "name": "isValid",
      "outputs": [
        {
          "internalType": "bool",
          "name": "",
          "type": "bool"
        }
      ],
      "stateMutability": "view",
      "type": "function"
    },
    {
      "inputs": [],
      "name": "makeResultPublic",
      "outputs": [
        {
          "internalType": "uint256",
          "name": "",
          "type": "uint256"
        },
        {
          "internalType": "uint256[]",
          "name": "",
          "type": "uint256[]"
        }
      ],
      "stateMutability": "view",
      "type": "function"
    },
    {
      "inputs": [],
      "name": "pause",
      "outputs": [],
      "stateMutability": "nonpayable",
      "type": "function"
    },
    {
      "inputs": [],
      "name": "paused",
      "outputs": [
        {
          "internalType": "bool",
          "name": "",
          "type": "bool"
        }
      ],
      "stateMutability": "view",
      "type": "function"
    },
    {
      "inputs": [],
      "name": "position",
      "outputs": [
        {
          "internalType": "string",
          "name": "",
          "type": "string"
        }
      ],
      "stateMutability": "view",
      "type": "function"
    },
    {
      "inputs": [
        {
          "internalType": "address",
          "name": "_teacher",
          "type": "address"
        }
      ],
      "name": "removeTeacher",
      "outputs": [],
      "stateMutability": "nonpayable",
      "type": "function"
    },
    {
      "inputs": [],
      "name": "root",
      "outputs": [
        {
          "internalType": "bytes32",
          "name": "",
          "type": "bytes32"
        }
      ],
      "stateMutability": "view",
      "type": "function"
    },
    {
      "inputs": [],
      "name": "startElection",
      "outputs": [],
      "stateMutability": "nonpayable",
      "type": "function"
    },
    {
      "inputs": [
        {
          "internalType": "address",
          "name": "",
          "type": "address"
        }
      ],
      "name": "teachers",
      "outputs": [
        {
          "internalType": "bool",
          "name": "",
          "type": "bool"
        }
      ],
      "stateMutability": "view",
      "type": "function"
    },
    {
      "inputs": [],
      "name": "unpause",
      "outputs": [],
      "stateMutability": "nonpayable",
      "type": "function"
    },
    {
      "inputs": [
        {
          "internalType": "uint256",
          "name": "_candidateId",
          "type": "uint256"
        },
        {
          "internalType": "bytes32[]",
          "name": "hexProof",
          "type": "bytes32[]"
        }
      ],
      "name": "vote",
      "outputs": [],
      "stateMutability": "nonpayable",
      "type": "function"
    },
    {
      "inputs": [
        {
          "internalType": "address",
          "name": "",
          "type": "address"
        }
      ],
      "name": "voted",
      "outputs": [
        {
          "internalType": "bool",
          "name": "",
          "type": "bool"
        }
      ],
      "stateMutability": "view",
      "type": "function"
    },
    {
      "inputs": [
        {
          "internalType": "uint256",
          "name": "",
          "type": "uint256"
        }
      ],
      "name": "winnerIds",
      "outputs": [
        {
          "internalType": "uint256",
          "name": "",
          "type": "uint256"
        }
      ],
      "stateMutability": "view",
      "type": "function"
    },
    {
      "inputs": [],
      "name": "winnerVoteCount",
      "outputs": [
        {
          "internalType": "uint256",
          "name": "",
          "type": "uint256"
        }
      ],
      "stateMutability": "view",
      "type": "function"
    }
  ],
  "bytecode": "0x608060405234801561001057600080fd5b5060008060006101000a81548160ff0219169083151502179055503373ffffffffffffffffffffffffffffffffffffffff16600060019054906101000a905050506000600a60006101000a81548160ff0219169083151502179055506000600a60016101000a81548160ff02191690831515021790555060006004819055506125228061009e6000396000f3fe608060405234801561001057600080fd5b506004361061014d5760003560e01c806362d73eb8116100c3578063b8a20ed01161007c578063b8a20ed014610335578063c9b0a2a714610365578063e810186914610383578063ebf0c7171461039f578063f0a47f78146103bd578063fd27419b146103ed5761014d565b806362d73eb8146102965780637284e416146102a05780638456cb59146102be57806387f7b975146102c857806395adfc5e146102e6578063aec2ccae146103055761014d565b80633f4ba83a116101155780633f4ba83a146101fa578063403d131214610204578063477383f31461023457806352ff68461461025257806359f784681461026e5780635c975abb146102785761014d565b806309218e91146101525780632d35a8a2146101705780632f22850d1461018e5780633477ee2e146101ac5780633bc6e309146101de575b600080fd5b61015a610409565b6040516101679190611d24565b60405180910390f35b610178610497565b6040516101859190611e86565b60405180910390f35b61019661049d565b6040516101a39190611e86565b60405180910390f35b6101c660048036038101906101c19190611933565b6104a3565b6040516101d593929190611ed1565b60405180910390f35b6101f860048036038101906101f391906118b6565b610555565b005b6102026106e3565b005b61021e60048036038101906102199190611933565b6107bb565b60405161022b9190611e86565b60405180910390f35b61023c6107df565b6040516102499190611cee565b60405180910390f35b61026c600480360381019061026791906118b6565b6107f2565b005b610276610980565b005b610280610abb565b60405161028d9190611cee565b60405180910390f35b61029e610ad1565b005b6102a8610bc6565b6040516102b59190611d24565b60405180910390f35b6102c6610c54565b005b6102d0610d2c565b6040516102dd9190611ca3565b60405180910390f35b6102ee610d52565b6040516102fc929190611ea1565b60405180910390f35b61031f600480360381019061031a91906118b6565b610ea0565b60405161032c9190611cee565b60405180910390f35b61034f600480360381019061034a91906118df565b610ec0565b60405161035c9190611cee565b60405180910390f35b61036d610ed7565b60405161037a9190611cee565b60405180910390f35b61039d600480360381019061039891906118b6565b610eea565b005b6103a7611006565b6040516103b49190611d09565b60405180910390f35b6103d760048036038101906103d291906118b6565b61100c565b6040516103e49190611cee565b60405180910390f35b6104076004803603810190610402919061195c565b61102c565b005b600180546104169061209a565b80601f01602080910402602001604051908101604052809291908181526020018280546104429061209a565b801561048f5780601f106104645761010080835404028352916020019161048f565b820191906000526020600020905b81548152906001019060200180831161047257829003601f168201915b505050505081565b60045481565b60095481565b60076020528060005260406000206000915090508060000154908060010180546104cc9061209a565b80601f01602080910402602001604051908101604052809291908181526020018280546104f89061209a565b80156105455780601f1061051a57610100808354040283529160200191610545565b820191906000526020600020905b81548152906001019060200180831161052857829003601f168201915b5050505050908060020154905083565b61055d610abb565b1561059d576040517f08c379a000000000000000000000000000000000000000000000000000000000815260040161059490611da6565b60405180910390fd5b3373ffffffffffffffffffffffffffffffffffffffff16600060019054906101000a900473ffffffffffffffffffffffffffffffffffffffff1673ffffffffffffffffffffffffffffffffffffffff161480610649575060011515600560003373ffffffffffffffffffffffffffffffffffffffff1673ffffffffffffffffffffffffffffffffffffffff16815260200190815260200160002060009054906101000a900460ff161515145b610688576040517f08c379a000000000000000000000000000000000000000000000000000000000815260040161067f90611d86565b60405180910390fd5b6001600560008373ffffffffffffffffffffffffffffffffffffffff1673ffffffffffffffffffffffffffffffffffffffff16815260200190815260200160002060006101000a81548160ff02191690831515021790555050565b600060019054906101000a900473ffffffffffffffffffffffffffffffffffffffff1673ffffffffffffffffffffffffffffffffffffffff163373ffffffffffffffffffffffffffffffffffffffff1614610773576040517f08c379a000000000000000000000000000000000000000000000000000000000815260040161076a90611e26565b60405180910390fd5b61077b61118a565b7f5db9ee0a495bf2e6ff9c91a7834c1ba4fdd244a5e8aa4e537bd38aeae4b073aa6107a461122b565b6040516107b19190611ca3565b60405180910390a1565b600881815481106107cb57600080fd5b906000526020600020016000915090505481565b600a60019054906101000a900460ff1681565b6107fa610abb565b1561083a576040517f08c379a000000000000000000000000000000000000000000000000000000000815260040161083190611da6565b60405180910390fd5b3373ffffffffffffffffffffffffffffffffffffffff16600060019054906101000a900473ffffffffffffffffffffffffffffffffffffffff1673ffffffffffffffffffffffffffffffffffffffff1614806108e6575060011515600560003373ffffffffffffffffffffffffffffffffffffffff1673ffffffffffffffffffffffffffffffffffffffff16815260200190815260200160002060009054906101000a900460ff161515145b610925576040517f08c379a000000000000000000000000000000000000000000000000000000000815260040161091c90611d86565b60405180910390fd5b6000600560008373ffffffffffffffffffffffffffffffffffffffff1673ffffffffffffffffffffffffffffffffffffffff16815260200190815260200160002060006101000a81548160ff02191690831515021790555050565b610988610abb565b156109c8576040517f08c379a00000000000000000000000000000000000000000000000000000000081526004016109bf90611da6565b60405180910390fd5b600060019054906101000a900473ffffffffffffffffffffffffffffffffffffffff1673ffffffffffffffffffffffffffffffffffffffff163373ffffffffffffffffffffffffffffffffffffffff1614610a58576040517f08c379a0000000000000000000000000000000000000000000000000000000008152600401610a4f90611e26565b60405180910390fd5b6001600a60016101000a81548160ff021916908315150217905550610a7b611233565b50507f38d8ebbbb4803f034f19b4cf2f19bfb84cc5dea177696c1f80a19357d5602e046008600954604051610ab1929190611cbe565b60405180910390a1565b60008060009054906101000a900460ff16905090565b610ad9610abb565b15610b19576040517f08c379a0000000000000000000000000000000000000000000000000000000008152600401610b1090611da6565b60405180910390fd5b600060019054906101000a900473ffffffffffffffffffffffffffffffffffffffff1673ffffffffffffffffffffffffffffffffffffffff163373ffffffffffffffffffffffffffffffffffffffff1614610ba9576040517f08c379a0000000000000000000000000000000000000000000000000000000008152600401610ba090611e26565b60405180910390fd5b6001600a60006101000a81548160ff021916908315150217905550565b60028054610bd39061209a565b80601f0160208091040260200160405190810160405280929190818152602001828054610bff9061209a565b8015610c4c5780601f10610c2157610100808354040283529160200191610c4c565b820191906000526020600020905b815481529060010190602001808311610c2f57829003601f168201915b505050505081565b600060019054906101000a900473ffffffffffffffffffffffffffffffffffffffff1673ffffffffffffffffffffffffffffffffffffffff163373ffffffffffffffffffffffffffffffffffffffff1614610ce4576040517f08c379a0000000000000000000000000000000000000000000000000000000008152600401610cdb90611e26565b60405180910390fd5b610cec6113ef565b7f62e78cea01bee320cd4e420270b5ea74000d11b0c9f74754ebdbfc544b05a258610d1561122b565b604051610d229190611ca3565b60405180910390a1565b600060019054906101000a900473ffffffffffffffffffffffffffffffffffffffff1681565b600060603373ffffffffffffffffffffffffffffffffffffffff16600060019054906101000a900473ffffffffffffffffffffffffffffffffffffffff1673ffffffffffffffffffffffffffffffffffffffff161480610e02575060011515600560003373ffffffffffffffffffffffffffffffffffffffff1673ffffffffffffffffffffffffffffffffffffffff16815260200190815260200160002060009054906101000a900460ff161515145b610e41576040517f08c379a0000000000000000000000000000000000000000000000000000000008152600401610e3890611d66565b60405180910390fd5b600954600880805480602002602001604051908101604052809291908181526020018280548015610e9157602002820191906000526020600020905b815481526020019060010190808311610e7d575b50505050509050915091509091565b60066020528060005260406000206000915054906101000a900460ff1681565b6000610ecf8360035484611491565b905092915050565b600a60009054906101000a900460ff1681565b610ef2610abb565b15610f32576040517f08c379a0000000000000000000000000000000000000000000000000000000008152600401610f2990611da6565b60405180910390fd5b600060019054906101000a900473ffffffffffffffffffffffffffffffffffffffff1673ffffffffffffffffffffffffffffffffffffffff163373ffffffffffffffffffffffffffffffffffffffff1614610fc2576040517f08c379a0000000000000000000000000000000000000000000000000000000008152600401610fb990611e26565b60405180910390fd5b80600060016101000a81548173ffffffffffffffffffffffffffffffffffffffff021916908373ffffffffffffffffffffffffffffffffffffffff16021790555050565b60035481565b60056020528060005260406000206000915054906101000a900460ff1681565b600a60019054906101000a900460ff161561107c576040517f08c379a000000000000000000000000000000000000000000000000000000000815260040161107390611de6565b60405180910390fd5b600a60009054906101000a900460ff166110cb576040517f08c379a00000000000000000000000000000000000000000000000000000000081526004016110c290611dc6565b60405180910390fd5b61113c828280806020026020016040519081016040528093929190818152602001838360200280828437600081840152601f19601f82011690508083019250505050505050336040516020016111219190611c88565b60405160208183030381529060405280519060200120610ec0565b61117b576040517f08c379a000000000000000000000000000000000000000000000000000000000815260040161117290611e66565b60405180910390fd5b61118583336114a8565b505050565b611192610abb565b6111d1576040517f08c379a00000000000000000000000000000000000000000000000000000000081526004016111c890611d46565b60405180910390fd5b60008060006101000a81548160ff0219169083151502179055507f5db9ee0a495bf2e6ff9c91a7834c1ba4fdd244a5e8aa4e537bd38aeae4b073aa61121461122b565b6040516112219190611ca3565b60405180910390a1565b600033905090565b6000606061123f610abb565b1561127f576040517f08c379a000000000000000000000000000000000000000000000000000000000815260040161127690611da6565b60405180910390fd5b60005b60045481101561138f576009546007600083815260200190815260200160002060020154111561131b576007600082815260200190815260200160002060020154600981905550600860006112d79190611759565b60086007600083815260200190815260200160002060000154908060018154018082558091505060019003906000526020600020016000909190919091505561137c565b6009546007600083815260200190815260200160002060020154141561137b576008600760008381526020019081526020016000206000015490806001815401808255809150506001900390600052602060002001600090919091909150555b5b808061138790612117565b915050611282565b506009546008808054806020026020016040519081016040528092919081815260200182805480156113e057602002820191906000526020600020905b8154815260200190600101908083116113cc575b50505050509050915091509091565b6113f7610abb565b15611437576040517f08c379a000000000000000000000000000000000000000000000000000000000815260040161142e90611da6565b60405180910390fd5b60016000806101000a81548160ff0219169083151502179055507f62e78cea01bee320cd4e420270b5ea74000d11b0c9f74754ebdbfc544b05a25861147a61122b565b6040516114879190611ca3565b60405180910390a1565b60008261149e85846116a7565b1490509392505050565b6114b0610abb565b156114f0576040517f08c379a00000000000000000000000000000000000000000000000000000000081526004016114e790611da6565b60405180910390fd5b8160045481108015611503575060008110155b611542576040517f08c379a000000000000000000000000000000000000000000000000000000000815260040161153990611e06565b60405180910390fd5b600660008373ffffffffffffffffffffffffffffffffffffffff1673ffffffffffffffffffffffffffffffffffffffff16815260200190815260200160002060009054906101000a900460ff16156115cf576040517f08c379a00000000000000000000000000000000000000000000000000000000081526004016115c690611e46565b60405180910390fd5b6001600660008473ffffffffffffffffffffffffffffffffffffffff1673ffffffffffffffffffffffffffffffffffffffff16815260200190815260200160002060006101000a81548160ff02191690831515021790555060076000848152602001908152602001600020600201600081548092919061164e90612117565b91905055507fd3ebd88818d034d26c5d98bcef9c7c45207130238e76e8cf0b3ba00e906851bf83600760008681526020019081526020016000206002015460405161169a929190611f0f565b60405180910390a1505050565b60008082905060005b84518110156117375760008582815181106116f4577f4e487b7100000000000000000000000000000000000000000000000000000000600052603260045260246000fd5b602002602001015190508083116117165761170f8382611742565b9250611723565b6117208184611742565b92505b50808061172f90612117565b9150506116b0565b508091505092915050565b600082600052816020526040600020905092915050565b5080546000825590600052602060002090810190611777919061177a565b50565b5b8082111561179357600081600090555060010161177b565b5090565b60006117aa6117a584611f5d565b611f38565b905080838252602082019050828560208602820111156117c957600080fd5b60005b858110156117f957816117df888261188c565b8452602084019350602083019250506001810190506117cc565b5050509392505050565b600081359050611812816124a7565b92915050565b60008083601f84011261182a57600080fd5b8235905067ffffffffffffffff81111561184357600080fd5b60208301915083602082028301111561185b57600080fd5b9250929050565b600082601f83011261187357600080fd5b8135611883848260208601611797565b91505092915050565b60008135905061189b816124be565b92915050565b6000813590506118b0816124d5565b92915050565b6000602082840312156118c857600080fd5b60006118d684828501611803565b91505092915050565b600080604083850312156118f257600080fd5b600083013567ffffffffffffffff81111561190c57600080fd5b61191885828601611862565b92505060206119298582860161188c565b9150509250929050565b60006020828403121561194557600080fd5b6000611953848285016118a1565b91505092915050565b60008060006040848603121561197157600080fd5b600061197f868287016118a1565b935050602084013567ffffffffffffffff81111561199c57600080fd5b6119a886828701611818565b92509250509250925092565b60006119c08383611c6a565b60208301905092915050565b6119d581612015565b82525050565b6119ec6119e782612015565b612160565b82525050565b60006119fd82611fae565b611a078185611fe9565b9350611a1283611f89565b8060005b83811015611a43578151611a2a88826119b4565b9750611a3583611fcf565b925050600181019050611a16565b5085935050505092915050565b6000611a5b82611fb9565b611a658185611fe9565b9350611a7083611f99565b8060005b83811015611aa857611a8582612211565b611a8f88826119b4565b9750611a9a83611fdc565b925050600181019050611a74565b5085935050505092915050565b611abe81612027565b82525050565b611acd81612033565b82525050565b6000611ade82611fc4565b611ae88185611ffa565b9350611af8818560208601612067565b611b0181612224565b840191505092915050565b6000611b19601483611ffa565b9150611b248261224f565b602082019050919050565b6000611b3c602e83611ffa565b9150611b4782612278565b604082019050919050565b6000611b5f602d83611ffa565b9150611b6a826122c7565b604082019050919050565b6000611b82601083611ffa565b9150611b8d82612316565b602082019050919050565b6000611ba5603083611ffa565b9150611bb08261233f565b604082019050919050565b6000611bc8601e83611ffa565b9150611bd38261238e565b602082019050919050565b6000611beb601a83611ffa565b9150611bf6826123b7565b602082019050919050565b6000611c0e602483611ffa565b9150611c19826123e0565b604082019050919050565b6000611c31601883611ffa565b9150611c3c8261242f565b602082019050919050565b6000611c54602d83611ffa565b9150611c5f82612458565b604082019050919050565b611c738161205d565b82525050565b611c828161205d565b82525050565b6000611c9482846119db565b60148201915081905092915050565b6000602082019050611cb860008301846119cc565b92915050565b60006040820190508181036000830152611cd88185611a50565b9050611ce76020830184611c79565b9392505050565b6000602082019050611d036000830184611ab5565b92915050565b6000602082019050611d1e6000830184611ac4565b92915050565b60006020820190508181036000830152611d3e8184611ad3565b905092915050565b60006020820190508181036000830152611d5f81611b0c565b9050919050565b60006020820190508181036000830152611d7f81611b2f565b9050919050565b60006020820190508181036000830152611d9f81611b52565b9050919050565b60006020820190508181036000830152611dbf81611b75565b9050919050565b60006020820190508181036000830152611ddf81611b98565b9050919050565b60006020820190508181036000830152611dff81611bbb565b9050919050565b60006020820190508181036000830152611e1f81611bde565b9050919050565b60006020820190508181036000830152611e3f81611c01565b9050919050565b60006020820190508181036000830152611e5f81611c24565b9050919050565b60006020820190508181036000830152611e7f81611c47565b9050919050565b6000602082019050611e9b6000830184611c79565b92915050565b6000604082019050611eb66000830185611c79565b8181036020830152611ec881846119f2565b90509392505050565b6000606082019050611ee66000830186611c79565b8181036020830152611ef88185611ad3565b9050611f076040830184611c79565b949350505050565b6000604082019050611f246000830185611c79565b611f316020830184611c79565b9392505050565b6000611f42611f53565b9050611f4e82826120e6565b919050565b6000604051905090565b600067ffffffffffffffff821115611f7857611f776121e2565b5b602082029050602081019050919050565b6000819050602082019050919050565b60008190508160005260206000209050919050565b600081519050919050565b600081549050919050565b600081519050919050565b6000602082019050919050565b6000600182019050919050565b600082825260208201905092915050565b600082825260208201905092915050565b6000819050919050565b60006120208261203d565b9050919050565b60008115159050919050565b6000819050919050565b600073ffffffffffffffffffffffffffffffffffffffff82169050919050565b6000819050919050565b60005b8381101561208557808201518184015260208101905061206a565b83811115612094576000848401525b50505050565b600060028204905060018216806120b257607f821691505b602082108114156120c6576120c56121b3565b5b50919050565b60006120df6120da83612242565b61200b565b9050919050565b6120ef82612224565b810181811067ffffffffffffffff8211171561210e5761210d6121e2565b5b80604052505050565b60006121228261205d565b91507fffffffffffffffffffffffffffffffffffffffffffffffffffffffffffffffff82141561215557612154612184565b5b600182019050919050565b600061216b82612172565b9050919050565b600061217d82612235565b9050919050565b7f4e487b7100000000000000000000000000000000000000000000000000000000600052601160045260246000fd5b7f4e487b7100000000000000000000000000000000000000000000000000000000600052602260045260246000fd5b7f4e487b7100000000000000000000000000000000000000000000000000000000600052604160045260246000fd5b600061221d82546120cc565b9050919050565b6000601f19601f8301169050919050565b60008160601b9050919050565b60008160001c9050919050565b7f5061757361626c653a206e6f7420706175736564000000000000000000000000600082015250565b7f6f6e6c792074656163686572732f63686169726d616e2063616e206d616b652060008201527f726573756c7473207075626c6963000000000000000000000000000000000000602082015250565b7f6f6e6c792074656163686572732f63686169726d616e2063616e2063616c6c2060008201527f746869732066756e6374696f6e00000000000000000000000000000000000000602082015250565b7f5061757361626c653a2070617573656400000000000000000000000000000000600082015250565b7f506c6561736520636865636b206261636b2c2074686520656c656374696f6e2060008201527f686173206e6f7420737461727465642100000000000000000000000000000000602082015250565b7f536f7272792c2074686520456c656374696f6e2068617320656e646564210000600082015250565b7f496e76616c69642063616e64696461746520746f20566f746521000000000000600082015250565b7f6f6e6c792063686169726d616e2063616e2063616c6c20746869732066756e6360008201527f74696f6e00000000000000000000000000000000000000000000000000000000602082015250565b7f566f7465722068617320616c726561647920566f746564210000000000000000600082015250565b7f736f7272792c206f6e6c79207374616b65686f6c646572732061726520656c6960008201527f6769626c6520746f20766f746500000000000000000000000000000000000000602082015250565b6124b081612015565b81146124bb57600080fd5b50565b6124c781612033565b81146124d257600080fd5b50565b6124de8161205d565b81146124e957600080fd5b5056fea26469706673582212207a14ac2a5dab96f2dc382844680585c089d008f858417c4fc5deddcbc8cd771a64736f6c63430008040033",
  "linkReferences": {},
  "deployedLinkReferences": {}
}